{
  "_format": "hh-sol-artifact-1",
  "contractName": "ComposableParentERC721",
  "sourceName": "contracts/ComposableParentERC721.sol",
  "abi": [
    {
      "inputs": [
        {
          "internalType": "string",
          "name": "name",
          "type": "string"
        },
        {
          "internalType": "string",
          "name": "symbol",
          "type": "string"
        },
        {
          "internalType": "string",
          "name": "baseURI",
          "type": "string"
        },
        {
          "internalType": "uint256",
          "name": "firstUpgradeEngagementPoints",
          "type": "uint256"
        }
      ],
      "stateMutability": "nonpayable",
      "type": "constructor"
    },
    {
      "anonymous": false,
      "inputs": [
        {
          "indexed": true,
          "internalType": "address",
          "name": "owner",
          "type": "address"
        },
        {
          "indexed": true,
          "internalType": "address",
          "name": "approved",
          "type": "address"
        },
        {
          "indexed": true,
          "internalType": "uint256",
          "name": "tokenId",
          "type": "uint256"
        }
      ],
      "name": "Approval",
      "type": "event"
    },
    {
      "anonymous": false,
      "inputs": [
        {
          "indexed": true,
          "internalType": "address",
          "name": "owner",
          "type": "address"
        },
        {
          "indexed": true,
          "internalType": "address",
          "name": "operator",
          "type": "address"
        },
        {
          "indexed": false,
          "internalType": "bool",
          "name": "approved",
          "type": "bool"
        }
      ],
      "name": "ApprovalForAll",
      "type": "event"
    },
    {
      "anonymous": false,
      "inputs": [
        {
          "indexed": false,
          "internalType": "uint256",
          "name": "_value",
          "type": "uint256"
        }
      ],
      "name": "MaxSupplyUpdated",
      "type": "event"
    },
    {
      "anonymous": false,
      "inputs": [
        {
          "indexed": true,
          "internalType": "uint256",
          "name": "price",
          "type": "uint256"
        }
      ],
      "name": "NFTMintPriceUpdated",
      "type": "event"
    },
    {
      "anonymous": false,
      "inputs": [
        {
          "indexed": true,
          "internalType": "address",
          "name": "NFTowner",
          "type": "address"
        },
        {
          "indexed": true,
          "internalType": "uint256",
          "name": "tokenId",
          "type": "uint256"
        }
      ],
      "name": "NFTMinted",
      "type": "event"
    },
    {
      "anonymous": false,
      "inputs": [
        {
          "indexed": false,
          "internalType": "address",
          "name": "account",
          "type": "address"
        }
      ],
      "name": "Paused",
      "type": "event"
    },
    {
      "anonymous": false,
      "inputs": [
        {
          "indexed": true,
          "internalType": "address",
          "name": "from",
          "type": "address"
        },
        {
          "indexed": true,
          "internalType": "uint256",
          "name": "toTokenId",
          "type": "uint256"
        },
        {
          "indexed": true,
          "internalType": "address",
          "name": "childContract",
          "type": "address"
        },
        {
          "indexed": false,
          "internalType": "uint256",
          "name": "childTokenId",
          "type": "uint256"
        },
        {
          "indexed": false,
          "internalType": "uint256",
          "name": "amount",
          "type": "uint256"
        }
      ],
      "name": "ReceivedChild",
      "type": "event"
    },
    {
      "anonymous": false,
      "inputs": [
        {
          "indexed": true,
          "internalType": "bytes32",
          "name": "role",
          "type": "bytes32"
        },
        {
          "indexed": true,
          "internalType": "bytes32",
          "name": "previousAdminRole",
          "type": "bytes32"
        },
        {
          "indexed": true,
          "internalType": "bytes32",
          "name": "newAdminRole",
          "type": "bytes32"
        }
      ],
      "name": "RoleAdminChanged",
      "type": "event"
    },
    {
      "anonymous": false,
      "inputs": [
        {
          "indexed": true,
          "internalType": "bytes32",
          "name": "role",
          "type": "bytes32"
        },
        {
          "indexed": true,
          "internalType": "address",
          "name": "account",
          "type": "address"
        },
        {
          "indexed": true,
          "internalType": "address",
          "name": "sender",
          "type": "address"
        }
      ],
      "name": "RoleGranted",
      "type": "event"
    },
    {
      "anonymous": false,
      "inputs": [
        {
          "indexed": true,
          "internalType": "bytes32",
          "name": "role",
          "type": "bytes32"
        },
        {
          "indexed": true,
          "internalType": "address",
          "name": "account",
          "type": "address"
        },
        {
          "indexed": true,
          "internalType": "address",
          "name": "sender",
          "type": "address"
        }
      ],
      "name": "RoleRevoked",
      "type": "event"
    },
    {
      "anonymous": false,
      "inputs": [
        {
          "indexed": true,
          "internalType": "uint256",
          "name": "tierId",
          "type": "uint256"
        },
        {
          "indexed": true,
          "internalType": "uint256",
          "name": "price",
          "type": "uint256"
        }
      ],
      "name": "TierUpgradePriceUpdated",
      "type": "event"
    },
    {
      "anonymous": false,
      "inputs": [
        {
          "indexed": true,
          "internalType": "address",
          "name": "from",
          "type": "address"
        },
        {
          "indexed": true,
          "internalType": "address",
          "name": "to",
          "type": "address"
        },
        {
          "indexed": true,
          "internalType": "uint256",
          "name": "tokenId",
          "type": "uint256"
        }
      ],
      "name": "Transfer",
      "type": "event"
    },
    {
      "anonymous": false,
      "inputs": [
        {
          "indexed": true,
          "internalType": "uint256",
          "name": "fromTokenId",
          "type": "uint256"
        },
        {
          "indexed": true,
          "internalType": "address",
          "name": "to",
          "type": "address"
        },
        {
          "indexed": true,
          "internalType": "address",
          "name": "childContract",
          "type": "address"
        },
        {
          "indexed": false,
          "internalType": "uint256[]",
          "name": "childTokenIds",
          "type": "uint256[]"
        },
        {
          "indexed": false,
          "internalType": "uint256[]",
          "name": "amounts",
          "type": "uint256[]"
        }
      ],
      "name": "TransferBatchChild",
      "type": "event"
    },
    {
      "anonymous": false,
      "inputs": [
        {
          "indexed": true,
          "internalType": "uint256",
          "name": "fromTokenId",
          "type": "uint256"
        },
        {
          "indexed": true,
          "internalType": "address",
          "name": "to",
          "type": "address"
        },
        {
          "indexed": true,
          "internalType": "address",
          "name": "childContract",
          "type": "address"
        },
        {
          "indexed": false,
          "internalType": "uint256",
          "name": "childTokenId",
          "type": "uint256"
        },
        {
          "indexed": false,
          "internalType": "uint256",
          "name": "amount",
          "type": "uint256"
        }
      ],
      "name": "TransferSingleChild",
      "type": "event"
    },
    {
      "anonymous": false,
      "inputs": [
        {
          "indexed": false,
          "internalType": "address",
          "name": "account",
          "type": "address"
        }
      ],
      "name": "Unpaused",
      "type": "event"
    },
    {
      "inputs": [],
      "name": "ADMIN_ROLE",
      "outputs": [
        {
          "internalType": "bytes32",
          "name": "",
          "type": "bytes32"
        }
      ],
      "stateMutability": "view",
      "type": "function"
    },
    {
      "inputs": [],
      "name": "DEFAULT_ADMIN_ROLE",
      "outputs": [
        {
          "internalType": "bytes32",
          "name": "",
          "type": "bytes32"
        }
      ],
      "stateMutability": "view",
      "type": "function"
    },
    {
      "inputs": [],
      "name": "MINTER_ROLE",
      "outputs": [
        {
          "internalType": "bytes32",
          "name": "",
          "type": "bytes32"
        }
      ],
      "stateMutability": "view",
      "type": "function"
    },
    {
      "inputs": [],
      "name": "PAUSER_ROLE",
      "outputs": [
        {
          "internalType": "bytes32",
          "name": "",
          "type": "bytes32"
        }
      ],
      "stateMutability": "view",
      "type": "function"
    },
    {
      "inputs": [
        {
          "internalType": "address",
          "name": "to",
          "type": "address"
        },
        {
          "internalType": "uint256",
          "name": "tokenId",
          "type": "uint256"
        }
      ],
      "name": "approve",
      "outputs": [],
      "stateMutability": "nonpayable",
      "type": "function"
    },
    {
      "inputs": [
        {
          "internalType": "address",
          "name": "owner",
          "type": "address"
        }
      ],
      "name": "balanceOf",
      "outputs": [
        {
          "internalType": "uint256",
          "name": "",
          "type": "uint256"
        }
      ],
      "stateMutability": "view",
      "type": "function"
    },
    {
      "inputs": [],
      "name": "baseURI",
      "outputs": [
        {
          "internalType": "string",
          "name": "",
          "type": "string"
        }
      ],
      "stateMutability": "view",
      "type": "function"
    },
    {
      "inputs": [
        {
          "internalType": "uint256",
          "name": "tokenId",
          "type": "uint256"
        }
      ],
      "name": "burn",
      "outputs": [],
      "stateMutability": "nonpayable",
      "type": "function"
    },
    {
      "inputs": [
        {
          "internalType": "uint256",
          "name": "_value",
          "type": "uint256"
        }
      ],
      "name": "changeMaxSupply",
      "outputs": [],
      "stateMutability": "nonpayable",
      "type": "function"
    },
    {
      "inputs": [
        {
          "internalType": "uint256",
          "name": "composableId",
          "type": "uint256"
        },
        {
          "internalType": "address",
          "name": "childContract",
          "type": "address"
        },
        {
          "internalType": "uint256",
          "name": "tierId",
          "type": "uint256"
        }
      ],
      "name": "childBalance",
      "outputs": [
        {
          "internalType": "uint256",
          "name": "",
          "type": "uint256"
        }
      ],
      "stateMutability": "view",
      "type": "function"
    },
    {
      "inputs": [
        {
          "internalType": "uint256",
          "name": "composableId",
          "type": "uint256"
        }
      ],
      "name": "childContractsFor",
      "outputs": [
        {
          "internalType": "address[]",
          "name": "",
          "type": "address[]"
        }
      ],
      "stateMutability": "view",
      "type": "function"
    },
    {
      "inputs": [
        {
          "internalType": "uint256",
          "name": "composableId",
          "type": "uint256"
        },
        {
          "internalType": "address",
          "name": "childContract",
          "type": "address"
        }
      ],
      "name": "childIdsForOn",
      "outputs": [
        {
          "internalType": "uint256[]",
          "name": "",
          "type": "uint256[]"
        }
      ],
      "stateMutability": "view",
      "type": "function"
    },
    {
      "inputs": [
        {
          "internalType": "uint256",
          "name": "tokenId",
          "type": "uint256"
        }
      ],
      "name": "getApproved",
      "outputs": [
        {
          "internalType": "address",
          "name": "",
          "type": "address"
        }
      ],
      "stateMutability": "view",
      "type": "function"
    },
    {
      "inputs": [],
      "name": "getComposableCount",
      "outputs": [
        {
          "internalType": "uint256",
          "name": "",
          "type": "uint256"
        }
      ],
      "stateMutability": "view",
      "type": "function"
    },
    {
      "inputs": [
        {
          "internalType": "address",
          "name": "_owner",
          "type": "address"
        }
      ],
      "name": "getComposableId",
      "outputs": [
        {
          "internalType": "uint256",
          "name": "",
          "type": "uint256"
        }
      ],
      "stateMutability": "view",
      "type": "function"
    },
    {
      "inputs": [
        {
          "internalType": "uint256",
          "name": "_composableId",
          "type": "uint256"
        },
        {
          "internalType": "address",
          "name": "_childContract",
          "type": "address"
        }
      ],
      "name": "getLevel",
      "outputs": [
        {
          "internalType": "uint256",
          "name": "",
          "type": "uint256"
        }
      ],
      "stateMutability": "view",
      "type": "function"
    },
    {
      "inputs": [],
      "name": "getMaxSupply",
      "outputs": [
        {
          "internalType": "uint256",
          "name": "",
          "type": "uint256"
        }
      ],
      "stateMutability": "view",
      "type": "function"
    },
    {
      "inputs": [],
      "name": "getMintCost",
      "outputs": [
        {
          "internalType": "uint256",
          "name": "",
          "type": "uint256"
        }
      ],
      "stateMutability": "view",
      "type": "function"
    },
    {
      "inputs": [
        {
          "internalType": "bytes32",
          "name": "role",
          "type": "bytes32"
        }
      ],
      "name": "getRoleAdmin",
      "outputs": [
        {
          "internalType": "bytes32",
          "name": "",
          "type": "bytes32"
        }
      ],
      "stateMutability": "view",
      "type": "function"
    },
    {
      "inputs": [
        {
          "internalType": "bytes32",
          "name": "role",
          "type": "bytes32"
        },
        {
          "internalType": "uint256",
          "name": "index",
          "type": "uint256"
        }
      ],
      "name": "getRoleMember",
      "outputs": [
        {
          "internalType": "address",
          "name": "",
          "type": "address"
        }
      ],
      "stateMutability": "view",
      "type": "function"
    },
    {
      "inputs": [
        {
          "internalType": "bytes32",
          "name": "role",
          "type": "bytes32"
        }
      ],
      "name": "getRoleMemberCount",
      "outputs": [
        {
          "internalType": "uint256",
          "name": "",
          "type": "uint256"
        }
      ],
      "stateMutability": "view",
      "type": "function"
    },
    {
      "inputs": [
        {
          "internalType": "uint256",
          "name": "_tierId",
          "type": "uint256"
        }
      ],
      "name": "getTierUpgradeCost",
      "outputs": [
        {
          "internalType": "uint256",
          "name": "",
          "type": "uint256"
        }
      ],
      "stateMutability": "view",
      "type": "function"
    },
    {
      "inputs": [
        {
          "internalType": "bytes32",
          "name": "role",
          "type": "bytes32"
        },
        {
          "internalType": "address",
          "name": "account",
          "type": "address"
        }
      ],
      "name": "grantRole",
      "outputs": [],
      "stateMutability": "nonpayable",
      "type": "function"
    },
    {
      "inputs": [
        {
          "internalType": "bytes32",
          "name": "role",
          "type": "bytes32"
        },
        {
          "internalType": "address",
          "name": "account",
          "type": "address"
        }
      ],
      "name": "hasRole",
      "outputs": [
        {
          "internalType": "bool",
          "name": "",
          "type": "bool"
        }
      ],
      "stateMutability": "view",
      "type": "function"
    },
    {
      "inputs": [
        {
          "internalType": "address",
          "name": "owner",
          "type": "address"
        },
        {
          "internalType": "address",
          "name": "operator",
          "type": "address"
        }
      ],
      "name": "isApprovedForAll",
      "outputs": [
        {
          "internalType": "bool",
          "name": "",
          "type": "bool"
        }
      ],
      "stateMutability": "view",
      "type": "function"
    },
    {
      "inputs": [],
      "name": "maxSupply",
      "outputs": [
        {
          "internalType": "uint256",
          "name": "",
          "type": "uint256"
        }
      ],
      "stateMutability": "view",
      "type": "function"
    },
    {
      "inputs": [],
      "name": "mint",
      "outputs": [],
      "stateMutability": "payable",
      "type": "function"
    },
    {
      "inputs": [],
      "name": "mintCost",
      "outputs": [
        {
          "internalType": "uint256",
          "name": "",
          "type": "uint256"
        }
      ],
      "stateMutability": "view",
      "type": "function"
    },
    {
      "inputs": [],
      "name": "name",
      "outputs": [
        {
          "internalType": "string",
          "name": "",
          "type": "string"
        }
      ],
      "stateMutability": "view",
      "type": "function"
    },
    {
      "inputs": [
        {
          "internalType": "address",
          "name": "operator",
          "type": "address"
        },
        {
          "internalType": "address",
          "name": "from",
          "type": "address"
        },
        {
          "internalType": "uint256[]",
          "name": "ids",
          "type": "uint256[]"
        },
        {
          "internalType": "uint256[]",
          "name": "values",
          "type": "uint256[]"
        },
        {
          "internalType": "bytes",
          "name": "data",
          "type": "bytes"
        }
      ],
      "name": "onERC1155BatchReceived",
      "outputs": [
        {
          "internalType": "bytes4",
          "name": "",
          "type": "bytes4"
        }
      ],
      "stateMutability": "nonpayable",
      "type": "function"
    },
    {
      "inputs": [
        {
          "internalType": "address",
          "name": "operator",
          "type": "address"
        },
        {
          "internalType": "address",
          "name": "from",
          "type": "address"
        },
        {
          "internalType": "uint256",
          "name": "id",
          "type": "uint256"
        },
        {
          "internalType": "uint256",
          "name": "amount",
          "type": "uint256"
        },
        {
          "internalType": "bytes",
          "name": "data",
          "type": "bytes"
        }
      ],
      "name": "onERC1155Received",
      "outputs": [
        {
          "internalType": "bytes4",
          "name": "",
          "type": "bytes4"
        }
      ],
      "stateMutability": "nonpayable",
      "type": "function"
    },
    {
      "inputs": [
        {
          "internalType": "uint256",
          "name": "tokenId",
          "type": "uint256"
        }
      ],
      "name": "ownerOf",
      "outputs": [
        {
          "internalType": "address",
          "name": "",
          "type": "address"
        }
      ],
      "stateMutability": "view",
      "type": "function"
    },
    {
      "inputs": [
        {
          "internalType": "address",
          "name": "",
          "type": "address"
        }
      ],
      "name": "ownerToComposableId",
      "outputs": [
        {
          "internalType": "uint256",
          "name": "",
          "type": "uint256"
        }
      ],
      "stateMutability": "view",
      "type": "function"
    },
    {
      "inputs": [],
      "name": "pause",
      "outputs": [],
      "stateMutability": "nonpayable",
      "type": "function"
    },
    {
      "inputs": [],
      "name": "paused",
      "outputs": [
        {
          "internalType": "bool",
          "name": "",
          "type": "bool"
        }
      ],
      "stateMutability": "view",
      "type": "function"
    },
    {
      "inputs": [
        {
          "internalType": "bytes32",
          "name": "role",
          "type": "bytes32"
        },
        {
          "internalType": "address",
          "name": "account",
          "type": "address"
        }
      ],
      "name": "renounceRole",
      "outputs": [],
      "stateMutability": "nonpayable",
      "type": "function"
    },
    {
      "inputs": [
        {
          "internalType": "bytes32",
          "name": "role",
          "type": "bytes32"
        },
        {
          "internalType": "address",
          "name": "account",
          "type": "address"
        }
      ],
      "name": "revokeRole",
      "outputs": [],
      "stateMutability": "nonpayable",
      "type": "function"
    },
    {
      "inputs": [
        {
          "internalType": "address",
          "name": "from",
          "type": "address"
        },
        {
          "internalType": "address",
          "name": "to",
          "type": "address"
        },
        {
          "internalType": "uint256",
          "name": "tokenId",
          "type": "uint256"
        }
      ],
      "name": "safeTransferFrom",
      "outputs": [],
      "stateMutability": "nonpayable",
      "type": "function"
    },
    {
      "inputs": [
        {
          "internalType": "address",
          "name": "from",
          "type": "address"
        },
        {
          "internalType": "address",
          "name": "to",
          "type": "address"
        },
        {
          "internalType": "uint256",
          "name": "tokenId",
          "type": "uint256"
        },
        {
          "internalType": "bytes",
          "name": "_data",
          "type": "bytes"
        }
      ],
      "name": "safeTransferFrom",
      "outputs": [],
      "stateMutability": "nonpayable",
      "type": "function"
    },
    {
      "inputs": [
        {
          "internalType": "address",
          "name": "operator",
          "type": "address"
        },
        {
          "internalType": "bool",
          "name": "approved",
          "type": "bool"
        }
      ],
      "name": "setApprovalForAll",
      "outputs": [],
      "stateMutability": "nonpayable",
      "type": "function"
    },
    {
      "inputs": [
        {
          "internalType": "uint256",
          "name": "_cost",
          "type": "uint256"
        }
      ],
      "name": "setMintCost",
      "outputs": [],
      "stateMutability": "nonpayable",
      "type": "function"
    },
    {
      "inputs": [
        {
          "internalType": "uint256",
          "name": "_tierId",
          "type": "uint256"
        },
        {
          "internalType": "uint256",
          "name": "_cost",
          "type": "uint256"
        }
      ],
      "name": "setTierUpgradeCost",
      "outputs": [],
      "stateMutability": "nonpayable",
      "type": "function"
    },
    {
      "inputs": [
        {
          "internalType": "bytes4",
          "name": "interfaceId",
          "type": "bytes4"
        }
      ],
      "name": "supportsInterface",
      "outputs": [
        {
          "internalType": "bool",
          "name": "",
          "type": "bool"
        }
      ],
      "stateMutability": "view",
      "type": "function"
    },
    {
      "inputs": [],
      "name": "symbol",
      "outputs": [
        {
          "internalType": "string",
          "name": "",
          "type": "string"
        }
      ],
      "stateMutability": "view",
      "type": "function"
    },
    {
      "inputs": [
        {
          "internalType": "uint256",
          "name": "index",
          "type": "uint256"
        }
      ],
      "name": "tokenByIndex",
      "outputs": [
        {
          "internalType": "uint256",
          "name": "",
          "type": "uint256"
        }
      ],
      "stateMutability": "view",
      "type": "function"
    },
    {
      "inputs": [
        {
          "internalType": "address",
          "name": "owner",
          "type": "address"
        },
        {
          "internalType": "uint256",
          "name": "index",
          "type": "uint256"
        }
      ],
      "name": "tokenOfOwnerByIndex",
      "outputs": [
        {
          "internalType": "uint256",
          "name": "",
          "type": "uint256"
        }
      ],
      "stateMutability": "view",
      "type": "function"
    },
    {
      "inputs": [
        {
          "internalType": "uint256",
          "name": "tokenId",
          "type": "uint256"
        }
      ],
      "name": "tokenURI",
      "outputs": [
        {
          "internalType": "string",
          "name": "",
          "type": "string"
        }
      ],
      "stateMutability": "view",
      "type": "function"
    },
    {
      "inputs": [],
      "name": "totalSupply",
      "outputs": [
        {
          "internalType": "uint256",
          "name": "",
          "type": "uint256"
        }
      ],
      "stateMutability": "view",
      "type": "function"
    },
    {
      "inputs": [
        {
          "internalType": "address",
          "name": "from",
          "type": "address"
        },
        {
          "internalType": "address",
          "name": "to",
          "type": "address"
        },
        {
          "internalType": "uint256",
          "name": "tokenId",
          "type": "uint256"
        }
      ],
      "name": "transferFrom",
      "outputs": [],
      "stateMutability": "nonpayable",
      "type": "function"
    },
    {
      "inputs": [],
      "name": "unpause",
      "outputs": [],
      "stateMutability": "nonpayable",
      "type": "function"
    }
  ],
  "bytecode": "0x60806040526064601255671bc16d674ec800006013553480156200002257600080fd5b5060405162005dd538038062005dd5833981810160405260808110156200004857600080fd5b81019080805160405193929190846401000000008211156200006957600080fd5b838201915060208201858111156200008057600080fd5b82518660018202830111640100000000821117156200009e57600080fd5b8083526020830192505050908051906020019080838360005b83811015620000d4578082015181840152602081019050620000b7565b50505050905090810190601f168015620001025780820380516001836020036101000a031916815260200191505b50604052602001805160405193929190846401000000008211156200012657600080fd5b838201915060208201858111156200013d57600080fd5b82518660018202830111640100000000821117156200015b57600080fd5b8083526020830192505050908051906020019080838360005b838110156200019157808201518184015260208101905062000174565b50505050905090810190601f168015620001bf5780820380516001836020036101000a031916815260200191505b5060405260200180516040519392919084640100000000821115620001e357600080fd5b83820191506020820185811115620001fa57600080fd5b82518660018202830111640100000000821117156200021857600080fd5b8083526020830192505050908051906020019080838360005b838110156200024e57808201518184015260208101905062000231565b50505050905090810190601f1680156200027c5780820380516001836020036101000a031916815260200191505b50604052602001805190602001909291905050508383838282620002ad6301ffc9a760e01b6200049660201b60201c565b8160079080519060200190620002c592919062000751565b508060089080519060200190620002de92919062000751565b50620002f76380ac58cd60e01b6200049660201b60201c565b6200030f635b5e139f60e01b6200049660201b60201c565b6200032763780e9d6360e01b6200049660201b60201c565b50506200034a63bc197c8160e01b63f23a6e6160e01b186200049660201b60201c565b6200035b816200059f60201b60201c565b5050506000600f60006101000a81548160ff0219169083151502179055506001601081905550600062000393620005bb60201b60201c565b9050620003dc60405180807f41444d494e5f524f4c4500000000000000000000000000000000000000000000815250600a019050604051809103902082620005c360201b60201c565b6200042360405180807f4d494e5445525f524f4c45000000000000000000000000000000000000000000815250600b019050604051809103902082620005c360201b60201c565b6200046a60405180807f5041555345525f524f4c45000000000000000000000000000000000000000000815250600b019050604051809103902082620005c360201b60201c565b600060118190555081601460006001815260200190815260200160002081905550505050505062000800565b63ffffffff60e01b817bffffffffffffffffffffffffffffffffffffffffffffffffffffffff1916141562000533576040517f08c379a000000000000000000000000000000000000000000000000000000000815260040180806020018281038252601c8152602001807f4552433136353a20696e76616c696420696e746572666163652069640000000081525060200191505060405180910390fd5b6001806000837bffffffffffffffffffffffffffffffffffffffffffffffffffffffff19167bffffffffffffffffffffffffffffffffffffffffffffffffffffffff1916815260200190815260200160002060006101000a81548160ff02191690831515021790555050565b80600a9080519060200190620005b792919062000751565b5050565b600033905090565b620005d58282620005d960201b60201c565b5050565b62000607816000808581526020019081526020016000206000016200067c60201b620046411790919060201c565b1562000678576200061d620005bb60201b60201c565b73ffffffffffffffffffffffffffffffffffffffff168173ffffffffffffffffffffffffffffffffffffffff16837f2f8788117e7eff1d82e926ec794901d17c78024a50270940304540a733656f0d60405160405180910390a45b5050565b6000620006ac836000018373ffffffffffffffffffffffffffffffffffffffff1660001b620006b460201b60201c565b905092915050565b6000620006c883836200072e60201b60201c565b6200072357826000018290806001815401808255809150506001900390600052602060002001600090919091909150558260000180549050836001016000848152602001908152602001600020819055506001905062000728565b600090505b92915050565b600080836001016000848152602001908152602001600020541415905092915050565b828054600181600116156101000203166002900490600052602060002090601f016020900481019282601f106200079457805160ff1916838001178555620007c5565b82800160010185558215620007c5579182015b82811115620007c4578251825591602001919060010190620007a7565b5b509050620007d49190620007d8565b5090565b620007fd91905b80821115620007f9576000816000905550600101620007df565b5090565b90565b6155c580620008106000396000f3fe6080604052600436106102c95760003560e01c806370a0823111610175578063b88d4fde116100dc578063d547741f11610095578063e63ab1e91161006f578063e63ab1e914611558578063e985e9c514611583578063f225d4321461160c578063f23a6e611461167b576102c9565b8063d547741f1461148d578063d5abeb01146114e8578063e2275b5214611513576102c9565b8063b88d4fde14610fa0578063bc197c81146110b2578063bdb4b84814611334578063c87b56dd1461135f578063ca15c87314611413578063d539139314611462576102c9565b80638b9220f31161012e5780638b9220f314610d655780639010d07c14610d9057806391d1485414610e1557806395d89b4114610e88578063a217fddf14610f18578063a22cb46514610f43576102c9565b806370a0823114610ba457806375b238fc14610c095780637c926af614610c345780638456cb5914610c835780638545f4ea14610c9a57806389e7e2f214610cd5576102c9565b806336568abe116102345780634e18b762116101ed57806360d4d23a116101c757806360d4d23a146109bb5780636352211e14610a34578063640bfdb514610aaf5780636c0360eb14610b14576102c9565b80634e18b762146108d85780634f6ccce71461093d5780635c975abb1461098c576102c9565b806336568abe1461074a5780633f4ba83a146107a5578063404c7cdd146107bc57806342842e0e146107f757806342966c68146108725780634c0f38c2146108ad576102c9565b806318160ddd1161028657806318160ddd146104db57806323b872dd14610506578063248a9ca3146105815780632676608c146105d05780632f2ff15d146106805780632f745c59146106db576102c9565b806301ffc9a7146102ce57806306fdde0314610340578063081812fc146103d0578063095ea7b31461044b5780631249c58b146104a657806313c738f0146104b0575b600080fd5b3480156102da57600080fd5b50610326600480360360208110156102f157600080fd5b8101908080357bffffffffffffffffffffffffffffffffffffffffffffffffffffffff191690602001909291905050506117e9565b604051808215151515815260200191505060405180910390f35b34801561034c57600080fd5b50610355611851565b6040518080602001828103825283818151815260200191508051906020019080838360005b8381101561039557808201518184015260208101905061037a565b50505050905090810190601f1680156103c25780820380516001836020036101000a031916815260200191505b509250505060405180910390f35b3480156103dc57600080fd5b50610409600480360360208110156103f357600080fd5b81019080803590602001909291905050506118f3565b604051808273ffffffffffffffffffffffffffffffffffffffff1673ffffffffffffffffffffffffffffffffffffffff16815260200191505060405180910390f35b34801561045757600080fd5b506104a46004803603604081101561046e57600080fd5b81019080803573ffffffffffffffffffffffffffffffffffffffff1690602001909291908035906020019092919050505061198e565b005b6104ae611ad2565b005b3480156104bc57600080fd5b506104c5611d9d565b6040518082815260200191505060405180910390f35b3480156104e757600080fd5b506104f0611da7565b6040518082815260200191505060405180910390f35b34801561051257600080fd5b5061057f6004803603606081101561052957600080fd5b81019080803573ffffffffffffffffffffffffffffffffffffffff169060200190929190803573ffffffffffffffffffffffffffffffffffffffff16906020019092919080359060200190929190505050611db8565b005b34801561058d57600080fd5b506105ba600480360360208110156105a457600080fd5b8101908080359060200190929190505050611e2e565b6040518082815260200191505060405180910390f35b3480156105dc57600080fd5b50610629600480360360408110156105f357600080fd5b8101908080359060200190929190803573ffffffffffffffffffffffffffffffffffffffff169060200190929190505050611e4d565b6040518080602001828103825283818151815260200191508051906020019060200280838360005b8381101561066c578082015181840152602081019050610651565b505050509050019250505060405180910390f35b34801561068c57600080fd5b506106d9600480360360408110156106a357600080fd5b8101908080359060200190929190803573ffffffffffffffffffffffffffffffffffffffff169060200190929190505050611fe7565b005b3480156106e757600080fd5b50610734600480360360408110156106fe57600080fd5b81019080803573ffffffffffffffffffffffffffffffffffffffff16906020019092919080359060200190929190505050612070565b6040518082815260200191505060405180910390f35b34801561075657600080fd5b506107a36004803603604081101561076d57600080fd5b8101908080359060200190929190803573ffffffffffffffffffffffffffffffffffffffff1690602001909291905050506120cb565b005b3480156107b157600080fd5b506107ba612164565b005b3480156107c857600080fd5b506107f5600480360360208110156107df57600080fd5b8101908080359060200190929190505050612209565b005b34801561080357600080fd5b506108706004803603606081101561081a57600080fd5b81019080803573ffffffffffffffffffffffffffffffffffffffff169060200190929190803573ffffffffffffffffffffffffffffffffffffffff169060200190929190803590602001909291905050506122ae565b005b34801561087e57600080fd5b506108ab6004803603602081101561089557600080fd5b81019080803590602001909291905050506122ce565b005b3480156108b957600080fd5b506108c2612340565b6040518082815260200191505060405180910390f35b3480156108e457600080fd5b50610927600480360360208110156108fb57600080fd5b81019080803573ffffffffffffffffffffffffffffffffffffffff16906020019092919050505061234a565b6040518082815260200191505060405180910390f35b34801561094957600080fd5b506109766004803603602081101561096057600080fd5b8101908080359060200190929190505050612362565b6040518082815260200191505060405180910390f35b34801561099857600080fd5b506109a1612385565b604051808215151515815260200191505060405180910390f35b3480156109c757600080fd5b50610a1e600480360360608110156109de57600080fd5b8101908080359060200190929190803573ffffffffffffffffffffffffffffffffffffffff1690602001909291908035906020019092919050505061239c565b6040518082815260200191505060405180910390f35b348015610a4057600080fd5b50610a6d60048036036020811015610a5757600080fd5b8101908080359060200190929190505050612409565b604051808273ffffffffffffffffffffffffffffffffffffffff1673ffffffffffffffffffffffffffffffffffffffff16815260200191505060405180910390f35b348015610abb57600080fd5b50610afe60048036036020811015610ad257600080fd5b81019080803573ffffffffffffffffffffffffffffffffffffffff169060200190929190505050612440565b6040518082815260200191505060405180910390f35b348015610b2057600080fd5b50610b29612489565b6040518080602001828103825283818151815260200191508051906020019080838360005b83811015610b69578082015181840152602081019050610b4e565b50505050905090810190601f168015610b965780820380516001836020036101000a031916815260200191505b509250505060405180910390f35b348015610bb057600080fd5b50610bf360048036036020811015610bc757600080fd5b81019080803573ffffffffffffffffffffffffffffffffffffffff16906020019092919050505061252b565b6040518082815260200191505060405180910390f35b348015610c1557600080fd5b50610c1e612600565b6040518082815260200191505060405180910390f35b348015610c4057600080fd5b50610c6d60048036036020811015610c5757600080fd5b8101908080359060200190929190505050612639565b6040518082815260200191505060405180910390f35b348015610c8f57600080fd5b50610c98612656565b005b348015610ca657600080fd5b50610cd360048036036020811015610cbd57600080fd5b81019080803590602001909291905050506126fb565b005b348015610ce157600080fd5b50610d0e60048036036020811015610cf857600080fd5b81019080803590602001909291905050506127ea565b6040518080602001828103825283818151815260200191508051906020019060200280838360005b83811015610d51578082015181840152602081019050610d36565b505050509050019250505060405180910390f35b348015610d7157600080fd5b50610d7a6128fa565b6040518082815260200191505060405180910390f35b348015610d9c57600080fd5b50610dd360048036036040811015610db357600080fd5b810190808035906020019092919080359060200190929190505050612904565b604051808273ffffffffffffffffffffffffffffffffffffffff1673ffffffffffffffffffffffffffffffffffffffff16815260200191505060405180910390f35b348015610e2157600080fd5b50610e6e60048036036040811015610e3857600080fd5b8101908080359060200190929190803573ffffffffffffffffffffffffffffffffffffffff169060200190929190505050612935565b604051808215151515815260200191505060405180910390f35b348015610e9457600080fd5b50610e9d612966565b6040518080602001828103825283818151815260200191508051906020019080838360005b83811015610edd578082015181840152602081019050610ec2565b50505050905090810190601f168015610f0a5780820380516001836020036101000a031916815260200191505b509250505060405180910390f35b348015610f2457600080fd5b50610f2d612a08565b6040518082815260200191505060405180910390f35b348015610f4f57600080fd5b50610f9e60048036036040811015610f6657600080fd5b81019080803573ffffffffffffffffffffffffffffffffffffffff169060200190929190803515159060200190929190505050612a0f565b005b348015610fac57600080fd5b506110b060048036036080811015610fc357600080fd5b81019080803573ffffffffffffffffffffffffffffffffffffffff169060200190929190803573ffffffffffffffffffffffffffffffffffffffff169060200190929190803590602001909291908035906020019064010000000081111561102a57600080fd5b82018360208201111561103c57600080fd5b8035906020019184600183028401116401000000008311171561105e57600080fd5b91908080601f016020809104026020016040519081016040528093929190818152602001838380828437600081840152601f19601f820116905080830192505050505050509192919290505050612bc7565b005b3480156110be57600080fd5b506112e0600480360360a08110156110d557600080fd5b81019080803573ffffffffffffffffffffffffffffffffffffffff169060200190929190803573ffffffffffffffffffffffffffffffffffffffff1690602001909291908035906020019064010000000081111561113257600080fd5b82018360208201111561114457600080fd5b8035906020019184602083028401116401000000008311171561116657600080fd5b919080806020026020016040519081016040528093929190818152602001838360200280828437600081840152601f19601f820116905080830192505050505050509192919290803590602001906401000000008111156111c657600080fd5b8201836020820111156111d857600080fd5b803590602001918460208302840111640100000000831117156111fa57600080fd5b919080806020026020016040519081016040528093929190818152602001838360200280828437600081840152601f19601f8201169050808301925050505050505091929192908035906020019064010000000081111561125a57600080fd5b82018360208201111561126c57600080fd5b8035906020019184600183028401116401000000008311171561128e57600080fd5b91908080601f016020809104026020016040519081016040528093929190818152602001838380828437600081840152601f19601f820116905080830192505050505050509192919290505050612c3f565b60405180827bffffffffffffffffffffffffffffffffffffffffffffffffffffffff19167bffffffffffffffffffffffffffffffffffffffffffffffffffffffff1916815260200191505060405180910390f35b34801561134057600080fd5b50611349612e0e565b6040518082815260200191505060405180910390f35b34801561136b57600080fd5b506113986004803603602081101561138257600080fd5b8101908080359060200190929190505050612e14565b6040518080602001828103825283818151815260200191508051906020019080838360005b838110156113d85780820151818401526020810190506113bd565b50505050905090810190601f1680156114055780820380516001836020036101000a031916815260200191505b509250505060405180910390f35b34801561141f57600080fd5b5061144c6004803603602081101561143657600080fd5b81019080803590602001909291905050506130fd565b6040518082815260200191505060405180910390f35b34801561146e57600080fd5b50611477613123565b6040518082815260200191505060405180910390f35b34801561149957600080fd5b506114e6600480360360408110156114b057600080fd5b8101908080359060200190929190803573ffffffffffffffffffffffffffffffffffffffff16906020019092919050505061315c565b005b3480156114f457600080fd5b506114fd6131e5565b6040518082815260200191505060405180910390f35b34801561151f57600080fd5b506115566004803603604081101561153657600080fd5b8101908080359060200190929190803590602001909291905050506131eb565b005b34801561156457600080fd5b5061156d6132d0565b6040518082815260200191505060405180910390f35b34801561158f57600080fd5b506115f2600480360360408110156115a657600080fd5b81019080803573ffffffffffffffffffffffffffffffffffffffff169060200190929190803573ffffffffffffffffffffffffffffffffffffffff169060200190929190505050613309565b604051808215151515815260200191505060405180910390f35b34801561161857600080fd5b506116656004803603604081101561162f57600080fd5b8101908080359060200190929190803573ffffffffffffffffffffffffffffffffffffffff16906020019092919050505061339d565b6040518082815260200191505060405180910390f35b34801561168757600080fd5b50611795600480360360a081101561169e57600080fd5b81019080803573ffffffffffffffffffffffffffffffffffffffff169060200190929190803573ffffffffffffffffffffffffffffffffffffffff16906020019092919080359060200190929190803590602001909291908035906020019064010000000081111561170f57600080fd5b82018360208201111561172157600080fd5b8035906020019184600183028401116401000000008311171561174357600080fd5b91908080601f016020809104026020016040519081016040528093929190818152602001838380828437600081840152601f19601f8201169050808301925050505050505091929192905050506133f0565b60405180827bffffffffffffffffffffffffffffffffffffffffffffffffffffffff19167bffffffffffffffffffffffffffffffffffffffffffffffffffffffff1916815260200191505060405180910390f35b600060016000837bffffffffffffffffffffffffffffffffffffffffffffffffffffffff19167bffffffffffffffffffffffffffffffffffffffffffffffffffffffff1916815260200190815260200160002060009054906101000a900460ff169050919050565b606060078054600181600116156101000203166002900480601f0160208091040260200160405190810160405280929190818152602001828054600181600116156101000203166002900480156118e95780601f106118be576101008083540402835291602001916118e9565b820191906000526020600020905b8154815290600101906020018083116118cc57829003601f168201915b5050505050905090565b60006118fe8261350c565b611953576040517f08c379a000000000000000000000000000000000000000000000000000000000815260040180806020018281038252602c815260200180615360602c913960400191505060405180910390fd5b6005600083815260200190815260200160002060009054906101000a900473ffffffffffffffffffffffffffffffffffffffff169050919050565b600061199982612409565b90508073ffffffffffffffffffffffffffffffffffffffff168373ffffffffffffffffffffffffffffffffffffffff161415611a20576040517f08c379a00000000000000000000000000000000000000000000000000000000081526004018080602001828103825260218152602001806154336021913960400191505060405180910390fd5b8073ffffffffffffffffffffffffffffffffffffffff16611a3f613529565b73ffffffffffffffffffffffffffffffffffffffff161480611a6e5750611a6d81611a68613529565b613309565b5b611ac3576040517f08c379a000000000000000000000000000000000000000000000000000000000815260040180806020018281038252603881526020018061528e6038913960400191505060405180910390fd5b611acd8383613531565b505050565b60026010541415611b4b576040517f08c379a000000000000000000000000000000000000000000000000000000000815260040180806020018281038252601f8152602001807f5265656e7472616e637947756172643a207265656e7472616e742063616c6c0081525060200191505060405180910390fd5b60026010819055506013543414611bca576040517f08c379a000000000000000000000000000000000000000000000000000000000815260040180806020018281038252601e8152602001807f4552433732313a206d7573742070617920746865206d696e7420636f7374000081525060200191505060405180910390fd5b6000611bd53361252b565b14611c2b576040517f08c379a00000000000000000000000000000000000000000000000000000000081526004018080602001828103825260238152602001806154ce6023913960400191505060405180910390fd5b60006001601154019050601254811115611c90576040517f08c379a000000000000000000000000000000000000000000000000000000000815260040180806020018281038252602481526020018061540f6024913960400191505060405180910390fd5b611c9a33826135ea565b80601560003373ffffffffffffffffffffffffffffffffffffffff1673ffffffffffffffffffffffffffffffffffffffff1681526020019081526020016000208190555080601181905550601660009054906101000a900473ffffffffffffffffffffffffffffffffffffffff1673ffffffffffffffffffffffffffffffffffffffff166108fc349081150290604051600060405180830381858888f19350505050158015611d4d573d6000803e3d6000fd5b50803373ffffffffffffffffffffffffffffffffffffffff167f4cc0a9c4a99ddc700de1af2c9f916a7cbfdb71f14801ccff94061ad1ef8a804060405160405180910390a3506001601081905550565b6000601354905090565b6000611db360036137de565b905090565b611dc9611dc3613529565b826137f3565b611e1e576040517f08c379a000000000000000000000000000000000000000000000000000000000815260040180806020018281038252603181526020018061549d6031913960400191505060405180910390fd5b611e298383836138e7565b505050565b6000806000838152602001908152602001600020600201549050919050565b606080611ea8600e600086815260200190815260200160002060008573ffffffffffffffffffffffffffffffffffffffff1673ffffffffffffffffffffffffffffffffffffffff168152602001908152602001600020613b2a565b67ffffffffffffffff81118015611ebe57600080fd5b50604051908082528060200260200182016040528015611eed5781602001602082028036833780820191505090505b50905060008090505b611f4e600e600087815260200190815260200160002060008673ffffffffffffffffffffffffffffffffffffffff1673ffffffffffffffffffffffffffffffffffffffff168152602001908152602001600020613b2a565b811015611fdc57611fb781600e600088815260200190815260200160002060008773ffffffffffffffffffffffffffffffffffffffff1673ffffffffffffffffffffffffffffffffffffffff168152602001908152602001600020613b3f90919063ffffffff16565b828281518110611fc357fe5b6020026020010181815250508080600101915050611ef6565b508091505092915050565b61200d60008084815260200190815260200160002060020154612008613529565b612935565b612062576040517f08c379a000000000000000000000000000000000000000000000000000000000815260040180806020018281038252602f81526020018061511c602f913960400191505060405180910390fd5b61206c8282613b59565b5050565b60006120c382600260008673ffffffffffffffffffffffffffffffffffffffff1673ffffffffffffffffffffffffffffffffffffffff168152602001908152602001600020613b3f90919063ffffffff16565b905092915050565b6120d3613529565b73ffffffffffffffffffffffffffffffffffffffff168173ffffffffffffffffffffffffffffffffffffffff1614612156576040517f08c379a000000000000000000000000000000000000000000000000000000000815260040180806020018281038252602f815260200180615561602f913960400191505060405180910390fd5b6121608282613bec565b5050565b6121aa60405180807f5041555345525f524f4c45000000000000000000000000000000000000000000815250600b01905060405180910390206121a5613529565b612935565b6121ff576040517f08c379a00000000000000000000000000000000000000000000000000000000081526004018080602001828103825260408152602001806155216040913960400191505060405180910390fd5b612207613c7f565b565b61224f60405180807f41444d494e5f524f4c4500000000000000000000000000000000000000000000815250600a019050604051809103902061224a613529565b612935565b6122a4576040517f08c379a000000000000000000000000000000000000000000000000000000000815260040180806020018281038252602281526020018061547b6022913960400191505060405180910390fd5b8060128190555050565b6122c983838360405180602001604052806000815250612bc7565b505050565b6122df6122d9613529565b826137f3565b612334576040517f08c379a00000000000000000000000000000000000000000000000000000000081526004018080602001828103825260308152602001806154f16030913960400191505060405180910390fd5b61233d81613d88565b50565b6000601254905090565b60156020528060005260406000206000915090505481565b600080612379836003613ec290919063ffffffff16565b50905080915050919050565b6000600f60009054906101000a900460ff16905090565b6000600b600085815260200190815260200160002060008473ffffffffffffffffffffffffffffffffffffffff1673ffffffffffffffffffffffffffffffffffffffff16815260200190815260200160002060008381526020019081526020016000205490509392505050565b6000612439826040518060600160405280602981526020016152f0602991396003613ef19092919063ffffffff16565b9050919050565b6000601560008373ffffffffffffffffffffffffffffffffffffffff1673ffffffffffffffffffffffffffffffffffffffff168152602001908152602001600020549050919050565b6060600a8054600181600116156101000203166002900480601f0160208091040260200160405190810160405280929190818152602001828054600181600116156101000203166002900480156125215780601f106124f657610100808354040283529160200191612521565b820191906000526020600020905b81548152906001019060200180831161250457829003601f168201915b5050505050905090565b60008073ffffffffffffffffffffffffffffffffffffffff168273ffffffffffffffffffffffffffffffffffffffff1614156125b2576040517f08c379a000000000000000000000000000000000000000000000000000000000815260040180806020018281038252602a8152602001806152c6602a913960400191505060405180910390fd5b6125f9600260008473ffffffffffffffffffffffffffffffffffffffff1673ffffffffffffffffffffffffffffffffffffffff168152602001908152602001600020613b2a565b9050919050565b60405180807f41444d494e5f524f4c4500000000000000000000000000000000000000000000815250600a019050604051809103902081565b600060146000838152602001908152602001600020549050919050565b61269c60405180807f5041555345525f524f4c45000000000000000000000000000000000000000000815250600b0190506040518091039020612697613529565b612935565b6126f1576040517f08c379a000000000000000000000000000000000000000000000000000000000815260040180806020018281038252603e8152602001806151d0603e913960400191505060405180910390fd5b6126f9613f10565b565b61274160405180807f41444d494e5f524f4c4500000000000000000000000000000000000000000000815250600a019050604051809103902061273c613529565b612935565b6127b3576040517f08c379a000000000000000000000000000000000000000000000000000000000815260040180806020018281038252601e8152602001807f556e617574686f72697a656420612f63203a207365744d696e74436f7374000081525060200191505060405180910390fd5b80601381905550807f922c604c5c18f1a1cd96d928a6f0b8c4e17819dbe5d18da3c4ebe664d2c45fca60405160405180910390a250565b606080612808600d600085815260200190815260200160002061401a565b67ffffffffffffffff8111801561281e57600080fd5b5060405190808252806020026020018201604052801561284d5781602001602082028036833780820191505090505b50905060008090505b612871600d600086815260200190815260200160002061401a565b8110156128f05761289d81600d600087815260200190815260200160002061402f90919063ffffffff16565b8282815181106128a957fe5b602002602001019073ffffffffffffffffffffffffffffffffffffffff16908173ffffffffffffffffffffffffffffffffffffffff16815250508080600101915050612856565b5080915050919050565b6000601154905090565b600061292d8260008086815260200190815260200160002060000161402f90919063ffffffff16565b905092915050565b600061295e8260008086815260200190815260200160002060000161404990919063ffffffff16565b905092915050565b606060088054600181600116156101000203166002900480601f0160208091040260200160405190810160405280929190818152602001828054600181600116156101000203166002900480156129fe5780601f106129d3576101008083540402835291602001916129fe565b820191906000526020600020905b8154815290600101906020018083116129e157829003601f168201915b5050505050905090565b6000801b81565b612a17613529565b73ffffffffffffffffffffffffffffffffffffffff168273ffffffffffffffffffffffffffffffffffffffff161415612ab8576040517f08c379a00000000000000000000000000000000000000000000000000000000081526004018080602001828103825260198152602001807f4552433732313a20617070726f766520746f2063616c6c65720000000000000081525060200191505060405180910390fd5b8060066000612ac5613529565b73ffffffffffffffffffffffffffffffffffffffff1673ffffffffffffffffffffffffffffffffffffffff16815260200190815260200160002060008473ffffffffffffffffffffffffffffffffffffffff1673ffffffffffffffffffffffffffffffffffffffff16815260200190815260200160002060006101000a81548160ff0219169083151502179055508173ffffffffffffffffffffffffffffffffffffffff16612b72613529565b73ffffffffffffffffffffffffffffffffffffffff167f17307eab39ab6107e8899845ad3d59bd9653f200f220920489ca2b5937696c3183604051808215151515815260200191505060405180910390a35050565b612bd8612bd2613529565b836137f3565b612c2d576040517f08c379a000000000000000000000000000000000000000000000000000000000815260040180806020018281038252603181526020018061549d6031913960400191505060405180910390fd5b612c3984848484614079565b50505050565b60006020825114612c9b576040517f08c379a000000000000000000000000000000000000000000000000000000000815260040180806020018281038252605381526020018061517d6053913960600191505060405180910390fd5b8251845114612cf5576040517f08c379a00000000000000000000000000000000000000000000000000000000081526004018080602001828103825260278152602001806154546027913960400191505060405180910390fd5b612d0586600030888888886140eb565b600080602060003690500390508035915060008090505b8651811015612df857612d578333898481518110612d3657fe5b6020026020010151898581518110612d4a57fe5b6020026020010151614161565b3373ffffffffffffffffffffffffffffffffffffffff16838973ffffffffffffffffffffffffffffffffffffffff167fa18753b0660a8be2cdae03468c860b47c2926433ab16917f323544652803032d8a8581518110612db357fe5b60200260200101518a8681518110612dc757fe5b6020026020010151604051808381526020018281526020019250505060405180910390a48080600101915050612d1c565b5063bc197c8160e01b9250505095945050505050565b60135481565b6060612e1f8261350c565b612e74576040517f08c379a000000000000000000000000000000000000000000000000000000000815260040180806020018281038252602f8152602001806153e0602f913960400191505060405180910390fd5b6060600960008481526020019081526020016000208054600181600116156101000203166002900480601f016020809104026020016040519081016040528092919081815260200182805460018160011615610100020316600290048015612f1d5780601f10612ef257610100808354040283529160200191612f1d565b820191906000526020600020905b815481529060010190602001808311612f0057829003601f168201915b505050505090506000600a8054600181600116156101000203166002900490501415612f4c57809150506130f8565b60008151111561302557600a816040516020018083805460018160011615610100020316600290048015612fb75780601f10612f95576101008083540402835291820191612fb7565b820191906000526020600020905b815481529060010190602001808311612fa3575b505082805190602001908083835b60208310612fe85780518252602082019150602081019050602083039250612fc5565b6001836020036101000a038019825116818451168082178552505050505050905001925050506040516020818303038152906040529150506130f8565b600a613030846142f4565b604051602001808380546001816001161561010002031660029004801561308e5780601f1061306c57610100808354040283529182019161308e565b820191906000526020600020905b81548152906001019060200180831161307a575b505082805190602001908083835b602083106130bf578051825260208201915060208101905060208303925061309c565b6001836020036101000a038019825116818451168082178552505050505050905001925050506040516020818303038152906040529150505b919050565b600061311c60008084815260200190815260200160002060000161401a565b9050919050565b60405180807f4d494e5445525f524f4c45000000000000000000000000000000000000000000815250600b019050604051809103902081565b6131826000808481526020019081526020016000206002015461317d613529565b612935565b6131d7576040517f08c379a000000000000000000000000000000000000000000000000000000000815260040180806020018281038252603081526020018061525e6030913960400191505060405180910390fd5b6131e18282613bec565b5050565b60125481565b61323160405180807f41444d494e5f524f4c4500000000000000000000000000000000000000000000815250600a019050604051809103902061322c613529565b612935565b613286576040517f08c379a000000000000000000000000000000000000000000000000000000000815260040180806020018281038252602581526020018061533b6025913960400191505060405180910390fd5b80601460008481526020019081526020016000208190555080827f0c13cfda0c63d281660989dcc800b83761b1b90295c71a48e623299e92745d3160405160405180910390a35050565b60405180807f5041555345525f524f4c45000000000000000000000000000000000000000000815250600b019050604051809103902081565b6000600660008473ffffffffffffffffffffffffffffffffffffffff1673ffffffffffffffffffffffffffffffffffffffff16815260200190815260200160002060008373ffffffffffffffffffffffffffffffffffffffff1673ffffffffffffffffffffffffffffffffffffffff16815260200190815260200160002060009054906101000a900460ff16905092915050565b600080600090506000600190505b6012548110156133e55760016133c286868461239c565b14156133d3576001820191506133d8565b6133e5565b80806001019150506133ab565b508091505092915050565b6000602082511461344c576040517f08c379a000000000000000000000000000000000000000000000000000000000815260040180806020018281038252605381526020018061517d6053913960600191505060405180910390fd5b61346c866000308861345d8961443b565b6134668961443b565b886140eb565b600080602060003690500390508035915061348982338888614161565b3373ffffffffffffffffffffffffffffffffffffffff16828873ffffffffffffffffffffffffffffffffffffffff167fa18753b0660a8be2cdae03468c860b47c2926433ab16917f323544652803032d8989604051808381526020018281526020019250505060405180910390a463f23a6e6160e01b9250505095945050505050565b60006135228260036144ab90919063ffffffff16565b9050919050565b600033905090565b816005600083815260200190815260200160002060006101000a81548173ffffffffffffffffffffffffffffffffffffffff021916908373ffffffffffffffffffffffffffffffffffffffff160217905550808273ffffffffffffffffffffffffffffffffffffffff166135a483612409565b73ffffffffffffffffffffffffffffffffffffffff167f8c5be1e5ebec7d5bd14f71427d1e84f3dd0314c0f7b2291e5b200ac8c7c3b92560405160405180910390a45050565b600073ffffffffffffffffffffffffffffffffffffffff168273ffffffffffffffffffffffffffffffffffffffff16141561368d576040517f08c379a00000000000000000000000000000000000000000000000000000000081526004018080602001828103825260208152602001807f4552433732313a206d696e7420746f20746865207a65726f206164647265737381525060200191505060405180910390fd5b6136968161350c565b15613709576040517f08c379a000000000000000000000000000000000000000000000000000000000815260040180806020018281038252601c8152602001807f4552433732313a20746f6b656e20616c7265616479206d696e7465640000000081525060200191505060405180910390fd5b613715600083836144c5565b61376681600260008573ffffffffffffffffffffffffffffffffffffffff1673ffffffffffffffffffffffffffffffffffffffff16815260200190815260200160002061453390919063ffffffff16565b5061377d8183600361454d9092919063ffffffff16565b50808273ffffffffffffffffffffffffffffffffffffffff16600073ffffffffffffffffffffffffffffffffffffffff167fddf252ad1be2c89b69c2b068fc378daa952ba7f163c4a11628f55a4df523b3ef60405160405180910390a45050565b60006137ec82600001614582565b9050919050565b60006137fe8261350c565b613853576040517f08c379a000000000000000000000000000000000000000000000000000000000815260040180806020018281038252602c815260200180615232602c913960400191505060405180910390fd5b600061385e83612409565b90508073ffffffffffffffffffffffffffffffffffffffff168473ffffffffffffffffffffffffffffffffffffffff1614806138cd57508373ffffffffffffffffffffffffffffffffffffffff166138b5846118f3565b73ffffffffffffffffffffffffffffffffffffffff16145b806138de57506138dd8185613309565b5b91505092915050565b8273ffffffffffffffffffffffffffffffffffffffff1661390782612409565b73ffffffffffffffffffffffffffffffffffffffff1614613973576040517f08c379a00000000000000000000000000000000000000000000000000000000081526004018080602001828103825260298152602001806153b76029913960400191505060405180910390fd5b600073ffffffffffffffffffffffffffffffffffffffff168273ffffffffffffffffffffffffffffffffffffffff1614156139f9576040517f08c379a000000000000000000000000000000000000000000000000000000000815260040180806020018281038252602481526020018061520e6024913960400191505060405180910390fd5b613a048383836144c5565b613a0f600082613531565b613a6081600260008673ffffffffffffffffffffffffffffffffffffffff1673ffffffffffffffffffffffffffffffffffffffff16815260200190815260200160002061459390919063ffffffff16565b50613ab281600260008573ffffffffffffffffffffffffffffffffffffffff1673ffffffffffffffffffffffffffffffffffffffff16815260200190815260200160002061453390919063ffffffff16565b50613ac98183600361454d9092919063ffffffff16565b50808273ffffffffffffffffffffffffffffffffffffffff168473ffffffffffffffffffffffffffffffffffffffff167fddf252ad1be2c89b69c2b068fc378daa952ba7f163c4a11628f55a4df523b3ef60405160405180910390a4505050565b6000613b38826000016145ad565b9050919050565b6000613b4e83600001836145be565b60001c905092915050565b613b808160008085815260200190815260200160002060000161464190919063ffffffff16565b15613be857613b8d613529565b73ffffffffffffffffffffffffffffffffffffffff168173ffffffffffffffffffffffffffffffffffffffff16837f2f8788117e7eff1d82e926ec794901d17c78024a50270940304540a733656f0d60405160405180910390a45b5050565b613c138160008085815260200190815260200160002060000161467190919063ffffffff16565b15613c7b57613c20613529565b73ffffffffffffffffffffffffffffffffffffffff168173ffffffffffffffffffffffffffffffffffffffff16837ff6391f5c32d9c69d2a47ea670b442974b53935d1edc7fd64eb21e047a839171b60405160405180910390a45b5050565b600f60009054906101000a900460ff16613d01576040517f08c379a00000000000000000000000000000000000000000000000000000000081526004018080602001828103825260148152602001807f5061757361626c653a206e6f742070617573656400000000000000000000000081525060200191505060405180910390fd5b6000600f60006101000a81548160ff0219169083151502179055507f5db9ee0a495bf2e6ff9c91a7834c1ba4fdd244a5e8aa4e537bd38aeae4b073aa613d45613529565b604051808273ffffffffffffffffffffffffffffffffffffffff1673ffffffffffffffffffffffffffffffffffffffff16815260200191505060405180910390a1565b6000613d9382612409565b9050613da1816000846144c5565b613dac600083613531565b60006009600084815260200190815260200160002080546001816001161561010002031660029004905014613dfb57600960008381526020019081526020016000206000613dfa9190615061565b5b613e4c82600260008473ffffffffffffffffffffffffffffffffffffffff1673ffffffffffffffffffffffffffffffffffffffff16815260200190815260200160002061459390919063ffffffff16565b50613e618260036146a190919063ffffffff16565b5081600073ffffffffffffffffffffffffffffffffffffffff168273ffffffffffffffffffffffffffffffffffffffff167fddf252ad1be2c89b69c2b068fc378daa952ba7f163c4a11628f55a4df523b3ef60405160405180910390a45050565b600080600080613ed586600001866146bb565b915091508160001c8160001c8090509350935050509250929050565b6000613f04846000018460001b84614754565b60001c90509392505050565b600f60009054906101000a900460ff1615613f93576040517f08c379a00000000000000000000000000000000000000000000000000000000081526004018080602001828103825260108152602001807f5061757361626c653a207061757365640000000000000000000000000000000081525060200191505060405180910390fd5b6001600f60006101000a81548160ff0219169083151502179055507f62e78cea01bee320cd4e420270b5ea74000d11b0c9f74754ebdbfc544b05a258613fd7613529565b604051808273ffffffffffffffffffffffffffffffffffffffff1673ffffffffffffffffffffffffffffffffffffffff16815260200191505060405180910390a1565b6000614028826000016145ad565b9050919050565b600061403e83600001836145be565b60001c905092915050565b6000614071836000018373ffffffffffffffffffffffffffffffffffffffff1660001b61484a565b905092915050565b6140848484846138e7565b6140908484848461486d565b6140e5576040517f08c379a000000000000000000000000000000000000000000000000000000000815260040180806020018281038252603281526020018061514b6032913960400191505060405180910390fd5b50505050565b6140f3612385565b15614149576040517f08c379a000000000000000000000000000000000000000000000000000000000815260040180806020018281038252602b81526020018061538c602b913960400191505060405180910390fd5b61415887878787878787614ab2565b50505050505050565b61418683600d600087815260200190815260200160002061404990919063ffffffff16565b6141b1576141af83600d600087815260200190815260200160002061464190919063ffffffff16565b505b6000600b600086815260200190815260200160002060008573ffffffffffffffffffffffffffffffffffffffff1673ffffffffffffffffffffffffffffffffffffffff168152602001908152602001600020600084815260200190815260200160002054141561427f5761427d82600e600085815260200190815260200160002060008673ffffffffffffffffffffffffffffffffffffffff1673ffffffffffffffffffffffffffffffffffffffff16815260200190815260200160002061453390919063ffffffff16565b505b80600b600086815260200190815260200160002060008573ffffffffffffffffffffffffffffffffffffffff1673ffffffffffffffffffffffffffffffffffffffff16815260200190815260200160002060008481526020019081526020016000206000828254019250508190555050505050565b6060600082141561433c576040518060400160405280600181526020017f30000000000000000000000000000000000000000000000000000000000000008152509050614436565b600082905060005b60008214614366578080600101915050600a828161435e57fe5b049150614344565b60608167ffffffffffffffff8111801561437f57600080fd5b506040519080825280601f01601f1916602001820160405280156143b25781602001600182028036833780820191505090505b50905060006001830390508593505b6000841461442e57600a84816143d357fe5b0660300160f81b828280600190039350815181106143ed57fe5b60200101907effffffffffffffffffffffffffffffffffffffffffffffffffffffffffffff1916908160001a905350600a848161442657fe5b0493506143c1565b819450505050505b919050565b606080600167ffffffffffffffff8111801561445657600080fd5b506040519080825280602002602001820160405280156144855781602001602082028036833780820191505090505b509050828160008151811061449657fe5b60200260200101818152505080915050919050565b60006144bd836000018360001b614abb565b905092915050565b6144cd612385565b15614523576040517f08c379a000000000000000000000000000000000000000000000000000000000815260040180806020018281038252602b8152602001806150f1602b913960400191505060405180910390fd5b61452e838383614ade565b505050565b6000614545836000018360001b614ae3565b905092915050565b6000614579846000018460001b8473ffffffffffffffffffffffffffffffffffffffff1660001b614b53565b90509392505050565b600081600001805490509050919050565b60006145a5836000018360001b614c2f565b905092915050565b600081600001805490509050919050565b60008183600001805490501161461f576040517f08c379a00000000000000000000000000000000000000000000000000000000081526004018080602001828103825260228152602001806150cf6022913960400191505060405180910390fd5b82600001828154811061462e57fe5b9060005260206000200154905092915050565b6000614669836000018373ffffffffffffffffffffffffffffffffffffffff1660001b614ae3565b905092915050565b6000614699836000018373ffffffffffffffffffffffffffffffffffffffff1660001b614c2f565b905092915050565b60006146b3836000018360001b614d17565b905092915050565b6000808284600001805490501161471d576040517f08c379a00000000000000000000000000000000000000000000000000000000081526004018080602001828103825260228152602001806153196022913960400191505060405180910390fd5b600084600001848154811061472e57fe5b906000526020600020906002020190508060000154816001015492509250509250929050565b6000808460010160008581526020019081526020016000205490506000811415839061481b576040517f08c379a00000000000000000000000000000000000000000000000000000000081526004018080602001828103825283818151815260200191508051906020019080838360005b838110156147e05780820151818401526020810190506147c5565b50505050905090810190601f16801561480d5780820380516001836020036101000a031916815260200191505b509250505060405180910390fd5b5084600001600182038154811061482e57fe5b9060005260206000209060020201600101549150509392505050565b600080836001016000848152602001908152602001600020541415905092915050565b600061488e8473ffffffffffffffffffffffffffffffffffffffff16614e30565b61489b5760019050614aaa565b6060614a3163150b7a0260e01b6148b0613529565b888787604051602401808573ffffffffffffffffffffffffffffffffffffffff1673ffffffffffffffffffffffffffffffffffffffff1681526020018473ffffffffffffffffffffffffffffffffffffffff1673ffffffffffffffffffffffffffffffffffffffff16815260200183815260200180602001828103825283818151815260200191508051906020019080838360005b83811015614960578082015181840152602081019050614945565b50505050905090810190601f16801561498d5780820380516001836020036101000a031916815260200191505b5095505050505050604051602081830303815290604052907bffffffffffffffffffffffffffffffffffffffffffffffffffffffff19166020820180517bffffffffffffffffffffffffffffffffffffffffffffffffffffffff838183161783525050505060405180606001604052806032815260200161514b603291398773ffffffffffffffffffffffffffffffffffffffff16614e439092919063ffffffff16565b90506000818060200190516020811015614a4a57600080fd5b8101908080519060200190929190505050905063150b7a0260e01b7bffffffffffffffffffffffffffffffffffffffffffffffffffffffff1916817bffffffffffffffffffffffffffffffffffffffffffffffffffffffff191614925050505b949350505050565b50505050505050565b600080836001016000848152602001908152602001600020541415905092915050565b505050565b6000614aef838361484a565b614b48578260000182908060018154018082558091505060019003906000526020600020016000909190919091505582600001805490508360010160008481526020019081526020016000208190555060019050614b4d565b600090505b92915050565b6000808460010160008581526020019081526020016000205490506000811415614bfa57846000016040518060400160405280868152602001858152509080600181540180825580915050600190039060005260206000209060020201600090919091909150600082015181600001556020820151816001015550508460000180549050856001016000868152602001908152602001600020819055506001915050614c28565b82856000016001830381548110614c0d57fe5b90600052602060002090600202016001018190555060009150505b9392505050565b60008083600101600084815260200190815260200160002054905060008114614d0b5760006001820390506000600186600001805490500390506000866000018281548110614c7a57fe5b9060005260206000200154905080876000018481548110614c9757fe5b9060005260206000200181905550600183018760010160008381526020019081526020016000208190555086600001805480614ccf57fe5b60019003818190600052602060002001600090559055866001016000878152602001908152602001600020600090556001945050505050614d11565b60009150505b92915050565b60008083600101600084815260200190815260200160002054905060008114614e245760006001820390506000600186600001805490500390506000866000018281548110614d6257fe5b9060005260206000209060020201905080876000018481548110614d8257fe5b9060005260206000209060020201600082015481600001556001820154816001015590505060018301876001016000836000015481526020019081526020016000208190555086600001805480614dd557fe5b6001900381819060005260206000209060020201600080820160009055600182016000905550509055866001016000878152602001908152602001600020600090556001945050505050614e2a565b60009150505b92915050565b600080823b905060008111915050919050565b6060614e528484600085614e5b565b90509392505050565b6060614e6685614e30565b614ed8576040517f08c379a000000000000000000000000000000000000000000000000000000000815260040180806020018281038252601d8152602001807f416464726573733a2063616c6c20746f206e6f6e2d636f6e747261637400000081525060200191505060405180910390fd5b600060608673ffffffffffffffffffffffffffffffffffffffff1685876040518082805190602001908083835b60208310614f285780518252602082019150602081019050602083039250614f05565b6001836020036101000a03801982511681845116808217855250505050505090500191505060006040518083038185875af1925050503d8060008114614f8a576040519150601f19603f3d011682016040523d82523d6000602084013e614f8f565b606091505b50915091508115614fa4578092505050615059565b600081511115614fb75780518082602001fd5b836040517f08c379a00000000000000000000000000000000000000000000000000000000081526004018080602001828103825283818151815260200191508051906020019080838360005b8381101561501e578082015181840152602081019050615003565b50505050905090810190601f16801561504b5780820380516001836020036101000a031916815260200191505b509250505060405180910390fd5b949350505050565b50805460018160011615610100020316600290046000825580601f1061508757506150a6565b601f0160209004906000526020600020908101906150a591906150a9565b5b50565b6150cb91905b808211156150c75760008160009055506001016150af565b5090565b9056fe456e756d657261626c655365743a20696e646578206f7574206f6620626f756e64734552433732315061757361626c653a20746f6b656e207472616e73666572207768696c6520706175736564416363657373436f6e74726f6c3a2073656e646572206d75737420626520616e2061646d696e20746f206772616e744552433732313a207472616e7366657220746f206e6f6e20455243373231526563656976657220696d706c656d656e7465724552433939383a2064617461206d75737420636f6e7461696e2074686520756e697175652075696e7432353620746f6b656e496420746f207472616e7366657220746865206368696c6420746f6b656e20746f4552433732315072657365744d696e7465725061757365724175746f49643a206d75737420686176652070617573657220726f6c6520746f2070617573654552433732313a207472616e7366657220746f20746865207a65726f20616464726573734552433732313a206f70657261746f7220717565727920666f72206e6f6e6578697374656e7420746f6b656e416363657373436f6e74726f6c3a2073656e646572206d75737420626520616e2061646d696e20746f207265766f6b654552433732313a20617070726f76652063616c6c6572206973206e6f74206f776e6572206e6f7220617070726f76656420666f7220616c6c4552433732313a2062616c616e636520717565727920666f7220746865207a65726f20616464726573734552433732313a206f776e657220717565727920666f72206e6f6e6578697374656e7420746f6b656e456e756d657261626c654d61703a20696e646578206f7574206f6620626f756e6473556e617574686f72697a656420612f63203a207365745469657255706772616465436f73744552433732313a20617070726f76656420717565727920666f72206e6f6e6578697374656e7420746f6b656e4552433939385061757361626c653a206368696c64207472616e73666572207768696c65207061757365644552433732313a207472616e73666572206f6620746f6b656e2074686174206973206e6f74206f776e4552433732314d657461646174613a2055524920717565727920666f72206e6f6e6578697374656e7420746f6b656e4552433732313a206d696e74696e6720776f756c64206361757365206f766572666c6f774552433732313a20617070726f76616c20746f2063757272656e74206f776e6572455243313135353a2069647320616e642076616c756573206c656e677468206d69736d61746368556e617574686f72697a656420612f63203a206368616e67654d6178537570706c794552433732313a207472616e736665722063616c6c6572206973206e6f74206f776e6572206e6f7220617070726f7665644552433732313a2063616e6e6f74206f776e2073616d6520746f6b656e2074776963654552433732314275726e61626c653a2063616c6c6572206973206e6f74206f776e6572206e6f7220617070726f7665644552433732315072657365744d696e7465725061757365724175746f49643a206d75737420686176652070617573657220726f6c6520746f20756e7061757365416363657373436f6e74726f6c3a2063616e206f6e6c792072656e6f756e636520726f6c657320666f722073656c66a2646970667358221220dcdb2f4214fd63df4b2c37cc2ba942948f10c96e6d9661de4f8c4bcdce77917664736f6c63430006060033",
  "linkReferences": {},
  "deployedLinkReferences": {}
}