{
    "contractName": "ERC998ERC1155TopDownPresetMinterPauser",
    "abi": [
        {
            "inputs": [
                {
                    "internalType": "string",
                    "name": "name",
                    "type": "string"
                },
                {
                    "internalType": "string",
                    "name": "symbol",
                    "type": "string"
                },
                {
                    "internalType": "string",
                    "name": "baseURI",
                    "type": "string"
                }
            ],
            "stateMutability": "nonpayable",
            "type": "constructor"
        },
        {
            "anonymous": false,
            "inputs": [
                {
                    "indexed": true,
                    "internalType": "address",
                    "name": "owner",
                    "type": "address"
                },
                {
                    "indexed": true,
                    "internalType": "address",
                    "name": "approved",
                    "type": "address"
                },
                {
                    "indexed": true,
                    "internalType": "uint256",
                    "name": "tokenId",
                    "type": "uint256"
                }
            ],
            "name": "Approval",
            "type": "event"
        },
        {
            "anonymous": false,
            "inputs": [
                {
                    "indexed": true,
                    "internalType": "address",
                    "name": "owner",
                    "type": "address"
                },
                {
                    "indexed": true,
                    "internalType": "address",
                    "name": "operator",
                    "type": "address"
                },
                {
                    "indexed": false,
                    "internalType": "bool",
                    "name": "approved",
                    "type": "bool"
                }
            ],
            "name": "ApprovalForAll",
            "type": "event"
        },
        {
            "anonymous": false,
            "inputs": [
                {
                    "indexed": false,
                    "internalType": "address",
                    "name": "account",
                    "type": "address"
                }
            ],
            "name": "Paused",
            "type": "event"
        },
        {
            "anonymous": false,
            "inputs": [
                {
                    "indexed": true,
                    "internalType": "address",
                    "name": "from",
                    "type": "address"
                },
                {
                    "indexed": true,
                    "internalType": "uint256",
                    "name": "toTokenId",
                    "type": "uint256"
                },
                {
                    "indexed": true,
                    "internalType": "address",
                    "name": "childContract",
                    "type": "address"
                },
                {
                    "indexed": false,
                    "internalType": "uint256",
                    "name": "childTokenId",
                    "type": "uint256"
                },
                {
                    "indexed": false,
                    "internalType": "uint256",
                    "name": "amount",
                    "type": "uint256"
                }
            ],
            "name": "ReceivedChild",
            "type": "event"
        },
        {
            "anonymous": false,
            "inputs": [
                {
                    "indexed": true,
                    "internalType": "bytes32",
                    "name": "role",
                    "type": "bytes32"
                },
                {
                    "indexed": true,
                    "internalType": "bytes32",
                    "name": "previousAdminRole",
                    "type": "bytes32"
                },
                {
                    "indexed": true,
                    "internalType": "bytes32",
                    "name": "newAdminRole",
                    "type": "bytes32"
                }
            ],
            "name": "RoleAdminChanged",
            "type": "event"
        },
        {
            "anonymous": false,
            "inputs": [
                {
                    "indexed": true,
                    "internalType": "bytes32",
                    "name": "role",
                    "type": "bytes32"
                },
                {
                    "indexed": true,
                    "internalType": "address",
                    "name": "account",
                    "type": "address"
                },
                {
                    "indexed": true,
                    "internalType": "address",
                    "name": "sender",
                    "type": "address"
                }
            ],
            "name": "RoleGranted",
            "type": "event"
        },
        {
            "anonymous": false,
            "inputs": [
                {
                    "indexed": true,
                    "internalType": "bytes32",
                    "name": "role",
                    "type": "bytes32"
                },
                {
                    "indexed": true,
                    "internalType": "address",
                    "name": "account",
                    "type": "address"
                },
                {
                    "indexed": true,
                    "internalType": "address",
                    "name": "sender",
                    "type": "address"
                }
            ],
            "name": "RoleRevoked",
            "type": "event"
        },
        {
            "anonymous": false,
            "inputs": [
                {
                    "indexed": true,
                    "internalType": "address",
                    "name": "from",
                    "type": "address"
                },
                {
                    "indexed": true,
                    "internalType": "address",
                    "name": "to",
                    "type": "address"
                },
                {
                    "indexed": true,
                    "internalType": "uint256",
                    "name": "tokenId",
                    "type": "uint256"
                }
            ],
            "name": "Transfer",
            "type": "event"
        },
        {
            "anonymous": false,
            "inputs": [
                {
                    "indexed": true,
                    "internalType": "uint256",
                    "name": "fromTokenId",
                    "type": "uint256"
                },
                {
                    "indexed": true,
                    "internalType": "address",
                    "name": "to",
                    "type": "address"
                },
                {
                    "indexed": true,
                    "internalType": "address",
                    "name": "childContract",
                    "type": "address"
                },
                {
                    "indexed": false,
                    "internalType": "uint256[]",
                    "name": "childTokenIds",
                    "type": "uint256[]"
                },
                {
                    "indexed": false,
                    "internalType": "uint256[]",
                    "name": "amounts",
                    "type": "uint256[]"
                }
            ],
            "name": "TransferBatchChild",
            "type": "event"
        },
        {
            "anonymous": false,
            "inputs": [
                {
                    "indexed": true,
                    "internalType": "uint256",
                    "name": "fromTokenId",
                    "type": "uint256"
                },
                {
                    "indexed": true,
                    "internalType": "address",
                    "name": "to",
                    "type": "address"
                },
                {
                    "indexed": true,
                    "internalType": "address",
                    "name": "childContract",
                    "type": "address"
                },
                {
                    "indexed": false,
                    "internalType": "uint256",
                    "name": "childTokenId",
                    "type": "uint256"
                },
                {
                    "indexed": false,
                    "internalType": "uint256",
                    "name": "amount",
                    "type": "uint256"
                }
            ],
            "name": "TransferSingleChild",
            "type": "event"
        },
        {
            "anonymous": false,
            "inputs": [
                {
                    "indexed": false,
                    "internalType": "address",
                    "name": "account",
                    "type": "address"
                }
            ],
            "name": "Unpaused",
            "type": "event"
        },
        {
            "inputs": [],
            "name": "DEFAULT_ADMIN_ROLE",
            "outputs": [
                {
                    "internalType": "bytes32",
                    "name": "",
                    "type": "bytes32"
                }
            ],
            "stateMutability": "view",
            "type": "function"
        },
        {
            "inputs": [],
            "name": "MINTER_ROLE",
            "outputs": [
                {
                    "internalType": "bytes32",
                    "name": "",
                    "type": "bytes32"
                }
            ],
            "stateMutability": "view",
            "type": "function"
        },
        {
            "inputs": [],
            "name": "PAUSER_ROLE",
            "outputs": [
                {
                    "internalType": "bytes32",
                    "name": "",
                    "type": "bytes32"
                }
            ],
            "stateMutability": "view",
            "type": "function"
        },
        {
            "inputs": [
                {
                    "internalType": "address",
                    "name": "to",
                    "type": "address"
                },
                {
                    "internalType": "uint256",
                    "name": "tokenId",
                    "type": "uint256"
                }
            ],
            "name": "approve",
            "outputs": [],
            "stateMutability": "nonpayable",
            "type": "function"
        },
        {
            "inputs": [
                {
                    "internalType": "address",
                    "name": "owner",
                    "type": "address"
                }
            ],
            "name": "balanceOf",
            "outputs": [
                {
                    "internalType": "uint256",
                    "name": "",
                    "type": "uint256"
                }
            ],
            "stateMutability": "view",
            "type": "function"
        },
        {
            "inputs": [],
            "name": "baseURI",
            "outputs": [
                {
                    "internalType": "string",
                    "name": "",
                    "type": "string"
                }
            ],
            "stateMutability": "view",
            "type": "function"
        },
        {
            "inputs": [
                {
                    "internalType": "uint256",
                    "name": "tokenId",
                    "type": "uint256"
                }
            ],
            "name": "burn",
            "outputs": [],
            "stateMutability": "nonpayable",
            "type": "function"
        },
        {
            "inputs": [
                {
                    "internalType": "uint256",
                    "name": "tokenId",
                    "type": "uint256"
                },
                {
                    "internalType": "address",
                    "name": "childContract",
                    "type": "address"
                },
                {
                    "internalType": "uint256",
                    "name": "childTokenId",
                    "type": "uint256"
                }
            ],
            "name": "childBalance",
            "outputs": [
                {
                    "internalType": "uint256",
                    "name": "",
                    "type": "uint256"
                }
            ],
            "stateMutability": "view",
            "type": "function"
        },
        {
            "inputs": [
                {
                    "internalType": "uint256",
                    "name": "tokenId",
                    "type": "uint256"
                }
            ],
            "name": "childContractsFor",
            "outputs": [
                {
                    "internalType": "address[]",
                    "name": "",
                    "type": "address[]"
                }
            ],
            "stateMutability": "view",
            "type": "function"
        },
        {
            "inputs": [
                {
                    "internalType": "uint256",
                    "name": "tokenId",
                    "type": "uint256"
                },
                {
                    "internalType": "address",
                    "name": "childContract",
                    "type": "address"
                }
            ],
            "name": "childIdsForOn",
            "outputs": [
                {
                    "internalType": "uint256[]",
                    "name": "",
                    "type": "uint256[]"
                }
            ],
            "stateMutability": "view",
            "type": "function"
        },
        {
            "inputs": [
                {
                    "internalType": "uint256",
                    "name": "tokenId",
                    "type": "uint256"
                }
            ],
            "name": "getApproved",
            "outputs": [
                {
                    "internalType": "address",
                    "name": "",
                    "type": "address"
                }
            ],
            "stateMutability": "view",
            "type": "function"
        },
        {
            "inputs": [
                {
                    "internalType": "bytes32",
                    "name": "role",
                    "type": "bytes32"
                }
            ],
            "name": "getRoleAdmin",
            "outputs": [
                {
                    "internalType": "bytes32",
                    "name": "",
                    "type": "bytes32"
                }
            ],
            "stateMutability": "view",
            "type": "function"
        },
        {
            "inputs": [
                {
                    "internalType": "bytes32",
                    "name": "role",
                    "type": "bytes32"
                },
                {
                    "internalType": "uint256",
                    "name": "index",
                    "type": "uint256"
                }
            ],
            "name": "getRoleMember",
            "outputs": [
                {
                    "internalType": "address",
                    "name": "",
                    "type": "address"
                }
            ],
            "stateMutability": "view",
            "type": "function"
        },
        {
            "inputs": [
                {
                    "internalType": "bytes32",
                    "name": "role",
                    "type": "bytes32"
                }
            ],
            "name": "getRoleMemberCount",
            "outputs": [
                {
                    "internalType": "uint256",
                    "name": "",
                    "type": "uint256"
                }
            ],
            "stateMutability": "view",
            "type": "function"
        },
        {
            "inputs": [
                {
                    "internalType": "bytes32",
                    "name": "role",
                    "type": "bytes32"
                },
                {
                    "internalType": "address",
                    "name": "account",
                    "type": "address"
                }
            ],
            "name": "grantRole",
            "outputs": [],
            "stateMutability": "nonpayable",
            "type": "function"
        },
        {
            "inputs": [
                {
                    "internalType": "bytes32",
                    "name": "role",
                    "type": "bytes32"
                },
                {
                    "internalType": "address",
                    "name": "account",
                    "type": "address"
                }
            ],
            "name": "hasRole",
            "outputs": [
                {
                    "internalType": "bool",
                    "name": "",
                    "type": "bool"
                }
            ],
            "stateMutability": "view",
            "type": "function"
        },
        {
            "inputs": [
                {
                    "internalType": "address",
                    "name": "owner",
                    "type": "address"
                },
                {
                    "internalType": "address",
                    "name": "operator",
                    "type": "address"
                }
            ],
            "name": "isApprovedForAll",
            "outputs": [
                {
                    "internalType": "bool",
                    "name": "",
                    "type": "bool"
                }
            ],
            "stateMutability": "view",
            "type": "function"
        },
        {
            "inputs": [
                {
                    "internalType": "address",
                    "name": "to",
                    "type": "address"
                },
                {
                    "internalType": "uint256",
                    "name": "tokenId",
                    "type": "uint256"
                }
            ],
            "name": "mint",
            "outputs": [],
            "stateMutability": "nonpayable",
            "type": "function"
        },
        {
            "inputs": [],
            "name": "name",
            "outputs": [
                {
                    "internalType": "string",
                    "name": "",
                    "type": "string"
                }
            ],
            "stateMutability": "view",
            "type": "function"
        },
        {
            "inputs": [
                {
                    "internalType": "address",
                    "name": "operator",
                    "type": "address"
                },
                {
                    "internalType": "address",
                    "name": "from",
                    "type": "address"
                },
                {
                    "internalType": "uint256[]",
                    "name": "ids",
                    "type": "uint256[]"
                },
                {
                    "internalType": "uint256[]",
                    "name": "values",
                    "type": "uint256[]"
                },
                {
                    "internalType": "bytes",
                    "name": "data",
                    "type": "bytes"
                }
            ],
            "name": "onERC1155BatchReceived",
            "outputs": [
                {
                    "internalType": "bytes4",
                    "name": "",
                    "type": "bytes4"
                }
            ],
            "stateMutability": "nonpayable",
            "type": "function"
        },
        {
            "inputs": [
                {
                    "internalType": "address",
                    "name": "operator",
                    "type": "address"
                },
                {
                    "internalType": "address",
                    "name": "from",
                    "type": "address"
                },
                {
                    "internalType": "uint256",
                    "name": "id",
                    "type": "uint256"
                },
                {
                    "internalType": "uint256",
                    "name": "amount",
                    "type": "uint256"
                },
                {
                    "internalType": "bytes",
                    "name": "data",
                    "type": "bytes"
                }
            ],
            "name": "onERC1155Received",
            "outputs": [
                {
                    "internalType": "bytes4",
                    "name": "",
                    "type": "bytes4"
                }
            ],
            "stateMutability": "nonpayable",
            "type": "function"
        },
        {
            "inputs": [
                {
                    "internalType": "uint256",
                    "name": "tokenId",
                    "type": "uint256"
                }
            ],
            "name": "ownerOf",
            "outputs": [
                {
                    "internalType": "address",
                    "name": "",
                    "type": "address"
                }
            ],
            "stateMutability": "view",
            "type": "function"
        },
        {
            "inputs": [],
            "name": "pause",
            "outputs": [],
            "stateMutability": "nonpayable",
            "type": "function"
        },
        {
            "inputs": [],
            "name": "paused",
            "outputs": [
                {
                    "internalType": "bool",
                    "name": "",
                    "type": "bool"
                }
            ],
            "stateMutability": "view",
            "type": "function"
        },
        {
            "inputs": [
                {
                    "internalType": "bytes32",
                    "name": "role",
                    "type": "bytes32"
                },
                {
                    "internalType": "address",
                    "name": "account",
                    "type": "address"
                }
            ],
            "name": "renounceRole",
            "outputs": [],
            "stateMutability": "nonpayable",
            "type": "function"
        },
        {
            "inputs": [
                {
                    "internalType": "bytes32",
                    "name": "role",
                    "type": "bytes32"
                },
                {
                    "internalType": "address",
                    "name": "account",
                    "type": "address"
                }
            ],
            "name": "revokeRole",
            "outputs": [],
            "stateMutability": "nonpayable",
            "type": "function"
        },
        {
            "inputs": [
                {
                    "internalType": "address",
                    "name": "from",
                    "type": "address"
                },
                {
                    "internalType": "address",
                    "name": "to",
                    "type": "address"
                },
                {
                    "internalType": "uint256",
                    "name": "tokenId",
                    "type": "uint256"
                }
            ],
            "name": "safeTransferFrom",
            "outputs": [],
            "stateMutability": "nonpayable",
            "type": "function"
        },
        {
            "inputs": [
                {
                    "internalType": "address",
                    "name": "from",
                    "type": "address"
                },
                {
                    "internalType": "address",
                    "name": "to",
                    "type": "address"
                },
                {
                    "internalType": "uint256",
                    "name": "tokenId",
                    "type": "uint256"
                },
                {
                    "internalType": "bytes",
                    "name": "_data",
                    "type": "bytes"
                }
            ],
            "name": "safeTransferFrom",
            "outputs": [],
            "stateMutability": "nonpayable",
            "type": "function"
        },
        {
            "inputs": [
                {
                    "internalType": "address",
                    "name": "operator",
                    "type": "address"
                },
                {
                    "internalType": "bool",
                    "name": "approved",
                    "type": "bool"
                }
            ],
            "name": "setApprovalForAll",
            "outputs": [],
            "stateMutability": "nonpayable",
            "type": "function"
        },
        {
            "inputs": [
                {
                    "internalType": "bytes4",
                    "name": "interfaceId",
                    "type": "bytes4"
                }
            ],
            "name": "supportsInterface",
            "outputs": [
                {
                    "internalType": "bool",
                    "name": "",
                    "type": "bool"
                }
            ],
            "stateMutability": "view",
            "type": "function"
        },
        {
            "inputs": [],
            "name": "symbol",
            "outputs": [
                {
                    "internalType": "string",
                    "name": "",
                    "type": "string"
                }
            ],
            "stateMutability": "view",
            "type": "function"
        },
        {
            "inputs": [
                {
                    "internalType": "uint256",
                    "name": "index",
                    "type": "uint256"
                }
            ],
            "name": "tokenByIndex",
            "outputs": [
                {
                    "internalType": "uint256",
                    "name": "",
                    "type": "uint256"
                }
            ],
            "stateMutability": "view",
            "type": "function"
        },
        {
            "inputs": [
                {
                    "internalType": "address",
                    "name": "owner",
                    "type": "address"
                },
                {
                    "internalType": "uint256",
                    "name": "index",
                    "type": "uint256"
                }
            ],
            "name": "tokenOfOwnerByIndex",
            "outputs": [
                {
                    "internalType": "uint256",
                    "name": "",
                    "type": "uint256"
                }
            ],
            "stateMutability": "view",
            "type": "function"
        },
        {
            "inputs": [
                {
                    "internalType": "uint256",
                    "name": "tokenId",
                    "type": "uint256"
                }
            ],
            "name": "tokenURI",
            "outputs": [
                {
                    "internalType": "string",
                    "name": "",
                    "type": "string"
                }
            ],
            "stateMutability": "view",
            "type": "function"
        },
        {
            "inputs": [],
            "name": "totalSupply",
            "outputs": [
                {
                    "internalType": "uint256",
                    "name": "",
                    "type": "uint256"
                }
            ],
            "stateMutability": "view",
            "type": "function"
        },
        {
            "inputs": [
                {
                    "internalType": "address",
                    "name": "from",
                    "type": "address"
                },
                {
                    "internalType": "address",
                    "name": "to",
                    "type": "address"
                },
                {
                    "internalType": "uint256",
                    "name": "tokenId",
                    "type": "uint256"
                }
            ],
            "name": "transferFrom",
            "outputs": [],
            "stateMutability": "nonpayable",
            "type": "function"
        },
        {
            "inputs": [],
            "name": "unpause",
            "outputs": [],
            "stateMutability": "nonpayable",
            "type": "function"
        }
    ],
    "bytecode": "60806040523480156200001157600080fd5b506040516200378238038062003782833981810160405260608110156200003757600080fd5b81019080805160405193929190846401000000008211156200005857600080fd5b9083019060208201858111156200006e57600080fd5b82516401000000008111828201881017156200008957600080fd5b82525081516020918201929091019080838360005b83811015620000b85781810151838201526020016200009e565b50505050905090810190601f168015620000e65780820380516001836020036101000a031916815260200191505b50604052602001805160405193929190846401000000008211156200010a57600080fd5b9083019060208201858111156200012057600080fd5b82516401000000008111828201881017156200013b57600080fd5b82525081516020918201929091019080838360005b838110156200016a57818101518382015260200162000150565b50505050905090810190601f168015620001985780820380516001836020036101000a031916815260200191505b5060405260200180516040519392919084640100000000821115620001bc57600080fd5b908301906020820185811115620001d257600080fd5b8251640100000000811182820188101715620001ed57600080fd5b82525081516020918201929091019080838360005b838110156200021c57818101518382015260200162000202565b50505050905090810190601f1680156200024a5780820380516001836020036101000a031916815260200191505b5060405250849150839050828282620002736301ffc9a760e01b6001600160e01b03620003d016565b815162000288906007906020850190620005a6565b5080516200029e906008906020840190620005a6565b50620002ba6380ac58cd60e01b6001600160e01b03620003d016565b620002d5635b5e139f60e01b6001600160e01b03620003d016565b620002f063780e9d6360e01b6001600160e01b03620003d016565b506200030e9050630271189760e51b6001600160e01b03620003d016565b62000322816001600160e01b036200045816565b5050600f805460ff1916905550620003576000620003486001600160e01b036200047116565b6001600160e01b036200047616565b604080516a4d494e5445525f524f4c4560a81b8152905190819003600b0190206200038f90620003486001600160e01b036200047116565b604080516a5041555345525f524f4c4560a81b8152905190819003600b019020620003c790620003486001600160e01b036200047116565b50505062000648565b6001600160e01b0319808216141562000430576040805162461bcd60e51b815260206004820152601c60248201527f4552433136353a20696e76616c696420696e7465726661636520696400000000604482015290519081900360640190fd5b6001600160e01b0319166000908152600160208190526040909120805460ff19169091179055565b80516200046d90600a906020840190620005a6565b5050565b335b90565b6200046d82826001600160e01b036200048b16565b600082815260208181526040909120620004b091839062001a9e6200050d821b17901c565b156200046d57620004c96001600160e01b036200047116565b6001600160a01b0316816001600160a01b0316837f2f8788117e7eff1d82e926ec794901d17c78024a50270940304540a733656f0d60405160405180910390a45050565b60006200052d836001600160a01b0384166001600160e01b036200053616565b90505b92915050565b60006200054d83836001600160e01b036200058e16565b620005855750815460018181018455600084815260208082209093018490558454848252828601909352604090209190915562000530565b50600062000530565b60009081526001919091016020526040902054151590565b828054600181600116156101000203166002900490600052602060002090601f016020900481019282601f10620005e957805160ff191683800117855562000619565b8280016001018555821562000619579182015b8281111562000619578251825591602001919060010190620005fc565b50620006279291506200062b565b5090565b6200047391905b8082111562000627576000815560010162000632565b61312a80620006586000396000f3fe608060405234801561001057600080fd5b50600436106102275760003560e01c80636352211e11610130578063a22cb465116100b8578063d53913931161007c578063d53913931461096f578063d547741f14610977578063e63ab1e9146109a3578063e985e9c5146109ab578063f23a6e61146109d957610227565b8063a22cb46514610665578063b88d4fde14610693578063bc197c8114610757578063c87b56dd14610935578063ca15c8731461095257610227565b806389e7e2f2116100ff57806389e7e2f2146105e95780639010d07c1461060657806391d148541461062957806395d89b4114610655578063a217fddf1461065d57610227565b80636352211e146105965780636c0360eb146105b357806370a08231146105bb5780638456cb59146105e157610227565b80632f745c59116101b357806342842e0e1161018257806342842e0e146104ec57806342966c68146105225780634f6ccce71461053f5780635c975abb1461055c57806360d4d23a1461056457610227565b80632f745c591461046057806336568abe1461048c5780633f4ba83a146104b857806340c10f19146104c057610227565b806318160ddd116101fa57806318160ddd1461034b57806323b872dd14610365578063248a9ca31461039b5780632676608c146103b85780632f2ff15d1461043457610227565b806301ffc9a71461022c57806306fdde0314610267578063081812fc146102e4578063095ea7b31461031d575b600080fd5b6102536004803603602081101561024257600080fd5b50356001600160e01b031916610aa2565b604080519115158252519081900360200190f35b61026f610ac5565b6040805160208082528351818301528351919283929083019185019080838360005b838110156102a9578181015183820152602001610291565b50505050905090810190601f1680156102d65780820380516001836020036101000a031916815260200191505b509250505060405180910390f35b610301600480360360208110156102fa57600080fd5b5035610b5c565b604080516001600160a01b039092168252519081900360200190f35b6103496004803603604081101561033357600080fd5b506001600160a01b038135169060200135610bbe565b005b610353610c99565b60408051918252519081900360200190f35b6103496004803603606081101561037b57600080fd5b506001600160a01b03813581169160208101359091169060400135610caa565b610353600480360360208110156103b157600080fd5b5035610d01565b6103e4600480360360408110156103ce57600080fd5b50803590602001356001600160a01b0316610d16565b60408051602080825283518183015283519192839290830191858101910280838360005b83811015610420578181015183820152602001610408565b505050509050019250505060405180910390f35b6103496004803603604081101561044a57600080fd5b50803590602001356001600160a01b0316610e19565b6103536004803603604081101561047657600080fd5b506001600160a01b038135169060200135610e85565b610349600480360360408110156104a257600080fd5b50803590602001356001600160a01b0316610eb4565b610349610f15565b610349600480360360408110156104d657600080fd5b506001600160a01b038135169060200135610f86565b6103496004803603606081101561050257600080fd5b506001600160a01b03813581169160208101359091169060400135610ff7565b6103496004803603602081101561053857600080fd5b5035611012565b6103536004803603602081101561055557600080fd5b5035611064565b610253611080565b6103536004803603606081101561057a57600080fd5b508035906001600160a01b036020820135169060400135611089565b610301600480360360208110156105ac57600080fd5b50356110b8565b61026f6110e6565b610353600480360360208110156105d157600080fd5b50356001600160a01b0316611147565b6103496111af565b6103e4600480360360208110156105ff57600080fd5b503561121e565b6103016004803603604081101561061c57600080fd5b50803590602001356112ef565b6102536004803603604081101561063f57600080fd5b50803590602001356001600160a01b031661130d565b61026f61132b565b61035361138c565b6103496004803603604081101561067b57600080fd5b506001600160a01b0381351690602001351515611391565b610349600480360360808110156106a957600080fd5b6001600160a01b03823581169260208101359091169160408201359190810190608081016060820135600160201b8111156106e357600080fd5b8201836020820111156106f557600080fd5b803590602001918460018302840111600160201b8311171561071657600080fd5b91908080601f016020809104026020016040519081016040528093929190818152602001838380828437600092019190915250929550611496945050505050565b610918600480360360a081101561076d57600080fd5b6001600160a01b038235811692602081013590911691810190606081016040820135600160201b8111156107a057600080fd5b8201836020820111156107b257600080fd5b803590602001918460208302840111600160201b831117156107d357600080fd5b9190808060200260200160405190810160405280939291908181526020018383602002808284376000920191909152509295949360208101935035915050600160201b81111561082257600080fd5b82018360208201111561083457600080fd5b803590602001918460208302840111600160201b8311171561085557600080fd5b9190808060200260200160405190810160405280939291908181526020018383602002808284376000920191909152509295949360208101935035915050600160201b8111156108a457600080fd5b8201836020820111156108b657600080fd5b803590602001918460018302840111600160201b831117156108d757600080fd5b91908080601f0160208091040260200160405190810160405280939291908181526020018383808284376000920191909152509295506114f4945050505050565b604080516001600160e01b03199092168252519081900360200190f35b61026f6004803603602081101561094b57600080fd5b5035611663565b6103536004803603602081101561096857600080fd5b50356118e6565b6103536118fd565b6103496004803603604081101561098d57600080fd5b50803590602001356001600160a01b0316611920565b610353611979565b610253600480360360408110156109c157600080fd5b506001600160a01b038135811691602001351661199c565b610918600480360360a08110156109ef57600080fd5b6001600160a01b03823581169260208101359091169160408201359160608101359181019060a081016080820135600160201b811115610a2e57600080fd5b820183602082011115610a4057600080fd5b803590602001918460018302840111600160201b83111715610a6157600080fd5b91908080601f0160208091040260200160405190810160405280939291908181526020018383808284376000920191909152509295506119ca945050505050565b6001600160e01b0319811660009081526001602052604090205460ff165b919050565b60078054604080516020601f6002600019610100600188161502019095169490940493840181900481028201810190925282815260609390929091830182828015610b515780601f10610b2657610100808354040283529160200191610b51565b820191906000526020600020905b815481529060010190602001808311610b3457829003601f168201915b505050505090505b90565b6000610b6782611ab3565b610ba25760405162461bcd60e51b815260040180806020018281038252602c815260200180612f09602c913960400191505060405180910390fd5b506000908152600560205260409020546001600160a01b031690565b6000610bc9826110b8565b9050806001600160a01b0316836001600160a01b03161415610c1c5760405162461bcd60e51b8152600401808060200182810382526021815260200180612fb86021913960400191505060405180910390fd5b806001600160a01b0316610c2e611ac6565b6001600160a01b03161480610c4f5750610c4f81610c4a611ac6565b61199c565b610c8a5760405162461bcd60e51b8152600401808060200182810382526038815260200180612e5c6038913960400191505060405180910390fd5b610c948383611aca565b505050565b6000610ca56003611b38565b905090565b610cbb610cb5611ac6565b82611b43565b610cf65760405162461bcd60e51b81526004018080602001828103825260318152602001806130006031913960400191505060405180910390fd5b610c94838383611be7565b60009081526020819052604090206002015490565b6000828152600e602090815260408083206001600160a01b038516845290915290206060908190610d4690611b38565b67ffffffffffffffff81118015610d5c57600080fd5b50604051908082528060200260200182016040528015610d86578160200160208202803683370190505b50905060005b6000858152600e602090815260408083206001600160a01b03881684529091529020610db790611b38565b811015610e0f576000858152600e602090815260408083206001600160a01b03881684529091529020610df0908263ffffffff611d4516565b828281518110610dfc57fe5b6020908102919091010152600101610d8c565b5090505b92915050565b600082815260208190526040902060020154610e3c90610e37611ac6565b61130d565b610e775760405162461bcd60e51b815260040180806020018281038252602f815260200180612cea602f913960400191505060405180910390fd5b610e818282611d51565b5050565b6001600160a01b0382166000908152600260205260408120610ead908363ffffffff611d4516565b9392505050565b610ebc611ac6565b6001600160a01b0316816001600160a01b031614610f0b5760405162461bcd60e51b815260040180806020018281038252602f8152602001806130c6602f913960400191505060405180910390fd5b610e818282611dc0565b604080516a5041555345525f524f4c4560a81b8152905190819003600b019020610f4190610e37611ac6565b610f7c5760405162461bcd60e51b81526004018080602001828103825260408152602001806130866040913960400191505060405180910390fd5b610f84611e2f565b565b604080516a4d494e5445525f524f4c4560a81b8152905190819003600b019020610fb290610e37611ac6565b610fed5760405162461bcd60e51b81526004018080602001828103825260258152602001806130616025913960400191505060405180910390fd5b610e818282611ecf565b610c9483838360405180602001604052806000815250611496565b61101d610cb5611ac6565b6110585760405162461bcd60e51b81526004018080602001828103825260308152602001806130316030913960400191505060405180910390fd5b61106181612009565b50565b60008061107860038463ffffffff6120e216565b509392505050565b600f5460ff1690565b6000928352600b602090815260408085206001600160a01b039490941685529281528284209184525290205490565b6000610e1382604051806060016040528060298152602001612ebe602991396003919063ffffffff6120fe16565b600a8054604080516020601f6002600019610100600188161502019095169490940493840181900481028201810190925282815260609390929091830182828015610b515780601f10610b2657610100808354040283529160200191610b51565b60006001600160a01b03821661118e5760405162461bcd60e51b815260040180806020018281038252602a815260200180612e94602a913960400191505060405180910390fd5b6001600160a01b0382166000908152600260205260409020610e1390611b38565b604080516a5041555345525f524f4c4560a81b8152905190819003600b0190206111db90610e37611ac6565b6112165760405162461bcd60e51b815260040180806020018281038252603e815260200180612d9e603e913960400191505060405180910390fd5b610f8461210b565b6000818152600d60205260409020606090819061123a90611b38565b67ffffffffffffffff8111801561125057600080fd5b5060405190808252806020026020018201604052801561127a578160200160208202803683370190505b50905060005b6000848152600d6020526040902061129790611b38565b8110156112e8576000848152600d602052604090206112bc908263ffffffff611d4516565b8282815181106112c857fe5b6001600160a01b0390921660209283029190910190910152600101611280565b5092915050565b6000828152602081905260408120610ead908363ffffffff611d4516565b6000828152602081905260408120610ead908363ffffffff61218e16565b60088054604080516020601f6002600019610100600188161502019095169490940493840181900481028201810190925282815260609390929091830182828015610b515780601f10610b2657610100808354040283529160200191610b51565b600081565b611399611ac6565b6001600160a01b0316826001600160a01b031614156113ff576040805162461bcd60e51b815260206004820152601960248201527f4552433732313a20617070726f766520746f2063616c6c657200000000000000604482015290519081900360640190fd5b806006600061140c611ac6565b6001600160a01b03908116825260208083019390935260409182016000908120918716808252919093529120805460ff191692151592909217909155611450611ac6565b60408051841515815290516001600160a01b0392909216917f17307eab39ab6107e8899845ad3d59bd9653f200f220920489ca2b5937696c319181900360200190a35050565b6114a76114a1611ac6565b83611b43565b6114e25760405162461bcd60e51b81526004018080602001828103825260318152602001806130006031913960400191505060405180910390fd5b6114ee848484846121a3565b50505050565b600081516020146115365760405162461bcd60e51b8152600401808060200182810382526053815260200180612d4b6053913960600191505060405180910390fd5b82518451146115765760405162461bcd60e51b8152600401808060200182810382526027815260200180612fd96027913960400191505060405180910390fd5b61158686600030888888886121f5565b601f19360180359060005b865181101561164e576115cc83338984815181106115ab57fe5b60200260200101518985815181106115bf57fe5b602002602001015161224d565b336001600160a01b031683896001600160a01b03167fa18753b0660a8be2cdae03468c860b47c2926433ab16917f323544652803032d8a858151811061160e57fe5b60200260200101518a868151811061162257fe5b6020026020010151604051808381526020018281526020019250505060405180910390a4600101611591565b5063bc197c8160e01b98975050505050505050565b606061166e82611ab3565b6116a95760405162461bcd60e51b815260040180806020018281038252602f815260200180612f89602f913960400191505060405180910390fd5b60008281526009602090815260409182902080548351601f600260001961010060018616150201909316929092049182018490048402810184019094528084526060939283018282801561173e5780601f106117135761010080835404028352916020019161173e565b820191906000526020600020905b81548152906001019060200180831161172157829003601f168201915b50505050509050606061174f6110e6565b905080516000141561176357509050610ac0565b8151156118245780826040516020018083805190602001908083835b6020831061179e5780518252601f19909201916020918201910161177f565b51815160209384036101000a600019018019909216911617905285519190930192850191508083835b602083106117e65780518252601f1990920191602091820191016117c7565b6001836020036101000a0380198251168184511680821785525050505050509050019250505060405160208183030381529060405292505050610ac0565b8061182e85612328565b6040516020018083805190602001908083835b602083106118605780518252601f199092019160209182019101611841565b51815160209384036101000a600019018019909216911617905285519190930192850191508083835b602083106118a85780518252601f199092019160209182019101611889565b6001836020036101000a0380198251168184511680821785525050505050509050019250505060405160208183030381529060405292505050919050565b6000818152602081905260408120610e1390611b38565b604080516a4d494e5445525f524f4c4560a81b8152905190819003600b01902081565b60008281526020819052604090206002015461193e90610e37611ac6565b610f0b5760405162461bcd60e51b8152600401808060200182810382526030815260200180612e2c6030913960400191505060405180910390fd5b604080516a5041555345525f524f4c4560a81b8152905190819003600b01902081565b6001600160a01b03918216600090815260066020908152604080832093909416825291909152205460ff1690565b60008151602014611a0c5760405162461bcd60e51b8152600401808060200182810382526053815260200180612d4b6053913960600191505060405180910390fd5b611a2c8660003088611a1d89612403565b611a2689612403565b886121f5565b601f193601803590611a408233888861224d565b60408051878152602081018790528151339285926001600160a01b038c16927fa18753b0660a8be2cdae03468c860b47c2926433ab16917f323544652803032d929181900390910190a45063f23a6e6160e01b979650505050505050565b6000610ead836001600160a01b038416612447565b6000610e1360038363ffffffff61249116565b3390565b600081815260056020526040902080546001600160a01b0319166001600160a01b0384169081179091558190611aff826110b8565b6001600160a01b03167f8c5be1e5ebec7d5bd14f71427d1e84f3dd0314c0f7b2291e5b200ac8c7c3b92560405160405180910390a45050565b6000610e138261249d565b6000611b4e82611ab3565b611b895760405162461bcd60e51b815260040180806020018281038252602c815260200180612e00602c913960400191505060405180910390fd5b6000611b94836110b8565b9050806001600160a01b0316846001600160a01b03161480611bcf5750836001600160a01b0316611bc484610b5c565b6001600160a01b0316145b80611bdf5750611bdf818561199c565b949350505050565b826001600160a01b0316611bfa826110b8565b6001600160a01b031614611c3f5760405162461bcd60e51b8152600401808060200182810382526029815260200180612f606029913960400191505060405180910390fd5b6001600160a01b038216611c845760405162461bcd60e51b8152600401808060200182810382526024815260200180612ddc6024913960400191505060405180910390fd5b611c8f8383836124a1565b611c9a600082611aca565b6001600160a01b0383166000908152600260205260409020611cc2908263ffffffff6124f016565b506001600160a01b0382166000908152600260205260409020611ceb908263ffffffff6124fc16565b50611cfe6003828463ffffffff61250816565b5080826001600160a01b0316846001600160a01b03167fddf252ad1be2c89b69c2b068fc378daa952ba7f163c4a11628f55a4df523b3ef60405160405180910390a4505050565b6000610ead838361251e565b6000828152602081905260409020611d6f908263ffffffff611a9e16565b15610e8157611d7c611ac6565b6001600160a01b0316816001600160a01b0316837f2f8788117e7eff1d82e926ec794901d17c78024a50270940304540a733656f0d60405160405180910390a45050565b6000828152602081905260409020611dde908263ffffffff61258216565b15610e8157611deb611ac6565b6001600160a01b0316816001600160a01b0316837ff6391f5c32d9c69d2a47ea670b442974b53935d1edc7fd64eb21e047a839171b60405160405180910390a45050565b611e37611080565b611e7f576040805162461bcd60e51b815260206004820152601460248201527314185d5cd8589b194e881b9bdd081c185d5cd95960621b604482015290519081900360640190fd5b600f805460ff191690557f5db9ee0a495bf2e6ff9c91a7834c1ba4fdd244a5e8aa4e537bd38aeae4b073aa611eb2611ac6565b604080516001600160a01b039092168252519081900360200190a1565b6001600160a01b038216611f2a576040805162461bcd60e51b815260206004820181905260248201527f4552433732313a206d696e7420746f20746865207a65726f2061646472657373604482015290519081900360640190fd5b611f3381611ab3565b15611f85576040805162461bcd60e51b815260206004820152601c60248201527f4552433732313a20746f6b656e20616c7265616479206d696e74656400000000604482015290519081900360640190fd5b611f91600083836124a1565b6001600160a01b0382166000908152600260205260409020611fb9908263ffffffff6124fc16565b50611fcc6003828463ffffffff61250816565b5060405181906001600160a01b038416906000907fddf252ad1be2c89b69c2b068fc378daa952ba7f163c4a11628f55a4df523b3ef908290a45050565b6000612014826110b8565b9050612022816000846124a1565b61202d600083611aca565b600082815260096020526040902054600260001961010060018416150201909116041561206b57600082815260096020526040812061206b91612c43565b6001600160a01b0381166000908152600260205260409020612093908363ffffffff6124f016565b506120a560038363ffffffff61259716565b5060405182906000906001600160a01b038416907fddf252ad1be2c89b69c2b068fc378daa952ba7f163c4a11628f55a4df523b3ef908390a45050565b60008080806120f186866125a3565b9097909650945050505050565b6000611bdf84848461261e565b612113611080565b15612158576040805162461bcd60e51b815260206004820152601060248201526f14185d5cd8589b194e881c185d5cd95960821b604482015290519081900360640190fd5b600f805460ff191660011790557f62e78cea01bee320cd4e420270b5ea74000d11b0c9f74754ebdbfc544b05a258611eb2611ac6565b6000610ead836001600160a01b0384166126e8565b6121ae848484611be7565b6121ba84848484612700565b6114ee5760405162461bcd60e51b8152600401808060200182810382526032815260200180612d196032913960400191505060405180910390fd5b6121fd611080565b156122395760405162461bcd60e51b815260040180806020018281038252602b815260200180612f35602b913960400191505060405180910390fd5b612244878787878787875b50505050505050565b6000848152600d6020526040902061226b908463ffffffff61218e16565b61228f576000848152600d6020526040902061228d908463ffffffff611a9e16565b505b6000848152600b602090815260408083206001600160a01b038716845282528083208584529091529020546122f2576000848152600e602090815260408083206001600160a01b038716845290915290206122f0908363ffffffff6124fc16565b505b6000938452600b602090815260408086206001600160a01b03909516865293815283852092855291909152912080549091019055565b60608161234d57506040805180820190915260018152600360fc1b6020820152610ac0565b8160005b811561236557600101600a82049150612351565b60608167ffffffffffffffff8111801561237e57600080fd5b506040519080825280601f01601f1916602001820160405280156123a9576020820181803683370190505b50859350905060001982015b83156123fa57600a840660300160f81b828280600190039350815181106123d857fe5b60200101906001600160f81b031916908160001a905350600a840493506123b5565b50949350505050565b60408051600180825281830190925260609182919060208083019080368337019050509050828160008151811061243657fe5b602090810291909101015292915050565b600061245383836126e8565b61248957508154600181810184556000848152602080822090930184905584548482528286019093526040902091909155610e13565b506000610e13565b6000610ead83836126e8565b5490565b6124a9611080565b156124e55760405162461bcd60e51b815260040180806020018281038252602b815260200180612cbf602b913960400191505060405180910390fd5b610c94838383610c94565b6000610ead8383612880565b6000610ead8383612447565b6000611bdf84846001600160a01b038516612946565b815460009082106125605760405162461bcd60e51b8152600401808060200182810382526022815260200180612c9d6022913960400191505060405180910390fd5b82600001828154811061256f57fe5b9060005260206000200154905092915050565b6000610ead836001600160a01b038416612880565b6000610ead83836129dd565b8154600090819083106125e75760405162461bcd60e51b8152600401808060200182810382526022815260200180612ee76022913960400191505060405180910390fd5b60008460000184815481106125f857fe5b906000526020600020906002020190508060000154816001015492509250509250929050565b600082815260018401602052604081205482816126b95760405162461bcd60e51b81526004018080602001828103825283818151815260200191508051906020019080838360005b8381101561267e578181015183820152602001612666565b50505050905090810190601f1680156126ab5780820380516001836020036101000a031916815260200191505b509250505060405180910390fd5b508460000160018203815481106126cc57fe5b9060005260206000209060020201600101549150509392505050565b60009081526001919091016020526040902054151590565b6000612714846001600160a01b0316612ab1565b61272057506001611bdf565b6060612846630a85bd0160e11b612735611ac6565b88878760405160240180856001600160a01b03166001600160a01b03168152602001846001600160a01b03166001600160a01b0316815260200183815260200180602001828103825283818151815260200191508051906020019080838360005b838110156127ae578181015183820152602001612796565b50505050905090810190601f1680156127db5780820380516001836020036101000a031916815260200191505b5095505050505050604051602081830303815290604052906001600160e01b0319166020820180516001600160e01b038381831617835250505050604051806060016040528060328152602001612d19603291396001600160a01b038816919063ffffffff612ab716565b9050600081806020019051602081101561285f57600080fd5b50516001600160e01b031916630a85bd0160e11b1492505050949350505050565b6000818152600183016020526040812054801561293c57835460001980830191908101906000908790839081106128b357fe5b90600052602060002001549050808760000184815481106128d057fe5b60009182526020808320909101929092558281526001898101909252604090209084019055865487908061290057fe5b60019003818190600052602060002001600090559055866001016000878152602001908152602001600020600090556001945050505050610e13565b6000915050610e13565b6000828152600184016020526040812054806129ab575050604080518082018252838152602080820184815286546001818101895560008981528481209551600290930290950191825591519082015586548684528188019092529290912055610ead565b828560000160018303815481106129be57fe5b9060005260206000209060020201600101819055506000915050610ead565b6000818152600183016020526040812054801561293c5783546000198083019190810190600090879083908110612a1057fe5b9060005260206000209060020201905080876000018481548110612a3057fe5b600091825260208083208454600290930201918255600193840154918401919091558354825289830190526040902090840190558654879080612a6f57fe5b6000828152602080822060026000199094019384020182815560019081018390559290935588815289820190925260408220919091559450610e139350505050565b3b151590565b6060611bdf848460008585612acb85612ab1565b612b1c576040805162461bcd60e51b815260206004820152601d60248201527f416464726573733a2063616c6c20746f206e6f6e2d636f6e7472616374000000604482015290519081900360640190fd5b60006060866001600160a01b031685876040518082805190602001908083835b60208310612b5b5780518252601f199092019160209182019101612b3c565b6001836020036101000a03801982511681845116808217855250505050505090500191505060006040518083038185875af1925050503d8060008114612bbd576040519150601f19603f3d011682016040523d82523d6000602084013e612bc2565b606091505b5091509150612bd2828286612bdd565b979650505050505050565b60608315612bec575081610ead565b825115612bfc5782518084602001fd5b60405162461bcd60e51b815260206004820181815284516024840152845185939192839260440191908501908083836000831561267e578181015183820152602001612666565b50805460018160011615610100020316600290046000825580601f10612c695750611061565b600091825260209182902061106192610b5992601f01048101905b80821115612c985760008155600101612c84565b509056fe456e756d657261626c655365743a20696e646578206f7574206f6620626f756e64734552433732315061757361626c653a20746f6b656e207472616e73666572207768696c6520706175736564416363657373436f6e74726f6c3a2073656e646572206d75737420626520616e2061646d696e20746f206772616e744552433732313a207472616e7366657220746f206e6f6e20455243373231526563656976657220696d706c656d656e7465724552433939383a2064617461206d75737420636f6e7461696e2074686520756e697175652075696e7432353620746f6b656e496420746f207472616e7366657220746865206368696c6420746f6b656e20746f4552433732315072657365744d696e7465725061757365724175746f49643a206d75737420686176652070617573657220726f6c6520746f2070617573654552433732313a207472616e7366657220746f20746865207a65726f20616464726573734552433732313a206f70657261746f7220717565727920666f72206e6f6e6578697374656e7420746f6b656e416363657373436f6e74726f6c3a2073656e646572206d75737420626520616e2061646d696e20746f207265766f6b654552433732313a20617070726f76652063616c6c6572206973206e6f74206f776e6572206e6f7220617070726f76656420666f7220616c6c4552433732313a2062616c616e636520717565727920666f7220746865207a65726f20616464726573734552433732313a206f776e657220717565727920666f72206e6f6e6578697374656e7420746f6b656e456e756d657261626c654d61703a20696e646578206f7574206f6620626f756e64734552433732313a20617070726f76656420717565727920666f72206e6f6e6578697374656e7420746f6b656e4552433939385061757361626c653a206368696c64207472616e73666572207768696c65207061757365644552433732313a207472616e73666572206f6620746f6b656e2074686174206973206e6f74206f776e4552433732314d657461646174613a2055524920717565727920666f72206e6f6e6578697374656e7420746f6b656e4552433732313a20617070726f76616c20746f2063757272656e74206f776e6572455243313135353a2069647320616e642076616c756573206c656e677468206d69736d617463684552433732313a207472616e736665722063616c6c6572206973206e6f74206f776e6572206e6f7220617070726f7665644552433732314275726e61626c653a2063616c6c6572206973206e6f74206f776e6572206e6f7220617070726f7665644552433732313a206d7573742068617665206d696e74657220726f6c6520746f206d696e744552433732315072657365744d696e7465725061757365724175746f49643a206d75737420686176652070617573657220726f6c6520746f20756e7061757365416363657373436f6e74726f6c3a2063616e206f6e6c792072656e6f756e636520726f6c657320666f722073656c66a2646970667358221220d8a0a92edab6df426e8402cf795d3f773960fd77625aae63f73c1d66c35d6e2264736f6c634300060b0033",
    "sourcePath": "/home/waverune/respct-club/ERC998ERC1155/contracts/ERC998ERC1155TopDownPresetMinterPauser.sol",
    "compiler": {
        "name": "solc",
        "version": "0.6.11+commit.5ef660b1"
    },
    "functionHashes": {
        "DEFAULT_ADMIN_ROLE()": "a217fddf",
        "MINTER_ROLE()": "d5391393",
        "PAUSER_ROLE()": "e63ab1e9",
        "approve(address,uint256)": "095ea7b3",
        "balanceOf(address)": "70a08231",
        "baseURI()": "6c0360eb",
        "burn(uint256)": "42966c68",
        "childBalance(uint256,address,uint256)": "60d4d23a",
        "childContractsFor(uint256)": "89e7e2f2",
        "childIdsForOn(uint256,address)": "2676608c",
        "getApproved(uint256)": "081812fc",
        "getRoleAdmin(bytes32)": "248a9ca3",
        "getRoleMember(bytes32,uint256)": "9010d07c",
        "getRoleMemberCount(bytes32)": "ca15c873",
        "grantRole(bytes32,address)": "2f2ff15d",
        "hasRole(bytes32,address)": "91d14854",
        "isApprovedForAll(address,address)": "e985e9c5",
        "mint(address,uint256)": "40c10f19",
        "name()": "06fdde03",
        "onERC1155BatchReceived(address,address,uint256[],uint256[],bytes)": "bc197c81",
        "onERC1155Received(address,address,uint256,uint256,bytes)": "f23a6e61",
        "ownerOf(uint256)": "6352211e",
        "pause()": "8456cb59",
        "paused()": "5c975abb",
        "renounceRole(bytes32,address)": "36568abe",
        "revokeRole(bytes32,address)": "d547741f",
        "safeTransferFrom(address,address,uint256)": "42842e0e",
        "safeTransferFrom(address,address,uint256,bytes)": "b88d4fde",
        "setApprovalForAll(address,bool)": "a22cb465",
        "supportsInterface(bytes4)": "01ffc9a7",
        "symbol()": "95d89b41",
        "tokenByIndex(uint256)": "4f6ccce7",
        "tokenOfOwnerByIndex(address,uint256)": "2f745c59",
        "tokenURI(uint256)": "c87b56dd",
        "totalSupply()": "18160ddd",
        "transferFrom(address,address,uint256)": "23b872dd",
        "unpause()": "3f4ba83a"
    },
    "gasEstimates": {
        "creation": {
            "codeDepositCost": "2517200",
            "executionCost": "infinite",
            "totalCost": "infinite"
        },
        "external": {
            "DEFAULT_ADMIN_ROLE()": "331",
            "MINTER_ROLE()": "326",
            "PAUSER_ROLE()": "370",
            "approve(address,uint256)": "infinite",
            "balanceOf(address)": "infinite",
            "baseURI()": "infinite",
            "burn(uint256)": "infinite",
            "childBalance(uint256,address,uint256)": "1443",
            "childContractsFor(uint256)": "infinite",
            "childIdsForOn(uint256,address)": "infinite",
            "getApproved(uint256)": "infinite",
            "getRoleAdmin(bytes32)": "1205",
            "getRoleMember(bytes32,uint256)": "infinite",
            "getRoleMemberCount(bytes32)": "infinite",
            "grantRole(bytes32,address)": "infinite",
            "hasRole(bytes32,address)": "infinite",
            "isApprovedForAll(address,address)": "1372",
            "mint(address,uint256)": "infinite",
            "name()": "infinite",
            "onERC1155BatchReceived(address,address,uint256[],uint256[],bytes)": "infinite",
            "onERC1155Received(address,address,uint256,uint256,bytes)": "infinite",
            "ownerOf(uint256)": "infinite",
            "pause()": "infinite",
            "paused()": "1121",
            "renounceRole(bytes32,address)": "infinite",
            "revokeRole(bytes32,address)": "infinite",
            "safeTransferFrom(address,address,uint256)": "infinite",
            "safeTransferFrom(address,address,uint256,bytes)": "infinite",
            "setApprovalForAll(address,bool)": "infinite",
            "supportsInterface(bytes4)": "1216",
            "symbol()": "infinite",
            "tokenByIndex(uint256)": "infinite",
            "tokenOfOwnerByIndex(address,uint256)": "infinite",
            "tokenURI(uint256)": "infinite",
            "totalSupply()": "1119",
            "transferFrom(address,address,uint256)": "infinite",
            "unpause()": "infinite"
        },
        "internal": {
            "_beforeChildTransfer(address,uint256,address,address,uint256[] memory,uint256[] memory,bytes memory)": "infinite",
            "_beforeTokenTransfer(address,address,uint256)": "infinite"
        }
    }
}