{
  "contractName": "ComposableParentERC721",
  "abi": [
    {
      "inputs": [
        {
          "internalType": "string",
          "name": "name",
          "type": "string"
        },
        {
          "internalType": "string",
          "name": "symbol",
          "type": "string"
        },
        {
          "internalType": "string",
          "name": "baseURI",
          "type": "string"
        },
        {
          "internalType": "uint256",
          "name": "firstUpgradeEngagementPoints",
          "type": "uint256"
        }
      ],
      "stateMutability": "nonpayable",
      "type": "constructor"
    },
    {
      "anonymous": false,
      "inputs": [
        {
          "indexed": true,
          "internalType": "address",
          "name": "owner",
          "type": "address"
        },
        {
          "indexed": true,
          "internalType": "address",
          "name": "approved",
          "type": "address"
        },
        {
          "indexed": true,
          "internalType": "uint256",
          "name": "tokenId",
          "type": "uint256"
        }
      ],
      "name": "Approval",
      "type": "event"
    },
    {
      "anonymous": false,
      "inputs": [
        {
          "indexed": true,
          "internalType": "address",
          "name": "owner",
          "type": "address"
        },
        {
          "indexed": true,
          "internalType": "address",
          "name": "operator",
          "type": "address"
        },
        {
          "indexed": false,
          "internalType": "bool",
          "name": "approved",
          "type": "bool"
        }
      ],
      "name": "ApprovalForAll",
      "type": "event"
    },
    {
      "anonymous": false,
      "inputs": [
        {
          "indexed": false,
          "internalType": "uint256",
          "name": "_value",
          "type": "uint256"
        }
      ],
      "name": "MaxSupplyUpdated",
      "type": "event"
    },
    {
      "anonymous": false,
      "inputs": [
        {
          "indexed": true,
          "internalType": "uint256",
          "name": "price",
          "type": "uint256"
        }
      ],
      "name": "NFTMintPriceUpdated",
      "type": "event"
    },
    {
      "anonymous": false,
      "inputs": [
        {
          "indexed": true,
          "internalType": "address",
          "name": "NFTowner",
          "type": "address"
        },
        {
          "indexed": true,
          "internalType": "uint256",
          "name": "tokenId",
          "type": "uint256"
        }
      ],
      "name": "NFTMinted",
      "type": "event"
    },
    {
      "anonymous": false,
      "inputs": [
        {
          "indexed": false,
          "internalType": "address",
          "name": "account",
          "type": "address"
        }
      ],
      "name": "Paused",
      "type": "event"
    },
    {
      "anonymous": false,
      "inputs": [
        {
          "indexed": true,
          "internalType": "address",
          "name": "from",
          "type": "address"
        },
        {
          "indexed": true,
          "internalType": "uint256",
          "name": "toTokenId",
          "type": "uint256"
        },
        {
          "indexed": true,
          "internalType": "address",
          "name": "childContract",
          "type": "address"
        },
        {
          "indexed": false,
          "internalType": "uint256",
          "name": "childTokenId",
          "type": "uint256"
        },
        {
          "indexed": false,
          "internalType": "uint256",
          "name": "amount",
          "type": "uint256"
        }
      ],
      "name": "ReceivedChild",
      "type": "event"
    },
    {
      "anonymous": false,
      "inputs": [
        {
          "indexed": true,
          "internalType": "bytes32",
          "name": "role",
          "type": "bytes32"
        },
        {
          "indexed": true,
          "internalType": "bytes32",
          "name": "previousAdminRole",
          "type": "bytes32"
        },
        {
          "indexed": true,
          "internalType": "bytes32",
          "name": "newAdminRole",
          "type": "bytes32"
        }
      ],
      "name": "RoleAdminChanged",
      "type": "event"
    },
    {
      "anonymous": false,
      "inputs": [
        {
          "indexed": true,
          "internalType": "bytes32",
          "name": "role",
          "type": "bytes32"
        },
        {
          "indexed": true,
          "internalType": "address",
          "name": "account",
          "type": "address"
        },
        {
          "indexed": true,
          "internalType": "address",
          "name": "sender",
          "type": "address"
        }
      ],
      "name": "RoleGranted",
      "type": "event"
    },
    {
      "anonymous": false,
      "inputs": [
        {
          "indexed": true,
          "internalType": "bytes32",
          "name": "role",
          "type": "bytes32"
        },
        {
          "indexed": true,
          "internalType": "address",
          "name": "account",
          "type": "address"
        },
        {
          "indexed": true,
          "internalType": "address",
          "name": "sender",
          "type": "address"
        }
      ],
      "name": "RoleRevoked",
      "type": "event"
    },
    {
      "anonymous": false,
      "inputs": [
        {
          "indexed": true,
          "internalType": "uint256",
          "name": "tierId",
          "type": "uint256"
        },
        {
          "indexed": true,
          "internalType": "uint256",
          "name": "price",
          "type": "uint256"
        }
      ],
      "name": "TierUpgradePriceUpdated",
      "type": "event"
    },
    {
      "anonymous": false,
      "inputs": [
        {
          "indexed": true,
          "internalType": "address",
          "name": "from",
          "type": "address"
        },
        {
          "indexed": true,
          "internalType": "address",
          "name": "to",
          "type": "address"
        },
        {
          "indexed": true,
          "internalType": "uint256",
          "name": "tokenId",
          "type": "uint256"
        }
      ],
      "name": "Transfer",
      "type": "event"
    },
    {
      "anonymous": false,
      "inputs": [
        {
          "indexed": true,
          "internalType": "uint256",
          "name": "fromTokenId",
          "type": "uint256"
        },
        {
          "indexed": true,
          "internalType": "address",
          "name": "to",
          "type": "address"
        },
        {
          "indexed": true,
          "internalType": "address",
          "name": "childContract",
          "type": "address"
        },
        {
          "indexed": false,
          "internalType": "uint256[]",
          "name": "childTokenIds",
          "type": "uint256[]"
        },
        {
          "indexed": false,
          "internalType": "uint256[]",
          "name": "amounts",
          "type": "uint256[]"
        }
      ],
      "name": "TransferBatchChild",
      "type": "event"
    },
    {
      "anonymous": false,
      "inputs": [
        {
          "indexed": true,
          "internalType": "uint256",
          "name": "fromTokenId",
          "type": "uint256"
        },
        {
          "indexed": true,
          "internalType": "address",
          "name": "to",
          "type": "address"
        },
        {
          "indexed": true,
          "internalType": "address",
          "name": "childContract",
          "type": "address"
        },
        {
          "indexed": false,
          "internalType": "uint256",
          "name": "childTokenId",
          "type": "uint256"
        },
        {
          "indexed": false,
          "internalType": "uint256",
          "name": "amount",
          "type": "uint256"
        }
      ],
      "name": "TransferSingleChild",
      "type": "event"
    },
    {
      "anonymous": false,
      "inputs": [
        {
          "indexed": false,
          "internalType": "address",
          "name": "account",
          "type": "address"
        }
      ],
      "name": "Unpaused",
      "type": "event"
    },
    {
      "inputs": [],
      "name": "ADMIN_ROLE",
      "outputs": [
        {
          "internalType": "bytes32",
          "name": "",
          "type": "bytes32"
        }
      ],
      "stateMutability": "view",
      "type": "function"
    },
    {
      "inputs": [],
      "name": "DEFAULT_ADMIN_ROLE",
      "outputs": [
        {
          "internalType": "bytes32",
          "name": "",
          "type": "bytes32"
        }
      ],
      "stateMutability": "view",
      "type": "function"
    },
    {
      "inputs": [],
      "name": "MINTER_ROLE",
      "outputs": [
        {
          "internalType": "bytes32",
          "name": "",
          "type": "bytes32"
        }
      ],
      "stateMutability": "view",
      "type": "function"
    },
    {
      "inputs": [],
      "name": "PAUSER_ROLE",
      "outputs": [
        {
          "internalType": "bytes32",
          "name": "",
          "type": "bytes32"
        }
      ],
      "stateMutability": "view",
      "type": "function"
    },
    {
      "inputs": [
        {
          "internalType": "address",
          "name": "to",
          "type": "address"
        },
        {
          "internalType": "uint256",
          "name": "tokenId",
          "type": "uint256"
        }
      ],
      "name": "approve",
      "outputs": [],
      "stateMutability": "nonpayable",
      "type": "function"
    },
    {
      "inputs": [
        {
          "internalType": "address",
          "name": "owner",
          "type": "address"
        }
      ],
      "name": "balanceOf",
      "outputs": [
        {
          "internalType": "uint256",
          "name": "",
          "type": "uint256"
        }
      ],
      "stateMutability": "view",
      "type": "function"
    },
    {
      "inputs": [],
      "name": "baseURI",
      "outputs": [
        {
          "internalType": "string",
          "name": "",
          "type": "string"
        }
      ],
      "stateMutability": "view",
      "type": "function"
    },
    {
      "inputs": [
        {
          "internalType": "uint256",
          "name": "composableId",
          "type": "uint256"
        },
        {
          "internalType": "address",
          "name": "childContract",
          "type": "address"
        },
        {
          "internalType": "uint256",
          "name": "tierId",
          "type": "uint256"
        }
      ],
      "name": "childBalance",
      "outputs": [
        {
          "internalType": "uint256",
          "name": "",
          "type": "uint256"
        }
      ],
      "stateMutability": "view",
      "type": "function"
    },
    {
      "inputs": [
        {
          "internalType": "uint256",
          "name": "composableId",
          "type": "uint256"
        }
      ],
      "name": "childContractsFor",
      "outputs": [
        {
          "internalType": "address[]",
          "name": "",
          "type": "address[]"
        }
      ],
      "stateMutability": "view",
      "type": "function"
    },
    {
      "inputs": [
        {
          "internalType": "uint256",
          "name": "composableId",
          "type": "uint256"
        },
        {
          "internalType": "address",
          "name": "childContract",
          "type": "address"
        }
      ],
      "name": "childIdsForOn",
      "outputs": [
        {
          "internalType": "uint256[]",
          "name": "",
          "type": "uint256[]"
        }
      ],
      "stateMutability": "view",
      "type": "function"
    },
    {
      "inputs": [
        {
          "internalType": "uint256",
          "name": "tokenId",
          "type": "uint256"
        }
      ],
      "name": "getApproved",
      "outputs": [
        {
          "internalType": "address",
          "name": "",
          "type": "address"
        }
      ],
      "stateMutability": "view",
      "type": "function"
    },
    {
      "inputs": [
        {
          "internalType": "bytes32",
          "name": "role",
          "type": "bytes32"
        }
      ],
      "name": "getRoleAdmin",
      "outputs": [
        {
          "internalType": "bytes32",
          "name": "",
          "type": "bytes32"
        }
      ],
      "stateMutability": "view",
      "type": "function"
    },
    {
      "inputs": [
        {
          "internalType": "bytes32",
          "name": "role",
          "type": "bytes32"
        },
        {
          "internalType": "uint256",
          "name": "index",
          "type": "uint256"
        }
      ],
      "name": "getRoleMember",
      "outputs": [
        {
          "internalType": "address",
          "name": "",
          "type": "address"
        }
      ],
      "stateMutability": "view",
      "type": "function"
    },
    {
      "inputs": [
        {
          "internalType": "bytes32",
          "name": "role",
          "type": "bytes32"
        }
      ],
      "name": "getRoleMemberCount",
      "outputs": [
        {
          "internalType": "uint256",
          "name": "",
          "type": "uint256"
        }
      ],
      "stateMutability": "view",
      "type": "function"
    },
    {
      "inputs": [
        {
          "internalType": "bytes32",
          "name": "role",
          "type": "bytes32"
        },
        {
          "internalType": "address",
          "name": "account",
          "type": "address"
        }
      ],
      "name": "grantRole",
      "outputs": [],
      "stateMutability": "nonpayable",
      "type": "function"
    },
    {
      "inputs": [
        {
          "internalType": "bytes32",
          "name": "role",
          "type": "bytes32"
        },
        {
          "internalType": "address",
          "name": "account",
          "type": "address"
        }
      ],
      "name": "hasRole",
      "outputs": [
        {
          "internalType": "bool",
          "name": "",
          "type": "bool"
        }
      ],
      "stateMutability": "view",
      "type": "function"
    },
    {
      "inputs": [
        {
          "internalType": "address",
          "name": "owner",
          "type": "address"
        },
        {
          "internalType": "address",
          "name": "operator",
          "type": "address"
        }
      ],
      "name": "isApprovedForAll",
      "outputs": [
        {
          "internalType": "bool",
          "name": "",
          "type": "bool"
        }
      ],
      "stateMutability": "view",
      "type": "function"
    },
    {
      "inputs": [],
      "name": "maxSupply",
      "outputs": [
        {
          "internalType": "uint256",
          "name": "",
          "type": "uint256"
        }
      ],
      "stateMutability": "view",
      "type": "function"
    },
    {
      "inputs": [],
      "name": "mintCost",
      "outputs": [
        {
          "internalType": "uint256",
          "name": "",
          "type": "uint256"
        }
      ],
      "stateMutability": "view",
      "type": "function"
    },
    {
      "inputs": [],
      "name": "name",
      "outputs": [
        {
          "internalType": "string",
          "name": "",
          "type": "string"
        }
      ],
      "stateMutability": "view",
      "type": "function"
    },
    {
      "inputs": [
        {
          "internalType": "address",
          "name": "operator",
          "type": "address"
        },
        {
          "internalType": "address",
          "name": "from",
          "type": "address"
        },
        {
          "internalType": "uint256[]",
          "name": "ids",
          "type": "uint256[]"
        },
        {
          "internalType": "uint256[]",
          "name": "values",
          "type": "uint256[]"
        },
        {
          "internalType": "bytes",
          "name": "data",
          "type": "bytes"
        }
      ],
      "name": "onERC1155BatchReceived",
      "outputs": [
        {
          "internalType": "bytes4",
          "name": "",
          "type": "bytes4"
        }
      ],
      "stateMutability": "nonpayable",
      "type": "function"
    },
    {
      "inputs": [
        {
          "internalType": "address",
          "name": "operator",
          "type": "address"
        },
        {
          "internalType": "address",
          "name": "from",
          "type": "address"
        },
        {
          "internalType": "uint256",
          "name": "id",
          "type": "uint256"
        },
        {
          "internalType": "uint256",
          "name": "amount",
          "type": "uint256"
        },
        {
          "internalType": "bytes",
          "name": "data",
          "type": "bytes"
        }
      ],
      "name": "onERC1155Received",
      "outputs": [
        {
          "internalType": "bytes4",
          "name": "",
          "type": "bytes4"
        }
      ],
      "stateMutability": "nonpayable",
      "type": "function"
    },
    {
      "inputs": [
        {
          "internalType": "uint256",
          "name": "tokenId",
          "type": "uint256"
        }
      ],
      "name": "ownerOf",
      "outputs": [
        {
          "internalType": "address",
          "name": "",
          "type": "address"
        }
      ],
      "stateMutability": "view",
      "type": "function"
    },
    {
      "inputs": [
        {
          "internalType": "address",
          "name": "",
          "type": "address"
        }
      ],
      "name": "ownerToComposableId",
      "outputs": [
        {
          "internalType": "uint256",
          "name": "",
          "type": "uint256"
        }
      ],
      "stateMutability": "view",
      "type": "function"
    },
    {
      "inputs": [],
      "name": "paused",
      "outputs": [
        {
          "internalType": "bool",
          "name": "",
          "type": "bool"
        }
      ],
      "stateMutability": "view",
      "type": "function"
    },
    {
      "inputs": [
        {
          "internalType": "bytes32",
          "name": "role",
          "type": "bytes32"
        },
        {
          "internalType": "address",
          "name": "account",
          "type": "address"
        }
      ],
      "name": "renounceRole",
      "outputs": [],
      "stateMutability": "nonpayable",
      "type": "function"
    },
    {
      "inputs": [
        {
          "internalType": "bytes32",
          "name": "role",
          "type": "bytes32"
        },
        {
          "internalType": "address",
          "name": "account",
          "type": "address"
        }
      ],
      "name": "revokeRole",
      "outputs": [],
      "stateMutability": "nonpayable",
      "type": "function"
    },
    {
      "inputs": [
        {
          "internalType": "address",
          "name": "from",
          "type": "address"
        },
        {
          "internalType": "address",
          "name": "to",
          "type": "address"
        },
        {
          "internalType": "uint256",
          "name": "tokenId",
          "type": "uint256"
        }
      ],
      "name": "safeTransferFrom",
      "outputs": [],
      "stateMutability": "nonpayable",
      "type": "function"
    },
    {
      "inputs": [
        {
          "internalType": "address",
          "name": "from",
          "type": "address"
        },
        {
          "internalType": "address",
          "name": "to",
          "type": "address"
        },
        {
          "internalType": "uint256",
          "name": "tokenId",
          "type": "uint256"
        },
        {
          "internalType": "bytes",
          "name": "_data",
          "type": "bytes"
        }
      ],
      "name": "safeTransferFrom",
      "outputs": [],
      "stateMutability": "nonpayable",
      "type": "function"
    },
    {
      "inputs": [
        {
          "internalType": "address",
          "name": "operator",
          "type": "address"
        },
        {
          "internalType": "bool",
          "name": "approved",
          "type": "bool"
        }
      ],
      "name": "setApprovalForAll",
      "outputs": [],
      "stateMutability": "nonpayable",
      "type": "function"
    },
    {
      "inputs": [
        {
          "internalType": "bytes4",
          "name": "interfaceId",
          "type": "bytes4"
        }
      ],
      "name": "supportsInterface",
      "outputs": [
        {
          "internalType": "bool",
          "name": "",
          "type": "bool"
        }
      ],
      "stateMutability": "view",
      "type": "function"
    },
    {
      "inputs": [],
      "name": "symbol",
      "outputs": [
        {
          "internalType": "string",
          "name": "",
          "type": "string"
        }
      ],
      "stateMutability": "view",
      "type": "function"
    },
    {
      "inputs": [
        {
          "internalType": "uint256",
          "name": "index",
          "type": "uint256"
        }
      ],
      "name": "tokenByIndex",
      "outputs": [
        {
          "internalType": "uint256",
          "name": "",
          "type": "uint256"
        }
      ],
      "stateMutability": "view",
      "type": "function"
    },
    {
      "inputs": [
        {
          "internalType": "address",
          "name": "owner",
          "type": "address"
        },
        {
          "internalType": "uint256",
          "name": "index",
          "type": "uint256"
        }
      ],
      "name": "tokenOfOwnerByIndex",
      "outputs": [
        {
          "internalType": "uint256",
          "name": "",
          "type": "uint256"
        }
      ],
      "stateMutability": "view",
      "type": "function"
    },
    {
      "inputs": [
        {
          "internalType": "uint256",
          "name": "tokenId",
          "type": "uint256"
        }
      ],
      "name": "tokenURI",
      "outputs": [
        {
          "internalType": "string",
          "name": "",
          "type": "string"
        }
      ],
      "stateMutability": "view",
      "type": "function"
    },
    {
      "inputs": [],
      "name": "totalSupply",
      "outputs": [
        {
          "internalType": "uint256",
          "name": "",
          "type": "uint256"
        }
      ],
      "stateMutability": "view",
      "type": "function"
    },
    {
      "inputs": [
        {
          "internalType": "address",
          "name": "from",
          "type": "address"
        },
        {
          "internalType": "address",
          "name": "to",
          "type": "address"
        },
        {
          "internalType": "uint256",
          "name": "tokenId",
          "type": "uint256"
        }
      ],
      "name": "transferFrom",
      "outputs": [],
      "stateMutability": "nonpayable",
      "type": "function"
    },
    {
      "inputs": [
        {
          "internalType": "address",
          "name": "_owner",
          "type": "address"
        }
      ],
      "name": "getComposableId",
      "outputs": [
        {
          "internalType": "uint256",
          "name": "",
          "type": "uint256"
        }
      ],
      "stateMutability": "view",
      "type": "function"
    },
    {
      "inputs": [],
      "name": "getComposableCount",
      "outputs": [
        {
          "internalType": "uint256",
          "name": "",
          "type": "uint256"
        }
      ],
      "stateMutability": "view",
      "type": "function"
    },
    {
      "inputs": [],
      "name": "getMaxSupply",
      "outputs": [
        {
          "internalType": "uint256",
          "name": "",
          "type": "uint256"
        }
      ],
      "stateMutability": "view",
      "type": "function"
    },
    {
      "inputs": [],
      "name": "getMintCost",
      "outputs": [
        {
          "internalType": "uint256",
          "name": "",
          "type": "uint256"
        }
      ],
      "stateMutability": "view",
      "type": "function"
    },
    {
      "inputs": [
        {
          "internalType": "uint256",
          "name": "_tierId",
          "type": "uint256"
        }
      ],
      "name": "getTierUpgradeCost",
      "outputs": [
        {
          "internalType": "uint256",
          "name": "",
          "type": "uint256"
        }
      ],
      "stateMutability": "view",
      "type": "function"
    },
    {
      "inputs": [
        {
          "internalType": "uint256",
          "name": "_composableId",
          "type": "uint256"
        },
        {
          "internalType": "address",
          "name": "_childContract",
          "type": "address"
        }
      ],
      "name": "getLevel",
      "outputs": [
        {
          "internalType": "uint256",
          "name": "",
          "type": "uint256"
        }
      ],
      "stateMutability": "view",
      "type": "function"
    },
    {
      "inputs": [
        {
          "internalType": "uint256",
          "name": "_value",
          "type": "uint256"
        }
      ],
      "name": "changeMaxSupply",
      "outputs": [],
      "stateMutability": "nonpayable",
      "type": "function"
    },
    {
      "inputs": [
        {
          "internalType": "uint256",
          "name": "_tierId",
          "type": "uint256"
        },
        {
          "internalType": "uint256",
          "name": "_cost",
          "type": "uint256"
        }
      ],
      "name": "setTierUpgradeCost",
      "outputs": [],
      "stateMutability": "nonpayable",
      "type": "function"
    },
    {
      "inputs": [
        {
          "internalType": "uint256",
          "name": "_cost",
          "type": "uint256"
        }
      ],
      "name": "setMintCost",
      "outputs": [],
      "stateMutability": "nonpayable",
      "type": "function"
    },
    {
      "inputs": [],
      "name": "mint",
      "outputs": [],
      "stateMutability": "payable",
      "type": "function"
    },
    {
      "inputs": [
        {
          "internalType": "uint256",
          "name": "tokenId",
          "type": "uint256"
        }
      ],
      "name": "burn",
      "outputs": [],
      "stateMutability": "nonpayable",
      "type": "function"
    },
    {
      "inputs": [],
      "name": "pause",
      "outputs": [],
      "stateMutability": "nonpayable",
      "type": "function"
    },
    {
      "inputs": [],
      "name": "unpause",
      "outputs": [],
      "stateMutability": "nonpayable",
      "type": "function"
    }
  ],
  "bytecode": "0x60806040526064601255671bc16d674ec800006013553480156200002257600080fd5b5060405162005db838038062005db8833981810160405260808110156200004857600080fd5b81019080805160405193929190846401000000008211156200006957600080fd5b838201915060208201858111156200008057600080fd5b82518660018202830111640100000000821117156200009e57600080fd5b8083526020830192505050908051906020019080838360005b83811015620000d4578082015181840152602081019050620000b7565b50505050905090810190601f168015620001025780820380516001836020036101000a031916815260200191505b50604052602001805160405193929190846401000000008211156200012657600080fd5b838201915060208201858111156200013d57600080fd5b82518660018202830111640100000000821117156200015b57600080fd5b8083526020830192505050908051906020019080838360005b838110156200019157808201518184015260208101905062000174565b50505050905090810190601f168015620001bf5780820380516001836020036101000a031916815260200191505b5060405260200180516040519392919084640100000000821115620001e357600080fd5b83820191506020820185811115620001fa57600080fd5b82518660018202830111640100000000821117156200021857600080fd5b8083526020830192505050908051906020019080838360005b838110156200024e57808201518184015260208101905062000231565b50505050905090810190601f1680156200027c5780820380516001836020036101000a031916815260200191505b50604052602001805190602001909291905050508383838282620002ad6301ffc9a760e01b620004ef60201b60201c565b8160079080519060200190620002c5929190620007aa565b508060089080519060200190620002de929190620007aa565b50620002f76380ac58cd60e01b620004ef60201b60201c565b6200030f635b5e139f60e01b620004ef60201b60201c565b6200032763780e9d6360e01b620004ef60201b60201c565b50506200034a63bc197c8160e01b63f23a6e6160e01b18620004ef60201b60201c565b6200035b81620005f860201b60201c565b5050506000600f60006101000a81548160ff0219169083151502179055506001601081905550620003d760405180807f41444d494e5f524f4c4500000000000000000000000000000000000000000000815250600a0190506040518091039020620003cb6200061460201b60201c565b6200061c60201b60201c565b6200042d60405180807f4d494e5445525f524f4c45000000000000000000000000000000000000000000815250600b0190506040518091039020620004216200061460201b60201c565b6200061c60201b60201c565b6200048360405180807f5041555345525f524f4c45000000000000000000000000000000000000000000815250600b0190506040518091039020620004776200061460201b60201c565b6200061c60201b60201c565b33601660006101000a81548173ffffffffffffffffffffffffffffffffffffffff021916908373ffffffffffffffffffffffffffffffffffffffff1602179055506000601181905550806014600060018152602001908152602001600020819055505050505062000859565b63ffffffff60e01b817bffffffffffffffffffffffffffffffffffffffffffffffffffffffff191614156200058c576040517f08c379a000000000000000000000000000000000000000000000000000000000815260040180806020018281038252601c8152602001807f4552433136353a20696e76616c696420696e746572666163652069640000000081525060200191505060405180910390fd5b6001806000837bffffffffffffffffffffffffffffffffffffffffffffffffffffffff19167bffffffffffffffffffffffffffffffffffffffffffffffffffffffff1916815260200190815260200160002060006101000a81548160ff02191690831515021790555050565b80600a908051906020019062000610929190620007aa565b5050565b600033905090565b6200062e82826200063260201b60201c565b5050565b6200066081600080858152602001908152602001600020600001620006d560201b620046121790919060201c565b15620006d157620006766200061460201b60201c565b73ffffffffffffffffffffffffffffffffffffffff168173ffffffffffffffffffffffffffffffffffffffff16837f2f8788117e7eff1d82e926ec794901d17c78024a50270940304540a733656f0d60405160405180910390a45b5050565b600062000705836000018373ffffffffffffffffffffffffffffffffffffffff1660001b6200070d60201b60201c565b905092915050565b60006200072183836200078760201b60201c565b6200077c57826000018290806001815401808255809150506001900390600052602060002001600090919091909150558260000180549050836001016000848152602001908152602001600020819055506001905062000781565b600090505b92915050565b600080836001016000848152602001908152602001600020541415905092915050565b828054600181600116156101000203166002900490600052602060002090601f016020900481019282601f10620007ed57805160ff19168380011785556200081e565b828001600101855582156200081e579182015b828111156200081d57825182559160200191906001019062000800565b5b5090506200082d919062000831565b5090565b6200085691905b808211156200085257600081600090555060010162000838565b5090565b90565b61554f80620008696000396000f3fe6080604052600436106102c95760003560e01c806370a0823111610175578063b88d4fde116100dc578063d547741f11610095578063e63ab1e91161006f578063e63ab1e914611558578063e985e9c514611583578063f225d4321461160c578063f23a6e611461167b576102c9565b8063d547741f1461148d578063d5abeb01146114e8578063e2275b5214611513576102c9565b8063b88d4fde14610fa0578063bc197c81146110b2578063bdb4b84814611334578063c87b56dd1461135f578063ca15c87314611413578063d539139314611462576102c9565b80638b9220f31161012e5780638b9220f314610d655780639010d07c14610d9057806391d1485414610e1557806395d89b4114610e88578063a217fddf14610f18578063a22cb46514610f43576102c9565b806370a0823114610ba457806375b238fc14610c095780637c926af614610c345780638456cb5914610c835780638545f4ea14610c9a57806389e7e2f214610cd5576102c9565b806336568abe116102345780634e18b762116101ed57806360d4d23a116101c757806360d4d23a146109bb5780636352211e14610a34578063640bfdb514610aaf5780636c0360eb14610b14576102c9565b80634e18b762146108d85780634f6ccce71461093d5780635c975abb1461098c576102c9565b806336568abe1461074a5780633f4ba83a146107a5578063404c7cdd146107bc57806342842e0e146107f757806342966c68146108725780634c0f38c2146108ad576102c9565b806318160ddd1161028657806318160ddd146104db57806323b872dd14610506578063248a9ca3146105815780632676608c146105d05780632f2ff15d146106805780632f745c59146106db576102c9565b806301ffc9a7146102ce57806306fdde0314610340578063081812fc146103d0578063095ea7b31461044b5780631249c58b146104a657806313c738f0146104b0575b600080fd5b3480156102da57600080fd5b50610326600480360360208110156102f157600080fd5b8101908080357bffffffffffffffffffffffffffffffffffffffffffffffffffffffff191690602001909291905050506117e9565b604051808215151515815260200191505060405180910390f35b34801561034c57600080fd5b50610355611851565b6040518080602001828103825283818151815260200191508051906020019080838360005b8381101561039557808201518184015260208101905061037a565b50505050905090810190601f1680156103c25780820380516001836020036101000a031916815260200191505b509250505060405180910390f35b3480156103dc57600080fd5b50610409600480360360208110156103f357600080fd5b81019080803590602001909291905050506118f3565b604051808273ffffffffffffffffffffffffffffffffffffffff1673ffffffffffffffffffffffffffffffffffffffff16815260200191505060405180910390f35b34801561045757600080fd5b506104a46004803603604081101561046e57600080fd5b81019080803573ffffffffffffffffffffffffffffffffffffffff1690602001909291908035906020019092919050505061198e565b005b6104ae611ad2565b005b3480156104bc57600080fd5b506104c5611d9d565b6040518082815260200191505060405180910390f35b3480156104e757600080fd5b506104f0611da7565b6040518082815260200191505060405180910390f35b34801561051257600080fd5b5061057f6004803603606081101561052957600080fd5b81019080803573ffffffffffffffffffffffffffffffffffffffff169060200190929190803573ffffffffffffffffffffffffffffffffffffffff16906020019092919080359060200190929190505050611db8565b005b34801561058d57600080fd5b506105ba600480360360208110156105a457600080fd5b8101908080359060200190929190505050611e2e565b6040518082815260200191505060405180910390f35b3480156105dc57600080fd5b50610629600480360360408110156105f357600080fd5b8101908080359060200190929190803573ffffffffffffffffffffffffffffffffffffffff169060200190929190505050611e4d565b6040518080602001828103825283818151815260200191508051906020019060200280838360005b8381101561066c578082015181840152602081019050610651565b505050509050019250505060405180910390f35b34801561068c57600080fd5b506106d9600480360360408110156106a357600080fd5b8101908080359060200190929190803573ffffffffffffffffffffffffffffffffffffffff169060200190929190505050611fe7565b005b3480156106e757600080fd5b50610734600480360360408110156106fe57600080fd5b81019080803573ffffffffffffffffffffffffffffffffffffffff16906020019092919080359060200190929190505050612070565b6040518082815260200191505060405180910390f35b34801561075657600080fd5b506107a36004803603604081101561076d57600080fd5b8101908080359060200190929190803573ffffffffffffffffffffffffffffffffffffffff1690602001909291905050506120cb565b005b3480156107b157600080fd5b506107ba612164565b005b3480156107c857600080fd5b506107f5600480360360208110156107df57600080fd5b8101908080359060200190929190505050612209565b005b34801561080357600080fd5b506108706004803603606081101561081a57600080fd5b81019080803573ffffffffffffffffffffffffffffffffffffffff169060200190929190803573ffffffffffffffffffffffffffffffffffffffff169060200190929190803590602001909291905050506122cb565b005b34801561087e57600080fd5b506108ab6004803603602081101561089557600080fd5b81019080803590602001909291905050506122eb565b005b3480156108b957600080fd5b506108c261235d565b6040518082815260200191505060405180910390f35b3480156108e457600080fd5b50610927600480360360208110156108fb57600080fd5b81019080803573ffffffffffffffffffffffffffffffffffffffff169060200190929190505050612367565b6040518082815260200191505060405180910390f35b34801561094957600080fd5b506109766004803603602081101561096057600080fd5b810190808035906020019092919050505061237f565b6040518082815260200191505060405180910390f35b34801561099857600080fd5b506109a16123a2565b604051808215151515815260200191505060405180910390f35b3480156109c757600080fd5b50610a1e600480360360608110156109de57600080fd5b8101908080359060200190929190803573ffffffffffffffffffffffffffffffffffffffff169060200190929190803590602001909291905050506123b9565b6040518082815260200191505060405180910390f35b348015610a4057600080fd5b50610a6d60048036036020811015610a5757600080fd5b8101908080359060200190929190505050612426565b604051808273ffffffffffffffffffffffffffffffffffffffff1673ffffffffffffffffffffffffffffffffffffffff16815260200191505060405180910390f35b348015610abb57600080fd5b50610afe60048036036020811015610ad257600080fd5b81019080803573ffffffffffffffffffffffffffffffffffffffff16906020019092919050505061245d565b6040518082815260200191505060405180910390f35b348015610b2057600080fd5b50610b296124a6565b6040518080602001828103825283818151815260200191508051906020019080838360005b83811015610b69578082015181840152602081019050610b4e565b50505050905090810190601f168015610b965780820380516001836020036101000a031916815260200191505b509250505060405180910390f35b348015610bb057600080fd5b50610bf360048036036020811015610bc757600080fd5b81019080803573ffffffffffffffffffffffffffffffffffffffff169060200190929190505050612548565b6040518082815260200191505060405180910390f35b348015610c1557600080fd5b50610c1e61261d565b6040518082815260200191505060405180910390f35b348015610c4057600080fd5b50610c6d60048036036020811015610c5757600080fd5b8101908080359060200190929190505050612656565b6040518082815260200191505060405180910390f35b348015610c8f57600080fd5b50610c98612673565b005b348015610ca657600080fd5b50610cd360048036036020811015610cbd57600080fd5b8101908080359060200190929190505050612718565b005b348015610ce157600080fd5b50610d0e60048036036020811015610cf857600080fd5b810190808035906020019092919050505061279e565b6040518080602001828103825283818151815260200191508051906020019060200280838360005b83811015610d51578082015181840152602081019050610d36565b505050509050019250505060405180910390f35b348015610d7157600080fd5b50610d7a6128ae565b6040518082815260200191505060405180910390f35b348015610d9c57600080fd5b50610dd360048036036040811015610db357600080fd5b8101908080359060200190929190803590602001909291905050506128b8565b604051808273ffffffffffffffffffffffffffffffffffffffff1673ffffffffffffffffffffffffffffffffffffffff16815260200191505060405180910390f35b348015610e2157600080fd5b50610e6e60048036036040811015610e3857600080fd5b8101908080359060200190929190803573ffffffffffffffffffffffffffffffffffffffff1690602001909291905050506128e9565b604051808215151515815260200191505060405180910390f35b348015610e9457600080fd5b50610e9d61291a565b6040518080602001828103825283818151815260200191508051906020019080838360005b83811015610edd578082015181840152602081019050610ec2565b50505050905090810190601f168015610f0a5780820380516001836020036101000a031916815260200191505b509250505060405180910390f35b348015610f2457600080fd5b50610f2d6129bc565b6040518082815260200191505060405180910390f35b348015610f4f57600080fd5b50610f9e60048036036040811015610f6657600080fd5b81019080803573ffffffffffffffffffffffffffffffffffffffff1690602001909291908035151590602001909291905050506129c3565b005b348015610fac57600080fd5b506110b060048036036080811015610fc357600080fd5b81019080803573ffffffffffffffffffffffffffffffffffffffff169060200190929190803573ffffffffffffffffffffffffffffffffffffffff169060200190929190803590602001909291908035906020019064010000000081111561102a57600080fd5b82018360208201111561103c57600080fd5b8035906020019184600183028401116401000000008311171561105e57600080fd5b91908080601f016020809104026020016040519081016040528093929190818152602001838380828437600081840152601f19601f820116905080830192505050505050509192919290505050612b7b565b005b3480156110be57600080fd5b506112e0600480360360a08110156110d557600080fd5b81019080803573ffffffffffffffffffffffffffffffffffffffff169060200190929190803573ffffffffffffffffffffffffffffffffffffffff1690602001909291908035906020019064010000000081111561113257600080fd5b82018360208201111561114457600080fd5b8035906020019184602083028401116401000000008311171561116657600080fd5b919080806020026020016040519081016040528093929190818152602001838360200280828437600081840152601f19601f820116905080830192505050505050509192919290803590602001906401000000008111156111c657600080fd5b8201836020820111156111d857600080fd5b803590602001918460208302840111640100000000831117156111fa57600080fd5b919080806020026020016040519081016040528093929190818152602001838360200280828437600081840152601f19601f8201169050808301925050505050505091929192908035906020019064010000000081111561125a57600080fd5b82018360208201111561126c57600080fd5b8035906020019184600183028401116401000000008311171561128e57600080fd5b91908080601f016020809104026020016040519081016040528093929190818152602001838380828437600081840152601f19601f820116905080830192505050505050509192919290505050612bf3565b60405180827bffffffffffffffffffffffffffffffffffffffffffffffffffffffff19167bffffffffffffffffffffffffffffffffffffffffffffffffffffffff1916815260200191505060405180910390f35b34801561134057600080fd5b50611349612dc2565b6040518082815260200191505060405180910390f35b34801561136b57600080fd5b506113986004803603602081101561138257600080fd5b8101908080359060200190929190505050612dc8565b6040518080602001828103825283818151815260200191508051906020019080838360005b838110156113d85780820151818401526020810190506113bd565b50505050905090810190601f1680156114055780820380516001836020036101000a031916815260200191505b509250505060405180910390f35b34801561141f57600080fd5b5061144c6004803603602081101561143657600080fd5b81019080803590602001909291905050506130b1565b6040518082815260200191505060405180910390f35b34801561146e57600080fd5b506114776130d7565b6040518082815260200191505060405180910390f35b34801561149957600080fd5b506114e6600480360360408110156114b057600080fd5b8101908080359060200190929190803573ffffffffffffffffffffffffffffffffffffffff169060200190929190505050613110565b005b3480156114f457600080fd5b506114fd613199565b6040518082815260200191505060405180910390f35b34801561151f57600080fd5b506115566004803603604081101561153657600080fd5b81019080803590602001909291908035906020019092919050505061319f565b005b34801561156457600080fd5b5061156d6132a1565b6040518082815260200191505060405180910390f35b34801561158f57600080fd5b506115f2600480360360408110156115a657600080fd5b81019080803573ffffffffffffffffffffffffffffffffffffffff169060200190929190803573ffffffffffffffffffffffffffffffffffffffff1690602001909291905050506132da565b604051808215151515815260200191505060405180910390f35b34801561161857600080fd5b506116656004803603604081101561162f57600080fd5b8101908080359060200190929190803573ffffffffffffffffffffffffffffffffffffffff16906020019092919050505061336e565b6040518082815260200191505060405180910390f35b34801561168757600080fd5b50611795600480360360a081101561169e57600080fd5b81019080803573ffffffffffffffffffffffffffffffffffffffff169060200190929190803573ffffffffffffffffffffffffffffffffffffffff16906020019092919080359060200190929190803590602001909291908035906020019064010000000081111561170f57600080fd5b82018360208201111561172157600080fd5b8035906020019184600183028401116401000000008311171561174357600080fd5b91908080601f016020809104026020016040519081016040528093929190818152602001838380828437600081840152601f19601f8201169050808301925050505050505091929192905050506133c1565b60405180827bffffffffffffffffffffffffffffffffffffffffffffffffffffffff19167bffffffffffffffffffffffffffffffffffffffffffffffffffffffff1916815260200191505060405180910390f35b600060016000837bffffffffffffffffffffffffffffffffffffffffffffffffffffffff19167bffffffffffffffffffffffffffffffffffffffffffffffffffffffff1916815260200190815260200160002060009054906101000a900460ff169050919050565b606060078054600181600116156101000203166002900480601f0160208091040260200160405190810160405280929190818152602001828054600181600116156101000203166002900480156118e95780601f106118be576101008083540402835291602001916118e9565b820191906000526020600020905b8154815290600101906020018083116118cc57829003601f168201915b5050505050905090565b60006118fe826134dd565b611953576040517f08c379a000000000000000000000000000000000000000000000000000000000815260040180806020018281038252602c81526020018061530c602c913960400191505060405180910390fd5b6005600083815260200190815260200160002060009054906101000a900473ffffffffffffffffffffffffffffffffffffffff169050919050565b600061199982612426565b90508073ffffffffffffffffffffffffffffffffffffffff168373ffffffffffffffffffffffffffffffffffffffff161415611a20576040517f08c379a00000000000000000000000000000000000000000000000000000000081526004018080602001828103825260218152602001806153df6021913960400191505060405180910390fd5b8073ffffffffffffffffffffffffffffffffffffffff16611a3f6134fa565b73ffffffffffffffffffffffffffffffffffffffff161480611a6e5750611a6d81611a686134fa565b6132da565b5b611ac3576040517f08c379a000000000000000000000000000000000000000000000000000000000815260040180806020018281038252603881526020018061525f6038913960400191505060405180910390fd5b611acd8383613502565b505050565b60026010541415611b4b576040517f08c379a000000000000000000000000000000000000000000000000000000000815260040180806020018281038252601f8152602001807f5265656e7472616e637947756172643a207265656e7472616e742063616c6c0081525060200191505060405180910390fd5b60026010819055506013543414611bca576040517f08c379a000000000000000000000000000000000000000000000000000000000815260040180806020018281038252601e8152602001807f4552433732313a206d7573742070617920746865206d696e7420636f7374000081525060200191505060405180910390fd5b6000611bd533612548565b14611c2b576040517f08c379a00000000000000000000000000000000000000000000000000000000081526004018080602001828103825260238152602001806154586023913960400191505060405180910390fd5b60006001601154019050601254811115611c90576040517f08c379a00000000000000000000000000000000000000000000000000000000081526004018080602001828103825260248152602001806153bb6024913960400191505060405180910390fd5b611c9a33826135bb565b80601560003373ffffffffffffffffffffffffffffffffffffffff1673ffffffffffffffffffffffffffffffffffffffff1681526020019081526020016000208190555080601181905550601660009054906101000a900473ffffffffffffffffffffffffffffffffffffffff1673ffffffffffffffffffffffffffffffffffffffff166108fc349081150290604051600060405180830381858888f19350505050158015611d4d573d6000803e3d6000fd5b50803373ffffffffffffffffffffffffffffffffffffffff167f4cc0a9c4a99ddc700de1af2c9f916a7cbfdb71f14801ccff94061ad1ef8a804060405160405180910390a3506001601081905550565b6000601354905090565b6000611db360036137af565b905090565b611dc9611dc36134fa565b826137c4565b611e1e576040517f08c379a00000000000000000000000000000000000000000000000000000000081526004018080602001828103825260318152602001806154276031913960400191505060405180910390fd5b611e298383836138b8565b505050565b6000806000838152602001908152602001600020600201549050919050565b606080611ea8600e600086815260200190815260200160002060008573ffffffffffffffffffffffffffffffffffffffff1673ffffffffffffffffffffffffffffffffffffffff168152602001908152602001600020613afb565b67ffffffffffffffff81118015611ebe57600080fd5b50604051908082528060200260200182016040528015611eed5781602001602082028036833780820191505090505b50905060008090505b611f4e600e600087815260200190815260200160002060008673ffffffffffffffffffffffffffffffffffffffff1673ffffffffffffffffffffffffffffffffffffffff168152602001908152602001600020613afb565b811015611fdc57611fb781600e600088815260200190815260200160002060008773ffffffffffffffffffffffffffffffffffffffff1673ffffffffffffffffffffffffffffffffffffffff168152602001908152602001600020613b1090919063ffffffff16565b828281518110611fc357fe5b6020026020010181815250508080600101915050611ef6565b508091505092915050565b61200d600080848152602001908152602001600020600201546120086134fa565b6128e9565b612062576040517f08c379a000000000000000000000000000000000000000000000000000000000815260040180806020018281038252602f8152602001806150ed602f913960400191505060405180910390fd5b61206c8282613b2a565b5050565b60006120c382600260008673ffffffffffffffffffffffffffffffffffffffff1673ffffffffffffffffffffffffffffffffffffffff168152602001908152602001600020613b1090919063ffffffff16565b905092915050565b6120d36134fa565b73ffffffffffffffffffffffffffffffffffffffff168173ffffffffffffffffffffffffffffffffffffffff1614612156576040517f08c379a000000000000000000000000000000000000000000000000000000000815260040180806020018281038252602f8152602001806154eb602f913960400191505060405180910390fd5b6121608282613bbd565b5050565b6121aa60405180807f5041555345525f524f4c45000000000000000000000000000000000000000000815250600b01905060405180910390206121a56134fa565b6128e9565b6121ff576040517f08c379a00000000000000000000000000000000000000000000000000000000081526004018080602001828103825260408152602001806154ab6040913960400191505060405180910390fd5b612207613c50565b565b61224f60405180807f41444d494e5f524f4c4500000000000000000000000000000000000000000000815250600a019050604051809103902061224a6134fa565b6128e9565b6122c1576040517f08c379a00000000000000000000000000000000000000000000000000000000081526004018080602001828103825260208152602001807f556e617574686f72697a656420746f74616c20737570706c792073657474657281525060200191505060405180910390fd5b8060128190555050565b6122e683838360405180602001604052806000815250612b7b565b505050565b6122fc6122f66134fa565b826137c4565b612351576040517f08c379a000000000000000000000000000000000000000000000000000000000815260040180806020018281038252603081526020018061547b6030913960400191505060405180910390fd5b61235a81613d59565b50565b6000601254905090565b60156020528060005260406000206000915090505481565b600080612396836003613e9390919063ffffffff16565b50905080915050919050565b6000600f60009054906101000a900460ff16905090565b6000600b600085815260200190815260200160002060008473ffffffffffffffffffffffffffffffffffffffff1673ffffffffffffffffffffffffffffffffffffffff16815260200190815260200160002060008381526020019081526020016000205490509392505050565b6000612456826040518060600160405280602981526020016152c1602991396003613ec29092919063ffffffff16565b9050919050565b6000601560008373ffffffffffffffffffffffffffffffffffffffff1673ffffffffffffffffffffffffffffffffffffffff168152602001908152602001600020549050919050565b6060600a8054600181600116156101000203166002900480601f01602080910402602001604051908101604052809291908181526020018280546001816001161561010002031660029004801561253e5780601f106125135761010080835404028352916020019161253e565b820191906000526020600020905b81548152906001019060200180831161252157829003601f168201915b5050505050905090565b60008073ffffffffffffffffffffffffffffffffffffffff168273ffffffffffffffffffffffffffffffffffffffff1614156125cf576040517f08c379a000000000000000000000000000000000000000000000000000000000815260040180806020018281038252602a815260200180615297602a913960400191505060405180910390fd5b612616600260008473ffffffffffffffffffffffffffffffffffffffff1673ffffffffffffffffffffffffffffffffffffffff168152602001908152602001600020613afb565b9050919050565b60405180807f41444d494e5f524f4c4500000000000000000000000000000000000000000000815250600a019050604051809103902081565b600060146000838152602001908152602001600020549050919050565b6126b960405180807f5041555345525f524f4c45000000000000000000000000000000000000000000815250600b01905060405180910390206126b46134fa565b6128e9565b61270e576040517f08c379a000000000000000000000000000000000000000000000000000000000815260040180806020018281038252603e8152602001806151a1603e913960400191505060405180910390fd5b612716613ee1565b565b61275e60405180807f41444d494e5f524f4c4500000000000000000000000000000000000000000000815250600a01905060405180910390206127596134fa565b6128e9565b61276757600080fd5b80601381905550807f922c604c5c18f1a1cd96d928a6f0b8c4e17819dbe5d18da3c4ebe664d2c45fca60405160405180910390a250565b6060806127bc600d6000858152602001908152602001600020613feb565b67ffffffffffffffff811180156127d257600080fd5b506040519080825280602002602001820160405280156128015781602001602082028036833780820191505090505b50905060008090505b612825600d6000868152602001908152602001600020613feb565b8110156128a45761285181600d600087815260200190815260200160002061400090919063ffffffff16565b82828151811061285d57fe5b602002602001019073ffffffffffffffffffffffffffffffffffffffff16908173ffffffffffffffffffffffffffffffffffffffff1681525050808060010191505061280a565b5080915050919050565b6000601154905090565b60006128e18260008086815260200190815260200160002060000161400090919063ffffffff16565b905092915050565b60006129128260008086815260200190815260200160002060000161401a90919063ffffffff16565b905092915050565b606060088054600181600116156101000203166002900480601f0160208091040260200160405190810160405280929190818152602001828054600181600116156101000203166002900480156129b25780601f10612987576101008083540402835291602001916129b2565b820191906000526020600020905b81548152906001019060200180831161299557829003601f168201915b5050505050905090565b6000801b81565b6129cb6134fa565b73ffffffffffffffffffffffffffffffffffffffff168273ffffffffffffffffffffffffffffffffffffffff161415612a6c576040517f08c379a00000000000000000000000000000000000000000000000000000000081526004018080602001828103825260198152602001807f4552433732313a20617070726f766520746f2063616c6c65720000000000000081525060200191505060405180910390fd5b8060066000612a796134fa565b73ffffffffffffffffffffffffffffffffffffffff1673ffffffffffffffffffffffffffffffffffffffff16815260200190815260200160002060008473ffffffffffffffffffffffffffffffffffffffff1673ffffffffffffffffffffffffffffffffffffffff16815260200190815260200160002060006101000a81548160ff0219169083151502179055508173ffffffffffffffffffffffffffffffffffffffff16612b266134fa565b73ffffffffffffffffffffffffffffffffffffffff167f17307eab39ab6107e8899845ad3d59bd9653f200f220920489ca2b5937696c3183604051808215151515815260200191505060405180910390a35050565b612b8c612b866134fa565b836137c4565b612be1576040517f08c379a00000000000000000000000000000000000000000000000000000000081526004018080602001828103825260318152602001806154276031913960400191505060405180910390fd5b612bed8484848461404a565b50505050565b60006020825114612c4f576040517f08c379a000000000000000000000000000000000000000000000000000000000815260040180806020018281038252605381526020018061514e6053913960600191505060405180910390fd5b8251845114612ca9576040517f08c379a00000000000000000000000000000000000000000000000000000000081526004018080602001828103825260278152602001806154006027913960400191505060405180910390fd5b612cb986600030888888886140bc565b600080602060003690500390508035915060008090505b8651811015612dac57612d0b8333898481518110612cea57fe5b6020026020010151898581518110612cfe57fe5b6020026020010151614132565b3373ffffffffffffffffffffffffffffffffffffffff16838973ffffffffffffffffffffffffffffffffffffffff167fa18753b0660a8be2cdae03468c860b47c2926433ab16917f323544652803032d8a8581518110612d6757fe5b60200260200101518a8681518110612d7b57fe5b6020026020010151604051808381526020018281526020019250505060405180910390a48080600101915050612cd0565b5063bc197c8160e01b9250505095945050505050565b60135481565b6060612dd3826134dd565b612e28576040517f08c379a000000000000000000000000000000000000000000000000000000000815260040180806020018281038252602f81526020018061538c602f913960400191505060405180910390fd5b6060600960008481526020019081526020016000208054600181600116156101000203166002900480601f016020809104026020016040519081016040528092919081815260200182805460018160011615610100020316600290048015612ed15780601f10612ea657610100808354040283529160200191612ed1565b820191906000526020600020905b815481529060010190602001808311612eb457829003601f168201915b505050505090506000600a8054600181600116156101000203166002900490501415612f0057809150506130ac565b600081511115612fd957600a816040516020018083805460018160011615610100020316600290048015612f6b5780601f10612f49576101008083540402835291820191612f6b565b820191906000526020600020905b815481529060010190602001808311612f57575b505082805190602001908083835b60208310612f9c5780518252602082019150602081019050602083039250612f79565b6001836020036101000a038019825116818451168082178552505050505050905001925050506040516020818303038152906040529150506130ac565b600a612fe4846142c5565b60405160200180838054600181600116156101000203166002900480156130425780601f10613020576101008083540402835291820191613042565b820191906000526020600020905b81548152906001019060200180831161302e575b505082805190602001908083835b602083106130735780518252602082019150602081019050602083039250613050565b6001836020036101000a038019825116818451168082178552505050505050905001925050506040516020818303038152906040529150505b919050565b60006130d0600080848152602001908152602001600020600001613feb565b9050919050565b60405180807f4d494e5445525f524f4c45000000000000000000000000000000000000000000815250600b019050604051809103902081565b613136600080848152602001908152602001600020600201546131316134fa565b6128e9565b61318b576040517f08c379a000000000000000000000000000000000000000000000000000000000815260040180806020018281038252603081526020018061522f6030913960400191505060405180910390fd5b6131958282613bbd565b5050565b60125481565b6131e560405180807f41444d494e5f524f4c4500000000000000000000000000000000000000000000815250600a01905060405180910390206131e06134fa565b6128e9565b613257576040517f08c379a000000000000000000000000000000000000000000000000000000000815260040180806020018281038252601e8152602001807f556e617574686f72697a6564207469657220707269636520736574746572000081525060200191505060405180910390fd5b80601460008481526020019081526020016000208190555080827f0c13cfda0c63d281660989dcc800b83761b1b90295c71a48e623299e92745d3160405160405180910390a35050565b60405180807f5041555345525f524f4c45000000000000000000000000000000000000000000815250600b019050604051809103902081565b6000600660008473ffffffffffffffffffffffffffffffffffffffff1673ffffffffffffffffffffffffffffffffffffffff16815260200190815260200160002060008373ffffffffffffffffffffffffffffffffffffffff1673ffffffffffffffffffffffffffffffffffffffff16815260200190815260200160002060009054906101000a900460ff16905092915050565b600080600090506000600190505b6012548110156133b65760016133938686846123b9565b14156133a4576001820191506133a9565b6133b6565b808060010191505061337c565b508091505092915050565b6000602082511461341d576040517f08c379a000000000000000000000000000000000000000000000000000000000815260040180806020018281038252605381526020018061514e6053913960600191505060405180910390fd5b61343d866000308861342e8961440c565b6134378961440c565b886140bc565b600080602060003690500390508035915061345a82338888614132565b3373ffffffffffffffffffffffffffffffffffffffff16828873ffffffffffffffffffffffffffffffffffffffff167fa18753b0660a8be2cdae03468c860b47c2926433ab16917f323544652803032d8989604051808381526020018281526020019250505060405180910390a463f23a6e6160e01b9250505095945050505050565b60006134f382600361447c90919063ffffffff16565b9050919050565b600033905090565b816005600083815260200190815260200160002060006101000a81548173ffffffffffffffffffffffffffffffffffffffff021916908373ffffffffffffffffffffffffffffffffffffffff160217905550808273ffffffffffffffffffffffffffffffffffffffff1661357583612426565b73ffffffffffffffffffffffffffffffffffffffff167f8c5be1e5ebec7d5bd14f71427d1e84f3dd0314c0f7b2291e5b200ac8c7c3b92560405160405180910390a45050565b600073ffffffffffffffffffffffffffffffffffffffff168273ffffffffffffffffffffffffffffffffffffffff16141561365e576040517f08c379a00000000000000000000000000000000000000000000000000000000081526004018080602001828103825260208152602001807f4552433732313a206d696e7420746f20746865207a65726f206164647265737381525060200191505060405180910390fd5b613667816134dd565b156136da576040517f08c379a000000000000000000000000000000000000000000000000000000000815260040180806020018281038252601c8152602001807f4552433732313a20746f6b656e20616c7265616479206d696e7465640000000081525060200191505060405180910390fd5b6136e660008383614496565b61373781600260008573ffffffffffffffffffffffffffffffffffffffff1673ffffffffffffffffffffffffffffffffffffffff16815260200190815260200160002061450490919063ffffffff16565b5061374e8183600361451e9092919063ffffffff16565b50808273ffffffffffffffffffffffffffffffffffffffff16600073ffffffffffffffffffffffffffffffffffffffff167fddf252ad1be2c89b69c2b068fc378daa952ba7f163c4a11628f55a4df523b3ef60405160405180910390a45050565b60006137bd82600001614553565b9050919050565b60006137cf826134dd565b613824576040517f08c379a000000000000000000000000000000000000000000000000000000000815260040180806020018281038252602c815260200180615203602c913960400191505060405180910390fd5b600061382f83612426565b90508073ffffffffffffffffffffffffffffffffffffffff168473ffffffffffffffffffffffffffffffffffffffff16148061389e57508373ffffffffffffffffffffffffffffffffffffffff16613886846118f3565b73ffffffffffffffffffffffffffffffffffffffff16145b806138af57506138ae81856132da565b5b91505092915050565b8273ffffffffffffffffffffffffffffffffffffffff166138d882612426565b73ffffffffffffffffffffffffffffffffffffffff1614613944576040517f08c379a00000000000000000000000000000000000000000000000000000000081526004018080602001828103825260298152602001806153636029913960400191505060405180910390fd5b600073ffffffffffffffffffffffffffffffffffffffff168273ffffffffffffffffffffffffffffffffffffffff1614156139ca576040517f08c379a00000000000000000000000000000000000000000000000000000000081526004018080602001828103825260248152602001806151df6024913960400191505060405180910390fd5b6139d5838383614496565b6139e0600082613502565b613a3181600260008673ffffffffffffffffffffffffffffffffffffffff1673ffffffffffffffffffffffffffffffffffffffff16815260200190815260200160002061456490919063ffffffff16565b50613a8381600260008573ffffffffffffffffffffffffffffffffffffffff1673ffffffffffffffffffffffffffffffffffffffff16815260200190815260200160002061450490919063ffffffff16565b50613a9a8183600361451e9092919063ffffffff16565b50808273ffffffffffffffffffffffffffffffffffffffff168473ffffffffffffffffffffffffffffffffffffffff167fddf252ad1be2c89b69c2b068fc378daa952ba7f163c4a11628f55a4df523b3ef60405160405180910390a4505050565b6000613b098260000161457e565b9050919050565b6000613b1f836000018361458f565b60001c905092915050565b613b518160008085815260200190815260200160002060000161461290919063ffffffff16565b15613bb957613b5e6134fa565b73ffffffffffffffffffffffffffffffffffffffff168173ffffffffffffffffffffffffffffffffffffffff16837f2f8788117e7eff1d82e926ec794901d17c78024a50270940304540a733656f0d60405160405180910390a45b5050565b613be48160008085815260200190815260200160002060000161464290919063ffffffff16565b15613c4c57613bf16134fa565b73ffffffffffffffffffffffffffffffffffffffff168173ffffffffffffffffffffffffffffffffffffffff16837ff6391f5c32d9c69d2a47ea670b442974b53935d1edc7fd64eb21e047a839171b60405160405180910390a45b5050565b600f60009054906101000a900460ff16613cd2576040517f08c379a00000000000000000000000000000000000000000000000000000000081526004018080602001828103825260148152602001807f5061757361626c653a206e6f742070617573656400000000000000000000000081525060200191505060405180910390fd5b6000600f60006101000a81548160ff0219169083151502179055507f5db9ee0a495bf2e6ff9c91a7834c1ba4fdd244a5e8aa4e537bd38aeae4b073aa613d166134fa565b604051808273ffffffffffffffffffffffffffffffffffffffff1673ffffffffffffffffffffffffffffffffffffffff16815260200191505060405180910390a1565b6000613d6482612426565b9050613d7281600084614496565b613d7d600083613502565b60006009600084815260200190815260200160002080546001816001161561010002031660029004905014613dcc57600960008381526020019081526020016000206000613dcb9190615032565b5b613e1d82600260008473ffffffffffffffffffffffffffffffffffffffff1673ffffffffffffffffffffffffffffffffffffffff16815260200190815260200160002061456490919063ffffffff16565b50613e3282600361467290919063ffffffff16565b5081600073ffffffffffffffffffffffffffffffffffffffff168273ffffffffffffffffffffffffffffffffffffffff167fddf252ad1be2c89b69c2b068fc378daa952ba7f163c4a11628f55a4df523b3ef60405160405180910390a45050565b600080600080613ea6866000018661468c565b915091508160001c8160001c8090509350935050509250929050565b6000613ed5846000018460001b84614725565b60001c90509392505050565b600f60009054906101000a900460ff1615613f64576040517f08c379a00000000000000000000000000000000000000000000000000000000081526004018080602001828103825260108152602001807f5061757361626c653a207061757365640000000000000000000000000000000081525060200191505060405180910390fd5b6001600f60006101000a81548160ff0219169083151502179055507f62e78cea01bee320cd4e420270b5ea74000d11b0c9f74754ebdbfc544b05a258613fa86134fa565b604051808273ffffffffffffffffffffffffffffffffffffffff1673ffffffffffffffffffffffffffffffffffffffff16815260200191505060405180910390a1565b6000613ff98260000161457e565b9050919050565b600061400f836000018361458f565b60001c905092915050565b6000614042836000018373ffffffffffffffffffffffffffffffffffffffff1660001b61481b565b905092915050565b6140558484846138b8565b6140618484848461483e565b6140b6576040517f08c379a000000000000000000000000000000000000000000000000000000000815260040180806020018281038252603281526020018061511c6032913960400191505060405180910390fd5b50505050565b6140c46123a2565b1561411a576040517f08c379a000000000000000000000000000000000000000000000000000000000815260040180806020018281038252602b815260200180615338602b913960400191505060405180910390fd5b61412987878787878787614a83565b50505050505050565b61415783600d600087815260200190815260200160002061401a90919063ffffffff16565b6141825761418083600d600087815260200190815260200160002061461290919063ffffffff16565b505b6000600b600086815260200190815260200160002060008573ffffffffffffffffffffffffffffffffffffffff1673ffffffffffffffffffffffffffffffffffffffff16815260200190815260200160002060008481526020019081526020016000205414156142505761424e82600e600085815260200190815260200160002060008673ffffffffffffffffffffffffffffffffffffffff1673ffffffffffffffffffffffffffffffffffffffff16815260200190815260200160002061450490919063ffffffff16565b505b80600b600086815260200190815260200160002060008573ffffffffffffffffffffffffffffffffffffffff1673ffffffffffffffffffffffffffffffffffffffff16815260200190815260200160002060008481526020019081526020016000206000828254019250508190555050505050565b6060600082141561430d576040518060400160405280600181526020017f30000000000000000000000000000000000000000000000000000000000000008152509050614407565b600082905060005b60008214614337578080600101915050600a828161432f57fe5b049150614315565b60608167ffffffffffffffff8111801561435057600080fd5b506040519080825280601f01601f1916602001820160405280156143835781602001600182028036833780820191505090505b50905060006001830390508593505b600084146143ff57600a84816143a457fe5b0660300160f81b828280600190039350815181106143be57fe5b60200101907effffffffffffffffffffffffffffffffffffffffffffffffffffffffffffff1916908160001a905350600a84816143f757fe5b049350614392565b819450505050505b919050565b606080600167ffffffffffffffff8111801561442757600080fd5b506040519080825280602002602001820160405280156144565781602001602082028036833780820191505090505b509050828160008151811061446757fe5b60200260200101818152505080915050919050565b600061448e836000018360001b614a8c565b905092915050565b61449e6123a2565b156144f4576040517f08c379a000000000000000000000000000000000000000000000000000000000815260040180806020018281038252602b8152602001806150c2602b913960400191505060405180910390fd5b6144ff838383614aaf565b505050565b6000614516836000018360001b614ab4565b905092915050565b600061454a846000018460001b8473ffffffffffffffffffffffffffffffffffffffff1660001b614b24565b90509392505050565b600081600001805490509050919050565b6000614576836000018360001b614c00565b905092915050565b600081600001805490509050919050565b6000818360000180549050116145f0576040517f08c379a00000000000000000000000000000000000000000000000000000000081526004018080602001828103825260228152602001806150a06022913960400191505060405180910390fd5b8260000182815481106145ff57fe5b9060005260206000200154905092915050565b600061463a836000018373ffffffffffffffffffffffffffffffffffffffff1660001b614ab4565b905092915050565b600061466a836000018373ffffffffffffffffffffffffffffffffffffffff1660001b614c00565b905092915050565b6000614684836000018360001b614ce8565b905092915050565b600080828460000180549050116146ee576040517f08c379a00000000000000000000000000000000000000000000000000000000081526004018080602001828103825260228152602001806152ea6022913960400191505060405180910390fd5b60008460000184815481106146ff57fe5b906000526020600020906002020190508060000154816001015492509250509250929050565b600080846001016000858152602001908152602001600020549050600081141583906147ec576040517f08c379a00000000000000000000000000000000000000000000000000000000081526004018080602001828103825283818151815260200191508051906020019080838360005b838110156147b1578082015181840152602081019050614796565b50505050905090810190601f1680156147de5780820380516001836020036101000a031916815260200191505b509250505060405180910390fd5b508460000160018203815481106147ff57fe5b9060005260206000209060020201600101549150509392505050565b600080836001016000848152602001908152602001600020541415905092915050565b600061485f8473ffffffffffffffffffffffffffffffffffffffff16614e01565b61486c5760019050614a7b565b6060614a0263150b7a0260e01b6148816134fa565b888787604051602401808573ffffffffffffffffffffffffffffffffffffffff1673ffffffffffffffffffffffffffffffffffffffff1681526020018473ffffffffffffffffffffffffffffffffffffffff1673ffffffffffffffffffffffffffffffffffffffff16815260200183815260200180602001828103825283818151815260200191508051906020019080838360005b83811015614931578082015181840152602081019050614916565b50505050905090810190601f16801561495e5780820380516001836020036101000a031916815260200191505b5095505050505050604051602081830303815290604052907bffffffffffffffffffffffffffffffffffffffffffffffffffffffff19166020820180517bffffffffffffffffffffffffffffffffffffffffffffffffffffffff838183161783525050505060405180606001604052806032815260200161511c603291398773ffffffffffffffffffffffffffffffffffffffff16614e149092919063ffffffff16565b90506000818060200190516020811015614a1b57600080fd5b8101908080519060200190929190505050905063150b7a0260e01b7bffffffffffffffffffffffffffffffffffffffffffffffffffffffff1916817bffffffffffffffffffffffffffffffffffffffffffffffffffffffff191614925050505b949350505050565b50505050505050565b600080836001016000848152602001908152602001600020541415905092915050565b505050565b6000614ac0838361481b565b614b19578260000182908060018154018082558091505060019003906000526020600020016000909190919091505582600001805490508360010160008481526020019081526020016000208190555060019050614b1e565b600090505b92915050565b6000808460010160008581526020019081526020016000205490506000811415614bcb57846000016040518060400160405280868152602001858152509080600181540180825580915050600190039060005260206000209060020201600090919091909150600082015181600001556020820151816001015550508460000180549050856001016000868152602001908152602001600020819055506001915050614bf9565b82856000016001830381548110614bde57fe5b90600052602060002090600202016001018190555060009150505b9392505050565b60008083600101600084815260200190815260200160002054905060008114614cdc5760006001820390506000600186600001805490500390506000866000018281548110614c4b57fe5b9060005260206000200154905080876000018481548110614c6857fe5b9060005260206000200181905550600183018760010160008381526020019081526020016000208190555086600001805480614ca057fe5b60019003818190600052602060002001600090559055866001016000878152602001908152602001600020600090556001945050505050614ce2565b60009150505b92915050565b60008083600101600084815260200190815260200160002054905060008114614df55760006001820390506000600186600001805490500390506000866000018281548110614d3357fe5b9060005260206000209060020201905080876000018481548110614d5357fe5b9060005260206000209060020201600082015481600001556001820154816001015590505060018301876001016000836000015481526020019081526020016000208190555086600001805480614da657fe5b6001900381819060005260206000209060020201600080820160009055600182016000905550509055866001016000878152602001908152602001600020600090556001945050505050614dfb565b60009150505b92915050565b600080823b905060008111915050919050565b6060614e238484600085614e2c565b90509392505050565b6060614e3785614e01565b614ea9576040517f08c379a000000000000000000000000000000000000000000000000000000000815260040180806020018281038252601d8152602001807f416464726573733a2063616c6c20746f206e6f6e2d636f6e747261637400000081525060200191505060405180910390fd5b600060608673ffffffffffffffffffffffffffffffffffffffff1685876040518082805190602001908083835b60208310614ef95780518252602082019150602081019050602083039250614ed6565b6001836020036101000a03801982511681845116808217855250505050505090500191505060006040518083038185875af1925050503d8060008114614f5b576040519150601f19603f3d011682016040523d82523d6000602084013e614f60565b606091505b50915091508115614f7557809250505061502a565b600081511115614f885780518082602001fd5b836040517f08c379a00000000000000000000000000000000000000000000000000000000081526004018080602001828103825283818151815260200191508051906020019080838360005b83811015614fef578082015181840152602081019050614fd4565b50505050905090810190601f16801561501c5780820380516001836020036101000a031916815260200191505b509250505060405180910390fd5b949350505050565b50805460018160011615610100020316600290046000825580601f106150585750615077565b601f016020900490600052602060002090810190615076919061507a565b5b50565b61509c91905b80821115615098576000816000905550600101615080565b5090565b9056fe456e756d657261626c655365743a20696e646578206f7574206f6620626f756e64734552433732315061757361626c653a20746f6b656e207472616e73666572207768696c6520706175736564416363657373436f6e74726f6c3a2073656e646572206d75737420626520616e2061646d696e20746f206772616e744552433732313a207472616e7366657220746f206e6f6e20455243373231526563656976657220696d706c656d656e7465724552433939383a2064617461206d75737420636f6e7461696e2074686520756e697175652075696e7432353620746f6b656e496420746f207472616e7366657220746865206368696c6420746f6b656e20746f4552433732315072657365744d696e7465725061757365724175746f49643a206d75737420686176652070617573657220726f6c6520746f2070617573654552433732313a207472616e7366657220746f20746865207a65726f20616464726573734552433732313a206f70657261746f7220717565727920666f72206e6f6e6578697374656e7420746f6b656e416363657373436f6e74726f6c3a2073656e646572206d75737420626520616e2061646d696e20746f207265766f6b654552433732313a20617070726f76652063616c6c6572206973206e6f74206f776e6572206e6f7220617070726f76656420666f7220616c6c4552433732313a2062616c616e636520717565727920666f7220746865207a65726f20616464726573734552433732313a206f776e657220717565727920666f72206e6f6e6578697374656e7420746f6b656e456e756d657261626c654d61703a20696e646578206f7574206f6620626f756e64734552433732313a20617070726f76656420717565727920666f72206e6f6e6578697374656e7420746f6b656e4552433939385061757361626c653a206368696c64207472616e73666572207768696c65207061757365644552433732313a207472616e73666572206f6620746f6b656e2074686174206973206e6f74206f776e4552433732314d657461646174613a2055524920717565727920666f72206e6f6e6578697374656e7420746f6b656e4552433732313a206d696e74696e6720776f756c64206361757365206f766572666c6f774552433732313a20617070726f76616c20746f2063757272656e74206f776e6572455243313135353a2069647320616e642076616c756573206c656e677468206d69736d617463684552433732313a207472616e736665722063616c6c6572206973206e6f74206f776e6572206e6f7220617070726f7665644552433732313a2063616e6e6f74206f776e2073616d6520746f6b656e2074776963654552433732314275726e61626c653a2063616c6c6572206973206e6f74206f776e6572206e6f7220617070726f7665644552433732315072657365744d696e7465725061757365724175746f49643a206d75737420686176652070617573657220726f6c6520746f20756e7061757365416363657373436f6e74726f6c3a2063616e206f6e6c792072656e6f756e636520726f6c657320666f722073656c66a264697066735822122042d4d946604669a037a3233bd4b95058386f9c546eb9c6469fa6ec837a5f737f64736f6c63430006060033",
  "immutableReferences": {},
  "source": "// SPDX-License-Identifier: MIT\n\npragma solidity ^0.6.0;\nimport \"@openzeppelin/contracts/access/AccessControl.sol\";\nimport \"@openzeppelin/contracts/GSN/Context.sol\";\nimport \"@openzeppelin/contracts/utils/Pausable.sol\";\nimport \"@openzeppelin/contracts/utils/ReentrancyGuard.sol\";\nimport \"./ERC1155TopDown.sol\";\n\n/**\n * @title ComposableParentERC721\n *\n * @author respect-club\n *\n * @notice Level-based Social NFTs, incentivizing fans through un-lockable perks & engagement.\n *\n */\n\n/**\n * @dev {ERC998} token, including:\n *\n *  - ability for holders to burn (destroy) their tokens\n *  - a minter role that allows for token minting (creation)\n *  - a pauser role that allows to stop all token transfers\n *\n * This contract uses {AccessControl} to lock permissioned functions using the\n * different roles - head to its documentation for details.\n *\n * {DEFAULT_ADMIN_ROLE , ADMIN_ROLE , MINTER_ROLE , PAUSER_ROLE}\n *\n *\n * The account that deploys the contract will be granted the minter and pauser\n * roles, as well as the default admin role, which will let it grant both minter\n * and pauser roles to other accounts.\n */\n\ncontract ComposableParentERC721 is\n    Context,\n    AccessControl,\n    ERC1155TopDown,\n    Pausable,\n    ReentrancyGuard\n{\n    // EVENTS\n    event NFTMinted(address indexed NFTowner, uint256 indexed tokenId);\n    event NFTMintPriceUpdated(uint256 indexed price);\n    event TierUpgradePriceUpdated(\n        uint256 indexed tierId,\n        uint256 indexed price\n    );\n    event MaxSupplyUpdated(uint256 _value);\n\n    using SafeMath for uint256;\n\n    uint256 composableCount;\n\n    uint256 public maxSupply = 100;\n    uint256 public mintCost = 2 ether;\n\n    bytes32 public constant MINTER_ROLE = keccak256(\"MINTER_ROLE\");\n    bytes32 public constant PAUSER_ROLE = keccak256(\"PAUSER_ROLE\");\n    bytes32 public constant ADMIN_ROLE = keccak256(\"ADMIN_ROLE\");\n\n    mapping(uint256 => uint256) tierIdtoUpgradeCost;\n    mapping(address => uint256) public ownerToComposableId;\n\n    address payable owner;\n\n    /**\n     * @dev Grants `DEFAULT_ADMIN_ROLE`, `MINTER_ROLE` and `PAUSER_ROLE` to the\n     * account that deploys the contract.\n     *\n     * Token URIs will be autogenerated based on `baseURI` and their token IDs.\n     * See {ERC721-tokenURI}.\n     */\n    constructor(\n        string memory name,\n        string memory symbol,\n        string memory baseURI,\n        uint256 firstUpgradeEngagementPoints // at 115 tierId 0\n    ) public ERC1155TopDown(name, symbol, baseURI) {\n        _setupRole(ADMIN_ROLE, _msgSender());\n        _setupRole(MINTER_ROLE, _msgSender());\n        _setupRole(PAUSER_ROLE, _msgSender());\n\n        owner = payable(msg.sender);\n        composableCount = 0;\n        tierIdtoUpgradeCost[1] = firstUpgradeEngagementPoints;\n    }\n\n    //PUBLIC GETTERS\n\n    /**\n     * @notice Fetches composable Id for an owner\n     *\n     * @param _owner composable NFT owner\n     *\n     */\n    function getComposableId(address _owner) public view returns (uint256) {\n        return ownerToComposableId[_owner];\n    }\n\n    /**\n     * @notice Fetches total number of minted snft\n     *\n     *\n     * @return uint256\n     */\n    function getComposableCount() public view returns (uint256) {\n        return composableCount;\n    }\n\n    /**\n     * @notice Fetches max supply of snft\n     *\n     * @return uint256 maxSupply\n     *\n     */\n\n    function getMaxSupply() public view returns (uint256) {\n        return maxSupply;\n    }\n\n    /**\n     * @notice Fetches cost of minting snft of the creator\n     *\n     * @return uint256 mintCost\n     *\n     */\n\n    function getMintCost() public view returns (uint256) {\n        return mintCost;\n    }\n\n    /**\n     * @notice Fetches amount of engagement points req to upgrade to tier(_tierId)\n     *\n     * @param _tierId tierId\n     *\n     * @return uint _cost\n     *\n     */\n    function getTierUpgradeCost(uint256 _tierId) public view returns (uint256) {\n        return tierIdtoUpgradeCost[_tierId];\n    }\n\n    /**\n     * @notice Fetches current level of an snft\n     *\n     * @param _composableId composableId\n     *\n     * @param _childContract address of linked ComposableChildrenERC1155 contract\n     *\n     * @return uint cost\n     *\n     */\n    function getLevel(uint256 _composableId, address _childContract)\n        public\n        view\n        returns (uint256)\n    {\n        uint256 count = 0;\n        for (uint256 i = 1; i < maxSupply; i++) {\n            if (childBalance(_composableId, _childContract, i) == 1) {\n                count += 1;\n            } else {\n                break;\n            }\n        }\n        return count;\n    }\n\n    //PUBLIC SETTERS\n\n    /**\n     * @notice Sets Max limit of minting SNFT\n     *\n     * @dev ADMIN_ROLE\n     *\n     * @param _value new max supply value\n     *\n     *\n     */\n\n    function changeMaxSupply(uint256 _value) public {\n        require(\n            hasRole(ADMIN_ROLE, _msgSender()),\n            \"Unauthorized total supply setter\"\n        );\n        maxSupply = _value;\n    }\n\n    /**\n     *@dev 1-tierPrice1 for first upgrade L0 to L1 ,2-tierPrice2\n     *\n     *@notice  set tier upgrade price\n        maxSupply = _value;\n        emit MaxSupplyUpdated(_value);\n    }\n\n    /**\n     * @notice  Sets Tier upgrade price, indexed from 1.\n     *\n     * @dev ADMIN_ROLE\n     *\n     */\n\n    function setTierUpgradeCost(uint256 _tierId, uint256 _cost) public {\n        require(\n            hasRole(ADMIN_ROLE, _msgSender()),\n            \"Unauthorized tier price setter\"\n        );\n\n        tierIdtoUpgradeCost[_tierId] = _cost;\n        emit TierUpgradePriceUpdated(_tierId, _cost);\n    }\n\n    /**\n     * @notice Set cost of minting snft.\n     *\n     * @dev ADMIN_ROLE\n     *\n     * @param _cost minting cost ether/matic\n     *\n     */\n    function setMintCost(uint256 _cost) public {\n        require(hasRole(ADMIN_ROLE, _msgSender()));\n        mintCost = _cost;\n        emit NFTMintPriceUpdated(_cost);\n    }\n\n    // CORE\n\n    /**\n     * @dev Creates a new token for `to`. The token URI autogenerated based on\n     * the base URI passed at construction and the token ID.\n     *\n     * See {ERC721-_mint}.\n     *\n     * Requirements:\n     *\n     * - the caller must have the `MINTER_ROLE`.\n     */\n\n    // >one account can only mint one snft\n    // We cannot just use balanceOf to create the new tokenId because tokens\n    // can be burned (destroyed), so we need a separate counter.\n\n    function mint() public payable virtual nonReentrant {\n        require(msg.value == mintCost, \"ERC721: must pay the mint cost\");\n\n        require(\n            balanceOf(msg.sender) == 0,\n            \"ERC721: cannot own same token twice\"\n        );\n\n        uint256 tokenId = composableCount + 1; //totalSupply()\n\n        require(tokenId <= maxSupply, \"ERC721: minting would cause overflow\");\n\n        _mint(msg.sender, tokenId);\n        ownerToComposableId[msg.sender] = tokenId;\n        composableCount = tokenId;\n        payable(owner).transfer(msg.value);\n\n        emit NFTMinted(msg.sender, tokenId);\n    }\n\n    /**\n     * @dev Burns `tokenId`. See {ERC721-_burn}.\n     *\n     * Requirements:\n     *\n     * - The caller must own `tokenId` or be an approved operator.\n     */\n    function burn(uint256 tokenId) public virtual {\n        //solhint-disable-next-line max-line-length\n        require(\n            _isApprovedOrOwner(_msgSender(), tokenId),\n            \"ERC721Burnable: caller is not owner nor approved\"\n        );\n        _burn(tokenId);\n    }\n\n    /**\n     * @dev Pauses all token transfers.\n     *\n     * See {ERC721Pausable} and {Pausable-_pause}.\n     *\n     * Requirements:\n     *\n     * - the caller must have the `PAUSER_ROLE`.\n     */\n    function pause() public virtual {\n        require(\n            hasRole(PAUSER_ROLE, _msgSender()),\n            \"ERC721PresetMinterPauserAutoId: must have pauser role to pause\"\n        );\n        _pause();\n    }\n\n    /**\n     * @dev Unpauses all token transfers.\n     *\n     * See {ERC721Pausable} and {Pausable-_unpause}.\n     *\n     * Requirements:\n     *\n     * - the caller must have the `PAUSER_ROLE`.\n     */\n    function unpause() public virtual {\n        require(\n            hasRole(PAUSER_ROLE, _msgSender()),\n            \"ERC721PresetMinterPauserAutoId: must have pauser role to unpause\"\n        );\n        _unpause();\n    }\n\n    /**\n     * @dev See {ERC721-_beforeTokenTransfer}.\n     *\n     * Requirements:\n     *\n     * - the contract must not be paused.\n     */\n    function _beforeTokenTransfer(\n        address from,\n        address to,\n        uint256 tokenId\n    ) internal virtual override {\n        require(!paused(), \"ERC721Pausable: token transfer while paused\");\n\n        super._beforeTokenTransfer(from, to, tokenId);\n    }\n\n    function _beforeChildTransfer(\n        address operator,\n        uint256 fromTokenId,\n        address to,\n        address childContract,\n        uint256[] memory ids,\n        uint256[] memory amounts,\n        bytes memory data\n    ) internal virtual override {\n        require(!paused(), \"ERC998Pausable: child transfer while paused\");\n\n        super._beforeChildTransfer(\n            operator,\n            fromTokenId,\n            to,\n            childContract,\n            ids,\n            amounts,\n            data\n        );\n    }\n}\n",
  "sourcePath": "/home/waverune/respct-club/ERC998ERC1155/contracts/ComposableParentERC721.sol",
  "compiler": {
    "name": "solc",
    "version": "0.6.6+commit.6c089d02.Emscripten.clang"
  },
  "schemaVersion": "3.4.1",
  "updatedAt": "2022-04-13T09:41:10.557Z",
  "devdoc": {
    "details": "{ERC998} token, including: *  - ability for holders to burn (destroy) their tokens - a minter role that allows for token minting (creation) - a pauser role that allows to stop all token transfers * This contract uses {AccessControl} to lock permissioned functions using the different roles - head to its documentation for details. * {DEFAULT_ADMIN_ROLE , ADMIN_ROLE , MINTER_ROLE , PAUSER_ROLE} * The account that deploys the contract will be granted the minter and pauser roles, as well as the default admin role, which will let it grant both minter and pauser roles to other accounts.",
    "methods": {
      "approve(address,uint256)": {
        "details": "See {IERC721-approve}."
      },
      "balanceOf(address)": {
        "details": "See {IERC721-balanceOf}."
      },
      "baseURI()": {
        "details": "Returns the base URI set via {_setBaseURI}. This will be automatically added as a prefix in {tokenURI} to each token's URI, or to the token ID if no specific URI is set for that token ID."
      },
      "burn(uint256)": {
        "details": "Burns `tokenId`. See {ERC721-_burn}.     * Requirements:     * - The caller must own `tokenId` or be an approved operator."
      },
      "changeMaxSupply(uint256)": {
        "details": "ADMIN_ROLE",
        "params": {
          "_value": "new max supply value     *"
        }
      },
      "childBalance(uint256,address,uint256)": {
        "details": "Gives child balance for a specific child contract and child id .",
        "params": {
          "childContract": "1155tier upgrade contract",
          "composableId": ", composable ID",
          "tierId": "tier level"
        },
        "returns": {
          "_0": "uint tier"
        }
      },
      "childContractsFor(uint256)": {
        "details": "Gives list of child contract where token ID has childs."
      },
      "childIdsForOn(uint256,address)": {
        "details": "Gives list of owned child ID on a child contract by token ID."
      },
      "constructor": {
        "details": "Grants `DEFAULT_ADMIN_ROLE`, `MINTER_ROLE` and `PAUSER_ROLE` to the account that deploys the contract.     * Token URIs will be autogenerated based on `baseURI` and their token IDs. See {ERC721-tokenURI}."
      },
      "getApproved(uint256)": {
        "details": "See {IERC721-getApproved}."
      },
      "getComposableId(address)": {
        "params": {
          "_owner": "composable NFT owner     "
        }
      },
      "getLevel(uint256,address)": {
        "params": {
          "_childContract": "address of linked ComposableChildrenERC1155 contract",
          "_composableId": "composableId"
        },
        "returns": {
          "_0": "uint cost     "
        }
      },
      "getRoleAdmin(bytes32)": {
        "details": "Returns the admin role that controls `role`. See {grantRole} and {revokeRole}.     * To change a role's admin, use {_setRoleAdmin}."
      },
      "getRoleMember(bytes32,uint256)": {
        "details": "Returns one of the accounts that have `role`. `index` must be a value between 0 and {getRoleMemberCount}, non-inclusive.     * Role bearers are not sorted in any particular way, and their ordering may change at any point.     * WARNING: When using {getRoleMember} and {getRoleMemberCount}, make sure you perform all queries on the same block. See the following https://forum.openzeppelin.com/t/iterating-over-elements-on-enumerableset-in-openzeppelin-contracts/2296[forum post] for more information."
      },
      "getRoleMemberCount(bytes32)": {
        "details": "Returns the number of accounts that have `role`. Can be used together with {getRoleMember} to enumerate all bearers of a role."
      },
      "getTierUpgradeCost(uint256)": {
        "params": {
          "_tierId": "tierId"
        },
        "returns": {
          "_0": "uint _cost     "
        }
      },
      "grantRole(bytes32,address)": {
        "details": "Grants `role` to `account`.     * If `account` had not been already granted `role`, emits a {RoleGranted} event.     * Requirements:     * - the caller must have ``role``'s admin role."
      },
      "hasRole(bytes32,address)": {
        "details": "Returns `true` if `account` has been granted `role`."
      },
      "isApprovedForAll(address,address)": {
        "details": "See {IERC721-isApprovedForAll}."
      },
      "mint()": {
        "details": "Creates a new token for `to`. The token URI autogenerated based on the base URI passed at construction and the token ID.     * See {ERC721-_mint}.     * Requirements:     * - the caller must have the `MINTER_ROLE`."
      },
      "name()": {
        "details": "See {IERC721Metadata-name}."
      },
      "onERC1155BatchReceived(address,address,uint256[],uint256[],bytes)": {
        "details": "Receives a batch of child tokens, the receiver token ID must be encoded in the field data."
      },
      "ownerOf(uint256)": {
        "details": "See {IERC721-ownerOf}."
      },
      "pause()": {
        "details": "Pauses all token transfers.     * See {ERC721Pausable} and {Pausable-_pause}.     * Requirements:     * - the caller must have the `PAUSER_ROLE`."
      },
      "paused()": {
        "details": "Returns true if the contract is paused, and false otherwise."
      },
      "renounceRole(bytes32,address)": {
        "details": "Revokes `role` from the calling account.     * Roles are often managed via {grantRole} and {revokeRole}: this function's purpose is to provide a mechanism for accounts to lose their privileges if they are compromised (such as when a trusted device is misplaced).     * If the calling account had been granted `role`, emits a {RoleRevoked} event.     * Requirements:     * - the caller must be `account`."
      },
      "revokeRole(bytes32,address)": {
        "details": "Revokes `role` from `account`.     * If `account` had been granted `role`, emits a {RoleRevoked} event.     * Requirements:     * - the caller must have ``role``'s admin role."
      },
      "safeTransferFrom(address,address,uint256)": {
        "details": "See {IERC721-safeTransferFrom}."
      },
      "safeTransferFrom(address,address,uint256,bytes)": {
        "details": "See {IERC721-safeTransferFrom}."
      },
      "setApprovalForAll(address,bool)": {
        "details": "See {IERC721-setApprovalForAll}."
      },
      "setMintCost(uint256)": {
        "details": "ADMIN_ROLE",
        "params": {
          "_cost": "minting cost ether/matic     "
        }
      },
      "setTierUpgradeCost(uint256,uint256)": {
        "details": "ADMIN_ROLE     "
      },
      "supportsInterface(bytes4)": {
        "details": "See {IERC165-supportsInterface}.     * Time complexity O(1), guaranteed to always use less than 30 000 gas."
      },
      "symbol()": {
        "details": "See {IERC721Metadata-symbol}."
      },
      "tokenByIndex(uint256)": {
        "details": "See {IERC721Enumerable-tokenByIndex}."
      },
      "tokenOfOwnerByIndex(address,uint256)": {
        "details": "See {IERC721Enumerable-tokenOfOwnerByIndex}."
      },
      "tokenURI(uint256)": {
        "details": "See {IERC721Metadata-tokenURI}."
      },
      "totalSupply()": {
        "details": "See {IERC721Enumerable-totalSupply}."
      },
      "transferFrom(address,address,uint256)": {
        "details": "See {IERC721-transferFrom}."
      },
      "unpause()": {
        "details": "Unpauses all token transfers.     * See {ERC721Pausable} and {Pausable-_unpause}.     * Requirements:     * - the caller must have the `PAUSER_ROLE`."
      }
    }
  },
  "userdoc": {
    "methods": {
      "changeMaxSupply(uint256)": {
        "notice": "Sets Max limit of minting SNFT"
      },
      "childBalance(uint256,address,uint256)": {
        "notice": "tier level for a composable     *"
      },
      "childContractsFor(uint256)": {
        "notice": "*"
      },
      "getComposableCount()": {
        "notice": "Fetches total number of minted snft     *"
      },
      "getComposableId(address)": {
        "notice": "Fetches composable Id for an owner"
      },
      "getLevel(uint256,address)": {
        "notice": "Fetches current level of an snft"
      },
      "getMaxSupply()": {
        "notice": "Fetches max supply of snft"
      },
      "getMintCost()": {
        "notice": "Fetches cost of minting snft of the creator"
      },
      "getTierUpgradeCost(uint256)": {
        "notice": "Fetches amount of engagement points req to upgrade to tier(_tierId)"
      },
      "setMintCost(uint256)": {
        "notice": "Set cost of minting snft."
      },
      "setTierUpgradeCost(uint256,uint256)": {
        "notice": "dev 1-tierPrice1 for first upgrade L0 to L1 ,2-tierPrice2set tier upgrade price maxSupply = _value; emit MaxSupplyUpdated(_value); } /**Sets Tier upgrade price, indexed from 1."
      }
    }
  }
}