{
  "contractName": "ComposableParentERC721",
  "abi": [
    {
      "inputs": [
        {
          "internalType": "string",
          "name": "name",
          "type": "string"
        },
        {
          "internalType": "string",
          "name": "symbol",
          "type": "string"
        },
        {
          "internalType": "string",
          "name": "baseURI",
          "type": "string"
        },
        {
          "internalType": "uint256",
          "name": "firstUpgradeEngagementPoints",
          "type": "uint256"
        }
      ],
      "stateMutability": "nonpayable",
      "type": "constructor"
    },
    {
      "anonymous": false,
      "inputs": [
        {
          "indexed": true,
          "internalType": "address",
          "name": "owner",
          "type": "address"
        },
        {
          "indexed": true,
          "internalType": "address",
          "name": "approved",
          "type": "address"
        },
        {
          "indexed": true,
          "internalType": "uint256",
          "name": "tokenId",
          "type": "uint256"
        }
      ],
      "name": "Approval",
      "type": "event"
    },
    {
      "anonymous": false,
      "inputs": [
        {
          "indexed": true,
          "internalType": "address",
          "name": "owner",
          "type": "address"
        },
        {
          "indexed": true,
          "internalType": "address",
          "name": "operator",
          "type": "address"
        },
        {
          "indexed": false,
          "internalType": "bool",
          "name": "approved",
          "type": "bool"
        }
      ],
      "name": "ApprovalForAll",
      "type": "event"
    },
    {
      "anonymous": false,
      "inputs": [
        {
          "indexed": false,
          "internalType": "uint256",
          "name": "_value",
          "type": "uint256"
        }
      ],
      "name": "MaxSupplyUpdated",
      "type": "event"
    },
    {
      "anonymous": false,
      "inputs": [
        {
          "indexed": true,
          "internalType": "uint256",
          "name": "price",
          "type": "uint256"
        }
      ],
      "name": "NFTMintPriceUpdated",
      "type": "event"
    },
    {
      "anonymous": false,
      "inputs": [
        {
          "indexed": true,
          "internalType": "address",
          "name": "NFTowner",
          "type": "address"
        },
        {
          "indexed": true,
          "internalType": "uint256",
          "name": "tokenId",
          "type": "uint256"
        }
      ],
      "name": "NFTMinted",
      "type": "event"
    },
    {
      "anonymous": false,
      "inputs": [
        {
          "indexed": false,
          "internalType": "address",
          "name": "account",
          "type": "address"
        }
      ],
      "name": "Paused",
      "type": "event"
    },
    {
      "anonymous": false,
      "inputs": [
        {
          "indexed": true,
          "internalType": "address",
          "name": "from",
          "type": "address"
        },
        {
          "indexed": true,
          "internalType": "uint256",
          "name": "toTokenId",
          "type": "uint256"
        },
        {
          "indexed": true,
          "internalType": "address",
          "name": "childContract",
          "type": "address"
        },
        {
          "indexed": false,
          "internalType": "uint256",
          "name": "childTokenId",
          "type": "uint256"
        },
        {
          "indexed": false,
          "internalType": "uint256",
          "name": "amount",
          "type": "uint256"
        }
      ],
      "name": "ReceivedChild",
      "type": "event"
    },
    {
      "anonymous": false,
      "inputs": [
        {
          "indexed": true,
          "internalType": "bytes32",
          "name": "role",
          "type": "bytes32"
        },
        {
          "indexed": true,
          "internalType": "bytes32",
          "name": "previousAdminRole",
          "type": "bytes32"
        },
        {
          "indexed": true,
          "internalType": "bytes32",
          "name": "newAdminRole",
          "type": "bytes32"
        }
      ],
      "name": "RoleAdminChanged",
      "type": "event"
    },
    {
      "anonymous": false,
      "inputs": [
        {
          "indexed": true,
          "internalType": "bytes32",
          "name": "role",
          "type": "bytes32"
        },
        {
          "indexed": true,
          "internalType": "address",
          "name": "account",
          "type": "address"
        },
        {
          "indexed": true,
          "internalType": "address",
          "name": "sender",
          "type": "address"
        }
      ],
      "name": "RoleGranted",
      "type": "event"
    },
    {
      "anonymous": false,
      "inputs": [
        {
          "indexed": true,
          "internalType": "bytes32",
          "name": "role",
          "type": "bytes32"
        },
        {
          "indexed": true,
          "internalType": "address",
          "name": "account",
          "type": "address"
        },
        {
          "indexed": true,
          "internalType": "address",
          "name": "sender",
          "type": "address"
        }
      ],
      "name": "RoleRevoked",
      "type": "event"
    },
    {
      "anonymous": false,
      "inputs": [
        {
          "indexed": true,
          "internalType": "uint256",
          "name": "tierId",
          "type": "uint256"
        },
        {
          "indexed": true,
          "internalType": "uint256",
          "name": "price",
          "type": "uint256"
        }
      ],
      "name": "TierUpgradePriceUpdated",
      "type": "event"
    },
    {
      "anonymous": false,
      "inputs": [
        {
          "indexed": true,
          "internalType": "address",
          "name": "from",
          "type": "address"
        },
        {
          "indexed": true,
          "internalType": "address",
          "name": "to",
          "type": "address"
        },
        {
          "indexed": true,
          "internalType": "uint256",
          "name": "tokenId",
          "type": "uint256"
        }
      ],
      "name": "Transfer",
      "type": "event"
    },
    {
      "anonymous": false,
      "inputs": [
        {
          "indexed": true,
          "internalType": "uint256",
          "name": "fromTokenId",
          "type": "uint256"
        },
        {
          "indexed": true,
          "internalType": "address",
          "name": "to",
          "type": "address"
        },
        {
          "indexed": true,
          "internalType": "address",
          "name": "childContract",
          "type": "address"
        },
        {
          "indexed": false,
          "internalType": "uint256[]",
          "name": "childTokenIds",
          "type": "uint256[]"
        },
        {
          "indexed": false,
          "internalType": "uint256[]",
          "name": "amounts",
          "type": "uint256[]"
        }
      ],
      "name": "TransferBatchChild",
      "type": "event"
    },
    {
      "anonymous": false,
      "inputs": [
        {
          "indexed": true,
          "internalType": "uint256",
          "name": "fromTokenId",
          "type": "uint256"
        },
        {
          "indexed": true,
          "internalType": "address",
          "name": "to",
          "type": "address"
        },
        {
          "indexed": true,
          "internalType": "address",
          "name": "childContract",
          "type": "address"
        },
        {
          "indexed": false,
          "internalType": "uint256",
          "name": "childTokenId",
          "type": "uint256"
        },
        {
          "indexed": false,
          "internalType": "uint256",
          "name": "amount",
          "type": "uint256"
        }
      ],
      "name": "TransferSingleChild",
      "type": "event"
    },
    {
      "anonymous": false,
      "inputs": [
        {
          "indexed": false,
          "internalType": "address",
          "name": "account",
          "type": "address"
        }
      ],
      "name": "Unpaused",
      "type": "event"
    },
    {
      "inputs": [],
      "name": "ADMIN_ROLE",
      "outputs": [
        {
          "internalType": "bytes32",
          "name": "",
          "type": "bytes32"
        }
      ],
      "stateMutability": "view",
      "type": "function"
    },
    {
      "inputs": [],
      "name": "DEFAULT_ADMIN_ROLE",
      "outputs": [
        {
          "internalType": "bytes32",
          "name": "",
          "type": "bytes32"
        }
      ],
      "stateMutability": "view",
      "type": "function"
    },
    {
      "inputs": [],
      "name": "MINTER_ROLE",
      "outputs": [
        {
          "internalType": "bytes32",
          "name": "",
          "type": "bytes32"
        }
      ],
      "stateMutability": "view",
      "type": "function"
    },
    {
      "inputs": [],
      "name": "PAUSER_ROLE",
      "outputs": [
        {
          "internalType": "bytes32",
          "name": "",
          "type": "bytes32"
        }
      ],
      "stateMutability": "view",
      "type": "function"
    },
    {
      "inputs": [
        {
          "internalType": "address",
          "name": "to",
          "type": "address"
        },
        {
          "internalType": "uint256",
          "name": "tokenId",
          "type": "uint256"
        }
      ],
      "name": "approve",
      "outputs": [],
      "stateMutability": "nonpayable",
      "type": "function"
    },
    {
      "inputs": [
        {
          "internalType": "address",
          "name": "owner",
          "type": "address"
        }
      ],
      "name": "balanceOf",
      "outputs": [
        {
          "internalType": "uint256",
          "name": "",
          "type": "uint256"
        }
      ],
      "stateMutability": "view",
      "type": "function"
    },
    {
      "inputs": [],
      "name": "baseURI",
      "outputs": [
        {
          "internalType": "string",
          "name": "",
          "type": "string"
        }
      ],
      "stateMutability": "view",
      "type": "function"
    },
    {
      "inputs": [
        {
          "internalType": "uint256",
          "name": "composableId",
          "type": "uint256"
        },
        {
          "internalType": "address",
          "name": "childContract",
          "type": "address"
        },
        {
          "internalType": "uint256",
          "name": "tierId",
          "type": "uint256"
        }
      ],
      "name": "childBalance",
      "outputs": [
        {
          "internalType": "uint256",
          "name": "",
          "type": "uint256"
        }
      ],
      "stateMutability": "view",
      "type": "function"
    },
    {
      "inputs": [
        {
          "internalType": "uint256",
          "name": "composableId",
          "type": "uint256"
        }
      ],
      "name": "childContractsFor",
      "outputs": [
        {
          "internalType": "address[]",
          "name": "",
          "type": "address[]"
        }
      ],
      "stateMutability": "view",
      "type": "function"
    },
    {
      "inputs": [
        {
          "internalType": "uint256",
          "name": "composableId",
          "type": "uint256"
        },
        {
          "internalType": "address",
          "name": "childContract",
          "type": "address"
        }
      ],
      "name": "childIdsForOn",
      "outputs": [
        {
          "internalType": "uint256[]",
          "name": "",
          "type": "uint256[]"
        }
      ],
      "stateMutability": "view",
      "type": "function"
    },
    {
      "inputs": [
        {
          "internalType": "uint256",
          "name": "tokenId",
          "type": "uint256"
        }
      ],
      "name": "getApproved",
      "outputs": [
        {
          "internalType": "address",
          "name": "",
          "type": "address"
        }
      ],
      "stateMutability": "view",
      "type": "function"
    },
    {
      "inputs": [
        {
          "internalType": "bytes32",
          "name": "role",
          "type": "bytes32"
        }
      ],
      "name": "getRoleAdmin",
      "outputs": [
        {
          "internalType": "bytes32",
          "name": "",
          "type": "bytes32"
        }
      ],
      "stateMutability": "view",
      "type": "function"
    },
    {
      "inputs": [
        {
          "internalType": "bytes32",
          "name": "role",
          "type": "bytes32"
        },
        {
          "internalType": "uint256",
          "name": "index",
          "type": "uint256"
        }
      ],
      "name": "getRoleMember",
      "outputs": [
        {
          "internalType": "address",
          "name": "",
          "type": "address"
        }
      ],
      "stateMutability": "view",
      "type": "function"
    },
    {
      "inputs": [
        {
          "internalType": "bytes32",
          "name": "role",
          "type": "bytes32"
        }
      ],
      "name": "getRoleMemberCount",
      "outputs": [
        {
          "internalType": "uint256",
          "name": "",
          "type": "uint256"
        }
      ],
      "stateMutability": "view",
      "type": "function"
    },
    {
      "inputs": [
        {
          "internalType": "bytes32",
          "name": "role",
          "type": "bytes32"
        },
        {
          "internalType": "address",
          "name": "account",
          "type": "address"
        }
      ],
      "name": "grantRole",
      "outputs": [],
      "stateMutability": "nonpayable",
      "type": "function"
    },
    {
      "inputs": [
        {
          "internalType": "bytes32",
          "name": "role",
          "type": "bytes32"
        },
        {
          "internalType": "address",
          "name": "account",
          "type": "address"
        }
      ],
      "name": "hasRole",
      "outputs": [
        {
          "internalType": "bool",
          "name": "",
          "type": "bool"
        }
      ],
      "stateMutability": "view",
      "type": "function"
    },
    {
      "inputs": [
        {
          "internalType": "address",
          "name": "owner",
          "type": "address"
        },
        {
          "internalType": "address",
          "name": "operator",
          "type": "address"
        }
      ],
      "name": "isApprovedForAll",
      "outputs": [
        {
          "internalType": "bool",
          "name": "",
          "type": "bool"
        }
      ],
      "stateMutability": "view",
      "type": "function"
    },
    {
      "inputs": [],
      "name": "maxSupply",
      "outputs": [
        {
          "internalType": "uint256",
          "name": "",
          "type": "uint256"
        }
      ],
      "stateMutability": "view",
      "type": "function"
    },
    {
      "inputs": [],
      "name": "mintCost",
      "outputs": [
        {
          "internalType": "uint256",
          "name": "",
          "type": "uint256"
        }
      ],
      "stateMutability": "view",
      "type": "function"
    },
    {
      "inputs": [],
      "name": "name",
      "outputs": [
        {
          "internalType": "string",
          "name": "",
          "type": "string"
        }
      ],
      "stateMutability": "view",
      "type": "function"
    },
    {
      "inputs": [
        {
          "internalType": "address",
          "name": "operator",
          "type": "address"
        },
        {
          "internalType": "address",
          "name": "from",
          "type": "address"
        },
        {
          "internalType": "uint256[]",
          "name": "ids",
          "type": "uint256[]"
        },
        {
          "internalType": "uint256[]",
          "name": "values",
          "type": "uint256[]"
        },
        {
          "internalType": "bytes",
          "name": "data",
          "type": "bytes"
        }
      ],
      "name": "onERC1155BatchReceived",
      "outputs": [
        {
          "internalType": "bytes4",
          "name": "",
          "type": "bytes4"
        }
      ],
      "stateMutability": "nonpayable",
      "type": "function"
    },
    {
      "inputs": [
        {
          "internalType": "address",
          "name": "operator",
          "type": "address"
        },
        {
          "internalType": "address",
          "name": "from",
          "type": "address"
        },
        {
          "internalType": "uint256",
          "name": "id",
          "type": "uint256"
        },
        {
          "internalType": "uint256",
          "name": "amount",
          "type": "uint256"
        },
        {
          "internalType": "bytes",
          "name": "data",
          "type": "bytes"
        }
      ],
      "name": "onERC1155Received",
      "outputs": [
        {
          "internalType": "bytes4",
          "name": "",
          "type": "bytes4"
        }
      ],
      "stateMutability": "nonpayable",
      "type": "function"
    },
    {
      "inputs": [
        {
          "internalType": "uint256",
          "name": "tokenId",
          "type": "uint256"
        }
      ],
      "name": "ownerOf",
      "outputs": [
        {
          "internalType": "address",
          "name": "",
          "type": "address"
        }
      ],
      "stateMutability": "view",
      "type": "function"
    },
    {
      "inputs": [
        {
          "internalType": "address",
          "name": "",
          "type": "address"
        }
      ],
      "name": "ownerToComposableId",
      "outputs": [
        {
          "internalType": "uint256",
          "name": "",
          "type": "uint256"
        }
      ],
      "stateMutability": "view",
      "type": "function"
    },
    {
      "inputs": [],
      "name": "paused",
      "outputs": [
        {
          "internalType": "bool",
          "name": "",
          "type": "bool"
        }
      ],
      "stateMutability": "view",
      "type": "function"
    },
    {
      "inputs": [
        {
          "internalType": "bytes32",
          "name": "role",
          "type": "bytes32"
        },
        {
          "internalType": "address",
          "name": "account",
          "type": "address"
        }
      ],
      "name": "renounceRole",
      "outputs": [],
      "stateMutability": "nonpayable",
      "type": "function"
    },
    {
      "inputs": [
        {
          "internalType": "bytes32",
          "name": "role",
          "type": "bytes32"
        },
        {
          "internalType": "address",
          "name": "account",
          "type": "address"
        }
      ],
      "name": "revokeRole",
      "outputs": [],
      "stateMutability": "nonpayable",
      "type": "function"
    },
    {
      "inputs": [
        {
          "internalType": "address",
          "name": "from",
          "type": "address"
        },
        {
          "internalType": "address",
          "name": "to",
          "type": "address"
        },
        {
          "internalType": "uint256",
          "name": "tokenId",
          "type": "uint256"
        }
      ],
      "name": "safeTransferFrom",
      "outputs": [],
      "stateMutability": "nonpayable",
      "type": "function"
    },
    {
      "inputs": [
        {
          "internalType": "address",
          "name": "from",
          "type": "address"
        },
        {
          "internalType": "address",
          "name": "to",
          "type": "address"
        },
        {
          "internalType": "uint256",
          "name": "tokenId",
          "type": "uint256"
        },
        {
          "internalType": "bytes",
          "name": "_data",
          "type": "bytes"
        }
      ],
      "name": "safeTransferFrom",
      "outputs": [],
      "stateMutability": "nonpayable",
      "type": "function"
    },
    {
      "inputs": [
        {
          "internalType": "address",
          "name": "operator",
          "type": "address"
        },
        {
          "internalType": "bool",
          "name": "approved",
          "type": "bool"
        }
      ],
      "name": "setApprovalForAll",
      "outputs": [],
      "stateMutability": "nonpayable",
      "type": "function"
    },
    {
      "inputs": [
        {
          "internalType": "bytes4",
          "name": "interfaceId",
          "type": "bytes4"
        }
      ],
      "name": "supportsInterface",
      "outputs": [
        {
          "internalType": "bool",
          "name": "",
          "type": "bool"
        }
      ],
      "stateMutability": "view",
      "type": "function"
    },
    {
      "inputs": [],
      "name": "symbol",
      "outputs": [
        {
          "internalType": "string",
          "name": "",
          "type": "string"
        }
      ],
      "stateMutability": "view",
      "type": "function"
    },
    {
      "inputs": [
        {
          "internalType": "uint256",
          "name": "index",
          "type": "uint256"
        }
      ],
      "name": "tokenByIndex",
      "outputs": [
        {
          "internalType": "uint256",
          "name": "",
          "type": "uint256"
        }
      ],
      "stateMutability": "view",
      "type": "function"
    },
    {
      "inputs": [
        {
          "internalType": "address",
          "name": "owner",
          "type": "address"
        },
        {
          "internalType": "uint256",
          "name": "index",
          "type": "uint256"
        }
      ],
      "name": "tokenOfOwnerByIndex",
      "outputs": [
        {
          "internalType": "uint256",
          "name": "",
          "type": "uint256"
        }
      ],
      "stateMutability": "view",
      "type": "function"
    },
    {
      "inputs": [
        {
          "internalType": "uint256",
          "name": "tokenId",
          "type": "uint256"
        }
      ],
      "name": "tokenURI",
      "outputs": [
        {
          "internalType": "string",
          "name": "",
          "type": "string"
        }
      ],
      "stateMutability": "view",
      "type": "function"
    },
    {
      "inputs": [],
      "name": "totalSupply",
      "outputs": [
        {
          "internalType": "uint256",
          "name": "",
          "type": "uint256"
        }
      ],
      "stateMutability": "view",
      "type": "function"
    },
    {
      "inputs": [
        {
          "internalType": "address",
          "name": "from",
          "type": "address"
        },
        {
          "internalType": "address",
          "name": "to",
          "type": "address"
        },
        {
          "internalType": "uint256",
          "name": "tokenId",
          "type": "uint256"
        }
      ],
      "name": "transferFrom",
      "outputs": [],
      "stateMutability": "nonpayable",
      "type": "function"
    },
    {
      "inputs": [
        {
          "internalType": "address",
          "name": "_owner",
          "type": "address"
        }
      ],
      "name": "getComposableId",
      "outputs": [
        {
          "internalType": "uint256",
          "name": "",
          "type": "uint256"
        }
      ],
      "stateMutability": "view",
      "type": "function"
    },
    {
      "inputs": [],
      "name": "getComposableCount",
      "outputs": [
        {
          "internalType": "uint256",
          "name": "",
          "type": "uint256"
        }
      ],
      "stateMutability": "view",
      "type": "function"
    },
    {
      "inputs": [],
      "name": "getMintCost",
      "outputs": [
        {
          "internalType": "uint256",
          "name": "",
          "type": "uint256"
        }
      ],
      "stateMutability": "view",
      "type": "function"
    },
    {
      "inputs": [
        {
          "internalType": "uint256",
          "name": "_tierId",
          "type": "uint256"
        }
      ],
      "name": "getTierUpgradeCost",
      "outputs": [
        {
          "internalType": "uint256",
          "name": "",
          "type": "uint256"
        }
      ],
      "stateMutability": "view",
      "type": "function"
    },
    {
      "inputs": [
        {
          "internalType": "uint256",
          "name": "_composableId",
          "type": "uint256"
        },
        {
          "internalType": "address",
          "name": "_childContract",
          "type": "address"
        }
      ],
      "name": "getLevel",
      "outputs": [
        {
          "internalType": "uint256",
          "name": "",
          "type": "uint256"
        }
      ],
      "stateMutability": "view",
      "type": "function"
    },
    {
      "inputs": [
        {
          "internalType": "uint256",
          "name": "_value",
          "type": "uint256"
        }
      ],
      "name": "changeMaxSupply",
      "outputs": [],
      "stateMutability": "nonpayable",
      "type": "function"
    },
    {
      "inputs": [
        {
          "internalType": "uint256",
          "name": "_tierId",
          "type": "uint256"
        },
        {
          "internalType": "uint256",
          "name": "_cost",
          "type": "uint256"
        }
      ],
      "name": "setTierUpgradeCost",
      "outputs": [],
      "stateMutability": "nonpayable",
      "type": "function"
    },
    {
      "inputs": [
        {
          "internalType": "uint256",
          "name": "_cost",
          "type": "uint256"
        }
      ],
      "name": "setMintCost",
      "outputs": [],
      "stateMutability": "nonpayable",
      "type": "function"
    },
    {
      "inputs": [],
      "name": "mint",
      "outputs": [],
      "stateMutability": "payable",
      "type": "function"
    },
    {
      "inputs": [
        {
          "internalType": "uint256",
          "name": "tokenId",
          "type": "uint256"
        }
      ],
      "name": "burn",
      "outputs": [],
      "stateMutability": "nonpayable",
      "type": "function"
    },
    {
      "inputs": [],
      "name": "pause",
      "outputs": [],
      "stateMutability": "nonpayable",
      "type": "function"
    },
    {
      "inputs": [],
      "name": "unpause",
      "outputs": [],
      "stateMutability": "nonpayable",
      "type": "function"
    }
  ],
  "bytecode": "0x60806040526064601255671bc16d674ec800006013553480156200002257600080fd5b5060405162005d6838038062005d68833981810160405260808110156200004857600080fd5b81019080805160405193929190846401000000008211156200006957600080fd5b838201915060208201858111156200008057600080fd5b82518660018202830111640100000000821117156200009e57600080fd5b8083526020830192505050908051906020019080838360005b83811015620000d4578082015181840152602081019050620000b7565b50505050905090810190601f168015620001025780820380516001836020036101000a031916815260200191505b50604052602001805160405193929190846401000000008211156200012657600080fd5b838201915060208201858111156200013d57600080fd5b82518660018202830111640100000000821117156200015b57600080fd5b8083526020830192505050908051906020019080838360005b838110156200019157808201518184015260208101905062000174565b50505050905090810190601f168015620001bf5780820380516001836020036101000a031916815260200191505b5060405260200180516040519392919084640100000000821115620001e357600080fd5b83820191506020820185811115620001fa57600080fd5b82518660018202830111640100000000821117156200021857600080fd5b8083526020830192505050908051906020019080838360005b838110156200024e57808201518184015260208101905062000231565b50505050905090810190601f1680156200027c5780820380516001836020036101000a031916815260200191505b50604052602001805190602001909291905050508383838282620002ad6301ffc9a760e01b620004ef60201b60201c565b8160079080519060200190620002c5929190620007aa565b508060089080519060200190620002de929190620007aa565b50620002f76380ac58cd60e01b620004ef60201b60201c565b6200030f635b5e139f60e01b620004ef60201b60201c565b6200032763780e9d6360e01b620004ef60201b60201c565b50506200034a63bc197c8160e01b63f23a6e6160e01b18620004ef60201b60201c565b6200035b81620005f860201b60201c565b5050506000600f60006101000a81548160ff0219169083151502179055506001601081905550620003d760405180807f41444d494e5f524f4c4500000000000000000000000000000000000000000000815250600a0190506040518091039020620003cb6200061460201b60201c565b6200061c60201b60201c565b6200042d60405180807f4d494e5445525f524f4c45000000000000000000000000000000000000000000815250600b0190506040518091039020620004216200061460201b60201c565b6200061c60201b60201c565b6200048360405180807f5041555345525f524f4c45000000000000000000000000000000000000000000815250600b0190506040518091039020620004776200061460201b60201c565b6200061c60201b60201c565b33601660006101000a81548173ffffffffffffffffffffffffffffffffffffffff021916908373ffffffffffffffffffffffffffffffffffffffff1602179055506000601181905550806014600060018152602001908152602001600020819055505050505062000859565b63ffffffff60e01b817bffffffffffffffffffffffffffffffffffffffffffffffffffffffff191614156200058c576040517f08c379a000000000000000000000000000000000000000000000000000000000815260040180806020018281038252601c8152602001807f4552433136353a20696e76616c696420696e746572666163652069640000000081525060200191505060405180910390fd5b6001806000837bffffffffffffffffffffffffffffffffffffffffffffffffffffffff19167bffffffffffffffffffffffffffffffffffffffffffffffffffffffff1916815260200190815260200160002060006101000a81548160ff02191690831515021790555050565b80600a908051906020019062000610929190620007aa565b5050565b600033905090565b6200062e82826200063260201b60201c565b5050565b6200066081600080858152602001908152602001600020600001620006d560201b620045c21790919060201c565b15620006d157620006766200061460201b60201c565b73ffffffffffffffffffffffffffffffffffffffff168173ffffffffffffffffffffffffffffffffffffffff16837f2f8788117e7eff1d82e926ec794901d17c78024a50270940304540a733656f0d60405160405180910390a45b5050565b600062000705836000018373ffffffffffffffffffffffffffffffffffffffff1660001b6200070d60201b60201c565b905092915050565b60006200072183836200078760201b60201c565b6200077c57826000018290806001815401808255809150506001900390600052602060002001600090919091909150558260000180549050836001016000848152602001908152602001600020819055506001905062000781565b600090505b92915050565b600080836001016000848152602001908152602001600020541415905092915050565b828054600181600116156101000203166002900490600052602060002090601f016020900481019282601f10620007ed57805160ff19168380011785556200081e565b828001600101855582156200081e579182015b828111156200081d57825182559160200191906001019062000800565b5b5090506200082d919062000831565b5090565b6200085691905b808211156200085257600081600090555060010162000838565b5090565b90565b6154ff80620008696000396000f3fe6080604052600436106102ae5760003560e01c806370a0823111610175578063b88d4fde116100dc578063d547741f11610095578063e63ab1e91161006f578063e63ab1e914611512578063e985e9c51461153d578063f225d432146115c6578063f23a6e6114611635576102ae565b8063d547741f14611447578063d5abeb01146114a2578063e2275b52146114cd576102ae565b8063b88d4fde14610f5a578063bc197c811461106c578063bdb4b848146112ee578063c87b56dd14611319578063ca15c873146113cd578063d53913931461141c576102ae565b80638b9220f31161012e5780638b9220f314610d1f5780639010d07c14610d4a57806391d1485414610dcf57806395d89b4114610e42578063a217fddf14610ed2578063a22cb46514610efd576102ae565b806370a0823114610b5e57806375b238fc14610bc35780637c926af614610bee5780638456cb5914610c3d5780638545f4ea14610c5457806389e7e2f214610c8f576102ae565b806336568abe116102195780634f6ccce7116101d25780634f6ccce7146108f75780635c975abb1461094657806360d4d23a146109755780636352211e146109ee578063640bfdb514610a695780636c0360eb14610ace576102ae565b806336568abe1461072f5780633f4ba83a1461078a578063404c7cdd146107a157806342842e0e146107dc57806342966c68146108575780634e18b76214610892576102ae565b806318160ddd1161026b57806318160ddd146104c057806323b872dd146104eb578063248a9ca3146105665780632676608c146105b55780632f2ff15d146106655780632f745c59146106c0576102ae565b806301ffc9a7146102b357806306fdde0314610325578063081812fc146103b5578063095ea7b3146104305780631249c58b1461048b57806313c738f014610495575b600080fd5b3480156102bf57600080fd5b5061030b600480360360208110156102d657600080fd5b8101908080357bffffffffffffffffffffffffffffffffffffffffffffffffffffffff191690602001909291905050506117a3565b604051808215151515815260200191505060405180910390f35b34801561033157600080fd5b5061033a61180b565b6040518080602001828103825283818151815260200191508051906020019080838360005b8381101561037a57808201518184015260208101905061035f565b50505050905090810190601f1680156103a75780820380516001836020036101000a031916815260200191505b509250505060405180910390f35b3480156103c157600080fd5b506103ee600480360360208110156103d857600080fd5b81019080803590602001909291905050506118ad565b604051808273ffffffffffffffffffffffffffffffffffffffff1673ffffffffffffffffffffffffffffffffffffffff16815260200191505060405180910390f35b34801561043c57600080fd5b506104896004803603604081101561045357600080fd5b81019080803573ffffffffffffffffffffffffffffffffffffffff16906020019092919080359060200190929190505050611948565b005b610493611a8c565b005b3480156104a157600080fd5b506104aa611d57565b6040518082815260200191505060405180910390f35b3480156104cc57600080fd5b506104d5611d61565b6040518082815260200191505060405180910390f35b3480156104f757600080fd5b506105646004803603606081101561050e57600080fd5b81019080803573ffffffffffffffffffffffffffffffffffffffff169060200190929190803573ffffffffffffffffffffffffffffffffffffffff16906020019092919080359060200190929190505050611d72565b005b34801561057257600080fd5b5061059f6004803603602081101561058957600080fd5b8101908080359060200190929190505050611de8565b6040518082815260200191505060405180910390f35b3480156105c157600080fd5b5061060e600480360360408110156105d857600080fd5b8101908080359060200190929190803573ffffffffffffffffffffffffffffffffffffffff169060200190929190505050611e07565b6040518080602001828103825283818151815260200191508051906020019060200280838360005b83811015610651578082015181840152602081019050610636565b505050509050019250505060405180910390f35b34801561067157600080fd5b506106be6004803603604081101561068857600080fd5b8101908080359060200190929190803573ffffffffffffffffffffffffffffffffffffffff169060200190929190505050611fa1565b005b3480156106cc57600080fd5b50610719600480360360408110156106e357600080fd5b81019080803573ffffffffffffffffffffffffffffffffffffffff1690602001909291908035906020019092919050505061202a565b6040518082815260200191505060405180910390f35b34801561073b57600080fd5b506107886004803603604081101561075257600080fd5b8101908080359060200190929190803573ffffffffffffffffffffffffffffffffffffffff169060200190929190505050612085565b005b34801561079657600080fd5b5061079f61211e565b005b3480156107ad57600080fd5b506107da600480360360208110156107c457600080fd5b81019080803590602001909291905050506121c3565b005b3480156107e857600080fd5b50610855600480360360608110156107ff57600080fd5b81019080803573ffffffffffffffffffffffffffffffffffffffff169060200190929190803573ffffffffffffffffffffffffffffffffffffffff16906020019092919080359060200190929190505050612285565b005b34801561086357600080fd5b506108906004803603602081101561087a57600080fd5b81019080803590602001909291905050506122a5565b005b34801561089e57600080fd5b506108e1600480360360208110156108b557600080fd5b81019080803573ffffffffffffffffffffffffffffffffffffffff169060200190929190505050612317565b6040518082815260200191505060405180910390f35b34801561090357600080fd5b506109306004803603602081101561091a57600080fd5b810190808035906020019092919050505061232f565b6040518082815260200191505060405180910390f35b34801561095257600080fd5b5061095b612352565b604051808215151515815260200191505060405180910390f35b34801561098157600080fd5b506109d86004803603606081101561099857600080fd5b8101908080359060200190929190803573ffffffffffffffffffffffffffffffffffffffff16906020019092919080359060200190929190505050612369565b6040518082815260200191505060405180910390f35b3480156109fa57600080fd5b50610a2760048036036020811015610a1157600080fd5b81019080803590602001909291905050506123d6565b604051808273ffffffffffffffffffffffffffffffffffffffff1673ffffffffffffffffffffffffffffffffffffffff16815260200191505060405180910390f35b348015610a7557600080fd5b50610ab860048036036020811015610a8c57600080fd5b81019080803573ffffffffffffffffffffffffffffffffffffffff16906020019092919050505061240d565b6040518082815260200191505060405180910390f35b348015610ada57600080fd5b50610ae3612456565b6040518080602001828103825283818151815260200191508051906020019080838360005b83811015610b23578082015181840152602081019050610b08565b50505050905090810190601f168015610b505780820380516001836020036101000a031916815260200191505b509250505060405180910390f35b348015610b6a57600080fd5b50610bad60048036036020811015610b8157600080fd5b81019080803573ffffffffffffffffffffffffffffffffffffffff1690602001909291905050506124f8565b6040518082815260200191505060405180910390f35b348015610bcf57600080fd5b50610bd86125cd565b6040518082815260200191505060405180910390f35b348015610bfa57600080fd5b50610c2760048036036020811015610c1157600080fd5b8101908080359060200190929190505050612606565b6040518082815260200191505060405180910390f35b348015610c4957600080fd5b50610c52612623565b005b348015610c6057600080fd5b50610c8d60048036036020811015610c7757600080fd5b81019080803590602001909291905050506126c8565b005b348015610c9b57600080fd5b50610cc860048036036020811015610cb257600080fd5b810190808035906020019092919050505061274e565b6040518080602001828103825283818151815260200191508051906020019060200280838360005b83811015610d0b578082015181840152602081019050610cf0565b505050509050019250505060405180910390f35b348015610d2b57600080fd5b50610d3461285e565b6040518082815260200191505060405180910390f35b348015610d5657600080fd5b50610d8d60048036036040811015610d6d57600080fd5b810190808035906020019092919080359060200190929190505050612868565b604051808273ffffffffffffffffffffffffffffffffffffffff1673ffffffffffffffffffffffffffffffffffffffff16815260200191505060405180910390f35b348015610ddb57600080fd5b50610e2860048036036040811015610df257600080fd5b8101908080359060200190929190803573ffffffffffffffffffffffffffffffffffffffff169060200190929190505050612899565b604051808215151515815260200191505060405180910390f35b348015610e4e57600080fd5b50610e576128ca565b6040518080602001828103825283818151815260200191508051906020019080838360005b83811015610e97578082015181840152602081019050610e7c565b50505050905090810190601f168015610ec45780820380516001836020036101000a031916815260200191505b509250505060405180910390f35b348015610ede57600080fd5b50610ee761296c565b6040518082815260200191505060405180910390f35b348015610f0957600080fd5b50610f5860048036036040811015610f2057600080fd5b81019080803573ffffffffffffffffffffffffffffffffffffffff169060200190929190803515159060200190929190505050612973565b005b348015610f6657600080fd5b5061106a60048036036080811015610f7d57600080fd5b81019080803573ffffffffffffffffffffffffffffffffffffffff169060200190929190803573ffffffffffffffffffffffffffffffffffffffff1690602001909291908035906020019092919080359060200190640100000000811115610fe457600080fd5b820183602082011115610ff657600080fd5b8035906020019184600183028401116401000000008311171561101857600080fd5b91908080601f016020809104026020016040519081016040528093929190818152602001838380828437600081840152601f19601f820116905080830192505050505050509192919290505050612b2b565b005b34801561107857600080fd5b5061129a600480360360a081101561108f57600080fd5b81019080803573ffffffffffffffffffffffffffffffffffffffff169060200190929190803573ffffffffffffffffffffffffffffffffffffffff169060200190929190803590602001906401000000008111156110ec57600080fd5b8201836020820111156110fe57600080fd5b8035906020019184602083028401116401000000008311171561112057600080fd5b919080806020026020016040519081016040528093929190818152602001838360200280828437600081840152601f19601f8201169050808301925050505050505091929192908035906020019064010000000081111561118057600080fd5b82018360208201111561119257600080fd5b803590602001918460208302840111640100000000831117156111b457600080fd5b919080806020026020016040519081016040528093929190818152602001838360200280828437600081840152601f19601f8201169050808301925050505050505091929192908035906020019064010000000081111561121457600080fd5b82018360208201111561122657600080fd5b8035906020019184600183028401116401000000008311171561124857600080fd5b91908080601f016020809104026020016040519081016040528093929190818152602001838380828437600081840152601f19601f820116905080830192505050505050509192919290505050612ba3565b60405180827bffffffffffffffffffffffffffffffffffffffffffffffffffffffff19167bffffffffffffffffffffffffffffffffffffffffffffffffffffffff1916815260200191505060405180910390f35b3480156112fa57600080fd5b50611303612d72565b6040518082815260200191505060405180910390f35b34801561132557600080fd5b506113526004803603602081101561133c57600080fd5b8101908080359060200190929190505050612d78565b6040518080602001828103825283818151815260200191508051906020019080838360005b83811015611392578082015181840152602081019050611377565b50505050905090810190601f1680156113bf5780820380516001836020036101000a031916815260200191505b509250505060405180910390f35b3480156113d957600080fd5b50611406600480360360208110156113f057600080fd5b8101908080359060200190929190505050613061565b6040518082815260200191505060405180910390f35b34801561142857600080fd5b50611431613087565b6040518082815260200191505060405180910390f35b34801561145357600080fd5b506114a06004803603604081101561146a57600080fd5b8101908080359060200190929190803573ffffffffffffffffffffffffffffffffffffffff1690602001909291905050506130c0565b005b3480156114ae57600080fd5b506114b7613149565b6040518082815260200191505060405180910390f35b3480156114d957600080fd5b50611510600480360360408110156114f057600080fd5b81019080803590602001909291908035906020019092919050505061314f565b005b34801561151e57600080fd5b50611527613251565b6040518082815260200191505060405180910390f35b34801561154957600080fd5b506115ac6004803603604081101561156057600080fd5b81019080803573ffffffffffffffffffffffffffffffffffffffff169060200190929190803573ffffffffffffffffffffffffffffffffffffffff16906020019092919050505061328a565b604051808215151515815260200191505060405180910390f35b3480156115d257600080fd5b5061161f600480360360408110156115e957600080fd5b8101908080359060200190929190803573ffffffffffffffffffffffffffffffffffffffff16906020019092919050505061331e565b6040518082815260200191505060405180910390f35b34801561164157600080fd5b5061174f600480360360a081101561165857600080fd5b81019080803573ffffffffffffffffffffffffffffffffffffffff169060200190929190803573ffffffffffffffffffffffffffffffffffffffff1690602001909291908035906020019092919080359060200190929190803590602001906401000000008111156116c957600080fd5b8201836020820111156116db57600080fd5b803590602001918460018302840111640100000000831117156116fd57600080fd5b91908080601f016020809104026020016040519081016040528093929190818152602001838380828437600081840152601f19601f820116905080830192505050505050509192919290505050613371565b60405180827bffffffffffffffffffffffffffffffffffffffffffffffffffffffff19167bffffffffffffffffffffffffffffffffffffffffffffffffffffffff1916815260200191505060405180910390f35b600060016000837bffffffffffffffffffffffffffffffffffffffffffffffffffffffff19167bffffffffffffffffffffffffffffffffffffffffffffffffffffffff1916815260200190815260200160002060009054906101000a900460ff169050919050565b606060078054600181600116156101000203166002900480601f0160208091040260200160405190810160405280929190818152602001828054600181600116156101000203166002900480156118a35780601f10611878576101008083540402835291602001916118a3565b820191906000526020600020905b81548152906001019060200180831161188657829003601f168201915b5050505050905090565b60006118b88261348d565b61190d576040517f08c379a000000000000000000000000000000000000000000000000000000000815260040180806020018281038252602c8152602001806152bc602c913960400191505060405180910390fd5b6005600083815260200190815260200160002060009054906101000a900473ffffffffffffffffffffffffffffffffffffffff169050919050565b6000611953826123d6565b90508073ffffffffffffffffffffffffffffffffffffffff168373ffffffffffffffffffffffffffffffffffffffff1614156119da576040517f08c379a000000000000000000000000000000000000000000000000000000000815260040180806020018281038252602181526020018061538f6021913960400191505060405180910390fd5b8073ffffffffffffffffffffffffffffffffffffffff166119f96134aa565b73ffffffffffffffffffffffffffffffffffffffff161480611a285750611a2781611a226134aa565b61328a565b5b611a7d576040517f08c379a000000000000000000000000000000000000000000000000000000000815260040180806020018281038252603881526020018061520f6038913960400191505060405180910390fd5b611a8783836134b2565b505050565b60026010541415611b05576040517f08c379a000000000000000000000000000000000000000000000000000000000815260040180806020018281038252601f8152602001807f5265656e7472616e637947756172643a207265656e7472616e742063616c6c0081525060200191505060405180910390fd5b60026010819055506013543414611b84576040517f08c379a000000000000000000000000000000000000000000000000000000000815260040180806020018281038252601e8152602001807f4552433732313a206d7573742070617920746865206d696e7420636f7374000081525060200191505060405180910390fd5b6000611b8f336124f8565b14611be5576040517f08c379a00000000000000000000000000000000000000000000000000000000081526004018080602001828103825260238152602001806154086023913960400191505060405180910390fd5b60006001601154019050601254811115611c4a576040517f08c379a000000000000000000000000000000000000000000000000000000000815260040180806020018281038252602481526020018061536b6024913960400191505060405180910390fd5b611c54338261356b565b80601560003373ffffffffffffffffffffffffffffffffffffffff1673ffffffffffffffffffffffffffffffffffffffff1681526020019081526020016000208190555080601181905550601660009054906101000a900473ffffffffffffffffffffffffffffffffffffffff1673ffffffffffffffffffffffffffffffffffffffff166108fc349081150290604051600060405180830381858888f19350505050158015611d07573d6000803e3d6000fd5b50803373ffffffffffffffffffffffffffffffffffffffff167f4cc0a9c4a99ddc700de1af2c9f916a7cbfdb71f14801ccff94061ad1ef8a804060405160405180910390a3506001601081905550565b6000601354905090565b6000611d6d600361375f565b905090565b611d83611d7d6134aa565b82613774565b611dd8576040517f08c379a00000000000000000000000000000000000000000000000000000000081526004018080602001828103825260318152602001806153d76031913960400191505060405180910390fd5b611de3838383613868565b505050565b6000806000838152602001908152602001600020600201549050919050565b606080611e62600e600086815260200190815260200160002060008573ffffffffffffffffffffffffffffffffffffffff1673ffffffffffffffffffffffffffffffffffffffff168152602001908152602001600020613aab565b67ffffffffffffffff81118015611e7857600080fd5b50604051908082528060200260200182016040528015611ea75781602001602082028036833780820191505090505b50905060008090505b611f08600e600087815260200190815260200160002060008673ffffffffffffffffffffffffffffffffffffffff1673ffffffffffffffffffffffffffffffffffffffff168152602001908152602001600020613aab565b811015611f9657611f7181600e600088815260200190815260200160002060008773ffffffffffffffffffffffffffffffffffffffff1673ffffffffffffffffffffffffffffffffffffffff168152602001908152602001600020613ac090919063ffffffff16565b828281518110611f7d57fe5b6020026020010181815250508080600101915050611eb0565b508091505092915050565b611fc760008084815260200190815260200160002060020154611fc26134aa565b612899565b61201c576040517f08c379a000000000000000000000000000000000000000000000000000000000815260040180806020018281038252602f81526020018061509d602f913960400191505060405180910390fd5b6120268282613ada565b5050565b600061207d82600260008673ffffffffffffffffffffffffffffffffffffffff1673ffffffffffffffffffffffffffffffffffffffff168152602001908152602001600020613ac090919063ffffffff16565b905092915050565b61208d6134aa565b73ffffffffffffffffffffffffffffffffffffffff168173ffffffffffffffffffffffffffffffffffffffff1614612110576040517f08c379a000000000000000000000000000000000000000000000000000000000815260040180806020018281038252602f81526020018061549b602f913960400191505060405180910390fd5b61211a8282613b6d565b5050565b61216460405180807f5041555345525f524f4c45000000000000000000000000000000000000000000815250600b019050604051809103902061215f6134aa565b612899565b6121b9576040517f08c379a000000000000000000000000000000000000000000000000000000000815260040180806020018281038252604081526020018061545b6040913960400191505060405180910390fd5b6121c1613c00565b565b61220960405180807f41444d494e5f524f4c4500000000000000000000000000000000000000000000815250600a01905060405180910390206122046134aa565b612899565b61227b576040517f08c379a00000000000000000000000000000000000000000000000000000000081526004018080602001828103825260208152602001807f556e617574686f72697a656420746f74616c20737570706c792073657474657281525060200191505060405180910390fd5b8060128190555050565b6122a083838360405180602001604052806000815250612b2b565b505050565b6122b66122b06134aa565b82613774565b61230b576040517f08c379a000000000000000000000000000000000000000000000000000000000815260040180806020018281038252603081526020018061542b6030913960400191505060405180910390fd5b61231481613d09565b50565b60156020528060005260406000206000915090505481565b600080612346836003613e4390919063ffffffff16565b50905080915050919050565b6000600f60009054906101000a900460ff16905090565b6000600b600085815260200190815260200160002060008473ffffffffffffffffffffffffffffffffffffffff1673ffffffffffffffffffffffffffffffffffffffff16815260200190815260200160002060008381526020019081526020016000205490509392505050565b600061240682604051806060016040528060298152602001615271602991396003613e729092919063ffffffff16565b9050919050565b6000601560008373ffffffffffffffffffffffffffffffffffffffff1673ffffffffffffffffffffffffffffffffffffffff168152602001908152602001600020549050919050565b6060600a8054600181600116156101000203166002900480601f0160208091040260200160405190810160405280929190818152602001828054600181600116156101000203166002900480156124ee5780601f106124c3576101008083540402835291602001916124ee565b820191906000526020600020905b8154815290600101906020018083116124d157829003601f168201915b5050505050905090565b60008073ffffffffffffffffffffffffffffffffffffffff168273ffffffffffffffffffffffffffffffffffffffff16141561257f576040517f08c379a000000000000000000000000000000000000000000000000000000000815260040180806020018281038252602a815260200180615247602a913960400191505060405180910390fd5b6125c6600260008473ffffffffffffffffffffffffffffffffffffffff1673ffffffffffffffffffffffffffffffffffffffff168152602001908152602001600020613aab565b9050919050565b60405180807f41444d494e5f524f4c4500000000000000000000000000000000000000000000815250600a019050604051809103902081565b600060146000838152602001908152602001600020549050919050565b61266960405180807f5041555345525f524f4c45000000000000000000000000000000000000000000815250600b01905060405180910390206126646134aa565b612899565b6126be576040517f08c379a000000000000000000000000000000000000000000000000000000000815260040180806020018281038252603e815260200180615151603e913960400191505060405180910390fd5b6126c6613e91565b565b61270e60405180807f41444d494e5f524f4c4500000000000000000000000000000000000000000000815250600a01905060405180910390206127096134aa565b612899565b61271757600080fd5b80601381905550807f922c604c5c18f1a1cd96d928a6f0b8c4e17819dbe5d18da3c4ebe664d2c45fca60405160405180910390a250565b60608061276c600d6000858152602001908152602001600020613f9b565b67ffffffffffffffff8111801561278257600080fd5b506040519080825280602002602001820160405280156127b15781602001602082028036833780820191505090505b50905060008090505b6127d5600d6000868152602001908152602001600020613f9b565b8110156128545761280181600d6000878152602001908152602001600020613fb090919063ffffffff16565b82828151811061280d57fe5b602002602001019073ffffffffffffffffffffffffffffffffffffffff16908173ffffffffffffffffffffffffffffffffffffffff168152505080806001019150506127ba565b5080915050919050565b6000601154905090565b600061289182600080868152602001908152602001600020600001613fb090919063ffffffff16565b905092915050565b60006128c282600080868152602001908152602001600020600001613fca90919063ffffffff16565b905092915050565b606060088054600181600116156101000203166002900480601f0160208091040260200160405190810160405280929190818152602001828054600181600116156101000203166002900480156129625780601f1061293757610100808354040283529160200191612962565b820191906000526020600020905b81548152906001019060200180831161294557829003601f168201915b5050505050905090565b6000801b81565b61297b6134aa565b73ffffffffffffffffffffffffffffffffffffffff168273ffffffffffffffffffffffffffffffffffffffff161415612a1c576040517f08c379a00000000000000000000000000000000000000000000000000000000081526004018080602001828103825260198152602001807f4552433732313a20617070726f766520746f2063616c6c65720000000000000081525060200191505060405180910390fd5b8060066000612a296134aa565b73ffffffffffffffffffffffffffffffffffffffff1673ffffffffffffffffffffffffffffffffffffffff16815260200190815260200160002060008473ffffffffffffffffffffffffffffffffffffffff1673ffffffffffffffffffffffffffffffffffffffff16815260200190815260200160002060006101000a81548160ff0219169083151502179055508173ffffffffffffffffffffffffffffffffffffffff16612ad66134aa565b73ffffffffffffffffffffffffffffffffffffffff167f17307eab39ab6107e8899845ad3d59bd9653f200f220920489ca2b5937696c3183604051808215151515815260200191505060405180910390a35050565b612b3c612b366134aa565b83613774565b612b91576040517f08c379a00000000000000000000000000000000000000000000000000000000081526004018080602001828103825260318152602001806153d76031913960400191505060405180910390fd5b612b9d84848484613ffa565b50505050565b60006020825114612bff576040517f08c379a00000000000000000000000000000000000000000000000000000000081526004018080602001828103825260538152602001806150fe6053913960600191505060405180910390fd5b8251845114612c59576040517f08c379a00000000000000000000000000000000000000000000000000000000081526004018080602001828103825260278152602001806153b06027913960400191505060405180910390fd5b612c69866000308888888861406c565b600080602060003690500390508035915060008090505b8651811015612d5c57612cbb8333898481518110612c9a57fe5b6020026020010151898581518110612cae57fe5b60200260200101516140e2565b3373ffffffffffffffffffffffffffffffffffffffff16838973ffffffffffffffffffffffffffffffffffffffff167fa18753b0660a8be2cdae03468c860b47c2926433ab16917f323544652803032d8a8581518110612d1757fe5b60200260200101518a8681518110612d2b57fe5b6020026020010151604051808381526020018281526020019250505060405180910390a48080600101915050612c80565b5063bc197c8160e01b9250505095945050505050565b60135481565b6060612d838261348d565b612dd8576040517f08c379a000000000000000000000000000000000000000000000000000000000815260040180806020018281038252602f81526020018061533c602f913960400191505060405180910390fd5b6060600960008481526020019081526020016000208054600181600116156101000203166002900480601f016020809104026020016040519081016040528092919081815260200182805460018160011615610100020316600290048015612e815780601f10612e5657610100808354040283529160200191612e81565b820191906000526020600020905b815481529060010190602001808311612e6457829003601f168201915b505050505090506000600a8054600181600116156101000203166002900490501415612eb0578091505061305c565b600081511115612f8957600a816040516020018083805460018160011615610100020316600290048015612f1b5780601f10612ef9576101008083540402835291820191612f1b565b820191906000526020600020905b815481529060010190602001808311612f07575b505082805190602001908083835b60208310612f4c5780518252602082019150602081019050602083039250612f29565b6001836020036101000a0380198251168184511680821785525050505050509050019250505060405160208183030381529060405291505061305c565b600a612f9484614275565b6040516020018083805460018160011615610100020316600290048015612ff25780601f10612fd0576101008083540402835291820191612ff2565b820191906000526020600020905b815481529060010190602001808311612fde575b505082805190602001908083835b602083106130235780518252602082019150602081019050602083039250613000565b6001836020036101000a038019825116818451168082178552505050505050905001925050506040516020818303038152906040529150505b919050565b6000613080600080848152602001908152602001600020600001613f9b565b9050919050565b60405180807f4d494e5445525f524f4c45000000000000000000000000000000000000000000815250600b019050604051809103902081565b6130e6600080848152602001908152602001600020600201546130e16134aa565b612899565b61313b576040517f08c379a00000000000000000000000000000000000000000000000000000000081526004018080602001828103825260308152602001806151df6030913960400191505060405180910390fd5b6131458282613b6d565b5050565b60125481565b61319560405180807f41444d494e5f524f4c4500000000000000000000000000000000000000000000815250600a01905060405180910390206131906134aa565b612899565b613207576040517f08c379a000000000000000000000000000000000000000000000000000000000815260040180806020018281038252601e8152602001807f556e617574686f72697a6564207469657220707269636520736574746572000081525060200191505060405180910390fd5b80601460008481526020019081526020016000208190555080827f0c13cfda0c63d281660989dcc800b83761b1b90295c71a48e623299e92745d3160405160405180910390a35050565b60405180807f5041555345525f524f4c45000000000000000000000000000000000000000000815250600b019050604051809103902081565b6000600660008473ffffffffffffffffffffffffffffffffffffffff1673ffffffffffffffffffffffffffffffffffffffff16815260200190815260200160002060008373ffffffffffffffffffffffffffffffffffffffff1673ffffffffffffffffffffffffffffffffffffffff16815260200190815260200160002060009054906101000a900460ff16905092915050565b600080600090506000600190505b601254811015613366576001613343868684612369565b141561335457600182019150613359565b613366565b808060010191505061332c565b508091505092915050565b600060208251146133cd576040517f08c379a00000000000000000000000000000000000000000000000000000000081526004018080602001828103825260538152602001806150fe6053913960600191505060405180910390fd5b6133ed86600030886133de896143bc565b6133e7896143bc565b8861406c565b600080602060003690500390508035915061340a823388886140e2565b3373ffffffffffffffffffffffffffffffffffffffff16828873ffffffffffffffffffffffffffffffffffffffff167fa18753b0660a8be2cdae03468c860b47c2926433ab16917f323544652803032d8989604051808381526020018281526020019250505060405180910390a463f23a6e6160e01b9250505095945050505050565b60006134a382600361442c90919063ffffffff16565b9050919050565b600033905090565b816005600083815260200190815260200160002060006101000a81548173ffffffffffffffffffffffffffffffffffffffff021916908373ffffffffffffffffffffffffffffffffffffffff160217905550808273ffffffffffffffffffffffffffffffffffffffff16613525836123d6565b73ffffffffffffffffffffffffffffffffffffffff167f8c5be1e5ebec7d5bd14f71427d1e84f3dd0314c0f7b2291e5b200ac8c7c3b92560405160405180910390a45050565b600073ffffffffffffffffffffffffffffffffffffffff168273ffffffffffffffffffffffffffffffffffffffff16141561360e576040517f08c379a00000000000000000000000000000000000000000000000000000000081526004018080602001828103825260208152602001807f4552433732313a206d696e7420746f20746865207a65726f206164647265737381525060200191505060405180910390fd5b6136178161348d565b1561368a576040517f08c379a000000000000000000000000000000000000000000000000000000000815260040180806020018281038252601c8152602001807f4552433732313a20746f6b656e20616c7265616479206d696e7465640000000081525060200191505060405180910390fd5b61369660008383614446565b6136e781600260008573ffffffffffffffffffffffffffffffffffffffff1673ffffffffffffffffffffffffffffffffffffffff1681526020019081526020016000206144b490919063ffffffff16565b506136fe818360036144ce9092919063ffffffff16565b50808273ffffffffffffffffffffffffffffffffffffffff16600073ffffffffffffffffffffffffffffffffffffffff167fddf252ad1be2c89b69c2b068fc378daa952ba7f163c4a11628f55a4df523b3ef60405160405180910390a45050565b600061376d82600001614503565b9050919050565b600061377f8261348d565b6137d4576040517f08c379a000000000000000000000000000000000000000000000000000000000815260040180806020018281038252602c8152602001806151b3602c913960400191505060405180910390fd5b60006137df836123d6565b90508073ffffffffffffffffffffffffffffffffffffffff168473ffffffffffffffffffffffffffffffffffffffff16148061384e57508373ffffffffffffffffffffffffffffffffffffffff16613836846118ad565b73ffffffffffffffffffffffffffffffffffffffff16145b8061385f575061385e818561328a565b5b91505092915050565b8273ffffffffffffffffffffffffffffffffffffffff16613888826123d6565b73ffffffffffffffffffffffffffffffffffffffff16146138f4576040517f08c379a00000000000000000000000000000000000000000000000000000000081526004018080602001828103825260298152602001806153136029913960400191505060405180910390fd5b600073ffffffffffffffffffffffffffffffffffffffff168273ffffffffffffffffffffffffffffffffffffffff16141561397a576040517f08c379a000000000000000000000000000000000000000000000000000000000815260040180806020018281038252602481526020018061518f6024913960400191505060405180910390fd5b613985838383614446565b6139906000826134b2565b6139e181600260008673ffffffffffffffffffffffffffffffffffffffff1673ffffffffffffffffffffffffffffffffffffffff16815260200190815260200160002061451490919063ffffffff16565b50613a3381600260008573ffffffffffffffffffffffffffffffffffffffff1673ffffffffffffffffffffffffffffffffffffffff1681526020019081526020016000206144b490919063ffffffff16565b50613a4a818360036144ce9092919063ffffffff16565b50808273ffffffffffffffffffffffffffffffffffffffff168473ffffffffffffffffffffffffffffffffffffffff167fddf252ad1be2c89b69c2b068fc378daa952ba7f163c4a11628f55a4df523b3ef60405160405180910390a4505050565b6000613ab98260000161452e565b9050919050565b6000613acf836000018361453f565b60001c905092915050565b613b01816000808581526020019081526020016000206000016145c290919063ffffffff16565b15613b6957613b0e6134aa565b73ffffffffffffffffffffffffffffffffffffffff168173ffffffffffffffffffffffffffffffffffffffff16837f2f8788117e7eff1d82e926ec794901d17c78024a50270940304540a733656f0d60405160405180910390a45b5050565b613b94816000808581526020019081526020016000206000016145f290919063ffffffff16565b15613bfc57613ba16134aa565b73ffffffffffffffffffffffffffffffffffffffff168173ffffffffffffffffffffffffffffffffffffffff16837ff6391f5c32d9c69d2a47ea670b442974b53935d1edc7fd64eb21e047a839171b60405160405180910390a45b5050565b600f60009054906101000a900460ff16613c82576040517f08c379a00000000000000000000000000000000000000000000000000000000081526004018080602001828103825260148152602001807f5061757361626c653a206e6f742070617573656400000000000000000000000081525060200191505060405180910390fd5b6000600f60006101000a81548160ff0219169083151502179055507f5db9ee0a495bf2e6ff9c91a7834c1ba4fdd244a5e8aa4e537bd38aeae4b073aa613cc66134aa565b604051808273ffffffffffffffffffffffffffffffffffffffff1673ffffffffffffffffffffffffffffffffffffffff16815260200191505060405180910390a1565b6000613d14826123d6565b9050613d2281600084614446565b613d2d6000836134b2565b60006009600084815260200190815260200160002080546001816001161561010002031660029004905014613d7c57600960008381526020019081526020016000206000613d7b9190614fe2565b5b613dcd82600260008473ffffffffffffffffffffffffffffffffffffffff1673ffffffffffffffffffffffffffffffffffffffff16815260200190815260200160002061451490919063ffffffff16565b50613de282600361462290919063ffffffff16565b5081600073ffffffffffffffffffffffffffffffffffffffff168273ffffffffffffffffffffffffffffffffffffffff167fddf252ad1be2c89b69c2b068fc378daa952ba7f163c4a11628f55a4df523b3ef60405160405180910390a45050565b600080600080613e56866000018661463c565b915091508160001c8160001c8090509350935050509250929050565b6000613e85846000018460001b846146d5565b60001c90509392505050565b600f60009054906101000a900460ff1615613f14576040517f08c379a00000000000000000000000000000000000000000000000000000000081526004018080602001828103825260108152602001807f5061757361626c653a207061757365640000000000000000000000000000000081525060200191505060405180910390fd5b6001600f60006101000a81548160ff0219169083151502179055507f62e78cea01bee320cd4e420270b5ea74000d11b0c9f74754ebdbfc544b05a258613f586134aa565b604051808273ffffffffffffffffffffffffffffffffffffffff1673ffffffffffffffffffffffffffffffffffffffff16815260200191505060405180910390a1565b6000613fa98260000161452e565b9050919050565b6000613fbf836000018361453f565b60001c905092915050565b6000613ff2836000018373ffffffffffffffffffffffffffffffffffffffff1660001b6147cb565b905092915050565b614005848484613868565b614011848484846147ee565b614066576040517f08c379a00000000000000000000000000000000000000000000000000000000081526004018080602001828103825260328152602001806150cc6032913960400191505060405180910390fd5b50505050565b614074612352565b156140ca576040517f08c379a000000000000000000000000000000000000000000000000000000000815260040180806020018281038252602b8152602001806152e8602b913960400191505060405180910390fd5b6140d987878787878787614a33565b50505050505050565b61410783600d6000878152602001908152602001600020613fca90919063ffffffff16565b6141325761413083600d60008781526020019081526020016000206145c290919063ffffffff16565b505b6000600b600086815260200190815260200160002060008573ffffffffffffffffffffffffffffffffffffffff1673ffffffffffffffffffffffffffffffffffffffff1681526020019081526020016000206000848152602001908152602001600020541415614200576141fe82600e600085815260200190815260200160002060008673ffffffffffffffffffffffffffffffffffffffff1673ffffffffffffffffffffffffffffffffffffffff1681526020019081526020016000206144b490919063ffffffff16565b505b80600b600086815260200190815260200160002060008573ffffffffffffffffffffffffffffffffffffffff1673ffffffffffffffffffffffffffffffffffffffff16815260200190815260200160002060008481526020019081526020016000206000828254019250508190555050505050565b606060008214156142bd576040518060400160405280600181526020017f300000000000000000000000000000000000000000000000000000000000000081525090506143b7565b600082905060005b600082146142e7578080600101915050600a82816142df57fe5b0491506142c5565b60608167ffffffffffffffff8111801561430057600080fd5b506040519080825280601f01601f1916602001820160405280156143335781602001600182028036833780820191505090505b50905060006001830390508593505b600084146143af57600a848161435457fe5b0660300160f81b8282806001900393508151811061436e57fe5b60200101907effffffffffffffffffffffffffffffffffffffffffffffffffffffffffffff1916908160001a905350600a84816143a757fe5b049350614342565b819450505050505b919050565b606080600167ffffffffffffffff811180156143d757600080fd5b506040519080825280602002602001820160405280156144065781602001602082028036833780820191505090505b509050828160008151811061441757fe5b60200260200101818152505080915050919050565b600061443e836000018360001b614a3c565b905092915050565b61444e612352565b156144a4576040517f08c379a000000000000000000000000000000000000000000000000000000000815260040180806020018281038252602b815260200180615072602b913960400191505060405180910390fd5b6144af838383614a5f565b505050565b60006144c6836000018360001b614a64565b905092915050565b60006144fa846000018460001b8473ffffffffffffffffffffffffffffffffffffffff1660001b614ad4565b90509392505050565b600081600001805490509050919050565b6000614526836000018360001b614bb0565b905092915050565b600081600001805490509050919050565b6000818360000180549050116145a0576040517f08c379a00000000000000000000000000000000000000000000000000000000081526004018080602001828103825260228152602001806150506022913960400191505060405180910390fd5b8260000182815481106145af57fe5b9060005260206000200154905092915050565b60006145ea836000018373ffffffffffffffffffffffffffffffffffffffff1660001b614a64565b905092915050565b600061461a836000018373ffffffffffffffffffffffffffffffffffffffff1660001b614bb0565b905092915050565b6000614634836000018360001b614c98565b905092915050565b6000808284600001805490501161469e576040517f08c379a000000000000000000000000000000000000000000000000000000000815260040180806020018281038252602281526020018061529a6022913960400191505060405180910390fd5b60008460000184815481106146af57fe5b906000526020600020906002020190508060000154816001015492509250509250929050565b6000808460010160008581526020019081526020016000205490506000811415839061479c576040517f08c379a00000000000000000000000000000000000000000000000000000000081526004018080602001828103825283818151815260200191508051906020019080838360005b83811015614761578082015181840152602081019050614746565b50505050905090810190601f16801561478e5780820380516001836020036101000a031916815260200191505b509250505060405180910390fd5b508460000160018203815481106147af57fe5b9060005260206000209060020201600101549150509392505050565b600080836001016000848152602001908152602001600020541415905092915050565b600061480f8473ffffffffffffffffffffffffffffffffffffffff16614db1565b61481c5760019050614a2b565b60606149b263150b7a0260e01b6148316134aa565b888787604051602401808573ffffffffffffffffffffffffffffffffffffffff1673ffffffffffffffffffffffffffffffffffffffff1681526020018473ffffffffffffffffffffffffffffffffffffffff1673ffffffffffffffffffffffffffffffffffffffff16815260200183815260200180602001828103825283818151815260200191508051906020019080838360005b838110156148e15780820151818401526020810190506148c6565b50505050905090810190601f16801561490e5780820380516001836020036101000a031916815260200191505b5095505050505050604051602081830303815290604052907bffffffffffffffffffffffffffffffffffffffffffffffffffffffff19166020820180517bffffffffffffffffffffffffffffffffffffffffffffffffffffffff83818316178352505050506040518060600160405280603281526020016150cc603291398773ffffffffffffffffffffffffffffffffffffffff16614dc49092919063ffffffff16565b905060008180602001905160208110156149cb57600080fd5b8101908080519060200190929190505050905063150b7a0260e01b7bffffffffffffffffffffffffffffffffffffffffffffffffffffffff1916817bffffffffffffffffffffffffffffffffffffffffffffffffffffffff191614925050505b949350505050565b50505050505050565b600080836001016000848152602001908152602001600020541415905092915050565b505050565b6000614a7083836147cb565b614ac9578260000182908060018154018082558091505060019003906000526020600020016000909190919091505582600001805490508360010160008481526020019081526020016000208190555060019050614ace565b600090505b92915050565b6000808460010160008581526020019081526020016000205490506000811415614b7b57846000016040518060400160405280868152602001858152509080600181540180825580915050600190039060005260206000209060020201600090919091909150600082015181600001556020820151816001015550508460000180549050856001016000868152602001908152602001600020819055506001915050614ba9565b82856000016001830381548110614b8e57fe5b90600052602060002090600202016001018190555060009150505b9392505050565b60008083600101600084815260200190815260200160002054905060008114614c8c5760006001820390506000600186600001805490500390506000866000018281548110614bfb57fe5b9060005260206000200154905080876000018481548110614c1857fe5b9060005260206000200181905550600183018760010160008381526020019081526020016000208190555086600001805480614c5057fe5b60019003818190600052602060002001600090559055866001016000878152602001908152602001600020600090556001945050505050614c92565b60009150505b92915050565b60008083600101600084815260200190815260200160002054905060008114614da55760006001820390506000600186600001805490500390506000866000018281548110614ce357fe5b9060005260206000209060020201905080876000018481548110614d0357fe5b9060005260206000209060020201600082015481600001556001820154816001015590505060018301876001016000836000015481526020019081526020016000208190555086600001805480614d5657fe5b6001900381819060005260206000209060020201600080820160009055600182016000905550509055866001016000878152602001908152602001600020600090556001945050505050614dab565b60009150505b92915050565b600080823b905060008111915050919050565b6060614dd38484600085614ddc565b90509392505050565b6060614de785614db1565b614e59576040517f08c379a000000000000000000000000000000000000000000000000000000000815260040180806020018281038252601d8152602001807f416464726573733a2063616c6c20746f206e6f6e2d636f6e747261637400000081525060200191505060405180910390fd5b600060608673ffffffffffffffffffffffffffffffffffffffff1685876040518082805190602001908083835b60208310614ea95780518252602082019150602081019050602083039250614e86565b6001836020036101000a03801982511681845116808217855250505050505090500191505060006040518083038185875af1925050503d8060008114614f0b576040519150601f19603f3d011682016040523d82523d6000602084013e614f10565b606091505b50915091508115614f25578092505050614fda565b600081511115614f385780518082602001fd5b836040517f08c379a00000000000000000000000000000000000000000000000000000000081526004018080602001828103825283818151815260200191508051906020019080838360005b83811015614f9f578082015181840152602081019050614f84565b50505050905090810190601f168015614fcc5780820380516001836020036101000a031916815260200191505b509250505060405180910390fd5b949350505050565b50805460018160011615610100020316600290046000825580601f106150085750615027565b601f016020900490600052602060002090810190615026919061502a565b5b50565b61504c91905b80821115615048576000816000905550600101615030565b5090565b9056fe456e756d657261626c655365743a20696e646578206f7574206f6620626f756e64734552433732315061757361626c653a20746f6b656e207472616e73666572207768696c6520706175736564416363657373436f6e74726f6c3a2073656e646572206d75737420626520616e2061646d696e20746f206772616e744552433732313a207472616e7366657220746f206e6f6e20455243373231526563656976657220696d706c656d656e7465724552433939383a2064617461206d75737420636f6e7461696e2074686520756e697175652075696e7432353620746f6b656e496420746f207472616e7366657220746865206368696c6420746f6b656e20746f4552433732315072657365744d696e7465725061757365724175746f49643a206d75737420686176652070617573657220726f6c6520746f2070617573654552433732313a207472616e7366657220746f20746865207a65726f20616464726573734552433732313a206f70657261746f7220717565727920666f72206e6f6e6578697374656e7420746f6b656e416363657373436f6e74726f6c3a2073656e646572206d75737420626520616e2061646d696e20746f207265766f6b654552433732313a20617070726f76652063616c6c6572206973206e6f74206f776e6572206e6f7220617070726f76656420666f7220616c6c4552433732313a2062616c616e636520717565727920666f7220746865207a65726f20616464726573734552433732313a206f776e657220717565727920666f72206e6f6e6578697374656e7420746f6b656e456e756d657261626c654d61703a20696e646578206f7574206f6620626f756e64734552433732313a20617070726f76656420717565727920666f72206e6f6e6578697374656e7420746f6b656e4552433939385061757361626c653a206368696c64207472616e73666572207768696c65207061757365644552433732313a207472616e73666572206f6620746f6b656e2074686174206973206e6f74206f776e4552433732314d657461646174613a2055524920717565727920666f72206e6f6e6578697374656e7420746f6b656e4552433732313a206d696e74696e6720776f756c64206361757365206f766572666c6f774552433732313a20617070726f76616c20746f2063757272656e74206f776e6572455243313135353a2069647320616e642076616c756573206c656e677468206d69736d617463684552433732313a207472616e736665722063616c6c6572206973206e6f74206f776e6572206e6f7220617070726f7665644552433732313a2063616e6e6f74206f776e2073616d6520746f6b656e2074776963654552433732314275726e61626c653a2063616c6c6572206973206e6f74206f776e6572206e6f7220617070726f7665644552433732315072657365744d696e7465725061757365724175746f49643a206d75737420686176652070617573657220726f6c6520746f20756e7061757365416363657373436f6e74726f6c3a2063616e206f6e6c792072656e6f756e636520726f6c657320666f722073656c66a2646970667358221220482c1158027b09e644e994e4b21b5f006bf24ce121469f27e591ef9ffa050fa664736f6c63430006060033",
  "immutableReferences": {},
  "source": "// SPDX-License-Identifier: MIT\n\npragma solidity ^0.6.0;\nimport \"@openzeppelin/contracts/access/AccessControl.sol\";\nimport \"@openzeppelin/contracts/GSN/Context.sol\";\nimport \"@openzeppelin/contracts/utils/Pausable.sol\";\nimport \"@openzeppelin/contracts/utils/ReentrancyGuard.sol\";\nimport \"./ERC1155TopDown.sol\";\n\n/**\n * @title ComposableParentERC721\n *\n * @author respect-club\n *\n * @notice Level-based Social NFTs, incentivizing fans through un-lockable perks & engagement.\n *\n */\n\n/**\n * @dev {ERC998} token, including:\n *\n *  - ability for holders to burn (destroy) their tokens\n *  - a minter role that allows for token minting (creation)\n *  - a pauser role that allows to stop all token transfers\n *\n * This contract uses {AccessControl} to lock permissioned functions using the\n * different roles - head to its documentation for details.\n *\n * {DEFAULT_ADMIN_ROLE , ADMIN_ROLE , MINTER_ROLE , PAUSER_ROLE}\n *\n *\n * The account that deploys the contract will be granted the minter and pauser\n * roles, as well as the default admin role, which will let it grant both minter\n * and pauser roles to other accounts.\n */\n\ncontract ComposableParentERC721 is\n    Context,\n    AccessControl,\n    ERC1155TopDown,\n    Pausable,\n    ReentrancyGuard\n{\n    // EVENTS\n    event NFTMinted(address indexed NFTowner, uint256 indexed tokenId);\n    event NFTMintPriceUpdated(uint256 indexed price);\n    event TierUpgradePriceUpdated(\n        uint256 indexed tierId,\n        uint256 indexed price\n    );\n    event MaxSupplyUpdated(uint256 _value);\n\n    using SafeMath for uint256;\n\n    uint256 composableCount;\n\n    uint256 public maxSupply = 100;\n    uint256 public mintCost = 2 ether;\n\n    bytes32 public constant MINTER_ROLE = keccak256(\"MINTER_ROLE\");\n    bytes32 public constant PAUSER_ROLE = keccak256(\"PAUSER_ROLE\");\n    bytes32 public constant ADMIN_ROLE = keccak256(\"ADMIN_ROLE\");\n\n    mapping(uint256 => uint256) tierIdtoUpgradeCost;\n    mapping(address => uint256) public ownerToComposableId;\n\n    address payable owner;\n\n    /**\n     * @dev Grants `DEFAULT_ADMIN_ROLE`, `MINTER_ROLE` and `PAUSER_ROLE` to the\n     * account that deploys the contract.\n     *\n     * Token URIs will be autogenerated based on `baseURI` and their token IDs.\n     * See {ERC721-tokenURI}.\n     */\n    constructor(\n        string memory name,\n        string memory symbol,\n        string memory baseURI,\n        uint256 firstUpgradeEngagementPoints // at 115 tierId 0\n    ) public ERC1155TopDown(name, symbol, baseURI) {\n        _setupRole(ADMIN_ROLE, _msgSender());\n        _setupRole(MINTER_ROLE, _msgSender());\n        _setupRole(PAUSER_ROLE, _msgSender());\n\n        owner = payable(msg.sender);\n        composableCount = 0;\n        tierIdtoUpgradeCost[1] = firstUpgradeEngagementPoints;\n    }\n\n    //PUBLIC GETTERS\n\n    /**\n     * @notice Fetches composable Id for an owner\n     *\n     * @param _owner composable NFT owner\n     *\n     */\n    function getComposableId(address _owner) public view returns (uint256) {\n        return ownerToComposableId[_owner];\n    }\n\n    /**\n     * @notice Fetches total number of minted snft\n     *\n     *\n     * @return uint256\n     */\n    function getComposableCount() public view returns (uint256) {\n        return composableCount;\n    }\n\n    /**\n     * @notice Fetches cost of minting snft of the creator\n     *\n     * @return uint256 mintCost\n     *\n     */\n\n    function getMintCost() public view returns (uint256) {\n        return mintCost;\n    }\n\n    /**\n     * @notice Fetches amount of engagement points req to upgrade to tier(_tierId)\n     *\n     * @param _tierId tierId\n     *\n     * @return uint _cost\n     *\n     */\n    function getTierUpgradeCost(uint256 _tierId) public view returns (uint256) {\n        return tierIdtoUpgradeCost[_tierId];\n    }\n\n    /**\n     * @notice Fetches current level of an snft\n     *\n     * @param _composableId composableId\n     *\n     * @param _childContract address of linked ComposableChildrenERC1155 contract\n     *\n     * @return uint cost\n     *\n     */\n    function getLevel(uint256 _composableId, address _childContract)\n        public\n        view\n        returns (uint256)\n    {\n        uint256 count = 0;\n        for (uint256 i = 1; i < maxSupply; i++) {\n            if (childBalance(_composableId, _childContract, i) == 1) {\n                count += 1;\n            } else {\n                break;\n            }\n        }\n        return count;\n    }\n\n    //PUBLIC SETTERS\n\n    /**\n     * @notice Sets Max limit of minting SNFT\n     *\n     * @dev ADMIN_ROLE\n     *\n     * @param _value new max supply value\n     *\n     *\n     */\n\n    function changeMaxSupply(uint256 _value) public {\n        require(\n            hasRole(ADMIN_ROLE, _msgSender()),\n            \"Unauthorized total supply setter\"\n        );\n        maxSupply = _value;\n    }\n\n    /**\n     *@dev 1-tierPrice1 for first upgrade L0 to L1 ,2-tierPrice2\n     *\n     *@notice  set tier upgrade price\n        maxSupply = _value;\n        emit MaxSupplyUpdated(_value);\n    }\n\n    /**\n     * @notice  Sets Tier upgrade price, indexed from 1.\n     *\n     * @dev ADMIN_ROLE\n     *\n     */\n\n    function setTierUpgradeCost(uint256 _tierId, uint256 _cost) public {\n        require(\n            hasRole(ADMIN_ROLE, _msgSender()),\n            \"Unauthorized tier price setter\"\n        );\n\n        tierIdtoUpgradeCost[_tierId] = _cost;\n        emit TierUpgradePriceUpdated(_tierId, _cost);\n    }\n\n    /**\n     * @notice Set cost of minting snft.\n     *\n     * @dev ADMIN_ROLE\n     *\n     * @param _cost minting cost ether/matic\n     *\n     */\n    function setMintCost(uint256 _cost) public {\n        require(hasRole(ADMIN_ROLE, _msgSender()));\n        mintCost = _cost;\n        emit NFTMintPriceUpdated(_cost);\n    }\n\n    // CORE\n\n    /**\n     * @dev Creates a new token for `to`. The token URI autogenerated based on\n     * the base URI passed at construction and the token ID.\n     *\n     * See {ERC721-_mint}.\n     *\n     * Requirements:\n     *\n     * - the caller must have the `MINTER_ROLE`.\n     */\n\n    // >one account can only mint one snft\n    // We cannot just use balanceOf to create the new tokenId because tokens\n    // can be burned (destroyed), so we need a separate counter.\n\n    function mint() public payable virtual nonReentrant {\n        require(msg.value == mintCost, \"ERC721: must pay the mint cost\");\n\n        require(\n            balanceOf(msg.sender) == 0,\n            \"ERC721: cannot own same token twice\"\n        );\n\n        uint256 tokenId = composableCount + 1; //totalSupply()\n\n        require(tokenId <= maxSupply, \"ERC721: minting would cause overflow\");\n\n        _mint(msg.sender, tokenId);\n        ownerToComposableId[msg.sender] = tokenId;\n        composableCount = tokenId;\n        payable(owner).transfer(msg.value);\n\n        emit NFTMinted(msg.sender, tokenId);\n    }\n\n    /**\n     * @dev Burns `tokenId`. See {ERC721-_burn}.\n     *\n     * Requirements:\n     *\n     * - The caller must own `tokenId` or be an approved operator.\n     */\n    function burn(uint256 tokenId) public virtual {\n        //solhint-disable-next-line max-line-length\n        require(\n            _isApprovedOrOwner(_msgSender(), tokenId),\n            \"ERC721Burnable: caller is not owner nor approved\"\n        );\n        _burn(tokenId);\n    }\n\n    /**\n     * @dev Pauses all token transfers.\n     *\n     * See {ERC721Pausable} and {Pausable-_pause}.\n     *\n     * Requirements:\n     *\n     * - the caller must have the `PAUSER_ROLE`.\n     */\n    function pause() public virtual {\n        require(\n            hasRole(PAUSER_ROLE, _msgSender()),\n            \"ERC721PresetMinterPauserAutoId: must have pauser role to pause\"\n        );\n        _pause();\n    }\n\n    /**\n     * @dev Unpauses all token transfers.\n     *\n     * See {ERC721Pausable} and {Pausable-_unpause}.\n     *\n     * Requirements:\n     *\n     * - the caller must have the `PAUSER_ROLE`.\n     */\n    function unpause() public virtual {\n        require(\n            hasRole(PAUSER_ROLE, _msgSender()),\n            \"ERC721PresetMinterPauserAutoId: must have pauser role to unpause\"\n        );\n        _unpause();\n    }\n\n    /**\n     * @dev See {ERC721-_beforeTokenTransfer}.\n     *\n     * Requirements:\n     *\n     * - the contract must not be paused.\n     */\n    function _beforeTokenTransfer(\n        address from,\n        address to,\n        uint256 tokenId\n    ) internal virtual override {\n        require(!paused(), \"ERC721Pausable: token transfer while paused\");\n\n        super._beforeTokenTransfer(from, to, tokenId);\n    }\n\n    function _beforeChildTransfer(\n        address operator,\n        uint256 fromTokenId,\n        address to,\n        address childContract,\n        uint256[] memory ids,\n        uint256[] memory amounts,\n        bytes memory data\n    ) internal virtual override {\n        require(!paused(), \"ERC998Pausable: child transfer while paused\");\n\n        super._beforeChildTransfer(\n            operator,\n            fromTokenId,\n            to,\n            childContract,\n            ids,\n            amounts,\n            data\n        );\n    }\n}\n",
  "sourcePath": "/home/waverune/respct-club/ERC998ERC1155/contracts/ComposableParentERC721.sol",
  "compiler": {
    "name": "solc",
    "version": "0.6.6+commit.6c089d02.Emscripten.clang"
  },
  "schemaVersion": "3.4.1",
  "updatedAt": "2022-04-07T18:38:49.961Z",
  "devdoc": {
    "details": "{ERC998} token, including: *  - ability for holders to burn (destroy) their tokens - a minter role that allows for token minting (creation) - a pauser role that allows to stop all token transfers * This contract uses {AccessControl} to lock permissioned functions using the different roles - head to its documentation for details. * {DEFAULT_ADMIN_ROLE , ADMIN_ROLE , MINTER_ROLE , PAUSER_ROLE} * The account that deploys the contract will be granted the minter and pauser roles, as well as the default admin role, which will let it grant both minter and pauser roles to other accounts.",
    "methods": {
      "approve(address,uint256)": {
        "details": "See {IERC721-approve}."
      },
      "balanceOf(address)": {
        "details": "See {IERC721-balanceOf}."
      },
      "baseURI()": {
        "details": "Returns the base URI set via {_setBaseURI}. This will be automatically added as a prefix in {tokenURI} to each token's URI, or to the token ID if no specific URI is set for that token ID."
      },
      "burn(uint256)": {
        "details": "Burns `tokenId`. See {ERC721-_burn}.     * Requirements:     * - The caller must own `tokenId` or be an approved operator."
      },
      "changeMaxSupply(uint256)": {
        "details": "ADMIN_ROLE",
        "params": {
          "_value": "new max supply value     *"
        }
      },
      "childBalance(uint256,address,uint256)": {
        "details": "Gives child balance for a specific child contract and child id .",
        "params": {
          "childContract": "1155tier upgrade contract",
          "composableId": ", composable ID",
          "tierId": "tier level"
        },
        "returns": {
          "_0": "uint tier"
        }
      },
      "childContractsFor(uint256)": {
        "details": "Gives list of child contract where token ID has childs."
      },
      "childIdsForOn(uint256,address)": {
        "details": "Gives list of owned child ID on a child contract by token ID."
      },
      "constructor": {
        "details": "Grants `DEFAULT_ADMIN_ROLE`, `MINTER_ROLE` and `PAUSER_ROLE` to the account that deploys the contract.     * Token URIs will be autogenerated based on `baseURI` and their token IDs. See {ERC721-tokenURI}."
      },
      "getApproved(uint256)": {
        "details": "See {IERC721-getApproved}."
      },
      "getComposableId(address)": {
        "params": {
          "_owner": "composable NFT owner     "
        }
      },
      "getLevel(uint256,address)": {
        "params": {
          "_childContract": "address of linked ComposableChildrenERC1155 contract",
          "_composableId": "composableId"
        },
        "returns": {
          "_0": "uint cost     "
        }
      },
      "getRoleAdmin(bytes32)": {
        "details": "Returns the admin role that controls `role`. See {grantRole} and {revokeRole}.     * To change a role's admin, use {_setRoleAdmin}."
      },
      "getRoleMember(bytes32,uint256)": {
        "details": "Returns one of the accounts that have `role`. `index` must be a value between 0 and {getRoleMemberCount}, non-inclusive.     * Role bearers are not sorted in any particular way, and their ordering may change at any point.     * WARNING: When using {getRoleMember} and {getRoleMemberCount}, make sure you perform all queries on the same block. See the following https://forum.openzeppelin.com/t/iterating-over-elements-on-enumerableset-in-openzeppelin-contracts/2296[forum post] for more information."
      },
      "getRoleMemberCount(bytes32)": {
        "details": "Returns the number of accounts that have `role`. Can be used together with {getRoleMember} to enumerate all bearers of a role."
      },
      "getTierUpgradeCost(uint256)": {
        "params": {
          "_tierId": "tierId"
        },
        "returns": {
          "_0": "uint _cost     "
        }
      },
      "grantRole(bytes32,address)": {
        "details": "Grants `role` to `account`.     * If `account` had not been already granted `role`, emits a {RoleGranted} event.     * Requirements:     * - the caller must have ``role``'s admin role."
      },
      "hasRole(bytes32,address)": {
        "details": "Returns `true` if `account` has been granted `role`."
      },
      "isApprovedForAll(address,address)": {
        "details": "See {IERC721-isApprovedForAll}."
      },
      "mint()": {
        "details": "Creates a new token for `to`. The token URI autogenerated based on the base URI passed at construction and the token ID.     * See {ERC721-_mint}.     * Requirements:     * - the caller must have the `MINTER_ROLE`."
      },
      "name()": {
        "details": "See {IERC721Metadata-name}."
      },
      "onERC1155BatchReceived(address,address,uint256[],uint256[],bytes)": {
        "details": "Receives a batch of child tokens, the receiver token ID must be encoded in the field data."
      },
      "ownerOf(uint256)": {
        "details": "See {IERC721-ownerOf}."
      },
      "pause()": {
        "details": "Pauses all token transfers.     * See {ERC721Pausable} and {Pausable-_pause}.     * Requirements:     * - the caller must have the `PAUSER_ROLE`."
      },
      "paused()": {
        "details": "Returns true if the contract is paused, and false otherwise."
      },
      "renounceRole(bytes32,address)": {
        "details": "Revokes `role` from the calling account.     * Roles are often managed via {grantRole} and {revokeRole}: this function's purpose is to provide a mechanism for accounts to lose their privileges if they are compromised (such as when a trusted device is misplaced).     * If the calling account had been granted `role`, emits a {RoleRevoked} event.     * Requirements:     * - the caller must be `account`."
      },
      "revokeRole(bytes32,address)": {
        "details": "Revokes `role` from `account`.     * If `account` had been granted `role`, emits a {RoleRevoked} event.     * Requirements:     * - the caller must have ``role``'s admin role."
      },
      "safeTransferFrom(address,address,uint256)": {
        "details": "See {IERC721-safeTransferFrom}."
      },
      "safeTransferFrom(address,address,uint256,bytes)": {
        "details": "See {IERC721-safeTransferFrom}."
      },
      "setApprovalForAll(address,bool)": {
        "details": "See {IERC721-setApprovalForAll}."
      },
      "setMintCost(uint256)": {
        "details": "ADMIN_ROLE",
        "params": {
          "_cost": "minting cost ether/matic     "
        }
      },
      "setTierUpgradeCost(uint256,uint256)": {
        "details": "ADMIN_ROLE     "
      },
      "supportsInterface(bytes4)": {
        "details": "See {IERC165-supportsInterface}.     * Time complexity O(1), guaranteed to always use less than 30 000 gas."
      },
      "symbol()": {
        "details": "See {IERC721Metadata-symbol}."
      },
      "tokenByIndex(uint256)": {
        "details": "See {IERC721Enumerable-tokenByIndex}."
      },
      "tokenOfOwnerByIndex(address,uint256)": {
        "details": "See {IERC721Enumerable-tokenOfOwnerByIndex}."
      },
      "tokenURI(uint256)": {
        "details": "See {IERC721Metadata-tokenURI}."
      },
      "totalSupply()": {
        "details": "See {IERC721Enumerable-totalSupply}."
      },
      "transferFrom(address,address,uint256)": {
        "details": "See {IERC721-transferFrom}."
      },
      "unpause()": {
        "details": "Unpauses all token transfers.     * See {ERC721Pausable} and {Pausable-_unpause}.     * Requirements:     * - the caller must have the `PAUSER_ROLE`."
      }
    }
  },
  "userdoc": {
    "methods": {
      "changeMaxSupply(uint256)": {
        "notice": "Sets Max limit of minting SNFT"
      },
      "childBalance(uint256,address,uint256)": {
        "notice": "tier level for a composable     *"
      },
      "childContractsFor(uint256)": {
        "notice": "*"
      },
      "getComposableCount()": {
        "notice": "Fetches total number of minted snft     *"
      },
      "getComposableId(address)": {
        "notice": "Fetches composable Id for an owner"
      },
      "getLevel(uint256,address)": {
        "notice": "Fetches current level of an snft"
      },
      "getMintCost()": {
        "notice": "Fetches cost of minting snft of the creator"
      },
      "getTierUpgradeCost(uint256)": {
        "notice": "Fetches amount of engagement points req to upgrade to tier(_tierId)"
      },
      "setMintCost(uint256)": {
        "notice": "Set cost of minting snft."
      },
      "setTierUpgradeCost(uint256,uint256)": {
        "notice": "dev 1-tierPrice1 for first upgrade L0 to L1 ,2-tierPrice2set tier upgrade price maxSupply = _value; emit MaxSupplyUpdated(_value); } /**Sets Tier upgrade price, indexed from 1."
      }
    }
  }
}