{
  "contractName": "ERC1155TierUpgradePresetMinterPauser",
  "abi": [
    {
      "inputs": [
        {
          "internalType": "string",
          "name": "_name",
          "type": "string"
        },
        {
          "internalType": "string",
          "name": "_symbol",
          "type": "string"
        },
        {
          "internalType": "string",
          "name": "_baseURI",
          "type": "string"
        },
        {
          "internalType": "uint256",
          "name": "_csnftBasePrice",
          "type": "uint256"
        },
        {
          "internalType": "string",
          "name": "tierUri",
          "type": "string"
        }
      ],
      "stateMutability": "nonpayable",
      "type": "constructor"
    },
    {
      "anonymous": false,
      "inputs": [
        {
          "indexed": true,
          "internalType": "address",
          "name": "account",
          "type": "address"
        },
        {
          "indexed": true,
          "internalType": "address",
          "name": "operator",
          "type": "address"
        },
        {
          "indexed": false,
          "internalType": "bool",
          "name": "approved",
          "type": "bool"
        }
      ],
      "name": "ApprovalForAll",
      "type": "event"
    },
    {
      "anonymous": false,
      "inputs": [
        {
          "indexed": false,
          "internalType": "address",
          "name": "account",
          "type": "address"
        }
      ],
      "name": "Paused",
      "type": "event"
    },
    {
      "anonymous": false,
      "inputs": [
        {
          "indexed": true,
          "internalType": "bytes32",
          "name": "role",
          "type": "bytes32"
        },
        {
          "indexed": true,
          "internalType": "bytes32",
          "name": "previousAdminRole",
          "type": "bytes32"
        },
        {
          "indexed": true,
          "internalType": "bytes32",
          "name": "newAdminRole",
          "type": "bytes32"
        }
      ],
      "name": "RoleAdminChanged",
      "type": "event"
    },
    {
      "anonymous": false,
      "inputs": [
        {
          "indexed": true,
          "internalType": "bytes32",
          "name": "role",
          "type": "bytes32"
        },
        {
          "indexed": true,
          "internalType": "address",
          "name": "account",
          "type": "address"
        },
        {
          "indexed": true,
          "internalType": "address",
          "name": "sender",
          "type": "address"
        }
      ],
      "name": "RoleGranted",
      "type": "event"
    },
    {
      "anonymous": false,
      "inputs": [
        {
          "indexed": true,
          "internalType": "bytes32",
          "name": "role",
          "type": "bytes32"
        },
        {
          "indexed": true,
          "internalType": "address",
          "name": "account",
          "type": "address"
        },
        {
          "indexed": true,
          "internalType": "address",
          "name": "sender",
          "type": "address"
        }
      ],
      "name": "RoleRevoked",
      "type": "event"
    },
    {
      "anonymous": false,
      "inputs": [
        {
          "indexed": true,
          "internalType": "address",
          "name": "operator",
          "type": "address"
        },
        {
          "indexed": true,
          "internalType": "address",
          "name": "from",
          "type": "address"
        },
        {
          "indexed": true,
          "internalType": "address",
          "name": "to",
          "type": "address"
        },
        {
          "indexed": false,
          "internalType": "uint256[]",
          "name": "ids",
          "type": "uint256[]"
        },
        {
          "indexed": false,
          "internalType": "uint256[]",
          "name": "values",
          "type": "uint256[]"
        }
      ],
      "name": "TransferBatch",
      "type": "event"
    },
    {
      "anonymous": false,
      "inputs": [
        {
          "indexed": true,
          "internalType": "address",
          "name": "operator",
          "type": "address"
        },
        {
          "indexed": true,
          "internalType": "address",
          "name": "from",
          "type": "address"
        },
        {
          "indexed": true,
          "internalType": "address",
          "name": "to",
          "type": "address"
        },
        {
          "indexed": false,
          "internalType": "uint256",
          "name": "id",
          "type": "uint256"
        },
        {
          "indexed": false,
          "internalType": "uint256",
          "name": "value",
          "type": "uint256"
        }
      ],
      "name": "TransferSingle",
      "type": "event"
    },
    {
      "anonymous": false,
      "inputs": [
        {
          "indexed": false,
          "internalType": "string",
          "name": "value",
          "type": "string"
        },
        {
          "indexed": true,
          "internalType": "uint256",
          "name": "id",
          "type": "uint256"
        }
      ],
      "name": "URI",
      "type": "event"
    },
    {
      "anonymous": false,
      "inputs": [
        {
          "indexed": false,
          "internalType": "address",
          "name": "account",
          "type": "address"
        }
      ],
      "name": "Unpaused",
      "type": "event"
    },
    {
      "inputs": [],
      "name": "DEFAULT_ADMIN_ROLE",
      "outputs": [
        {
          "internalType": "bytes32",
          "name": "",
          "type": "bytes32"
        }
      ],
      "stateMutability": "view",
      "type": "function"
    },
    {
      "inputs": [],
      "name": "MINTER_ROLE",
      "outputs": [
        {
          "internalType": "bytes32",
          "name": "",
          "type": "bytes32"
        }
      ],
      "stateMutability": "view",
      "type": "function"
    },
    {
      "inputs": [],
      "name": "PAUSER_ROLE",
      "outputs": [
        {
          "internalType": "bytes32",
          "name": "",
          "type": "bytes32"
        }
      ],
      "stateMutability": "view",
      "type": "function"
    },
    {
      "inputs": [
        {
          "internalType": "address",
          "name": "account",
          "type": "address"
        },
        {
          "internalType": "uint256",
          "name": "id",
          "type": "uint256"
        }
      ],
      "name": "balanceOf",
      "outputs": [
        {
          "internalType": "uint256",
          "name": "",
          "type": "uint256"
        }
      ],
      "stateMutability": "view",
      "type": "function"
    },
    {
      "inputs": [
        {
          "internalType": "address[]",
          "name": "accounts",
          "type": "address[]"
        },
        {
          "internalType": "uint256[]",
          "name": "ids",
          "type": "uint256[]"
        }
      ],
      "name": "balanceOfBatch",
      "outputs": [
        {
          "internalType": "uint256[]",
          "name": "",
          "type": "uint256[]"
        }
      ],
      "stateMutability": "view",
      "type": "function"
    },
    {
      "inputs": [
        {
          "internalType": "address",
          "name": "account",
          "type": "address"
        },
        {
          "internalType": "uint256",
          "name": "id",
          "type": "uint256"
        },
        {
          "internalType": "uint256",
          "name": "value",
          "type": "uint256"
        }
      ],
      "name": "burn",
      "outputs": [],
      "stateMutability": "nonpayable",
      "type": "function"
    },
    {
      "inputs": [
        {
          "internalType": "address",
          "name": "account",
          "type": "address"
        },
        {
          "internalType": "uint256[]",
          "name": "ids",
          "type": "uint256[]"
        },
        {
          "internalType": "uint256[]",
          "name": "values",
          "type": "uint256[]"
        }
      ],
      "name": "burnBatch",
      "outputs": [],
      "stateMutability": "nonpayable",
      "type": "function"
    },
    {
      "inputs": [
        {
          "internalType": "bytes32",
          "name": "role",
          "type": "bytes32"
        }
      ],
      "name": "getRoleAdmin",
      "outputs": [
        {
          "internalType": "bytes32",
          "name": "",
          "type": "bytes32"
        }
      ],
      "stateMutability": "view",
      "type": "function"
    },
    {
      "inputs": [
        {
          "internalType": "bytes32",
          "name": "role",
          "type": "bytes32"
        },
        {
          "internalType": "uint256",
          "name": "index",
          "type": "uint256"
        }
      ],
      "name": "getRoleMember",
      "outputs": [
        {
          "internalType": "address",
          "name": "",
          "type": "address"
        }
      ],
      "stateMutability": "view",
      "type": "function"
    },
    {
      "inputs": [
        {
          "internalType": "bytes32",
          "name": "role",
          "type": "bytes32"
        }
      ],
      "name": "getRoleMemberCount",
      "outputs": [
        {
          "internalType": "uint256",
          "name": "",
          "type": "uint256"
        }
      ],
      "stateMutability": "view",
      "type": "function"
    },
    {
      "inputs": [
        {
          "internalType": "bytes32",
          "name": "role",
          "type": "bytes32"
        },
        {
          "internalType": "address",
          "name": "account",
          "type": "address"
        }
      ],
      "name": "grantRole",
      "outputs": [],
      "stateMutability": "nonpayable",
      "type": "function"
    },
    {
      "inputs": [
        {
          "internalType": "bytes32",
          "name": "role",
          "type": "bytes32"
        },
        {
          "internalType": "address",
          "name": "account",
          "type": "address"
        }
      ],
      "name": "hasRole",
      "outputs": [
        {
          "internalType": "bool",
          "name": "",
          "type": "bool"
        }
      ],
      "stateMutability": "view",
      "type": "function"
    },
    {
      "inputs": [
        {
          "internalType": "address",
          "name": "account",
          "type": "address"
        },
        {
          "internalType": "address",
          "name": "operator",
          "type": "address"
        }
      ],
      "name": "isApprovedForAll",
      "outputs": [
        {
          "internalType": "bool",
          "name": "",
          "type": "bool"
        }
      ],
      "stateMutability": "view",
      "type": "function"
    },
    {
      "inputs": [
        {
          "internalType": "address",
          "name": "to",
          "type": "address"
        },
        {
          "internalType": "uint256",
          "name": "id",
          "type": "uint256"
        },
        {
          "internalType": "uint256",
          "name": "amount",
          "type": "uint256"
        },
        {
          "internalType": "bytes",
          "name": "data",
          "type": "bytes"
        }
      ],
      "name": "mint",
      "outputs": [],
      "stateMutability": "nonpayable",
      "type": "function"
    },
    {
      "inputs": [
        {
          "internalType": "address",
          "name": "to",
          "type": "address"
        },
        {
          "internalType": "uint256[]",
          "name": "ids",
          "type": "uint256[]"
        },
        {
          "internalType": "uint256[]",
          "name": "amounts",
          "type": "uint256[]"
        },
        {
          "internalType": "bytes",
          "name": "data",
          "type": "bytes"
        }
      ],
      "name": "mintBatch",
      "outputs": [],
      "stateMutability": "nonpayable",
      "type": "function"
    },
    {
      "inputs": [],
      "name": "pause",
      "outputs": [],
      "stateMutability": "nonpayable",
      "type": "function"
    },
    {
      "inputs": [],
      "name": "paused",
      "outputs": [
        {
          "internalType": "bool",
          "name": "",
          "type": "bool"
        }
      ],
      "stateMutability": "view",
      "type": "function"
    },
    {
      "inputs": [
        {
          "internalType": "bytes32",
          "name": "role",
          "type": "bytes32"
        },
        {
          "internalType": "address",
          "name": "account",
          "type": "address"
        }
      ],
      "name": "renounceRole",
      "outputs": [],
      "stateMutability": "nonpayable",
      "type": "function"
    },
    {
      "inputs": [
        {
          "internalType": "bytes32",
          "name": "role",
          "type": "bytes32"
        },
        {
          "internalType": "address",
          "name": "account",
          "type": "address"
        }
      ],
      "name": "revokeRole",
      "outputs": [],
      "stateMutability": "nonpayable",
      "type": "function"
    },
    {
      "inputs": [
        {
          "internalType": "address",
          "name": "from",
          "type": "address"
        },
        {
          "internalType": "address",
          "name": "to",
          "type": "address"
        },
        {
          "internalType": "uint256[]",
          "name": "ids",
          "type": "uint256[]"
        },
        {
          "internalType": "uint256[]",
          "name": "amounts",
          "type": "uint256[]"
        },
        {
          "internalType": "bytes",
          "name": "data",
          "type": "bytes"
        }
      ],
      "name": "safeBatchTransferFrom",
      "outputs": [],
      "stateMutability": "nonpayable",
      "type": "function"
    },
    {
      "inputs": [
        {
          "internalType": "address",
          "name": "from",
          "type": "address"
        },
        {
          "internalType": "address",
          "name": "to",
          "type": "address"
        },
        {
          "internalType": "uint256",
          "name": "id",
          "type": "uint256"
        },
        {
          "internalType": "uint256",
          "name": "amount",
          "type": "uint256"
        },
        {
          "internalType": "bytes",
          "name": "data",
          "type": "bytes"
        }
      ],
      "name": "safeTransferFrom",
      "outputs": [],
      "stateMutability": "nonpayable",
      "type": "function"
    },
    {
      "inputs": [
        {
          "internalType": "address",
          "name": "operator",
          "type": "address"
        },
        {
          "internalType": "bool",
          "name": "approved",
          "type": "bool"
        }
      ],
      "name": "setApprovalForAll",
      "outputs": [],
      "stateMutability": "nonpayable",
      "type": "function"
    },
    {
      "inputs": [
        {
          "internalType": "bytes4",
          "name": "interfaceId",
          "type": "bytes4"
        }
      ],
      "name": "supportsInterface",
      "outputs": [
        {
          "internalType": "bool",
          "name": "",
          "type": "bool"
        }
      ],
      "stateMutability": "view",
      "type": "function"
    },
    {
      "inputs": [],
      "name": "unpause",
      "outputs": [],
      "stateMutability": "nonpayable",
      "type": "function"
    },
    {
      "inputs": [
        {
          "internalType": "uint256",
          "name": "",
          "type": "uint256"
        }
      ],
      "name": "uri",
      "outputs": [
        {
          "internalType": "string",
          "name": "",
          "type": "string"
        }
      ],
      "stateMutability": "view",
      "type": "function"
    },
    {
      "inputs": [
        {
          "internalType": "address",
          "name": "from",
          "type": "address"
        },
        {
          "internalType": "address",
          "name": "csnftContract",
          "type": "address"
        },
        {
          "internalType": "uint256",
          "name": "tierId",
          "type": "uint256"
        },
        {
          "internalType": "bytes",
          "name": "data",
          "type": "bytes"
        }
      ],
      "name": "upgradeSNFT",
      "outputs": [],
      "stateMutability": "payable",
      "type": "function"
    }
  ],
  "bytecode": "0x60806040523480156200001157600080fd5b506040516200a3973803806200a397833981810160405260a08110156200003757600080fd5b81019080805160405193929190846401000000008211156200005857600080fd5b838201915060208201858111156200006f57600080fd5b82518660018202830111640100000000821117156200008d57600080fd5b8083526020830192505050908051906020019080838360005b83811015620000c3578082015181840152602081019050620000a6565b50505050905090810190601f168015620000f15780820380516001836020036101000a031916815260200191505b50604052602001805160405193929190846401000000008211156200011557600080fd5b838201915060208201858111156200012c57600080fd5b82518660018202830111640100000000821117156200014a57600080fd5b8083526020830192505050908051906020019080838360005b838110156200018057808201518184015260208101905062000163565b50505050905090810190601f168015620001ae5780820380516001836020036101000a031916815260200191505b5060405260200180516040519392919084640100000000821115620001d257600080fd5b83820191506020820185811115620001e957600080fd5b82518660018202830111640100000000821117156200020757600080fd5b8083526020830192505050908051906020019080838360005b838110156200023d57808201518184015260208101905062000220565b50505050905090810190601f1680156200026b5780820380516001836020036101000a031916815260200191505b5060405260200180519060200190929190805160405193929190846401000000008211156200029957600080fd5b83820191506020820185811115620002b057600080fd5b8251866001820283011164010000000082111715620002ce57600080fd5b8083526020830192505050908051906020019080838360005b8381101562000304578082015181840152602081019050620002e7565b50505050905090810190601f168015620003325780820380516001836020036101000a031916815260200191505b506040525050508080620003536301ffc9a760e01b6200061860201b60201c565b62000364816200072160201b60201c565b6200037c63d9b67a2660e01b6200061860201b60201c565b62000394630e89341c60e01b6200061860201b60201c565b506000600560006101000a81548160ff021916908315150217905550620003d46000801b620003c86200073d60201b60201c565b6200074560201b60201c565b6200042a60405180807f4d494e5445525f524f4c45000000000000000000000000000000000000000000815250600b01905060405180910390206200041e6200073d60201b60201c565b6200074560201b60201c565b6200048060405180807f5041555345525f524f4c45000000000000000000000000000000000000000000815250600b0190506040518091039020620004746200073d60201b60201c565b6200074560201b60201c565b506000858585856040516200049590620008d3565b80806020018060200180602001858152602001848103845288818151815260200191508051906020019080838360005b83811015620004e2578082015181840152602081019050620004c5565b50505050905090810190601f168015620005105780820380516001836020036101000a031916815260200191505b50848103835287818151815260200191508051906020019080838360005b838110156200054b5780820151818401526020810190506200052e565b50505050905090810190601f168015620005795780820380516001836020036101000a031916815260200191505b50848103825286818151815260200191508051906020019080838360005b83811015620005b457808201518184015260208101905062000597565b50505050905090810190601f168015620005e25780820380516001836020036101000a031916815260200191505b50975050505050505050604051809103906000f08015801562000609573d6000803e3d6000fd5b50905050505050505062000990565b63ffffffff60e01b817bffffffffffffffffffffffffffffffffffffffffffffffffffffffff19161415620006b5576040517f08c379a000000000000000000000000000000000000000000000000000000000815260040180806020018281038252601c8152602001807f4552433136353a20696e76616c696420696e746572666163652069640000000081525060200191505060405180910390fd5b6001806000837bffffffffffffffffffffffffffffffffffffffffffffffffffffffff19167bffffffffffffffffffffffffffffffffffffffffffffffffffffffff1916815260200190815260200160002060006101000a81548160ff02191690831515021790555050565b806004908051906020019062000739929190620008e1565b5050565b600033905090565b6200075782826200075b60201b60201c565b5050565b6200078981600080858152602001908152602001600020600001620007fe60201b62003ffb1790919060201c565b15620007fa576200079f6200073d60201b60201c565b73ffffffffffffffffffffffffffffffffffffffff168173ffffffffffffffffffffffffffffffffffffffff16837f2f8788117e7eff1d82e926ec794901d17c78024a50270940304540a733656f0d60405160405180910390a45b5050565b60006200082e836000018373ffffffffffffffffffffffffffffffffffffffff1660001b6200083660201b60201c565b905092915050565b60006200084a8383620008b060201b60201c565b620008a5578260000182908060018154018082558091505060019003906000526020600020016000909190919091505582600001805490508360010160008481526020019081526020016000208190555060019050620008aa565b600090505b92915050565b600080836001016000848152602001908152602001600020541415905092915050565b615390806200500783390190565b828054600181600116156101000203166002900490600052602060002090601f016020900481019282601f106200092457805160ff191683800117855562000955565b8280016001018555821562000955579182015b828111156200095457825182559160200191906001019062000937565b5b50905062000964919062000968565b5090565b6200098d91905b80821115620009895760008160009055506001016200096f565b5090565b90565b61466780620009a06000396000f3fe6080604052600436106101805760003560e01c8063731133e9116100d1578063ca15c8731161008a578063e63ab1e911610064578063e63ab1e914610ff7578063e985e9c514611022578063f242432a146110ab578063f5298aca146111c757610180565b8063ca15c87314610f22578063d539139314610f71578063d547741f14610f9c57610180565b8063731133e914610c8f5780638456cb5914610d8b5780639010d07c14610da257806391d1485414610e27578063a217fddf14610e9a578063a22cb46514610ec557610180565b80632f2ff15d1161013e5780634e1273f4116101185780634e1273f41461087657806359c3bed214610a245780635c975abb14610ae75780636b20c45414610b1657610180565b80632f2ff15d146107a957806336568abe146108045780633f4ba83a1461085f57610180565b8062fdd58e1461018557806301ffc9a7146101f45780630e89341c146102665780631f7fdffa1461031a578063248a9ca31461052a5780632eb2c2d614610579575b600080fd5b34801561019157600080fd5b506101de600480360360408110156101a857600080fd5b81019080803573ffffffffffffffffffffffffffffffffffffffff1690602001909291908035906020019092919050505061122c565b6040518082815260200191505060405180910390f35b34801561020057600080fd5b5061024c6004803603602081101561021757600080fd5b8101908080357bffffffffffffffffffffffffffffffffffffffffffffffffffffffff1916906020019092919050505061130c565b604051808215151515815260200191505060405180910390f35b34801561027257600080fd5b5061029f6004803603602081101561028957600080fd5b8101908080359060200190929190505050611374565b6040518080602001828103825283818151815260200191508051906020019080838360005b838110156102df5780820151818401526020810190506102c4565b50505050905090810190601f16801561030c5780820380516001836020036101000a031916815260200191505b509250505060405180910390f35b34801561032657600080fd5b506105286004803603608081101561033d57600080fd5b81019080803573ffffffffffffffffffffffffffffffffffffffff1690602001909291908035906020019064010000000081111561037a57600080fd5b82018360208201111561038c57600080fd5b803590602001918460208302840111640100000000831117156103ae57600080fd5b919080806020026020016040519081016040528093929190818152602001838360200280828437600081840152601f19601f8201169050808301925050505050505091929192908035906020019064010000000081111561040e57600080fd5b82018360208201111561042057600080fd5b8035906020019184602083028401116401000000008311171561044257600080fd5b919080806020026020016040519081016040528093929190818152602001838360200280828437600081840152601f19601f820116905080830192505050505050509192919290803590602001906401000000008111156104a257600080fd5b8201836020820111156104b457600080fd5b803590602001918460018302840111640100000000831117156104d657600080fd5b91908080601f016020809104026020016040519081016040528093929190818152602001838380828437600081840152601f19601f820116905080830192505050505050509192919290505050611418565b005b34801561053657600080fd5b506105636004803603602081101561054d57600080fd5b81019080803590602001909291905050506114c5565b6040518082815260200191505060405180910390f35b34801561058557600080fd5b506107a7600480360360a081101561059c57600080fd5b81019080803573ffffffffffffffffffffffffffffffffffffffff169060200190929190803573ffffffffffffffffffffffffffffffffffffffff169060200190929190803590602001906401000000008111156105f957600080fd5b82018360208201111561060b57600080fd5b8035906020019184602083028401116401000000008311171561062d57600080fd5b919080806020026020016040519081016040528093929190818152602001838360200280828437600081840152601f19601f8201169050808301925050505050505091929192908035906020019064010000000081111561068d57600080fd5b82018360208201111561069f57600080fd5b803590602001918460208302840111640100000000831117156106c157600080fd5b919080806020026020016040519081016040528093929190818152602001838360200280828437600081840152601f19601f8201169050808301925050505050505091929192908035906020019064010000000081111561072157600080fd5b82018360208201111561073357600080fd5b8035906020019184600183028401116401000000008311171561075557600080fd5b91908080601f016020809104026020016040519081016040528093929190818152602001838380828437600081840152601f19601f8201169050808301925050505050505091929192905050506114e4565b005b3480156107b557600080fd5b50610802600480360360408110156107cc57600080fd5b8101908080359060200190929190803573ffffffffffffffffffffffffffffffffffffffff169060200190929190505050611972565b005b34801561081057600080fd5b5061085d6004803603604081101561082757600080fd5b8101908080359060200190929190803573ffffffffffffffffffffffffffffffffffffffff1690602001909291905050506119fb565b005b34801561086b57600080fd5b50610874611a94565b005b34801561088257600080fd5b506109cd6004803603604081101561089957600080fd5b81019080803590602001906401000000008111156108b657600080fd5b8201836020820111156108c857600080fd5b803590602001918460208302840111640100000000831117156108ea57600080fd5b919080806020026020016040519081016040528093929190818152602001838360200280828437600081840152601f19601f8201169050808301925050505050505091929192908035906020019064010000000081111561094a57600080fd5b82018360208201111561095c57600080fd5b8035906020019184602083028401116401000000008311171561097e57600080fd5b919080806020026020016040519081016040528093929190818152602001838360200280828437600081840152601f19601f820116905080830192505050505050509192919290505050611b39565b6040518080602001828103825283818151815260200191508051906020019060200280838360005b83811015610a105780820151818401526020810190506109f5565b505050509050019250505060405180910390f35b610ae560048036036080811015610a3a57600080fd5b81019080803573ffffffffffffffffffffffffffffffffffffffff169060200190929190803573ffffffffffffffffffffffffffffffffffffffff1690602001909291908035906020019092919080359060200190640100000000811115610aa157600080fd5b820183602082011115610ab357600080fd5b80359060200191846001830284011164010000000083111715610ad557600080fd5b9091929391929390505050611c37565b005b348015610af357600080fd5b50610afc611d46565b604051808215151515815260200191505060405180910390f35b348015610b2257600080fd5b50610c8d60048036036060811015610b3957600080fd5b81019080803573ffffffffffffffffffffffffffffffffffffffff16906020019092919080359060200190640100000000811115610b7657600080fd5b820183602082011115610b8857600080fd5b80359060200191846020830284011164010000000083111715610baa57600080fd5b919080806020026020016040519081016040528093929190818152602001838360200280828437600081840152601f19601f82011690508083019250505050505050919291929080359060200190640100000000811115610c0a57600080fd5b820183602082011115610c1c57600080fd5b80359060200191846020830284011164010000000083111715610c3e57600080fd5b919080806020026020016040519081016040528093929190818152602001838360200280828437600081840152601f19601f820116905080830192505050505050509192919290505050611d5d565b005b348015610c9b57600080fd5b50610d8960048036036080811015610cb257600080fd5b81019080803573ffffffffffffffffffffffffffffffffffffffff169060200190929190803590602001909291908035906020019092919080359060200190640100000000811115610d0357600080fd5b820183602082011115610d1557600080fd5b80359060200191846001830284011164010000000083111715610d3757600080fd5b91908080601f016020809104026020016040519081016040528093929190818152602001838380828437600081840152601f19601f820116905080830192505050505050509192919290505050611e10565b005b348015610d9757600080fd5b50610da0611ebd565b005b348015610dae57600080fd5b50610de560048036036040811015610dc557600080fd5b810190808035906020019092919080359060200190929190505050611f62565b604051808273ffffffffffffffffffffffffffffffffffffffff1673ffffffffffffffffffffffffffffffffffffffff16815260200191505060405180910390f35b348015610e3357600080fd5b50610e8060048036036040811015610e4a57600080fd5b8101908080359060200190929190803573ffffffffffffffffffffffffffffffffffffffff169060200190929190505050611f93565b604051808215151515815260200191505060405180910390f35b348015610ea657600080fd5b50610eaf611fc4565b6040518082815260200191505060405180910390f35b348015610ed157600080fd5b50610f2060048036036040811015610ee857600080fd5b81019080803573ffffffffffffffffffffffffffffffffffffffff169060200190929190803515159060200190929190505050611fcb565b005b348015610f2e57600080fd5b50610f5b60048036036020811015610f4557600080fd5b8101908080359060200190929190505050612166565b6040518082815260200191505060405180910390f35b348015610f7d57600080fd5b50610f8661218c565b6040518082815260200191505060405180910390f35b348015610fa857600080fd5b50610ff560048036036040811015610fbf57600080fd5b8101908080359060200190929190803573ffffffffffffffffffffffffffffffffffffffff1690602001909291905050506121c5565b005b34801561100357600080fd5b5061100c61224e565b6040518082815260200191505060405180910390f35b34801561102e57600080fd5b506110916004803603604081101561104557600080fd5b81019080803573ffffffffffffffffffffffffffffffffffffffff169060200190929190803573ffffffffffffffffffffffffffffffffffffffff169060200190929190505050612287565b604051808215151515815260200191505060405180910390f35b3480156110b757600080fd5b506111c5600480360360a08110156110ce57600080fd5b81019080803573ffffffffffffffffffffffffffffffffffffffff169060200190929190803573ffffffffffffffffffffffffffffffffffffffff16906020019092919080359060200190929190803590602001909291908035906020019064010000000081111561113f57600080fd5b82018360208201111561115157600080fd5b8035906020019184600183028401116401000000008311171561117357600080fd5b91908080601f016020809104026020016040519081016040528093929190818152602001838380828437600081840152601f19601f82011690508083019250505050505050919291929050505061231b565b005b3480156111d357600080fd5b5061122a600480360360608110156111ea57600080fd5b81019080803573ffffffffffffffffffffffffffffffffffffffff1690602001909291908035906020019092919080359060200190929190505050612690565b005b60008073ffffffffffffffffffffffffffffffffffffffff168373ffffffffffffffffffffffffffffffffffffffff1614156112b3576040517f08c379a000000000000000000000000000000000000000000000000000000000815260040180806020018281038252602b815260200180614320602b913960400191505060405180910390fd5b6002600083815260200190815260200160002060008473ffffffffffffffffffffffffffffffffffffffff1673ffffffffffffffffffffffffffffffffffffffff16815260200190815260200160002054905092915050565b600060016000837bffffffffffffffffffffffffffffffffffffffffffffffffffffffff19167bffffffffffffffffffffffffffffffffffffffffffffffffffffffff1916815260200190815260200160002060009054906101000a900460ff169050919050565b606060048054600181600116156101000203166002900480601f01602080910402602001604051908101604052809291908181526020018280546001816001161561010002031660029004801561140c5780601f106113e15761010080835404028352916020019161140c565b820191906000526020600020905b8154815290600101906020018083116113ef57829003601f168201915b50505050509050919050565b61145e60405180807f4d494e5445525f524f4c45000000000000000000000000000000000000000000815250600b0190506040518091039020611459612743565b611f93565b6114b3576040517f08c379a00000000000000000000000000000000000000000000000000000000081526004018080602001828103825260388152602001806144926038913960400191505060405180910390fd5b6114bf8484848461274b565b50505050565b6000806000838152602001908152602001600020600201549050919050565b815183511461153e576040517f08c379a00000000000000000000000000000000000000000000000000000000081526004018080602001828103825260288152602001806145ba6028913960400191505060405180910390fd5b600073ffffffffffffffffffffffffffffffffffffffff168473ffffffffffffffffffffffffffffffffffffffff1614156115c4576040517f08c379a00000000000000000000000000000000000000000000000000000000081526004018080602001828103825260258152602001806144186025913960400191505060405180910390fd5b6115cc612743565b73ffffffffffffffffffffffffffffffffffffffff168573ffffffffffffffffffffffffffffffffffffffff16148061161257506116118561160c612743565b612287565b5b611667576040517f08c379a000000000000000000000000000000000000000000000000000000000815260040180806020018281038252603281526020018061443d6032913960400191505060405180910390fd5b6000611671612743565b9050611681818787878787612a70565b60008090505b845181101561185557600085828151811061169e57fe5b6020026020010151905060008583815181106116b657fe5b6020026020010151905061173d816040518060600160405280602a81526020016144ca602a91396002600086815260200190815260200160002060008d73ffffffffffffffffffffffffffffffffffffffff1673ffffffffffffffffffffffffffffffffffffffff16815260200190815260200160002054612a869092919063ffffffff16565b6002600084815260200190815260200160002060008b73ffffffffffffffffffffffffffffffffffffffff1673ffffffffffffffffffffffffffffffffffffffff168152602001908152602001600020819055506117f4816002600085815260200190815260200160002060008b73ffffffffffffffffffffffffffffffffffffffff1673ffffffffffffffffffffffffffffffffffffffff16815260200190815260200160002054612b4090919063ffffffff16565b6002600084815260200190815260200160002060008a73ffffffffffffffffffffffffffffffffffffffff1673ffffffffffffffffffffffffffffffffffffffff168152602001908152602001600020819055505050806001019050611687565b508473ffffffffffffffffffffffffffffffffffffffff168673ffffffffffffffffffffffffffffffffffffffff168273ffffffffffffffffffffffffffffffffffffffff167f4a39dc06d4c0dbc64b70af90fd698a233a518aa5d07e595d983b8c0526c8f7fb8787604051808060200180602001838103835285818151815260200191508051906020019060200280838360005b838110156119055780820151818401526020810190506118ea565b50505050905001838103825284818151815260200191508051906020019060200280838360005b8381101561194757808201518184015260208101905061192c565b5050505090500194505050505060405180910390a461196a818787878787612bc8565b505050505050565b61199860008084815260200190815260200160002060020154611993612743565b611f93565b6119ed576040517f08c379a000000000000000000000000000000000000000000000000000000000815260040180806020018281038252602f8152602001806142f1602f913960400191505060405180910390fd5b6119f78282613040565b5050565b611a03612743565b73ffffffffffffffffffffffffffffffffffffffff168173ffffffffffffffffffffffffffffffffffffffff1614611a86576040517f08c379a000000000000000000000000000000000000000000000000000000000815260040180806020018281038252602f815260200180614603602f913960400191505060405180910390fd5b611a9082826130d3565b5050565b611ada60405180807f5041555345525f524f4c45000000000000000000000000000000000000000000815250600b0190506040518091039020611ad5612743565b611f93565b611b2f576040517f08c379a000000000000000000000000000000000000000000000000000000000815260040180806020018281038252603b8152602001806144f4603b913960400191505060405180910390fd5b611b37613166565b565b60608151835114611b95576040517f08c379a00000000000000000000000000000000000000000000000000000000081526004018080602001828103825260298152602001806145916029913960400191505060405180910390fd5b60608351604051908082528060200260200182016040528015611bc75781602001602082028036833780820191505090505b50905060008090505b8451811015611c2c57611c09858281518110611be857fe5b6020026020010151858381518110611bfc57fe5b602002602001015161122c565b828281518110611c1557fe5b602002602001018181525050806001019050611bd0565b508091505092915050565b6000831180611c5257506001611c50336001860361122c565b145b611c5b57600080fd5b600073ffffffffffffffffffffffffffffffffffffffff168473ffffffffffffffffffffffffffffffffffffffff161415611ce1576040517f08c379a00000000000000000000000000000000000000000000000000000000081526004018080602001828103825260248152602001806143c46024913960400191505060405180910390fd5b6000611ceb612743565b9050611d3e8585600186868080601f016020809104026020016040519081016040528093929190818152602001838380828437600081840152601f19601f82011690508083019250505050505050613267565b505050505050565b6000600560009054906101000a900460ff16905090565b611d65612743565b73ffffffffffffffffffffffffffffffffffffffff168373ffffffffffffffffffffffffffffffffffffffff161480611dab5750611daa83611da5612743565b612287565b5b611e00576040517f08c379a000000000000000000000000000000000000000000000000000000000815260040180806020018281038252602981526020018061439b6029913960400191505060405180910390fd5b611e0b83838361346a565b505050565b611e5660405180807f4d494e5445525f524f4c45000000000000000000000000000000000000000000815250600b0190506040518091039020611e51612743565b611f93565b611eab576040517f08c379a00000000000000000000000000000000000000000000000000000000081526004018080602001828103825260388152602001806144926038913960400191505060405180910390fd5b611eb784848484613267565b50505050565b611f0360405180807f5041555345525f524f4c45000000000000000000000000000000000000000000815250600b0190506040518091039020611efe612743565b611f93565b611f58576040517f08c379a000000000000000000000000000000000000000000000000000000000815260040180806020018281038252603981526020018061452f6039913960400191505060405180910390fd5b611f606137a8565b565b6000611f8b826000808681526020019081526020016000206000016138aa90919063ffffffff16565b905092915050565b6000611fbc826000808681526020019081526020016000206000016138c490919063ffffffff16565b905092915050565b6000801b81565b8173ffffffffffffffffffffffffffffffffffffffff16611fea612743565b73ffffffffffffffffffffffffffffffffffffffff161415612057576040517f08c379a00000000000000000000000000000000000000000000000000000000081526004018080602001828103825260298152602001806145686029913960400191505060405180910390fd5b8060036000612064612743565b73ffffffffffffffffffffffffffffffffffffffff1673ffffffffffffffffffffffffffffffffffffffff16815260200190815260200160002060008473ffffffffffffffffffffffffffffffffffffffff1673ffffffffffffffffffffffffffffffffffffffff16815260200190815260200160002060006101000a81548160ff0219169083151502179055508173ffffffffffffffffffffffffffffffffffffffff16612111612743565b73ffffffffffffffffffffffffffffffffffffffff167f17307eab39ab6107e8899845ad3d59bd9653f200f220920489ca2b5937696c3183604051808215151515815260200191505060405180910390a35050565b60006121856000808481526020019081526020016000206000016138f4565b9050919050565b60405180807f4d494e5445525f524f4c45000000000000000000000000000000000000000000815250600b019050604051809103902081565b6121eb600080848152602001908152602001600020600201546121e6612743565b611f93565b612240576040517f08c379a00000000000000000000000000000000000000000000000000000000081526004018080602001828103825260308152602001806143e86030913960400191505060405180910390fd5b61224a82826130d3565b5050565b60405180807f5041555345525f524f4c45000000000000000000000000000000000000000000815250600b019050604051809103902081565b6000600360008473ffffffffffffffffffffffffffffffffffffffff1673ffffffffffffffffffffffffffffffffffffffff16815260200190815260200160002060008373ffffffffffffffffffffffffffffffffffffffff1673ffffffffffffffffffffffffffffffffffffffff16815260200190815260200160002060009054906101000a900460ff16905092915050565b600073ffffffffffffffffffffffffffffffffffffffff168473ffffffffffffffffffffffffffffffffffffffff1614156123a1576040517f08c379a00000000000000000000000000000000000000000000000000000000081526004018080602001828103825260258152602001806144186025913960400191505060405180910390fd5b6123a9612743565b73ffffffffffffffffffffffffffffffffffffffff168573ffffffffffffffffffffffffffffffffffffffff1614806123ef57506123ee856123e9612743565b612287565b5b612444576040517f08c379a000000000000000000000000000000000000000000000000000000000815260040180806020018281038252602981526020018061439b6029913960400191505060405180910390fd5b600061244e612743565b905061246e81878761245f88613909565b61246888613909565b87612a70565b6124eb836040518060600160405280602a81526020016144ca602a91396002600088815260200190815260200160002060008a73ffffffffffffffffffffffffffffffffffffffff1673ffffffffffffffffffffffffffffffffffffffff16815260200190815260200160002054612a869092919063ffffffff16565b6002600086815260200190815260200160002060008873ffffffffffffffffffffffffffffffffffffffff1673ffffffffffffffffffffffffffffffffffffffff168152602001908152602001600020819055506125a2836002600087815260200190815260200160002060008873ffffffffffffffffffffffffffffffffffffffff1673ffffffffffffffffffffffffffffffffffffffff16815260200190815260200160002054612b4090919063ffffffff16565b6002600086815260200190815260200160002060008773ffffffffffffffffffffffffffffffffffffffff1673ffffffffffffffffffffffffffffffffffffffff168152602001908152602001600020819055508473ffffffffffffffffffffffffffffffffffffffff168673ffffffffffffffffffffffffffffffffffffffff168273ffffffffffffffffffffffffffffffffffffffff167fc3d58168c5ae7397731d063d5bbf3d657854427343f4c083240f7aacaa2d0f628787604051808381526020018281526020019250505060405180910390a4612688818787878787613962565b505050505050565b612698612743565b73ffffffffffffffffffffffffffffffffffffffff168373ffffffffffffffffffffffffffffffffffffffff1614806126de57506126dd836126d8612743565b612287565b5b612733576040517f08c379a000000000000000000000000000000000000000000000000000000000815260040180806020018281038252602981526020018061439b6029913960400191505060405180910390fd5b61273e838383613d58565b505050565b600033905090565b600073ffffffffffffffffffffffffffffffffffffffff168473ffffffffffffffffffffffffffffffffffffffff1614156127d1576040517f08c379a00000000000000000000000000000000000000000000000000000000081526004018080602001828103825260218152602001806145e26021913960400191505060405180910390fd5b815183511461282b576040517f08c379a00000000000000000000000000000000000000000000000000000000081526004018080602001828103825260288152602001806145ba6028913960400191505060405180910390fd5b6000612835612743565b905061284681600087878787612a70565b60008090505b8451811015612952576128de6002600087848151811061286857fe5b6020026020010151815260200190815260200160002060008873ffffffffffffffffffffffffffffffffffffffff1673ffffffffffffffffffffffffffffffffffffffff168152602001908152602001600020548583815181106128c857fe5b6020026020010151612b4090919063ffffffff16565b600260008784815181106128ee57fe5b6020026020010151815260200190815260200160002060008873ffffffffffffffffffffffffffffffffffffffff1673ffffffffffffffffffffffffffffffffffffffff16815260200190815260200160002081905550808060010191505061284c565b508473ffffffffffffffffffffffffffffffffffffffff16600073ffffffffffffffffffffffffffffffffffffffff168273ffffffffffffffffffffffffffffffffffffffff167f4a39dc06d4c0dbc64b70af90fd698a233a518aa5d07e595d983b8c0526c8f7fb8787604051808060200180602001838103835285818151815260200191508051906020019060200280838360005b83811015612a035780820151818401526020810190506129e8565b50505050905001838103825284818151815260200191508051906020019060200280838360005b83811015612a45578082015181840152602081019050612a2a565b5050505090500194505050505060405180910390a4612a6981600087878787612bc8565b5050505050565b612a7e868686868686613f74565b505050505050565b6000838311158290612b33576040517f08c379a00000000000000000000000000000000000000000000000000000000081526004018080602001828103825283818151815260200191508051906020019080838360005b83811015612af8578082015181840152602081019050612add565b50505050905090810190601f168015612b255780820380516001836020036101000a031916815260200191505b509250505060405180910390fd5b5082840390509392505050565b600080828401905083811015612bbe576040517f08c379a000000000000000000000000000000000000000000000000000000000815260040180806020018281038252601b8152602001807f536166654d6174683a206164646974696f6e206f766572666c6f77000000000081525060200191505060405180910390fd5b8091505092915050565b612be78473ffffffffffffffffffffffffffffffffffffffff16613fe8565b15613038578373ffffffffffffffffffffffffffffffffffffffff1663bc197c8187878686866040518663ffffffff1660e01b8152600401808673ffffffffffffffffffffffffffffffffffffffff1673ffffffffffffffffffffffffffffffffffffffff1681526020018573ffffffffffffffffffffffffffffffffffffffff1673ffffffffffffffffffffffffffffffffffffffff168152602001806020018060200180602001848103845287818151815260200191508051906020019060200280838360005b83811015612ccb578082015181840152602081019050612cb0565b50505050905001848103835286818151815260200191508051906020019060200280838360005b83811015612d0d578082015181840152602081019050612cf2565b50505050905001848103825285818151815260200191508051906020019080838360005b83811015612d4c578082015181840152602081019050612d31565b50505050905090810190601f168015612d795780820380516001836020036101000a031916815260200191505b5098505050505050505050602060405180830381600087803b158015612d9e57600080fd5b505af1925050508015612dd257506040513d6020811015612dbe57600080fd5b810190808051906020019092919050505060015b612f99576000604051905060008152600115612e9b5760443d1015612dfa5760009050612e9b565b60046000803e60005160e01c6308c379a08114612e1b576000915050612e9b565b60043d036004833e81513d602482011167ffffffffffffffff82111715612e4757600092505050612e9b565b808301805167ffffffffffffffff811115612e69576000945050505050612e9b565b8060208301013d8601811115612e8757600095505050505050612e9b565b601f19601f82011660405282955050505050505b80612ea65750612f48565b806040517f08c379a00000000000000000000000000000000000000000000000000000000081526004018080602001828103825283818151815260200191508051906020019080838360005b83811015612f0d578082015181840152602081019050612ef2565b50505050905090810190601f168015612f3a5780820380516001836020036101000a031916815260200191505b509250505060405180910390fd5b6040517f08c379a00000000000000000000000000000000000000000000000000000000081526004018080602001828103825260348152602001806142736034913960400191505060405180910390fd5b63bc197c8160e01b7bffffffffffffffffffffffffffffffffffffffffffffffffffffffff1916817bffffffffffffffffffffffffffffffffffffffffffffffffffffffff191614613036576040517f08c379a00000000000000000000000000000000000000000000000000000000081526004018080602001828103825260288152602001806142c96028913960400191505060405180910390fd5b505b505050505050565b61306781600080858152602001908152602001600020600001613ffb90919063ffffffff16565b156130cf57613074612743565b73ffffffffffffffffffffffffffffffffffffffff168173ffffffffffffffffffffffffffffffffffffffff16837f2f8788117e7eff1d82e926ec794901d17c78024a50270940304540a733656f0d60405160405180910390a45b5050565b6130fa8160008085815260200190815260200160002060000161402b90919063ffffffff16565b1561316257613107612743565b73ffffffffffffffffffffffffffffffffffffffff168173ffffffffffffffffffffffffffffffffffffffff16837ff6391f5c32d9c69d2a47ea670b442974b53935d1edc7fd64eb21e047a839171b60405160405180910390a45b5050565b61316e611d46565b6131e0576040517f08c379a00000000000000000000000000000000000000000000000000000000081526004018080602001828103825260148152602001807f5061757361626c653a206e6f742070617573656400000000000000000000000081525060200191505060405180910390fd5b6000600560006101000a81548160ff0219169083151502179055507f5db9ee0a495bf2e6ff9c91a7834c1ba4fdd244a5e8aa4e537bd38aeae4b073aa613224612743565b604051808273ffffffffffffffffffffffffffffffffffffffff1673ffffffffffffffffffffffffffffffffffffffff16815260200191505060405180910390a1565b600073ffffffffffffffffffffffffffffffffffffffff168473ffffffffffffffffffffffffffffffffffffffff1614156132ed576040517f08c379a00000000000000000000000000000000000000000000000000000000081526004018080602001828103825260218152602001806145e26021913960400191505060405180910390fd5b60006132f7612743565b90506133188160008761330988613909565b61331288613909565b87612a70565b61337b836002600087815260200190815260200160002060008873ffffffffffffffffffffffffffffffffffffffff1673ffffffffffffffffffffffffffffffffffffffff16815260200190815260200160002054612b4090919063ffffffff16565b6002600086815260200190815260200160002060008773ffffffffffffffffffffffffffffffffffffffff1673ffffffffffffffffffffffffffffffffffffffff168152602001908152602001600020819055508473ffffffffffffffffffffffffffffffffffffffff16600073ffffffffffffffffffffffffffffffffffffffff168273ffffffffffffffffffffffffffffffffffffffff167fc3d58168c5ae7397731d063d5bbf3d657854427343f4c083240f7aacaa2d0f628787604051808381526020018281526020019250505060405180910390a461346381600087878787613962565b5050505050565b600073ffffffffffffffffffffffffffffffffffffffff168373ffffffffffffffffffffffffffffffffffffffff1614156134f0576040517f08c379a000000000000000000000000000000000000000000000000000000000815260040180806020018281038252602381526020018061446f6023913960400191505060405180910390fd5b805182511461354a576040517f08c379a00000000000000000000000000000000000000000000000000000000081526004018080602001828103825260288152602001806145ba6028913960400191505060405180910390fd5b6000613554612743565b905061357481856000868660405180602001604052806000815250612a70565b60008090505b835181101561369a5761362683828151811061359257fe5b602002602001015160405180606001604052806024815260200161434b60249139600260008886815181106135c357fe5b6020026020010151815260200190815260200160002060008973ffffffffffffffffffffffffffffffffffffffff1673ffffffffffffffffffffffffffffffffffffffff16815260200190815260200160002054612a869092919063ffffffff16565b6002600086848151811061363657fe5b6020026020010151815260200190815260200160002060008773ffffffffffffffffffffffffffffffffffffffff1673ffffffffffffffffffffffffffffffffffffffff16815260200190815260200160002081905550808060010191505061357a565b50600073ffffffffffffffffffffffffffffffffffffffff168473ffffffffffffffffffffffffffffffffffffffff168273ffffffffffffffffffffffffffffffffffffffff167f4a39dc06d4c0dbc64b70af90fd698a233a518aa5d07e595d983b8c0526c8f7fb8686604051808060200180602001838103835285818151815260200191508051906020019060200280838360005b8381101561374b578082015181840152602081019050613730565b50505050905001838103825284818151815260200191508051906020019060200280838360005b8381101561378d578082015181840152602081019050613772565b5050505090500194505050505060405180910390a450505050565b6137b0611d46565b15613823576040517f08c379a00000000000000000000000000000000000000000000000000000000081526004018080602001828103825260108152602001807f5061757361626c653a207061757365640000000000000000000000000000000081525060200191505060405180910390fd5b6001600560006101000a81548160ff0219169083151502179055507f62e78cea01bee320cd4e420270b5ea74000d11b0c9f74754ebdbfc544b05a258613867612743565b604051808273ffffffffffffffffffffffffffffffffffffffff1673ffffffffffffffffffffffffffffffffffffffff16815260200191505060405180910390a1565b60006138b9836000018361405b565b60001c905092915050565b60006138ec836000018373ffffffffffffffffffffffffffffffffffffffff1660001b6140de565b905092915050565b600061390282600001614101565b9050919050565b606080600160405190808252806020026020018201604052801561393c5781602001602082028036833780820191505090505b509050828160008151811061394d57fe5b60200260200101818152505080915050919050565b6139818473ffffffffffffffffffffffffffffffffffffffff16613fe8565b15613d50578373ffffffffffffffffffffffffffffffffffffffff1663f23a6e6187878686866040518663ffffffff1660e01b8152600401808673ffffffffffffffffffffffffffffffffffffffff1673ffffffffffffffffffffffffffffffffffffffff1681526020018573ffffffffffffffffffffffffffffffffffffffff1673ffffffffffffffffffffffffffffffffffffffff16815260200184815260200183815260200180602001828103825283818151815260200191508051906020019080838360005b83811015613a66578082015181840152602081019050613a4b565b50505050905090810190601f168015613a935780820380516001836020036101000a031916815260200191505b509650505050505050602060405180830381600087803b158015613ab657600080fd5b505af1925050508015613aea57506040513d6020811015613ad657600080fd5b810190808051906020019092919050505060015b613cb1576000604051905060008152600115613bb35760443d1015613b125760009050613bb3565b60046000803e60005160e01c6308c379a08114613b33576000915050613bb3565b60043d036004833e81513d602482011167ffffffffffffffff82111715613b5f57600092505050613bb3565b808301805167ffffffffffffffff811115613b81576000945050505050613bb3565b8060208301013d8601811115613b9f57600095505050505050613bb3565b601f19601f82011660405282955050505050505b80613bbe5750613c60565b806040517f08c379a00000000000000000000000000000000000000000000000000000000081526004018080602001828103825283818151815260200191508051906020019080838360005b83811015613c25578082015181840152602081019050613c0a565b50505050905090810190601f168015613c525780820380516001836020036101000a031916815260200191505b509250505060405180910390fd5b6040517f08c379a00000000000000000000000000000000000000000000000000000000081526004018080602001828103825260348152602001806142736034913960400191505060405180910390fd5b63f23a6e6160e01b7bffffffffffffffffffffffffffffffffffffffffffffffffffffffff1916817bffffffffffffffffffffffffffffffffffffffffffffffffffffffff191614613d4e576040517f08c379a00000000000000000000000000000000000000000000000000000000081526004018080602001828103825260288152602001806142c96028913960400191505060405180910390fd5b505b505050505050565b600073ffffffffffffffffffffffffffffffffffffffff168373ffffffffffffffffffffffffffffffffffffffff161415613dde576040517f08c379a000000000000000000000000000000000000000000000000000000000815260040180806020018281038252602381526020018061446f6023913960400191505060405180910390fd5b6000613de8612743565b9050613e1881856000613dfa87613909565b613e0387613909565b60405180602001604052806000815250612a70565b613e958260405180606001604052806024815260200161434b602491396002600087815260200190815260200160002060008873ffffffffffffffffffffffffffffffffffffffff1673ffffffffffffffffffffffffffffffffffffffff16815260200190815260200160002054612a869092919063ffffffff16565b6002600085815260200190815260200160002060008673ffffffffffffffffffffffffffffffffffffffff1673ffffffffffffffffffffffffffffffffffffffff16815260200190815260200160002081905550600073ffffffffffffffffffffffffffffffffffffffff168473ffffffffffffffffffffffffffffffffffffffff168273ffffffffffffffffffffffffffffffffffffffff167fc3d58168c5ae7397731d063d5bbf3d657854427343f4c083240f7aacaa2d0f628686604051808381526020018281526020019250505060405180910390a450505050565b613f82868686868686614112565b613f8a611d46565b15613fe0576040517f08c379a000000000000000000000000000000000000000000000000000000000815260040180806020018281038252602c81526020018061436f602c913960400191505060405180910390fd5b505050505050565b600080823b905060008111915050919050565b6000614023836000018373ffffffffffffffffffffffffffffffffffffffff1660001b61411a565b905092915050565b6000614053836000018373ffffffffffffffffffffffffffffffffffffffff1660001b61418a565b905092915050565b6000818360000180549050116140bc576040517f08c379a00000000000000000000000000000000000000000000000000000000081526004018080602001828103825260228152602001806142a76022913960400191505060405180910390fd5b8260000182815481106140cb57fe5b9060005260206000200154905092915050565b600080836001016000848152602001908152602001600020541415905092915050565b600081600001805490509050919050565b505050505050565b600061412683836140de565b61417f578260000182908060018154018082558091505060019003906000526020600020016000909190919091505582600001805490508360010160008481526020019081526020016000208190555060019050614184565b600090505b92915050565b6000808360010160008481526020019081526020016000205490506000811461426657600060018203905060006001866000018054905003905060008660000182815481106141d557fe5b90600052602060002001549050808760000184815481106141f257fe5b906000526020600020018190555060018301876001016000838152602001908152602001600020819055508660000180548061422a57fe5b6001900381819060005260206000200160009055905586600101600087815260200190815260200160002060009055600194505050505061426c565b60009150505b9291505056fe455243313135353a207472616e7366657220746f206e6f6e2045524331313535526563656976657220696d706c656d656e746572456e756d657261626c655365743a20696e646578206f7574206f6620626f756e6473455243313135353a204552433131353552656365697665722072656a656374656420746f6b656e73416363657373436f6e74726f6c3a2073656e646572206d75737420626520616e2061646d696e20746f206772616e74455243313135353a2062616c616e636520717565727920666f7220746865207a65726f2061646472657373455243313135353a206275726e20616d6f756e7420657863656564732062616c616e6365455243313135355061757361626c653a20746f6b656e207472616e73666572207768696c6520706175736564455243313135353a2063616c6c6572206973206e6f74206f776e6572206e6f7220617070726f7665644552433939383a207472616e7366657220746f20746865207a65726f2061646472657373416363657373436f6e74726f6c3a2073656e646572206d75737420626520616e2061646d696e20746f207265766f6b65455243313135353a207472616e7366657220746f20746865207a65726f2061646472657373455243313135353a207472616e736665722063616c6c6572206973206e6f74206f776e6572206e6f7220617070726f766564455243313135353a206275726e2066726f6d20746865207a65726f2061646472657373455243313135355072657365744d696e7465725061757365723a206d7573742068617665206d696e74657220726f6c6520746f206d696e74455243313135353a20696e73756666696369656e742062616c616e636520666f72207472616e73666572455243313135355072657365744d696e7465725061757365723a206d75737420686176652070617573657220726f6c6520746f20756e7061757365455243313135355072657365744d696e7465725061757365723a206d75737420686176652070617573657220726f6c6520746f207061757365455243313135353a2073657474696e6720617070726f76616c2073746174757320666f722073656c66455243313135353a206163636f756e747320616e6420696473206c656e677468206d69736d61746368455243313135353a2069647320616e6420616d6f756e7473206c656e677468206d69736d61746368455243313135353a206d696e7420746f20746865207a65726f2061646472657373416363657373436f6e74726f6c3a2063616e206f6e6c792072656e6f756e636520726f6c657320666f722073656c66a2646970667358221220cc1ddc5b8b0a40e8b2cf3efa32af97a0b19b5f7150010d73046e58a10f0cb78764736f6c6343000603003360806040523480156200001157600080fd5b506040516200539038038062005390833981810160405260808110156200003757600080fd5b81019080805160405193929190846401000000008211156200005857600080fd5b838201915060208201858111156200006f57600080fd5b82518660018202830111640100000000821117156200008d57600080fd5b8083526020830192505050908051906020019080838360005b83811015620000c3578082015181840152602081019050620000a6565b50505050905090810190601f168015620000f15780820380516001836020036101000a031916815260200191505b50604052602001805160405193929190846401000000008211156200011557600080fd5b838201915060208201858111156200012c57600080fd5b82518660018202830111640100000000821117156200014a57600080fd5b8083526020830192505050908051906020019080838360005b838110156200018057808201518184015260208101905062000163565b50505050905090810190601f168015620001ae5780820380516001836020036101000a031916815260200191505b5060405260200180516040519392919084640100000000821115620001d257600080fd5b83820191506020820185811115620001e957600080fd5b82518660018202830111640100000000821117156200020757600080fd5b8083526020830192505050908051906020019080838360005b838110156200023d57808201518184015260208101905062000220565b50505050905090810190601f1680156200026b5780820380516001836020036101000a031916815260200191505b50604052602001805190602001909291905050508383838383836200029d6301ffc9a760e01b6200044a60201b60201c565b8160079080519060200190620002b592919062000705565b508060089080519060200190620002ce92919062000705565b50620002e76380ac58cd60e01b6200044a60201b60201c565b620002ff635b5e139f60e01b6200044a60201b60201c565b6200031763780e9d6360e01b6200044a60201b60201c565b50506200033a63bc197c8160e01b63f23a6e6160e01b186200044a60201b60201c565b6200034b826200055360201b60201c565b600081905050505050506000601060006101000a81548160ff021916908315150217905550620003946000801b620003886200056f60201b60201c565b6200057760201b60201c565b620003ea60405180807f4d494e5445525f524f4c45000000000000000000000000000000000000000000815250600b0190506040518091039020620003de6200056f60201b60201c565b6200057760201b60201c565b6200044060405180807f5041555345525f524f4c45000000000000000000000000000000000000000000815250600b0190506040518091039020620004346200056f60201b60201c565b6200057760201b60201c565b50505050620007b4565b63ffffffff60e01b817bffffffffffffffffffffffffffffffffffffffffffffffffffffffff19161415620004e7576040517f08c379a000000000000000000000000000000000000000000000000000000000815260040180806020018281038252601c8152602001807f4552433136353a20696e76616c696420696e746572666163652069640000000081525060200191505060405180910390fd5b6001806000837bffffffffffffffffffffffffffffffffffffffffffffffffffffffff19167bffffffffffffffffffffffffffffffffffffffffffffffffffffffff1916815260200190815260200160002060006101000a81548160ff02191690831515021790555050565b80600a90805190602001906200056b92919062000705565b5050565b600033905090565b6200058982826200058d60201b60201c565b5050565b620005bb816000808581526020019081526020016000206000016200063060201b62003c1c1790919060201c565b156200062c57620005d16200056f60201b60201c565b73ffffffffffffffffffffffffffffffffffffffff168173ffffffffffffffffffffffffffffffffffffffff16837f2f8788117e7eff1d82e926ec794901d17c78024a50270940304540a733656f0d60405160405180910390a45b5050565b600062000660836000018373ffffffffffffffffffffffffffffffffffffffff1660001b6200066860201b60201c565b905092915050565b60006200067c8383620006e260201b60201c565b620006d7578260000182908060018154018082558091505060019003906000526020600020016000909190919091505582600001805490508360010160008481526020019081526020016000208190555060019050620006dc565b600090505b92915050565b600080836001016000848152602001908152602001600020541415905092915050565b828054600181600116156101000203166002900490600052602060002090601f016020900481019282601f106200074857805160ff191683800117855562000779565b8280016001018555821562000779579182015b82811115620007785782518255916020019190600101906200075b565b5b5090506200078891906200078c565b5090565b620007b191905b80821115620007ad57600081600090555060010162000793565b5090565b90565b614bcc80620007c46000396000f3fe608060405234801561001057600080fd5b50600436106102325760003560e01c80636c0360eb11610130578063a8eefe52116100b8578063d53913931161007c578063d539139314611084578063d547741f146110a2578063e63ab1e9146110f0578063e985e9c51461110e578063f23a6e611461118a57610232565b8063a8eefe5214610bb3578063b88d4fde14610c21578063bc197c8114610d26578063c87b56dd14610f9b578063ca15c8731461104257610232565b80639010d07c116100ff5780639010d07c146109e457806391d1485414610a5c57806395d89b4114610ac2578063a217fddf14610b45578063a22cb46514610b6357610232565b80636c0360eb1461087c57806370a08231146108ff5780638456cb591461095757806389e7e2f21461096157610232565b80632f745c59116101be57806342966c681161018257806342966c68146107105780634f6ccce71461073e5780635c975abb1461078057806360d4d23a146107a25780636352211e1461080e57610232565b80632f745c591461059a57806336568abe146105fc5780633f4ba83a1461064a57806340c10f191461065457806342842e0e146106a257610232565b806318160ddd1161020557806318160ddd146103db57806323b872dd146103f9578063248a9ca3146104675780632676608c146104a95780632f2ff15d1461054c57610232565b806301ffc9a71461023757806306fdde031461029c578063081812fc1461031f578063095ea7b31461038d575b600080fd5b6102826004803603602081101561024d57600080fd5b8101908080357bffffffffffffffffffffffffffffffffffffffffffffffffffffffff191690602001909291905050506112eb565b604051808215151515815260200191505060405180910390f35b6102a4611353565b6040518080602001828103825283818151815260200191508051906020019080838360005b838110156102e45780820151818401526020810190506102c9565b50505050905090810190601f1680156103115780820380516001836020036101000a031916815260200191505b509250505060405180910390f35b61034b6004803603602081101561033557600080fd5b81019080803590602001909291905050506113f5565b604051808273ffffffffffffffffffffffffffffffffffffffff1673ffffffffffffffffffffffffffffffffffffffff16815260200191505060405180910390f35b6103d9600480360360408110156103a357600080fd5b81019080803573ffffffffffffffffffffffffffffffffffffffff16906020019092919080359060200190929190505050611490565b005b6103e36115d4565b6040518082815260200191505060405180910390f35b6104656004803603606081101561040f57600080fd5b81019080803573ffffffffffffffffffffffffffffffffffffffff169060200190929190803573ffffffffffffffffffffffffffffffffffffffff169060200190929190803590602001909291905050506115e5565b005b6104936004803603602081101561047d57600080fd5b810190808035906020019092919050505061165b565b6040518082815260200191505060405180910390f35b6104f5600480360360408110156104bf57600080fd5b8101908080359060200190929190803573ffffffffffffffffffffffffffffffffffffffff16906020019092919050505061167a565b6040518080602001828103825283818151815260200191508051906020019060200280838360005b8381101561053857808201518184015260208101905061051d565b505050509050019250505060405180910390f35b6105986004803603604081101561056257600080fd5b8101908080359060200190929190803573ffffffffffffffffffffffffffffffffffffffff1690602001909291905050506117fd565b005b6105e6600480360360408110156105b057600080fd5b81019080803573ffffffffffffffffffffffffffffffffffffffff16906020019092919080359060200190929190505050611886565b6040518082815260200191505060405180910390f35b6106486004803603604081101561061257600080fd5b8101908080359060200190929190803573ffffffffffffffffffffffffffffffffffffffff1690602001909291905050506118e1565b005b61065261197a565b005b6106a06004803603604081101561066a57600080fd5b81019080803573ffffffffffffffffffffffffffffffffffffffff16906020019092919080359060200190929190505050611a1f565b005b61070e600480360360608110156106b857600080fd5b81019080803573ffffffffffffffffffffffffffffffffffffffff169060200190929190803573ffffffffffffffffffffffffffffffffffffffff16906020019092919080359060200190929190505050611b3e565b005b61073c6004803603602081101561072657600080fd5b8101908080359060200190929190505050611b5e565b005b61076a6004803603602081101561075457600080fd5b8101908080359060200190929190505050611bd0565b6040518082815260200191505060405180910390f35b610788611bf3565b604051808215151515815260200191505060405180910390f35b6107f8600480360360608110156107b857600080fd5b8101908080359060200190929190803573ffffffffffffffffffffffffffffffffffffffff16906020019092919080359060200190929190505050611c0a565b6040518082815260200191505060405180910390f35b61083a6004803603602081101561082457600080fd5b8101908080359060200190929190505050611c77565b604051808273ffffffffffffffffffffffffffffffffffffffff1673ffffffffffffffffffffffffffffffffffffffff16815260200191505060405180910390f35b610884611cae565b6040518080602001828103825283818151815260200191508051906020019080838360005b838110156108c45780820151818401526020810190506108a9565b50505050905090810190601f1680156108f15780820380516001836020036101000a031916815260200191505b509250505060405180910390f35b6109416004803603602081101561091557600080fd5b81019080803573ffffffffffffffffffffffffffffffffffffffff169060200190929190505050611d50565b6040518082815260200191505060405180910390f35b61095f611e25565b005b61098d6004803603602081101561097757600080fd5b8101908080359060200190929190505050611eca565b6040518080602001828103825283818151815260200191508051906020019060200280838360005b838110156109d05780820151818401526020810190506109b5565b505050509050019250505060405180910390f35b610a1a600480360360408110156109fa57600080fd5b810190808035906020019092919080359060200190929190505050611fc3565b604051808273ffffffffffffffffffffffffffffffffffffffff1673ffffffffffffffffffffffffffffffffffffffff16815260200191505060405180910390f35b610aa860048036036040811015610a7257600080fd5b8101908080359060200190929190803573ffffffffffffffffffffffffffffffffffffffff169060200190929190505050611ff4565b604051808215151515815260200191505060405180910390f35b610aca612025565b6040518080602001828103825283818151815260200191508051906020019080838360005b83811015610b0a578082015181840152602081019050610aef565b50505050905090810190601f168015610b375780820380516001836020036101000a031916815260200191505b509250505060405180910390f35b610b4d6120c7565b6040518082815260200191505060405180910390f35b610bb160048036036040811015610b7957600080fd5b81019080803573ffffffffffffffffffffffffffffffffffffffff1690602001909291908035151590602001909291905050506120ce565b005b610bdf60048036036020811015610bc957600080fd5b8101908080359060200190929190505050612286565b604051808273ffffffffffffffffffffffffffffffffffffffff1673ffffffffffffffffffffffffffffffffffffffff16815260200191505060405180910390f35b610d2460048036036080811015610c3757600080fd5b81019080803573ffffffffffffffffffffffffffffffffffffffff169060200190929190803573ffffffffffffffffffffffffffffffffffffffff1690602001909291908035906020019092919080359060200190640100000000811115610c9e57600080fd5b820183602082011115610cb057600080fd5b80359060200191846001830284011164010000000083111715610cd257600080fd5b91908080601f016020809104026020016040519081016040528093929190818152602001838380828437600081840152601f19601f8201169050808301925050505050505091929192905050506122c2565b005b610f47600480360360a0811015610d3c57600080fd5b81019080803573ffffffffffffffffffffffffffffffffffffffff169060200190929190803573ffffffffffffffffffffffffffffffffffffffff16906020019092919080359060200190640100000000811115610d9957600080fd5b820183602082011115610dab57600080fd5b80359060200191846020830284011164010000000083111715610dcd57600080fd5b919080806020026020016040519081016040528093929190818152602001838360200280828437600081840152601f19601f82011690508083019250505050505050919291929080359060200190640100000000811115610e2d57600080fd5b820183602082011115610e3f57600080fd5b80359060200191846020830284011164010000000083111715610e6157600080fd5b919080806020026020016040519081016040528093929190818152602001838360200280828437600081840152601f19601f82011690508083019250505050505050919291929080359060200190640100000000811115610ec157600080fd5b820183602082011115610ed357600080fd5b80359060200191846001830284011164010000000083111715610ef557600080fd5b91908080601f016020809104026020016040519081016040528093929190818152602001838380828437600081840152601f19601f82011690508083019250505050505050919291929050505061233a565b60405180827bffffffffffffffffffffffffffffffffffffffffffffffffffffffff19167bffffffffffffffffffffffffffffffffffffffffffffffffffffffff1916815260200191505060405180910390f35b610fc760048036036020811015610fb157600080fd5b8101908080359060200190929190505050612509565b6040518080602001828103825283818151815260200191508051906020019080838360005b83811015611007578082015181840152602081019050610fec565b50505050905090810190601f1680156110345780820380516001836020036101000a031916815260200191505b509250505060405180910390f35b61106e6004803603602081101561105857600080fd5b81019080803590602001909291905050506127da565b6040518082815260200191505060405180910390f35b61108c612800565b6040518082815260200191505060405180910390f35b6110ee600480360360408110156110b857600080fd5b8101908080359060200190929190803573ffffffffffffffffffffffffffffffffffffffff169060200190929190505050612839565b005b6110f86128c2565b6040518082815260200191505060405180910390f35b6111706004803603604081101561112457600080fd5b81019080803573ffffffffffffffffffffffffffffffffffffffff169060200190929190803573ffffffffffffffffffffffffffffffffffffffff1690602001909291905050506128fb565b604051808215151515815260200191505060405180910390f35b611297600480360360a08110156111a057600080fd5b81019080803573ffffffffffffffffffffffffffffffffffffffff169060200190929190803573ffffffffffffffffffffffffffffffffffffffff16906020019092919080359060200190929190803590602001909291908035906020019064010000000081111561121157600080fd5b82018360208201111561122357600080fd5b8035906020019184600183028401116401000000008311171561124557600080fd5b91908080601f016020809104026020016040519081016040528093929190818152602001838380828437600081840152601f19601f82011690508083019250505050505050919291929050505061298f565b60405180827bffffffffffffffffffffffffffffffffffffffffffffffffffffffff19167bffffffffffffffffffffffffffffffffffffffffffffffffffffffff1916815260200191505060405180910390f35b600060016000837bffffffffffffffffffffffffffffffffffffffffffffffffffffffff19167bffffffffffffffffffffffffffffffffffffffffffffffffffffffff1916815260200190815260200160002060009054906101000a900460ff169050919050565b606060078054600181600116156101000203166002900480601f0160208091040260200160405190810160405280929190818152602001828054600181600116156101000203166002900480156113eb5780601f106113c0576101008083540402835291602001916113eb565b820191906000526020600020905b8154815290600101906020018083116113ce57829003601f168201915b5050505050905090565b600061140082612aab565b611455576040517f08c379a000000000000000000000000000000000000000000000000000000000815260040180806020018281038252602c8152602001806149ab602c913960400191505060405180910390fd5b6005600083815260200190815260200160002060009054906101000a900473ffffffffffffffffffffffffffffffffffffffff169050919050565b600061149b82611c77565b90508073ffffffffffffffffffffffffffffffffffffffff168373ffffffffffffffffffffffffffffffffffffffff161415611522576040517f08c379a0000000000000000000000000000000000000000000000000000000008152600401808060200182810382526021815260200180614a5a6021913960400191505060405180910390fd5b8073ffffffffffffffffffffffffffffffffffffffff16611541612ac8565b73ffffffffffffffffffffffffffffffffffffffff161480611570575061156f8161156a612ac8565b6128fb565b5b6115c5576040517f08c379a00000000000000000000000000000000000000000000000000000000081526004018080602001828103825260388152602001806148fe6038913960400191505060405180910390fd5b6115cf8383612ad0565b505050565b60006115e06003612b89565b905090565b6115f66115f0612ac8565b82612b9e565b61164b576040517f08c379a0000000000000000000000000000000000000000000000000000000008152600401808060200182810382526031815260200180614aa26031913960400191505060405180910390fd5b611656838383612c92565b505050565b6000806000838152602001908152602001600020600201549050919050565b6060806116d5600f600086815260200190815260200160002060008573ffffffffffffffffffffffffffffffffffffffff1673ffffffffffffffffffffffffffffffffffffffff168152602001908152602001600020612ed5565b6040519080825280602002602001820160405280156117035781602001602082028036833780820191505090505b50905060008090505b611764600f600087815260200190815260200160002060008673ffffffffffffffffffffffffffffffffffffffff1673ffffffffffffffffffffffffffffffffffffffff168152602001908152602001600020612ed5565b8110156117f2576117cd81600f600088815260200190815260200160002060008773ffffffffffffffffffffffffffffffffffffffff1673ffffffffffffffffffffffffffffffffffffffff168152602001908152602001600020612eea90919063ffffffff16565b8282815181106117d957fe5b602002602001018181525050808060010191505061170c565b508091505092915050565b6118236000808481526020019081526020016000206002015461181e612ac8565b611ff4565b611878576040517f08c379a000000000000000000000000000000000000000000000000000000000815260040180806020018281038252602f815260200180614766602f913960400191505060405180910390fd5b6118828282612f04565b5050565b60006118d982600260008673ffffffffffffffffffffffffffffffffffffffff1673ffffffffffffffffffffffffffffffffffffffff168152602001908152602001600020612eea90919063ffffffff16565b905092915050565b6118e9612ac8565b73ffffffffffffffffffffffffffffffffffffffff168173ffffffffffffffffffffffffffffffffffffffff161461196c576040517f08c379a000000000000000000000000000000000000000000000000000000000815260040180806020018281038252602f815260200180614b68602f913960400191505060405180910390fd5b6119768282612f97565b5050565b6119c060405180807f5041555345525f524f4c45000000000000000000000000000000000000000000815250600b01905060405180910390206119bb612ac8565b611ff4565b611a15576040517f08c379a0000000000000000000000000000000000000000000000000000000008152600401808060200182810382526040815260200180614b286040913960400191505060405180910390fd5b611a1d61302a565b565b611a6560405180807f4d494e5445525f524f4c45000000000000000000000000000000000000000000815250600b0190506040518091039020611a60612ac8565b611ff4565b611aba576040517f08c379a0000000000000000000000000000000000000000000000000000000008152600401808060200182810382526025815260200180614b036025913960400191505060405180910390fd5b6011548111611ac857600080fd5b611ad2828261312b565b3360128281548110611ae057fe5b9060005260206000200160006101000a81548173ffffffffffffffffffffffffffffffffffffffff021916908373ffffffffffffffffffffffffffffffffffffffff1602179055506011600081548092919060010191905055505050565b611b59838383604051806020016040528060008152506122c2565b505050565b611b6f611b69612ac8565b82612b9e565b611bc4576040517f08c379a0000000000000000000000000000000000000000000000000000000008152600401808060200182810382526030815260200180614ad36030913960400191505060405180910390fd5b611bcd8161331f565b50565b600080611be783600361345990919063ffffffff16565b50905080915050919050565b6000601060009054906101000a900460ff16905090565b6000600c600085815260200190815260200160002060008473ffffffffffffffffffffffffffffffffffffffff1673ffffffffffffffffffffffffffffffffffffffff16815260200190815260200160002060008381526020019081526020016000205490509392505050565b6000611ca7826040518060600160405280602981526020016149606029913960036134889092919063ffffffff16565b9050919050565b6060600a8054600181600116156101000203166002900480601f016020809104026020016040519081016040528092919081815260200182805460018160011615610100020316600290048015611d465780601f10611d1b57610100808354040283529160200191611d46565b820191906000526020600020905b815481529060010190602001808311611d2957829003601f168201915b5050505050905090565b60008073ffffffffffffffffffffffffffffffffffffffff168273ffffffffffffffffffffffffffffffffffffffff161415611dd7576040517f08c379a000000000000000000000000000000000000000000000000000000000815260040180806020018281038252602a815260200180614936602a913960400191505060405180910390fd5b611e1e600260008473ffffffffffffffffffffffffffffffffffffffff1673ffffffffffffffffffffffffffffffffffffffff168152602001908152602001600020612ed5565b9050919050565b611e6b60405180807f5041555345525f524f4c45000000000000000000000000000000000000000000815250600b0190506040518091039020611e66612ac8565b611ff4565b611ec0576040517f08c379a000000000000000000000000000000000000000000000000000000000815260040180806020018281038252603e81526020018061481a603e913960400191505060405180910390fd5b611ec86134a7565b565b606080611ee8600e60008581526020019081526020016000206135a9565b604051908082528060200260200182016040528015611f165781602001602082028036833780820191505090505b50905060008090505b611f3a600e60008681526020019081526020016000206135a9565b811015611fb957611f6681600e60008781526020019081526020016000206135be90919063ffffffff16565b828281518110611f7257fe5b602002602001019073ffffffffffffffffffffffffffffffffffffffff16908173ffffffffffffffffffffffffffffffffffffffff16815250508080600101915050611f1f565b5080915050919050565b6000611fec826000808681526020019081526020016000206000016135be90919063ffffffff16565b905092915050565b600061201d826000808681526020019081526020016000206000016135d890919063ffffffff16565b905092915050565b606060088054600181600116156101000203166002900480601f0160208091040260200160405190810160405280929190818152602001828054600181600116156101000203166002900480156120bd5780601f10612092576101008083540402835291602001916120bd565b820191906000526020600020905b8154815290600101906020018083116120a057829003601f168201915b5050505050905090565b6000801b81565b6120d6612ac8565b73ffffffffffffffffffffffffffffffffffffffff168273ffffffffffffffffffffffffffffffffffffffff161415612177576040517f08c379a00000000000000000000000000000000000000000000000000000000081526004018080602001828103825260198152602001807f4552433732313a20617070726f766520746f2063616c6c65720000000000000081525060200191505060405180910390fd5b8060066000612184612ac8565b73ffffffffffffffffffffffffffffffffffffffff1673ffffffffffffffffffffffffffffffffffffffff16815260200190815260200160002060008473ffffffffffffffffffffffffffffffffffffffff1673ffffffffffffffffffffffffffffffffffffffff16815260200190815260200160002060006101000a81548160ff0219169083151502179055508173ffffffffffffffffffffffffffffffffffffffff16612231612ac8565b73ffffffffffffffffffffffffffffffffffffffff167f17307eab39ab6107e8899845ad3d59bd9653f200f220920489ca2b5937696c3183604051808215151515815260200191505060405180910390a35050565b6012818154811061229357fe5b906000526020600020016000915054906101000a900473ffffffffffffffffffffffffffffffffffffffff1681565b6122d36122cd612ac8565b83612b9e565b612328576040517f08c379a0000000000000000000000000000000000000000000000000000000008152600401808060200182810382526031815260200180614aa26031913960400191505060405180910390fd5b61233484848484613608565b50505050565b60006020825114612396576040517f08c379a00000000000000000000000000000000000000000000000000000000081526004018080602001828103825260538152602001806147c76053913960600191505060405180910390fd5b82518451146123f0576040517f08c379a0000000000000000000000000000000000000000000000000000000008152600401808060200182810382526027815260200180614a7b6027913960400191505060405180910390fd5b612400866000308888888861367a565b600080602060003690500390508035915060008090505b86518110156124f357612452833389848151811061243157fe5b602002602001015189858151811061244557fe5b60200260200101516136f0565b3373ffffffffffffffffffffffffffffffffffffffff16838973ffffffffffffffffffffffffffffffffffffffff167fa18753b0660a8be2cdae03468c860b47c2926433ab16917f323544652803032d8a85815181106124ae57fe5b60200260200101518a86815181106124c257fe5b6020026020010151604051808381526020018281526020019250505060405180910390a48080600101915050612417565b5063bc197c8160e01b9250505095945050505050565b606061251482612aab565b612569576040517f08c379a000000000000000000000000000000000000000000000000000000000815260040180806020018281038252602f815260200180614a2b602f913960400191505060405180910390fd5b6060600960008481526020019081526020016000208054600181600116156101000203166002900480601f0160208091040260200160405190810160405280929190818152602001828054600181600116156101000203166002900480156126125780601f106125e757610100808354040283529160200191612612565b820191906000526020600020905b8154815290600101906020018083116125f557829003601f168201915b505050505090506060612623611cae565b90506000815114156126395781925050506127d5565b60008251111561270a5780826040516020018083805190602001908083835b6020831061267b5780518252602082019150602081019050602083039250612658565b6001836020036101000a03801982511681845116808217855250505050505090500182805190602001908083835b602083106126cc57805182526020820191506020810190506020830392506126a9565b6001836020036101000a03801982511681845116808217855250505050505090500192505050604051602081830303815290604052925050506127d5565b80612714856138fd565b6040516020018083805190602001908083835b6020831061274a5780518252602082019150602081019050602083039250612727565b6001836020036101000a03801982511681845116808217855250505050505090500182805190602001908083835b6020831061279b5780518252602082019150602081019050602083039250612778565b6001836020036101000a03801982511681845116808217855250505050505090500192505050604051602081830303815290604052925050505b919050565b60006127f96000808481526020019081526020016000206000016135a9565b9050919050565b60405180807f4d494e5445525f524f4c45000000000000000000000000000000000000000000815250600b019050604051809103902081565b61285f6000808481526020019081526020016000206002015461285a612ac8565b611ff4565b6128b4576040517f08c379a00000000000000000000000000000000000000000000000000000000081526004018080602001828103825260308152602001806148ce6030913960400191505060405180910390fd5b6128be8282612f97565b5050565b60405180807f5041555345525f524f4c45000000000000000000000000000000000000000000815250600b019050604051809103902081565b6000600660008473ffffffffffffffffffffffffffffffffffffffff1673ffffffffffffffffffffffffffffffffffffffff16815260200190815260200160002060008373ffffffffffffffffffffffffffffffffffffffff1673ffffffffffffffffffffffffffffffffffffffff16815260200190815260200160002060009054906101000a900460ff16905092915050565b600060208251146129eb576040517f08c379a00000000000000000000000000000000000000000000000000000000081526004018080602001828103825260538152602001806147c76053913960600191505060405180910390fd5b612a0b86600030886129fc89613a2d565b612a0589613a2d565b8861367a565b6000806020600036905003905080359150612a28823388886136f0565b3373ffffffffffffffffffffffffffffffffffffffff16828873ffffffffffffffffffffffffffffffffffffffff167fa18753b0660a8be2cdae03468c860b47c2926433ab16917f323544652803032d8989604051808381526020018281526020019250505060405180910390a463f23a6e6160e01b9250505095945050505050565b6000612ac1826003613a8690919063ffffffff16565b9050919050565b600033905090565b816005600083815260200190815260200160002060006101000a81548173ffffffffffffffffffffffffffffffffffffffff021916908373ffffffffffffffffffffffffffffffffffffffff160217905550808273ffffffffffffffffffffffffffffffffffffffff16612b4383611c77565b73ffffffffffffffffffffffffffffffffffffffff167f8c5be1e5ebec7d5bd14f71427d1e84f3dd0314c0f7b2291e5b200ac8c7c3b92560405160405180910390a45050565b6000612b9782600001613aa0565b9050919050565b6000612ba982612aab565b612bfe576040517f08c379a000000000000000000000000000000000000000000000000000000000815260040180806020018281038252602c8152602001806148a2602c913960400191505060405180910390fd5b6000612c0983611c77565b90508073ffffffffffffffffffffffffffffffffffffffff168473ffffffffffffffffffffffffffffffffffffffff161480612c7857508373ffffffffffffffffffffffffffffffffffffffff16612c60846113f5565b73ffffffffffffffffffffffffffffffffffffffff16145b80612c895750612c8881856128fb565b5b91505092915050565b8273ffffffffffffffffffffffffffffffffffffffff16612cb282611c77565b73ffffffffffffffffffffffffffffffffffffffff1614612d1e576040517f08c379a0000000000000000000000000000000000000000000000000000000008152600401808060200182810382526029815260200180614a026029913960400191505060405180910390fd5b600073ffffffffffffffffffffffffffffffffffffffff168273ffffffffffffffffffffffffffffffffffffffff161415612da4576040517f08c379a00000000000000000000000000000000000000000000000000000000081526004018080602001828103825260248152602001806148586024913960400191505060405180910390fd5b612daf838383613ab1565b612dba600082612ad0565b612e0b81600260008673ffffffffffffffffffffffffffffffffffffffff1673ffffffffffffffffffffffffffffffffffffffff168152602001908152602001600020613b1f90919063ffffffff16565b50612e5d81600260008573ffffffffffffffffffffffffffffffffffffffff1673ffffffffffffffffffffffffffffffffffffffff168152602001908152602001600020613b3990919063ffffffff16565b50612e7481836003613b539092919063ffffffff16565b50808273ffffffffffffffffffffffffffffffffffffffff168473ffffffffffffffffffffffffffffffffffffffff167fddf252ad1be2c89b69c2b068fc378daa952ba7f163c4a11628f55a4df523b3ef60405160405180910390a4505050565b6000612ee382600001613b88565b9050919050565b6000612ef98360000183613b99565b60001c905092915050565b612f2b81600080858152602001908152602001600020600001613c1c90919063ffffffff16565b15612f9357612f38612ac8565b73ffffffffffffffffffffffffffffffffffffffff168173ffffffffffffffffffffffffffffffffffffffff16837f2f8788117e7eff1d82e926ec794901d17c78024a50270940304540a733656f0d60405160405180910390a45b5050565b612fbe81600080858152602001908152602001600020600001613c4c90919063ffffffff16565b1561302657612fcb612ac8565b73ffffffffffffffffffffffffffffffffffffffff168173ffffffffffffffffffffffffffffffffffffffff16837ff6391f5c32d9c69d2a47ea670b442974b53935d1edc7fd64eb21e047a839171b60405160405180910390a45b5050565b613032611bf3565b6130a4576040517f08c379a00000000000000000000000000000000000000000000000000000000081526004018080602001828103825260148152602001807f5061757361626c653a206e6f742070617573656400000000000000000000000081525060200191505060405180910390fd5b6000601060006101000a81548160ff0219169083151502179055507f5db9ee0a495bf2e6ff9c91a7834c1ba4fdd244a5e8aa4e537bd38aeae4b073aa6130e8612ac8565b604051808273ffffffffffffffffffffffffffffffffffffffff1673ffffffffffffffffffffffffffffffffffffffff16815260200191505060405180910390a1565b600073ffffffffffffffffffffffffffffffffffffffff168273ffffffffffffffffffffffffffffffffffffffff1614156131ce576040517f08c379a00000000000000000000000000000000000000000000000000000000081526004018080602001828103825260208152602001807f4552433732313a206d696e7420746f20746865207a65726f206164647265737381525060200191505060405180910390fd5b6131d781612aab565b1561324a576040517f08c379a000000000000000000000000000000000000000000000000000000000815260040180806020018281038252601c8152602001807f4552433732313a20746f6b656e20616c7265616479206d696e7465640000000081525060200191505060405180910390fd5b61325660008383613ab1565b6132a781600260008573ffffffffffffffffffffffffffffffffffffffff1673ffffffffffffffffffffffffffffffffffffffff168152602001908152602001600020613b3990919063ffffffff16565b506132be81836003613b539092919063ffffffff16565b50808273ffffffffffffffffffffffffffffffffffffffff16600073ffffffffffffffffffffffffffffffffffffffff167fddf252ad1be2c89b69c2b068fc378daa952ba7f163c4a11628f55a4df523b3ef60405160405180910390a45050565b600061332a82611c77565b905061333881600084613ab1565b613343600083612ad0565b600060096000848152602001908152602001600020805460018160011615610100020316600290049050146133925760096000838152602001908152602001600020600061339191906146ab565b5b6133e382600260008473ffffffffffffffffffffffffffffffffffffffff1673ffffffffffffffffffffffffffffffffffffffff168152602001908152602001600020613b1f90919063ffffffff16565b506133f8826003613c7c90919063ffffffff16565b5081600073ffffffffffffffffffffffffffffffffffffffff168273ffffffffffffffffffffffffffffffffffffffff167fddf252ad1be2c89b69c2b068fc378daa952ba7f163c4a11628f55a4df523b3ef60405160405180910390a45050565b60008060008061346c8660000186613c96565b915091508160001c8160001c8090509350935050509250929050565b600061349b846000018460001b84613d2f565b60001c90509392505050565b6134af611bf3565b15613522576040517f08c379a00000000000000000000000000000000000000000000000000000000081526004018080602001828103825260108152602001807f5061757361626c653a207061757365640000000000000000000000000000000081525060200191505060405180910390fd5b6001601060006101000a81548160ff0219169083151502179055507f62e78cea01bee320cd4e420270b5ea74000d11b0c9f74754ebdbfc544b05a258613566612ac8565b604051808273ffffffffffffffffffffffffffffffffffffffff1673ffffffffffffffffffffffffffffffffffffffff16815260200191505060405180910390a1565b60006135b782600001613b88565b9050919050565b60006135cd8360000183613b99565b60001c905092915050565b6000613600836000018373ffffffffffffffffffffffffffffffffffffffff1660001b613e25565b905092915050565b613613848484612c92565b61361f84848484613e48565b613674576040517f08c379a00000000000000000000000000000000000000000000000000000000081526004018080602001828103825260328152602001806147956032913960400191505060405180910390fd5b50505050565b613682611bf3565b156136d8576040517f08c379a000000000000000000000000000000000000000000000000000000000815260040180806020018281038252602b8152602001806149d7602b913960400191505060405180910390fd5b6136e78787878787878761408d565b50505050505050565b6000600c600086815260200190815260200160002060008573ffffffffffffffffffffffffffffffffffffffff1673ffffffffffffffffffffffffffffffffffffffff1681526020019081526020016000206000848152602001908152602001600020541480156137615750600181145b61376a57600080fd5b61378f83600e60008781526020019081526020016000206135d890919063ffffffff16565b6137ba576137b883600e6000878152602001908152602001600020613c1c90919063ffffffff16565b505b6000600c600086815260200190815260200160002060008573ffffffffffffffffffffffffffffffffffffffff1673ffffffffffffffffffffffffffffffffffffffff16815260200190815260200160002060008481526020019081526020016000205414156138885761388682600f600085815260200190815260200160002060008673ffffffffffffffffffffffffffffffffffffffff1673ffffffffffffffffffffffffffffffffffffffff168152602001908152602001600020613b3990919063ffffffff16565b505b80600c600086815260200190815260200160002060008573ffffffffffffffffffffffffffffffffffffffff1673ffffffffffffffffffffffffffffffffffffffff16815260200190815260200160002060008481526020019081526020016000206000828254019250508190555050505050565b60606000821415613945576040518060400160405280600181526020017f30000000000000000000000000000000000000000000000000000000000000008152509050613a28565b600082905060005b6000821461396f578080600101915050600a828161396757fe5b04915061394d565b6060816040519080825280601f01601f1916602001820160405280156139a45781602001600182028036833780820191505090505b50905060006001830390508593505b60008414613a2057600a84816139c557fe5b0660300160f81b828280600190039350815181106139df57fe5b60200101907effffffffffffffffffffffffffffffffffffffffffffffffffffffffffffff1916908160001a905350600a8481613a1857fe5b0493506139b3565b819450505050505b919050565b6060806001604051908082528060200260200182016040528015613a605781602001602082028036833780820191505090505b5090508281600081518110613a7157fe5b60200260200101818152505080915050919050565b6000613a98836000018360001b614096565b905092915050565b600081600001805490509050919050565b613ab9611bf3565b15613b0f576040517f08c379a000000000000000000000000000000000000000000000000000000000815260040180806020018281038252602b81526020018061473b602b913960400191505060405180910390fd5b613b1a8383836140b9565b505050565b6000613b31836000018360001b6140be565b905092915050565b6000613b4b836000018360001b6141a6565b905092915050565b6000613b7f846000018460001b8473ffffffffffffffffffffffffffffffffffffffff1660001b614216565b90509392505050565b600081600001805490509050919050565b600081836000018054905011613bfa576040517f08c379a00000000000000000000000000000000000000000000000000000000081526004018080602001828103825260228152602001806147196022913960400191505060405180910390fd5b826000018281548110613c0957fe5b9060005260206000200154905092915050565b6000613c44836000018373ffffffffffffffffffffffffffffffffffffffff1660001b6141a6565b905092915050565b6000613c74836000018373ffffffffffffffffffffffffffffffffffffffff1660001b6140be565b905092915050565b6000613c8e836000018360001b6142f2565b905092915050565b60008082846000018054905011613cf8576040517f08c379a00000000000000000000000000000000000000000000000000000000081526004018080602001828103825260228152602001806149896022913960400191505060405180910390fd5b6000846000018481548110613d0957fe5b906000526020600020906002020190508060000154816001015492509250509250929050565b60008084600101600085815260200190815260200160002054905060008114158390613df6576040517f08c379a00000000000000000000000000000000000000000000000000000000081526004018080602001828103825283818151815260200191508051906020019080838360005b83811015613dbb578082015181840152602081019050613da0565b50505050905090810190601f168015613de85780820380516001836020036101000a031916815260200191505b509250505060405180910390fd5b50846000016001820381548110613e0957fe5b9060005260206000209060020201600101549150509392505050565b600080836001016000848152602001908152602001600020541415905092915050565b6000613e698473ffffffffffffffffffffffffffffffffffffffff1661440b565b613e765760019050614085565b606061400c63150b7a0260e01b613e8b612ac8565b888787604051602401808573ffffffffffffffffffffffffffffffffffffffff1673ffffffffffffffffffffffffffffffffffffffff1681526020018473ffffffffffffffffffffffffffffffffffffffff1673ffffffffffffffffffffffffffffffffffffffff16815260200183815260200180602001828103825283818151815260200191508051906020019080838360005b83811015613f3b578082015181840152602081019050613f20565b50505050905090810190601f168015613f685780820380516001836020036101000a031916815260200191505b5095505050505050604051602081830303815290604052907bffffffffffffffffffffffffffffffffffffffffffffffffffffffff19166020820180517bffffffffffffffffffffffffffffffffffffffffffffffffffffffff8381831617835250505050604051806060016040528060328152602001614795603291398773ffffffffffffffffffffffffffffffffffffffff1661441e9092919063ffffffff16565b9050600081806020019051602081101561402557600080fd5b8101908080519060200190929190505050905063150b7a0260e01b7bffffffffffffffffffffffffffffffffffffffffffffffffffffffff1916817bffffffffffffffffffffffffffffffffffffffffffffffffffffffff191614925050505b949350505050565b50505050505050565b600080836001016000848152602001908152602001600020541415905092915050565b505050565b6000808360010160008481526020019081526020016000205490506000811461419a576000600182039050600060018660000180549050039050600086600001828154811061410957fe5b906000526020600020015490508087600001848154811061412657fe5b906000526020600020018190555060018301876001016000838152602001908152602001600020819055508660000180548061415e57fe5b600190038181906000526020600020016000905590558660010160008781526020019081526020016000206000905560019450505050506141a0565b60009150505b92915050565b60006141b28383613e25565b61420b578260000182908060018154018082558091505060019003906000526020600020016000909190919091505582600001805490508360010160008481526020019081526020016000208190555060019050614210565b600090505b92915050565b60008084600101600085815260200190815260200160002054905060008114156142bd578460000160405180604001604052808681526020018581525090806001815401808255809150506001900390600052602060002090600202016000909190919091506000820151816000015560208201518160010155505084600001805490508560010160008681526020019081526020016000208190555060019150506142eb565b828560000160018303815481106142d057fe5b90600052602060002090600202016001018190555060009150505b9392505050565b600080836001016000848152602001908152602001600020549050600081146143ff576000600182039050600060018660000180549050039050600086600001828154811061433d57fe5b906000526020600020906002020190508087600001848154811061435d57fe5b90600052602060002090600202016000820154816000015560018201548160010155905050600183018760010160008360000154815260200190815260200160002081905550866000018054806143b057fe5b6001900381819060005260206000209060020201600080820160009055600182016000905550509055866001016000878152602001908152602001600020600090556001945050505050614405565b60009150505b92915050565b600080823b905060008111915050919050565b606061442d8484600085614436565b90509392505050565b606082471015614491576040517f08c379a000000000000000000000000000000000000000000000000000000000815260040180806020018281038252602681526020018061487c6026913960400191505060405180910390fd5b61449a8561440b565b61450c576040517f08c379a000000000000000000000000000000000000000000000000000000000815260040180806020018281038252601d8152602001807f416464726573733a2063616c6c20746f206e6f6e2d636f6e747261637400000081525060200191505060405180910390fd5b600060608673ffffffffffffffffffffffffffffffffffffffff1685876040518082805190602001908083835b6020831061455c5780518252602082019150602081019050602083039250614539565b6001836020036101000a03801982511681845116808217855250505050505090500191505060006040518083038185875af1925050503d80600081146145be576040519150601f19603f3d011682016040523d82523d6000602084013e6145c3565b606091505b50915091506145d38282866145df565b92505050949350505050565b606083156145ef578290506146a4565b6000835111156146025782518084602001fd5b816040517f08c379a00000000000000000000000000000000000000000000000000000000081526004018080602001828103825283818151815260200191508051906020019080838360005b8381101561466957808201518184015260208101905061464e565b50505050905090810190601f1680156146965780820380516001836020036101000a031916815260200191505b509250505060405180910390fd5b9392505050565b50805460018160011615610100020316600290046000825580601f106146d157506146f0565b601f0160209004906000526020600020908101906146ef91906146f3565b5b50565b61471591905b808211156147115760008160009055506001016146f9565b5090565b9056fe456e756d657261626c655365743a20696e646578206f7574206f6620626f756e64734552433732315061757361626c653a20746f6b656e207472616e73666572207768696c6520706175736564416363657373436f6e74726f6c3a2073656e646572206d75737420626520616e2061646d696e20746f206772616e744552433732313a207472616e7366657220746f206e6f6e20455243373231526563656976657220696d706c656d656e7465724552433939383a2064617461206d75737420636f6e7461696e2074686520756e697175652075696e7432353620746f6b656e496420746f207472616e7366657220746865206368696c6420746f6b656e20746f4552433732315072657365744d696e7465725061757365724175746f49643a206d75737420686176652070617573657220726f6c6520746f2070617573654552433732313a207472616e7366657220746f20746865207a65726f2061646472657373416464726573733a20696e73756666696369656e742062616c616e636520666f722063616c6c4552433732313a206f70657261746f7220717565727920666f72206e6f6e6578697374656e7420746f6b656e416363657373436f6e74726f6c3a2073656e646572206d75737420626520616e2061646d696e20746f207265766f6b654552433732313a20617070726f76652063616c6c6572206973206e6f74206f776e6572206e6f7220617070726f76656420666f7220616c6c4552433732313a2062616c616e636520717565727920666f7220746865207a65726f20616464726573734552433732313a206f776e657220717565727920666f72206e6f6e6578697374656e7420746f6b656e456e756d657261626c654d61703a20696e646578206f7574206f6620626f756e64734552433732313a20617070726f76656420717565727920666f72206e6f6e6578697374656e7420746f6b656e4552433939385061757361626c653a206368696c64207472616e73666572207768696c65207061757365644552433732313a207472616e73666572206f6620746f6b656e2074686174206973206e6f74206f776e4552433732314d657461646174613a2055524920717565727920666f72206e6f6e6578697374656e7420746f6b656e4552433732313a20617070726f76616c20746f2063757272656e74206f776e6572455243313135353a2069647320616e642076616c756573206c656e677468206d69736d617463684552433732313a207472616e736665722063616c6c6572206973206e6f74206f776e6572206e6f7220617070726f7665644552433732314275726e61626c653a2063616c6c6572206973206e6f74206f776e6572206e6f7220617070726f7665644552433732313a206d7573742068617665206d696e74657220726f6c6520746f206d696e744552433732315072657365744d696e7465725061757365724175746f49643a206d75737420686176652070617573657220726f6c6520746f20756e7061757365416363657373436f6e74726f6c3a2063616e206f6e6c792072656e6f756e636520726f6c657320666f722073656c66a2646970667358221220211f5d4c341357a11d9ac1b9dcbec1632a80e42976417771ea6cdb7330cbac6064736f6c63430006030033",
  "source": "// SPDX-License-Identifier: MIT\n\npragma solidity ^0.6.0;\n\nimport \"@openzeppelin/contracts/access/AccessControl.sol\";\nimport \"@openzeppelin/contracts/GSN/Context.sol\";\nimport \"@openzeppelin/contracts/utils/Pausable.sol\";\n\nimport \"./ERC998ERC1155TopDown.sol\";\n\n/**\n * @dev {ERC998} token, including:\n *\n *  - ability for holders to burn (destroy) their tokens\n *  - a minter role that allows for token minting (creation)\n *  - a pauser role that allows to stop all token transfers\n *\n * This contract uses {AccessControl} to lock permissioned functions using the\n * different roles - head to its documentation for details.\n *\n * The account that deploys the contract will be granted the minter and pauser\n * roles, as well as the default admin role, which will let it grant both minter\n * and pauser roles to other accounts.\n */\ncontract ERC998ERC1155TopDownPresetMinterPauser is\n    Context,\n    AccessControl,\n    ERC998ERC1155TopDown,\n    Pausable\n{\n    bytes32 public constant MINTER_ROLE = keccak256(\"MINTER_ROLE\");\n    bytes32 public constant PAUSER_ROLE = keccak256(\"PAUSER_ROLE\");\n\n    uint256 composableCount;\n    address[] public indexedComposableId;\n\n    /**\n     * @dev Grants `DEFAULT_ADMIN_ROLE`, `MINTER_ROLE` and `PAUSER_ROLE` to the\n     * account that deploys the contract.\n     *\n     * Token URIs will be autogenerated based on `baseURI` and their token IDs.\n     * See {ERC721-tokenURI}.\n     * @param csnftPrice creators snft marketplace price\n     */\n    constructor(\n        string memory name,\n        string memory symbol,\n        string memory baseURI,\n        uint256 csnftPrice\n    ) public ERC998ERC1155TopDown(name, symbol, baseURI, csnftPrice) {\n        _setupRole(DEFAULT_ADMIN_ROLE, _msgSender());\n        _setupRole(MINTER_ROLE, _msgSender());\n        _setupRole(PAUSER_ROLE, _msgSender());\n    }\n\n    /**\n     * @dev Creates a new token for `to`. The token URI autogenerated based on\n     * the base URI passed at construction and the token ID.\n     *\n     * See {ERC721-_mint}.\n     *\n     * Requirements:\n     *\n     * - the caller must have the `MINTER_ROLE`.\n     */\n    function mint(address to, uint256 tokenId) public virtual {\n        require(\n            hasRole(MINTER_ROLE, _msgSender()),\n            \"ERC721: must have minter role to mint\"\n        );\n        require(tokenId > composableCount);\n\n        // We cannot just use balanceOf to create the new tokenId because tokens\n        // can be burned (destroyed), so we need a separate counter.\n        _mint(to, tokenId);\n        indexedComposableId[tokenId] = msg.sender;\n        composableCount++;\n    }\n\n    /**\n     * @dev Burns `tokenId`. See {ERC721-_burn}.\n     *\n     * Requirements:\n     *\n     * - The caller must own `tokenId` or be an approved operator.\n     */\n    function burn(uint256 tokenId) public virtual {\n        //solhint-disable-next-line max-line-length\n        require(\n            _isApprovedOrOwner(_msgSender(), tokenId),\n            \"ERC721Burnable: caller is not owner nor approved\"\n        );\n        _burn(tokenId);\n    }\n\n    /**\n     * @dev Pauses all token transfers.\n     *\n     * See {ERC721Pausable} and {Pausable-_pause}.\n     *\n     * Requirements:\n     *\n     * - the caller must have the `PAUSER_ROLE`.\n     */\n    function pause() public virtual {\n        require(\n            hasRole(PAUSER_ROLE, _msgSender()),\n            \"ERC721PresetMinterPauserAutoId: must have pauser role to pause\"\n        );\n        _pause();\n    }\n\n    /**\n     * @dev Unpauses all token transfers.\n     *\n     * See {ERC721Pausable} and {Pausable-_unpause}.\n     *\n     * Requirements:\n     *\n     * - the caller must have the `PAUSER_ROLE`.\n     */\n    function unpause() public virtual {\n        require(\n            hasRole(PAUSER_ROLE, _msgSender()),\n            \"ERC721PresetMinterPauserAutoId: must have pauser role to unpause\"\n        );\n        _unpause();\n    }\n\n    /**\n     * @dev See {ERC721-_beforeTokenTransfer}.\n     *\n     * Requirements:\n     *\n     * - the contract must not be paused.\n     */\n    function _beforeTokenTransfer(\n        address from,\n        address to,\n        uint256 tokenId\n    ) internal virtual override {\n        require(!paused(), \"ERC721Pausable: token transfer while paused\");\n\n        super._beforeTokenTransfer(from, to, tokenId);\n    }\n\n    function _beforeChildTransfer(\n        address operator,\n        uint256 fromTokenId,\n        address to,\n        address childContract,\n        uint256[] memory ids,\n        uint256[] memory amounts,\n        bytes memory data\n    ) internal virtual override {\n        require(!paused(), \"ERC998Pausable: child transfer while paused\");\n\n        super._beforeChildTransfer(\n            operator,\n            fromTokenId,\n            to,\n            childContract,\n            ids,\n            amounts,\n            data\n        );\n    }\n}\n\n// SPDX-License-Identifier: UNLICENSED\npragma solidity ^0.6.0;\n///@dev handle Batch receiving function - !!!!\n\n/// @notice create tier supply and attach to composable\nimport \"@openzeppelin/contracts/presets/ERC1155PresetMinterPauser.sol\";\nimport \"@openzeppelin/contracts/token/ERC1155/IERC1155Receiver.sol\";\nimport \"@openzeppelin/contracts/token/ERC1155/ERC1155Holder.sol\";\n\n/*\n    erc1155.mint(admin, multiTokenTier0, multiTokenMaxSuply, \"0x\");\n    erc1155.safeTransferFrom(admin, erc998.address, multiTokenTier0, 1, web3.utils.encodePacked(composable1));\n\n*/\ncontract ERC1155TierUpgradePresetMinterPauser is ERC1155PresetMinterPauser {\n    bytes4 internal constant ERC1155_ACCEPTED = 0xf23a6e61; // bytes4(keccak256(\"onERC1155Received(address,address,uint256,uint256,bytes)\"))\n    bytes4 internal constant ERC1155_BATCH_ACCEPTED = 0xbc197c81; // bytes4(keccak256(\"onERC1155BatchReceived(address,address,uint256[],uint256[],bytes)\"))\n\n    constructor(\n        string memory _name,\n        string memory _symbol,\n        string memory _baseURI,\n        uint256 _csnftBasePrice,\n        string memory tierUri\n    ) public ERC1155PresetMinterPauser(tierUri) {\n        ERC998ERC1155TopDownPresetMinterPauser csnftContract = new ERC998ERC1155TopDownPresetMinterPauser(\n                _name,\n                _symbol,\n                _baseURI,\n                _csnftBasePrice\n            );\n    }\n\n    // function _mintTier(CSNFTContract csnftContract, uint tierId, bytes data ) private {\n    //     uint256 amt = 1;\n    //     _mint(csnftContract.address, tierId,1, data);\n    // }\n\n    function upgradeSNFT(\n        address from, // where the tier is being trnsfered from  (we're minting)\n        address csnftContract,\n        uint256 tierId,\n        bytes calldata data // web3.utils.encodePacked(composableId)\n    ) external payable {\n        //add tier checks\n\n        require(tierId > 0 || balanceOf(msg.sender, tierId - 1) == 1);\n\n        // 0 address\n        require(\n            csnftContract != address(0),\n            \"ERC998: transfer to the zero address\"\n        );\n        // caller  of composable is owner of composable or is approved to transfer composable ,\n        address operator = _msgSender();\n\n        _mint(csnftContract, tierId, 1, data);\n    }\n}\n",
  "sourcePath": "/home/waverune/respct-club/ERC998ERC1155/contracts/ERC998ERC1155TopDownPresetMinterPauser.sol",
  "compiler": {
    "name": "solc",
    "version": "0.6.3+commit.8dda9521.Emscripten.clang"
  },
  "schemaVersion": "3.4.1",
  "updatedAt": "2022-03-11T22:58:01.694Z",
  "devdoc": {
    "methods": {
      "balanceOf(address,uint256)": {
        "details": "See {IERC1155-balanceOf}.     * Requirements:     * - `account` cannot be the zero address."
      },
      "balanceOfBatch(address[],uint256[])": {
        "details": "See {IERC1155-balanceOfBatch}.     * Requirements:     * - `accounts` and `ids` must have the same length."
      },
      "getRoleAdmin(bytes32)": {
        "details": "Returns the admin role that controls `role`. See {grantRole} and {revokeRole}.     * To change a role's admin, use {_setRoleAdmin}."
      },
      "getRoleMember(bytes32,uint256)": {
        "details": "Returns one of the accounts that have `role`. `index` must be a value between 0 and {getRoleMemberCount}, non-inclusive.     * Role bearers are not sorted in any particular way, and their ordering may change at any point.     * WARNING: When using {getRoleMember} and {getRoleMemberCount}, make sure you perform all queries on the same block. See the following https://forum.openzeppelin.com/t/iterating-over-elements-on-enumerableset-in-openzeppelin-contracts/2296[forum post] for more information."
      },
      "getRoleMemberCount(bytes32)": {
        "details": "Returns the number of accounts that have `role`. Can be used together with {getRoleMember} to enumerate all bearers of a role."
      },
      "grantRole(bytes32,address)": {
        "details": "Grants `role` to `account`.     * If `account` had not been already granted `role`, emits a {RoleGranted} event.     * Requirements:     * - the caller must have ``role``'s admin role."
      },
      "hasRole(bytes32,address)": {
        "details": "Returns `true` if `account` has been granted `role`."
      },
      "isApprovedForAll(address,address)": {
        "details": "See {IERC1155-isApprovedForAll}."
      },
      "mint(address,uint256,uint256,bytes)": {
        "details": "Creates `amount` new tokens for `to`, of token type `id`.     * See {ERC1155-_mint}.     * Requirements:     * - the caller must have the `MINTER_ROLE`."
      },
      "mintBatch(address,uint256[],uint256[],bytes)": {
        "details": "xref:ROOT:erc1155.adoc#batch-operations[Batched] variant of {mint}."
      },
      "pause()": {
        "details": "Pauses all token transfers.     * See {ERC1155Pausable} and {Pausable-_pause}.     * Requirements:     * - the caller must have the `PAUSER_ROLE`."
      },
      "paused()": {
        "details": "Returns true if the contract is paused, and false otherwise."
      },
      "renounceRole(bytes32,address)": {
        "details": "Revokes `role` from the calling account.     * Roles are often managed via {grantRole} and {revokeRole}: this function's purpose is to provide a mechanism for accounts to lose their privileges if they are compromised (such as when a trusted device is misplaced).     * If the calling account had been granted `role`, emits a {RoleRevoked} event.     * Requirements:     * - the caller must be `account`."
      },
      "revokeRole(bytes32,address)": {
        "details": "Revokes `role` from `account`.     * If `account` had been granted `role`, emits a {RoleRevoked} event.     * Requirements:     * - the caller must have ``role``'s admin role."
      },
      "safeBatchTransferFrom(address,address,uint256[],uint256[],bytes)": {
        "details": "See {IERC1155-safeBatchTransferFrom}."
      },
      "safeTransferFrom(address,address,uint256,uint256,bytes)": {
        "details": "See {IERC1155-safeTransferFrom}."
      },
      "setApprovalForAll(address,bool)": {
        "details": "See {IERC1155-setApprovalForAll}."
      },
      "supportsInterface(bytes4)": {
        "details": "See {IERC165-supportsInterface}.     * Time complexity O(1), guaranteed to always use less than 30 000 gas."
      },
      "unpause()": {
        "details": "Unpauses all token transfers.     * See {ERC1155Pausable} and {Pausable-_unpause}.     * Requirements:     * - the caller must have the `PAUSER_ROLE`."
      },
      "uri(uint256)": {
        "details": "See {IERC1155MetadataURI-uri}.     * This implementation returns the same URI for *all* token types. It relies on the token type ID substitution mechanism https://eips.ethereum.org/EIPS/eip-1155#metadata[defined in the EIP].     * Clients calling this function must replace the `\\{id\\}` substring with the actual token type ID."
      }
    }
  },
  "userdoc": {
    "methods": {}
  }
}