{
  "contractName": "ERC1155TierUpgradePresetMinterPauserUpgradeable",
  "abi": [
    {
      "anonymous": false,
      "inputs": [
        {
          "indexed": true,
          "internalType": "address",
          "name": "account",
          "type": "address"
        },
        {
          "indexed": true,
          "internalType": "address",
          "name": "operator",
          "type": "address"
        },
        {
          "indexed": false,
          "internalType": "bool",
          "name": "approved",
          "type": "bool"
        }
      ],
      "name": "ApprovalForAll",
      "type": "event"
    },
    {
      "anonymous": false,
      "inputs": [
        {
          "indexed": false,
          "internalType": "address",
          "name": "account",
          "type": "address"
        }
      ],
      "name": "Paused",
      "type": "event"
    },
    {
      "anonymous": false,
      "inputs": [
        {
          "indexed": true,
          "internalType": "bytes32",
          "name": "role",
          "type": "bytes32"
        },
        {
          "indexed": true,
          "internalType": "bytes32",
          "name": "previousAdminRole",
          "type": "bytes32"
        },
        {
          "indexed": true,
          "internalType": "bytes32",
          "name": "newAdminRole",
          "type": "bytes32"
        }
      ],
      "name": "RoleAdminChanged",
      "type": "event"
    },
    {
      "anonymous": false,
      "inputs": [
        {
          "indexed": true,
          "internalType": "bytes32",
          "name": "role",
          "type": "bytes32"
        },
        {
          "indexed": true,
          "internalType": "address",
          "name": "account",
          "type": "address"
        },
        {
          "indexed": true,
          "internalType": "address",
          "name": "sender",
          "type": "address"
        }
      ],
      "name": "RoleGranted",
      "type": "event"
    },
    {
      "anonymous": false,
      "inputs": [
        {
          "indexed": true,
          "internalType": "bytes32",
          "name": "role",
          "type": "bytes32"
        },
        {
          "indexed": true,
          "internalType": "address",
          "name": "account",
          "type": "address"
        },
        {
          "indexed": true,
          "internalType": "address",
          "name": "sender",
          "type": "address"
        }
      ],
      "name": "RoleRevoked",
      "type": "event"
    },
    {
      "anonymous": false,
      "inputs": [
        {
          "indexed": true,
          "internalType": "address",
          "name": "operator",
          "type": "address"
        },
        {
          "indexed": true,
          "internalType": "address",
          "name": "from",
          "type": "address"
        },
        {
          "indexed": true,
          "internalType": "address",
          "name": "to",
          "type": "address"
        },
        {
          "indexed": false,
          "internalType": "uint256[]",
          "name": "ids",
          "type": "uint256[]"
        },
        {
          "indexed": false,
          "internalType": "uint256[]",
          "name": "values",
          "type": "uint256[]"
        }
      ],
      "name": "TransferBatch",
      "type": "event"
    },
    {
      "anonymous": false,
      "inputs": [
        {
          "indexed": true,
          "internalType": "address",
          "name": "operator",
          "type": "address"
        },
        {
          "indexed": true,
          "internalType": "address",
          "name": "from",
          "type": "address"
        },
        {
          "indexed": true,
          "internalType": "address",
          "name": "to",
          "type": "address"
        },
        {
          "indexed": false,
          "internalType": "uint256",
          "name": "id",
          "type": "uint256"
        },
        {
          "indexed": false,
          "internalType": "uint256",
          "name": "value",
          "type": "uint256"
        }
      ],
      "name": "TransferSingle",
      "type": "event"
    },
    {
      "anonymous": false,
      "inputs": [
        {
          "indexed": false,
          "internalType": "string",
          "name": "value",
          "type": "string"
        },
        {
          "indexed": true,
          "internalType": "uint256",
          "name": "id",
          "type": "uint256"
        }
      ],
      "name": "URI",
      "type": "event"
    },
    {
      "anonymous": false,
      "inputs": [
        {
          "indexed": false,
          "internalType": "address",
          "name": "account",
          "type": "address"
        }
      ],
      "name": "Unpaused",
      "type": "event"
    },
    {
      "inputs": [],
      "name": "DEFAULT_ADMIN_ROLE",
      "outputs": [
        {
          "internalType": "bytes32",
          "name": "",
          "type": "bytes32"
        }
      ],
      "stateMutability": "view",
      "type": "function"
    },
    {
      "inputs": [],
      "name": "MINTER_ROLE",
      "outputs": [
        {
          "internalType": "bytes32",
          "name": "",
          "type": "bytes32"
        }
      ],
      "stateMutability": "view",
      "type": "function"
    },
    {
      "inputs": [],
      "name": "PAUSER_ROLE",
      "outputs": [
        {
          "internalType": "bytes32",
          "name": "",
          "type": "bytes32"
        }
      ],
      "stateMutability": "view",
      "type": "function"
    },
    {
      "inputs": [
        {
          "internalType": "address",
          "name": "account",
          "type": "address"
        },
        {
          "internalType": "uint256",
          "name": "id",
          "type": "uint256"
        }
      ],
      "name": "balanceOf",
      "outputs": [
        {
          "internalType": "uint256",
          "name": "",
          "type": "uint256"
        }
      ],
      "stateMutability": "view",
      "type": "function"
    },
    {
      "inputs": [
        {
          "internalType": "address[]",
          "name": "accounts",
          "type": "address[]"
        },
        {
          "internalType": "uint256[]",
          "name": "ids",
          "type": "uint256[]"
        }
      ],
      "name": "balanceOfBatch",
      "outputs": [
        {
          "internalType": "uint256[]",
          "name": "",
          "type": "uint256[]"
        }
      ],
      "stateMutability": "view",
      "type": "function"
    },
    {
      "inputs": [
        {
          "internalType": "address",
          "name": "account",
          "type": "address"
        },
        {
          "internalType": "uint256",
          "name": "id",
          "type": "uint256"
        },
        {
          "internalType": "uint256",
          "name": "value",
          "type": "uint256"
        }
      ],
      "name": "burn",
      "outputs": [],
      "stateMutability": "nonpayable",
      "type": "function"
    },
    {
      "inputs": [
        {
          "internalType": "address",
          "name": "account",
          "type": "address"
        },
        {
          "internalType": "uint256[]",
          "name": "ids",
          "type": "uint256[]"
        },
        {
          "internalType": "uint256[]",
          "name": "values",
          "type": "uint256[]"
        }
      ],
      "name": "burnBatch",
      "outputs": [],
      "stateMutability": "nonpayable",
      "type": "function"
    },
    {
      "inputs": [
        {
          "internalType": "bytes32",
          "name": "role",
          "type": "bytes32"
        }
      ],
      "name": "getRoleAdmin",
      "outputs": [
        {
          "internalType": "bytes32",
          "name": "",
          "type": "bytes32"
        }
      ],
      "stateMutability": "view",
      "type": "function"
    },
    {
      "inputs": [
        {
          "internalType": "bytes32",
          "name": "role",
          "type": "bytes32"
        },
        {
          "internalType": "uint256",
          "name": "index",
          "type": "uint256"
        }
      ],
      "name": "getRoleMember",
      "outputs": [
        {
          "internalType": "address",
          "name": "",
          "type": "address"
        }
      ],
      "stateMutability": "view",
      "type": "function"
    },
    {
      "inputs": [
        {
          "internalType": "bytes32",
          "name": "role",
          "type": "bytes32"
        }
      ],
      "name": "getRoleMemberCount",
      "outputs": [
        {
          "internalType": "uint256",
          "name": "",
          "type": "uint256"
        }
      ],
      "stateMutability": "view",
      "type": "function"
    },
    {
      "inputs": [
        {
          "internalType": "bytes32",
          "name": "role",
          "type": "bytes32"
        },
        {
          "internalType": "address",
          "name": "account",
          "type": "address"
        }
      ],
      "name": "grantRole",
      "outputs": [],
      "stateMutability": "nonpayable",
      "type": "function"
    },
    {
      "inputs": [
        {
          "internalType": "bytes32",
          "name": "role",
          "type": "bytes32"
        },
        {
          "internalType": "address",
          "name": "account",
          "type": "address"
        }
      ],
      "name": "hasRole",
      "outputs": [
        {
          "internalType": "bool",
          "name": "",
          "type": "bool"
        }
      ],
      "stateMutability": "view",
      "type": "function"
    },
    {
      "inputs": [
        {
          "internalType": "address",
          "name": "account",
          "type": "address"
        },
        {
          "internalType": "address",
          "name": "operator",
          "type": "address"
        }
      ],
      "name": "isApprovedForAll",
      "outputs": [
        {
          "internalType": "bool",
          "name": "",
          "type": "bool"
        }
      ],
      "stateMutability": "view",
      "type": "function"
    },
    {
      "inputs": [
        {
          "internalType": "address",
          "name": "to",
          "type": "address"
        },
        {
          "internalType": "uint256",
          "name": "id",
          "type": "uint256"
        },
        {
          "internalType": "uint256",
          "name": "amount",
          "type": "uint256"
        },
        {
          "internalType": "bytes",
          "name": "data",
          "type": "bytes"
        }
      ],
      "name": "mint",
      "outputs": [],
      "stateMutability": "nonpayable",
      "type": "function"
    },
    {
      "inputs": [
        {
          "internalType": "address",
          "name": "to",
          "type": "address"
        },
        {
          "internalType": "uint256[]",
          "name": "ids",
          "type": "uint256[]"
        },
        {
          "internalType": "uint256[]",
          "name": "amounts",
          "type": "uint256[]"
        },
        {
          "internalType": "bytes",
          "name": "data",
          "type": "bytes"
        }
      ],
      "name": "mintBatch",
      "outputs": [],
      "stateMutability": "nonpayable",
      "type": "function"
    },
    {
      "inputs": [
        {
          "internalType": "address",
          "name": "",
          "type": "address"
        }
      ],
      "name": "ownerToTierId",
      "outputs": [
        {
          "internalType": "uint256",
          "name": "",
          "type": "uint256"
        }
      ],
      "stateMutability": "view",
      "type": "function"
    },
    {
      "inputs": [],
      "name": "pause",
      "outputs": [],
      "stateMutability": "nonpayable",
      "type": "function"
    },
    {
      "inputs": [],
      "name": "paused",
      "outputs": [
        {
          "internalType": "bool",
          "name": "",
          "type": "bool"
        }
      ],
      "stateMutability": "view",
      "type": "function"
    },
    {
      "inputs": [
        {
          "internalType": "bytes32",
          "name": "role",
          "type": "bytes32"
        },
        {
          "internalType": "address",
          "name": "account",
          "type": "address"
        }
      ],
      "name": "renounceRole",
      "outputs": [],
      "stateMutability": "nonpayable",
      "type": "function"
    },
    {
      "inputs": [
        {
          "internalType": "bytes32",
          "name": "role",
          "type": "bytes32"
        },
        {
          "internalType": "address",
          "name": "account",
          "type": "address"
        }
      ],
      "name": "revokeRole",
      "outputs": [],
      "stateMutability": "nonpayable",
      "type": "function"
    },
    {
      "inputs": [
        {
          "internalType": "address",
          "name": "from",
          "type": "address"
        },
        {
          "internalType": "address",
          "name": "to",
          "type": "address"
        },
        {
          "internalType": "uint256[]",
          "name": "ids",
          "type": "uint256[]"
        },
        {
          "internalType": "uint256[]",
          "name": "amounts",
          "type": "uint256[]"
        },
        {
          "internalType": "bytes",
          "name": "data",
          "type": "bytes"
        }
      ],
      "name": "safeBatchTransferFrom",
      "outputs": [],
      "stateMutability": "nonpayable",
      "type": "function"
    },
    {
      "inputs": [
        {
          "internalType": "address",
          "name": "from",
          "type": "address"
        },
        {
          "internalType": "address",
          "name": "to",
          "type": "address"
        },
        {
          "internalType": "uint256",
          "name": "id",
          "type": "uint256"
        },
        {
          "internalType": "uint256",
          "name": "amount",
          "type": "uint256"
        },
        {
          "internalType": "bytes",
          "name": "data",
          "type": "bytes"
        }
      ],
      "name": "safeTransferFrom",
      "outputs": [],
      "stateMutability": "nonpayable",
      "type": "function"
    },
    {
      "inputs": [
        {
          "internalType": "address",
          "name": "operator",
          "type": "address"
        },
        {
          "internalType": "bool",
          "name": "approved",
          "type": "bool"
        }
      ],
      "name": "setApprovalForAll",
      "outputs": [],
      "stateMutability": "nonpayable",
      "type": "function"
    },
    {
      "inputs": [
        {
          "internalType": "bytes4",
          "name": "interfaceId",
          "type": "bytes4"
        }
      ],
      "name": "supportsInterface",
      "outputs": [
        {
          "internalType": "bool",
          "name": "",
          "type": "bool"
        }
      ],
      "stateMutability": "view",
      "type": "function"
    },
    {
      "inputs": [],
      "name": "unpause",
      "outputs": [],
      "stateMutability": "nonpayable",
      "type": "function"
    },
    {
      "inputs": [
        {
          "internalType": "uint256",
          "name": "",
          "type": "uint256"
        }
      ],
      "name": "uri",
      "outputs": [
        {
          "internalType": "string",
          "name": "",
          "type": "string"
        }
      ],
      "stateMutability": "view",
      "type": "function"
    },
    {
      "inputs": [
        {
          "internalType": "string",
          "name": "tierUri",
          "type": "string"
        },
        {
          "internalType": "address",
          "name": "_csnftContractAdr",
          "type": "address"
        }
      ],
      "name": "initialize",
      "outputs": [],
      "stateMutability": "nonpayable",
      "type": "function"
    },
    {
      "inputs": [
        {
          "internalType": "string",
          "name": "uri",
          "type": "string"
        }
      ],
      "name": "initialize",
      "outputs": [],
      "stateMutability": "nonpayable",
      "type": "function"
    },
    {
      "inputs": [
        {
          "internalType": "address",
          "name": "_to",
          "type": "address"
        }
      ],
      "name": "getLatestTierId",
      "outputs": [
        {
          "internalType": "uint256",
          "name": "",
          "type": "uint256"
        }
      ],
      "stateMutability": "nonpayable",
      "type": "function"
    },
    {
      "inputs": [
        {
          "internalType": "address",
          "name": "_to",
          "type": "address"
        },
        {
          "internalType": "uint256",
          "name": "_amount",
          "type": "uint256"
        },
        {
          "internalType": "bytes",
          "name": "_data",
          "type": "bytes"
        }
      ],
      "name": "mintEngagementPoints",
      "outputs": [],
      "stateMutability": "nonpayable",
      "type": "function"
    },
    {
      "inputs": [
        {
          "internalType": "address",
          "name": "_to",
          "type": "address"
        },
        {
          "internalType": "uint256",
          "name": "_composableId",
          "type": "uint256"
        },
        {
          "internalType": "uint256",
          "name": "_upgradeToTierId",
          "type": "uint256"
        },
        {
          "internalType": "bytes",
          "name": "data",
          "type": "bytes"
        }
      ],
      "name": "upgradeSNFT",
      "outputs": [
        {
          "internalType": "bool",
          "name": "",
          "type": "bool"
        }
      ],
      "stateMutability": "nonpayable",
      "type": "function"
    }
  ],
  "bytecode": "0x608060405234801561001057600080fd5b50615cb880620000216000396000f3fe608060405234801561001057600080fd5b50600436106101e45760003560e01c80637ab4339d1161010f578063d5391393116100a2578063e985e9c511610071578063e985e9c5146111da578063f242432a14611256578063f5298aca14611365578063f62d1888146113bd576101e4565b8063d5391393146110f8578063d547741f14611116578063d6c3fca714611164578063e63ab1e9146111bc576101e4565b8063a217fddf116100de578063a217fddf14610ff0578063a22cb4651461100e578063ca15c8731461105e578063cb2e6b0a146110a0576101e4565b80637ab4339d14610e2d5780638456cb5914610f085780639010d07c14610f1257806391d1485414610f8a576101e4565b80632f2ff15d116101875780635438d3fe116101565780635438d3fe14610acb5780635c975abb14610bb05780636b20c45414610bd2578063731133e914610d3e576101e4565b80632f2ff15d1461088457806336568abe146108d25780633f4ba83a146109205780634e1273f41461092a576101e4565b80631b2aa877116101c35780631b2aa877146103575780631f7fdffa1461041c578063248a9ca31461061f5780632eb2c2d614610661576101e4565b8062fdd58e146101e957806301ffc9a71461024b5780630e89341c146102b0575b600080fd5b610235600480360360408110156101ff57600080fd5b81019080803573ffffffffffffffffffffffffffffffffffffffff16906020019092919080359060200190929190505050611478565b6040518082815260200191505060405180910390f35b6102966004803603602081101561026157600080fd5b8101908080357bffffffffffffffffffffffffffffffffffffffffffffffffffffffff19169060200190929190505050611558565b604051808215151515815260200191505060405180910390f35b6102dc600480360360208110156102c657600080fd5b81019080803590602001909291905050506115c0565b6040518080602001828103825283818151815260200191508051906020019080838360005b8381101561031c578082015181840152602081019050610301565b50505050905090810190601f1680156103495780820380516001836020036101000a031916815260200191505b509250505060405180910390f35b6104026004803603608081101561036d57600080fd5b81019080803573ffffffffffffffffffffffffffffffffffffffff1690602001909291908035906020019092919080359060200190929190803590602001906401000000008111156103be57600080fd5b8201836020820111156103d057600080fd5b803590602001918460018302840111640100000000831117156103f257600080fd5b9091929391929390505050611664565b604051808215151515815260200191505060405180910390f35b61061d6004803603608081101561043257600080fd5b81019080803573ffffffffffffffffffffffffffffffffffffffff1690602001909291908035906020019064010000000081111561046f57600080fd5b82018360208201111561048157600080fd5b803590602001918460208302840111640100000000831117156104a357600080fd5b919080806020026020016040519081016040528093929190818152602001838360200280828437600081840152601f19601f8201169050808301925050505050505091929192908035906020019064010000000081111561050357600080fd5b82018360208201111561051557600080fd5b8035906020019184602083028401116401000000008311171561053757600080fd5b919080806020026020016040519081016040528093929190818152602001838360200280828437600081840152601f19601f8201169050808301925050505050505091929192908035906020019064010000000081111561059757600080fd5b8201836020820111156105a957600080fd5b803590602001918460018302840111640100000000831117156105cb57600080fd5b91908080601f016020809104026020016040519081016040528093929190818152602001838380828437600081840152601f19601f820116905080830192505050505050509192919290505050611af4565b005b61064b6004803603602081101561063557600080fd5b8101908080359060200190929190505050611ba1565b6040518082815260200191505060405180910390f35b610882600480360360a081101561067757600080fd5b81019080803573ffffffffffffffffffffffffffffffffffffffff169060200190929190803573ffffffffffffffffffffffffffffffffffffffff169060200190929190803590602001906401000000008111156106d457600080fd5b8201836020820111156106e657600080fd5b8035906020019184602083028401116401000000008311171561070857600080fd5b919080806020026020016040519081016040528093929190818152602001838360200280828437600081840152601f19601f8201169050808301925050505050505091929192908035906020019064010000000081111561076857600080fd5b82018360208201111561077a57600080fd5b8035906020019184602083028401116401000000008311171561079c57600080fd5b919080806020026020016040519081016040528093929190818152602001838360200280828437600081840152601f19601f820116905080830192505050505050509192919290803590602001906401000000008111156107fc57600080fd5b82018360208201111561080e57600080fd5b8035906020019184600183028401116401000000008311171561083057600080fd5b91908080601f016020809104026020016040519081016040528093929190818152602001838380828437600081840152601f19601f820116905080830192505050505050509192919290505050611bc1565b005b6108d06004803603604081101561089a57600080fd5b8101908080359060200190929190803573ffffffffffffffffffffffffffffffffffffffff16906020019092919050505061204f565b005b61091e600480360360408110156108e857600080fd5b8101908080359060200190929190803573ffffffffffffffffffffffffffffffffffffffff1690602001909291905050506120d9565b005b610928612172565b005b610a746004803603604081101561094057600080fd5b810190808035906020019064010000000081111561095d57600080fd5b82018360208201111561096f57600080fd5b8035906020019184602083028401116401000000008311171561099157600080fd5b919080806020026020016040519081016040528093929190818152602001838360200280828437600081840152601f19601f820116905080830192505050505050509192919290803590602001906401000000008111156109f157600080fd5b820183602082011115610a0357600080fd5b80359060200191846020830284011164010000000083111715610a2557600080fd5b919080806020026020016040519081016040528093929190818152602001838360200280828437600081840152601f19601f820116905080830192505050505050509192919290505050612217565b6040518080602001828103825283818151815260200191508051906020019060200280838360005b83811015610ab7578082015181840152602081019050610a9c565b505050509050019250505060405180910390f35b610bae60048036036060811015610ae157600080fd5b81019080803573ffffffffffffffffffffffffffffffffffffffff1690602001909291908035906020019092919080359060200190640100000000811115610b2857600080fd5b820183602082011115610b3a57600080fd5b80359060200191846001830284011164010000000083111715610b5c57600080fd5b91908080601f016020809104026020016040519081016040528093929190818152602001838380828437600081840152601f19601f820116905080830192505050505050509192919290505050612315565b005b610bb86123c2565b604051808215151515815260200191505060405180910390f35b610d3c60048036036060811015610be857600080fd5b81019080803573ffffffffffffffffffffffffffffffffffffffff16906020019092919080359060200190640100000000811115610c2557600080fd5b820183602082011115610c3757600080fd5b80359060200191846020830284011164010000000083111715610c5957600080fd5b919080806020026020016040519081016040528093929190818152602001838360200280828437600081840152601f19601f82011690508083019250505050505050919291929080359060200190640100000000811115610cb957600080fd5b820183602082011115610ccb57600080fd5b80359060200191846020830284011164010000000083111715610ced57600080fd5b919080806020026020016040519081016040528093929190818152602001838360200280828437600081840152601f19601f8201169050808301925050505050505091929192905050506123d9565b005b610e2b60048036036080811015610d5457600080fd5b81019080803573ffffffffffffffffffffffffffffffffffffffff169060200190929190803590602001909291908035906020019092919080359060200190640100000000811115610da557600080fd5b820183602082011115610db757600080fd5b80359060200191846001830284011164010000000083111715610dd957600080fd5b91908080601f016020809104026020016040519081016040528093929190818152602001838380828437600081840152601f19601f82011690508083019250505050505050919291929050505061248c565b005b610f0660048036036040811015610e4357600080fd5b8101908080359060200190640100000000811115610e6057600080fd5b820183602082011115610e7257600080fd5b80359060200191846001830284011164010000000083111715610e9457600080fd5b91908080601f016020809104026020016040519081016040528093929190818152602001838380828437600081840152601f19601f820116905080830192505050505050509192919290803573ffffffffffffffffffffffffffffffffffffffff169060200190929190505050612539565b005b610f1061270b565b005b610f4860048036036040811015610f2857600080fd5b8101908080359060200190929190803590602001909291905050506127b0565b604051808273ffffffffffffffffffffffffffffffffffffffff1673ffffffffffffffffffffffffffffffffffffffff16815260200191505060405180910390f35b610fd660048036036040811015610fa057600080fd5b8101908080359060200190929190803573ffffffffffffffffffffffffffffffffffffffff1690602001909291905050506127e2565b604051808215151515815260200191505060405180910390f35b610ff8612814565b6040518082815260200191505060405180910390f35b61105c6004803603604081101561102457600080fd5b81019080803573ffffffffffffffffffffffffffffffffffffffff16906020019092919080351515906020019092919050505061281b565b005b61108a6004803603602081101561107457600080fd5b81019080803590602001909291905050506129b6565b6040518082815260200191505060405180910390f35b6110e2600480360360208110156110b657600080fd5b81019080803573ffffffffffffffffffffffffffffffffffffffff1690602001909291905050506129dd565b6040518082815260200191505060405180910390f35b611100612a27565b6040518082815260200191505060405180910390f35b6111626004803603604081101561112c57600080fd5b8101908080359060200190929190803573ffffffffffffffffffffffffffffffffffffffff169060200190929190505050612a60565b005b6111a66004803603602081101561117a57600080fd5b81019080803573ffffffffffffffffffffffffffffffffffffffff169060200190929190505050612aea565b6040518082815260200191505060405180910390f35b6111c4612b03565b6040518082815260200191505060405180910390f35b61123c600480360360408110156111f057600080fd5b81019080803573ffffffffffffffffffffffffffffffffffffffff169060200190929190803573ffffffffffffffffffffffffffffffffffffffff169060200190929190505050612b3c565b604051808215151515815260200191505060405180910390f35b611363600480360360a081101561126c57600080fd5b81019080803573ffffffffffffffffffffffffffffffffffffffff169060200190929190803573ffffffffffffffffffffffffffffffffffffffff1690602001909291908035906020019092919080359060200190929190803590602001906401000000008111156112dd57600080fd5b8201836020820111156112ef57600080fd5b8035906020019184600183028401116401000000008311171561131157600080fd5b91908080601f016020809104026020016040519081016040528093929190818152602001838380828437600081840152601f19601f820116905080830192505050505050509192919290505050612bd0565b005b6113bb6004803603606081101561137b57600080fd5b81019080803573ffffffffffffffffffffffffffffffffffffffff1690602001909291908035906020019092919080359060200190929190505050612f45565b005b611476600480360360208110156113d357600080fd5b81019080803590602001906401000000008111156113f057600080fd5b82018360208201111561140257600080fd5b8035906020019184600183028401116401000000008311171561142457600080fd5b91908080601f016020809104026020016040519081016040528093929190818152602001838380828437600081840152601f19601f820116905080830192505050505050509192919290505050612ff8565b005b60008073ffffffffffffffffffffffffffffffffffffffff168373ffffffffffffffffffffffffffffffffffffffff1614156114ff576040517f08c379a000000000000000000000000000000000000000000000000000000000815260040180806020018281038252602b8152602001806158f7602b913960400191505060405180910390fd5b6097600083815260200190815260200160002060008473ffffffffffffffffffffffffffffffffffffffff1673ffffffffffffffffffffffffffffffffffffffff16815260200190815260200160002054905092915050565b600060656000837bffffffffffffffffffffffffffffffffffffffffffffffffffffffff19167bffffffffffffffffffffffffffffffffffffffffffffffffffffffff1916815260200190815260200160002060009054906101000a900460ff169050919050565b606060998054600181600116156101000203166002900480601f0160208091040260200160405190810160405280929190818152602001828054600181600116156101000203166002900480156116585780601f1061162d57610100808354040283529160200191611658565b820191906000526020600020905b81548152906001019060200180831161163b57829003601f168201915b50505050509050919050565b60008084141561167357600080fd5b8461019160009054906101000a900473ffffffffffffffffffffffffffffffffffffffff1673ffffffffffffffffffffffffffffffffffffffff16634e18b762886040518263ffffffff1660e01b8152600401808273ffffffffffffffffffffffffffffffffffffffff1673ffffffffffffffffffffffffffffffffffffffff16815260200191505060206040518083038186803b15801561171457600080fd5b505afa158015611728573d6000803e3d6000fd5b505050506040513d602081101561173e57600080fd5b8101908080519060200190929190505050146117c2576040517f08c379a00000000000000000000000000000000000000000000000000000000081526004018080602001828103825260148152602001807f3e556e617574686f72697a65642063616c6c657200000000000000000000000081525060200191505060405180910390fd5b600061019160009054906101000a900473ffffffffffffffffffffffffffffffffffffffff1673ffffffffffffffffffffffffffffffffffffffff16637c926af6866040518263ffffffff1660e01b81526004018082815260200191505060206040518083038186803b15801561183857600080fd5b505afa15801561184c573d6000803e3d6000fd5b505050506040513d602081101561186257600080fd5b8101908080519060200190929190505050905080611881886000611478565b10156118f5576040517f08c379a00000000000000000000000000000000000000000000000000000000081526004018080602001828103825260208152602001807f3e20696e73756666696369656e7420656e676167656d656e7420706f696e747381525060200191505060405180910390fd5b600185141561198157806119098887611478565b1461197c576040517f08c379a000000000000000000000000000000000000000000000000000000000815260040180806020018281038252600e8152602001807f3e4669727374205570677261646500000000000000000000000000000000000081525060200191505060405180910390fd5b6119e7565b60016119908860018803611478565b146119e6576040517f08c379a0000000000000000000000000000000000000000000000000000000008152600401808060200182810382526022815260200180615a196022913960400191505060405180910390fd5b5b60006119f38887611478565b14611a66576040517f08c379a00000000000000000000000000000000000000000000000000000000081526004018080602001828103825260138152602001807f7469657220616c7265616479206578697374730000000000000000000000000081525060200191505060405180910390fd5b611a7287600083612f45565b611ae661019160009054906101000a900473ffffffffffffffffffffffffffffffffffffffff1686600187878080601f016020809104026020016040519081016040528093929190818152602001838380828437600081840152601f19601f82011690508083019250505050505050613101565b600191505095945050505050565b611b3a60405180807f4d494e5445525f524f4c45000000000000000000000000000000000000000000815250600b0190506040518091039020611b35613304565b6127e2565b611b8f576040517f08c379a0000000000000000000000000000000000000000000000000000000008152600401808060200182810382526038815260200180615ae36038913960400191505060405180910390fd5b611b9b8484848461330c565b50505050565b600060336000838152602001908152602001600020600201549050919050565b8151835114611c1b576040517f08c379a0000000000000000000000000000000000000000000000000000000008152600401808060200182810382526028815260200180615c0b6028913960400191505060405180910390fd5b600073ffffffffffffffffffffffffffffffffffffffff168473ffffffffffffffffffffffffffffffffffffffff161415611ca1576040517f08c379a0000000000000000000000000000000000000000000000000000000008152600401808060200182810382526025815260200180615a3b6025913960400191505060405180910390fd5b611ca9613304565b73ffffffffffffffffffffffffffffffffffffffff168573ffffffffffffffffffffffffffffffffffffffff161480611cef5750611cee85611ce9613304565b612b3c565b5b611d44576040517f08c379a0000000000000000000000000000000000000000000000000000000008152600401808060200182810382526032815260200180615a606032913960400191505060405180910390fd5b6000611d4e613304565b9050611d5e818787878787613631565b60008090505b8451811015611f32576000858281518110611d7b57fe5b602002602001015190506000858381518110611d9357fe5b60200260200101519050611e1a816040518060600160405280602a8152602001615b1b602a91396097600086815260200190815260200160002060008d73ffffffffffffffffffffffffffffffffffffffff1673ffffffffffffffffffffffffffffffffffffffff168152602001908152602001600020546136479092919063ffffffff16565b6097600084815260200190815260200160002060008b73ffffffffffffffffffffffffffffffffffffffff1673ffffffffffffffffffffffffffffffffffffffff16815260200190815260200160002081905550611ed1816097600085815260200190815260200160002060008b73ffffffffffffffffffffffffffffffffffffffff1673ffffffffffffffffffffffffffffffffffffffff1681526020019081526020016000205461370190919063ffffffff16565b6097600084815260200190815260200160002060008a73ffffffffffffffffffffffffffffffffffffffff1673ffffffffffffffffffffffffffffffffffffffff168152602001908152602001600020819055505050806001019050611d64565b508473ffffffffffffffffffffffffffffffffffffffff168673ffffffffffffffffffffffffffffffffffffffff168273ffffffffffffffffffffffffffffffffffffffff167f4a39dc06d4c0dbc64b70af90fd698a233a518aa5d07e595d983b8c0526c8f7fb8787604051808060200180602001838103835285818151815260200191508051906020019060200280838360005b83811015611fe2578082015181840152602081019050611fc7565b50505050905001838103825284818151815260200191508051906020019060200280838360005b83811015612024578082015181840152602081019050612009565b5050505090500194505050505060405180910390a4612047818787878787613789565b505050505050565b6120766033600084815260200190815260200160002060020154612071613304565b6127e2565b6120cb576040517f08c379a000000000000000000000000000000000000000000000000000000000815260040180806020018281038252602f8152602001806158c8602f913960400191505060405180910390fd5b6120d58282613c01565b5050565b6120e1613304565b73ffffffffffffffffffffffffffffffffffffffff168173ffffffffffffffffffffffffffffffffffffffff1614612164576040517f08c379a000000000000000000000000000000000000000000000000000000000815260040180806020018281038252602f815260200180615c54602f913960400191505060405180910390fd5b61216e8282613c95565b5050565b6121b860405180807f5041555345525f524f4c45000000000000000000000000000000000000000000815250600b01905060405180910390206121b3613304565b6127e2565b61220d576040517f08c379a000000000000000000000000000000000000000000000000000000000815260040180806020018281038252603b815260200180615b45603b913960400191505060405180910390fd5b612215613d29565b565b60608151835114612273576040517f08c379a0000000000000000000000000000000000000000000000000000000008152600401808060200182810382526029815260200180615be26029913960400191505060405180910390fd5b606083516040519080825280602002602001820160405280156122a55781602001602082028036833780820191505090505b50905060008090505b845181101561230a576122e78582815181106122c657fe5b60200260200101518583815181106122da57fe5b6020026020010151611478565b8282815181106122f357fe5b6020026020010181815250508060010190506122ae565b508091505092915050565b61235b60405180807f4d494e5445525f524f4c45000000000000000000000000000000000000000000815250600b0190506040518091039020612356613304565b6127e2565b6123b0576040517f08c379a000000000000000000000000000000000000000000000000000000000815260040180806020018281038252602a81526020018061599b602a913960400191505060405180910390fd5b6123bd836000848461248c565b505050565b600060fb60009054906101000a900460ff16905090565b6123e1613304565b73ffffffffffffffffffffffffffffffffffffffff168373ffffffffffffffffffffffffffffffffffffffff161480612427575061242683612421613304565b612b3c565b5b61247c576040517f08c379a00000000000000000000000000000000000000000000000000000000081526004018080602001828103825260298152602001806159726029913960400191505060405180910390fd5b612487838383613e2a565b505050565b6124d260405180807f4d494e5445525f524f4c45000000000000000000000000000000000000000000815250600b01905060405180910390206124cd613304565b6127e2565b612527576040517f08c379a0000000000000000000000000000000000000000000000000000000008152600401808060200182810382526038815260200180615ae36038913960400191505060405180910390fd5b61253384848484613101565b50505050565b600060019054906101000a900460ff16806125585750612557614168565b5b8061256f57506000809054906101000a900460ff16155b6125c4576040517f08c379a000000000000000000000000000000000000000000000000000000000815260040180806020018281038252602e815260200180615a92602e913960400191505060405180910390fd5b60008060019054906101000a900460ff161590508015612614576001600060016101000a81548160ff02191690831515021790555060016000806101000a81548160ff0219169083151502179055505b61261d83614179565b600073ffffffffffffffffffffffffffffffffffffffff168273ffffffffffffffffffffffffffffffffffffffff1614156126a3576040517f08c379a00000000000000000000000000000000000000000000000000000000081526004018080602001828103825260248152602001806159c56024913960400191505060405180910390fd5b8161019160006101000a81548173ffffffffffffffffffffffffffffffffffffffff021916908373ffffffffffffffffffffffffffffffffffffffff16021790555080156127065760008060016101000a81548160ff0219169083151502179055505b505050565b61275160405180807f5041555345525f524f4c45000000000000000000000000000000000000000000815250600b019050604051809103902061274c613304565b6127e2565b6127a6576040517f08c379a0000000000000000000000000000000000000000000000000000000008152600401808060200182810382526039815260200180615b806039913960400191505060405180910390fd5b6127ae6142bb565b565b60006127da82603360008681526020019081526020016000206000016143bd90919063ffffffff16565b905092915050565b600061280c82603360008681526020019081526020016000206000016143d790919063ffffffff16565b905092915050565b6000801b81565b8173ffffffffffffffffffffffffffffffffffffffff1661283a613304565b73ffffffffffffffffffffffffffffffffffffffff1614156128a7576040517f08c379a0000000000000000000000000000000000000000000000000000000008152600401808060200182810382526029815260200180615bb96029913960400191505060405180910390fd5b80609860006128b4613304565b73ffffffffffffffffffffffffffffffffffffffff1673ffffffffffffffffffffffffffffffffffffffff16815260200190815260200160002060008473ffffffffffffffffffffffffffffffffffffffff1673ffffffffffffffffffffffffffffffffffffffff16815260200190815260200160002060006101000a81548160ff0219169083151502179055508173ffffffffffffffffffffffffffffffffffffffff16612961613304565b73ffffffffffffffffffffffffffffffffffffffff167f17307eab39ab6107e8899845ad3d59bd9653f200f220920489ca2b5937696c3183604051808215151515815260200191505060405180910390a35050565b60006129d660336000848152602001908152602001600020600001614407565b9050919050565b600061019260008373ffffffffffffffffffffffffffffffffffffffff1673ffffffffffffffffffffffffffffffffffffffff168152602001908152602001600020549050919050565b60405180807f4d494e5445525f524f4c45000000000000000000000000000000000000000000815250600b019050604051809103902081565b612a876033600084815260200190815260200160002060020154612a82613304565b6127e2565b612adc576040517f08c379a00000000000000000000000000000000000000000000000000000000081526004018080602001828103825260308152602001806159e96030913960400191505060405180910390fd5b612ae68282613c95565b5050565b6101926020528060005260406000206000915090505481565b60405180807f5041555345525f524f4c45000000000000000000000000000000000000000000815250600b019050604051809103902081565b6000609860008473ffffffffffffffffffffffffffffffffffffffff1673ffffffffffffffffffffffffffffffffffffffff16815260200190815260200160002060008373ffffffffffffffffffffffffffffffffffffffff1673ffffffffffffffffffffffffffffffffffffffff16815260200190815260200160002060009054906101000a900460ff16905092915050565b600073ffffffffffffffffffffffffffffffffffffffff168473ffffffffffffffffffffffffffffffffffffffff161415612c56576040517f08c379a0000000000000000000000000000000000000000000000000000000008152600401808060200182810382526025815260200180615a3b6025913960400191505060405180910390fd5b612c5e613304565b73ffffffffffffffffffffffffffffffffffffffff168573ffffffffffffffffffffffffffffffffffffffff161480612ca45750612ca385612c9e613304565b612b3c565b5b612cf9576040517f08c379a00000000000000000000000000000000000000000000000000000000081526004018080602001828103825260298152602001806159726029913960400191505060405180910390fd5b6000612d03613304565b9050612d23818787612d148861441c565b612d1d8861441c565b87613631565b612da0836040518060600160405280602a8152602001615b1b602a91396097600088815260200190815260200160002060008a73ffffffffffffffffffffffffffffffffffffffff1673ffffffffffffffffffffffffffffffffffffffff168152602001908152602001600020546136479092919063ffffffff16565b6097600086815260200190815260200160002060008873ffffffffffffffffffffffffffffffffffffffff1673ffffffffffffffffffffffffffffffffffffffff16815260200190815260200160002081905550612e57836097600087815260200190815260200160002060008873ffffffffffffffffffffffffffffffffffffffff1673ffffffffffffffffffffffffffffffffffffffff1681526020019081526020016000205461370190919063ffffffff16565b6097600086815260200190815260200160002060008773ffffffffffffffffffffffffffffffffffffffff1673ffffffffffffffffffffffffffffffffffffffff168152602001908152602001600020819055508473ffffffffffffffffffffffffffffffffffffffff168673ffffffffffffffffffffffffffffffffffffffff168273ffffffffffffffffffffffffffffffffffffffff167fc3d58168c5ae7397731d063d5bbf3d657854427343f4c083240f7aacaa2d0f628787604051808381526020018281526020019250505060405180910390a4612f3d818787878787614475565b505050505050565b612f4d613304565b73ffffffffffffffffffffffffffffffffffffffff168373ffffffffffffffffffffffffffffffffffffffff161480612f935750612f9283612f8d613304565b612b3c565b5b612fe8576040517f08c379a00000000000000000000000000000000000000000000000000000000081526004018080602001828103825260298152602001806159726029913960400191505060405180910390fd5b612ff383838361486b565b505050565b600060019054906101000a900460ff16806130175750613016614168565b5b8061302e57506000809054906101000a900460ff16155b613083576040517f08c379a000000000000000000000000000000000000000000000000000000000815260040180806020018281038252602e815260200180615a92602e913960400191505060405180910390fd5b60008060019054906101000a900460ff1615905080156130d3576001600060016101000a81548160ff02191690831515021790555060016000806101000a81548160ff0219169083151502179055505b6130dc82614179565b80156130fd5760008060016101000a81548160ff0219169083151502179055505b5050565b600073ffffffffffffffffffffffffffffffffffffffff168473ffffffffffffffffffffffffffffffffffffffff161415613187576040517f08c379a0000000000000000000000000000000000000000000000000000000008152600401808060200182810382526021815260200180615c336021913960400191505060405180910390fd5b6000613191613304565b90506131b2816000876131a38861441c565b6131ac8861441c565b87613631565b613215836097600087815260200190815260200160002060008873ffffffffffffffffffffffffffffffffffffffff1673ffffffffffffffffffffffffffffffffffffffff1681526020019081526020016000205461370190919063ffffffff16565b6097600086815260200190815260200160002060008773ffffffffffffffffffffffffffffffffffffffff1673ffffffffffffffffffffffffffffffffffffffff168152602001908152602001600020819055508473ffffffffffffffffffffffffffffffffffffffff16600073ffffffffffffffffffffffffffffffffffffffff168273ffffffffffffffffffffffffffffffffffffffff167fc3d58168c5ae7397731d063d5bbf3d657854427343f4c083240f7aacaa2d0f628787604051808381526020018281526020019250505060405180910390a46132fd81600087878787614475565b5050505050565b600033905090565b600073ffffffffffffffffffffffffffffffffffffffff168473ffffffffffffffffffffffffffffffffffffffff161415613392576040517f08c379a0000000000000000000000000000000000000000000000000000000008152600401808060200182810382526021815260200180615c336021913960400191505060405180910390fd5b81518351146133ec576040517f08c379a0000000000000000000000000000000000000000000000000000000008152600401808060200182810382526028815260200180615c0b6028913960400191505060405180910390fd5b60006133f6613304565b905061340781600087878787613631565b60008090505b84518110156135135761349f6097600087848151811061342957fe5b6020026020010151815260200190815260200160002060008873ffffffffffffffffffffffffffffffffffffffff1673ffffffffffffffffffffffffffffffffffffffff1681526020019081526020016000205485838151811061348957fe5b602002602001015161370190919063ffffffff16565b609760008784815181106134af57fe5b6020026020010151815260200190815260200160002060008873ffffffffffffffffffffffffffffffffffffffff1673ffffffffffffffffffffffffffffffffffffffff16815260200190815260200160002081905550808060010191505061340d565b508473ffffffffffffffffffffffffffffffffffffffff16600073ffffffffffffffffffffffffffffffffffffffff168273ffffffffffffffffffffffffffffffffffffffff167f4a39dc06d4c0dbc64b70af90fd698a233a518aa5d07e595d983b8c0526c8f7fb8787604051808060200180602001838103835285818151815260200191508051906020019060200280838360005b838110156135c45780820151818401526020810190506135a9565b50505050905001838103825284818151815260200191508051906020019060200280838360005b838110156136065780820151818401526020810190506135eb565b5050505090500194505050505060405180910390a461362a81600087878787613789565b5050505050565b61363f868686868686614a87565b505050505050565b60008383111582906136f4576040517f08c379a00000000000000000000000000000000000000000000000000000000081526004018080602001828103825283818151815260200191508051906020019080838360005b838110156136b957808201518184015260208101905061369e565b50505050905090810190601f1680156136e65780820380516001836020036101000a031916815260200191505b509250505060405180910390fd5b5082840390509392505050565b60008082840190508381101561377f576040517f08c379a000000000000000000000000000000000000000000000000000000000815260040180806020018281038252601b8152602001807f536166654d6174683a206164646974696f6e206f766572666c6f77000000000081525060200191505060405180910390fd5b8091505092915050565b6137a88473ffffffffffffffffffffffffffffffffffffffff16614afb565b15613bf9578373ffffffffffffffffffffffffffffffffffffffff1663bc197c8187878686866040518663ffffffff1660e01b8152600401808673ffffffffffffffffffffffffffffffffffffffff1673ffffffffffffffffffffffffffffffffffffffff1681526020018573ffffffffffffffffffffffffffffffffffffffff1673ffffffffffffffffffffffffffffffffffffffff168152602001806020018060200180602001848103845287818151815260200191508051906020019060200280838360005b8381101561388c578082015181840152602081019050613871565b50505050905001848103835286818151815260200191508051906020019060200280838360005b838110156138ce5780820151818401526020810190506138b3565b50505050905001848103825285818151815260200191508051906020019080838360005b8381101561390d5780820151818401526020810190506138f2565b50505050905090810190601f16801561393a5780820380516001836020036101000a031916815260200191505b5098505050505050505050602060405180830381600087803b15801561395f57600080fd5b505af192505050801561399357506040513d602081101561397f57600080fd5b810190808051906020019092919050505060015b613b5a576000604051905060008152600115613a5c5760443d10156139bb5760009050613a5c565b60046000803e60005160e01c6308c379a081146139dc576000915050613a5c565b60043d036004833e81513d602482011167ffffffffffffffff82111715613a0857600092505050613a5c565b808301805167ffffffffffffffff811115613a2a576000945050505050613a5c565b8060208301013d8601811115613a4857600095505050505050613a5c565b601f19601f82011660405282955050505050505b80613a675750613b09565b806040517f08c379a00000000000000000000000000000000000000000000000000000000081526004018080602001828103825283818151815260200191508051906020019080838360005b83811015613ace578082015181840152602081019050613ab3565b50505050905090810190601f168015613afb5780820380516001836020036101000a031916815260200191505b509250505060405180910390fd5b6040517f08c379a000000000000000000000000000000000000000000000000000000000815260040180806020018281038252603481526020018061584a6034913960400191505060405180910390fd5b63bc197c8160e01b7bffffffffffffffffffffffffffffffffffffffffffffffffffffffff1916817bffffffffffffffffffffffffffffffffffffffffffffffffffffffff191614613bf7576040517f08c379a00000000000000000000000000000000000000000000000000000000081526004018080602001828103825260288152602001806158a06028913960400191505060405180910390fd5b505b505050505050565b613c298160336000858152602001908152602001600020600001614b0e90919063ffffffff16565b15613c9157613c36613304565b73ffffffffffffffffffffffffffffffffffffffff168173ffffffffffffffffffffffffffffffffffffffff16837f2f8788117e7eff1d82e926ec794901d17c78024a50270940304540a733656f0d60405160405180910390a45b5050565b613cbd8160336000858152602001908152602001600020600001614b3e90919063ffffffff16565b15613d2557613cca613304565b73ffffffffffffffffffffffffffffffffffffffff168173ffffffffffffffffffffffffffffffffffffffff16837ff6391f5c32d9c69d2a47ea670b442974b53935d1edc7fd64eb21e047a839171b60405160405180910390a45b5050565b613d316123c2565b613da3576040517f08c379a00000000000000000000000000000000000000000000000000000000081526004018080602001828103825260148152602001807f5061757361626c653a206e6f742070617573656400000000000000000000000081525060200191505060405180910390fd5b600060fb60006101000a81548160ff0219169083151502179055507f5db9ee0a495bf2e6ff9c91a7834c1ba4fdd244a5e8aa4e537bd38aeae4b073aa613de7613304565b604051808273ffffffffffffffffffffffffffffffffffffffff1673ffffffffffffffffffffffffffffffffffffffff16815260200191505060405180910390a1565b600073ffffffffffffffffffffffffffffffffffffffff168373ffffffffffffffffffffffffffffffffffffffff161415613eb0576040517f08c379a0000000000000000000000000000000000000000000000000000000008152600401808060200182810382526023815260200180615ac06023913960400191505060405180910390fd5b8051825114613f0a576040517f08c379a0000000000000000000000000000000000000000000000000000000008152600401808060200182810382526028815260200180615c0b6028913960400191505060405180910390fd5b6000613f14613304565b9050613f3481856000868660405180602001604052806000815250613631565b60008090505b835181101561405a57613fe6838281518110613f5257fe5b60200260200101516040518060600160405280602481526020016159226024913960976000888681518110613f8357fe5b6020026020010151815260200190815260200160002060008973ffffffffffffffffffffffffffffffffffffffff1673ffffffffffffffffffffffffffffffffffffffff168152602001908152602001600020546136479092919063ffffffff16565b60976000868481518110613ff657fe5b6020026020010151815260200190815260200160002060008773ffffffffffffffffffffffffffffffffffffffff1673ffffffffffffffffffffffffffffffffffffffff168152602001908152602001600020819055508080600101915050613f3a565b50600073ffffffffffffffffffffffffffffffffffffffff168473ffffffffffffffffffffffffffffffffffffffff168273ffffffffffffffffffffffffffffffffffffffff167f4a39dc06d4c0dbc64b70af90fd698a233a518aa5d07e595d983b8c0526c8f7fb8686604051808060200180602001838103835285818151815260200191508051906020019060200280838360005b8381101561410b5780820151818401526020810190506140f0565b50505050905001838103825284818151815260200191508051906020019060200280838360005b8381101561414d578082015181840152602081019050614132565b5050505090500194505050505060405180910390a450505050565b600061417330614afb565b15905090565b600060019054906101000a900460ff16806141985750614197614168565b5b806141af57506000809054906101000a900460ff16155b614204576040517f08c379a000000000000000000000000000000000000000000000000000000000815260040180806020018281038252602e815260200180615a92602e913960400191505060405180910390fd5b60008060019054906101000a900460ff161590508015614254576001600060016101000a81548160ff02191690831515021790555060016000806101000a81548160ff0219169083151502179055505b61425c614b6e565b614264614c6d565b61426c614d6c565b61427582614e7b565b61427d614fa4565b6142856150a3565b61428d6151bd565b614296826152bc565b80156142b75760008060016101000a81548160ff0219169083151502179055505b5050565b6142c36123c2565b15614336576040517f08c379a00000000000000000000000000000000000000000000000000000000081526004018080602001828103825260108152602001807f5061757361626c653a207061757365640000000000000000000000000000000081525060200191505060405180910390fd5b600160fb60006101000a81548160ff0219169083151502179055507f62e78cea01bee320cd4e420270b5ea74000d11b0c9f74754ebdbfc544b05a25861437a613304565b604051808273ffffffffffffffffffffffffffffffffffffffff1673ffffffffffffffffffffffffffffffffffffffff16815260200191505060405180910390a1565b60006143cc836000018361545c565b60001c905092915050565b60006143ff836000018373ffffffffffffffffffffffffffffffffffffffff1660001b6154df565b905092915050565b600061441582600001615502565b9050919050565b606080600160405190808252806020026020018201604052801561444f5781602001602082028036833780820191505090505b509050828160008151811061446057fe5b60200260200101818152505080915050919050565b6144948473ffffffffffffffffffffffffffffffffffffffff16614afb565b15614863578373ffffffffffffffffffffffffffffffffffffffff1663f23a6e6187878686866040518663ffffffff1660e01b8152600401808673ffffffffffffffffffffffffffffffffffffffff1673ffffffffffffffffffffffffffffffffffffffff1681526020018573ffffffffffffffffffffffffffffffffffffffff1673ffffffffffffffffffffffffffffffffffffffff16815260200184815260200183815260200180602001828103825283818151815260200191508051906020019080838360005b8381101561457957808201518184015260208101905061455e565b50505050905090810190601f1680156145a65780820380516001836020036101000a031916815260200191505b509650505050505050602060405180830381600087803b1580156145c957600080fd5b505af19250505080156145fd57506040513d60208110156145e957600080fd5b810190808051906020019092919050505060015b6147c45760006040519050600081526001156146c65760443d101561462557600090506146c6565b60046000803e60005160e01c6308c379a081146146465760009150506146c6565b60043d036004833e81513d602482011167ffffffffffffffff82111715614672576000925050506146c6565b808301805167ffffffffffffffff8111156146945760009450505050506146c6565b8060208301013d86018111156146b2576000955050505050506146c6565b601f19601f82011660405282955050505050505b806146d15750614773565b806040517f08c379a00000000000000000000000000000000000000000000000000000000081526004018080602001828103825283818151815260200191508051906020019080838360005b8381101561473857808201518184015260208101905061471d565b50505050905090810190601f1680156147655780820380516001836020036101000a031916815260200191505b509250505060405180910390fd5b6040517f08c379a000000000000000000000000000000000000000000000000000000000815260040180806020018281038252603481526020018061584a6034913960400191505060405180910390fd5b63f23a6e6160e01b7bffffffffffffffffffffffffffffffffffffffffffffffffffffffff1916817bffffffffffffffffffffffffffffffffffffffffffffffffffffffff191614614861576040517f08c379a00000000000000000000000000000000000000000000000000000000081526004018080602001828103825260288152602001806158a06028913960400191505060405180910390fd5b505b505050505050565b600073ffffffffffffffffffffffffffffffffffffffff168373ffffffffffffffffffffffffffffffffffffffff1614156148f1576040517f08c379a0000000000000000000000000000000000000000000000000000000008152600401808060200182810382526023815260200180615ac06023913960400191505060405180910390fd5b60006148fb613304565b905061492b8185600061490d8761441c565b6149168761441c565b60405180602001604052806000815250613631565b6149a882604051806060016040528060248152602001615922602491396097600087815260200190815260200160002060008873ffffffffffffffffffffffffffffffffffffffff1673ffffffffffffffffffffffffffffffffffffffff168152602001908152602001600020546136479092919063ffffffff16565b6097600085815260200190815260200160002060008673ffffffffffffffffffffffffffffffffffffffff1673ffffffffffffffffffffffffffffffffffffffff16815260200190815260200160002081905550600073ffffffffffffffffffffffffffffffffffffffff168473ffffffffffffffffffffffffffffffffffffffff168273ffffffffffffffffffffffffffffffffffffffff167fc3d58168c5ae7397731d063d5bbf3d657854427343f4c083240f7aacaa2d0f628686604051808381526020018281526020019250505060405180910390a450505050565b614a95868686868686615513565b614a9d6123c2565b15614af3576040517f08c379a000000000000000000000000000000000000000000000000000000000815260040180806020018281038252602c815260200180615946602c913960400191505060405180910390fd5b505050505050565b600080823b905060008111915050919050565b6000614b36836000018373ffffffffffffffffffffffffffffffffffffffff1660001b61551b565b905092915050565b6000614b66836000018373ffffffffffffffffffffffffffffffffffffffff1660001b61558b565b905092915050565b600060019054906101000a900460ff1680614b8d5750614b8c614168565b5b80614ba457506000809054906101000a900460ff16155b614bf9576040517f08c379a000000000000000000000000000000000000000000000000000000000815260040180806020018281038252602e815260200180615a92602e913960400191505060405180910390fd5b60008060019054906101000a900460ff161590508015614c49576001600060016101000a81548160ff02191690831515021790555060016000806101000a81548160ff0219169083151502179055505b8015614c6a5760008060016101000a81548160ff0219169083151502179055505b50565b600060019054906101000a900460ff1680614c8c5750614c8b614168565b5b80614ca357506000809054906101000a900460ff16155b614cf8576040517f08c379a000000000000000000000000000000000000000000000000000000000815260040180806020018281038252602e815260200180615a92602e913960400191505060405180910390fd5b60008060019054906101000a900460ff161590508015614d48576001600060016101000a81548160ff02191690831515021790555060016000806101000a81548160ff0219169083151502179055505b8015614d695760008060016101000a81548160ff0219169083151502179055505b50565b600060019054906101000a900460ff1680614d8b5750614d8a614168565b5b80614da257506000809054906101000a900460ff16155b614df7576040517f08c379a000000000000000000000000000000000000000000000000000000000815260040180806020018281038252602e815260200180615a92602e913960400191505060405180910390fd5b60008060019054906101000a900460ff161590508015614e47576001600060016101000a81548160ff02191690831515021790555060016000806101000a81548160ff0219169083151502179055505b614e576301ffc9a760e01b615673565b8015614e785760008060016101000a81548160ff0219169083151502179055505b50565b600060019054906101000a900460ff1680614e9a5750614e99614168565b5b80614eb157506000809054906101000a900460ff16155b614f06576040517f08c379a000000000000000000000000000000000000000000000000000000000815260040180806020018281038252602e815260200180615a92602e913960400191505060405180910390fd5b60008060019054906101000a900460ff161590508015614f56576001600060016101000a81548160ff02191690831515021790555060016000806101000a81548160ff0219169083151502179055505b614f5f8261577c565b614f6f63d9b67a2660e01b615673565b614f7f630e89341c60e01b615673565b8015614fa05760008060016101000a81548160ff0219169083151502179055505b5050565b600060019054906101000a900460ff1680614fc35750614fc2614168565b5b80614fda57506000809054906101000a900460ff16155b61502f576040517f08c379a000000000000000000000000000000000000000000000000000000000815260040180806020018281038252602e815260200180615a92602e913960400191505060405180910390fd5b60008060019054906101000a900460ff16159050801561507f576001600060016101000a81548160ff02191690831515021790555060016000806101000a81548160ff0219169083151502179055505b80156150a05760008060016101000a81548160ff0219169083151502179055505b50565b600060019054906101000a900460ff16806150c257506150c1614168565b5b806150d957506000809054906101000a900460ff16155b61512e576040517f08c379a000000000000000000000000000000000000000000000000000000000815260040180806020018281038252602e815260200180615a92602e913960400191505060405180910390fd5b60008060019054906101000a900460ff16159050801561517e576001600060016101000a81548160ff02191690831515021790555060016000806101000a81548160ff0219169083151502179055505b600060fb60006101000a81548160ff02191690831515021790555080156151ba5760008060016101000a81548160ff0219169083151502179055505b50565b600060019054906101000a900460ff16806151dc57506151db614168565b5b806151f357506000809054906101000a900460ff16155b615248576040517f08c379a000000000000000000000000000000000000000000000000000000000815260040180806020018281038252602e815260200180615a92602e913960400191505060405180910390fd5b60008060019054906101000a900460ff161590508015615298576001600060016101000a81548160ff02191690831515021790555060016000806101000a81548160ff0219169083151502179055505b80156152b95760008060016101000a81548160ff0219169083151502179055505b50565b600060019054906101000a900460ff16806152db57506152da614168565b5b806152f257506000809054906101000a900460ff16155b615347576040517f08c379a000000000000000000000000000000000000000000000000000000000815260040180806020018281038252602e815260200180615a92602e913960400191505060405180910390fd5b60008060019054906101000a900460ff161590508015615397576001600060016101000a81548160ff02191690831515021790555060016000806101000a81548160ff0219169083151502179055505b6153ab6000801b6153a6613304565b615796565b6153f160405180807f4d494e5445525f524f4c45000000000000000000000000000000000000000000815250600b01905060405180910390206153ec613304565b615796565b61543760405180807f5041555345525f524f4c45000000000000000000000000000000000000000000815250600b0190506040518091039020615432613304565b615796565b80156154585760008060016101000a81548160ff0219169083151502179055505b5050565b6000818360000180549050116154bd576040517f08c379a000000000000000000000000000000000000000000000000000000000815260040180806020018281038252602281526020018061587e6022913960400191505060405180910390fd5b8260000182815481106154cc57fe5b9060005260206000200154905092915050565b600080836001016000848152602001908152602001600020541415905092915050565b600081600001805490509050919050565b505050505050565b600061552783836154df565b615580578260000182908060018154018082558091505060019003906000526020600020016000909190919091505582600001805490508360010160008481526020019081526020016000208190555060019050615585565b600090505b92915050565b6000808360010160008481526020019081526020016000205490506000811461566757600060018203905060006001866000018054905003905060008660000182815481106155d657fe5b90600052602060002001549050808760000184815481106155f357fe5b906000526020600020018190555060018301876001016000838152602001908152602001600020819055508660000180548061562b57fe5b6001900381819060005260206000200160009055905586600101600087815260200190815260200160002060009055600194505050505061566d565b60009150505b92915050565b63ffffffff60e01b817bffffffffffffffffffffffffffffffffffffffffffffffffffffffff1916141561570f576040517f08c379a000000000000000000000000000000000000000000000000000000000815260040180806020018281038252601c8152602001807f4552433136353a20696e76616c696420696e746572666163652069640000000081525060200191505060405180910390fd5b600160656000837bffffffffffffffffffffffffffffffffffffffffffffffffffffffff19167bffffffffffffffffffffffffffffffffffffffffffffffffffffffff1916815260200190815260200160002060006101000a81548160ff02191690831515021790555050565b80609990805190602001906157929291906157a4565b5050565b6157a08282613c01565b5050565b828054600181600116156101000203166002900490600052602060002090601f016020900481019282601f106157e557805160ff1916838001178555615813565b82800160010185558215615813579182015b828111156158125782518255916020019190600101906157f7565b5b5090506158209190615824565b5090565b61584691905b8082111561584257600081600090555060010161582a565b5090565b9056fe455243313135353a207472616e7366657220746f206e6f6e2045524331313535526563656976657220696d706c656d656e746572456e756d657261626c655365743a20696e646578206f7574206f6620626f756e6473455243313135353a204552433131353552656365697665722072656a656374656420746f6b656e73416363657373436f6e74726f6c3a2073656e646572206d75737420626520616e2061646d696e20746f206772616e74455243313135353a2062616c616e636520717565727920666f7220746865207a65726f2061646472657373455243313135353a206275726e20616d6f756e7420657863656564732062616c616e6365455243313135355061757361626c653a20746f6b656e207472616e73666572207768696c6520706175736564455243313135353a2063616c6c6572206973206e6f74206f776e6572206e6f7220617070726f7665644552433131353554554d5020756e617574686f72697a656420656e676167656d656e74206d696e7465724552433939383a207472616e7366657220746f20746865207a65726f2061646472657373416363657373436f6e74726f6c3a2073656e646572206d75737420626520616e2061646d696e20746f207265766f6b653e4e6f6e2d73657175656e7469616c20746965722075706772616465206572726f72455243313135353a207472616e7366657220746f20746865207a65726f2061646472657373455243313135353a207472616e736665722063616c6c6572206973206e6f74206f776e6572206e6f7220617070726f766564496e697469616c697a61626c653a20636f6e747261637420697320616c726561647920696e697469616c697a6564455243313135353a206275726e2066726f6d20746865207a65726f2061646472657373455243313135355072657365744d696e7465725061757365723a206d7573742068617665206d696e74657220726f6c6520746f206d696e74455243313135353a20696e73756666696369656e742062616c616e636520666f72207472616e73666572455243313135355072657365744d696e7465725061757365723a206d75737420686176652070617573657220726f6c6520746f20756e7061757365455243313135355072657365744d696e7465725061757365723a206d75737420686176652070617573657220726f6c6520746f207061757365455243313135353a2073657474696e6720617070726f76616c2073746174757320666f722073656c66455243313135353a206163636f756e747320616e6420696473206c656e677468206d69736d61746368455243313135353a2069647320616e6420616d6f756e7473206c656e677468206d69736d61746368455243313135353a206d696e7420746f20746865207a65726f2061646472657373416363657373436f6e74726f6c3a2063616e206f6e6c792072656e6f756e636520726f6c657320666f722073656c66a264697066735822122015ac3f200a3187575413e9b90dd84504c9178ae575192ab856c6dfe73fd188e364736f6c63430006030033",
  "source": "// SPDX-License-Identifier: UNLICENSED\npragma solidity ^0.6.0;\n///@dev handle Batch receiving function - !!!!\n\n/// @title ERC1155TUMP creates tier supply and attaches tier to composable\n/// @author respect-club\n/// @notice receives Engagement tokens and attaches tier to composable ERC998\n\nimport \"@openzeppelin/contracts-upgradeable/proxy/Initializable.sol\";\n\nimport \"@openzeppelin/contracts-upgradeable/presets/ERC1155PresetMinterPauserUpgradeable.sol\";\n// import \"@openzeppelin/contracts/token/ERC1155/IERC1155Receiver.sol\";\n// import \"@openzeppelin/contracts-upgradeable/token/ERC1155/ERC1155HolderUpgradeable.sol\";\nimport \"./ERC998ERC1155TopDownPresetMinterPauserUpgradeable.sol\";\n\ncontract ERC1155TierUpgradePresetMinterPauserUpgradeable is\n    Initializable,\n    ERC1155PresetMinterPauserUpgradeable\n{\n    using SafeMathUpgradeable for uint256;\n    bytes4 internal constant ERC1155_ACCEPTED = 0xf23a6e61; // bytes4(keccak256(\"onERC1155Received(address,address,uint256,uint256,bytes)\"))\n    bytes4 internal constant ERC1155_BATCH_ACCEPTED = 0xbc197c81; // bytes4(keccak256(\"onERC1155BatchReceived(address,address,uint256[],uint256[],bytes)\"))\n\n    ERC998ERC1155TopDownPresetMinterPauserUpgradeable csnftContract;\n    mapping(address => uint256) public ownerToTierId;\n\n    mapping(address => bool) private _ownerToUpgradeInitiated;\n\n    /// @notice csnft contract is deployed and linked to ERC1155TUMP\n    /// @param _csnftContractAdr deployed csnft contract\n\n    function initialize(string memory tierUri, address _csnftContractAdr)\n        public\n        initializer\n    {\n        __ERC1155PresetMinterPauser_init(tierUri);\n        require(\n            _csnftContractAdr != address(0),\n            \"ERC998: transfer to the zero address\"\n        );\n\n        csnftContract = ERC998ERC1155TopDownPresetMinterPauserUpgradeable(\n            _csnftContractAdr\n        );\n    }\n\n    function getLatestTierId(address _to) public returns (uint256) {\n        // uint256[] s arr = childIdsForOn(_composableId, tierContract);\n        return ownerToTierId[_to];\n    }\n\n    /// implement claimF engagement points\n    //function claim(){}\n    /// @notice mints enagagement point onlyMinterRole\n    /// @param _to csnftContract Address\n    /// @param _amount of F engagement  points\n    /// @param _data web3.utils.encodePacked(composableId)\n    function mintEngagementPoints(\n        address _to,\n        uint256 _amount,\n        bytes memory _data\n    ) public {\n        require(\n            hasRole(MINTER_ROLE, _msgSender()),\n            \"ERC1155TUMP unauthorized engagement minter\"\n        );\n\n        mint(_to, 0, _amount, _data);\n    }\n\n    /// @notice upgrade user tier\n    /// @dev fetch curent tier of msg.sender\n    /// @param _to  the owner of the  snft to be upgraded\n\n    function upgradeSNFT(\n        address _to, //  a/c of owner of snft\n        uint256 _composableId,\n        uint256 _upgradeToTierId,\n        bytes calldata data // web3.utils.encodePacked(composableId)\n    ) external returns (bool) {\n        //add tier checks  if tierId =1 bal(t-1) == 1\n        // at t=0 bal(0) >= _FengagementPOints\n        require(_upgradeToTierId != 0);\n\n        // checks if _to owns the composable\n        require(\n            csnftContract.ownerToComposableId(_to) == _composableId,\n            \">Unauthorized caller\"\n        );\n\n        // fetch upgrading cost\n        uint256 upgradeCost = csnftContract.getTierUpgradeCost(\n            _upgradeToTierId\n        );\n        require(\n            balanceOf(_to, 0) >= upgradeCost,\n            \"> insufficient engagement points\"\n        );\n\n        if (_upgradeToTierId == 1) {\n            require(\n                balanceOf(_to, _upgradeToTierId) == upgradeCost,\n                \">First Upgrade\"\n            ); //handle\n        } else {\n            require(\n                balanceOf(_to, _upgradeToTierId - 1) == 1,\n                \">Non-sequential tier upgrade error\"\n            );\n        }\n        require(balanceOf(_to, _upgradeToTierId) == 0, \"tier already exists\");\n\n        // check if owner has sufficient engagement points\n\n        burn(_to, 0, upgradeCost); // burn engagement tid 0\n\n        _mint(address(csnftContract), _upgradeToTierId, 1, data);\n\n        // csnftContract.incrementTierId(_to, _upgradeToTierId);\n        return true;\n    }\n    // implement function to mint | claim F(creators engagement ) at tokenId 0\n}\n",
  "sourcePath": "/home/waverune/respct-club/ERC998ERC1155/contracts/ERC1155TierUpgradePresetMinterPauserUpgradeable.sol",
  "compiler": {
    "name": "solc",
    "version": "0.6.3+commit.8dda9521.Emscripten.clang"
  },
  "schemaVersion": "3.4.1",
  "updatedAt": "2022-03-22T18:11:32.373Z",
  "devdoc": {
    "methods": {
      "balanceOf(address,uint256)": {
        "details": "See {IERC1155-balanceOf}.     * Requirements:     * - `account` cannot be the zero address."
      },
      "balanceOfBatch(address[],uint256[])": {
        "details": "See {IERC1155-balanceOfBatch}.     * Requirements:     * - `accounts` and `ids` must have the same length."
      },
      "getRoleAdmin(bytes32)": {
        "details": "Returns the admin role that controls `role`. See {grantRole} and {revokeRole}.     * To change a role's admin, use {_setRoleAdmin}."
      },
      "getRoleMember(bytes32,uint256)": {
        "details": "Returns one of the accounts that have `role`. `index` must be a value between 0 and {getRoleMemberCount}, non-inclusive.     * Role bearers are not sorted in any particular way, and their ordering may change at any point.     * WARNING: When using {getRoleMember} and {getRoleMemberCount}, make sure you perform all queries on the same block. See the following https://forum.openzeppelin.com/t/iterating-over-elements-on-enumerableset-in-openzeppelin-contracts/2296[forum post] for more information."
      },
      "getRoleMemberCount(bytes32)": {
        "details": "Returns the number of accounts that have `role`. Can be used together with {getRoleMember} to enumerate all bearers of a role."
      },
      "grantRole(bytes32,address)": {
        "details": "Grants `role` to `account`.     * If `account` had not been already granted `role`, emits a {RoleGranted} event.     * Requirements:     * - the caller must have ``role``'s admin role."
      },
      "hasRole(bytes32,address)": {
        "details": "Returns `true` if `account` has been granted `role`."
      },
      "initialize(string,address)": {
        "params": {
          "_csnftContractAdr": "deployed csnft contract"
        }
      },
      "isApprovedForAll(address,address)": {
        "details": "See {IERC1155-isApprovedForAll}."
      },
      "mint(address,uint256,uint256,bytes)": {
        "details": "Creates `amount` new tokens for `to`, of token type `id`.     * See {ERC1155-_mint}.     * Requirements:     * - the caller must have the `MINTER_ROLE`."
      },
      "mintBatch(address,uint256[],uint256[],bytes)": {
        "details": "xref:ROOT:erc1155.adoc#batch-operations[Batched] variant of {mint}."
      },
      "mintEngagementPoints(address,uint256,bytes)": {
        "params": {
          "_amount": "of F engagement  points",
          "_data": "web3.utils.encodePacked(composableId)",
          "_to": "csnftContract Address"
        }
      },
      "pause()": {
        "details": "Pauses all token transfers.     * See {ERC1155Pausable} and {Pausable-_pause}.     * Requirements:     * - the caller must have the `PAUSER_ROLE`."
      },
      "paused()": {
        "details": "Returns true if the contract is paused, and false otherwise."
      },
      "renounceRole(bytes32,address)": {
        "details": "Revokes `role` from the calling account.     * Roles are often managed via {grantRole} and {revokeRole}: this function's purpose is to provide a mechanism for accounts to lose their privileges if they are compromised (such as when a trusted device is misplaced).     * If the calling account had been granted `role`, emits a {RoleRevoked} event.     * Requirements:     * - the caller must be `account`."
      },
      "revokeRole(bytes32,address)": {
        "details": "Revokes `role` from `account`.     * If `account` had been granted `role`, emits a {RoleRevoked} event.     * Requirements:     * - the caller must have ``role``'s admin role."
      },
      "safeBatchTransferFrom(address,address,uint256[],uint256[],bytes)": {
        "details": "See {IERC1155-safeBatchTransferFrom}."
      },
      "safeTransferFrom(address,address,uint256,uint256,bytes)": {
        "details": "See {IERC1155-safeTransferFrom}."
      },
      "setApprovalForAll(address,bool)": {
        "details": "See {IERC1155-setApprovalForAll}."
      },
      "supportsInterface(bytes4)": {
        "details": "See {IERC165-supportsInterface}.     * Time complexity O(1), guaranteed to always use less than 30 000 gas."
      },
      "unpause()": {
        "details": "Unpauses all token transfers.     * See {ERC1155Pausable} and {Pausable-_unpause}.     * Requirements:     * - the caller must have the `PAUSER_ROLE`."
      },
      "upgradeSNFT(address,uint256,uint256,bytes)": {
        "details": "fetch curent tier of msg.sender",
        "params": {
          "_to": "the owner of the  snft to be upgraded"
        }
      },
      "uri(uint256)": {
        "details": "See {IERC1155MetadataURI-uri}.     * This implementation returns the same URI for *all* token types. It relies on the token type ID substitution mechanism https://eips.ethereum.org/EIPS/eip-1155#metadata[defined in the EIP].     * Clients calling this function must replace the `\\{id\\}` substring with the actual token type ID."
      }
    }
  },
  "userdoc": {
    "methods": {
      "initialize(string,address)": {
        "notice": "csnft contract is deployed and linked to ERC1155TUMP"
      },
      "mintEngagementPoints(address,uint256,bytes)": {
        "notice": "mints enagagement point onlyMinterRole"
      },
      "upgradeSNFT(address,uint256,uint256,bytes)": {
        "notice": "upgrade user tier"
      }
    }
  }
}