{
  "contractName": "ERC1155TierUpgradePresetMinterPauser",
  "abi": [
    {
      "inputs": [
        {
          "internalType": "string",
          "name": "tierUri",
          "type": "string"
        },
        {
          "internalType": "address",
          "name": "_csnftContractAdr",
          "type": "address"
        }
      ],
      "stateMutability": "nonpayable",
      "type": "constructor"
    },
    {
      "anonymous": false,
      "inputs": [
        {
          "indexed": true,
          "internalType": "address",
          "name": "account",
          "type": "address"
        },
        {
          "indexed": true,
          "internalType": "address",
          "name": "operator",
          "type": "address"
        },
        {
          "indexed": false,
          "internalType": "bool",
          "name": "approved",
          "type": "bool"
        }
      ],
      "name": "ApprovalForAll",
      "type": "event"
    },
    {
      "anonymous": false,
      "inputs": [
        {
          "indexed": false,
          "internalType": "address",
          "name": "account",
          "type": "address"
        }
      ],
      "name": "Paused",
      "type": "event"
    },
    {
      "anonymous": false,
      "inputs": [
        {
          "indexed": true,
          "internalType": "bytes32",
          "name": "role",
          "type": "bytes32"
        },
        {
          "indexed": true,
          "internalType": "bytes32",
          "name": "previousAdminRole",
          "type": "bytes32"
        },
        {
          "indexed": true,
          "internalType": "bytes32",
          "name": "newAdminRole",
          "type": "bytes32"
        }
      ],
      "name": "RoleAdminChanged",
      "type": "event"
    },
    {
      "anonymous": false,
      "inputs": [
        {
          "indexed": true,
          "internalType": "bytes32",
          "name": "role",
          "type": "bytes32"
        },
        {
          "indexed": true,
          "internalType": "address",
          "name": "account",
          "type": "address"
        },
        {
          "indexed": true,
          "internalType": "address",
          "name": "sender",
          "type": "address"
        }
      ],
      "name": "RoleGranted",
      "type": "event"
    },
    {
      "anonymous": false,
      "inputs": [
        {
          "indexed": true,
          "internalType": "bytes32",
          "name": "role",
          "type": "bytes32"
        },
        {
          "indexed": true,
          "internalType": "address",
          "name": "account",
          "type": "address"
        },
        {
          "indexed": true,
          "internalType": "address",
          "name": "sender",
          "type": "address"
        }
      ],
      "name": "RoleRevoked",
      "type": "event"
    },
    {
      "anonymous": false,
      "inputs": [
        {
          "indexed": true,
          "internalType": "address",
          "name": "operator",
          "type": "address"
        },
        {
          "indexed": true,
          "internalType": "address",
          "name": "from",
          "type": "address"
        },
        {
          "indexed": true,
          "internalType": "address",
          "name": "to",
          "type": "address"
        },
        {
          "indexed": false,
          "internalType": "uint256[]",
          "name": "ids",
          "type": "uint256[]"
        },
        {
          "indexed": false,
          "internalType": "uint256[]",
          "name": "values",
          "type": "uint256[]"
        }
      ],
      "name": "TransferBatch",
      "type": "event"
    },
    {
      "anonymous": false,
      "inputs": [
        {
          "indexed": true,
          "internalType": "address",
          "name": "operator",
          "type": "address"
        },
        {
          "indexed": true,
          "internalType": "address",
          "name": "from",
          "type": "address"
        },
        {
          "indexed": true,
          "internalType": "address",
          "name": "to",
          "type": "address"
        },
        {
          "indexed": false,
          "internalType": "uint256",
          "name": "id",
          "type": "uint256"
        },
        {
          "indexed": false,
          "internalType": "uint256",
          "name": "value",
          "type": "uint256"
        }
      ],
      "name": "TransferSingle",
      "type": "event"
    },
    {
      "anonymous": false,
      "inputs": [
        {
          "indexed": false,
          "internalType": "string",
          "name": "value",
          "type": "string"
        },
        {
          "indexed": true,
          "internalType": "uint256",
          "name": "id",
          "type": "uint256"
        }
      ],
      "name": "URI",
      "type": "event"
    },
    {
      "anonymous": false,
      "inputs": [
        {
          "indexed": false,
          "internalType": "address",
          "name": "account",
          "type": "address"
        }
      ],
      "name": "Unpaused",
      "type": "event"
    },
    {
      "inputs": [],
      "name": "DEFAULT_ADMIN_ROLE",
      "outputs": [
        {
          "internalType": "bytes32",
          "name": "",
          "type": "bytes32"
        }
      ],
      "stateMutability": "view",
      "type": "function",
      "constant": true
    },
    {
      "inputs": [],
      "name": "MINTER_ROLE",
      "outputs": [
        {
          "internalType": "bytes32",
          "name": "",
          "type": "bytes32"
        }
      ],
      "stateMutability": "view",
      "type": "function",
      "constant": true
    },
    {
      "inputs": [],
      "name": "PAUSER_ROLE",
      "outputs": [
        {
          "internalType": "bytes32",
          "name": "",
          "type": "bytes32"
        }
      ],
      "stateMutability": "view",
      "type": "function",
      "constant": true
    },
    {
      "inputs": [
        {
          "internalType": "address",
          "name": "account",
          "type": "address"
        },
        {
          "internalType": "uint256",
          "name": "id",
          "type": "uint256"
        }
      ],
      "name": "balanceOf",
      "outputs": [
        {
          "internalType": "uint256",
          "name": "",
          "type": "uint256"
        }
      ],
      "stateMutability": "view",
      "type": "function",
      "constant": true
    },
    {
      "inputs": [
        {
          "internalType": "address[]",
          "name": "accounts",
          "type": "address[]"
        },
        {
          "internalType": "uint256[]",
          "name": "ids",
          "type": "uint256[]"
        }
      ],
      "name": "balanceOfBatch",
      "outputs": [
        {
          "internalType": "uint256[]",
          "name": "",
          "type": "uint256[]"
        }
      ],
      "stateMutability": "view",
      "type": "function",
      "constant": true
    },
    {
      "inputs": [
        {
          "internalType": "address",
          "name": "account",
          "type": "address"
        },
        {
          "internalType": "uint256",
          "name": "id",
          "type": "uint256"
        },
        {
          "internalType": "uint256",
          "name": "value",
          "type": "uint256"
        }
      ],
      "name": "burn",
      "outputs": [],
      "stateMutability": "nonpayable",
      "type": "function"
    },
    {
      "inputs": [
        {
          "internalType": "address",
          "name": "account",
          "type": "address"
        },
        {
          "internalType": "uint256[]",
          "name": "ids",
          "type": "uint256[]"
        },
        {
          "internalType": "uint256[]",
          "name": "values",
          "type": "uint256[]"
        }
      ],
      "name": "burnBatch",
      "outputs": [],
      "stateMutability": "nonpayable",
      "type": "function"
    },
    {
      "inputs": [
        {
          "internalType": "bytes32",
          "name": "role",
          "type": "bytes32"
        }
      ],
      "name": "getRoleAdmin",
      "outputs": [
        {
          "internalType": "bytes32",
          "name": "",
          "type": "bytes32"
        }
      ],
      "stateMutability": "view",
      "type": "function",
      "constant": true
    },
    {
      "inputs": [
        {
          "internalType": "bytes32",
          "name": "role",
          "type": "bytes32"
        },
        {
          "internalType": "uint256",
          "name": "index",
          "type": "uint256"
        }
      ],
      "name": "getRoleMember",
      "outputs": [
        {
          "internalType": "address",
          "name": "",
          "type": "address"
        }
      ],
      "stateMutability": "view",
      "type": "function",
      "constant": true
    },
    {
      "inputs": [
        {
          "internalType": "bytes32",
          "name": "role",
          "type": "bytes32"
        }
      ],
      "name": "getRoleMemberCount",
      "outputs": [
        {
          "internalType": "uint256",
          "name": "",
          "type": "uint256"
        }
      ],
      "stateMutability": "view",
      "type": "function",
      "constant": true
    },
    {
      "inputs": [
        {
          "internalType": "bytes32",
          "name": "role",
          "type": "bytes32"
        },
        {
          "internalType": "address",
          "name": "account",
          "type": "address"
        }
      ],
      "name": "grantRole",
      "outputs": [],
      "stateMutability": "nonpayable",
      "type": "function"
    },
    {
      "inputs": [
        {
          "internalType": "bytes32",
          "name": "role",
          "type": "bytes32"
        },
        {
          "internalType": "address",
          "name": "account",
          "type": "address"
        }
      ],
      "name": "hasRole",
      "outputs": [
        {
          "internalType": "bool",
          "name": "",
          "type": "bool"
        }
      ],
      "stateMutability": "view",
      "type": "function",
      "constant": true
    },
    {
      "inputs": [
        {
          "internalType": "address",
          "name": "account",
          "type": "address"
        },
        {
          "internalType": "address",
          "name": "operator",
          "type": "address"
        }
      ],
      "name": "isApprovedForAll",
      "outputs": [
        {
          "internalType": "bool",
          "name": "",
          "type": "bool"
        }
      ],
      "stateMutability": "view",
      "type": "function",
      "constant": true
    },
    {
      "inputs": [
        {
          "internalType": "address",
          "name": "to",
          "type": "address"
        },
        {
          "internalType": "uint256",
          "name": "id",
          "type": "uint256"
        },
        {
          "internalType": "uint256",
          "name": "amount",
          "type": "uint256"
        },
        {
          "internalType": "bytes",
          "name": "data",
          "type": "bytes"
        }
      ],
      "name": "mint",
      "outputs": [],
      "stateMutability": "nonpayable",
      "type": "function"
    },
    {
      "inputs": [
        {
          "internalType": "address",
          "name": "to",
          "type": "address"
        },
        {
          "internalType": "uint256[]",
          "name": "ids",
          "type": "uint256[]"
        },
        {
          "internalType": "uint256[]",
          "name": "amounts",
          "type": "uint256[]"
        },
        {
          "internalType": "bytes",
          "name": "data",
          "type": "bytes"
        }
      ],
      "name": "mintBatch",
      "outputs": [],
      "stateMutability": "nonpayable",
      "type": "function"
    },
    {
      "inputs": [],
      "name": "pause",
      "outputs": [],
      "stateMutability": "nonpayable",
      "type": "function"
    },
    {
      "inputs": [],
      "name": "paused",
      "outputs": [
        {
          "internalType": "bool",
          "name": "",
          "type": "bool"
        }
      ],
      "stateMutability": "view",
      "type": "function",
      "constant": true
    },
    {
      "inputs": [
        {
          "internalType": "bytes32",
          "name": "role",
          "type": "bytes32"
        },
        {
          "internalType": "address",
          "name": "account",
          "type": "address"
        }
      ],
      "name": "renounceRole",
      "outputs": [],
      "stateMutability": "nonpayable",
      "type": "function"
    },
    {
      "inputs": [
        {
          "internalType": "bytes32",
          "name": "role",
          "type": "bytes32"
        },
        {
          "internalType": "address",
          "name": "account",
          "type": "address"
        }
      ],
      "name": "revokeRole",
      "outputs": [],
      "stateMutability": "nonpayable",
      "type": "function"
    },
    {
      "inputs": [
        {
          "internalType": "address",
          "name": "from",
          "type": "address"
        },
        {
          "internalType": "address",
          "name": "to",
          "type": "address"
        },
        {
          "internalType": "uint256[]",
          "name": "ids",
          "type": "uint256[]"
        },
        {
          "internalType": "uint256[]",
          "name": "amounts",
          "type": "uint256[]"
        },
        {
          "internalType": "bytes",
          "name": "data",
          "type": "bytes"
        }
      ],
      "name": "safeBatchTransferFrom",
      "outputs": [],
      "stateMutability": "nonpayable",
      "type": "function"
    },
    {
      "inputs": [
        {
          "internalType": "address",
          "name": "from",
          "type": "address"
        },
        {
          "internalType": "address",
          "name": "to",
          "type": "address"
        },
        {
          "internalType": "uint256",
          "name": "id",
          "type": "uint256"
        },
        {
          "internalType": "uint256",
          "name": "amount",
          "type": "uint256"
        },
        {
          "internalType": "bytes",
          "name": "data",
          "type": "bytes"
        }
      ],
      "name": "safeTransferFrom",
      "outputs": [],
      "stateMutability": "nonpayable",
      "type": "function"
    },
    {
      "inputs": [
        {
          "internalType": "address",
          "name": "operator",
          "type": "address"
        },
        {
          "internalType": "bool",
          "name": "approved",
          "type": "bool"
        }
      ],
      "name": "setApprovalForAll",
      "outputs": [],
      "stateMutability": "nonpayable",
      "type": "function"
    },
    {
      "inputs": [
        {
          "internalType": "bytes4",
          "name": "interfaceId",
          "type": "bytes4"
        }
      ],
      "name": "supportsInterface",
      "outputs": [
        {
          "internalType": "bool",
          "name": "",
          "type": "bool"
        }
      ],
      "stateMutability": "view",
      "type": "function",
      "constant": true
    },
    {
      "inputs": [],
      "name": "unpause",
      "outputs": [],
      "stateMutability": "nonpayable",
      "type": "function"
    },
    {
      "inputs": [
        {
          "internalType": "uint256",
          "name": "",
          "type": "uint256"
        }
      ],
      "name": "uri",
      "outputs": [
        {
          "internalType": "string",
          "name": "",
          "type": "string"
        }
      ],
      "stateMutability": "view",
      "type": "function",
      "constant": true
    },
    {
      "inputs": [
        {
          "internalType": "uint256",
          "name": "_composableId",
          "type": "uint256"
        },
        {
          "internalType": "uint256",
          "name": "_upgradeToTierId",
          "type": "uint256"
        },
        {
          "internalType": "bytes",
          "name": "data",
          "type": "bytes"
        }
      ],
      "name": "upgradeSNFT",
      "outputs": [],
      "stateMutability": "payable",
      "type": "function",
      "payable": true
    }
  ],
  "bytecode": "0x60806040523480156200001157600080fd5b5060405162004d3338038062004d33833981810160405260408110156200003757600080fd5b81019080805160405193929190846401000000008211156200005857600080fd5b838201915060208201858111156200006f57600080fd5b82518660018202830111640100000000821117156200008d57600080fd5b8083526020830192505050908051906020019080838360005b83811015620000c3578082015181840152602081019050620000a6565b50505050905090810190601f168015620000f15780820380516001836020036101000a031916815260200191505b506040526020018051906020019092919050505081806200011f6301ffc9a760e01b6200031e60201b60201c565b62000130816200042760201b60201c565b6200014863d9b67a2660e01b6200031e60201b60201c565b62000160630e89341c60e01b6200031e60201b60201c565b506000600560006101000a81548160ff021916908315150217905550620001a06000801b620001946200044360201b60201c565b6200044b60201b60201c565b620001f660405180807f4d494e5445525f524f4c45000000000000000000000000000000000000000000815250600b0190506040518091039020620001ea6200044360201b60201c565b6200044b60201b60201c565b6200024c60405180807f5041555345525f524f4c45000000000000000000000000000000000000000000815250600b0190506040518091039020620002406200044360201b60201c565b6200044b60201b60201c565b50600073ffffffffffffffffffffffffffffffffffffffff168173ffffffffffffffffffffffffffffffffffffffff161415620002d5576040517f08c379a000000000000000000000000000000000000000000000000000000000815260040180806020018281038252602481526020018062004d0f6024913960400191505060405180910390fd5b80600560016101000a81548173ffffffffffffffffffffffffffffffffffffffff021916908373ffffffffffffffffffffffffffffffffffffffff160217905550505062000688565b63ffffffff60e01b817bffffffffffffffffffffffffffffffffffffffffffffffffffffffff19161415620003bb576040517f08c379a000000000000000000000000000000000000000000000000000000000815260040180806020018281038252601c8152602001807f4552433136353a20696e76616c696420696e746572666163652069640000000081525060200191505060405180910390fd5b6001806000837bffffffffffffffffffffffffffffffffffffffffffffffffffffffff19167bffffffffffffffffffffffffffffffffffffffffffffffffffffffff1916815260200190815260200160002060006101000a81548160ff02191690831515021790555050565b80600490805190602001906200043f929190620005d9565b5050565b600033905090565b6200045d82826200046160201b60201c565b5050565b6200048f816000808581526020019081526020016000206000016200050460201b6200402f1790919060201c565b156200050057620004a56200044360201b60201c565b73ffffffffffffffffffffffffffffffffffffffff168173ffffffffffffffffffffffffffffffffffffffff16837f2f8788117e7eff1d82e926ec794901d17c78024a50270940304540a733656f0d60405160405180910390a45b5050565b600062000534836000018373ffffffffffffffffffffffffffffffffffffffff1660001b6200053c60201b60201c565b905092915050565b6000620005508383620005b660201b60201c565b620005ab578260000182908060018154018082558091505060019003906000526020600020016000909190919091505582600001805490508360010160008481526020019081526020016000208190555060019050620005b0565b600090505b92915050565b600080836001016000848152602001908152602001600020541415905092915050565b828054600181600116156101000203166002900490600052602060002090601f016020900481019282601f106200061c57805160ff19168380011785556200064d565b828001600101855582156200064d579182015b828111156200064c5782518255916020019190600101906200062f565b5b5090506200065c919062000660565b5090565b6200068591905b808211156200068157600081600090555060010162000667565b5090565b90565b61467780620006986000396000f3fe6080604052600436106101805760003560e01c80638456cb59116100d1578063d53913931161008a578063e985e9c511610064578063e985e9c514610f5f578063ef44dc6514610fe8578063f242432a14611075578063f5298aca1461119157610180565b8063d539139314610eae578063d547741f14610ed9578063e63ab1e914610f3457610180565b80638456cb5914610cc85780639010d07c14610cdf57806391d1485414610d64578063a217fddf14610dd7578063a22cb46514610e02578063ca15c87314610e5f57610180565b80632f2ff15d1161013e5780634e1273f4116101185780634e1273f4146108765780635c975abb14610a245780636b20c45414610a53578063731133e914610bcc57610180565b80632f2ff15d146107a957806336568abe146108045780633f4ba83a1461085f57610180565b8062fdd58e1461018557806301ffc9a7146101f45780630e89341c146102665780631f7fdffa1461031a578063248a9ca31461052a5780632eb2c2d614610579575b600080fd5b34801561019157600080fd5b506101de600480360360408110156101a857600080fd5b81019080803573ffffffffffffffffffffffffffffffffffffffff169060200190929190803590602001909291905050506111f6565b6040518082815260200191505060405180910390f35b34801561020057600080fd5b5061024c6004803603602081101561021757600080fd5b8101908080357bffffffffffffffffffffffffffffffffffffffffffffffffffffffff191690602001909291905050506112d6565b604051808215151515815260200191505060405180910390f35b34801561027257600080fd5b5061029f6004803603602081101561028957600080fd5b810190808035906020019092919050505061133e565b6040518080602001828103825283818151815260200191508051906020019080838360005b838110156102df5780820151818401526020810190506102c4565b50505050905090810190601f16801561030c5780820380516001836020036101000a031916815260200191505b509250505060405180910390f35b34801561032657600080fd5b506105286004803603608081101561033d57600080fd5b81019080803573ffffffffffffffffffffffffffffffffffffffff1690602001909291908035906020019064010000000081111561037a57600080fd5b82018360208201111561038c57600080fd5b803590602001918460208302840111640100000000831117156103ae57600080fd5b919080806020026020016040519081016040528093929190818152602001838360200280828437600081840152601f19601f8201169050808301925050505050505091929192908035906020019064010000000081111561040e57600080fd5b82018360208201111561042057600080fd5b8035906020019184602083028401116401000000008311171561044257600080fd5b919080806020026020016040519081016040528093929190818152602001838360200280828437600081840152601f19601f820116905080830192505050505050509192919290803590602001906401000000008111156104a257600080fd5b8201836020820111156104b457600080fd5b803590602001918460018302840111640100000000831117156104d657600080fd5b91908080601f016020809104026020016040519081016040528093929190818152602001838380828437600081840152601f19601f8201169050808301925050505050505091929192905050506113e2565b005b34801561053657600080fd5b506105636004803603602081101561054d57600080fd5b810190808035906020019092919050505061148f565b6040518082815260200191505060405180910390f35b34801561058557600080fd5b506107a7600480360360a081101561059c57600080fd5b81019080803573ffffffffffffffffffffffffffffffffffffffff169060200190929190803573ffffffffffffffffffffffffffffffffffffffff169060200190929190803590602001906401000000008111156105f957600080fd5b82018360208201111561060b57600080fd5b8035906020019184602083028401116401000000008311171561062d57600080fd5b919080806020026020016040519081016040528093929190818152602001838360200280828437600081840152601f19601f8201169050808301925050505050505091929192908035906020019064010000000081111561068d57600080fd5b82018360208201111561069f57600080fd5b803590602001918460208302840111640100000000831117156106c157600080fd5b919080806020026020016040519081016040528093929190818152602001838360200280828437600081840152601f19601f8201169050808301925050505050505091929192908035906020019064010000000081111561072157600080fd5b82018360208201111561073357600080fd5b8035906020019184600183028401116401000000008311171561075557600080fd5b91908080601f016020809104026020016040519081016040528093929190818152602001838380828437600081840152601f19601f8201169050808301925050505050505091929192905050506114ae565b005b3480156107b557600080fd5b50610802600480360360408110156107cc57600080fd5b8101908080359060200190929190803573ffffffffffffffffffffffffffffffffffffffff16906020019092919050505061193c565b005b34801561081057600080fd5b5061085d6004803603604081101561082757600080fd5b8101908080359060200190929190803573ffffffffffffffffffffffffffffffffffffffff1690602001909291905050506119c5565b005b34801561086b57600080fd5b50610874611a5e565b005b34801561088257600080fd5b506109cd6004803603604081101561089957600080fd5b81019080803590602001906401000000008111156108b657600080fd5b8201836020820111156108c857600080fd5b803590602001918460208302840111640100000000831117156108ea57600080fd5b919080806020026020016040519081016040528093929190818152602001838360200280828437600081840152601f19601f8201169050808301925050505050505091929192908035906020019064010000000081111561094a57600080fd5b82018360208201111561095c57600080fd5b8035906020019184602083028401116401000000008311171561097e57600080fd5b919080806020026020016040519081016040528093929190818152602001838360200280828437600081840152601f19601f820116905080830192505050505050509192919290505050611b03565b6040518080602001828103825283818151815260200191508051906020019060200280838360005b83811015610a105780820151818401526020810190506109f5565b505050509050019250505060405180910390f35b348015610a3057600080fd5b50610a39611c01565b604051808215151515815260200191505060405180910390f35b348015610a5f57600080fd5b50610bca60048036036060811015610a7657600080fd5b81019080803573ffffffffffffffffffffffffffffffffffffffff16906020019092919080359060200190640100000000811115610ab357600080fd5b820183602082011115610ac557600080fd5b80359060200191846020830284011164010000000083111715610ae757600080fd5b919080806020026020016040519081016040528093929190818152602001838360200280828437600081840152601f19601f82011690508083019250505050505050919291929080359060200190640100000000811115610b4757600080fd5b820183602082011115610b5957600080fd5b80359060200191846020830284011164010000000083111715610b7b57600080fd5b919080806020026020016040519081016040528093929190818152602001838360200280828437600081840152601f19601f820116905080830192505050505050509192919290505050611c18565b005b348015610bd857600080fd5b50610cc660048036036080811015610bef57600080fd5b81019080803573ffffffffffffffffffffffffffffffffffffffff169060200190929190803590602001909291908035906020019092919080359060200190640100000000811115610c4057600080fd5b820183602082011115610c5257600080fd5b80359060200191846001830284011164010000000083111715610c7457600080fd5b91908080601f016020809104026020016040519081016040528093929190818152602001838380828437600081840152601f19601f820116905080830192505050505050509192919290505050611ccb565b005b348015610cd457600080fd5b50610cdd611d78565b005b348015610ceb57600080fd5b50610d2260048036036040811015610d0257600080fd5b810190808035906020019092919080359060200190929190505050611e1d565b604051808273ffffffffffffffffffffffffffffffffffffffff1673ffffffffffffffffffffffffffffffffffffffff16815260200191505060405180910390f35b348015610d7057600080fd5b50610dbd60048036036040811015610d8757600080fd5b8101908080359060200190929190803573ffffffffffffffffffffffffffffffffffffffff169060200190929190505050611e4e565b604051808215151515815260200191505060405180910390f35b348015610de357600080fd5b50610dec611e7f565b6040518082815260200191505060405180910390f35b348015610e0e57600080fd5b50610e5d60048036036040811015610e2557600080fd5b81019080803573ffffffffffffffffffffffffffffffffffffffff169060200190929190803515159060200190929190505050611e86565b005b348015610e6b57600080fd5b50610e9860048036036020811015610e8257600080fd5b8101908080359060200190929190505050612021565b6040518082815260200191505060405180910390f35b348015610eba57600080fd5b50610ec3612047565b6040518082815260200191505060405180910390f35b348015610ee557600080fd5b50610f3260048036036040811015610efc57600080fd5b8101908080359060200190929190803573ffffffffffffffffffffffffffffffffffffffff169060200190929190505050612080565b005b348015610f4057600080fd5b50610f49612109565b6040518082815260200191505060405180910390f35b348015610f6b57600080fd5b50610fce60048036036040811015610f8257600080fd5b81019080803573ffffffffffffffffffffffffffffffffffffffff169060200190929190803573ffffffffffffffffffffffffffffffffffffffff169060200190929190505050612142565b604051808215151515815260200191505060405180910390f35b61107360048036036060811015610ffe57600080fd5b8101908080359060200190929190803590602001909291908035906020019064010000000081111561102f57600080fd5b82018360208201111561104157600080fd5b8035906020019184600183028401116401000000008311171561106357600080fd5b90919293919293905050506121d6565b005b34801561108157600080fd5b5061118f600480360360a081101561109857600080fd5b81019080803573ffffffffffffffffffffffffffffffffffffffff169060200190929190803573ffffffffffffffffffffffffffffffffffffffff16906020019092919080359060200190929190803590602001909291908035906020019064010000000081111561110957600080fd5b82018360208201111561111b57600080fd5b8035906020019184600183028401116401000000008311171561113d57600080fd5b91908080601f016020809104026020016040519081016040528093929190818152602001838380828437600081840152601f19601f82011690508083019250505050505050919291929050505061234f565b005b34801561119d57600080fd5b506111f4600480360360608110156111b457600080fd5b81019080803573ffffffffffffffffffffffffffffffffffffffff16906020019092919080359060200190929190803590602001909291905050506126c4565b005b60008073ffffffffffffffffffffffffffffffffffffffff168373ffffffffffffffffffffffffffffffffffffffff16141561127d576040517f08c379a000000000000000000000000000000000000000000000000000000000815260040180806020018281038252602b815260200180614354602b913960400191505060405180910390fd5b6002600083815260200190815260200160002060008473ffffffffffffffffffffffffffffffffffffffff1673ffffffffffffffffffffffffffffffffffffffff16815260200190815260200160002054905092915050565b600060016000837bffffffffffffffffffffffffffffffffffffffffffffffffffffffff19167bffffffffffffffffffffffffffffffffffffffffffffffffffffffff1916815260200190815260200160002060009054906101000a900460ff169050919050565b606060048054600181600116156101000203166002900480601f0160208091040260200160405190810160405280929190818152602001828054600181600116156101000203166002900480156113d65780601f106113ab576101008083540402835291602001916113d6565b820191906000526020600020905b8154815290600101906020018083116113b957829003601f168201915b50505050509050919050565b61142860405180807f4d494e5445525f524f4c45000000000000000000000000000000000000000000815250600b0190506040518091039020611423612777565b611e4e565b61147d576040517f08c379a00000000000000000000000000000000000000000000000000000000081526004018080602001828103825260388152602001806144a26038913960400191505060405180910390fd5b6114898484848461277f565b50505050565b6000806000838152602001908152602001600020600201549050919050565b8151835114611508576040517f08c379a00000000000000000000000000000000000000000000000000000000081526004018080602001828103825260288152602001806145ca6028913960400191505060405180910390fd5b600073ffffffffffffffffffffffffffffffffffffffff168473ffffffffffffffffffffffffffffffffffffffff16141561158e576040517f08c379a00000000000000000000000000000000000000000000000000000000081526004018080602001828103825260258152602001806144286025913960400191505060405180910390fd5b611596612777565b73ffffffffffffffffffffffffffffffffffffffff168573ffffffffffffffffffffffffffffffffffffffff1614806115dc57506115db856115d6612777565b612142565b5b611631576040517f08c379a000000000000000000000000000000000000000000000000000000000815260040180806020018281038252603281526020018061444d6032913960400191505060405180910390fd5b600061163b612777565b905061164b818787878787612aa4565b60008090505b845181101561181f57600085828151811061166857fe5b60200260200101519050600085838151811061168057fe5b60200260200101519050611707816040518060600160405280602a81526020016144da602a91396002600086815260200190815260200160002060008d73ffffffffffffffffffffffffffffffffffffffff1673ffffffffffffffffffffffffffffffffffffffff16815260200190815260200160002054612aba9092919063ffffffff16565b6002600084815260200190815260200160002060008b73ffffffffffffffffffffffffffffffffffffffff1673ffffffffffffffffffffffffffffffffffffffff168152602001908152602001600020819055506117be816002600085815260200190815260200160002060008b73ffffffffffffffffffffffffffffffffffffffff1673ffffffffffffffffffffffffffffffffffffffff16815260200190815260200160002054612b7490919063ffffffff16565b6002600084815260200190815260200160002060008a73ffffffffffffffffffffffffffffffffffffffff1673ffffffffffffffffffffffffffffffffffffffff168152602001908152602001600020819055505050806001019050611651565b508473ffffffffffffffffffffffffffffffffffffffff168673ffffffffffffffffffffffffffffffffffffffff168273ffffffffffffffffffffffffffffffffffffffff167f4a39dc06d4c0dbc64b70af90fd698a233a518aa5d07e595d983b8c0526c8f7fb8787604051808060200180602001838103835285818151815260200191508051906020019060200280838360005b838110156118cf5780820151818401526020810190506118b4565b50505050905001838103825284818151815260200191508051906020019060200280838360005b838110156119115780820151818401526020810190506118f6565b5050505090500194505050505060405180910390a4611934818787878787612bfc565b505050505050565b6119626000808481526020019081526020016000206002015461195d612777565b611e4e565b6119b7576040517f08c379a000000000000000000000000000000000000000000000000000000000815260040180806020018281038252602f815260200180614325602f913960400191505060405180910390fd5b6119c18282613074565b5050565b6119cd612777565b73ffffffffffffffffffffffffffffffffffffffff168173ffffffffffffffffffffffffffffffffffffffff1614611a50576040517f08c379a000000000000000000000000000000000000000000000000000000000815260040180806020018281038252602f815260200180614613602f913960400191505060405180910390fd5b611a5a8282613107565b5050565b611aa460405180807f5041555345525f524f4c45000000000000000000000000000000000000000000815250600b0190506040518091039020611a9f612777565b611e4e565b611af9576040517f08c379a000000000000000000000000000000000000000000000000000000000815260040180806020018281038252603b815260200180614504603b913960400191505060405180910390fd5b611b0161319a565b565b60608151835114611b5f576040517f08c379a00000000000000000000000000000000000000000000000000000000081526004018080602001828103825260298152602001806145a16029913960400191505060405180910390fd5b60608351604051908082528060200260200182016040528015611b915781602001602082028036833780820191505090505b50905060008090505b8451811015611bf657611bd3858281518110611bb257fe5b6020026020010151858381518110611bc657fe5b60200260200101516111f6565b828281518110611bdf57fe5b602002602001018181525050806001019050611b9a565b508091505092915050565b6000600560009054906101000a900460ff16905090565b611c20612777565b73ffffffffffffffffffffffffffffffffffffffff168373ffffffffffffffffffffffffffffffffffffffff161480611c665750611c6583611c60612777565b612142565b5b611cbb576040517f08c379a00000000000000000000000000000000000000000000000000000000081526004018080602001828103825260298152602001806143cf6029913960400191505060405180910390fd5b611cc683838361329b565b505050565b611d1160405180807f4d494e5445525f524f4c45000000000000000000000000000000000000000000815250600b0190506040518091039020611d0c612777565b611e4e565b611d66576040517f08c379a00000000000000000000000000000000000000000000000000000000081526004018080602001828103825260388152602001806144a26038913960400191505060405180910390fd5b611d72848484846135d9565b50505050565b611dbe60405180807f5041555345525f524f4c45000000000000000000000000000000000000000000815250600b0190506040518091039020611db9612777565b611e4e565b611e13576040517f08c379a000000000000000000000000000000000000000000000000000000000815260040180806020018281038252603981526020018061453f6039913960400191505060405180910390fd5b611e1b6137dc565b565b6000611e46826000808681526020019081526020016000206000016138de90919063ffffffff16565b905092915050565b6000611e77826000808681526020019081526020016000206000016138f890919063ffffffff16565b905092915050565b6000801b81565b8173ffffffffffffffffffffffffffffffffffffffff16611ea5612777565b73ffffffffffffffffffffffffffffffffffffffff161415611f12576040517f08c379a00000000000000000000000000000000000000000000000000000000081526004018080602001828103825260298152602001806145786029913960400191505060405180910390fd5b8060036000611f1f612777565b73ffffffffffffffffffffffffffffffffffffffff1673ffffffffffffffffffffffffffffffffffffffff16815260200190815260200160002060008473ffffffffffffffffffffffffffffffffffffffff1673ffffffffffffffffffffffffffffffffffffffff16815260200190815260200160002060006101000a81548160ff0219169083151502179055508173ffffffffffffffffffffffffffffffffffffffff16611fcc612777565b73ffffffffffffffffffffffffffffffffffffffff167f17307eab39ab6107e8899845ad3d59bd9653f200f220920489ca2b5937696c3183604051808215151515815260200191505060405180910390a35050565b6000612040600080848152602001908152602001600020600001613928565b9050919050565b60405180807f4d494e5445525f524f4c45000000000000000000000000000000000000000000815250600b019050604051809103902081565b6120a6600080848152602001908152602001600020600201546120a1612777565b611e4e565b6120fb576040517f08c379a00000000000000000000000000000000000000000000000000000000081526004018080602001828103825260308152602001806143f86030913960400191505060405180910390fd5b6121058282613107565b5050565b60405180807f5041555345525f524f4c45000000000000000000000000000000000000000000815250600b019050604051809103902081565b6000600360008473ffffffffffffffffffffffffffffffffffffffff1673ffffffffffffffffffffffffffffffffffffffff16815260200190815260200160002060008373ffffffffffffffffffffffffffffffffffffffff1673ffffffffffffffffffffffffffffffffffffffff16815260200190815260200160002060009054906101000a900460ff16905092915050565b60008314156121e457600080fd5b6000600560019054906101000a900473ffffffffffffffffffffffffffffffffffffffff1673ffffffffffffffffffffffffffffffffffffffff1663252a8875856040518263ffffffff1660e01b815260040180828152602001915050602060405180830381600087803b15801561225b57600080fd5b505af115801561226f573d6000803e3d6000fd5b505050506040513d602081101561228557600080fd5b81019080805190602001909291905050509050806122a43360006111f6565b10156122af57600080fd5b60016122be33600187036111f6565b10156122c957600080fd5b6122d5336000836126c4565b612348600560019054906101000a900473ffffffffffffffffffffffffffffffffffffffff1685600186868080601f016020809104026020016040519081016040528093929190818152602001838380828437600081840152601f19601f820116905080830192505050505050506135d9565b5050505050565b600073ffffffffffffffffffffffffffffffffffffffff168473ffffffffffffffffffffffffffffffffffffffff1614156123d5576040517f08c379a00000000000000000000000000000000000000000000000000000000081526004018080602001828103825260258152602001806144286025913960400191505060405180910390fd5b6123dd612777565b73ffffffffffffffffffffffffffffffffffffffff168573ffffffffffffffffffffffffffffffffffffffff16148061242357506124228561241d612777565b612142565b5b612478576040517f08c379a00000000000000000000000000000000000000000000000000000000081526004018080602001828103825260298152602001806143cf6029913960400191505060405180910390fd5b6000612482612777565b90506124a28187876124938861393d565b61249c8861393d565b87612aa4565b61251f836040518060600160405280602a81526020016144da602a91396002600088815260200190815260200160002060008a73ffffffffffffffffffffffffffffffffffffffff1673ffffffffffffffffffffffffffffffffffffffff16815260200190815260200160002054612aba9092919063ffffffff16565b6002600086815260200190815260200160002060008873ffffffffffffffffffffffffffffffffffffffff1673ffffffffffffffffffffffffffffffffffffffff168152602001908152602001600020819055506125d6836002600087815260200190815260200160002060008873ffffffffffffffffffffffffffffffffffffffff1673ffffffffffffffffffffffffffffffffffffffff16815260200190815260200160002054612b7490919063ffffffff16565b6002600086815260200190815260200160002060008773ffffffffffffffffffffffffffffffffffffffff1673ffffffffffffffffffffffffffffffffffffffff168152602001908152602001600020819055508473ffffffffffffffffffffffffffffffffffffffff168673ffffffffffffffffffffffffffffffffffffffff168273ffffffffffffffffffffffffffffffffffffffff167fc3d58168c5ae7397731d063d5bbf3d657854427343f4c083240f7aacaa2d0f628787604051808381526020018281526020019250505060405180910390a46126bc818787878787613996565b505050505050565b6126cc612777565b73ffffffffffffffffffffffffffffffffffffffff168373ffffffffffffffffffffffffffffffffffffffff16148061271257506127118361270c612777565b612142565b5b612767576040517f08c379a00000000000000000000000000000000000000000000000000000000081526004018080602001828103825260298152602001806143cf6029913960400191505060405180910390fd5b612772838383613d8c565b505050565b600033905090565b600073ffffffffffffffffffffffffffffffffffffffff168473ffffffffffffffffffffffffffffffffffffffff161415612805576040517f08c379a00000000000000000000000000000000000000000000000000000000081526004018080602001828103825260218152602001806145f26021913960400191505060405180910390fd5b815183511461285f576040517f08c379a00000000000000000000000000000000000000000000000000000000081526004018080602001828103825260288152602001806145ca6028913960400191505060405180910390fd5b6000612869612777565b905061287a81600087878787612aa4565b60008090505b8451811015612986576129126002600087848151811061289c57fe5b6020026020010151815260200190815260200160002060008873ffffffffffffffffffffffffffffffffffffffff1673ffffffffffffffffffffffffffffffffffffffff168152602001908152602001600020548583815181106128fc57fe5b6020026020010151612b7490919063ffffffff16565b6002600087848151811061292257fe5b6020026020010151815260200190815260200160002060008873ffffffffffffffffffffffffffffffffffffffff1673ffffffffffffffffffffffffffffffffffffffff168152602001908152602001600020819055508080600101915050612880565b508473ffffffffffffffffffffffffffffffffffffffff16600073ffffffffffffffffffffffffffffffffffffffff168273ffffffffffffffffffffffffffffffffffffffff167f4a39dc06d4c0dbc64b70af90fd698a233a518aa5d07e595d983b8c0526c8f7fb8787604051808060200180602001838103835285818151815260200191508051906020019060200280838360005b83811015612a37578082015181840152602081019050612a1c565b50505050905001838103825284818151815260200191508051906020019060200280838360005b83811015612a79578082015181840152602081019050612a5e565b5050505090500194505050505060405180910390a4612a9d81600087878787612bfc565b5050505050565b612ab2868686868686613fa8565b505050505050565b6000838311158290612b67576040517f08c379a00000000000000000000000000000000000000000000000000000000081526004018080602001828103825283818151815260200191508051906020019080838360005b83811015612b2c578082015181840152602081019050612b11565b50505050905090810190601f168015612b595780820380516001836020036101000a031916815260200191505b509250505060405180910390fd5b5082840390509392505050565b600080828401905083811015612bf2576040517f08c379a000000000000000000000000000000000000000000000000000000000815260040180806020018281038252601b8152602001807f536166654d6174683a206164646974696f6e206f766572666c6f77000000000081525060200191505060405180910390fd5b8091505092915050565b612c1b8473ffffffffffffffffffffffffffffffffffffffff1661401c565b1561306c578373ffffffffffffffffffffffffffffffffffffffff1663bc197c8187878686866040518663ffffffff1660e01b8152600401808673ffffffffffffffffffffffffffffffffffffffff1673ffffffffffffffffffffffffffffffffffffffff1681526020018573ffffffffffffffffffffffffffffffffffffffff1673ffffffffffffffffffffffffffffffffffffffff168152602001806020018060200180602001848103845287818151815260200191508051906020019060200280838360005b83811015612cff578082015181840152602081019050612ce4565b50505050905001848103835286818151815260200191508051906020019060200280838360005b83811015612d41578082015181840152602081019050612d26565b50505050905001848103825285818151815260200191508051906020019080838360005b83811015612d80578082015181840152602081019050612d65565b50505050905090810190601f168015612dad5780820380516001836020036101000a031916815260200191505b5098505050505050505050602060405180830381600087803b158015612dd257600080fd5b505af1925050508015612e0657506040513d6020811015612df257600080fd5b810190808051906020019092919050505060015b612fcd576000604051905060008152600115612ecf5760443d1015612e2e5760009050612ecf565b60046000803e60005160e01c6308c379a08114612e4f576000915050612ecf565b60043d036004833e81513d602482011167ffffffffffffffff82111715612e7b57600092505050612ecf565b808301805167ffffffffffffffff811115612e9d576000945050505050612ecf565b8060208301013d8601811115612ebb57600095505050505050612ecf565b601f19601f82011660405282955050505050505b80612eda5750612f7c565b806040517f08c379a00000000000000000000000000000000000000000000000000000000081526004018080602001828103825283818151815260200191508051906020019080838360005b83811015612f41578082015181840152602081019050612f26565b50505050905090810190601f168015612f6e5780820380516001836020036101000a031916815260200191505b509250505060405180910390fd5b6040517f08c379a00000000000000000000000000000000000000000000000000000000081526004018080602001828103825260348152602001806142a76034913960400191505060405180910390fd5b63bc197c8160e01b7bffffffffffffffffffffffffffffffffffffffffffffffffffffffff1916817bffffffffffffffffffffffffffffffffffffffffffffffffffffffff19161461306a576040517f08c379a00000000000000000000000000000000000000000000000000000000081526004018080602001828103825260288152602001806142fd6028913960400191505060405180910390fd5b505b505050505050565b61309b8160008085815260200190815260200160002060000161402f90919063ffffffff16565b15613103576130a8612777565b73ffffffffffffffffffffffffffffffffffffffff168173ffffffffffffffffffffffffffffffffffffffff16837f2f8788117e7eff1d82e926ec794901d17c78024a50270940304540a733656f0d60405160405180910390a45b5050565b61312e8160008085815260200190815260200160002060000161405f90919063ffffffff16565b156131965761313b612777565b73ffffffffffffffffffffffffffffffffffffffff168173ffffffffffffffffffffffffffffffffffffffff16837ff6391f5c32d9c69d2a47ea670b442974b53935d1edc7fd64eb21e047a839171b60405160405180910390a45b5050565b6131a2611c01565b613214576040517f08c379a00000000000000000000000000000000000000000000000000000000081526004018080602001828103825260148152602001807f5061757361626c653a206e6f742070617573656400000000000000000000000081525060200191505060405180910390fd5b6000600560006101000a81548160ff0219169083151502179055507f5db9ee0a495bf2e6ff9c91a7834c1ba4fdd244a5e8aa4e537bd38aeae4b073aa613258612777565b604051808273ffffffffffffffffffffffffffffffffffffffff1673ffffffffffffffffffffffffffffffffffffffff16815260200191505060405180910390a1565b600073ffffffffffffffffffffffffffffffffffffffff168373ffffffffffffffffffffffffffffffffffffffff161415613321576040517f08c379a000000000000000000000000000000000000000000000000000000000815260040180806020018281038252602381526020018061447f6023913960400191505060405180910390fd5b805182511461337b576040517f08c379a00000000000000000000000000000000000000000000000000000000081526004018080602001828103825260288152602001806145ca6028913960400191505060405180910390fd5b6000613385612777565b90506133a581856000868660405180602001604052806000815250612aa4565b60008090505b83518110156134cb576134578382815181106133c357fe5b602002602001015160405180606001604052806024815260200161437f60249139600260008886815181106133f457fe5b6020026020010151815260200190815260200160002060008973ffffffffffffffffffffffffffffffffffffffff1673ffffffffffffffffffffffffffffffffffffffff16815260200190815260200160002054612aba9092919063ffffffff16565b6002600086848151811061346757fe5b6020026020010151815260200190815260200160002060008773ffffffffffffffffffffffffffffffffffffffff1673ffffffffffffffffffffffffffffffffffffffff1681526020019081526020016000208190555080806001019150506133ab565b50600073ffffffffffffffffffffffffffffffffffffffff168473ffffffffffffffffffffffffffffffffffffffff168273ffffffffffffffffffffffffffffffffffffffff167f4a39dc06d4c0dbc64b70af90fd698a233a518aa5d07e595d983b8c0526c8f7fb8686604051808060200180602001838103835285818151815260200191508051906020019060200280838360005b8381101561357c578082015181840152602081019050613561565b50505050905001838103825284818151815260200191508051906020019060200280838360005b838110156135be5780820151818401526020810190506135a3565b5050505090500194505050505060405180910390a450505050565b600073ffffffffffffffffffffffffffffffffffffffff168473ffffffffffffffffffffffffffffffffffffffff16141561365f576040517f08c379a00000000000000000000000000000000000000000000000000000000081526004018080602001828103825260218152602001806145f26021913960400191505060405180910390fd5b6000613669612777565b905061368a8160008761367b8861393d565b6136848861393d565b87612aa4565b6136ed836002600087815260200190815260200160002060008873ffffffffffffffffffffffffffffffffffffffff1673ffffffffffffffffffffffffffffffffffffffff16815260200190815260200160002054612b7490919063ffffffff16565b6002600086815260200190815260200160002060008773ffffffffffffffffffffffffffffffffffffffff1673ffffffffffffffffffffffffffffffffffffffff168152602001908152602001600020819055508473ffffffffffffffffffffffffffffffffffffffff16600073ffffffffffffffffffffffffffffffffffffffff168273ffffffffffffffffffffffffffffffffffffffff167fc3d58168c5ae7397731d063d5bbf3d657854427343f4c083240f7aacaa2d0f628787604051808381526020018281526020019250505060405180910390a46137d581600087878787613996565b5050505050565b6137e4611c01565b15613857576040517f08c379a00000000000000000000000000000000000000000000000000000000081526004018080602001828103825260108152602001807f5061757361626c653a207061757365640000000000000000000000000000000081525060200191505060405180910390fd5b6001600560006101000a81548160ff0219169083151502179055507f62e78cea01bee320cd4e420270b5ea74000d11b0c9f74754ebdbfc544b05a25861389b612777565b604051808273ffffffffffffffffffffffffffffffffffffffff1673ffffffffffffffffffffffffffffffffffffffff16815260200191505060405180910390a1565b60006138ed836000018361408f565b60001c905092915050565b6000613920836000018373ffffffffffffffffffffffffffffffffffffffff1660001b614112565b905092915050565b600061393682600001614135565b9050919050565b60608060016040519080825280602002602001820160405280156139705781602001602082028036833780820191505090505b509050828160008151811061398157fe5b60200260200101818152505080915050919050565b6139b58473ffffffffffffffffffffffffffffffffffffffff1661401c565b15613d84578373ffffffffffffffffffffffffffffffffffffffff1663f23a6e6187878686866040518663ffffffff1660e01b8152600401808673ffffffffffffffffffffffffffffffffffffffff1673ffffffffffffffffffffffffffffffffffffffff1681526020018573ffffffffffffffffffffffffffffffffffffffff1673ffffffffffffffffffffffffffffffffffffffff16815260200184815260200183815260200180602001828103825283818151815260200191508051906020019080838360005b83811015613a9a578082015181840152602081019050613a7f565b50505050905090810190601f168015613ac75780820380516001836020036101000a031916815260200191505b509650505050505050602060405180830381600087803b158015613aea57600080fd5b505af1925050508015613b1e57506040513d6020811015613b0a57600080fd5b810190808051906020019092919050505060015b613ce5576000604051905060008152600115613be75760443d1015613b465760009050613be7565b60046000803e60005160e01c6308c379a08114613b67576000915050613be7565b60043d036004833e81513d602482011167ffffffffffffffff82111715613b9357600092505050613be7565b808301805167ffffffffffffffff811115613bb5576000945050505050613be7565b8060208301013d8601811115613bd357600095505050505050613be7565b601f19601f82011660405282955050505050505b80613bf25750613c94565b806040517f08c379a00000000000000000000000000000000000000000000000000000000081526004018080602001828103825283818151815260200191508051906020019080838360005b83811015613c59578082015181840152602081019050613c3e565b50505050905090810190601f168015613c865780820380516001836020036101000a031916815260200191505b509250505060405180910390fd5b6040517f08c379a00000000000000000000000000000000000000000000000000000000081526004018080602001828103825260348152602001806142a76034913960400191505060405180910390fd5b63f23a6e6160e01b7bffffffffffffffffffffffffffffffffffffffffffffffffffffffff1916817bffffffffffffffffffffffffffffffffffffffffffffffffffffffff191614613d82576040517f08c379a00000000000000000000000000000000000000000000000000000000081526004018080602001828103825260288152602001806142fd6028913960400191505060405180910390fd5b505b505050505050565b600073ffffffffffffffffffffffffffffffffffffffff168373ffffffffffffffffffffffffffffffffffffffff161415613e12576040517f08c379a000000000000000000000000000000000000000000000000000000000815260040180806020018281038252602381526020018061447f6023913960400191505060405180910390fd5b6000613e1c612777565b9050613e4c81856000613e2e8761393d565b613e378761393d565b60405180602001604052806000815250612aa4565b613ec98260405180606001604052806024815260200161437f602491396002600087815260200190815260200160002060008873ffffffffffffffffffffffffffffffffffffffff1673ffffffffffffffffffffffffffffffffffffffff16815260200190815260200160002054612aba9092919063ffffffff16565b6002600085815260200190815260200160002060008673ffffffffffffffffffffffffffffffffffffffff1673ffffffffffffffffffffffffffffffffffffffff16815260200190815260200160002081905550600073ffffffffffffffffffffffffffffffffffffffff168473ffffffffffffffffffffffffffffffffffffffff168273ffffffffffffffffffffffffffffffffffffffff167fc3d58168c5ae7397731d063d5bbf3d657854427343f4c083240f7aacaa2d0f628686604051808381526020018281526020019250505060405180910390a450505050565b613fb6868686868686614146565b613fbe611c01565b15614014576040517f08c379a000000000000000000000000000000000000000000000000000000000815260040180806020018281038252602c8152602001806143a3602c913960400191505060405180910390fd5b505050505050565b600080823b905060008111915050919050565b6000614057836000018373ffffffffffffffffffffffffffffffffffffffff1660001b61414e565b905092915050565b6000614087836000018373ffffffffffffffffffffffffffffffffffffffff1660001b6141be565b905092915050565b6000818360000180549050116140f0576040517f08c379a00000000000000000000000000000000000000000000000000000000081526004018080602001828103825260228152602001806142db6022913960400191505060405180910390fd5b8260000182815481106140ff57fe5b9060005260206000200154905092915050565b600080836001016000848152602001908152602001600020541415905092915050565b600081600001805490509050919050565b505050505050565b600061415a8383614112565b6141b35782600001829080600181540180825580915050600190039060005260206000200160009091909190915055826000018054905083600101600084815260200190815260200160002081905550600190506141b8565b600090505b92915050565b6000808360010160008481526020019081526020016000205490506000811461429a576000600182039050600060018660000180549050039050600086600001828154811061420957fe5b906000526020600020015490508087600001848154811061422657fe5b906000526020600020018190555060018301876001016000838152602001908152602001600020819055508660000180548061425e57fe5b600190038181906000526020600020016000905590558660010160008781526020019081526020016000206000905560019450505050506142a0565b60009150505b9291505056fe455243313135353a207472616e7366657220746f206e6f6e2045524331313535526563656976657220696d706c656d656e746572456e756d657261626c655365743a20696e646578206f7574206f6620626f756e6473455243313135353a204552433131353552656365697665722072656a656374656420746f6b656e73416363657373436f6e74726f6c3a2073656e646572206d75737420626520616e2061646d696e20746f206772616e74455243313135353a2062616c616e636520717565727920666f7220746865207a65726f2061646472657373455243313135353a206275726e20616d6f756e7420657863656564732062616c616e6365455243313135355061757361626c653a20746f6b656e207472616e73666572207768696c6520706175736564455243313135353a2063616c6c6572206973206e6f74206f776e6572206e6f7220617070726f766564416363657373436f6e74726f6c3a2073656e646572206d75737420626520616e2061646d696e20746f207265766f6b65455243313135353a207472616e7366657220746f20746865207a65726f2061646472657373455243313135353a207472616e736665722063616c6c6572206973206e6f74206f776e6572206e6f7220617070726f766564455243313135353a206275726e2066726f6d20746865207a65726f2061646472657373455243313135355072657365744d696e7465725061757365723a206d7573742068617665206d696e74657220726f6c6520746f206d696e74455243313135353a20696e73756666696369656e742062616c616e636520666f72207472616e73666572455243313135355072657365744d696e7465725061757365723a206d75737420686176652070617573657220726f6c6520746f20756e7061757365455243313135355072657365744d696e7465725061757365723a206d75737420686176652070617573657220726f6c6520746f207061757365455243313135353a2073657474696e6720617070726f76616c2073746174757320666f722073656c66455243313135353a206163636f756e747320616e6420696473206c656e677468206d69736d61746368455243313135353a2069647320616e6420616d6f756e7473206c656e677468206d69736d61746368455243313135353a206d696e7420746f20746865207a65726f2061646472657373416363657373436f6e74726f6c3a2063616e206f6e6c792072656e6f756e636520726f6c657320666f722073656c66a26469706673582212207b452cc9baeb3cbac59842fa8dc15fb5466e89ce36accb1560ff31aa33b34f3f64736f6c634300060300334552433939383a207472616e7366657220746f20746865207a65726f2061646472657373",
  "source": "// SPDX-License-Identifier: UNLICENSED\npragma solidity ^0.6.0;\n///@dev handle Batch receiving function - !!!!\n\n/// @title ERC1155TUMP creates tier supply and attaches tier to composable\n/// @author respect-club\n/// @notice receives Engagement tokens and attaches tier to composable\n/// @dev 1155 tokenId reserved for engagement token\n\n/// @notice\nimport \"@openzeppelin/contracts/presets/ERC1155PresetMinterPauser.sol\";\nimport \"@openzeppelin/contracts/token/ERC1155/IERC1155Receiver.sol\";\nimport \"@openzeppelin/contracts/token/ERC1155/ERC1155Holder.sol\";\nimport \"./ERC998ERC1155TopDownPresetMinterPauser.sol\";\n\n/*\n    erc1155.mint(admin, multiTokenTier0, multiTokenMaxSuply, \"0x\");\n    erc1155.safeTransferFrom(admin, erc998.address, multiTokenTier0, 1, web3.utils.encodePacked(composable1));\n*/\ncontract ERC1155TierUpgradePresetMinterPauser is ERC1155PresetMinterPauser {\n    bytes4 internal constant ERC1155_ACCEPTED = 0xf23a6e61; // bytes4(keccak256(\"onERC1155Received(address,address,uint256,uint256,bytes)\"))\n    bytes4 internal constant ERC1155_BATCH_ACCEPTED = 0xbc197c81; // bytes4(keccak256(\"onERC1155BatchReceived(address,address,uint256[],uint256[],bytes)\"))\n\n    ERC998ERC1155TopDownPresetMinterPauser csnftContract;\n\n    /// @notice csnft contract is deployed and linked to ERC1155TUMP\n    /// @param _csnftContractAdr deployed csnft contract\n\n    constructor(string memory tierUri, address _csnftContractAdr)\n        public\n        ERC1155PresetMinterPauser(tierUri)\n    {\n        require(\n            _csnftContractAdr != address(0),\n            \"ERC998: transfer to the zero address\"\n        );\n\n        csnftContract = ERC998ERC1155TopDownPresetMinterPauser(\n            _csnftContractAdr\n        );\n    }\n\n    /// claimF engagement points\n    //function claim(){}\n\n    /// @notice upgrade user tier\n    /// @dev fetch curent tier of msg.sender\n    /// msg.value user sends\n    function upgradeSNFT(\n        uint256 _composableId,\n        uint256 _upgradeToTierId, // upgrade to\n        bytes calldata data // web3.utils.encodePacked(composableId)\n    ) external payable {\n        //add tier checks  if tierId =1 bal(t-1) == 1\n        // at t=0 bal(0) >= _FengagementPOints\n        require(_upgradeToTierId != 0);\n\n        uint256 upgradeCost = csnftContract.getTierPrice(_upgradeToTierId);\n        require(balanceOf(msg.sender, 0) >= upgradeCost); // have enough Engagment points at\n        require(balanceOf(msg.sender, _upgradeToTierId - 1) >= 1);\n\n        // if (_tierId == 1) {\n        //     //first upgrade\n        //     require(balanceOf(msg.sender, _tierId - 1) >= 1);\n        // } else {\n        //     require(\n        //         (balanceOf(msg.sender, _tierId) >= _tierPriceArr[_tierId + 1])\n        //     ); //\n        // }\n        burn(msg.sender, 0, upgradeCost); // burn engagement tid 0\n\n        _mint(address(csnftContract), _upgradeToTierId, 1, data);\n    }\n\n    // implement function to mint | claim F(creators engagement ) at tokenId 0\n}\n",
  "sourcePath": "/Users/shubhamsonthalia/ComposableNFTs/contracts/ERC1155TierUpgradePresetMinterPauser.sol",
  "compiler": {
    "name": "solc",
    "version": "0.6.3+commit.8dda9521.Emscripten.clang"
  },
  "schemaVersion": "3.4.7",
  "updatedAt": "2022-04-10T09:54:14.839Z",
  "networkType": "ethereum",
  "devdoc": {
    "methods": {
      "balanceOf(address,uint256)": {
        "details": "See {IERC1155-balanceOf}.     * Requirements:     * - `account` cannot be the zero address."
      },
      "balanceOfBatch(address[],uint256[])": {
        "details": "See {IERC1155-balanceOfBatch}.     * Requirements:     * - `accounts` and `ids` must have the same length."
      },
      "constructor": {
        "params": {
          "_csnftContractAdr": "deployed csnft contract"
        }
      },
      "getRoleAdmin(bytes32)": {
        "details": "Returns the admin role that controls `role`. See {grantRole} and {revokeRole}.     * To change a role's admin, use {_setRoleAdmin}."
      },
      "getRoleMember(bytes32,uint256)": {
        "details": "Returns one of the accounts that have `role`. `index` must be a value between 0 and {getRoleMemberCount}, non-inclusive.     * Role bearers are not sorted in any particular way, and their ordering may change at any point.     * WARNING: When using {getRoleMember} and {getRoleMemberCount}, make sure you perform all queries on the same block. See the following https://forum.openzeppelin.com/t/iterating-over-elements-on-enumerableset-in-openzeppelin-contracts/2296[forum post] for more information."
      },
      "getRoleMemberCount(bytes32)": {
        "details": "Returns the number of accounts that have `role`. Can be used together with {getRoleMember} to enumerate all bearers of a role."
      },
      "grantRole(bytes32,address)": {
        "details": "Grants `role` to `account`.     * If `account` had not been already granted `role`, emits a {RoleGranted} event.     * Requirements:     * - the caller must have ``role``'s admin role."
      },
      "hasRole(bytes32,address)": {
        "details": "Returns `true` if `account` has been granted `role`."
      },
      "isApprovedForAll(address,address)": {
        "details": "See {IERC1155-isApprovedForAll}."
      },
      "mint(address,uint256,uint256,bytes)": {
        "details": "Creates `amount` new tokens for `to`, of token type `id`.     * See {ERC1155-_mint}.     * Requirements:     * - the caller must have the `MINTER_ROLE`."
      },
      "mintBatch(address,uint256[],uint256[],bytes)": {
        "details": "xref:ROOT:erc1155.adoc#batch-operations[Batched] variant of {mint}."
      },
      "pause()": {
        "details": "Pauses all token transfers.     * See {ERC1155Pausable} and {Pausable-_pause}.     * Requirements:     * - the caller must have the `PAUSER_ROLE`."
      },
      "paused()": {
        "details": "Returns true if the contract is paused, and false otherwise."
      },
      "renounceRole(bytes32,address)": {
        "details": "Revokes `role` from the calling account.     * Roles are often managed via {grantRole} and {revokeRole}: this function's purpose is to provide a mechanism for accounts to lose their privileges if they are compromised (such as when a trusted device is misplaced).     * If the calling account had been granted `role`, emits a {RoleRevoked} event.     * Requirements:     * - the caller must be `account`."
      },
      "revokeRole(bytes32,address)": {
        "details": "Revokes `role` from `account`.     * If `account` had been granted `role`, emits a {RoleRevoked} event.     * Requirements:     * - the caller must have ``role``'s admin role."
      },
      "safeBatchTransferFrom(address,address,uint256[],uint256[],bytes)": {
        "details": "See {IERC1155-safeBatchTransferFrom}."
      },
      "safeTransferFrom(address,address,uint256,uint256,bytes)": {
        "details": "See {IERC1155-safeTransferFrom}."
      },
      "setApprovalForAll(address,bool)": {
        "details": "See {IERC1155-setApprovalForAll}."
      },
      "supportsInterface(bytes4)": {
        "details": "See {IERC165-supportsInterface}.     * Time complexity O(1), guaranteed to always use less than 30 000 gas."
      },
      "unpause()": {
        "details": "Unpauses all token transfers.     * See {ERC1155Pausable} and {Pausable-_unpause}.     * Requirements:     * - the caller must have the `PAUSER_ROLE`."
      },
      "upgradeSNFT(uint256,uint256,bytes)": {
        "details": "fetch curent tier of msg.sender msg.value user sends"
      },
      "uri(uint256)": {
        "details": "See {IERC1155MetadataURI-uri}.     * This implementation returns the same URI for *all* token types. It relies on the token type ID substitution mechanism https://eips.ethereum.org/EIPS/eip-1155#metadata[defined in the EIP].     * Clients calling this function must replace the `\\{id\\}` substring with the actual token type ID."
      }
    }
  },
  "userdoc": {
    "methods": {
      "constructor": "csnft contract is deployed and linked to ERC1155TUMP",
      "upgradeSNFT(uint256,uint256,bytes)": {
        "notice": "upgrade user tier"
      }
    }
  }
}