{
  "contractName": "ERC1155TierUpgradePresetMinterPauser",
  "abi": [
    {
      "inputs": [
        {
          "internalType": "string",
          "name": "tierUri",
          "type": "string"
        },
        {
          "internalType": "address",
          "name": "_csnftContractAdr",
          "type": "address"
        }
      ],
      "stateMutability": "nonpayable",
      "type": "constructor"
    },
    {
      "anonymous": false,
      "inputs": [
        {
          "indexed": true,
          "internalType": "address",
          "name": "account",
          "type": "address"
        },
        {
          "indexed": true,
          "internalType": "address",
          "name": "operator",
          "type": "address"
        },
        {
          "indexed": false,
          "internalType": "bool",
          "name": "approved",
          "type": "bool"
        }
      ],
      "name": "ApprovalForAll",
      "type": "event"
    },
    {
      "anonymous": false,
      "inputs": [
        {
          "indexed": true,
          "internalType": "bytes32",
          "name": "id",
          "type": "bytes32"
        }
      ],
      "name": "ChainlinkCancelled",
      "type": "event"
    },
    {
      "anonymous": false,
      "inputs": [
        {
          "indexed": true,
          "internalType": "bytes32",
          "name": "id",
          "type": "bytes32"
        }
      ],
      "name": "ChainlinkFulfilled",
      "type": "event"
    },
    {
      "anonymous": false,
      "inputs": [
        {
          "indexed": true,
          "internalType": "bytes32",
          "name": "id",
          "type": "bytes32"
        }
      ],
      "name": "ChainlinkRequested",
      "type": "event"
    },
    {
      "anonymous": false,
      "inputs": [
        {
          "indexed": false,
          "internalType": "address",
          "name": "account",
          "type": "address"
        }
      ],
      "name": "Paused",
      "type": "event"
    },
    {
      "anonymous": false,
      "inputs": [
        {
          "indexed": true,
          "internalType": "bytes32",
          "name": "role",
          "type": "bytes32"
        },
        {
          "indexed": true,
          "internalType": "bytes32",
          "name": "previousAdminRole",
          "type": "bytes32"
        },
        {
          "indexed": true,
          "internalType": "bytes32",
          "name": "newAdminRole",
          "type": "bytes32"
        }
      ],
      "name": "RoleAdminChanged",
      "type": "event"
    },
    {
      "anonymous": false,
      "inputs": [
        {
          "indexed": true,
          "internalType": "bytes32",
          "name": "role",
          "type": "bytes32"
        },
        {
          "indexed": true,
          "internalType": "address",
          "name": "account",
          "type": "address"
        },
        {
          "indexed": true,
          "internalType": "address",
          "name": "sender",
          "type": "address"
        }
      ],
      "name": "RoleGranted",
      "type": "event"
    },
    {
      "anonymous": false,
      "inputs": [
        {
          "indexed": true,
          "internalType": "bytes32",
          "name": "role",
          "type": "bytes32"
        },
        {
          "indexed": true,
          "internalType": "address",
          "name": "account",
          "type": "address"
        },
        {
          "indexed": true,
          "internalType": "address",
          "name": "sender",
          "type": "address"
        }
      ],
      "name": "RoleRevoked",
      "type": "event"
    },
    {
      "anonymous": false,
      "inputs": [
        {
          "indexed": true,
          "internalType": "address",
          "name": "operator",
          "type": "address"
        },
        {
          "indexed": true,
          "internalType": "address",
          "name": "from",
          "type": "address"
        },
        {
          "indexed": true,
          "internalType": "address",
          "name": "to",
          "type": "address"
        },
        {
          "indexed": false,
          "internalType": "uint256[]",
          "name": "ids",
          "type": "uint256[]"
        },
        {
          "indexed": false,
          "internalType": "uint256[]",
          "name": "values",
          "type": "uint256[]"
        }
      ],
      "name": "TransferBatch",
      "type": "event"
    },
    {
      "anonymous": false,
      "inputs": [
        {
          "indexed": true,
          "internalType": "address",
          "name": "operator",
          "type": "address"
        },
        {
          "indexed": true,
          "internalType": "address",
          "name": "from",
          "type": "address"
        },
        {
          "indexed": true,
          "internalType": "address",
          "name": "to",
          "type": "address"
        },
        {
          "indexed": false,
          "internalType": "uint256",
          "name": "id",
          "type": "uint256"
        },
        {
          "indexed": false,
          "internalType": "uint256",
          "name": "value",
          "type": "uint256"
        }
      ],
      "name": "TransferSingle",
      "type": "event"
    },
    {
      "anonymous": false,
      "inputs": [
        {
          "indexed": false,
          "internalType": "string",
          "name": "value",
          "type": "string"
        },
        {
          "indexed": true,
          "internalType": "uint256",
          "name": "id",
          "type": "uint256"
        }
      ],
      "name": "URI",
      "type": "event"
    },
    {
      "anonymous": false,
      "inputs": [
        {
          "indexed": false,
          "internalType": "address",
          "name": "account",
          "type": "address"
        }
      ],
      "name": "Unpaused",
      "type": "event"
    },
    {
      "anonymous": false,
      "inputs": [
        {
          "indexed": true,
          "internalType": "string",
          "name": "url",
          "type": "string"
        }
      ],
      "name": "urlCreated",
      "type": "event"
    },
    {
      "inputs": [],
      "name": "DEFAULT_ADMIN_ROLE",
      "outputs": [
        {
          "internalType": "bytes32",
          "name": "",
          "type": "bytes32"
        }
      ],
      "stateMutability": "view",
      "type": "function"
    },
    {
      "inputs": [],
      "name": "MINTER_ROLE",
      "outputs": [
        {
          "internalType": "bytes32",
          "name": "",
          "type": "bytes32"
        }
      ],
      "stateMutability": "view",
      "type": "function"
    },
    {
      "inputs": [],
      "name": "PAUSER_ROLE",
      "outputs": [
        {
          "internalType": "bytes32",
          "name": "",
          "type": "bytes32"
        }
      ],
      "stateMutability": "view",
      "type": "function"
    },
    {
      "inputs": [
        {
          "internalType": "address",
          "name": "account",
          "type": "address"
        },
        {
          "internalType": "uint256",
          "name": "id",
          "type": "uint256"
        }
      ],
      "name": "balanceOf",
      "outputs": [
        {
          "internalType": "uint256",
          "name": "",
          "type": "uint256"
        }
      ],
      "stateMutability": "view",
      "type": "function"
    },
    {
      "inputs": [
        {
          "internalType": "address[]",
          "name": "accounts",
          "type": "address[]"
        },
        {
          "internalType": "uint256[]",
          "name": "ids",
          "type": "uint256[]"
        }
      ],
      "name": "balanceOfBatch",
      "outputs": [
        {
          "internalType": "uint256[]",
          "name": "",
          "type": "uint256[]"
        }
      ],
      "stateMutability": "view",
      "type": "function"
    },
    {
      "inputs": [
        {
          "internalType": "address",
          "name": "account",
          "type": "address"
        },
        {
          "internalType": "uint256",
          "name": "id",
          "type": "uint256"
        },
        {
          "internalType": "uint256",
          "name": "value",
          "type": "uint256"
        }
      ],
      "name": "burn",
      "outputs": [],
      "stateMutability": "nonpayable",
      "type": "function"
    },
    {
      "inputs": [
        {
          "internalType": "address",
          "name": "account",
          "type": "address"
        },
        {
          "internalType": "uint256[]",
          "name": "ids",
          "type": "uint256[]"
        },
        {
          "internalType": "uint256[]",
          "name": "values",
          "type": "uint256[]"
        }
      ],
      "name": "burnBatch",
      "outputs": [],
      "stateMutability": "nonpayable",
      "type": "function"
    },
    {
      "inputs": [
        {
          "internalType": "bytes32",
          "name": "role",
          "type": "bytes32"
        }
      ],
      "name": "getRoleAdmin",
      "outputs": [
        {
          "internalType": "bytes32",
          "name": "",
          "type": "bytes32"
        }
      ],
      "stateMutability": "view",
      "type": "function"
    },
    {
      "inputs": [
        {
          "internalType": "bytes32",
          "name": "role",
          "type": "bytes32"
        },
        {
          "internalType": "uint256",
          "name": "index",
          "type": "uint256"
        }
      ],
      "name": "getRoleMember",
      "outputs": [
        {
          "internalType": "address",
          "name": "",
          "type": "address"
        }
      ],
      "stateMutability": "view",
      "type": "function"
    },
    {
      "inputs": [
        {
          "internalType": "bytes32",
          "name": "role",
          "type": "bytes32"
        }
      ],
      "name": "getRoleMemberCount",
      "outputs": [
        {
          "internalType": "uint256",
          "name": "",
          "type": "uint256"
        }
      ],
      "stateMutability": "view",
      "type": "function"
    },
    {
      "inputs": [
        {
          "internalType": "bytes32",
          "name": "role",
          "type": "bytes32"
        },
        {
          "internalType": "address",
          "name": "account",
          "type": "address"
        }
      ],
      "name": "grantRole",
      "outputs": [],
      "stateMutability": "nonpayable",
      "type": "function"
    },
    {
      "inputs": [
        {
          "internalType": "bytes32",
          "name": "role",
          "type": "bytes32"
        },
        {
          "internalType": "address",
          "name": "account",
          "type": "address"
        }
      ],
      "name": "hasRole",
      "outputs": [
        {
          "internalType": "bool",
          "name": "",
          "type": "bool"
        }
      ],
      "stateMutability": "view",
      "type": "function"
    },
    {
      "inputs": [
        {
          "internalType": "address",
          "name": "account",
          "type": "address"
        },
        {
          "internalType": "address",
          "name": "operator",
          "type": "address"
        }
      ],
      "name": "isApprovedForAll",
      "outputs": [
        {
          "internalType": "bool",
          "name": "",
          "type": "bool"
        }
      ],
      "stateMutability": "view",
      "type": "function"
    },
    {
      "inputs": [
        {
          "internalType": "address",
          "name": "to",
          "type": "address"
        },
        {
          "internalType": "uint256",
          "name": "id",
          "type": "uint256"
        },
        {
          "internalType": "uint256",
          "name": "amount",
          "type": "uint256"
        },
        {
          "internalType": "bytes",
          "name": "data",
          "type": "bytes"
        }
      ],
      "name": "mint",
      "outputs": [],
      "stateMutability": "nonpayable",
      "type": "function"
    },
    {
      "inputs": [
        {
          "internalType": "address",
          "name": "to",
          "type": "address"
        },
        {
          "internalType": "uint256[]",
          "name": "ids",
          "type": "uint256[]"
        },
        {
          "internalType": "uint256[]",
          "name": "amounts",
          "type": "uint256[]"
        },
        {
          "internalType": "bytes",
          "name": "data",
          "type": "bytes"
        }
      ],
      "name": "mintBatch",
      "outputs": [],
      "stateMutability": "nonpayable",
      "type": "function"
    },
    {
      "inputs": [],
      "name": "pause",
      "outputs": [],
      "stateMutability": "nonpayable",
      "type": "function"
    },
    {
      "inputs": [],
      "name": "paused",
      "outputs": [
        {
          "internalType": "bool",
          "name": "",
          "type": "bool"
        }
      ],
      "stateMutability": "view",
      "type": "function"
    },
    {
      "inputs": [
        {
          "internalType": "bytes32",
          "name": "role",
          "type": "bytes32"
        },
        {
          "internalType": "address",
          "name": "account",
          "type": "address"
        }
      ],
      "name": "renounceRole",
      "outputs": [],
      "stateMutability": "nonpayable",
      "type": "function"
    },
    {
      "inputs": [
        {
          "internalType": "bytes32",
          "name": "role",
          "type": "bytes32"
        },
        {
          "internalType": "address",
          "name": "account",
          "type": "address"
        }
      ],
      "name": "revokeRole",
      "outputs": [],
      "stateMutability": "nonpayable",
      "type": "function"
    },
    {
      "inputs": [
        {
          "internalType": "address",
          "name": "from",
          "type": "address"
        },
        {
          "internalType": "address",
          "name": "to",
          "type": "address"
        },
        {
          "internalType": "uint256[]",
          "name": "ids",
          "type": "uint256[]"
        },
        {
          "internalType": "uint256[]",
          "name": "amounts",
          "type": "uint256[]"
        },
        {
          "internalType": "bytes",
          "name": "data",
          "type": "bytes"
        }
      ],
      "name": "safeBatchTransferFrom",
      "outputs": [],
      "stateMutability": "nonpayable",
      "type": "function"
    },
    {
      "inputs": [
        {
          "internalType": "address",
          "name": "from",
          "type": "address"
        },
        {
          "internalType": "address",
          "name": "to",
          "type": "address"
        },
        {
          "internalType": "uint256",
          "name": "id",
          "type": "uint256"
        },
        {
          "internalType": "uint256",
          "name": "amount",
          "type": "uint256"
        },
        {
          "internalType": "bytes",
          "name": "data",
          "type": "bytes"
        }
      ],
      "name": "safeTransferFrom",
      "outputs": [],
      "stateMutability": "nonpayable",
      "type": "function"
    },
    {
      "inputs": [
        {
          "internalType": "address",
          "name": "operator",
          "type": "address"
        },
        {
          "internalType": "bool",
          "name": "approved",
          "type": "bool"
        }
      ],
      "name": "setApprovalForAll",
      "outputs": [],
      "stateMutability": "nonpayable",
      "type": "function"
    },
    {
      "inputs": [
        {
          "internalType": "bytes4",
          "name": "interfaceId",
          "type": "bytes4"
        }
      ],
      "name": "supportsInterface",
      "outputs": [
        {
          "internalType": "bool",
          "name": "",
          "type": "bool"
        }
      ],
      "stateMutability": "view",
      "type": "function"
    },
    {
      "inputs": [],
      "name": "unpause",
      "outputs": [],
      "stateMutability": "nonpayable",
      "type": "function"
    },
    {
      "inputs": [
        {
          "internalType": "uint256",
          "name": "",
          "type": "uint256"
        }
      ],
      "name": "uri",
      "outputs": [
        {
          "internalType": "string",
          "name": "",
          "type": "string"
        }
      ],
      "stateMutability": "view",
      "type": "function"
    },
    {
      "inputs": [
        {
          "internalType": "string",
          "name": "url",
          "type": "string"
        }
      ],
      "name": "submitRequest",
      "outputs": [
        {
          "internalType": "bytes32",
          "name": "requestId",
          "type": "bytes32"
        }
      ],
      "stateMutability": "nonpayable",
      "type": "function"
    },
    {
      "inputs": [
        {
          "internalType": "bytes32",
          "name": "_requestId",
          "type": "bytes32"
        },
        {
          "internalType": "uint256",
          "name": "status",
          "type": "uint256"
        }
      ],
      "name": "fulfill",
      "outputs": [],
      "stateMutability": "nonpayable",
      "type": "function"
    },
    {
      "inputs": [],
      "name": "createRequest",
      "outputs": [
        {
          "internalType": "uint256",
          "name": "",
          "type": "uint256"
        }
      ],
      "stateMutability": "nonpayable",
      "type": "function"
    },
    {
      "inputs": [
        {
          "internalType": "uint256",
          "name": "_requestId",
          "type": "uint256"
        }
      ],
      "name": "getRequestResult",
      "outputs": [
        {
          "internalType": "uint256",
          "name": "",
          "type": "uint256"
        }
      ],
      "stateMutability": "view",
      "type": "function"
    },
    {
      "inputs": [],
      "name": "getMyRequestIDs",
      "outputs": [
        {
          "internalType": "uint256[]",
          "name": "",
          "type": "uint256[]"
        }
      ],
      "stateMutability": "view",
      "type": "function"
    },
    {
      "inputs": [
        {
          "internalType": "uint256",
          "name": "_composableId",
          "type": "uint256"
        },
        {
          "internalType": "uint256",
          "name": "_upgradeToTierId",
          "type": "uint256"
        },
        {
          "internalType": "bytes",
          "name": "data",
          "type": "bytes"
        }
      ],
      "name": "upgradeSNFT",
      "outputs": [],
      "stateMutability": "payable",
      "type": "function"
    }
  ],
  "bytecode": "0x608060405260016009553480156200001657600080fd5b5060405162005faf38038062005faf833981810160405260408110156200003c57600080fd5b81019080805160405193929190846401000000008211156200005d57600080fd5b838201915060208201858111156200007457600080fd5b82518660018202830111640100000000821117156200009257600080fd5b8083526020830192505050908051906020019080838360005b83811015620000c8578082015181840152602081019050620000ab565b50505050905090810190601f168015620000f65780820380516001836020036101000a031916815260200191505b50604052602001805190602001909291905050508180620001246301ffc9a760e01b620003d260201b60201c565b6200013581620004db60201b60201c565b6200014d63d9b67a2660e01b620003d260201b60201c565b62000165630e89341c60e01b620003d260201b60201c565b506000600560006101000a81548160ff021916908315150217905550620001a56000801b62000199620004f760201b60201c565b620004ff60201b60201c565b620001fb60405180807f4d494e5445525f524f4c45000000000000000000000000000000000000000000815250600b0190506040518091039020620001ef620004f760201b60201c565b620004ff60201b60201c565b6200025160405180807f5041555345525f524f4c45000000000000000000000000000000000000000000815250600b019050604051809103902062000245620004f760201b60201c565b620004ff60201b60201c565b50600073ffffffffffffffffffffffffffffffffffffffff168173ffffffffffffffffffffffffffffffffffffffff161415620002da576040517f08c379a000000000000000000000000000000000000000000000000000000000815260040180806020018281038252602481526020018062005f8b6024913960400191505060405180910390fd5b80601060006101000a81548173ffffffffffffffffffffffffffffffffffffffff021916908373ffffffffffffffffffffffffffffffffffffffff1602179055506200034073326c977e6efc84e512bb9c30f76e30c160ed06fb6200051560201b60201c565b730bddcd124709acbf9bb3f824ebc61c87019888bb600b60006101000a81548173ffffffffffffffffffffffffffffffffffffffff021916908373ffffffffffffffffffffffffffffffffffffffff1602179055507f3262623135633366396366633433333662393530313238373266663035303932600c81905550662386f26fc10000600d81905550505062000780565b63ffffffff60e01b817bffffffffffffffffffffffffffffffffffffffffffffffffffffffff191614156200046f576040517f08c379a000000000000000000000000000000000000000000000000000000000815260040180806020018281038252601c8152602001807f4552433136353a20696e76616c696420696e746572666163652069640000000081525060200191505060405180910390fd5b6001806000837bffffffffffffffffffffffffffffffffffffffffffffffffffffffff19167bffffffffffffffffffffffffffffffffffffffffffffffffffffffff1916815260200190815260200160002060006101000a81548160ff02191690831515021790555050565b8060049080519060200190620004f3929190620006d1565b5050565b600033905090565b6200051182826200055960201b60201c565b5050565b80600760006101000a81548173ffffffffffffffffffffffffffffffffffffffff021916908373ffffffffffffffffffffffffffffffffffffffff16021790555050565b6200058781600080858152602001908152602001600020600001620005fc60201b620049f01790919060201c565b15620005f8576200059d620004f760201b60201c565b73ffffffffffffffffffffffffffffffffffffffff168173ffffffffffffffffffffffffffffffffffffffff16837f2f8788117e7eff1d82e926ec794901d17c78024a50270940304540a733656f0d60405160405180910390a45b5050565b60006200062c836000018373ffffffffffffffffffffffffffffffffffffffff1660001b6200063460201b60201c565b905092915050565b6000620006488383620006ae60201b60201c565b620006a3578260000182908060018154018082558091505060019003906000526020600020016000909190919091505582600001805490508360010160008481526020019081526020016000208190555060019050620006a8565b600090505b92915050565b600080836001016000848152602001908152602001600020541415905092915050565b828054600181600116156101000203166002900490600052602060002090601f016020900481019282601f106200071457805160ff191683800117855562000745565b8280016001018555821562000745579182015b828111156200074457825182559160200191906001019062000727565b5b50905062000754919062000758565b5090565b6200077d91905b80821115620007795760008160009055506001016200075f565b5090565b90565b6157fb80620007906000396000f3fe6080604052600436106101d75760003560e01c80638456cb5911610102578063d547741f11610095578063ef44dc6511610064578063ef44dc65146111da578063f242432a14611267578063f2c9463814611383578063f5298aca146113ef576101d7565b8063d547741f14610fef578063e2e46b521461104a578063e63ab1e914611126578063e985e9c514611151576101d7565b8063a22cb465116100d1578063a22cb46514610eed578063c957907814610f4a578063ca15c87314610f75578063d539139314610fc4576101d7565b80638456cb5914610db35780639010d07c14610dca57806391d1485414610e4f578063a217fddf14610ec2576101d7565b806336568abe1161017a5780635944427b116101495780635944427b14610ac05780635c975abb14610b0f5780636b20c45414610b3e578063731133e914610cb7576101d7565b806336568abe1461085b5780633f4ba83a146108b65780634357855e146108cd5780634e1273f414610912576101d7565b80631f7fdffa116101b65780631f7fdffa14610371578063248a9ca3146105815780632eb2c2d6146105d05780632f2ff15d14610800576101d7565b8062fdd58e146101dc57806301ffc9a71461024b5780630e89341c146102bd575b600080fd5b3480156101e857600080fd5b50610235600480360360408110156101ff57600080fd5b81019080803573ffffffffffffffffffffffffffffffffffffffff16906020019092919080359060200190929190505050611454565b6040518082815260200191505060405180910390f35b34801561025757600080fd5b506102a36004803603602081101561026e57600080fd5b8101908080357bffffffffffffffffffffffffffffffffffffffffffffffffffffffff19169060200190929190505050611534565b604051808215151515815260200191505060405180910390f35b3480156102c957600080fd5b506102f6600480360360208110156102e057600080fd5b810190808035906020019092919050505061159c565b6040518080602001828103825283818151815260200191508051906020019080838360005b8381101561033657808201518184015260208101905061031b565b50505050905090810190601f1680156103635780820380516001836020036101000a031916815260200191505b509250505060405180910390f35b34801561037d57600080fd5b5061057f6004803603608081101561039457600080fd5b81019080803573ffffffffffffffffffffffffffffffffffffffff169060200190929190803590602001906401000000008111156103d157600080fd5b8201836020820111156103e357600080fd5b8035906020019184602083028401116401000000008311171561040557600080fd5b919080806020026020016040519081016040528093929190818152602001838360200280828437600081840152601f19601f8201169050808301925050505050505091929192908035906020019064010000000081111561046557600080fd5b82018360208201111561047757600080fd5b8035906020019184602083028401116401000000008311171561049957600080fd5b919080806020026020016040519081016040528093929190818152602001838360200280828437600081840152601f19601f820116905080830192505050505050509192919290803590602001906401000000008111156104f957600080fd5b82018360208201111561050b57600080fd5b8035906020019184600183028401116401000000008311171561052d57600080fd5b91908080601f016020809104026020016040519081016040528093929190818152602001838380828437600081840152601f19601f820116905080830192505050505050509192919290505050611640565b005b34801561058d57600080fd5b506105ba600480360360208110156105a457600080fd5b81019080803590602001909291905050506116ed565b6040518082815260200191505060405180910390f35b3480156105dc57600080fd5b506107fe600480360360a08110156105f357600080fd5b81019080803573ffffffffffffffffffffffffffffffffffffffff169060200190929190803573ffffffffffffffffffffffffffffffffffffffff1690602001909291908035906020019064010000000081111561065057600080fd5b82018360208201111561066257600080fd5b8035906020019184602083028401116401000000008311171561068457600080fd5b919080806020026020016040519081016040528093929190818152602001838360200280828437600081840152601f19601f820116905080830192505050505050509192919290803590602001906401000000008111156106e457600080fd5b8201836020820111156106f657600080fd5b8035906020019184602083028401116401000000008311171561071857600080fd5b919080806020026020016040519081016040528093929190818152602001838360200280828437600081840152601f19601f8201169050808301925050505050505091929192908035906020019064010000000081111561077857600080fd5b82018360208201111561078a57600080fd5b803590602001918460018302840111640100000000831117156107ac57600080fd5b91908080601f016020809104026020016040519081016040528093929190818152602001838380828437600081840152601f19601f82011690508083019250505050505050919291929050505061170c565b005b34801561080c57600080fd5b506108596004803603604081101561082357600080fd5b8101908080359060200190929190803573ffffffffffffffffffffffffffffffffffffffff169060200190929190505050611b9a565b005b34801561086757600080fd5b506108b46004803603604081101561087e57600080fd5b8101908080359060200190929190803573ffffffffffffffffffffffffffffffffffffffff169060200190929190505050611c23565b005b3480156108c257600080fd5b506108cb611cbc565b005b3480156108d957600080fd5b50610910600480360360408110156108f057600080fd5b810190808035906020019092919080359060200190929190505050611d61565b005b34801561091e57600080fd5b50610a696004803603604081101561093557600080fd5b810190808035906020019064010000000081111561095257600080fd5b82018360208201111561096457600080fd5b8035906020019184602083028401116401000000008311171561098657600080fd5b919080806020026020016040519081016040528093929190818152602001838360200280828437600081840152601f19601f820116905080830192505050505050509192919290803590602001906401000000008111156109e657600080fd5b8201836020820111156109f857600080fd5b80359060200191846020830284011164010000000083111715610a1a57600080fd5b919080806020026020016040519081016040528093929190818152602001838360200280828437600081840152601f19601f820116905080830192505050505050509192919290505050611e99565b6040518080602001828103825283818151815260200191508051906020019060200280838360005b83811015610aac578082015181840152602081019050610a91565b505050509050019250505060405180910390f35b348015610acc57600080fd5b50610af960048036036020811015610ae357600080fd5b8101908080359060200190929190505050611f97565b6040518082815260200191505060405180910390f35b348015610b1b57600080fd5b50610b24611fb7565b604051808215151515815260200191505060405180910390f35b348015610b4a57600080fd5b50610cb560048036036060811015610b6157600080fd5b81019080803573ffffffffffffffffffffffffffffffffffffffff16906020019092919080359060200190640100000000811115610b9e57600080fd5b820183602082011115610bb057600080fd5b80359060200191846020830284011164010000000083111715610bd257600080fd5b919080806020026020016040519081016040528093929190818152602001838360200280828437600081840152601f19601f82011690508083019250505050505050919291929080359060200190640100000000811115610c3257600080fd5b820183602082011115610c4457600080fd5b80359060200191846020830284011164010000000083111715610c6657600080fd5b919080806020026020016040519081016040528093929190818152602001838360200280828437600081840152601f19601f820116905080830192505050505050509192919290505050611fce565b005b348015610cc357600080fd5b50610db160048036036080811015610cda57600080fd5b81019080803573ffffffffffffffffffffffffffffffffffffffff169060200190929190803590602001909291908035906020019092919080359060200190640100000000811115610d2b57600080fd5b820183602082011115610d3d57600080fd5b80359060200191846001830284011164010000000083111715610d5f57600080fd5b91908080601f016020809104026020016040519081016040528093929190818152602001838380828437600081840152601f19601f820116905080830192505050505050509192919290505050612081565b005b348015610dbf57600080fd5b50610dc861212e565b005b348015610dd657600080fd5b50610e0d60048036036040811015610ded57600080fd5b8101908080359060200190929190803590602001909291905050506121d3565b604051808273ffffffffffffffffffffffffffffffffffffffff1673ffffffffffffffffffffffffffffffffffffffff16815260200191505060405180910390f35b348015610e5b57600080fd5b50610ea860048036036040811015610e7257600080fd5b8101908080359060200190929190803573ffffffffffffffffffffffffffffffffffffffff169060200190929190505050612204565b604051808215151515815260200191505060405180910390f35b348015610ece57600080fd5b50610ed7612235565b6040518082815260200191505060405180910390f35b348015610ef957600080fd5b50610f4860048036036040811015610f1057600080fd5b81019080803573ffffffffffffffffffffffffffffffffffffffff16906020019092919080351515906020019092919050505061223c565b005b348015610f5657600080fd5b50610f5f6123d7565b6040518082815260200191505060405180910390f35b348015610f8157600080fd5b50610fae60048036036020811015610f9857600080fd5b8101908080359060200190929190505050612511565b6040518082815260200191505060405180910390f35b348015610fd057600080fd5b50610fd9612537565b6040518082815260200191505060405180910390f35b348015610ffb57600080fd5b506110486004803603604081101561101257600080fd5b8101908080359060200190929190803573ffffffffffffffffffffffffffffffffffffffff169060200190929190505050612570565b005b34801561105657600080fd5b506111106004803603602081101561106d57600080fd5b810190808035906020019064010000000081111561108a57600080fd5b82018360208201111561109c57600080fd5b803590602001918460018302840111640100000000831117156110be57600080fd5b91908080601f016020809104026020016040519081016040528093929190818152602001838380828437600081840152601f19601f8201169050808301925050505050505091929192905050506125f9565b6040518082815260200191505060405180910390f35b34801561113257600080fd5b5061113b612719565b6040518082815260200191505060405180910390f35b34801561115d57600080fd5b506111c06004803603604081101561117457600080fd5b81019080803573ffffffffffffffffffffffffffffffffffffffff169060200190929190803573ffffffffffffffffffffffffffffffffffffffff169060200190929190505050612752565b604051808215151515815260200191505060405180910390f35b611265600480360360608110156111f057600080fd5b8101908080359060200190929190803590602001909291908035906020019064010000000081111561122157600080fd5b82018360208201111561123357600080fd5b8035906020019184600183028401116401000000008311171561125557600080fd5b90919293919293905050506127e6565b005b34801561127357600080fd5b50611381600480360360a081101561128a57600080fd5b81019080803573ffffffffffffffffffffffffffffffffffffffff169060200190929190803573ffffffffffffffffffffffffffffffffffffffff1690602001909291908035906020019092919080359060200190929190803590602001906401000000008111156112fb57600080fd5b82018360208201111561130d57600080fd5b8035906020019184600183028401116401000000008311171561132f57600080fd5b91908080601f016020809104026020016040519081016040528093929190818152602001838380828437600081840152601f19601f82011690508083019250505050505050919291929050505061295f565b005b34801561138f57600080fd5b50611398612cd4565b6040518080602001828103825283818151815260200191508051906020019060200280838360005b838110156113db5780820151818401526020810190506113c0565b505050509050019250505060405180910390f35b3480156113fb57600080fd5b506114526004803603606081101561141257600080fd5b81019080803573ffffffffffffffffffffffffffffffffffffffff1690602001909291908035906020019092919080359060200190929190505050612d69565b005b60008073ffffffffffffffffffffffffffffffffffffffff168373ffffffffffffffffffffffffffffffffffffffff1614156114db576040517f08c379a000000000000000000000000000000000000000000000000000000000815260040180806020018281038252602b81526020018061543c602b913960400191505060405180910390fd5b6002600083815260200190815260200160002060008473ffffffffffffffffffffffffffffffffffffffff1673ffffffffffffffffffffffffffffffffffffffff16815260200190815260200160002054905092915050565b600060016000837bffffffffffffffffffffffffffffffffffffffffffffffffffffffff19167bffffffffffffffffffffffffffffffffffffffffffffffffffffffff1916815260200190815260200160002060009054906101000a900460ff169050919050565b606060048054600181600116156101000203166002900480601f0160208091040260200160405190810160405280929190818152602001828054600181600116156101000203166002900480156116345780601f1061160957610100808354040283529160200191611634565b820191906000526020600020905b81548152906001019060200180831161161757829003601f168201915b50505050509050919050565b61168660405180807f4d494e5445525f524f4c45000000000000000000000000000000000000000000815250600b0190506040518091039020611681612e1c565b612204565b6116db576040517f08c379a00000000000000000000000000000000000000000000000000000000081526004018080602001828103825260388152602001806155d46038913960400191505060405180910390fd5b6116e784848484612e24565b50505050565b6000806000838152602001908152602001600020600201549050919050565b8151835114611766576040517f08c379a000000000000000000000000000000000000000000000000000000000815260040180806020018281038252602881526020018061574e6028913960400191505060405180910390fd5b600073ffffffffffffffffffffffffffffffffffffffff168473ffffffffffffffffffffffffffffffffffffffff1614156117ec576040517f08c379a000000000000000000000000000000000000000000000000000000000815260040180806020018281038252602581526020018061555a6025913960400191505060405180910390fd5b6117f4612e1c565b73ffffffffffffffffffffffffffffffffffffffff168573ffffffffffffffffffffffffffffffffffffffff16148061183a575061183985611834612e1c565b612752565b5b61188f576040517f08c379a000000000000000000000000000000000000000000000000000000000815260040180806020018281038252603281526020018061557f6032913960400191505060405180910390fd5b6000611899612e1c565b90506118a9818787878787613149565b60008090505b8451811015611a7d5760008582815181106118c657fe5b6020026020010151905060008583815181106118de57fe5b60200260200101519050611965816040518060600160405280602a815260200161560c602a91396002600086815260200190815260200160002060008d73ffffffffffffffffffffffffffffffffffffffff1673ffffffffffffffffffffffffffffffffffffffff1681526020019081526020016000205461315f9092919063ffffffff16565b6002600084815260200190815260200160002060008b73ffffffffffffffffffffffffffffffffffffffff1673ffffffffffffffffffffffffffffffffffffffff16815260200190815260200160002081905550611a1c816002600085815260200190815260200160002060008b73ffffffffffffffffffffffffffffffffffffffff1673ffffffffffffffffffffffffffffffffffffffff1681526020019081526020016000205461321990919063ffffffff16565b6002600084815260200190815260200160002060008a73ffffffffffffffffffffffffffffffffffffffff1673ffffffffffffffffffffffffffffffffffffffff1681526020019081526020016000208190555050508060010190506118af565b508473ffffffffffffffffffffffffffffffffffffffff168673ffffffffffffffffffffffffffffffffffffffff168273ffffffffffffffffffffffffffffffffffffffff167f4a39dc06d4c0dbc64b70af90fd698a233a518aa5d07e595d983b8c0526c8f7fb8787604051808060200180602001838103835285818151815260200191508051906020019060200280838360005b83811015611b2d578082015181840152602081019050611b12565b50505050905001838103825284818151815260200191508051906020019060200280838360005b83811015611b6f578082015181840152602081019050611b54565b5050505090500194505050505060405180910390a4611b928187878787876132a1565b505050505050565b611bc060008084815260200190815260200160002060020154611bbb612e1c565b612204565b611c15576040517f08c379a000000000000000000000000000000000000000000000000000000000815260040180806020018281038252602f81526020018061540d602f913960400191505060405180910390fd5b611c1f8282613719565b5050565b611c2b612e1c565b73ffffffffffffffffffffffffffffffffffffffff168173ffffffffffffffffffffffffffffffffffffffff1614611cae576040517f08c379a000000000000000000000000000000000000000000000000000000000815260040180806020018281038252602f815260200180615797602f913960400191505060405180910390fd5b611cb882826137ac565b5050565b611d0260405180807f5041555345525f524f4c45000000000000000000000000000000000000000000815250600b0190506040518091039020611cfd612e1c565b612204565b611d57576040517f08c379a000000000000000000000000000000000000000000000000000000000815260040180806020018281038252603b815260200180615636603b913960400191505060405180910390fd5b611d5f61383f565b565b81600a600082815260200190815260200160002060009054906101000a900473ffffffffffffffffffffffffffffffffffffffff1673ffffffffffffffffffffffffffffffffffffffff163373ffffffffffffffffffffffffffffffffffffffff1614611e19576040517f08c379a00000000000000000000000000000000000000000000000000000000081526004018080602001828103825260288152602001806156aa6028913960400191505060405180910390fd5b600a600082815260200190815260200160002060006101000a81549073ffffffffffffffffffffffffffffffffffffffff0219169055807f7cc135e0cebb02c3480ae5d74d377283180a2601f8f644edf7987b009316c63a60405160405180910390a281600e600085815260200190815260200160002081905550505050565b60608151835114611ef5576040517f08c379a00000000000000000000000000000000000000000000000000000000081526004018080602001828103825260298152602001806157256029913960400191505060405180910390fd5b60608351604051908082528060200260200182016040528015611f275781602001602082028036833780820191505090505b50905060008090505b8451811015611f8c57611f69858281518110611f4857fe5b6020026020010151858381518110611f5c57fe5b6020026020010151611454565b828281518110611f7557fe5b602002602001018181525050806001019050611f30565b508091505092915050565b6000600e60008360001b8152602001908152602001600020549050919050565b6000600560009054906101000a900460ff16905090565b611fd6612e1c565b73ffffffffffffffffffffffffffffffffffffffff168373ffffffffffffffffffffffffffffffffffffffff16148061201c575061201b83612016612e1c565b612752565b5b612071576040517f08c379a00000000000000000000000000000000000000000000000000000000081526004018080602001828103825260298152602001806154de6029913960400191505060405180910390fd5b61207c838383613940565b505050565b6120c760405180807f4d494e5445525f524f4c45000000000000000000000000000000000000000000815250600b01905060405180910390206120c2612e1c565b612204565b61211c576040517f08c379a00000000000000000000000000000000000000000000000000000000081526004018080602001828103825260388152602001806155d46038913960400191505060405180910390fd5b61212884848484613c7e565b50505050565b61217460405180807f5041555345525f524f4c45000000000000000000000000000000000000000000815250600b019050604051809103902061216f612e1c565b612204565b6121c9576040517f08c379a00000000000000000000000000000000000000000000000000000000081526004018080602001828103825260398152602001806156716039913960400191505060405180910390fd5b6121d1613e81565b565b60006121fc82600080868152602001908152602001600020600001613f8390919063ffffffff16565b905092915050565b600061222d82600080868152602001908152602001600020600001613f9d90919063ffffffff16565b905092915050565b6000801b81565b8173ffffffffffffffffffffffffffffffffffffffff1661225b612e1c565b73ffffffffffffffffffffffffffffffffffffffff1614156122c8576040517f08c379a00000000000000000000000000000000000000000000000000000000081526004018080602001828103825260298152602001806156d26029913960400191505060405180910390fd5b80600360006122d5612e1c565b73ffffffffffffffffffffffffffffffffffffffff1673ffffffffffffffffffffffffffffffffffffffff16815260200190815260200160002060008473ffffffffffffffffffffffffffffffffffffffff1673ffffffffffffffffffffffffffffffffffffffff16815260200190815260200160002060006101000a81548160ff0219169083151502179055508173ffffffffffffffffffffffffffffffffffffffff16612382612e1c565b73ffffffffffffffffffffffffffffffffffffffff167f17307eab39ab6107e8899845ad3d59bd9653f200f220920489ca2b5937696c3183604051808215151515815260200191505060405180910390a35050565b6000606060405180606001604052806027815260200161548b602791396040516020018082805190602001908083835b6020831061242a5780518252602082019150602081019050602083039250612407565b6001836020036101000a038019825116818451168082178552505050505050905001807f2f00000000000000000000000000000000000000000000000000000000000000815250600101806156fb602a9139602a019150506040516020818303038152906040529050600061249e826125f9565b60001c9050600f60003373ffffffffffffffffffffffffffffffffffffffff1673ffffffffffffffffffffffffffffffffffffffff168152602001908152602001600020819080600181540180825580915050600190039060005260206000200160009091909190915055809250505090565b6000612530600080848152602001908152602001600020600001613fcd565b9050919050565b60405180807f4d494e5445525f524f4c45000000000000000000000000000000000000000000815250600b019050604051809103902081565b61259660008084815260200190815260200160002060020154612591612e1c565b612204565b6125eb576040517f08c379a000000000000000000000000000000000000000000000000000000000815260040180806020018281038252603081526020018061552a6030913960400191505060405180910390fd5b6125f582826137ac565b5050565b60006126036152ed565b612617600c5430634357855e60e01b613fe2565b90506126636040518060400160405280600381526020017f676574000000000000000000000000000000000000000000000000000000000081525084836140139092919063ffffffff16565b6126e26040518060400160405280600481526020017f70617468000000000000000000000000000000000000000000000000000000008152506040518060400160405280600681526020017f7374617475730000000000000000000000000000000000000000000000000000815250836140139092919063ffffffff16565b612711600b60009054906101000a900473ffffffffffffffffffffffffffffffffffffffff1682600d54614046565b915050919050565b60405180807f5041555345525f524f4c45000000000000000000000000000000000000000000815250600b019050604051809103902081565b6000600360008473ffffffffffffffffffffffffffffffffffffffff1673ffffffffffffffffffffffffffffffffffffffff16815260200190815260200160002060008373ffffffffffffffffffffffffffffffffffffffff1673ffffffffffffffffffffffffffffffffffffffff16815260200190815260200160002060009054906101000a900460ff16905092915050565b60008314156127f457600080fd5b6000601060009054906101000a900473ffffffffffffffffffffffffffffffffffffffff1673ffffffffffffffffffffffffffffffffffffffff1663252a8875856040518263ffffffff1660e01b815260040180828152602001915050602060405180830381600087803b15801561286b57600080fd5b505af115801561287f573d6000803e3d6000fd5b505050506040513d602081101561289557600080fd5b81019080805190602001909291905050509050806128b4336000611454565b10156128bf57600080fd5b60016128ce3360018703611454565b10156128d957600080fd5b6128e533600083612d69565b612958601060009054906101000a900473ffffffffffffffffffffffffffffffffffffffff1685600186868080601f016020809104026020016040519081016040528093929190818152602001838380828437600081840152601f19601f82011690508083019250505050505050613c7e565b5050505050565b600073ffffffffffffffffffffffffffffffffffffffff168473ffffffffffffffffffffffffffffffffffffffff1614156129e5576040517f08c379a000000000000000000000000000000000000000000000000000000000815260040180806020018281038252602581526020018061555a6025913960400191505060405180910390fd5b6129ed612e1c565b73ffffffffffffffffffffffffffffffffffffffff168573ffffffffffffffffffffffffffffffffffffffff161480612a335750612a3285612a2d612e1c565b612752565b5b612a88576040517f08c379a00000000000000000000000000000000000000000000000000000000081526004018080602001828103825260298152602001806154de6029913960400191505060405180910390fd5b6000612a92612e1c565b9050612ab2818787612aa3886142fe565b612aac886142fe565b87613149565b612b2f836040518060600160405280602a815260200161560c602a91396002600088815260200190815260200160002060008a73ffffffffffffffffffffffffffffffffffffffff1673ffffffffffffffffffffffffffffffffffffffff1681526020019081526020016000205461315f9092919063ffffffff16565b6002600086815260200190815260200160002060008873ffffffffffffffffffffffffffffffffffffffff1673ffffffffffffffffffffffffffffffffffffffff16815260200190815260200160002081905550612be6836002600087815260200190815260200160002060008873ffffffffffffffffffffffffffffffffffffffff1673ffffffffffffffffffffffffffffffffffffffff1681526020019081526020016000205461321990919063ffffffff16565b6002600086815260200190815260200160002060008773ffffffffffffffffffffffffffffffffffffffff1673ffffffffffffffffffffffffffffffffffffffff168152602001908152602001600020819055508473ffffffffffffffffffffffffffffffffffffffff168673ffffffffffffffffffffffffffffffffffffffff168273ffffffffffffffffffffffffffffffffffffffff167fc3d58168c5ae7397731d063d5bbf3d657854427343f4c083240f7aacaa2d0f628787604051808381526020018281526020019250505060405180910390a4612ccc818787878787614357565b505050505050565b6060600f60003373ffffffffffffffffffffffffffffffffffffffff1673ffffffffffffffffffffffffffffffffffffffff168152602001908152602001600020805480602002602001604051908101604052809291908181526020018280548015612d5f57602002820191906000526020600020905b815481526020019060010190808311612d4b575b5050505050905090565b612d71612e1c565b73ffffffffffffffffffffffffffffffffffffffff168373ffffffffffffffffffffffffffffffffffffffff161480612db75750612db683612db1612e1c565b612752565b5b612e0c576040517f08c379a00000000000000000000000000000000000000000000000000000000081526004018080602001828103825260298152602001806154de6029913960400191505060405180910390fd5b612e1783838361474d565b505050565b600033905090565b600073ffffffffffffffffffffffffffffffffffffffff168473ffffffffffffffffffffffffffffffffffffffff161415612eaa576040517f08c379a00000000000000000000000000000000000000000000000000000000081526004018080602001828103825260218152602001806157766021913960400191505060405180910390fd5b8151835114612f04576040517f08c379a000000000000000000000000000000000000000000000000000000000815260040180806020018281038252602881526020018061574e6028913960400191505060405180910390fd5b6000612f0e612e1c565b9050612f1f81600087878787613149565b60008090505b845181101561302b57612fb760026000878481518110612f4157fe5b6020026020010151815260200190815260200160002060008873ffffffffffffffffffffffffffffffffffffffff1673ffffffffffffffffffffffffffffffffffffffff16815260200190815260200160002054858381518110612fa157fe5b602002602001015161321990919063ffffffff16565b60026000878481518110612fc757fe5b6020026020010151815260200190815260200160002060008873ffffffffffffffffffffffffffffffffffffffff1673ffffffffffffffffffffffffffffffffffffffff168152602001908152602001600020819055508080600101915050612f25565b508473ffffffffffffffffffffffffffffffffffffffff16600073ffffffffffffffffffffffffffffffffffffffff168273ffffffffffffffffffffffffffffffffffffffff167f4a39dc06d4c0dbc64b70af90fd698a233a518aa5d07e595d983b8c0526c8f7fb8787604051808060200180602001838103835285818151815260200191508051906020019060200280838360005b838110156130dc5780820151818401526020810190506130c1565b50505050905001838103825284818151815260200191508051906020019060200280838360005b8381101561311e578082015181840152602081019050613103565b5050505090500194505050505060405180910390a4613142816000878787876132a1565b5050505050565b613157868686868686614969565b505050505050565b600083831115829061320c576040517f08c379a00000000000000000000000000000000000000000000000000000000081526004018080602001828103825283818151815260200191508051906020019080838360005b838110156131d15780820151818401526020810190506131b6565b50505050905090810190601f1680156131fe5780820380516001836020036101000a031916815260200191505b509250505060405180910390fd5b5082840390509392505050565b600080828401905083811015613297576040517f08c379a000000000000000000000000000000000000000000000000000000000815260040180806020018281038252601b8152602001807f536166654d6174683a206164646974696f6e206f766572666c6f77000000000081525060200191505060405180910390fd5b8091505092915050565b6132c08473ffffffffffffffffffffffffffffffffffffffff166149dd565b15613711578373ffffffffffffffffffffffffffffffffffffffff1663bc197c8187878686866040518663ffffffff1660e01b8152600401808673ffffffffffffffffffffffffffffffffffffffff1673ffffffffffffffffffffffffffffffffffffffff1681526020018573ffffffffffffffffffffffffffffffffffffffff1673ffffffffffffffffffffffffffffffffffffffff168152602001806020018060200180602001848103845287818151815260200191508051906020019060200280838360005b838110156133a4578082015181840152602081019050613389565b50505050905001848103835286818151815260200191508051906020019060200280838360005b838110156133e65780820151818401526020810190506133cb565b50505050905001848103825285818151815260200191508051906020019080838360005b8381101561342557808201518184015260208101905061340a565b50505050905090810190601f1680156134525780820380516001836020036101000a031916815260200191505b5098505050505050505050602060405180830381600087803b15801561347757600080fd5b505af19250505080156134ab57506040513d602081101561349757600080fd5b810190808051906020019092919050505060015b6136725760006040519050600081526001156135745760443d10156134d35760009050613574565b60046000803e60005160e01c6308c379a081146134f4576000915050613574565b60043d036004833e81513d602482011167ffffffffffffffff8211171561352057600092505050613574565b808301805167ffffffffffffffff811115613542576000945050505050613574565b8060208301013d860181111561356057600095505050505050613574565b601f19601f82011660405282955050505050505b8061357f5750613621565b806040517f08c379a00000000000000000000000000000000000000000000000000000000081526004018080602001828103825283818151815260200191508051906020019080838360005b838110156135e65780820151818401526020810190506135cb565b50505050905090810190601f1680156136135780820380516001836020036101000a031916815260200191505b509250505060405180910390fd5b6040517f08c379a000000000000000000000000000000000000000000000000000000000815260040180806020018281038252603481526020018061538f6034913960400191505060405180910390fd5b63bc197c8160e01b7bffffffffffffffffffffffffffffffffffffffffffffffffffffffff1916817bffffffffffffffffffffffffffffffffffffffffffffffffffffffff19161461370f576040517f08c379a00000000000000000000000000000000000000000000000000000000081526004018080602001828103825260288152602001806153e56028913960400191505060405180910390fd5b505b505050505050565b613740816000808581526020019081526020016000206000016149f090919063ffffffff16565b156137a85761374d612e1c565b73ffffffffffffffffffffffffffffffffffffffff168173ffffffffffffffffffffffffffffffffffffffff16837f2f8788117e7eff1d82e926ec794901d17c78024a50270940304540a733656f0d60405160405180910390a45b5050565b6137d381600080858152602001908152602001600020600001614a2090919063ffffffff16565b1561383b576137e0612e1c565b73ffffffffffffffffffffffffffffffffffffffff168173ffffffffffffffffffffffffffffffffffffffff16837ff6391f5c32d9c69d2a47ea670b442974b53935d1edc7fd64eb21e047a839171b60405160405180910390a45b5050565b613847611fb7565b6138b9576040517f08c379a00000000000000000000000000000000000000000000000000000000081526004018080602001828103825260148152602001807f5061757361626c653a206e6f742070617573656400000000000000000000000081525060200191505060405180910390fd5b6000600560006101000a81548160ff0219169083151502179055507f5db9ee0a495bf2e6ff9c91a7834c1ba4fdd244a5e8aa4e537bd38aeae4b073aa6138fd612e1c565b604051808273ffffffffffffffffffffffffffffffffffffffff1673ffffffffffffffffffffffffffffffffffffffff16815260200191505060405180910390a1565b600073ffffffffffffffffffffffffffffffffffffffff168373ffffffffffffffffffffffffffffffffffffffff1614156139c6576040517f08c379a00000000000000000000000000000000000000000000000000000000081526004018080602001828103825260238152602001806155b16023913960400191505060405180910390fd5b8051825114613a20576040517f08c379a000000000000000000000000000000000000000000000000000000000815260040180806020018281038252602881526020018061574e6028913960400191505060405180910390fd5b6000613a2a612e1c565b9050613a4a81856000868660405180602001604052806000815250613149565b60008090505b8351811015613b7057613afc838281518110613a6857fe5b60200260200101516040518060600160405280602481526020016154676024913960026000888681518110613a9957fe5b6020026020010151815260200190815260200160002060008973ffffffffffffffffffffffffffffffffffffffff1673ffffffffffffffffffffffffffffffffffffffff1681526020019081526020016000205461315f9092919063ffffffff16565b60026000868481518110613b0c57fe5b6020026020010151815260200190815260200160002060008773ffffffffffffffffffffffffffffffffffffffff1673ffffffffffffffffffffffffffffffffffffffff168152602001908152602001600020819055508080600101915050613a50565b50600073ffffffffffffffffffffffffffffffffffffffff168473ffffffffffffffffffffffffffffffffffffffff168273ffffffffffffffffffffffffffffffffffffffff167f4a39dc06d4c0dbc64b70af90fd698a233a518aa5d07e595d983b8c0526c8f7fb8686604051808060200180602001838103835285818151815260200191508051906020019060200280838360005b83811015613c21578082015181840152602081019050613c06565b50505050905001838103825284818151815260200191508051906020019060200280838360005b83811015613c63578082015181840152602081019050613c48565b5050505090500194505050505060405180910390a450505050565b600073ffffffffffffffffffffffffffffffffffffffff168473ffffffffffffffffffffffffffffffffffffffff161415613d04576040517f08c379a00000000000000000000000000000000000000000000000000000000081526004018080602001828103825260218152602001806157766021913960400191505060405180910390fd5b6000613d0e612e1c565b9050613d2f81600087613d20886142fe565b613d29886142fe565b87613149565b613d92836002600087815260200190815260200160002060008873ffffffffffffffffffffffffffffffffffffffff1673ffffffffffffffffffffffffffffffffffffffff1681526020019081526020016000205461321990919063ffffffff16565b6002600086815260200190815260200160002060008773ffffffffffffffffffffffffffffffffffffffff1673ffffffffffffffffffffffffffffffffffffffff168152602001908152602001600020819055508473ffffffffffffffffffffffffffffffffffffffff16600073ffffffffffffffffffffffffffffffffffffffff168273ffffffffffffffffffffffffffffffffffffffff167fc3d58168c5ae7397731d063d5bbf3d657854427343f4c083240f7aacaa2d0f628787604051808381526020018281526020019250505060405180910390a4613e7a81600087878787614357565b5050505050565b613e89611fb7565b15613efc576040517f08c379a00000000000000000000000000000000000000000000000000000000081526004018080602001828103825260108152602001807f5061757361626c653a207061757365640000000000000000000000000000000081525060200191505060405180910390fd5b6001600560006101000a81548160ff0219169083151502179055507f62e78cea01bee320cd4e420270b5ea74000d11b0c9f74754ebdbfc544b05a258613f40612e1c565b604051808273ffffffffffffffffffffffffffffffffffffffff1673ffffffffffffffffffffffffffffffffffffffff16815260200191505060405180910390a1565b6000613f928360000183614a50565b60001c905092915050565b6000613fc5836000018373ffffffffffffffffffffffffffffffffffffffff1660001b614ad3565b905092915050565b6000613fdb82600001614af6565b9050919050565b613fea6152ed565b613ff26152ed565b61400985858584614b07909392919063ffffffff16565b9150509392505050565b61402a828460800151614bb790919063ffffffff16565b614041818460800151614bb790919063ffffffff16565b505050565b600030600954604051602001808373ffffffffffffffffffffffffffffffffffffffff1673ffffffffffffffffffffffffffffffffffffffff1660601b81526014018281526020019250505060405160208183030381529060405280519060200120905060095483606001818152505083600a600083815260200190815260200160002060006101000a81548173ffffffffffffffffffffffffffffffffffffffff021916908373ffffffffffffffffffffffffffffffffffffffff160217905550807fb5e6e01e79f91267dc17b4e6314d5d4d03593d2ceee0fbb452b750bd70ea5af960405160405180910390a2600760009054906101000a900473ffffffffffffffffffffffffffffffffffffffff1673ffffffffffffffffffffffffffffffffffffffff16634000aea0858461417e87614bdc565b6040518463ffffffff1660e01b8152600401808473ffffffffffffffffffffffffffffffffffffffff1673ffffffffffffffffffffffffffffffffffffffff16815260200183815260200180602001828103825283818151815260200191508051906020019080838360005b838110156142055780820151818401526020810190506141ea565b50505050905090810190601f1680156142325780820380516001836020036101000a031916815260200191505b50945050505050602060405180830381600087803b15801561425357600080fd5b505af1158015614267573d6000803e3d6000fd5b505050506040513d602081101561427d57600080fd5b81019080805190602001909291905050506142e3576040517f08c379a00000000000000000000000000000000000000000000000000000000081526004018080602001828103825260238152602001806155076023913960400191505060405180910390fd5b60016009600082825401925050819055508090509392505050565b60608060016040519080825280602002602001820160405280156143315781602001602082028036833780820191505090505b509050828160008151811061434257fe5b60200260200101818152505080915050919050565b6143768473ffffffffffffffffffffffffffffffffffffffff166149dd565b15614745578373ffffffffffffffffffffffffffffffffffffffff1663f23a6e6187878686866040518663ffffffff1660e01b8152600401808673ffffffffffffffffffffffffffffffffffffffff1673ffffffffffffffffffffffffffffffffffffffff1681526020018573ffffffffffffffffffffffffffffffffffffffff1673ffffffffffffffffffffffffffffffffffffffff16815260200184815260200183815260200180602001828103825283818151815260200191508051906020019080838360005b8381101561445b578082015181840152602081019050614440565b50505050905090810190601f1680156144885780820380516001836020036101000a031916815260200191505b509650505050505050602060405180830381600087803b1580156144ab57600080fd5b505af19250505080156144df57506040513d60208110156144cb57600080fd5b810190808051906020019092919050505060015b6146a65760006040519050600081526001156145a85760443d101561450757600090506145a8565b60046000803e60005160e01c6308c379a081146145285760009150506145a8565b60043d036004833e81513d602482011167ffffffffffffffff82111715614554576000925050506145a8565b808301805167ffffffffffffffff8111156145765760009450505050506145a8565b8060208301013d8601811115614594576000955050505050506145a8565b601f19601f82011660405282955050505050505b806145b35750614655565b806040517f08c379a00000000000000000000000000000000000000000000000000000000081526004018080602001828103825283818151815260200191508051906020019080838360005b8381101561461a5780820151818401526020810190506145ff565b50505050905090810190601f1680156146475780820380516001836020036101000a031916815260200191505b509250505060405180910390fd5b6040517f08c379a000000000000000000000000000000000000000000000000000000000815260040180806020018281038252603481526020018061538f6034913960400191505060405180910390fd5b63f23a6e6160e01b7bffffffffffffffffffffffffffffffffffffffffffffffffffffffff1916817bffffffffffffffffffffffffffffffffffffffffffffffffffffffff191614614743576040517f08c379a00000000000000000000000000000000000000000000000000000000081526004018080602001828103825260288152602001806153e56028913960400191505060405180910390fd5b505b505050505050565b600073ffffffffffffffffffffffffffffffffffffffff168373ffffffffffffffffffffffffffffffffffffffff1614156147d3576040517f08c379a00000000000000000000000000000000000000000000000000000000081526004018080602001828103825260238152602001806155b16023913960400191505060405180910390fd5b60006147dd612e1c565b905061480d818560006147ef876142fe565b6147f8876142fe565b60405180602001604052806000815250613149565b61488a82604051806060016040528060248152602001615467602491396002600087815260200190815260200160002060008873ffffffffffffffffffffffffffffffffffffffff1673ffffffffffffffffffffffffffffffffffffffff1681526020019081526020016000205461315f9092919063ffffffff16565b6002600085815260200190815260200160002060008673ffffffffffffffffffffffffffffffffffffffff1673ffffffffffffffffffffffffffffffffffffffff16815260200190815260200160002081905550600073ffffffffffffffffffffffffffffffffffffffff168473ffffffffffffffffffffffffffffffffffffffff168273ffffffffffffffffffffffffffffffffffffffff167fc3d58168c5ae7397731d063d5bbf3d657854427343f4c083240f7aacaa2d0f628686604051808381526020018281526020019250505060405180910390a450505050565b614977868686868686614da8565b61497f611fb7565b156149d5576040517f08c379a000000000000000000000000000000000000000000000000000000000815260040180806020018281038252602c8152602001806154b2602c913960400191505060405180910390fd5b505050505050565b600080823b905060008111915050919050565b6000614a18836000018373ffffffffffffffffffffffffffffffffffffffff1660001b614db0565b905092915050565b6000614a48836000018373ffffffffffffffffffffffffffffffffffffffff1660001b614e20565b905092915050565b600081836000018054905011614ab1576040517f08c379a00000000000000000000000000000000000000000000000000000000081526004018080602001828103825260228152602001806153c36022913960400191505060405180910390fd5b826000018281548110614ac057fe5b9060005260206000200154905092915050565b600080836001016000848152602001908152602001600020541415905092915050565b600081600001805490509050919050565b614b0f6152ed565b614b1f8560800151610100614f08565b508385600001818152505082856020019073ffffffffffffffffffffffffffffffffffffffff16908173ffffffffffffffffffffffffffffffffffffffff16815250508185604001907bffffffffffffffffffffffffffffffffffffffffffffffffffffffff191690817bffffffffffffffffffffffffffffffffffffffffffffffffffffffff191681525050849050949350505050565b614bc48260038351614f5c565b614bd781836150e190919063ffffffff16565b505050565b6060634042994660e01b60008084600001518560200151866040015187606001516001896080015160000151604051602401808973ffffffffffffffffffffffffffffffffffffffff1673ffffffffffffffffffffffffffffffffffffffff1681526020018881526020018781526020018673ffffffffffffffffffffffffffffffffffffffff1673ffffffffffffffffffffffffffffffffffffffff168152602001857bffffffffffffffffffffffffffffffffffffffffffffffffffffffff19167bffffffffffffffffffffffffffffffffffffffffffffffffffffffff1916815260200184815260200183815260200180602001828103825283818151815260200191508051906020019080838360005b83811015614d0b578082015181840152602081019050614cf0565b50505050905090810190601f168015614d385780820380516001836020036101000a031916815260200191505b509950505050505050505050604051602081830303815290604052907bffffffffffffffffffffffffffffffffffffffffffffffffffffffff19166020820180517bffffffffffffffffffffffffffffffffffffffffffffffffffffffff83818316178352505050509050919050565b505050505050565b6000614dbc8383614ad3565b614e15578260000182908060018154018082558091505060019003906000526020600020016000909190919091505582600001805490508360010160008481526020019081526020016000208190555060019050614e1a565b600090505b92915050565b60008083600101600084815260200190815260200160002054905060008114614efc5760006001820390506000600186600001805490500390506000866000018281548110614e6b57fe5b9060005260206000200154905080876000018481548110614e8857fe5b9060005260206000200181905550600183018760010160008381526020019081526020016000208190555086600001805480614ec057fe5b60019003818190600052602060002001600090559055866001016000878152602001908152602001600020600090556001945050505050614f02565b60009150505b92915050565b614f1061535a565b600060208381614f1c57fe5b0614614f355760208281614f2c57fe5b06602003820191505b81836020018181525050604051808452600081528281016020016040525082905092915050565b60178167ffffffffffffffff1611614f9357614f8d8160058460ff16901b60ff16178461510390919063ffffffff16565b506150dc565b60ff8167ffffffffffffffff1611614fe957614fc2601860058460ff16901b178461510390919063ffffffff16565b50614fe38167ffffffffffffffff166001856151239092919063ffffffff16565b506150db565b61ffff8167ffffffffffffffff161161504057615019601960058460ff16901b178461510390919063ffffffff16565b5061503a8167ffffffffffffffff166002856151239092919063ffffffff16565b506150da565b63ffffffff8167ffffffffffffffff161161509957615072601a60058460ff16901b178461510390919063ffffffff16565b506150938167ffffffffffffffff166004856151239092919063ffffffff16565b506150d9565b6150b6601b60058460ff16901b178461510390919063ffffffff16565b506150d78167ffffffffffffffff166008856151239092919063ffffffff16565b505b5b5b5b505050565b6150e961535a565b6150fb83846000015151848551615145565b905092915050565b61510b61535a565b61511b83846000015151846151fe565b905092915050565b61512b61535a565b61513c84856000015151858561524c565b90509392505050565b61514d61535a565b825182111561515b57600080fd5b846020015182850111156151865761518585600261517f88602001518887016152ad565b026152c9565b5b6000808651805187602083010193508088870111156151a55787860182525b60208701925050505b602084106151d157805182526020820191506020810190506020840393506151ae565b60006001856020036101000a03905080198251168184511681811785525050879350505050949350505050565b61520661535a565b83602001518310615223576152228460028660200151026152c9565b5b835180516020858301018481538186141561523f576001820183525b5050508390509392505050565b61525461535a565b8460200151848301111561527257615271856002868501026152c9565b5b60006001836101000a039050855183868201018583198251161781528151858801111561529f5784870182525b505085915050949350505050565b6000818311156152bf578290506152c3565b8190505b92915050565b6060826000015190506152dc8383614f08565b506152e783826150e1565b50505050565b6040518060a0016040528060008019168152602001600073ffffffffffffffffffffffffffffffffffffffff16815260200160007bffffffffffffffffffffffffffffffffffffffffffffffffffffffff1916815260200160008152602001615354615374565b81525090565b604051806040016040528060608152602001600081525090565b60405180604001604052806060815260200160008152509056fe455243313135353a207472616e7366657220746f206e6f6e2045524331313535526563656976657220696d706c656d656e746572456e756d657261626c655365743a20696e646578206f7574206f6620626f756e6473455243313135353a204552433131353552656365697665722072656a656374656420746f6b656e73416363657373436f6e74726f6c3a2073656e646572206d75737420626520616e2061646d696e20746f206772616e74455243313135353a2062616c616e636520717565727920666f7220746865207a65726f2061646472657373455243313135353a206275726e20616d6f756e7420657863656564732062616c616e636568747470733a2f2f726573706374626f742e6865726f6b756170702e636f6d2f61646472657373455243313135355061757361626c653a20746f6b656e207472616e73666572207768696c6520706175736564455243313135353a2063616c6c6572206973206e6f74206f776e6572206e6f7220617070726f766564756e61626c6520746f207472616e73666572416e6443616c6c20746f206f7261636c65416363657373436f6e74726f6c3a2073656e646572206d75737420626520616e2061646d696e20746f207265766f6b65455243313135353a207472616e7366657220746f20746865207a65726f2061646472657373455243313135353a207472616e736665722063616c6c6572206973206e6f74206f776e6572206e6f7220617070726f766564455243313135353a206275726e2066726f6d20746865207a65726f2061646472657373455243313135355072657365744d696e7465725061757365723a206d7573742068617665206d696e74657220726f6c6520746f206d696e74455243313135353a20696e73756666696369656e742062616c616e636520666f72207472616e73666572455243313135355072657365744d696e7465725061757365723a206d75737420686176652070617573657220726f6c6520746f20756e7061757365455243313135355072657365744d696e7465725061757365723a206d75737420686176652070617573657220726f6c6520746f207061757365536f75726365206d75737420626520746865206f7261636c65206f66207468652072657175657374455243313135353a2073657474696e6720617070726f76616c2073746174757320666f722073656c66307865666443314136653035653137333746326366443236424230663732443542374642614444313736455243313135353a206163636f756e747320616e6420696473206c656e677468206d69736d61746368455243313135353a2069647320616e6420616d6f756e7473206c656e677468206d69736d61746368455243313135353a206d696e7420746f20746865207a65726f2061646472657373416363657373436f6e74726f6c3a2063616e206f6e6c792072656e6f756e636520726f6c657320666f722073656c66a2646970667358221220aff35d3cfab3b4b493e4f383d1b5641a53ce341025fae39950b1becd2a4ce28b64736f6c634300060300334552433939383a207472616e7366657220746f20746865207a65726f2061646472657373",
  "source": "// SPDX-License-Identifier: UNLICENSED\npragma solidity ^0.6.0;\n///@dev handle Batch receiving function - !!!!\n\n/// @title ERC1155TUMP creates tier supply and attaches tier to composable\n/// @author respect-club\n/// @notice receives Engagement tokens and attaches tier to composable\n/// @dev 1155 tokenId reserved for engagement token\n\n/// @notice\nimport \"@openzeppelin/contracts/presets/ERC1155PresetMinterPauser.sol\";\nimport \"@openzeppelin/contracts/token/ERC1155/IERC1155Receiver.sol\";\nimport \"@openzeppelin/contracts/token/ERC1155/ERC1155Holder.sol\";\nimport \"./ERC998ERC1155TopDownPresetMinterPauser.sol\";\n\nimport \"@chainlink/contracts/src/v0.6/ChainlinkClient.sol\";\n\n/*\n    erc1155.mint(admin, multiTokenTier0, multiTokenMaxSuply, \"0x\");\n    erc1155.safeTransferFrom(admin, erc998.address, multiTokenTier0, 1, web3.utils.encodePacked(composable1));\n*/\ncontract ERC1155TierUpgradePresetMinterPauser is ERC1155PresetMinterPauser, ChainlinkClient {\n        using Chainlink for Chainlink.Request;\n        event urlCreated(string indexed url);\n        address private oracle;\n        bytes32 private jobId;\n        uint256 private fee;\n        mapping (bytes32 => uint256) requestResult; \n        mapping (address => uint[]) userRequests; \n        string constant baseUrl = \"https://respctbot.herokuapp.com/address\";\n\n\n    bytes4 internal constant ERC1155_ACCEPTED = 0xf23a6e61; // bytes4(keccak256(\"onERC1155Received(address,address,uint256,uint256,bytes)\"))\n    bytes4 internal constant ERC1155_BATCH_ACCEPTED = 0xbc197c81; // bytes4(keccak256(\"onERC1155BatchReceived(address,address,uint256[],uint256[],bytes)\"))\n\n    ERC998ERC1155TopDownPresetMinterPauser csnftContract;\n\n    /// @notice csnft contract is deployed and linked to ERC1155TUMP\n    /// @param _csnftContractAdr deployed csnft contract\n\n    constructor(string memory tierUri, address _csnftContractAdr)\n        public\n        ERC1155PresetMinterPauser(tierUri)\n    {\n        require(\n            _csnftContractAdr != address(0),\n            \"ERC998: transfer to the zero address\"\n        );\n\n        csnftContract = ERC998ERC1155TopDownPresetMinterPauser(\n            _csnftContractAdr\n        );\n        setChainlinkToken(0x326C977E6efc84E512bB9C30f76E30c160eD06FB);\n        oracle = 0x0bDDCD124709aCBf9BB3F824EbC61C87019888bb;\n        jobId = \"2bb15c3f9cfc4336b95012872ff05092\";\n        fee = 0.01 * 10 ** 18; // (Varies by network and job)\n    }\n\n    function submitRequest(string memory url ) public returns (bytes32 requestId) \n    {\n        Chainlink.Request memory request = buildChainlinkRequest(jobId, address(this), this.fulfill.selector);\n        \n        // Set the URL to perform the GET request on\n        request.add(\"get\", url);\n        request.add(\"path\", \"status\"); // Chainlink nodes 1.0.0 and later support this format\n\n        // Sends the request\n        return sendChainlinkRequestTo(oracle, request, fee);\n    }\n    \n    /**\n     * Receive the response in the form of uint256\n     */ \n    function fulfill(bytes32 _requestId, uint256 status) public recordChainlinkFulfillment(_requestId)\n    {\n        requestResult[_requestId] = status; \n    }\n\n    function createRequest() public returns (uint) {\n        string memory url = string(abi.encodePacked(baseUrl, '/', \"0xefdC1A6e05e1737F2cfD26BB0f72D5B7FBaDD176\"));\n        uint requestId = uint(submitRequest(url));\n        userRequests[msg.sender].push(requestId);\n        return requestId;  \n    }\n    function getRequestResult(uint _requestId) public view returns (uint256) {\n        return requestResult[bytes32(_requestId)];\n    } \n     function getMyRequestIDs() public view returns (uint[] memory) {\n        return userRequests[msg.sender];\n    }\n\n    /// claimF engagement points\n    //function claim(){}\n\n    /// @notice upgrade user tier\n    /// @dev fetch curent tier of msg.sender\n    /// msg.value user sends\n    function upgradeSNFT(\n        uint256 _composableId,\n        uint256 _upgradeToTierId, // upgrade to\n        bytes calldata data // web3.utils.encodePacked(composableId)\n    ) external payable {\n        //add tier checks  if tierId =1 bal(t-1) == 1\n        // at t=0 bal(0) >= _FengagementPOints\n        require(_upgradeToTierId != 0);\n\n        uint256 upgradeCost = csnftContract.getTierPrice(_upgradeToTierId);\n        require(balanceOf(msg.sender, 0) >= upgradeCost); // have enough Engagment points at\n        require(balanceOf(msg.sender, _upgradeToTierId - 1) >= 1);\n\n        // if (_tierId == 1) {\n        //     //first upgrade\n        //     require(balanceOf(msg.sender, _tierId - 1) >= 1);\n        // } else {\n        //     require(\n        //         (balanceOf(msg.sender, _tierId) >= _tierPriceArr[_tierId + 1])\n        //     ); //\n        // }\n        burn(msg.sender, 0, upgradeCost); // burn engagement tid 0\n\n        _mint(address(csnftContract), _upgradeToTierId, 1, data);\n    }\n\n    // implement function to mint | claim F(creators engagement ) at tokenId 0\n}\n",
  "sourcePath": "/Users/shubhamsonthalia/ComposableNFTs/contracts/ERC1155TierUpgradePresetMinterPauser.sol",
  "compiler": {
    "name": "solc",
    "version": "0.6.3+commit.8dda9521.Emscripten.clang"
  },
  "schemaVersion": "3.4.7",
  "updatedAt": "2022-04-29T08:13:45.902Z",
  "devdoc": {
    "methods": {
      "balanceOf(address,uint256)": {
        "details": "See {IERC1155-balanceOf}.     * Requirements:     * - `account` cannot be the zero address."
      },
      "balanceOfBatch(address[],uint256[])": {
        "details": "See {IERC1155-balanceOfBatch}.     * Requirements:     * - `accounts` and `ids` must have the same length."
      },
      "constructor": {
        "params": {
          "_csnftContractAdr": "deployed csnft contract"
        }
      },
      "getRoleAdmin(bytes32)": {
        "details": "Returns the admin role that controls `role`. See {grantRole} and {revokeRole}.     * To change a role's admin, use {_setRoleAdmin}."
      },
      "getRoleMember(bytes32,uint256)": {
        "details": "Returns one of the accounts that have `role`. `index` must be a value between 0 and {getRoleMemberCount}, non-inclusive.     * Role bearers are not sorted in any particular way, and their ordering may change at any point.     * WARNING: When using {getRoleMember} and {getRoleMemberCount}, make sure you perform all queries on the same block. See the following https://forum.openzeppelin.com/t/iterating-over-elements-on-enumerableset-in-openzeppelin-contracts/2296[forum post] for more information."
      },
      "getRoleMemberCount(bytes32)": {
        "details": "Returns the number of accounts that have `role`. Can be used together with {getRoleMember} to enumerate all bearers of a role."
      },
      "grantRole(bytes32,address)": {
        "details": "Grants `role` to `account`.     * If `account` had not been already granted `role`, emits a {RoleGranted} event.     * Requirements:     * - the caller must have ``role``'s admin role."
      },
      "hasRole(bytes32,address)": {
        "details": "Returns `true` if `account` has been granted `role`."
      },
      "isApprovedForAll(address,address)": {
        "details": "See {IERC1155-isApprovedForAll}."
      },
      "mint(address,uint256,uint256,bytes)": {
        "details": "Creates `amount` new tokens for `to`, of token type `id`.     * See {ERC1155-_mint}.     * Requirements:     * - the caller must have the `MINTER_ROLE`."
      },
      "mintBatch(address,uint256[],uint256[],bytes)": {
        "details": "xref:ROOT:erc1155.adoc#batch-operations[Batched] variant of {mint}."
      },
      "pause()": {
        "details": "Pauses all token transfers.     * See {ERC1155Pausable} and {Pausable-_pause}.     * Requirements:     * - the caller must have the `PAUSER_ROLE`."
      },
      "paused()": {
        "details": "Returns true if the contract is paused, and false otherwise."
      },
      "renounceRole(bytes32,address)": {
        "details": "Revokes `role` from the calling account.     * Roles are often managed via {grantRole} and {revokeRole}: this function's purpose is to provide a mechanism for accounts to lose their privileges if they are compromised (such as when a trusted device is misplaced).     * If the calling account had been granted `role`, emits a {RoleRevoked} event.     * Requirements:     * - the caller must be `account`."
      },
      "revokeRole(bytes32,address)": {
        "details": "Revokes `role` from `account`.     * If `account` had been granted `role`, emits a {RoleRevoked} event.     * Requirements:     * - the caller must have ``role``'s admin role."
      },
      "safeBatchTransferFrom(address,address,uint256[],uint256[],bytes)": {
        "details": "See {IERC1155-safeBatchTransferFrom}."
      },
      "safeTransferFrom(address,address,uint256,uint256,bytes)": {
        "details": "See {IERC1155-safeTransferFrom}."
      },
      "setApprovalForAll(address,bool)": {
        "details": "See {IERC1155-setApprovalForAll}."
      },
      "supportsInterface(bytes4)": {
        "details": "See {IERC165-supportsInterface}.     * Time complexity O(1), guaranteed to always use less than 30 000 gas."
      },
      "unpause()": {
        "details": "Unpauses all token transfers.     * See {ERC1155Pausable} and {Pausable-_unpause}.     * Requirements:     * - the caller must have the `PAUSER_ROLE`."
      },
      "upgradeSNFT(uint256,uint256,bytes)": {
        "details": "fetch curent tier of msg.sender msg.value user sends"
      },
      "uri(uint256)": {
        "details": "See {IERC1155MetadataURI-uri}.     * This implementation returns the same URI for *all* token types. It relies on the token type ID substitution mechanism https://eips.ethereum.org/EIPS/eip-1155#metadata[defined in the EIP].     * Clients calling this function must replace the `\\{id\\}` substring with the actual token type ID."
      }
    }
  },
  "userdoc": {
    "methods": {
      "constructor": "csnft contract is deployed and linked to ERC1155TUMP",
      "fulfill(bytes32,uint256)": {
        "notice": "Receive the response in the form of uint256"
      },
      "upgradeSNFT(uint256,uint256,bytes)": {
        "notice": "upgrade user tier"
      }
    }
  }
}