{
  "contractName": "ERC1155TierUpgradePresetMinterPauser",
  "abi": [
    {
      "inputs": [
        {
          "internalType": "string",
          "name": "tierUri",
          "type": "string"
        }
      ],
      "stateMutability": "nonpayable",
      "type": "constructor"
    },
    {
      "anonymous": false,
      "inputs": [
        {
          "indexed": true,
          "internalType": "address",
          "name": "account",
          "type": "address"
        },
        {
          "indexed": true,
          "internalType": "address",
          "name": "operator",
          "type": "address"
        },
        {
          "indexed": false,
          "internalType": "bool",
          "name": "approved",
          "type": "bool"
        }
      ],
      "name": "ApprovalForAll",
      "type": "event"
    },
    {
      "anonymous": false,
      "inputs": [
        {
          "indexed": false,
          "internalType": "address",
          "name": "account",
          "type": "address"
        }
      ],
      "name": "Paused",
      "type": "event"
    },
    {
      "anonymous": false,
      "inputs": [
        {
          "indexed": true,
          "internalType": "bytes32",
          "name": "role",
          "type": "bytes32"
        },
        {
          "indexed": true,
          "internalType": "bytes32",
          "name": "previousAdminRole",
          "type": "bytes32"
        },
        {
          "indexed": true,
          "internalType": "bytes32",
          "name": "newAdminRole",
          "type": "bytes32"
        }
      ],
      "name": "RoleAdminChanged",
      "type": "event"
    },
    {
      "anonymous": false,
      "inputs": [
        {
          "indexed": true,
          "internalType": "bytes32",
          "name": "role",
          "type": "bytes32"
        },
        {
          "indexed": true,
          "internalType": "address",
          "name": "account",
          "type": "address"
        },
        {
          "indexed": true,
          "internalType": "address",
          "name": "sender",
          "type": "address"
        }
      ],
      "name": "RoleGranted",
      "type": "event"
    },
    {
      "anonymous": false,
      "inputs": [
        {
          "indexed": true,
          "internalType": "bytes32",
          "name": "role",
          "type": "bytes32"
        },
        {
          "indexed": true,
          "internalType": "address",
          "name": "account",
          "type": "address"
        },
        {
          "indexed": true,
          "internalType": "address",
          "name": "sender",
          "type": "address"
        }
      ],
      "name": "RoleRevoked",
      "type": "event"
    },
    {
      "anonymous": false,
      "inputs": [
        {
          "indexed": true,
          "internalType": "address",
          "name": "operator",
          "type": "address"
        },
        {
          "indexed": true,
          "internalType": "address",
          "name": "from",
          "type": "address"
        },
        {
          "indexed": true,
          "internalType": "address",
          "name": "to",
          "type": "address"
        },
        {
          "indexed": false,
          "internalType": "uint256[]",
          "name": "ids",
          "type": "uint256[]"
        },
        {
          "indexed": false,
          "internalType": "uint256[]",
          "name": "values",
          "type": "uint256[]"
        }
      ],
      "name": "TransferBatch",
      "type": "event"
    },
    {
      "anonymous": false,
      "inputs": [
        {
          "indexed": true,
          "internalType": "address",
          "name": "operator",
          "type": "address"
        },
        {
          "indexed": true,
          "internalType": "address",
          "name": "from",
          "type": "address"
        },
        {
          "indexed": true,
          "internalType": "address",
          "name": "to",
          "type": "address"
        },
        {
          "indexed": false,
          "internalType": "uint256",
          "name": "id",
          "type": "uint256"
        },
        {
          "indexed": false,
          "internalType": "uint256",
          "name": "value",
          "type": "uint256"
        }
      ],
      "name": "TransferSingle",
      "type": "event"
    },
    {
      "anonymous": false,
      "inputs": [
        {
          "indexed": false,
          "internalType": "string",
          "name": "value",
          "type": "string"
        },
        {
          "indexed": true,
          "internalType": "uint256",
          "name": "id",
          "type": "uint256"
        }
      ],
      "name": "URI",
      "type": "event"
    },
    {
      "anonymous": false,
      "inputs": [
        {
          "indexed": false,
          "internalType": "address",
          "name": "account",
          "type": "address"
        }
      ],
      "name": "Unpaused",
      "type": "event"
    },
    {
      "inputs": [],
      "name": "DEFAULT_ADMIN_ROLE",
      "outputs": [
        {
          "internalType": "bytes32",
          "name": "",
          "type": "bytes32"
        }
      ],
      "stateMutability": "view",
      "type": "function"
    },
    {
      "inputs": [],
      "name": "MINTER_ROLE",
      "outputs": [
        {
          "internalType": "bytes32",
          "name": "",
          "type": "bytes32"
        }
      ],
      "stateMutability": "view",
      "type": "function"
    },
    {
      "inputs": [],
      "name": "PAUSER_ROLE",
      "outputs": [
        {
          "internalType": "bytes32",
          "name": "",
          "type": "bytes32"
        }
      ],
      "stateMutability": "view",
      "type": "function"
    },
    {
      "inputs": [
        {
          "internalType": "address",
          "name": "account",
          "type": "address"
        },
        {
          "internalType": "uint256",
          "name": "id",
          "type": "uint256"
        }
      ],
      "name": "balanceOf",
      "outputs": [
        {
          "internalType": "uint256",
          "name": "",
          "type": "uint256"
        }
      ],
      "stateMutability": "view",
      "type": "function"
    },
    {
      "inputs": [
        {
          "internalType": "address[]",
          "name": "accounts",
          "type": "address[]"
        },
        {
          "internalType": "uint256[]",
          "name": "ids",
          "type": "uint256[]"
        }
      ],
      "name": "balanceOfBatch",
      "outputs": [
        {
          "internalType": "uint256[]",
          "name": "",
          "type": "uint256[]"
        }
      ],
      "stateMutability": "view",
      "type": "function"
    },
    {
      "inputs": [
        {
          "internalType": "address",
          "name": "account",
          "type": "address"
        },
        {
          "internalType": "uint256",
          "name": "id",
          "type": "uint256"
        },
        {
          "internalType": "uint256",
          "name": "value",
          "type": "uint256"
        }
      ],
      "name": "burn",
      "outputs": [],
      "stateMutability": "nonpayable",
      "type": "function"
    },
    {
      "inputs": [
        {
          "internalType": "address",
          "name": "account",
          "type": "address"
        },
        {
          "internalType": "uint256[]",
          "name": "ids",
          "type": "uint256[]"
        },
        {
          "internalType": "uint256[]",
          "name": "values",
          "type": "uint256[]"
        }
      ],
      "name": "burnBatch",
      "outputs": [],
      "stateMutability": "nonpayable",
      "type": "function"
    },
    {
      "inputs": [
        {
          "internalType": "bytes32",
          "name": "role",
          "type": "bytes32"
        }
      ],
      "name": "getRoleAdmin",
      "outputs": [
        {
          "internalType": "bytes32",
          "name": "",
          "type": "bytes32"
        }
      ],
      "stateMutability": "view",
      "type": "function"
    },
    {
      "inputs": [
        {
          "internalType": "bytes32",
          "name": "role",
          "type": "bytes32"
        },
        {
          "internalType": "uint256",
          "name": "index",
          "type": "uint256"
        }
      ],
      "name": "getRoleMember",
      "outputs": [
        {
          "internalType": "address",
          "name": "",
          "type": "address"
        }
      ],
      "stateMutability": "view",
      "type": "function"
    },
    {
      "inputs": [
        {
          "internalType": "bytes32",
          "name": "role",
          "type": "bytes32"
        }
      ],
      "name": "getRoleMemberCount",
      "outputs": [
        {
          "internalType": "uint256",
          "name": "",
          "type": "uint256"
        }
      ],
      "stateMutability": "view",
      "type": "function"
    },
    {
      "inputs": [
        {
          "internalType": "bytes32",
          "name": "role",
          "type": "bytes32"
        },
        {
          "internalType": "address",
          "name": "account",
          "type": "address"
        }
      ],
      "name": "grantRole",
      "outputs": [],
      "stateMutability": "nonpayable",
      "type": "function"
    },
    {
      "inputs": [
        {
          "internalType": "bytes32",
          "name": "role",
          "type": "bytes32"
        },
        {
          "internalType": "address",
          "name": "account",
          "type": "address"
        }
      ],
      "name": "hasRole",
      "outputs": [
        {
          "internalType": "bool",
          "name": "",
          "type": "bool"
        }
      ],
      "stateMutability": "view",
      "type": "function"
    },
    {
      "inputs": [
        {
          "internalType": "address",
          "name": "account",
          "type": "address"
        },
        {
          "internalType": "address",
          "name": "operator",
          "type": "address"
        }
      ],
      "name": "isApprovedForAll",
      "outputs": [
        {
          "internalType": "bool",
          "name": "",
          "type": "bool"
        }
      ],
      "stateMutability": "view",
      "type": "function"
    },
    {
      "inputs": [
        {
          "internalType": "address",
          "name": "to",
          "type": "address"
        },
        {
          "internalType": "uint256",
          "name": "id",
          "type": "uint256"
        },
        {
          "internalType": "uint256",
          "name": "amount",
          "type": "uint256"
        },
        {
          "internalType": "bytes",
          "name": "data",
          "type": "bytes"
        }
      ],
      "name": "mint",
      "outputs": [],
      "stateMutability": "nonpayable",
      "type": "function"
    },
    {
      "inputs": [
        {
          "internalType": "address",
          "name": "to",
          "type": "address"
        },
        {
          "internalType": "uint256[]",
          "name": "ids",
          "type": "uint256[]"
        },
        {
          "internalType": "uint256[]",
          "name": "amounts",
          "type": "uint256[]"
        },
        {
          "internalType": "bytes",
          "name": "data",
          "type": "bytes"
        }
      ],
      "name": "mintBatch",
      "outputs": [],
      "stateMutability": "nonpayable",
      "type": "function"
    },
    {
      "inputs": [],
      "name": "pause",
      "outputs": [],
      "stateMutability": "nonpayable",
      "type": "function"
    },
    {
      "inputs": [],
      "name": "paused",
      "outputs": [
        {
          "internalType": "bool",
          "name": "",
          "type": "bool"
        }
      ],
      "stateMutability": "view",
      "type": "function"
    },
    {
      "inputs": [
        {
          "internalType": "bytes32",
          "name": "role",
          "type": "bytes32"
        },
        {
          "internalType": "address",
          "name": "account",
          "type": "address"
        }
      ],
      "name": "renounceRole",
      "outputs": [],
      "stateMutability": "nonpayable",
      "type": "function"
    },
    {
      "inputs": [
        {
          "internalType": "bytes32",
          "name": "role",
          "type": "bytes32"
        },
        {
          "internalType": "address",
          "name": "account",
          "type": "address"
        }
      ],
      "name": "revokeRole",
      "outputs": [],
      "stateMutability": "nonpayable",
      "type": "function"
    },
    {
      "inputs": [
        {
          "internalType": "address",
          "name": "from",
          "type": "address"
        },
        {
          "internalType": "address",
          "name": "to",
          "type": "address"
        },
        {
          "internalType": "uint256[]",
          "name": "ids",
          "type": "uint256[]"
        },
        {
          "internalType": "uint256[]",
          "name": "amounts",
          "type": "uint256[]"
        },
        {
          "internalType": "bytes",
          "name": "data",
          "type": "bytes"
        }
      ],
      "name": "safeBatchTransferFrom",
      "outputs": [],
      "stateMutability": "nonpayable",
      "type": "function"
    },
    {
      "inputs": [
        {
          "internalType": "address",
          "name": "from",
          "type": "address"
        },
        {
          "internalType": "address",
          "name": "to",
          "type": "address"
        },
        {
          "internalType": "uint256",
          "name": "id",
          "type": "uint256"
        },
        {
          "internalType": "uint256",
          "name": "amount",
          "type": "uint256"
        },
        {
          "internalType": "bytes",
          "name": "data",
          "type": "bytes"
        }
      ],
      "name": "safeTransferFrom",
      "outputs": [],
      "stateMutability": "nonpayable",
      "type": "function"
    },
    {
      "inputs": [
        {
          "internalType": "address",
          "name": "operator",
          "type": "address"
        },
        {
          "internalType": "bool",
          "name": "approved",
          "type": "bool"
        }
      ],
      "name": "setApprovalForAll",
      "outputs": [],
      "stateMutability": "nonpayable",
      "type": "function"
    },
    {
      "inputs": [
        {
          "internalType": "bytes4",
          "name": "interfaceId",
          "type": "bytes4"
        }
      ],
      "name": "supportsInterface",
      "outputs": [
        {
          "internalType": "bool",
          "name": "",
          "type": "bool"
        }
      ],
      "stateMutability": "view",
      "type": "function"
    },
    {
      "inputs": [],
      "name": "unpause",
      "outputs": [],
      "stateMutability": "nonpayable",
      "type": "function"
    },
    {
      "inputs": [
        {
          "internalType": "uint256",
          "name": "",
          "type": "uint256"
        }
      ],
      "name": "uri",
      "outputs": [
        {
          "internalType": "string",
          "name": "",
          "type": "string"
        }
      ],
      "stateMutability": "view",
      "type": "function"
    },
    {
      "inputs": [
        {
          "internalType": "address",
          "name": "from",
          "type": "address"
        },
        {
          "internalType": "address",
          "name": "csnftContract",
          "type": "address"
        },
        {
          "internalType": "uint256",
          "name": "tierId",
          "type": "uint256"
        },
        {
          "internalType": "bytes",
          "name": "data",
          "type": "bytes"
        }
      ],
      "name": "upgradeSNFT",
      "outputs": [],
      "stateMutability": "payable",
      "type": "function"
    }
  ],
  "bytecode": "0x60806040523480156200001157600080fd5b5060405162004c2838038062004c28833981810160405260208110156200003757600080fd5b81019080805160405193929190846401000000008211156200005857600080fd5b838201915060208201858111156200006f57600080fd5b82518660018202830111640100000000821117156200008d57600080fd5b8083526020830192505050908051906020019080838360005b83811015620000c3578082015181840152602081019050620000a6565b50505050905090810190601f168015620000f15780820380516001836020036101000a031916815260200191505b506040525050508080620001126301ffc9a760e01b6200024760201b60201c565b62000123816200035060201b60201c565b6200013b63d9b67a2660e01b6200024760201b60201c565b62000153630e89341c60e01b6200024760201b60201c565b506000600560006101000a81548160ff021916908315150217905550620001936000801b620001876200036c60201b60201c565b6200037460201b60201c565b620001e960405180807f4d494e5445525f524f4c45000000000000000000000000000000000000000000815250600b0190506040518091039020620001dd6200036c60201b60201c565b6200037460201b60201c565b6200023f60405180807f5041555345525f524f4c45000000000000000000000000000000000000000000815250600b0190506040518091039020620002336200036c60201b60201c565b6200037460201b60201c565b5050620005b1565b63ffffffff60e01b817bffffffffffffffffffffffffffffffffffffffffffffffffffffffff19161415620002e4576040517f08c379a000000000000000000000000000000000000000000000000000000000815260040180806020018281038252601c8152602001807f4552433136353a20696e76616c696420696e746572666163652069640000000081525060200191505060405180910390fd5b6001806000837bffffffffffffffffffffffffffffffffffffffffffffffffffffffff19167bffffffffffffffffffffffffffffffffffffffffffffffffffffffff1916815260200190815260200160002060006101000a81548160ff02191690831515021790555050565b80600490805190602001906200036892919062000502565b5050565b600033905090565b6200038682826200038a60201b60201c565b5050565b620003b8816000808581526020019081526020016000206000016200042d60201b62003ffb1790919060201c565b156200042957620003ce6200036c60201b60201c565b73ffffffffffffffffffffffffffffffffffffffff168173ffffffffffffffffffffffffffffffffffffffff16837f2f8788117e7eff1d82e926ec794901d17c78024a50270940304540a733656f0d60405160405180910390a45b5050565b60006200045d836000018373ffffffffffffffffffffffffffffffffffffffff1660001b6200046560201b60201c565b905092915050565b6000620004798383620004df60201b60201c565b620004d4578260000182908060018154018082558091505060019003906000526020600020016000909190919091505582600001805490508360010160008481526020019081526020016000208190555060019050620004d9565b600090505b92915050565b600080836001016000848152602001908152602001600020541415905092915050565b828054600181600116156101000203166002900490600052602060002090601f016020900481019282601f106200054557805160ff191683800117855562000576565b8280016001018555821562000576579182015b828111156200057557825182559160200191906001019062000558565b5b50905062000585919062000589565b5090565b620005ae91905b80821115620005aa57600081600090555060010162000590565b5090565b90565b61466780620005c16000396000f3fe6080604052600436106101805760003560e01c8063731133e9116100d1578063ca15c8731161008a578063e63ab1e911610064578063e63ab1e914610ff7578063e985e9c514611022578063f242432a146110ab578063f5298aca146111c757610180565b8063ca15c87314610f22578063d539139314610f71578063d547741f14610f9c57610180565b8063731133e914610c8f5780638456cb5914610d8b5780639010d07c14610da257806391d1485414610e27578063a217fddf14610e9a578063a22cb46514610ec557610180565b80632f2ff15d1161013e5780634e1273f4116101185780634e1273f41461087657806359c3bed214610a245780635c975abb14610ae75780636b20c45414610b1657610180565b80632f2ff15d146107a957806336568abe146108045780633f4ba83a1461085f57610180565b8062fdd58e1461018557806301ffc9a7146101f45780630e89341c146102665780631f7fdffa1461031a578063248a9ca31461052a5780632eb2c2d614610579575b600080fd5b34801561019157600080fd5b506101de600480360360408110156101a857600080fd5b81019080803573ffffffffffffffffffffffffffffffffffffffff1690602001909291908035906020019092919050505061122c565b6040518082815260200191505060405180910390f35b34801561020057600080fd5b5061024c6004803603602081101561021757600080fd5b8101908080357bffffffffffffffffffffffffffffffffffffffffffffffffffffffff1916906020019092919050505061130c565b604051808215151515815260200191505060405180910390f35b34801561027257600080fd5b5061029f6004803603602081101561028957600080fd5b8101908080359060200190929190505050611374565b6040518080602001828103825283818151815260200191508051906020019080838360005b838110156102df5780820151818401526020810190506102c4565b50505050905090810190601f16801561030c5780820380516001836020036101000a031916815260200191505b509250505060405180910390f35b34801561032657600080fd5b506105286004803603608081101561033d57600080fd5b81019080803573ffffffffffffffffffffffffffffffffffffffff1690602001909291908035906020019064010000000081111561037a57600080fd5b82018360208201111561038c57600080fd5b803590602001918460208302840111640100000000831117156103ae57600080fd5b919080806020026020016040519081016040528093929190818152602001838360200280828437600081840152601f19601f8201169050808301925050505050505091929192908035906020019064010000000081111561040e57600080fd5b82018360208201111561042057600080fd5b8035906020019184602083028401116401000000008311171561044257600080fd5b919080806020026020016040519081016040528093929190818152602001838360200280828437600081840152601f19601f820116905080830192505050505050509192919290803590602001906401000000008111156104a257600080fd5b8201836020820111156104b457600080fd5b803590602001918460018302840111640100000000831117156104d657600080fd5b91908080601f016020809104026020016040519081016040528093929190818152602001838380828437600081840152601f19601f820116905080830192505050505050509192919290505050611418565b005b34801561053657600080fd5b506105636004803603602081101561054d57600080fd5b81019080803590602001909291905050506114c5565b6040518082815260200191505060405180910390f35b34801561058557600080fd5b506107a7600480360360a081101561059c57600080fd5b81019080803573ffffffffffffffffffffffffffffffffffffffff169060200190929190803573ffffffffffffffffffffffffffffffffffffffff169060200190929190803590602001906401000000008111156105f957600080fd5b82018360208201111561060b57600080fd5b8035906020019184602083028401116401000000008311171561062d57600080fd5b919080806020026020016040519081016040528093929190818152602001838360200280828437600081840152601f19601f8201169050808301925050505050505091929192908035906020019064010000000081111561068d57600080fd5b82018360208201111561069f57600080fd5b803590602001918460208302840111640100000000831117156106c157600080fd5b919080806020026020016040519081016040528093929190818152602001838360200280828437600081840152601f19601f8201169050808301925050505050505091929192908035906020019064010000000081111561072157600080fd5b82018360208201111561073357600080fd5b8035906020019184600183028401116401000000008311171561075557600080fd5b91908080601f016020809104026020016040519081016040528093929190818152602001838380828437600081840152601f19601f8201169050808301925050505050505091929192905050506114e4565b005b3480156107b557600080fd5b50610802600480360360408110156107cc57600080fd5b8101908080359060200190929190803573ffffffffffffffffffffffffffffffffffffffff169060200190929190505050611972565b005b34801561081057600080fd5b5061085d6004803603604081101561082757600080fd5b8101908080359060200190929190803573ffffffffffffffffffffffffffffffffffffffff1690602001909291905050506119fb565b005b34801561086b57600080fd5b50610874611a94565b005b34801561088257600080fd5b506109cd6004803603604081101561089957600080fd5b81019080803590602001906401000000008111156108b657600080fd5b8201836020820111156108c857600080fd5b803590602001918460208302840111640100000000831117156108ea57600080fd5b919080806020026020016040519081016040528093929190818152602001838360200280828437600081840152601f19601f8201169050808301925050505050505091929192908035906020019064010000000081111561094a57600080fd5b82018360208201111561095c57600080fd5b8035906020019184602083028401116401000000008311171561097e57600080fd5b919080806020026020016040519081016040528093929190818152602001838360200280828437600081840152601f19601f820116905080830192505050505050509192919290505050611b39565b6040518080602001828103825283818151815260200191508051906020019060200280838360005b83811015610a105780820151818401526020810190506109f5565b505050509050019250505060405180910390f35b610ae560048036036080811015610a3a57600080fd5b81019080803573ffffffffffffffffffffffffffffffffffffffff169060200190929190803573ffffffffffffffffffffffffffffffffffffffff1690602001909291908035906020019092919080359060200190640100000000811115610aa157600080fd5b820183602082011115610ab357600080fd5b80359060200191846001830284011164010000000083111715610ad557600080fd5b9091929391929390505050611c37565b005b348015610af357600080fd5b50610afc611d46565b604051808215151515815260200191505060405180910390f35b348015610b2257600080fd5b50610c8d60048036036060811015610b3957600080fd5b81019080803573ffffffffffffffffffffffffffffffffffffffff16906020019092919080359060200190640100000000811115610b7657600080fd5b820183602082011115610b8857600080fd5b80359060200191846020830284011164010000000083111715610baa57600080fd5b919080806020026020016040519081016040528093929190818152602001838360200280828437600081840152601f19601f82011690508083019250505050505050919291929080359060200190640100000000811115610c0a57600080fd5b820183602082011115610c1c57600080fd5b80359060200191846020830284011164010000000083111715610c3e57600080fd5b919080806020026020016040519081016040528093929190818152602001838360200280828437600081840152601f19601f820116905080830192505050505050509192919290505050611d5d565b005b348015610c9b57600080fd5b50610d8960048036036080811015610cb257600080fd5b81019080803573ffffffffffffffffffffffffffffffffffffffff169060200190929190803590602001909291908035906020019092919080359060200190640100000000811115610d0357600080fd5b820183602082011115610d1557600080fd5b80359060200191846001830284011164010000000083111715610d3757600080fd5b91908080601f016020809104026020016040519081016040528093929190818152602001838380828437600081840152601f19601f820116905080830192505050505050509192919290505050611e10565b005b348015610d9757600080fd5b50610da0611ebd565b005b348015610dae57600080fd5b50610de560048036036040811015610dc557600080fd5b810190808035906020019092919080359060200190929190505050611f62565b604051808273ffffffffffffffffffffffffffffffffffffffff1673ffffffffffffffffffffffffffffffffffffffff16815260200191505060405180910390f35b348015610e3357600080fd5b50610e8060048036036040811015610e4a57600080fd5b8101908080359060200190929190803573ffffffffffffffffffffffffffffffffffffffff169060200190929190505050611f93565b604051808215151515815260200191505060405180910390f35b348015610ea657600080fd5b50610eaf611fc4565b6040518082815260200191505060405180910390f35b348015610ed157600080fd5b50610f2060048036036040811015610ee857600080fd5b81019080803573ffffffffffffffffffffffffffffffffffffffff169060200190929190803515159060200190929190505050611fcb565b005b348015610f2e57600080fd5b50610f5b60048036036020811015610f4557600080fd5b8101908080359060200190929190505050612166565b6040518082815260200191505060405180910390f35b348015610f7d57600080fd5b50610f8661218c565b6040518082815260200191505060405180910390f35b348015610fa857600080fd5b50610ff560048036036040811015610fbf57600080fd5b8101908080359060200190929190803573ffffffffffffffffffffffffffffffffffffffff1690602001909291905050506121c5565b005b34801561100357600080fd5b5061100c61224e565b6040518082815260200191505060405180910390f35b34801561102e57600080fd5b506110916004803603604081101561104557600080fd5b81019080803573ffffffffffffffffffffffffffffffffffffffff169060200190929190803573ffffffffffffffffffffffffffffffffffffffff169060200190929190505050612287565b604051808215151515815260200191505060405180910390f35b3480156110b757600080fd5b506111c5600480360360a08110156110ce57600080fd5b81019080803573ffffffffffffffffffffffffffffffffffffffff169060200190929190803573ffffffffffffffffffffffffffffffffffffffff16906020019092919080359060200190929190803590602001909291908035906020019064010000000081111561113f57600080fd5b82018360208201111561115157600080fd5b8035906020019184600183028401116401000000008311171561117357600080fd5b91908080601f016020809104026020016040519081016040528093929190818152602001838380828437600081840152601f19601f82011690508083019250505050505050919291929050505061231b565b005b3480156111d357600080fd5b5061122a600480360360608110156111ea57600080fd5b81019080803573ffffffffffffffffffffffffffffffffffffffff1690602001909291908035906020019092919080359060200190929190505050612690565b005b60008073ffffffffffffffffffffffffffffffffffffffff168373ffffffffffffffffffffffffffffffffffffffff1614156112b3576040517f08c379a000000000000000000000000000000000000000000000000000000000815260040180806020018281038252602b815260200180614320602b913960400191505060405180910390fd5b6002600083815260200190815260200160002060008473ffffffffffffffffffffffffffffffffffffffff1673ffffffffffffffffffffffffffffffffffffffff16815260200190815260200160002054905092915050565b600060016000837bffffffffffffffffffffffffffffffffffffffffffffffffffffffff19167bffffffffffffffffffffffffffffffffffffffffffffffffffffffff1916815260200190815260200160002060009054906101000a900460ff169050919050565b606060048054600181600116156101000203166002900480601f01602080910402602001604051908101604052809291908181526020018280546001816001161561010002031660029004801561140c5780601f106113e15761010080835404028352916020019161140c565b820191906000526020600020905b8154815290600101906020018083116113ef57829003601f168201915b50505050509050919050565b61145e60405180807f4d494e5445525f524f4c45000000000000000000000000000000000000000000815250600b0190506040518091039020611459612743565b611f93565b6114b3576040517f08c379a00000000000000000000000000000000000000000000000000000000081526004018080602001828103825260388152602001806144926038913960400191505060405180910390fd5b6114bf8484848461274b565b50505050565b6000806000838152602001908152602001600020600201549050919050565b815183511461153e576040517f08c379a00000000000000000000000000000000000000000000000000000000081526004018080602001828103825260288152602001806145ba6028913960400191505060405180910390fd5b600073ffffffffffffffffffffffffffffffffffffffff168473ffffffffffffffffffffffffffffffffffffffff1614156115c4576040517f08c379a00000000000000000000000000000000000000000000000000000000081526004018080602001828103825260258152602001806144186025913960400191505060405180910390fd5b6115cc612743565b73ffffffffffffffffffffffffffffffffffffffff168573ffffffffffffffffffffffffffffffffffffffff16148061161257506116118561160c612743565b612287565b5b611667576040517f08c379a000000000000000000000000000000000000000000000000000000000815260040180806020018281038252603281526020018061443d6032913960400191505060405180910390fd5b6000611671612743565b9050611681818787878787612a70565b60008090505b845181101561185557600085828151811061169e57fe5b6020026020010151905060008583815181106116b657fe5b6020026020010151905061173d816040518060600160405280602a81526020016144ca602a91396002600086815260200190815260200160002060008d73ffffffffffffffffffffffffffffffffffffffff1673ffffffffffffffffffffffffffffffffffffffff16815260200190815260200160002054612a869092919063ffffffff16565b6002600084815260200190815260200160002060008b73ffffffffffffffffffffffffffffffffffffffff1673ffffffffffffffffffffffffffffffffffffffff168152602001908152602001600020819055506117f4816002600085815260200190815260200160002060008b73ffffffffffffffffffffffffffffffffffffffff1673ffffffffffffffffffffffffffffffffffffffff16815260200190815260200160002054612b4090919063ffffffff16565b6002600084815260200190815260200160002060008a73ffffffffffffffffffffffffffffffffffffffff1673ffffffffffffffffffffffffffffffffffffffff168152602001908152602001600020819055505050806001019050611687565b508473ffffffffffffffffffffffffffffffffffffffff168673ffffffffffffffffffffffffffffffffffffffff168273ffffffffffffffffffffffffffffffffffffffff167f4a39dc06d4c0dbc64b70af90fd698a233a518aa5d07e595d983b8c0526c8f7fb8787604051808060200180602001838103835285818151815260200191508051906020019060200280838360005b838110156119055780820151818401526020810190506118ea565b50505050905001838103825284818151815260200191508051906020019060200280838360005b8381101561194757808201518184015260208101905061192c565b5050505090500194505050505060405180910390a461196a818787878787612bc8565b505050505050565b61199860008084815260200190815260200160002060020154611993612743565b611f93565b6119ed576040517f08c379a000000000000000000000000000000000000000000000000000000000815260040180806020018281038252602f8152602001806142f1602f913960400191505060405180910390fd5b6119f78282613040565b5050565b611a03612743565b73ffffffffffffffffffffffffffffffffffffffff168173ffffffffffffffffffffffffffffffffffffffff1614611a86576040517f08c379a000000000000000000000000000000000000000000000000000000000815260040180806020018281038252602f815260200180614603602f913960400191505060405180910390fd5b611a9082826130d3565b5050565b611ada60405180807f5041555345525f524f4c45000000000000000000000000000000000000000000815250600b0190506040518091039020611ad5612743565b611f93565b611b2f576040517f08c379a000000000000000000000000000000000000000000000000000000000815260040180806020018281038252603b8152602001806144f4603b913960400191505060405180910390fd5b611b37613166565b565b60608151835114611b95576040517f08c379a00000000000000000000000000000000000000000000000000000000081526004018080602001828103825260298152602001806145916029913960400191505060405180910390fd5b60608351604051908082528060200260200182016040528015611bc75781602001602082028036833780820191505090505b50905060008090505b8451811015611c2c57611c09858281518110611be857fe5b6020026020010151858381518110611bfc57fe5b602002602001015161122c565b828281518110611c1557fe5b602002602001018181525050806001019050611bd0565b508091505092915050565b6000831180611c5257506001611c50336001860361122c565b145b611c5b57600080fd5b600073ffffffffffffffffffffffffffffffffffffffff168473ffffffffffffffffffffffffffffffffffffffff161415611ce1576040517f08c379a00000000000000000000000000000000000000000000000000000000081526004018080602001828103825260248152602001806143c46024913960400191505060405180910390fd5b6000611ceb612743565b9050611d3e8585600186868080601f016020809104026020016040519081016040528093929190818152602001838380828437600081840152601f19601f82011690508083019250505050505050613267565b505050505050565b6000600560009054906101000a900460ff16905090565b611d65612743565b73ffffffffffffffffffffffffffffffffffffffff168373ffffffffffffffffffffffffffffffffffffffff161480611dab5750611daa83611da5612743565b612287565b5b611e00576040517f08c379a000000000000000000000000000000000000000000000000000000000815260040180806020018281038252602981526020018061439b6029913960400191505060405180910390fd5b611e0b83838361346a565b505050565b611e5660405180807f4d494e5445525f524f4c45000000000000000000000000000000000000000000815250600b0190506040518091039020611e51612743565b611f93565b611eab576040517f08c379a00000000000000000000000000000000000000000000000000000000081526004018080602001828103825260388152602001806144926038913960400191505060405180910390fd5b611eb784848484613267565b50505050565b611f0360405180807f5041555345525f524f4c45000000000000000000000000000000000000000000815250600b0190506040518091039020611efe612743565b611f93565b611f58576040517f08c379a000000000000000000000000000000000000000000000000000000000815260040180806020018281038252603981526020018061452f6039913960400191505060405180910390fd5b611f606137a8565b565b6000611f8b826000808681526020019081526020016000206000016138aa90919063ffffffff16565b905092915050565b6000611fbc826000808681526020019081526020016000206000016138c490919063ffffffff16565b905092915050565b6000801b81565b8173ffffffffffffffffffffffffffffffffffffffff16611fea612743565b73ffffffffffffffffffffffffffffffffffffffff161415612057576040517f08c379a00000000000000000000000000000000000000000000000000000000081526004018080602001828103825260298152602001806145686029913960400191505060405180910390fd5b8060036000612064612743565b73ffffffffffffffffffffffffffffffffffffffff1673ffffffffffffffffffffffffffffffffffffffff16815260200190815260200160002060008473ffffffffffffffffffffffffffffffffffffffff1673ffffffffffffffffffffffffffffffffffffffff16815260200190815260200160002060006101000a81548160ff0219169083151502179055508173ffffffffffffffffffffffffffffffffffffffff16612111612743565b73ffffffffffffffffffffffffffffffffffffffff167f17307eab39ab6107e8899845ad3d59bd9653f200f220920489ca2b5937696c3183604051808215151515815260200191505060405180910390a35050565b60006121856000808481526020019081526020016000206000016138f4565b9050919050565b60405180807f4d494e5445525f524f4c45000000000000000000000000000000000000000000815250600b019050604051809103902081565b6121eb600080848152602001908152602001600020600201546121e6612743565b611f93565b612240576040517f08c379a00000000000000000000000000000000000000000000000000000000081526004018080602001828103825260308152602001806143e86030913960400191505060405180910390fd5b61224a82826130d3565b5050565b60405180807f5041555345525f524f4c45000000000000000000000000000000000000000000815250600b019050604051809103902081565b6000600360008473ffffffffffffffffffffffffffffffffffffffff1673ffffffffffffffffffffffffffffffffffffffff16815260200190815260200160002060008373ffffffffffffffffffffffffffffffffffffffff1673ffffffffffffffffffffffffffffffffffffffff16815260200190815260200160002060009054906101000a900460ff16905092915050565b600073ffffffffffffffffffffffffffffffffffffffff168473ffffffffffffffffffffffffffffffffffffffff1614156123a1576040517f08c379a00000000000000000000000000000000000000000000000000000000081526004018080602001828103825260258152602001806144186025913960400191505060405180910390fd5b6123a9612743565b73ffffffffffffffffffffffffffffffffffffffff168573ffffffffffffffffffffffffffffffffffffffff1614806123ef57506123ee856123e9612743565b612287565b5b612444576040517f08c379a000000000000000000000000000000000000000000000000000000000815260040180806020018281038252602981526020018061439b6029913960400191505060405180910390fd5b600061244e612743565b905061246e81878761245f88613909565b61246888613909565b87612a70565b6124eb836040518060600160405280602a81526020016144ca602a91396002600088815260200190815260200160002060008a73ffffffffffffffffffffffffffffffffffffffff1673ffffffffffffffffffffffffffffffffffffffff16815260200190815260200160002054612a869092919063ffffffff16565b6002600086815260200190815260200160002060008873ffffffffffffffffffffffffffffffffffffffff1673ffffffffffffffffffffffffffffffffffffffff168152602001908152602001600020819055506125a2836002600087815260200190815260200160002060008873ffffffffffffffffffffffffffffffffffffffff1673ffffffffffffffffffffffffffffffffffffffff16815260200190815260200160002054612b4090919063ffffffff16565b6002600086815260200190815260200160002060008773ffffffffffffffffffffffffffffffffffffffff1673ffffffffffffffffffffffffffffffffffffffff168152602001908152602001600020819055508473ffffffffffffffffffffffffffffffffffffffff168673ffffffffffffffffffffffffffffffffffffffff168273ffffffffffffffffffffffffffffffffffffffff167fc3d58168c5ae7397731d063d5bbf3d657854427343f4c083240f7aacaa2d0f628787604051808381526020018281526020019250505060405180910390a4612688818787878787613962565b505050505050565b612698612743565b73ffffffffffffffffffffffffffffffffffffffff168373ffffffffffffffffffffffffffffffffffffffff1614806126de57506126dd836126d8612743565b612287565b5b612733576040517f08c379a000000000000000000000000000000000000000000000000000000000815260040180806020018281038252602981526020018061439b6029913960400191505060405180910390fd5b61273e838383613d58565b505050565b600033905090565b600073ffffffffffffffffffffffffffffffffffffffff168473ffffffffffffffffffffffffffffffffffffffff1614156127d1576040517f08c379a00000000000000000000000000000000000000000000000000000000081526004018080602001828103825260218152602001806145e26021913960400191505060405180910390fd5b815183511461282b576040517f08c379a00000000000000000000000000000000000000000000000000000000081526004018080602001828103825260288152602001806145ba6028913960400191505060405180910390fd5b6000612835612743565b905061284681600087878787612a70565b60008090505b8451811015612952576128de6002600087848151811061286857fe5b6020026020010151815260200190815260200160002060008873ffffffffffffffffffffffffffffffffffffffff1673ffffffffffffffffffffffffffffffffffffffff168152602001908152602001600020548583815181106128c857fe5b6020026020010151612b4090919063ffffffff16565b600260008784815181106128ee57fe5b6020026020010151815260200190815260200160002060008873ffffffffffffffffffffffffffffffffffffffff1673ffffffffffffffffffffffffffffffffffffffff16815260200190815260200160002081905550808060010191505061284c565b508473ffffffffffffffffffffffffffffffffffffffff16600073ffffffffffffffffffffffffffffffffffffffff168273ffffffffffffffffffffffffffffffffffffffff167f4a39dc06d4c0dbc64b70af90fd698a233a518aa5d07e595d983b8c0526c8f7fb8787604051808060200180602001838103835285818151815260200191508051906020019060200280838360005b83811015612a035780820151818401526020810190506129e8565b50505050905001838103825284818151815260200191508051906020019060200280838360005b83811015612a45578082015181840152602081019050612a2a565b5050505090500194505050505060405180910390a4612a6981600087878787612bc8565b5050505050565b612a7e868686868686613f74565b505050505050565b6000838311158290612b33576040517f08c379a00000000000000000000000000000000000000000000000000000000081526004018080602001828103825283818151815260200191508051906020019080838360005b83811015612af8578082015181840152602081019050612add565b50505050905090810190601f168015612b255780820380516001836020036101000a031916815260200191505b509250505060405180910390fd5b5082840390509392505050565b600080828401905083811015612bbe576040517f08c379a000000000000000000000000000000000000000000000000000000000815260040180806020018281038252601b8152602001807f536166654d6174683a206164646974696f6e206f766572666c6f77000000000081525060200191505060405180910390fd5b8091505092915050565b612be78473ffffffffffffffffffffffffffffffffffffffff16613fe8565b15613038578373ffffffffffffffffffffffffffffffffffffffff1663bc197c8187878686866040518663ffffffff1660e01b8152600401808673ffffffffffffffffffffffffffffffffffffffff1673ffffffffffffffffffffffffffffffffffffffff1681526020018573ffffffffffffffffffffffffffffffffffffffff1673ffffffffffffffffffffffffffffffffffffffff168152602001806020018060200180602001848103845287818151815260200191508051906020019060200280838360005b83811015612ccb578082015181840152602081019050612cb0565b50505050905001848103835286818151815260200191508051906020019060200280838360005b83811015612d0d578082015181840152602081019050612cf2565b50505050905001848103825285818151815260200191508051906020019080838360005b83811015612d4c578082015181840152602081019050612d31565b50505050905090810190601f168015612d795780820380516001836020036101000a031916815260200191505b5098505050505050505050602060405180830381600087803b158015612d9e57600080fd5b505af1925050508015612dd257506040513d6020811015612dbe57600080fd5b810190808051906020019092919050505060015b612f99576000604051905060008152600115612e9b5760443d1015612dfa5760009050612e9b565b60046000803e60005160e01c6308c379a08114612e1b576000915050612e9b565b60043d036004833e81513d602482011167ffffffffffffffff82111715612e4757600092505050612e9b565b808301805167ffffffffffffffff811115612e69576000945050505050612e9b565b8060208301013d8601811115612e8757600095505050505050612e9b565b601f19601f82011660405282955050505050505b80612ea65750612f48565b806040517f08c379a00000000000000000000000000000000000000000000000000000000081526004018080602001828103825283818151815260200191508051906020019080838360005b83811015612f0d578082015181840152602081019050612ef2565b50505050905090810190601f168015612f3a5780820380516001836020036101000a031916815260200191505b509250505060405180910390fd5b6040517f08c379a00000000000000000000000000000000000000000000000000000000081526004018080602001828103825260348152602001806142736034913960400191505060405180910390fd5b63bc197c8160e01b7bffffffffffffffffffffffffffffffffffffffffffffffffffffffff1916817bffffffffffffffffffffffffffffffffffffffffffffffffffffffff191614613036576040517f08c379a00000000000000000000000000000000000000000000000000000000081526004018080602001828103825260288152602001806142c96028913960400191505060405180910390fd5b505b505050505050565b61306781600080858152602001908152602001600020600001613ffb90919063ffffffff16565b156130cf57613074612743565b73ffffffffffffffffffffffffffffffffffffffff168173ffffffffffffffffffffffffffffffffffffffff16837f2f8788117e7eff1d82e926ec794901d17c78024a50270940304540a733656f0d60405160405180910390a45b5050565b6130fa8160008085815260200190815260200160002060000161402b90919063ffffffff16565b1561316257613107612743565b73ffffffffffffffffffffffffffffffffffffffff168173ffffffffffffffffffffffffffffffffffffffff16837ff6391f5c32d9c69d2a47ea670b442974b53935d1edc7fd64eb21e047a839171b60405160405180910390a45b5050565b61316e611d46565b6131e0576040517f08c379a00000000000000000000000000000000000000000000000000000000081526004018080602001828103825260148152602001807f5061757361626c653a206e6f742070617573656400000000000000000000000081525060200191505060405180910390fd5b6000600560006101000a81548160ff0219169083151502179055507f5db9ee0a495bf2e6ff9c91a7834c1ba4fdd244a5e8aa4e537bd38aeae4b073aa613224612743565b604051808273ffffffffffffffffffffffffffffffffffffffff1673ffffffffffffffffffffffffffffffffffffffff16815260200191505060405180910390a1565b600073ffffffffffffffffffffffffffffffffffffffff168473ffffffffffffffffffffffffffffffffffffffff1614156132ed576040517f08c379a00000000000000000000000000000000000000000000000000000000081526004018080602001828103825260218152602001806145e26021913960400191505060405180910390fd5b60006132f7612743565b90506133188160008761330988613909565b61331288613909565b87612a70565b61337b836002600087815260200190815260200160002060008873ffffffffffffffffffffffffffffffffffffffff1673ffffffffffffffffffffffffffffffffffffffff16815260200190815260200160002054612b4090919063ffffffff16565b6002600086815260200190815260200160002060008773ffffffffffffffffffffffffffffffffffffffff1673ffffffffffffffffffffffffffffffffffffffff168152602001908152602001600020819055508473ffffffffffffffffffffffffffffffffffffffff16600073ffffffffffffffffffffffffffffffffffffffff168273ffffffffffffffffffffffffffffffffffffffff167fc3d58168c5ae7397731d063d5bbf3d657854427343f4c083240f7aacaa2d0f628787604051808381526020018281526020019250505060405180910390a461346381600087878787613962565b5050505050565b600073ffffffffffffffffffffffffffffffffffffffff168373ffffffffffffffffffffffffffffffffffffffff1614156134f0576040517f08c379a000000000000000000000000000000000000000000000000000000000815260040180806020018281038252602381526020018061446f6023913960400191505060405180910390fd5b805182511461354a576040517f08c379a00000000000000000000000000000000000000000000000000000000081526004018080602001828103825260288152602001806145ba6028913960400191505060405180910390fd5b6000613554612743565b905061357481856000868660405180602001604052806000815250612a70565b60008090505b835181101561369a5761362683828151811061359257fe5b602002602001015160405180606001604052806024815260200161434b60249139600260008886815181106135c357fe5b6020026020010151815260200190815260200160002060008973ffffffffffffffffffffffffffffffffffffffff1673ffffffffffffffffffffffffffffffffffffffff16815260200190815260200160002054612a869092919063ffffffff16565b6002600086848151811061363657fe5b6020026020010151815260200190815260200160002060008773ffffffffffffffffffffffffffffffffffffffff1673ffffffffffffffffffffffffffffffffffffffff16815260200190815260200160002081905550808060010191505061357a565b50600073ffffffffffffffffffffffffffffffffffffffff168473ffffffffffffffffffffffffffffffffffffffff168273ffffffffffffffffffffffffffffffffffffffff167f4a39dc06d4c0dbc64b70af90fd698a233a518aa5d07e595d983b8c0526c8f7fb8686604051808060200180602001838103835285818151815260200191508051906020019060200280838360005b8381101561374b578082015181840152602081019050613730565b50505050905001838103825284818151815260200191508051906020019060200280838360005b8381101561378d578082015181840152602081019050613772565b5050505090500194505050505060405180910390a450505050565b6137b0611d46565b15613823576040517f08c379a00000000000000000000000000000000000000000000000000000000081526004018080602001828103825260108152602001807f5061757361626c653a207061757365640000000000000000000000000000000081525060200191505060405180910390fd5b6001600560006101000a81548160ff0219169083151502179055507f62e78cea01bee320cd4e420270b5ea74000d11b0c9f74754ebdbfc544b05a258613867612743565b604051808273ffffffffffffffffffffffffffffffffffffffff1673ffffffffffffffffffffffffffffffffffffffff16815260200191505060405180910390a1565b60006138b9836000018361405b565b60001c905092915050565b60006138ec836000018373ffffffffffffffffffffffffffffffffffffffff1660001b6140de565b905092915050565b600061390282600001614101565b9050919050565b606080600160405190808252806020026020018201604052801561393c5781602001602082028036833780820191505090505b509050828160008151811061394d57fe5b60200260200101818152505080915050919050565b6139818473ffffffffffffffffffffffffffffffffffffffff16613fe8565b15613d50578373ffffffffffffffffffffffffffffffffffffffff1663f23a6e6187878686866040518663ffffffff1660e01b8152600401808673ffffffffffffffffffffffffffffffffffffffff1673ffffffffffffffffffffffffffffffffffffffff1681526020018573ffffffffffffffffffffffffffffffffffffffff1673ffffffffffffffffffffffffffffffffffffffff16815260200184815260200183815260200180602001828103825283818151815260200191508051906020019080838360005b83811015613a66578082015181840152602081019050613a4b565b50505050905090810190601f168015613a935780820380516001836020036101000a031916815260200191505b509650505050505050602060405180830381600087803b158015613ab657600080fd5b505af1925050508015613aea57506040513d6020811015613ad657600080fd5b810190808051906020019092919050505060015b613cb1576000604051905060008152600115613bb35760443d1015613b125760009050613bb3565b60046000803e60005160e01c6308c379a08114613b33576000915050613bb3565b60043d036004833e81513d602482011167ffffffffffffffff82111715613b5f57600092505050613bb3565b808301805167ffffffffffffffff811115613b81576000945050505050613bb3565b8060208301013d8601811115613b9f57600095505050505050613bb3565b601f19601f82011660405282955050505050505b80613bbe5750613c60565b806040517f08c379a00000000000000000000000000000000000000000000000000000000081526004018080602001828103825283818151815260200191508051906020019080838360005b83811015613c25578082015181840152602081019050613c0a565b50505050905090810190601f168015613c525780820380516001836020036101000a031916815260200191505b509250505060405180910390fd5b6040517f08c379a00000000000000000000000000000000000000000000000000000000081526004018080602001828103825260348152602001806142736034913960400191505060405180910390fd5b63f23a6e6160e01b7bffffffffffffffffffffffffffffffffffffffffffffffffffffffff1916817bffffffffffffffffffffffffffffffffffffffffffffffffffffffff191614613d4e576040517f08c379a00000000000000000000000000000000000000000000000000000000081526004018080602001828103825260288152602001806142c96028913960400191505060405180910390fd5b505b505050505050565b600073ffffffffffffffffffffffffffffffffffffffff168373ffffffffffffffffffffffffffffffffffffffff161415613dde576040517f08c379a000000000000000000000000000000000000000000000000000000000815260040180806020018281038252602381526020018061446f6023913960400191505060405180910390fd5b6000613de8612743565b9050613e1881856000613dfa87613909565b613e0387613909565b60405180602001604052806000815250612a70565b613e958260405180606001604052806024815260200161434b602491396002600087815260200190815260200160002060008873ffffffffffffffffffffffffffffffffffffffff1673ffffffffffffffffffffffffffffffffffffffff16815260200190815260200160002054612a869092919063ffffffff16565b6002600085815260200190815260200160002060008673ffffffffffffffffffffffffffffffffffffffff1673ffffffffffffffffffffffffffffffffffffffff16815260200190815260200160002081905550600073ffffffffffffffffffffffffffffffffffffffff168473ffffffffffffffffffffffffffffffffffffffff168273ffffffffffffffffffffffffffffffffffffffff167fc3d58168c5ae7397731d063d5bbf3d657854427343f4c083240f7aacaa2d0f628686604051808381526020018281526020019250505060405180910390a450505050565b613f82868686868686614112565b613f8a611d46565b15613fe0576040517f08c379a000000000000000000000000000000000000000000000000000000000815260040180806020018281038252602c81526020018061436f602c913960400191505060405180910390fd5b505050505050565b600080823b905060008111915050919050565b6000614023836000018373ffffffffffffffffffffffffffffffffffffffff1660001b61411a565b905092915050565b6000614053836000018373ffffffffffffffffffffffffffffffffffffffff1660001b61418a565b905092915050565b6000818360000180549050116140bc576040517f08c379a00000000000000000000000000000000000000000000000000000000081526004018080602001828103825260228152602001806142a76022913960400191505060405180910390fd5b8260000182815481106140cb57fe5b9060005260206000200154905092915050565b600080836001016000848152602001908152602001600020541415905092915050565b600081600001805490509050919050565b505050505050565b600061412683836140de565b61417f578260000182908060018154018082558091505060019003906000526020600020016000909190919091505582600001805490508360010160008481526020019081526020016000208190555060019050614184565b600090505b92915050565b6000808360010160008481526020019081526020016000205490506000811461426657600060018203905060006001866000018054905003905060008660000182815481106141d557fe5b90600052602060002001549050808760000184815481106141f257fe5b906000526020600020018190555060018301876001016000838152602001908152602001600020819055508660000180548061422a57fe5b6001900381819060005260206000200160009055905586600101600087815260200190815260200160002060009055600194505050505061426c565b60009150505b9291505056fe455243313135353a207472616e7366657220746f206e6f6e2045524331313535526563656976657220696d706c656d656e746572456e756d657261626c655365743a20696e646578206f7574206f6620626f756e6473455243313135353a204552433131353552656365697665722072656a656374656420746f6b656e73416363657373436f6e74726f6c3a2073656e646572206d75737420626520616e2061646d696e20746f206772616e74455243313135353a2062616c616e636520717565727920666f7220746865207a65726f2061646472657373455243313135353a206275726e20616d6f756e7420657863656564732062616c616e6365455243313135355061757361626c653a20746f6b656e207472616e73666572207768696c6520706175736564455243313135353a2063616c6c6572206973206e6f74206f776e6572206e6f7220617070726f7665644552433939383a207472616e7366657220746f20746865207a65726f2061646472657373416363657373436f6e74726f6c3a2073656e646572206d75737420626520616e2061646d696e20746f207265766f6b65455243313135353a207472616e7366657220746f20746865207a65726f2061646472657373455243313135353a207472616e736665722063616c6c6572206973206e6f74206f776e6572206e6f7220617070726f766564455243313135353a206275726e2066726f6d20746865207a65726f2061646472657373455243313135355072657365744d696e7465725061757365723a206d7573742068617665206d696e74657220726f6c6520746f206d696e74455243313135353a20696e73756666696369656e742062616c616e636520666f72207472616e73666572455243313135355072657365744d696e7465725061757365723a206d75737420686176652070617573657220726f6c6520746f20756e7061757365455243313135355072657365744d696e7465725061757365723a206d75737420686176652070617573657220726f6c6520746f207061757365455243313135353a2073657474696e6720617070726f76616c2073746174757320666f722073656c66455243313135353a206163636f756e747320616e6420696473206c656e677468206d69736d61746368455243313135353a2069647320616e6420616d6f756e7473206c656e677468206d69736d61746368455243313135353a206d696e7420746f20746865207a65726f2061646472657373416363657373436f6e74726f6c3a2063616e206f6e6c792072656e6f756e636520726f6c657320666f722073656c66a26469706673582212208b4ffe677d2f4760ba4e3de84a858044697ae5872d9d1fadde7e8309d13103c664736f6c63430006030033",
  "source": "// SPDX-License-Identifier: UNLICENSED\npragma solidity ^0.6.0;\n///@dev handle Batch receiving function - !!!!\n\n/// @notice create tier supply and attach to composable\nimport \"@openzeppelin/contracts/presets/ERC1155PresetMinterPauser.sol\";\nimport \"@openzeppelin/contracts/token/ERC1155/IERC1155Receiver.sol\";\nimport \"@openzeppelin/contracts/token/ERC1155/ERC1155Holder.sol\";\n\n/*\n    erc1155.mint(admin, multiTokenTier0, multiTokenMaxSuply, \"0x\");\n    erc1155.safeTransferFrom(admin, erc998.address, multiTokenTier0, 1, web3.utils.encodePacked(composable1));\n\n*/\ncontract ERC1155TierUpgradePresetMinterPauser is ERC1155PresetMinterPauser {\n    bytes4 internal constant ERC1155_ACCEPTED = 0xf23a6e61; // bytes4(keccak256(\"onERC1155Received(address,address,uint256,uint256,bytes)\"))\n    bytes4 internal constant ERC1155_BATCH_ACCEPTED = 0xbc197c81; // bytes4(keccak256(\"onERC1155BatchReceived(address,address,uint256[],uint256[],bytes)\"))\n\n    constructor(string memory tierUri)\n        public\n        ERC1155PresetMinterPauser(tierUri)\n    {}\n\n    // function _mintTier(CSNFTContract csnftContract, uint tierId, bytes data ) private {\n    //     uint256 amt = 1;\n    //     _mint(csnftContract.address, tierId,1, data);\n    // }\n\n    function upgradeSNFT(\n        address from, // where the tier is being trnsfered from\n        address csnftContract,\n        uint256 tierId,\n        bytes calldata data // web3.utils.encodePacked(composableId)\n    ) external payable {\n        //add tier checks\n\n        require(tierId > 0 || balanceOf(msg.sender, tierId - 1) == 1);\n\n        // 0 address\n        require(\n            csnftContract != address(0),\n            \"ERC998: transfer to the zero address\"\n        );\n        // caller  of composable is owner of composable or is approved to transfer composable ,\n        address operator = _msgSender();\n\n        _mint(csnftContract, tierId, 1, data);\n    }\n}\n",
  "sourcePath": "/home/waverune/respct-club/ERC998ERC1155/contracts/ERC1155TierUpgradePresetMinterPauser.sol",
  "compiler": {
    "name": "solc",
    "version": "0.6.3+commit.8dda9521.Emscripten.clang"
  },
  "schemaVersion": "3.4.1",
  "updatedAt": "2022-03-11T15:34:56.025Z",
  "devdoc": {
    "methods": {
      "balanceOf(address,uint256)": {
        "details": "See {IERC1155-balanceOf}.     * Requirements:     * - `account` cannot be the zero address."
      },
      "balanceOfBatch(address[],uint256[])": {
        "details": "See {IERC1155-balanceOfBatch}.     * Requirements:     * - `accounts` and `ids` must have the same length."
      },
      "getRoleAdmin(bytes32)": {
        "details": "Returns the admin role that controls `role`. See {grantRole} and {revokeRole}.     * To change a role's admin, use {_setRoleAdmin}."
      },
      "getRoleMember(bytes32,uint256)": {
        "details": "Returns one of the accounts that have `role`. `index` must be a value between 0 and {getRoleMemberCount}, non-inclusive.     * Role bearers are not sorted in any particular way, and their ordering may change at any point.     * WARNING: When using {getRoleMember} and {getRoleMemberCount}, make sure you perform all queries on the same block. See the following https://forum.openzeppelin.com/t/iterating-over-elements-on-enumerableset-in-openzeppelin-contracts/2296[forum post] for more information."
      },
      "getRoleMemberCount(bytes32)": {
        "details": "Returns the number of accounts that have `role`. Can be used together with {getRoleMember} to enumerate all bearers of a role."
      },
      "grantRole(bytes32,address)": {
        "details": "Grants `role` to `account`.     * If `account` had not been already granted `role`, emits a {RoleGranted} event.     * Requirements:     * - the caller must have ``role``'s admin role."
      },
      "hasRole(bytes32,address)": {
        "details": "Returns `true` if `account` has been granted `role`."
      },
      "isApprovedForAll(address,address)": {
        "details": "See {IERC1155-isApprovedForAll}."
      },
      "mint(address,uint256,uint256,bytes)": {
        "details": "Creates `amount` new tokens for `to`, of token type `id`.     * See {ERC1155-_mint}.     * Requirements:     * - the caller must have the `MINTER_ROLE`."
      },
      "mintBatch(address,uint256[],uint256[],bytes)": {
        "details": "xref:ROOT:erc1155.adoc#batch-operations[Batched] variant of {mint}."
      },
      "pause()": {
        "details": "Pauses all token transfers.     * See {ERC1155Pausable} and {Pausable-_pause}.     * Requirements:     * - the caller must have the `PAUSER_ROLE`."
      },
      "paused()": {
        "details": "Returns true if the contract is paused, and false otherwise."
      },
      "renounceRole(bytes32,address)": {
        "details": "Revokes `role` from the calling account.     * Roles are often managed via {grantRole} and {revokeRole}: this function's purpose is to provide a mechanism for accounts to lose their privileges if they are compromised (such as when a trusted device is misplaced).     * If the calling account had been granted `role`, emits a {RoleRevoked} event.     * Requirements:     * - the caller must be `account`."
      },
      "revokeRole(bytes32,address)": {
        "details": "Revokes `role` from `account`.     * If `account` had been granted `role`, emits a {RoleRevoked} event.     * Requirements:     * - the caller must have ``role``'s admin role."
      },
      "safeBatchTransferFrom(address,address,uint256[],uint256[],bytes)": {
        "details": "See {IERC1155-safeBatchTransferFrom}."
      },
      "safeTransferFrom(address,address,uint256,uint256,bytes)": {
        "details": "See {IERC1155-safeTransferFrom}."
      },
      "setApprovalForAll(address,bool)": {
        "details": "See {IERC1155-setApprovalForAll}."
      },
      "supportsInterface(bytes4)": {
        "details": "See {IERC165-supportsInterface}.     * Time complexity O(1), guaranteed to always use less than 30 000 gas."
      },
      "unpause()": {
        "details": "Unpauses all token transfers.     * See {ERC1155Pausable} and {Pausable-_unpause}.     * Requirements:     * - the caller must have the `PAUSER_ROLE`."
      },
      "uri(uint256)": {
        "details": "See {IERC1155MetadataURI-uri}.     * This implementation returns the same URI for *all* token types. It relies on the token type ID substitution mechanism https://eips.ethereum.org/EIPS/eip-1155#metadata[defined in the EIP].     * Clients calling this function must replace the `\\{id\\}` substring with the actual token type ID."
      }
    }
  },
  "userdoc": {
    "methods": {}
  }
}