{
  "contractName": "ERC1155TierUpgradePresetMinterPauser",
  "abi": [
    {
      "inputs": [
        {
          "internalType": "string",
          "name": "_name",
          "type": "string"
        },
        {
          "internalType": "string",
          "name": "_symbol",
          "type": "string"
        },
        {
          "internalType": "string",
          "name": "_baseURI",
          "type": "string"
        },
        {
          "internalType": "uint256",
          "name": "_csnftBasePrice",
          "type": "uint256"
        },
        {
          "internalType": "string",
          "name": "tierUri",
          "type": "string"
        }
      ],
      "stateMutability": "nonpayable",
      "type": "constructor"
    },
    {
      "anonymous": false,
      "inputs": [
        {
          "indexed": true,
          "internalType": "address",
          "name": "account",
          "type": "address"
        },
        {
          "indexed": true,
          "internalType": "address",
          "name": "operator",
          "type": "address"
        },
        {
          "indexed": false,
          "internalType": "bool",
          "name": "approved",
          "type": "bool"
        }
      ],
      "name": "ApprovalForAll",
      "type": "event"
    },
    {
      "anonymous": false,
      "inputs": [
        {
          "indexed": false,
          "internalType": "address",
          "name": "account",
          "type": "address"
        }
      ],
      "name": "Paused",
      "type": "event"
    },
    {
      "anonymous": false,
      "inputs": [
        {
          "indexed": true,
          "internalType": "bytes32",
          "name": "role",
          "type": "bytes32"
        },
        {
          "indexed": true,
          "internalType": "bytes32",
          "name": "previousAdminRole",
          "type": "bytes32"
        },
        {
          "indexed": true,
          "internalType": "bytes32",
          "name": "newAdminRole",
          "type": "bytes32"
        }
      ],
      "name": "RoleAdminChanged",
      "type": "event"
    },
    {
      "anonymous": false,
      "inputs": [
        {
          "indexed": true,
          "internalType": "bytes32",
          "name": "role",
          "type": "bytes32"
        },
        {
          "indexed": true,
          "internalType": "address",
          "name": "account",
          "type": "address"
        },
        {
          "indexed": true,
          "internalType": "address",
          "name": "sender",
          "type": "address"
        }
      ],
      "name": "RoleGranted",
      "type": "event"
    },
    {
      "anonymous": false,
      "inputs": [
        {
          "indexed": true,
          "internalType": "bytes32",
          "name": "role",
          "type": "bytes32"
        },
        {
          "indexed": true,
          "internalType": "address",
          "name": "account",
          "type": "address"
        },
        {
          "indexed": true,
          "internalType": "address",
          "name": "sender",
          "type": "address"
        }
      ],
      "name": "RoleRevoked",
      "type": "event"
    },
    {
      "anonymous": false,
      "inputs": [
        {
          "indexed": true,
          "internalType": "address",
          "name": "operator",
          "type": "address"
        },
        {
          "indexed": true,
          "internalType": "address",
          "name": "from",
          "type": "address"
        },
        {
          "indexed": true,
          "internalType": "address",
          "name": "to",
          "type": "address"
        },
        {
          "indexed": false,
          "internalType": "uint256[]",
          "name": "ids",
          "type": "uint256[]"
        },
        {
          "indexed": false,
          "internalType": "uint256[]",
          "name": "values",
          "type": "uint256[]"
        }
      ],
      "name": "TransferBatch",
      "type": "event"
    },
    {
      "anonymous": false,
      "inputs": [
        {
          "indexed": true,
          "internalType": "address",
          "name": "operator",
          "type": "address"
        },
        {
          "indexed": true,
          "internalType": "address",
          "name": "from",
          "type": "address"
        },
        {
          "indexed": true,
          "internalType": "address",
          "name": "to",
          "type": "address"
        },
        {
          "indexed": false,
          "internalType": "uint256",
          "name": "id",
          "type": "uint256"
        },
        {
          "indexed": false,
          "internalType": "uint256",
          "name": "value",
          "type": "uint256"
        }
      ],
      "name": "TransferSingle",
      "type": "event"
    },
    {
      "anonymous": false,
      "inputs": [
        {
          "indexed": false,
          "internalType": "string",
          "name": "value",
          "type": "string"
        },
        {
          "indexed": true,
          "internalType": "uint256",
          "name": "id",
          "type": "uint256"
        }
      ],
      "name": "URI",
      "type": "event"
    },
    {
      "anonymous": false,
      "inputs": [
        {
          "indexed": false,
          "internalType": "address",
          "name": "account",
          "type": "address"
        }
      ],
      "name": "Unpaused",
      "type": "event"
    },
    {
      "inputs": [],
      "name": "DEFAULT_ADMIN_ROLE",
      "outputs": [
        {
          "internalType": "bytes32",
          "name": "",
          "type": "bytes32"
        }
      ],
      "stateMutability": "view",
      "type": "function"
    },
    {
      "inputs": [],
      "name": "MINTER_ROLE",
      "outputs": [
        {
          "internalType": "bytes32",
          "name": "",
          "type": "bytes32"
        }
      ],
      "stateMutability": "view",
      "type": "function"
    },
    {
      "inputs": [],
      "name": "PAUSER_ROLE",
      "outputs": [
        {
          "internalType": "bytes32",
          "name": "",
          "type": "bytes32"
        }
      ],
      "stateMutability": "view",
      "type": "function"
    },
    {
      "inputs": [
        {
          "internalType": "address",
          "name": "account",
          "type": "address"
        },
        {
          "internalType": "uint256",
          "name": "id",
          "type": "uint256"
        }
      ],
      "name": "balanceOf",
      "outputs": [
        {
          "internalType": "uint256",
          "name": "",
          "type": "uint256"
        }
      ],
      "stateMutability": "view",
      "type": "function"
    },
    {
      "inputs": [
        {
          "internalType": "address[]",
          "name": "accounts",
          "type": "address[]"
        },
        {
          "internalType": "uint256[]",
          "name": "ids",
          "type": "uint256[]"
        }
      ],
      "name": "balanceOfBatch",
      "outputs": [
        {
          "internalType": "uint256[]",
          "name": "",
          "type": "uint256[]"
        }
      ],
      "stateMutability": "view",
      "type": "function"
    },
    {
      "inputs": [
        {
          "internalType": "address",
          "name": "account",
          "type": "address"
        },
        {
          "internalType": "uint256",
          "name": "id",
          "type": "uint256"
        },
        {
          "internalType": "uint256",
          "name": "value",
          "type": "uint256"
        }
      ],
      "name": "burn",
      "outputs": [],
      "stateMutability": "nonpayable",
      "type": "function"
    },
    {
      "inputs": [
        {
          "internalType": "address",
          "name": "account",
          "type": "address"
        },
        {
          "internalType": "uint256[]",
          "name": "ids",
          "type": "uint256[]"
        },
        {
          "internalType": "uint256[]",
          "name": "values",
          "type": "uint256[]"
        }
      ],
      "name": "burnBatch",
      "outputs": [],
      "stateMutability": "nonpayable",
      "type": "function"
    },
    {
      "inputs": [
        {
          "internalType": "bytes32",
          "name": "role",
          "type": "bytes32"
        }
      ],
      "name": "getRoleAdmin",
      "outputs": [
        {
          "internalType": "bytes32",
          "name": "",
          "type": "bytes32"
        }
      ],
      "stateMutability": "view",
      "type": "function"
    },
    {
      "inputs": [
        {
          "internalType": "bytes32",
          "name": "role",
          "type": "bytes32"
        },
        {
          "internalType": "uint256",
          "name": "index",
          "type": "uint256"
        }
      ],
      "name": "getRoleMember",
      "outputs": [
        {
          "internalType": "address",
          "name": "",
          "type": "address"
        }
      ],
      "stateMutability": "view",
      "type": "function"
    },
    {
      "inputs": [
        {
          "internalType": "bytes32",
          "name": "role",
          "type": "bytes32"
        }
      ],
      "name": "getRoleMemberCount",
      "outputs": [
        {
          "internalType": "uint256",
          "name": "",
          "type": "uint256"
        }
      ],
      "stateMutability": "view",
      "type": "function"
    },
    {
      "inputs": [
        {
          "internalType": "bytes32",
          "name": "role",
          "type": "bytes32"
        },
        {
          "internalType": "address",
          "name": "account",
          "type": "address"
        }
      ],
      "name": "grantRole",
      "outputs": [],
      "stateMutability": "nonpayable",
      "type": "function"
    },
    {
      "inputs": [
        {
          "internalType": "bytes32",
          "name": "role",
          "type": "bytes32"
        },
        {
          "internalType": "address",
          "name": "account",
          "type": "address"
        }
      ],
      "name": "hasRole",
      "outputs": [
        {
          "internalType": "bool",
          "name": "",
          "type": "bool"
        }
      ],
      "stateMutability": "view",
      "type": "function"
    },
    {
      "inputs": [
        {
          "internalType": "address",
          "name": "account",
          "type": "address"
        },
        {
          "internalType": "address",
          "name": "operator",
          "type": "address"
        }
      ],
      "name": "isApprovedForAll",
      "outputs": [
        {
          "internalType": "bool",
          "name": "",
          "type": "bool"
        }
      ],
      "stateMutability": "view",
      "type": "function"
    },
    {
      "inputs": [
        {
          "internalType": "address",
          "name": "to",
          "type": "address"
        },
        {
          "internalType": "uint256",
          "name": "id",
          "type": "uint256"
        },
        {
          "internalType": "uint256",
          "name": "amount",
          "type": "uint256"
        },
        {
          "internalType": "bytes",
          "name": "data",
          "type": "bytes"
        }
      ],
      "name": "mint",
      "outputs": [],
      "stateMutability": "nonpayable",
      "type": "function"
    },
    {
      "inputs": [
        {
          "internalType": "address",
          "name": "to",
          "type": "address"
        },
        {
          "internalType": "uint256[]",
          "name": "ids",
          "type": "uint256[]"
        },
        {
          "internalType": "uint256[]",
          "name": "amounts",
          "type": "uint256[]"
        },
        {
          "internalType": "bytes",
          "name": "data",
          "type": "bytes"
        }
      ],
      "name": "mintBatch",
      "outputs": [],
      "stateMutability": "nonpayable",
      "type": "function"
    },
    {
      "inputs": [],
      "name": "pause",
      "outputs": [],
      "stateMutability": "nonpayable",
      "type": "function"
    },
    {
      "inputs": [],
      "name": "paused",
      "outputs": [
        {
          "internalType": "bool",
          "name": "",
          "type": "bool"
        }
      ],
      "stateMutability": "view",
      "type": "function"
    },
    {
      "inputs": [
        {
          "internalType": "bytes32",
          "name": "role",
          "type": "bytes32"
        },
        {
          "internalType": "address",
          "name": "account",
          "type": "address"
        }
      ],
      "name": "renounceRole",
      "outputs": [],
      "stateMutability": "nonpayable",
      "type": "function"
    },
    {
      "inputs": [
        {
          "internalType": "bytes32",
          "name": "role",
          "type": "bytes32"
        },
        {
          "internalType": "address",
          "name": "account",
          "type": "address"
        }
      ],
      "name": "revokeRole",
      "outputs": [],
      "stateMutability": "nonpayable",
      "type": "function"
    },
    {
      "inputs": [
        {
          "internalType": "address",
          "name": "from",
          "type": "address"
        },
        {
          "internalType": "address",
          "name": "to",
          "type": "address"
        },
        {
          "internalType": "uint256[]",
          "name": "ids",
          "type": "uint256[]"
        },
        {
          "internalType": "uint256[]",
          "name": "amounts",
          "type": "uint256[]"
        },
        {
          "internalType": "bytes",
          "name": "data",
          "type": "bytes"
        }
      ],
      "name": "safeBatchTransferFrom",
      "outputs": [],
      "stateMutability": "nonpayable",
      "type": "function"
    },
    {
      "inputs": [
        {
          "internalType": "address",
          "name": "from",
          "type": "address"
        },
        {
          "internalType": "address",
          "name": "to",
          "type": "address"
        },
        {
          "internalType": "uint256",
          "name": "id",
          "type": "uint256"
        },
        {
          "internalType": "uint256",
          "name": "amount",
          "type": "uint256"
        },
        {
          "internalType": "bytes",
          "name": "data",
          "type": "bytes"
        }
      ],
      "name": "safeTransferFrom",
      "outputs": [],
      "stateMutability": "nonpayable",
      "type": "function"
    },
    {
      "inputs": [
        {
          "internalType": "address",
          "name": "operator",
          "type": "address"
        },
        {
          "internalType": "bool",
          "name": "approved",
          "type": "bool"
        }
      ],
      "name": "setApprovalForAll",
      "outputs": [],
      "stateMutability": "nonpayable",
      "type": "function"
    },
    {
      "inputs": [
        {
          "internalType": "bytes4",
          "name": "interfaceId",
          "type": "bytes4"
        }
      ],
      "name": "supportsInterface",
      "outputs": [
        {
          "internalType": "bool",
          "name": "",
          "type": "bool"
        }
      ],
      "stateMutability": "view",
      "type": "function"
    },
    {
      "inputs": [],
      "name": "unpause",
      "outputs": [],
      "stateMutability": "nonpayable",
      "type": "function"
    },
    {
      "inputs": [
        {
          "internalType": "uint256",
          "name": "",
          "type": "uint256"
        }
      ],
      "name": "uri",
      "outputs": [
        {
          "internalType": "string",
          "name": "",
          "type": "string"
        }
      ],
      "stateMutability": "view",
      "type": "function"
    },
    {
      "inputs": [
        {
          "internalType": "uint256",
          "name": "_composableId",
          "type": "uint256"
        },
        {
          "internalType": "uint256",
          "name": "_tierId",
          "type": "uint256"
        },
        {
          "internalType": "bytes",
          "name": "data",
          "type": "bytes"
        }
      ],
      "name": "upgradeSNFT",
      "outputs": [],
      "stateMutability": "payable",
      "type": "function"
    }
  ],
  "bytecode": "0x60806040523480156200001157600080fd5b506040516200a4783803806200a478833981810160405260a08110156200003757600080fd5b81019080805160405193929190846401000000008211156200005857600080fd5b838201915060208201858111156200006f57600080fd5b82518660018202830111640100000000821117156200008d57600080fd5b8083526020830192505050908051906020019080838360005b83811015620000c3578082015181840152602081019050620000a6565b50505050905090810190601f168015620000f15780820380516001836020036101000a031916815260200191505b50604052602001805160405193929190846401000000008211156200011557600080fd5b838201915060208201858111156200012c57600080fd5b82518660018202830111640100000000821117156200014a57600080fd5b8083526020830192505050908051906020019080838360005b838110156200018057808201518184015260208101905062000163565b50505050905090810190601f168015620001ae5780820380516001836020036101000a031916815260200191505b5060405260200180516040519392919084640100000000821115620001d257600080fd5b83820191506020820185811115620001e957600080fd5b82518660018202830111640100000000821117156200020757600080fd5b8083526020830192505050908051906020019080838360005b838110156200023d57808201518184015260208101905062000220565b50505050905090810190601f1680156200026b5780820380516001836020036101000a031916815260200191505b5060405260200180519060200190929190805160405193929190846401000000008211156200029957600080fd5b83820191506020820185811115620002b057600080fd5b8251866001820283011164010000000082111715620002ce57600080fd5b8083526020830192505050908051906020019080838360005b8381101562000304578082015181840152602081019050620002e7565b50505050905090810190601f168015620003325780820380516001836020036101000a031916815260200191505b506040525050508080620003536301ffc9a760e01b6200065360201b60201c565b62000364816200075c60201b60201c565b6200037c63d9b67a2660e01b6200065360201b60201c565b62000394630e89341c60e01b6200065360201b60201c565b506000600560006101000a81548160ff021916908315150217905550620003d46000801b620003c86200077860201b60201c565b6200078060201b60201c565b6200042a60405180807f4d494e5445525f524f4c45000000000000000000000000000000000000000000815250600b01905060405180910390206200041e6200077860201b60201c565b6200078060201b60201c565b6200048060405180807f5041555345525f524f4c45000000000000000000000000000000000000000000815250600b0190506040518091039020620004746200077860201b60201c565b6200078060201b60201c565b508484848460405162000493906200090e565b80806020018060200180602001858152602001848103845288818151815260200191508051906020019080838360005b83811015620004e0578082015181840152602081019050620004c3565b50505050905090810190601f1680156200050e5780820380516001836020036101000a031916815260200191505b50848103835287818151815260200191508051906020019080838360005b83811015620005495780820151818401526020810190506200052c565b50505050905090810190601f168015620005775780820380516001836020036101000a031916815260200191505b50848103825286818151815260200191508051906020019080838360005b83811015620005b257808201518184015260208101905062000595565b50505050905090810190601f168015620005e05780820380516001836020036101000a031916815260200191505b50975050505050505050604051809103906000f08015801562000607573d6000803e3d6000fd5b50600560016101000a81548173ffffffffffffffffffffffffffffffffffffffff021916908373ffffffffffffffffffffffffffffffffffffffff1602179055505050505050620009cb565b63ffffffff60e01b817bffffffffffffffffffffffffffffffffffffffffffffffffffffffff19161415620006f0576040517f08c379a000000000000000000000000000000000000000000000000000000000815260040180806020018281038252601c8152602001807f4552433136353a20696e76616c696420696e746572666163652069640000000081525060200191505060405180910390fd5b6001806000837bffffffffffffffffffffffffffffffffffffffffffffffffffffffff19167bffffffffffffffffffffffffffffffffffffffffffffffffffffffff1916815260200190815260200160002060006101000a81548160ff02191690831515021790555050565b8060049080519060200190620007749291906200091c565b5050565b600033905090565b6200079282826200079660201b60201c565b5050565b620007c4816000808581526020019081526020016000206000016200083960201b620040491790919060201c565b156200083557620007da6200077860201b60201c565b73ffffffffffffffffffffffffffffffffffffffff168173ffffffffffffffffffffffffffffffffffffffff16837f2f8788117e7eff1d82e926ec794901d17c78024a50270940304540a733656f0d60405160405180910390a45b5050565b600062000869836000018373ffffffffffffffffffffffffffffffffffffffff1660001b6200087160201b60201c565b905092915050565b6000620008858383620008eb60201b60201c565b620008e0578260000182908060018154018082558091505060019003906000526020600020016000909190919091505582600001805490508360010160008481526020019081526020016000208190555060019050620008e5565b600090505b92915050565b600080836001016000848152602001908152602001600020541415905092915050565b61540c806200506c83390190565b828054600181600116156101000203166002900490600052602060002090601f016020900481019282601f106200095f57805160ff191683800117855562000990565b8280016001018555821562000990579182015b828111156200098f57825182559160200191906001019062000972565b5b5090506200099f9190620009a3565b5090565b620009c891905b80821115620009c4576000816000905550600101620009aa565b5090565b90565b61469180620009db6000396000f3fe6080604052600436106101805760003560e01c80638456cb59116100d1578063d53913931161008a578063e985e9c511610064578063e985e9c514610f5f578063ef44dc6514610fe8578063f242432a14611075578063f5298aca1461119157610180565b8063d539139314610eae578063d547741f14610ed9578063e63ab1e914610f3457610180565b80638456cb5914610cc85780639010d07c14610cdf57806391d1485414610d64578063a217fddf14610dd7578063a22cb46514610e02578063ca15c87314610e5f57610180565b80632f2ff15d1161013e5780634e1273f4116101185780634e1273f4146108765780635c975abb14610a245780636b20c45414610a53578063731133e914610bcc57610180565b80632f2ff15d146107a957806336568abe146108045780633f4ba83a1461085f57610180565b8062fdd58e1461018557806301ffc9a7146101f45780630e89341c146102665780631f7fdffa1461031a578063248a9ca31461052a5780632eb2c2d614610579575b600080fd5b34801561019157600080fd5b506101de600480360360408110156101a857600080fd5b81019080803573ffffffffffffffffffffffffffffffffffffffff169060200190929190803590602001909291905050506111f6565b6040518082815260200191505060405180910390f35b34801561020057600080fd5b5061024c6004803603602081101561021757600080fd5b8101908080357bffffffffffffffffffffffffffffffffffffffffffffffffffffffff191690602001909291905050506112d6565b604051808215151515815260200191505060405180910390f35b34801561027257600080fd5b5061029f6004803603602081101561028957600080fd5b810190808035906020019092919050505061133e565b6040518080602001828103825283818151815260200191508051906020019080838360005b838110156102df5780820151818401526020810190506102c4565b50505050905090810190601f16801561030c5780820380516001836020036101000a031916815260200191505b509250505060405180910390f35b34801561032657600080fd5b506105286004803603608081101561033d57600080fd5b81019080803573ffffffffffffffffffffffffffffffffffffffff1690602001909291908035906020019064010000000081111561037a57600080fd5b82018360208201111561038c57600080fd5b803590602001918460208302840111640100000000831117156103ae57600080fd5b919080806020026020016040519081016040528093929190818152602001838360200280828437600081840152601f19601f8201169050808301925050505050505091929192908035906020019064010000000081111561040e57600080fd5b82018360208201111561042057600080fd5b8035906020019184602083028401116401000000008311171561044257600080fd5b919080806020026020016040519081016040528093929190818152602001838360200280828437600081840152601f19601f820116905080830192505050505050509192919290803590602001906401000000008111156104a257600080fd5b8201836020820111156104b457600080fd5b803590602001918460018302840111640100000000831117156104d657600080fd5b91908080601f016020809104026020016040519081016040528093929190818152602001838380828437600081840152601f19601f8201169050808301925050505050505091929192905050506113e2565b005b34801561053657600080fd5b506105636004803603602081101561054d57600080fd5b810190808035906020019092919050505061148f565b6040518082815260200191505060405180910390f35b34801561058557600080fd5b506107a7600480360360a081101561059c57600080fd5b81019080803573ffffffffffffffffffffffffffffffffffffffff169060200190929190803573ffffffffffffffffffffffffffffffffffffffff169060200190929190803590602001906401000000008111156105f957600080fd5b82018360208201111561060b57600080fd5b8035906020019184602083028401116401000000008311171561062d57600080fd5b919080806020026020016040519081016040528093929190818152602001838360200280828437600081840152601f19601f8201169050808301925050505050505091929192908035906020019064010000000081111561068d57600080fd5b82018360208201111561069f57600080fd5b803590602001918460208302840111640100000000831117156106c157600080fd5b919080806020026020016040519081016040528093929190818152602001838360200280828437600081840152601f19601f8201169050808301925050505050505091929192908035906020019064010000000081111561072157600080fd5b82018360208201111561073357600080fd5b8035906020019184600183028401116401000000008311171561075557600080fd5b91908080601f016020809104026020016040519081016040528093929190818152602001838380828437600081840152601f19601f8201169050808301925050505050505091929192905050506114ae565b005b3480156107b557600080fd5b50610802600480360360408110156107cc57600080fd5b8101908080359060200190929190803573ffffffffffffffffffffffffffffffffffffffff16906020019092919050505061193c565b005b34801561081057600080fd5b5061085d6004803603604081101561082757600080fd5b8101908080359060200190929190803573ffffffffffffffffffffffffffffffffffffffff1690602001909291905050506119c5565b005b34801561086b57600080fd5b50610874611a5e565b005b34801561088257600080fd5b506109cd6004803603604081101561089957600080fd5b81019080803590602001906401000000008111156108b657600080fd5b8201836020820111156108c857600080fd5b803590602001918460208302840111640100000000831117156108ea57600080fd5b919080806020026020016040519081016040528093929190818152602001838360200280828437600081840152601f19601f8201169050808301925050505050505091929192908035906020019064010000000081111561094a57600080fd5b82018360208201111561095c57600080fd5b8035906020019184602083028401116401000000008311171561097e57600080fd5b919080806020026020016040519081016040528093929190818152602001838360200280828437600081840152601f19601f820116905080830192505050505050509192919290505050611b03565b6040518080602001828103825283818151815260200191508051906020019060200280838360005b83811015610a105780820151818401526020810190506109f5565b505050509050019250505060405180910390f35b348015610a3057600080fd5b50610a39611c01565b604051808215151515815260200191505060405180910390f35b348015610a5f57600080fd5b50610bca60048036036060811015610a7657600080fd5b81019080803573ffffffffffffffffffffffffffffffffffffffff16906020019092919080359060200190640100000000811115610ab357600080fd5b820183602082011115610ac557600080fd5b80359060200191846020830284011164010000000083111715610ae757600080fd5b919080806020026020016040519081016040528093929190818152602001838360200280828437600081840152601f19601f82011690508083019250505050505050919291929080359060200190640100000000811115610b4757600080fd5b820183602082011115610b5957600080fd5b80359060200191846020830284011164010000000083111715610b7b57600080fd5b919080806020026020016040519081016040528093929190818152602001838360200280828437600081840152601f19601f820116905080830192505050505050509192919290505050611c18565b005b348015610bd857600080fd5b50610cc660048036036080811015610bef57600080fd5b81019080803573ffffffffffffffffffffffffffffffffffffffff169060200190929190803590602001909291908035906020019092919080359060200190640100000000811115610c4057600080fd5b820183602082011115610c5257600080fd5b80359060200191846001830284011164010000000083111715610c7457600080fd5b91908080601f016020809104026020016040519081016040528093929190818152602001838380828437600081840152601f19601f820116905080830192505050505050509192919290505050611ccb565b005b348015610cd457600080fd5b50610cdd611d78565b005b348015610ceb57600080fd5b50610d2260048036036040811015610d0257600080fd5b810190808035906020019092919080359060200190929190505050611e1d565b604051808273ffffffffffffffffffffffffffffffffffffffff1673ffffffffffffffffffffffffffffffffffffffff16815260200191505060405180910390f35b348015610d7057600080fd5b50610dbd60048036036040811015610d8757600080fd5b8101908080359060200190929190803573ffffffffffffffffffffffffffffffffffffffff169060200190929190505050611e4e565b604051808215151515815260200191505060405180910390f35b348015610de357600080fd5b50610dec611e7f565b6040518082815260200191505060405180910390f35b348015610e0e57600080fd5b50610e5d60048036036040811015610e2557600080fd5b81019080803573ffffffffffffffffffffffffffffffffffffffff169060200190929190803515159060200190929190505050611e86565b005b348015610e6b57600080fd5b50610e9860048036036020811015610e8257600080fd5b8101908080359060200190929190505050612021565b6040518082815260200191505060405180910390f35b348015610eba57600080fd5b50610ec3612047565b6040518082815260200191505060405180910390f35b348015610ee557600080fd5b50610f3260048036036040811015610efc57600080fd5b8101908080359060200190929190803573ffffffffffffffffffffffffffffffffffffffff169060200190929190505050612080565b005b348015610f4057600080fd5b50610f49612109565b6040518082815260200191505060405180910390f35b348015610f6b57600080fd5b50610fce60048036036040811015610f8257600080fd5b81019080803573ffffffffffffffffffffffffffffffffffffffff169060200190929190803573ffffffffffffffffffffffffffffffffffffffff169060200190929190505050612142565b604051808215151515815260200191505060405180910390f35b61107360048036036060811015610ffe57600080fd5b8101908080359060200190929190803590602001909291908035906020019064010000000081111561102f57600080fd5b82018360208201111561104157600080fd5b8035906020019184600183028401116401000000008311171561106357600080fd5b90919293919293905050506121d6565b005b34801561108157600080fd5b5061118f600480360360a081101561109857600080fd5b81019080803573ffffffffffffffffffffffffffffffffffffffff169060200190929190803573ffffffffffffffffffffffffffffffffffffffff16906020019092919080359060200190929190803590602001909291908035906020019064010000000081111561110957600080fd5b82018360208201111561111b57600080fd5b8035906020019184600183028401116401000000008311171561113d57600080fd5b91908080601f016020809104026020016040519081016040528093929190818152602001838380828437600081840152601f19601f820116905080830192505050505050509192919290505050612369565b005b34801561119d57600080fd5b506111f4600480360360608110156111b457600080fd5b81019080803573ffffffffffffffffffffffffffffffffffffffff16906020019092919080359060200190929190803590602001909291905050506126de565b005b60008073ffffffffffffffffffffffffffffffffffffffff168373ffffffffffffffffffffffffffffffffffffffff16141561127d576040517f08c379a000000000000000000000000000000000000000000000000000000000815260040180806020018281038252602b81526020018061436e602b913960400191505060405180910390fd5b6002600083815260200190815260200160002060008473ffffffffffffffffffffffffffffffffffffffff1673ffffffffffffffffffffffffffffffffffffffff16815260200190815260200160002054905092915050565b600060016000837bffffffffffffffffffffffffffffffffffffffffffffffffffffffff19167bffffffffffffffffffffffffffffffffffffffffffffffffffffffff1916815260200190815260200160002060009054906101000a900460ff169050919050565b606060048054600181600116156101000203166002900480601f0160208091040260200160405190810160405280929190818152602001828054600181600116156101000203166002900480156113d65780601f106113ab576101008083540402835291602001916113d6565b820191906000526020600020905b8154815290600101906020018083116113b957829003601f168201915b50505050509050919050565b61142860405180807f4d494e5445525f524f4c45000000000000000000000000000000000000000000815250600b0190506040518091039020611423612791565b611e4e565b61147d576040517f08c379a00000000000000000000000000000000000000000000000000000000081526004018080602001828103825260388152602001806144bc6038913960400191505060405180910390fd5b61148984848484612799565b50505050565b6000806000838152602001908152602001600020600201549050919050565b8151835114611508576040517f08c379a00000000000000000000000000000000000000000000000000000000081526004018080602001828103825260288152602001806145e46028913960400191505060405180910390fd5b600073ffffffffffffffffffffffffffffffffffffffff168473ffffffffffffffffffffffffffffffffffffffff16141561158e576040517f08c379a00000000000000000000000000000000000000000000000000000000081526004018080602001828103825260258152602001806144426025913960400191505060405180910390fd5b611596612791565b73ffffffffffffffffffffffffffffffffffffffff168573ffffffffffffffffffffffffffffffffffffffff1614806115dc57506115db856115d6612791565b612142565b5b611631576040517f08c379a00000000000000000000000000000000000000000000000000000000081526004018080602001828103825260328152602001806144676032913960400191505060405180910390fd5b600061163b612791565b905061164b818787878787612abe565b60008090505b845181101561181f57600085828151811061166857fe5b60200260200101519050600085838151811061168057fe5b60200260200101519050611707816040518060600160405280602a81526020016144f4602a91396002600086815260200190815260200160002060008d73ffffffffffffffffffffffffffffffffffffffff1673ffffffffffffffffffffffffffffffffffffffff16815260200190815260200160002054612ad49092919063ffffffff16565b6002600084815260200190815260200160002060008b73ffffffffffffffffffffffffffffffffffffffff1673ffffffffffffffffffffffffffffffffffffffff168152602001908152602001600020819055506117be816002600085815260200190815260200160002060008b73ffffffffffffffffffffffffffffffffffffffff1673ffffffffffffffffffffffffffffffffffffffff16815260200190815260200160002054612b8e90919063ffffffff16565b6002600084815260200190815260200160002060008a73ffffffffffffffffffffffffffffffffffffffff1673ffffffffffffffffffffffffffffffffffffffff168152602001908152602001600020819055505050806001019050611651565b508473ffffffffffffffffffffffffffffffffffffffff168673ffffffffffffffffffffffffffffffffffffffff168273ffffffffffffffffffffffffffffffffffffffff167f4a39dc06d4c0dbc64b70af90fd698a233a518aa5d07e595d983b8c0526c8f7fb8787604051808060200180602001838103835285818151815260200191508051906020019060200280838360005b838110156118cf5780820151818401526020810190506118b4565b50505050905001838103825284818151815260200191508051906020019060200280838360005b838110156119115780820151818401526020810190506118f6565b5050505090500194505050505060405180910390a4611934818787878787612c16565b505050505050565b6119626000808481526020019081526020016000206002015461195d612791565b611e4e565b6119b7576040517f08c379a000000000000000000000000000000000000000000000000000000000815260040180806020018281038252602f81526020018061433f602f913960400191505060405180910390fd5b6119c1828261308e565b5050565b6119cd612791565b73ffffffffffffffffffffffffffffffffffffffff168173ffffffffffffffffffffffffffffffffffffffff1614611a50576040517f08c379a000000000000000000000000000000000000000000000000000000000815260040180806020018281038252602f81526020018061462d602f913960400191505060405180910390fd5b611a5a8282613121565b5050565b611aa460405180807f5041555345525f524f4c45000000000000000000000000000000000000000000815250600b0190506040518091039020611a9f612791565b611e4e565b611af9576040517f08c379a000000000000000000000000000000000000000000000000000000000815260040180806020018281038252603b81526020018061451e603b913960400191505060405180910390fd5b611b016131b4565b565b60608151835114611b5f576040517f08c379a00000000000000000000000000000000000000000000000000000000081526004018080602001828103825260298152602001806145bb6029913960400191505060405180910390fd5b60608351604051908082528060200260200182016040528015611b915781602001602082028036833780820191505090505b50905060008090505b8451811015611bf657611bd3858281518110611bb257fe5b6020026020010151858381518110611bc657fe5b60200260200101516111f6565b828281518110611bdf57fe5b602002602001018181525050806001019050611b9a565b508091505092915050565b6000600560009054906101000a900460ff16905090565b611c20612791565b73ffffffffffffffffffffffffffffffffffffffff168373ffffffffffffffffffffffffffffffffffffffff161480611c665750611c6583611c60612791565b612142565b5b611cbb576040517f08c379a00000000000000000000000000000000000000000000000000000000081526004018080602001828103825260298152602001806143e96029913960400191505060405180910390fd5b611cc68383836132b5565b505050565b611d1160405180807f4d494e5445525f524f4c45000000000000000000000000000000000000000000815250600b0190506040518091039020611d0c612791565b611e4e565b611d66576040517f08c379a00000000000000000000000000000000000000000000000000000000081526004018080602001828103825260388152602001806144bc6038913960400191505060405180910390fd5b611d72848484846135f3565b50505050565b611dbe60405180807f5041555345525f524f4c45000000000000000000000000000000000000000000815250600b0190506040518091039020611db9612791565b611e4e565b611e13576040517f08c379a00000000000000000000000000000000000000000000000000000000081526004018080602001828103825260398152602001806145596039913960400191505060405180910390fd5b611e1b6137f6565b565b6000611e46826000808681526020019081526020016000206000016138f890919063ffffffff16565b905092915050565b6000611e778260008086815260200190815260200160002060000161391290919063ffffffff16565b905092915050565b6000801b81565b8173ffffffffffffffffffffffffffffffffffffffff16611ea5612791565b73ffffffffffffffffffffffffffffffffffffffff161415611f12576040517f08c379a00000000000000000000000000000000000000000000000000000000081526004018080602001828103825260298152602001806145926029913960400191505060405180910390fd5b8060036000611f1f612791565b73ffffffffffffffffffffffffffffffffffffffff1673ffffffffffffffffffffffffffffffffffffffff16815260200190815260200160002060008473ffffffffffffffffffffffffffffffffffffffff1673ffffffffffffffffffffffffffffffffffffffff16815260200190815260200160002060006101000a81548160ff0219169083151502179055508173ffffffffffffffffffffffffffffffffffffffff16611fcc612791565b73ffffffffffffffffffffffffffffffffffffffff167f17307eab39ab6107e8899845ad3d59bd9653f200f220920489ca2b5937696c3183604051808215151515815260200191505060405180910390a35050565b6000612040600080848152602001908152602001600020600001613942565b9050919050565b60405180807f4d494e5445525f524f4c45000000000000000000000000000000000000000000815250600b019050604051809103902081565b6120a6600080848152602001908152602001600020600201546120a1612791565b611e4e565b6120fb576040517f08c379a00000000000000000000000000000000000000000000000000000000081526004018080602001828103825260308152602001806144126030913960400191505060405180910390fd5b6121058282613121565b5050565b60405180807f5041555345525f524f4c45000000000000000000000000000000000000000000815250600b019050604051809103902081565b6000600360008473ffffffffffffffffffffffffffffffffffffffff1673ffffffffffffffffffffffffffffffffffffffff16815260200190815260200160002060008373ffffffffffffffffffffffffffffffffffffffff1673ffffffffffffffffffffffffffffffffffffffff16815260200190815260200160002060009054906101000a900460ff16905092915050565b6000600560019054906101000a900473ffffffffffffffffffffffffffffffffffffffff1673ffffffffffffffffffffffffffffffffffffffff166360d4d23a8630876040518463ffffffff1660e01b8152600401808481526020018373ffffffffffffffffffffffffffffffffffffffff1673ffffffffffffffffffffffffffffffffffffffff168152602001828152602001935050505060206040518083038186803b15801561228757600080fd5b505afa15801561229b573d6000803e3d6000fd5b505050506040513d60208110156122b157600080fd5b8101908080519060200190929190505050146122cc57600080fd5b60008311806122e7575060016122e533600186036111f6565b145b6122f057600080fd5b612363600560019054906101000a900473ffffffffffffffffffffffffffffffffffffffff1684600185858080601f016020809104026020016040519081016040528093929190818152602001838380828437600081840152601f19601f820116905080830192505050505050506135f3565b50505050565b600073ffffffffffffffffffffffffffffffffffffffff168473ffffffffffffffffffffffffffffffffffffffff1614156123ef576040517f08c379a00000000000000000000000000000000000000000000000000000000081526004018080602001828103825260258152602001806144426025913960400191505060405180910390fd5b6123f7612791565b73ffffffffffffffffffffffffffffffffffffffff168573ffffffffffffffffffffffffffffffffffffffff16148061243d575061243c85612437612791565b612142565b5b612492576040517f08c379a00000000000000000000000000000000000000000000000000000000081526004018080602001828103825260298152602001806143e96029913960400191505060405180910390fd5b600061249c612791565b90506124bc8187876124ad88613957565b6124b688613957565b87612abe565b612539836040518060600160405280602a81526020016144f4602a91396002600088815260200190815260200160002060008a73ffffffffffffffffffffffffffffffffffffffff1673ffffffffffffffffffffffffffffffffffffffff16815260200190815260200160002054612ad49092919063ffffffff16565b6002600086815260200190815260200160002060008873ffffffffffffffffffffffffffffffffffffffff1673ffffffffffffffffffffffffffffffffffffffff168152602001908152602001600020819055506125f0836002600087815260200190815260200160002060008873ffffffffffffffffffffffffffffffffffffffff1673ffffffffffffffffffffffffffffffffffffffff16815260200190815260200160002054612b8e90919063ffffffff16565b6002600086815260200190815260200160002060008773ffffffffffffffffffffffffffffffffffffffff1673ffffffffffffffffffffffffffffffffffffffff168152602001908152602001600020819055508473ffffffffffffffffffffffffffffffffffffffff168673ffffffffffffffffffffffffffffffffffffffff168273ffffffffffffffffffffffffffffffffffffffff167fc3d58168c5ae7397731d063d5bbf3d657854427343f4c083240f7aacaa2d0f628787604051808381526020018281526020019250505060405180910390a46126d68187878787876139b0565b505050505050565b6126e6612791565b73ffffffffffffffffffffffffffffffffffffffff168373ffffffffffffffffffffffffffffffffffffffff16148061272c575061272b83612726612791565b612142565b5b612781576040517f08c379a00000000000000000000000000000000000000000000000000000000081526004018080602001828103825260298152602001806143e96029913960400191505060405180910390fd5b61278c838383613da6565b505050565b600033905090565b600073ffffffffffffffffffffffffffffffffffffffff168473ffffffffffffffffffffffffffffffffffffffff16141561281f576040517f08c379a000000000000000000000000000000000000000000000000000000000815260040180806020018281038252602181526020018061460c6021913960400191505060405180910390fd5b8151835114612879576040517f08c379a00000000000000000000000000000000000000000000000000000000081526004018080602001828103825260288152602001806145e46028913960400191505060405180910390fd5b6000612883612791565b905061289481600087878787612abe565b60008090505b84518110156129a05761292c600260008784815181106128b657fe5b6020026020010151815260200190815260200160002060008873ffffffffffffffffffffffffffffffffffffffff1673ffffffffffffffffffffffffffffffffffffffff1681526020019081526020016000205485838151811061291657fe5b6020026020010151612b8e90919063ffffffff16565b6002600087848151811061293c57fe5b6020026020010151815260200190815260200160002060008873ffffffffffffffffffffffffffffffffffffffff1673ffffffffffffffffffffffffffffffffffffffff16815260200190815260200160002081905550808060010191505061289a565b508473ffffffffffffffffffffffffffffffffffffffff16600073ffffffffffffffffffffffffffffffffffffffff168273ffffffffffffffffffffffffffffffffffffffff167f4a39dc06d4c0dbc64b70af90fd698a233a518aa5d07e595d983b8c0526c8f7fb8787604051808060200180602001838103835285818151815260200191508051906020019060200280838360005b83811015612a51578082015181840152602081019050612a36565b50505050905001838103825284818151815260200191508051906020019060200280838360005b83811015612a93578082015181840152602081019050612a78565b5050505090500194505050505060405180910390a4612ab781600087878787612c16565b5050505050565b612acc868686868686613fc2565b505050505050565b6000838311158290612b81576040517f08c379a00000000000000000000000000000000000000000000000000000000081526004018080602001828103825283818151815260200191508051906020019080838360005b83811015612b46578082015181840152602081019050612b2b565b50505050905090810190601f168015612b735780820380516001836020036101000a031916815260200191505b509250505060405180910390fd5b5082840390509392505050565b600080828401905083811015612c0c576040517f08c379a000000000000000000000000000000000000000000000000000000000815260040180806020018281038252601b8152602001807f536166654d6174683a206164646974696f6e206f766572666c6f77000000000081525060200191505060405180910390fd5b8091505092915050565b612c358473ffffffffffffffffffffffffffffffffffffffff16614036565b15613086578373ffffffffffffffffffffffffffffffffffffffff1663bc197c8187878686866040518663ffffffff1660e01b8152600401808673ffffffffffffffffffffffffffffffffffffffff1673ffffffffffffffffffffffffffffffffffffffff1681526020018573ffffffffffffffffffffffffffffffffffffffff1673ffffffffffffffffffffffffffffffffffffffff168152602001806020018060200180602001848103845287818151815260200191508051906020019060200280838360005b83811015612d19578082015181840152602081019050612cfe565b50505050905001848103835286818151815260200191508051906020019060200280838360005b83811015612d5b578082015181840152602081019050612d40565b50505050905001848103825285818151815260200191508051906020019080838360005b83811015612d9a578082015181840152602081019050612d7f565b50505050905090810190601f168015612dc75780820380516001836020036101000a031916815260200191505b5098505050505050505050602060405180830381600087803b158015612dec57600080fd5b505af1925050508015612e2057506040513d6020811015612e0c57600080fd5b810190808051906020019092919050505060015b612fe7576000604051905060008152600115612ee95760443d1015612e485760009050612ee9565b60046000803e60005160e01c6308c379a08114612e69576000915050612ee9565b60043d036004833e81513d602482011167ffffffffffffffff82111715612e9557600092505050612ee9565b808301805167ffffffffffffffff811115612eb7576000945050505050612ee9565b8060208301013d8601811115612ed557600095505050505050612ee9565b601f19601f82011660405282955050505050505b80612ef45750612f96565b806040517f08c379a00000000000000000000000000000000000000000000000000000000081526004018080602001828103825283818151815260200191508051906020019080838360005b83811015612f5b578082015181840152602081019050612f40565b50505050905090810190601f168015612f885780820380516001836020036101000a031916815260200191505b509250505060405180910390fd5b6040517f08c379a00000000000000000000000000000000000000000000000000000000081526004018080602001828103825260348152602001806142c16034913960400191505060405180910390fd5b63bc197c8160e01b7bffffffffffffffffffffffffffffffffffffffffffffffffffffffff1916817bffffffffffffffffffffffffffffffffffffffffffffffffffffffff191614613084576040517f08c379a00000000000000000000000000000000000000000000000000000000081526004018080602001828103825260288152602001806143176028913960400191505060405180910390fd5b505b505050505050565b6130b58160008085815260200190815260200160002060000161404990919063ffffffff16565b1561311d576130c2612791565b73ffffffffffffffffffffffffffffffffffffffff168173ffffffffffffffffffffffffffffffffffffffff16837f2f8788117e7eff1d82e926ec794901d17c78024a50270940304540a733656f0d60405160405180910390a45b5050565b6131488160008085815260200190815260200160002060000161407990919063ffffffff16565b156131b057613155612791565b73ffffffffffffffffffffffffffffffffffffffff168173ffffffffffffffffffffffffffffffffffffffff16837ff6391f5c32d9c69d2a47ea670b442974b53935d1edc7fd64eb21e047a839171b60405160405180910390a45b5050565b6131bc611c01565b61322e576040517f08c379a00000000000000000000000000000000000000000000000000000000081526004018080602001828103825260148152602001807f5061757361626c653a206e6f742070617573656400000000000000000000000081525060200191505060405180910390fd5b6000600560006101000a81548160ff0219169083151502179055507f5db9ee0a495bf2e6ff9c91a7834c1ba4fdd244a5e8aa4e537bd38aeae4b073aa613272612791565b604051808273ffffffffffffffffffffffffffffffffffffffff1673ffffffffffffffffffffffffffffffffffffffff16815260200191505060405180910390a1565b600073ffffffffffffffffffffffffffffffffffffffff168373ffffffffffffffffffffffffffffffffffffffff16141561333b576040517f08c379a00000000000000000000000000000000000000000000000000000000081526004018080602001828103825260238152602001806144996023913960400191505060405180910390fd5b8051825114613395576040517f08c379a00000000000000000000000000000000000000000000000000000000081526004018080602001828103825260288152602001806145e46028913960400191505060405180910390fd5b600061339f612791565b90506133bf81856000868660405180602001604052806000815250612abe565b60008090505b83518110156134e5576134718382815181106133dd57fe5b6020026020010151604051806060016040528060248152602001614399602491396002600088868151811061340e57fe5b6020026020010151815260200190815260200160002060008973ffffffffffffffffffffffffffffffffffffffff1673ffffffffffffffffffffffffffffffffffffffff16815260200190815260200160002054612ad49092919063ffffffff16565b6002600086848151811061348157fe5b6020026020010151815260200190815260200160002060008773ffffffffffffffffffffffffffffffffffffffff1673ffffffffffffffffffffffffffffffffffffffff1681526020019081526020016000208190555080806001019150506133c5565b50600073ffffffffffffffffffffffffffffffffffffffff168473ffffffffffffffffffffffffffffffffffffffff168273ffffffffffffffffffffffffffffffffffffffff167f4a39dc06d4c0dbc64b70af90fd698a233a518aa5d07e595d983b8c0526c8f7fb8686604051808060200180602001838103835285818151815260200191508051906020019060200280838360005b8381101561359657808201518184015260208101905061357b565b50505050905001838103825284818151815260200191508051906020019060200280838360005b838110156135d85780820151818401526020810190506135bd565b5050505090500194505050505060405180910390a450505050565b600073ffffffffffffffffffffffffffffffffffffffff168473ffffffffffffffffffffffffffffffffffffffff161415613679576040517f08c379a000000000000000000000000000000000000000000000000000000000815260040180806020018281038252602181526020018061460c6021913960400191505060405180910390fd5b6000613683612791565b90506136a48160008761369588613957565b61369e88613957565b87612abe565b613707836002600087815260200190815260200160002060008873ffffffffffffffffffffffffffffffffffffffff1673ffffffffffffffffffffffffffffffffffffffff16815260200190815260200160002054612b8e90919063ffffffff16565b6002600086815260200190815260200160002060008773ffffffffffffffffffffffffffffffffffffffff1673ffffffffffffffffffffffffffffffffffffffff168152602001908152602001600020819055508473ffffffffffffffffffffffffffffffffffffffff16600073ffffffffffffffffffffffffffffffffffffffff168273ffffffffffffffffffffffffffffffffffffffff167fc3d58168c5ae7397731d063d5bbf3d657854427343f4c083240f7aacaa2d0f628787604051808381526020018281526020019250505060405180910390a46137ef816000878787876139b0565b5050505050565b6137fe611c01565b15613871576040517f08c379a00000000000000000000000000000000000000000000000000000000081526004018080602001828103825260108152602001807f5061757361626c653a207061757365640000000000000000000000000000000081525060200191505060405180910390fd5b6001600560006101000a81548160ff0219169083151502179055507f62e78cea01bee320cd4e420270b5ea74000d11b0c9f74754ebdbfc544b05a2586138b5612791565b604051808273ffffffffffffffffffffffffffffffffffffffff1673ffffffffffffffffffffffffffffffffffffffff16815260200191505060405180910390a1565b600061390783600001836140a9565b60001c905092915050565b600061393a836000018373ffffffffffffffffffffffffffffffffffffffff1660001b61412c565b905092915050565b60006139508260000161414f565b9050919050565b606080600160405190808252806020026020018201604052801561398a5781602001602082028036833780820191505090505b509050828160008151811061399b57fe5b60200260200101818152505080915050919050565b6139cf8473ffffffffffffffffffffffffffffffffffffffff16614036565b15613d9e578373ffffffffffffffffffffffffffffffffffffffff1663f23a6e6187878686866040518663ffffffff1660e01b8152600401808673ffffffffffffffffffffffffffffffffffffffff1673ffffffffffffffffffffffffffffffffffffffff1681526020018573ffffffffffffffffffffffffffffffffffffffff1673ffffffffffffffffffffffffffffffffffffffff16815260200184815260200183815260200180602001828103825283818151815260200191508051906020019080838360005b83811015613ab4578082015181840152602081019050613a99565b50505050905090810190601f168015613ae15780820380516001836020036101000a031916815260200191505b509650505050505050602060405180830381600087803b158015613b0457600080fd5b505af1925050508015613b3857506040513d6020811015613b2457600080fd5b810190808051906020019092919050505060015b613cff576000604051905060008152600115613c015760443d1015613b605760009050613c01565b60046000803e60005160e01c6308c379a08114613b81576000915050613c01565b60043d036004833e81513d602482011167ffffffffffffffff82111715613bad57600092505050613c01565b808301805167ffffffffffffffff811115613bcf576000945050505050613c01565b8060208301013d8601811115613bed57600095505050505050613c01565b601f19601f82011660405282955050505050505b80613c0c5750613cae565b806040517f08c379a00000000000000000000000000000000000000000000000000000000081526004018080602001828103825283818151815260200191508051906020019080838360005b83811015613c73578082015181840152602081019050613c58565b50505050905090810190601f168015613ca05780820380516001836020036101000a031916815260200191505b509250505060405180910390fd5b6040517f08c379a00000000000000000000000000000000000000000000000000000000081526004018080602001828103825260348152602001806142c16034913960400191505060405180910390fd5b63f23a6e6160e01b7bffffffffffffffffffffffffffffffffffffffffffffffffffffffff1916817bffffffffffffffffffffffffffffffffffffffffffffffffffffffff191614613d9c576040517f08c379a00000000000000000000000000000000000000000000000000000000081526004018080602001828103825260288152602001806143176028913960400191505060405180910390fd5b505b505050505050565b600073ffffffffffffffffffffffffffffffffffffffff168373ffffffffffffffffffffffffffffffffffffffff161415613e2c576040517f08c379a00000000000000000000000000000000000000000000000000000000081526004018080602001828103825260238152602001806144996023913960400191505060405180910390fd5b6000613e36612791565b9050613e6681856000613e4887613957565b613e5187613957565b60405180602001604052806000815250612abe565b613ee382604051806060016040528060248152602001614399602491396002600087815260200190815260200160002060008873ffffffffffffffffffffffffffffffffffffffff1673ffffffffffffffffffffffffffffffffffffffff16815260200190815260200160002054612ad49092919063ffffffff16565b6002600085815260200190815260200160002060008673ffffffffffffffffffffffffffffffffffffffff1673ffffffffffffffffffffffffffffffffffffffff16815260200190815260200160002081905550600073ffffffffffffffffffffffffffffffffffffffff168473ffffffffffffffffffffffffffffffffffffffff168273ffffffffffffffffffffffffffffffffffffffff167fc3d58168c5ae7397731d063d5bbf3d657854427343f4c083240f7aacaa2d0f628686604051808381526020018281526020019250505060405180910390a450505050565b613fd0868686868686614160565b613fd8611c01565b1561402e576040517f08c379a000000000000000000000000000000000000000000000000000000000815260040180806020018281038252602c8152602001806143bd602c913960400191505060405180910390fd5b505050505050565b600080823b905060008111915050919050565b6000614071836000018373ffffffffffffffffffffffffffffffffffffffff1660001b614168565b905092915050565b60006140a1836000018373ffffffffffffffffffffffffffffffffffffffff1660001b6141d8565b905092915050565b60008183600001805490501161410a576040517f08c379a00000000000000000000000000000000000000000000000000000000081526004018080602001828103825260228152602001806142f56022913960400191505060405180910390fd5b82600001828154811061411957fe5b9060005260206000200154905092915050565b600080836001016000848152602001908152602001600020541415905092915050565b600081600001805490509050919050565b505050505050565b6000614174838361412c565b6141cd5782600001829080600181540180825580915050600190039060005260206000200160009091909190915055826000018054905083600101600084815260200190815260200160002081905550600190506141d2565b600090505b92915050565b600080836001016000848152602001908152602001600020549050600081146142b4576000600182039050600060018660000180549050039050600086600001828154811061422357fe5b906000526020600020015490508087600001848154811061424057fe5b906000526020600020018190555060018301876001016000838152602001908152602001600020819055508660000180548061427857fe5b600190038181906000526020600020016000905590558660010160008781526020019081526020016000206000905560019450505050506142ba565b60009150505b9291505056fe455243313135353a207472616e7366657220746f206e6f6e2045524331313535526563656976657220696d706c656d656e746572456e756d657261626c655365743a20696e646578206f7574206f6620626f756e6473455243313135353a204552433131353552656365697665722072656a656374656420746f6b656e73416363657373436f6e74726f6c3a2073656e646572206d75737420626520616e2061646d696e20746f206772616e74455243313135353a2062616c616e636520717565727920666f7220746865207a65726f2061646472657373455243313135353a206275726e20616d6f756e7420657863656564732062616c616e6365455243313135355061757361626c653a20746f6b656e207472616e73666572207768696c6520706175736564455243313135353a2063616c6c6572206973206e6f74206f776e6572206e6f7220617070726f766564416363657373436f6e74726f6c3a2073656e646572206d75737420626520616e2061646d696e20746f207265766f6b65455243313135353a207472616e7366657220746f20746865207a65726f2061646472657373455243313135353a207472616e736665722063616c6c6572206973206e6f74206f776e6572206e6f7220617070726f766564455243313135353a206275726e2066726f6d20746865207a65726f2061646472657373455243313135355072657365744d696e7465725061757365723a206d7573742068617665206d696e74657220726f6c6520746f206d696e74455243313135353a20696e73756666696369656e742062616c616e636520666f72207472616e73666572455243313135355072657365744d696e7465725061757365723a206d75737420686176652070617573657220726f6c6520746f20756e7061757365455243313135355072657365744d696e7465725061757365723a206d75737420686176652070617573657220726f6c6520746f207061757365455243313135353a2073657474696e6720617070726f76616c2073746174757320666f722073656c66455243313135353a206163636f756e747320616e6420696473206c656e677468206d69736d61746368455243313135353a2069647320616e6420616d6f756e7473206c656e677468206d69736d61746368455243313135353a206d696e7420746f20746865207a65726f2061646472657373416363657373436f6e74726f6c3a2063616e206f6e6c792072656e6f756e636520726f6c657320666f722073656c66a26469706673582212202b379a05b3756efcbd9324659bfa919e7c15d2fca06ebccae391138bef5f7e3964736f6c6343000603003360806040523480156200001157600080fd5b506040516200540c3803806200540c833981810160405260808110156200003757600080fd5b81019080805160405193929190846401000000008211156200005857600080fd5b838201915060208201858111156200006f57600080fd5b82518660018202830111640100000000821117156200008d57600080fd5b8083526020830192505050908051906020019080838360005b83811015620000c3578082015181840152602081019050620000a6565b50505050905090810190601f168015620000f15780820380516001836020036101000a031916815260200191505b50604052602001805160405193929190846401000000008211156200011557600080fd5b838201915060208201858111156200012c57600080fd5b82518660018202830111640100000000821117156200014a57600080fd5b8083526020830192505050908051906020019080838360005b838110156200018057808201518184015260208101905062000163565b50505050905090810190601f168015620001ae5780820380516001836020036101000a031916815260200191505b5060405260200180516040519392919084640100000000821115620001d257600080fd5b83820191506020820185811115620001e957600080fd5b82518660018202830111640100000000821117156200020757600080fd5b8083526020830192505050908051906020019080838360005b838110156200023d57808201518184015260208101905062000220565b50505050905090810190601f1680156200026b5780820380516001836020036101000a031916815260200191505b50604052602001805190602001909291905050508383838383836200029d6301ffc9a760e01b6200044b60201b60201c565b8160079080519060200190620002b592919062000706565b508060089080519060200190620002ce92919062000706565b50620002e76380ac58cd60e01b6200044b60201b60201c565b620002ff635b5e139f60e01b6200044b60201b60201c565b6200031763780e9d6360e01b6200044b60201b60201c565b50506200033a63bc197c8160e01b63f23a6e6160e01b186200044b60201b60201c565b6200034b826200055460201b60201c565b80600b81905550505050506000601060006101000a81548160ff021916908315150217905550620003956000801b620003896200057060201b60201c565b6200057860201b60201c565b620003eb60405180807f4d494e5445525f524f4c45000000000000000000000000000000000000000000815250600b0190506040518091039020620003df6200057060201b60201c565b6200057860201b60201c565b6200044160405180807f5041555345525f524f4c45000000000000000000000000000000000000000000815250600b0190506040518091039020620004356200057060201b60201c565b6200057860201b60201c565b50505050620007b5565b63ffffffff60e01b817bffffffffffffffffffffffffffffffffffffffffffffffffffffffff19161415620004e8576040517f08c379a000000000000000000000000000000000000000000000000000000000815260040180806020018281038252601c8152602001807f4552433136353a20696e76616c696420696e746572666163652069640000000081525060200191505060405180910390fd5b6001806000837bffffffffffffffffffffffffffffffffffffffffffffffffffffffff19167bffffffffffffffffffffffffffffffffffffffffffffffffffffffff1916815260200190815260200160002060006101000a81548160ff02191690831515021790555050565b80600a90805190602001906200056c92919062000706565b5050565b600033905090565b6200058a82826200058e60201b60201c565b5050565b620005bc816000808581526020019081526020016000206000016200063160201b62003c971790919060201c565b156200062d57620005d26200057060201b60201c565b73ffffffffffffffffffffffffffffffffffffffff168173ffffffffffffffffffffffffffffffffffffffff16837f2f8788117e7eff1d82e926ec794901d17c78024a50270940304540a733656f0d60405160405180910390a45b5050565b600062000661836000018373ffffffffffffffffffffffffffffffffffffffff1660001b6200066960201b60201c565b905092915050565b60006200067d8383620006e360201b60201c565b620006d8578260000182908060018154018082558091505060019003906000526020600020016000909190919091505582600001805490508360010160008481526020019081526020016000208190555060019050620006dd565b600090505b92915050565b600080836001016000848152602001908152602001600020541415905092915050565b828054600181600116156101000203166002900490600052602060002090601f016020900481019282601f106200074957805160ff19168380011785556200077a565b828001600101855582156200077a579182015b82811115620007795782518255916020019190600101906200075c565b5b5090506200078991906200078d565b5090565b620007b291905b80821115620007ae57600081600090555060010162000794565b5090565b90565b614c4780620007c56000396000f3fe608060405234801561001057600080fd5b506004361061023d5760003560e01c80636352211e1161013b578063a8eefe52116100b8578063d53913931161007c578063d5391393146110e7578063d547741f14611105578063e63ab1e914611153578063e985e9c514611171578063f23a6e61146111ed5761023d565b8063a8eefe5214610c16578063b88d4fde14610c84578063bc197c8114610d89578063c87b56dd14610ffe578063ca15c873146110a55761023d565b80639010d07c116100ff5780639010d07c14610a4757806391d1485414610abf57806395d89b4114610b25578063a217fddf14610ba8578063a22cb46514610bc65761023d565b80636352211e146108715780636c0360eb146108df57806370a08231146109625780638456cb59146109ba57806389e7e2f2146109c45761023d565b80632f745c59116101c957806342966c681161018d57806342966c681461071b5780634e18b762146107495780634f6ccce7146107a15780635c975abb146107e357806360d4d23a146108055761023d565b80632f745c59146105a557806336568abe146106075780633f4ba83a1461065557806340c10f191461065f57806342842e0e146106ad5761023d565b806318160ddd1161021057806318160ddd146103e657806323b872dd14610404578063248a9ca3146104725780632676608c146104b45780632f2ff15d146105575761023d565b806301ffc9a71461024257806306fdde03146102a7578063081812fc1461032a578063095ea7b314610398575b600080fd5b61028d6004803603602081101561025857600080fd5b8101908080357bffffffffffffffffffffffffffffffffffffffffffffffffffffffff1916906020019092919050505061134e565b604051808215151515815260200191505060405180910390f35b6102af6113b6565b6040518080602001828103825283818151815260200191508051906020019080838360005b838110156102ef5780820151818401526020810190506102d4565b50505050905090810190601f16801561031c5780820380516001836020036101000a031916815260200191505b509250505060405180910390f35b6103566004803603602081101561034057600080fd5b8101908080359060200190929190505050611458565b604051808273ffffffffffffffffffffffffffffffffffffffff1673ffffffffffffffffffffffffffffffffffffffff16815260200191505060405180910390f35b6103e4600480360360408110156103ae57600080fd5b81019080803573ffffffffffffffffffffffffffffffffffffffff169060200190929190803590602001909291905050506114f3565b005b6103ee611637565b6040518082815260200191505060405180910390f35b6104706004803603606081101561041a57600080fd5b81019080803573ffffffffffffffffffffffffffffffffffffffff169060200190929190803573ffffffffffffffffffffffffffffffffffffffff16906020019092919080359060200190929190505050611648565b005b61049e6004803603602081101561048857600080fd5b81019080803590602001909291905050506116be565b6040518082815260200191505060405180910390f35b610500600480360360408110156104ca57600080fd5b8101908080359060200190929190803573ffffffffffffffffffffffffffffffffffffffff1690602001909291905050506116dd565b6040518080602001828103825283818151815260200191508051906020019060200280838360005b83811015610543578082015181840152602081019050610528565b505050509050019250505060405180910390f35b6105a36004803603604081101561056d57600080fd5b8101908080359060200190929190803573ffffffffffffffffffffffffffffffffffffffff169060200190929190505050611860565b005b6105f1600480360360408110156105bb57600080fd5b81019080803573ffffffffffffffffffffffffffffffffffffffff169060200190929190803590602001909291905050506118e9565b6040518082815260200191505060405180910390f35b6106536004803603604081101561061d57600080fd5b8101908080359060200190929190803573ffffffffffffffffffffffffffffffffffffffff169060200190929190505050611944565b005b61065d6119dd565b005b6106ab6004803603604081101561067557600080fd5b81019080803573ffffffffffffffffffffffffffffffffffffffff16906020019092919080359060200190929190505050611a82565b005b610719600480360360608110156106c357600080fd5b81019080803573ffffffffffffffffffffffffffffffffffffffff169060200190929190803573ffffffffffffffffffffffffffffffffffffffff16906020019092919080359060200190929190505050611ba1565b005b6107476004803603602081101561073157600080fd5b8101908080359060200190929190505050611bc1565b005b61078b6004803603602081101561075f57600080fd5b81019080803573ffffffffffffffffffffffffffffffffffffffff169060200190929190505050611c33565b6040518082815260200191505060405180910390f35b6107cd600480360360208110156107b757600080fd5b8101908080359060200190929190505050611c4b565b6040518082815260200191505060405180910390f35b6107eb611c6e565b604051808215151515815260200191505060405180910390f35b61085b6004803603606081101561081b57600080fd5b8101908080359060200190929190803573ffffffffffffffffffffffffffffffffffffffff16906020019092919080359060200190929190505050611c85565b6040518082815260200191505060405180910390f35b61089d6004803603602081101561088757600080fd5b8101908080359060200190929190505050611cf2565b604051808273ffffffffffffffffffffffffffffffffffffffff1673ffffffffffffffffffffffffffffffffffffffff16815260200191505060405180910390f35b6108e7611d29565b6040518080602001828103825283818151815260200191508051906020019080838360005b8381101561092757808201518184015260208101905061090c565b50505050905090810190601f1680156109545780820380516001836020036101000a031916815260200191505b509250505060405180910390f35b6109a46004803603602081101561097857600080fd5b81019080803573ffffffffffffffffffffffffffffffffffffffff169060200190929190505050611dcb565b6040518082815260200191505060405180910390f35b6109c2611ea0565b005b6109f0600480360360208110156109da57600080fd5b8101908080359060200190929190505050611f45565b6040518080602001828103825283818151815260200191508051906020019060200280838360005b83811015610a33578082015181840152602081019050610a18565b505050509050019250505060405180910390f35b610a7d60048036036040811015610a5d57600080fd5b81019080803590602001909291908035906020019092919050505061203e565b604051808273ffffffffffffffffffffffffffffffffffffffff1673ffffffffffffffffffffffffffffffffffffffff16815260200191505060405180910390f35b610b0b60048036036040811015610ad557600080fd5b8101908080359060200190929190803573ffffffffffffffffffffffffffffffffffffffff16906020019092919050505061206f565b604051808215151515815260200191505060405180910390f35b610b2d6120a0565b6040518080602001828103825283818151815260200191508051906020019080838360005b83811015610b6d578082015181840152602081019050610b52565b50505050905090810190601f168015610b9a5780820380516001836020036101000a031916815260200191505b509250505060405180910390f35b610bb0612142565b6040518082815260200191505060405180910390f35b610c1460048036036040811015610bdc57600080fd5b81019080803573ffffffffffffffffffffffffffffffffffffffff169060200190929190803515159060200190929190505050612149565b005b610c4260048036036020811015610c2c57600080fd5b8101908080359060200190929190505050612301565b604051808273ffffffffffffffffffffffffffffffffffffffff1673ffffffffffffffffffffffffffffffffffffffff16815260200191505060405180910390f35b610d8760048036036080811015610c9a57600080fd5b81019080803573ffffffffffffffffffffffffffffffffffffffff169060200190929190803573ffffffffffffffffffffffffffffffffffffffff1690602001909291908035906020019092919080359060200190640100000000811115610d0157600080fd5b820183602082011115610d1357600080fd5b80359060200191846001830284011164010000000083111715610d3557600080fd5b91908080601f016020809104026020016040519081016040528093929190818152602001838380828437600081840152601f19601f82011690508083019250505050505050919291929050505061233d565b005b610faa600480360360a0811015610d9f57600080fd5b81019080803573ffffffffffffffffffffffffffffffffffffffff169060200190929190803573ffffffffffffffffffffffffffffffffffffffff16906020019092919080359060200190640100000000811115610dfc57600080fd5b820183602082011115610e0e57600080fd5b80359060200191846020830284011164010000000083111715610e3057600080fd5b919080806020026020016040519081016040528093929190818152602001838360200280828437600081840152601f19601f82011690508083019250505050505050919291929080359060200190640100000000811115610e9057600080fd5b820183602082011115610ea257600080fd5b80359060200191846020830284011164010000000083111715610ec457600080fd5b919080806020026020016040519081016040528093929190818152602001838360200280828437600081840152601f19601f82011690508083019250505050505050919291929080359060200190640100000000811115610f2457600080fd5b820183602082011115610f3657600080fd5b80359060200191846001830284011164010000000083111715610f5857600080fd5b91908080601f016020809104026020016040519081016040528093929190818152602001838380828437600081840152601f19601f8201169050808301925050505050505091929192905050506123b5565b60405180827bffffffffffffffffffffffffffffffffffffffffffffffffffffffff19167bffffffffffffffffffffffffffffffffffffffffffffffffffffffff1916815260200191505060405180910390f35b61102a6004803603602081101561101457600080fd5b8101908080359060200190929190505050612584565b6040518080602001828103825283818151815260200191508051906020019080838360005b8381101561106a57808201518184015260208101905061104f565b50505050905090810190601f1680156110975780820380516001836020036101000a031916815260200191505b509250505060405180910390f35b6110d1600480360360208110156110bb57600080fd5b8101908080359060200190929190505050612855565b6040518082815260200191505060405180910390f35b6110ef61287b565b6040518082815260200191505060405180910390f35b6111516004803603604081101561111b57600080fd5b8101908080359060200190929190803573ffffffffffffffffffffffffffffffffffffffff1690602001909291905050506128b4565b005b61115b61293d565b6040518082815260200191505060405180910390f35b6111d36004803603604081101561118757600080fd5b81019080803573ffffffffffffffffffffffffffffffffffffffff169060200190929190803573ffffffffffffffffffffffffffffffffffffffff169060200190929190505050612976565b604051808215151515815260200191505060405180910390f35b6112fa600480360360a081101561120357600080fd5b81019080803573ffffffffffffffffffffffffffffffffffffffff169060200190929190803573ffffffffffffffffffffffffffffffffffffffff16906020019092919080359060200190929190803590602001909291908035906020019064010000000081111561127457600080fd5b82018360208201111561128657600080fd5b803590602001918460018302840111640100000000831117156112a857600080fd5b91908080601f016020809104026020016040519081016040528093929190818152602001838380828437600081840152601f19601f820116905080830192505050505050509192919290505050612a0a565b60405180827bffffffffffffffffffffffffffffffffffffffffffffffffffffffff19167bffffffffffffffffffffffffffffffffffffffffffffffffffffffff1916815260200191505060405180910390f35b600060016000837bffffffffffffffffffffffffffffffffffffffffffffffffffffffff19167bffffffffffffffffffffffffffffffffffffffffffffffffffffffff1916815260200190815260200160002060009054906101000a900460ff169050919050565b606060078054600181600116156101000203166002900480601f01602080910402602001604051908101604052809291908181526020018280546001816001161561010002031660029004801561144e5780601f106114235761010080835404028352916020019161144e565b820191906000526020600020905b81548152906001019060200180831161143157829003601f168201915b5050505050905090565b600061146382612b26565b6114b8576040517f08c379a000000000000000000000000000000000000000000000000000000000815260040180806020018281038252602c815260200180614a26602c913960400191505060405180910390fd5b6005600083815260200190815260200160002060009054906101000a900473ffffffffffffffffffffffffffffffffffffffff169050919050565b60006114fe82611cf2565b90508073ffffffffffffffffffffffffffffffffffffffff168373ffffffffffffffffffffffffffffffffffffffff161415611585576040517f08c379a0000000000000000000000000000000000000000000000000000000008152600401808060200182810382526021815260200180614ad56021913960400191505060405180910390fd5b8073ffffffffffffffffffffffffffffffffffffffff166115a4612b43565b73ffffffffffffffffffffffffffffffffffffffff1614806115d357506115d2816115cd612b43565b612976565b5b611628576040517f08c379a00000000000000000000000000000000000000000000000000000000081526004018080602001828103825260388152602001806149796038913960400191505060405180910390fd5b6116328383612b4b565b505050565b60006116436003612c04565b905090565b611659611653612b43565b82612c19565b6116ae576040517f08c379a0000000000000000000000000000000000000000000000000000000008152600401808060200182810382526031815260200180614b1d6031913960400191505060405180910390fd5b6116b9838383612d0d565b505050565b6000806000838152602001908152602001600020600201549050919050565b606080611738600f600086815260200190815260200160002060008573ffffffffffffffffffffffffffffffffffffffff1673ffffffffffffffffffffffffffffffffffffffff168152602001908152602001600020612f50565b6040519080825280602002602001820160405280156117665781602001602082028036833780820191505090505b50905060008090505b6117c7600f600087815260200190815260200160002060008673ffffffffffffffffffffffffffffffffffffffff1673ffffffffffffffffffffffffffffffffffffffff168152602001908152602001600020612f50565b8110156118555761183081600f600088815260200190815260200160002060008773ffffffffffffffffffffffffffffffffffffffff1673ffffffffffffffffffffffffffffffffffffffff168152602001908152602001600020612f6590919063ffffffff16565b82828151811061183c57fe5b602002602001018181525050808060010191505061176f565b508091505092915050565b61188660008084815260200190815260200160002060020154611881612b43565b61206f565b6118db576040517f08c379a000000000000000000000000000000000000000000000000000000000815260040180806020018281038252602f8152602001806147e1602f913960400191505060405180910390fd5b6118e58282612f7f565b5050565b600061193c82600260008673ffffffffffffffffffffffffffffffffffffffff1673ffffffffffffffffffffffffffffffffffffffff168152602001908152602001600020612f6590919063ffffffff16565b905092915050565b61194c612b43565b73ffffffffffffffffffffffffffffffffffffffff168173ffffffffffffffffffffffffffffffffffffffff16146119cf576040517f08c379a000000000000000000000000000000000000000000000000000000000815260040180806020018281038252602f815260200180614be3602f913960400191505060405180910390fd5b6119d98282613012565b5050565b611a2360405180807f5041555345525f524f4c45000000000000000000000000000000000000000000815250600b0190506040518091039020611a1e612b43565b61206f565b611a78576040517f08c379a0000000000000000000000000000000000000000000000000000000008152600401808060200182810382526040815260200180614ba36040913960400191505060405180910390fd5b611a806130a5565b565b611ac860405180807f4d494e5445525f524f4c45000000000000000000000000000000000000000000815250600b0190506040518091039020611ac3612b43565b61206f565b611b1d576040517f08c379a0000000000000000000000000000000000000000000000000000000008152600401808060200182810382526025815260200180614b7e6025913960400191505060405180910390fd5b6011548111611b2b57600080fd5b611b3582826131a6565b3360128281548110611b4357fe5b9060005260206000200160006101000a81548173ffffffffffffffffffffffffffffffffffffffff021916908373ffffffffffffffffffffffffffffffffffffffff1602179055506011600081548092919060010191905055505050565b611bbc8383836040518060200160405280600081525061233d565b505050565b611bd2611bcc612b43565b82612c19565b611c27576040517f08c379a0000000000000000000000000000000000000000000000000000000008152600401808060200182810382526030815260200180614b4e6030913960400191505060405180910390fd5b611c308161339a565b50565b60136020528060005260406000206000915090505481565b600080611c628360036134d490919063ffffffff16565b50905080915050919050565b6000601060009054906101000a900460ff16905090565b6000600c600085815260200190815260200160002060008473ffffffffffffffffffffffffffffffffffffffff1673ffffffffffffffffffffffffffffffffffffffff16815260200190815260200160002060008381526020019081526020016000205490509392505050565b6000611d22826040518060600160405280602981526020016149db6029913960036135039092919063ffffffff16565b9050919050565b6060600a8054600181600116156101000203166002900480601f016020809104026020016040519081016040528092919081815260200182805460018160011615610100020316600290048015611dc15780601f10611d9657610100808354040283529160200191611dc1565b820191906000526020600020905b815481529060010190602001808311611da457829003601f168201915b5050505050905090565b60008073ffffffffffffffffffffffffffffffffffffffff168273ffffffffffffffffffffffffffffffffffffffff161415611e52576040517f08c379a000000000000000000000000000000000000000000000000000000000815260040180806020018281038252602a8152602001806149b1602a913960400191505060405180910390fd5b611e99600260008473ffffffffffffffffffffffffffffffffffffffff1673ffffffffffffffffffffffffffffffffffffffff168152602001908152602001600020612f50565b9050919050565b611ee660405180807f5041555345525f524f4c45000000000000000000000000000000000000000000815250600b0190506040518091039020611ee1612b43565b61206f565b611f3b576040517f08c379a000000000000000000000000000000000000000000000000000000000815260040180806020018281038252603e815260200180614895603e913960400191505060405180910390fd5b611f43613522565b565b606080611f63600e6000858152602001908152602001600020613624565b604051908082528060200260200182016040528015611f915781602001602082028036833780820191505090505b50905060008090505b611fb5600e6000868152602001908152602001600020613624565b81101561203457611fe181600e600087815260200190815260200160002061363990919063ffffffff16565b828281518110611fed57fe5b602002602001019073ffffffffffffffffffffffffffffffffffffffff16908173ffffffffffffffffffffffffffffffffffffffff16815250508080600101915050611f9a565b5080915050919050565b60006120678260008086815260200190815260200160002060000161363990919063ffffffff16565b905092915050565b60006120988260008086815260200190815260200160002060000161365390919063ffffffff16565b905092915050565b606060088054600181600116156101000203166002900480601f0160208091040260200160405190810160405280929190818152602001828054600181600116156101000203166002900480156121385780601f1061210d57610100808354040283529160200191612138565b820191906000526020600020905b81548152906001019060200180831161211b57829003601f168201915b5050505050905090565b6000801b81565b612151612b43565b73ffffffffffffffffffffffffffffffffffffffff168273ffffffffffffffffffffffffffffffffffffffff1614156121f2576040517f08c379a00000000000000000000000000000000000000000000000000000000081526004018080602001828103825260198152602001807f4552433732313a20617070726f766520746f2063616c6c65720000000000000081525060200191505060405180910390fd5b80600660006121ff612b43565b73ffffffffffffffffffffffffffffffffffffffff1673ffffffffffffffffffffffffffffffffffffffff16815260200190815260200160002060008473ffffffffffffffffffffffffffffffffffffffff1673ffffffffffffffffffffffffffffffffffffffff16815260200190815260200160002060006101000a81548160ff0219169083151502179055508173ffffffffffffffffffffffffffffffffffffffff166122ac612b43565b73ffffffffffffffffffffffffffffffffffffffff167f17307eab39ab6107e8899845ad3d59bd9653f200f220920489ca2b5937696c3183604051808215151515815260200191505060405180910390a35050565b6012818154811061230e57fe5b906000526020600020016000915054906101000a900473ffffffffffffffffffffffffffffffffffffffff1681565b61234e612348612b43565b83612c19565b6123a3576040517f08c379a0000000000000000000000000000000000000000000000000000000008152600401808060200182810382526031815260200180614b1d6031913960400191505060405180910390fd5b6123af84848484613683565b50505050565b60006020825114612411576040517f08c379a00000000000000000000000000000000000000000000000000000000081526004018080602001828103825260538152602001806148426053913960600191505060405180910390fd5b825184511461246b576040517f08c379a0000000000000000000000000000000000000000000000000000000008152600401808060200182810382526027815260200180614af66027913960400191505060405180910390fd5b61247b86600030888888886136f5565b600080602060003690500390508035915060008090505b865181101561256e576124cd83338984815181106124ac57fe5b60200260200101518985815181106124c057fe5b602002602001015161376b565b3373ffffffffffffffffffffffffffffffffffffffff16838973ffffffffffffffffffffffffffffffffffffffff167fa18753b0660a8be2cdae03468c860b47c2926433ab16917f323544652803032d8a858151811061252957fe5b60200260200101518a868151811061253d57fe5b6020026020010151604051808381526020018281526020019250505060405180910390a48080600101915050612492565b5063bc197c8160e01b9250505095945050505050565b606061258f82612b26565b6125e4576040517f08c379a000000000000000000000000000000000000000000000000000000000815260040180806020018281038252602f815260200180614aa6602f913960400191505060405180910390fd5b6060600960008481526020019081526020016000208054600181600116156101000203166002900480601f01602080910402602001604051908101604052809291908181526020018280546001816001161561010002031660029004801561268d5780601f106126625761010080835404028352916020019161268d565b820191906000526020600020905b81548152906001019060200180831161267057829003601f168201915b50505050509050606061269e611d29565b90506000815114156126b4578192505050612850565b6000825111156127855780826040516020018083805190602001908083835b602083106126f657805182526020820191506020810190506020830392506126d3565b6001836020036101000a03801982511681845116808217855250505050505090500182805190602001908083835b602083106127475780518252602082019150602081019050602083039250612724565b6001836020036101000a0380198251168184511680821785525050505050509050019250505060405160208183030381529060405292505050612850565b8061278f85613978565b6040516020018083805190602001908083835b602083106127c557805182526020820191506020810190506020830392506127a2565b6001836020036101000a03801982511681845116808217855250505050505090500182805190602001908083835b6020831061281657805182526020820191506020810190506020830392506127f3565b6001836020036101000a03801982511681845116808217855250505050505090500192505050604051602081830303815290604052925050505b919050565b6000612874600080848152602001908152602001600020600001613624565b9050919050565b60405180807f4d494e5445525f524f4c45000000000000000000000000000000000000000000815250600b019050604051809103902081565b6128da600080848152602001908152602001600020600201546128d5612b43565b61206f565b61292f576040517f08c379a00000000000000000000000000000000000000000000000000000000081526004018080602001828103825260308152602001806149496030913960400191505060405180910390fd5b6129398282613012565b5050565b60405180807f5041555345525f524f4c45000000000000000000000000000000000000000000815250600b019050604051809103902081565b6000600660008473ffffffffffffffffffffffffffffffffffffffff1673ffffffffffffffffffffffffffffffffffffffff16815260200190815260200160002060008373ffffffffffffffffffffffffffffffffffffffff1673ffffffffffffffffffffffffffffffffffffffff16815260200190815260200160002060009054906101000a900460ff16905092915050565b60006020825114612a66576040517f08c379a00000000000000000000000000000000000000000000000000000000081526004018080602001828103825260538152602001806148426053913960600191505060405180910390fd5b612a868660003088612a7789613aa8565b612a8089613aa8565b886136f5565b6000806020600036905003905080359150612aa38233888861376b565b3373ffffffffffffffffffffffffffffffffffffffff16828873ffffffffffffffffffffffffffffffffffffffff167fa18753b0660a8be2cdae03468c860b47c2926433ab16917f323544652803032d8989604051808381526020018281526020019250505060405180910390a463f23a6e6160e01b9250505095945050505050565b6000612b3c826003613b0190919063ffffffff16565b9050919050565b600033905090565b816005600083815260200190815260200160002060006101000a81548173ffffffffffffffffffffffffffffffffffffffff021916908373ffffffffffffffffffffffffffffffffffffffff160217905550808273ffffffffffffffffffffffffffffffffffffffff16612bbe83611cf2565b73ffffffffffffffffffffffffffffffffffffffff167f8c5be1e5ebec7d5bd14f71427d1e84f3dd0314c0f7b2291e5b200ac8c7c3b92560405160405180910390a45050565b6000612c1282600001613b1b565b9050919050565b6000612c2482612b26565b612c79576040517f08c379a000000000000000000000000000000000000000000000000000000000815260040180806020018281038252602c81526020018061491d602c913960400191505060405180910390fd5b6000612c8483611cf2565b90508073ffffffffffffffffffffffffffffffffffffffff168473ffffffffffffffffffffffffffffffffffffffff161480612cf357508373ffffffffffffffffffffffffffffffffffffffff16612cdb84611458565b73ffffffffffffffffffffffffffffffffffffffff16145b80612d045750612d038185612976565b5b91505092915050565b8273ffffffffffffffffffffffffffffffffffffffff16612d2d82611cf2565b73ffffffffffffffffffffffffffffffffffffffff1614612d99576040517f08c379a0000000000000000000000000000000000000000000000000000000008152600401808060200182810382526029815260200180614a7d6029913960400191505060405180910390fd5b600073ffffffffffffffffffffffffffffffffffffffff168273ffffffffffffffffffffffffffffffffffffffff161415612e1f576040517f08c379a00000000000000000000000000000000000000000000000000000000081526004018080602001828103825260248152602001806148d36024913960400191505060405180910390fd5b612e2a838383613b2c565b612e35600082612b4b565b612e8681600260008673ffffffffffffffffffffffffffffffffffffffff1673ffffffffffffffffffffffffffffffffffffffff168152602001908152602001600020613b9a90919063ffffffff16565b50612ed881600260008573ffffffffffffffffffffffffffffffffffffffff1673ffffffffffffffffffffffffffffffffffffffff168152602001908152602001600020613bb490919063ffffffff16565b50612eef81836003613bce9092919063ffffffff16565b50808273ffffffffffffffffffffffffffffffffffffffff168473ffffffffffffffffffffffffffffffffffffffff167fddf252ad1be2c89b69c2b068fc378daa952ba7f163c4a11628f55a4df523b3ef60405160405180910390a4505050565b6000612f5e82600001613c03565b9050919050565b6000612f748360000183613c14565b60001c905092915050565b612fa681600080858152602001908152602001600020600001613c9790919063ffffffff16565b1561300e57612fb3612b43565b73ffffffffffffffffffffffffffffffffffffffff168173ffffffffffffffffffffffffffffffffffffffff16837f2f8788117e7eff1d82e926ec794901d17c78024a50270940304540a733656f0d60405160405180910390a45b5050565b61303981600080858152602001908152602001600020600001613cc790919063ffffffff16565b156130a157613046612b43565b73ffffffffffffffffffffffffffffffffffffffff168173ffffffffffffffffffffffffffffffffffffffff16837ff6391f5c32d9c69d2a47ea670b442974b53935d1edc7fd64eb21e047a839171b60405160405180910390a45b5050565b6130ad611c6e565b61311f576040517f08c379a00000000000000000000000000000000000000000000000000000000081526004018080602001828103825260148152602001807f5061757361626c653a206e6f742070617573656400000000000000000000000081525060200191505060405180910390fd5b6000601060006101000a81548160ff0219169083151502179055507f5db9ee0a495bf2e6ff9c91a7834c1ba4fdd244a5e8aa4e537bd38aeae4b073aa613163612b43565b604051808273ffffffffffffffffffffffffffffffffffffffff1673ffffffffffffffffffffffffffffffffffffffff16815260200191505060405180910390a1565b600073ffffffffffffffffffffffffffffffffffffffff168273ffffffffffffffffffffffffffffffffffffffff161415613249576040517f08c379a00000000000000000000000000000000000000000000000000000000081526004018080602001828103825260208152602001807f4552433732313a206d696e7420746f20746865207a65726f206164647265737381525060200191505060405180910390fd5b61325281612b26565b156132c5576040517f08c379a000000000000000000000000000000000000000000000000000000000815260040180806020018281038252601c8152602001807f4552433732313a20746f6b656e20616c7265616479206d696e7465640000000081525060200191505060405180910390fd5b6132d160008383613b2c565b61332281600260008573ffffffffffffffffffffffffffffffffffffffff1673ffffffffffffffffffffffffffffffffffffffff168152602001908152602001600020613bb490919063ffffffff16565b5061333981836003613bce9092919063ffffffff16565b50808273ffffffffffffffffffffffffffffffffffffffff16600073ffffffffffffffffffffffffffffffffffffffff167fddf252ad1be2c89b69c2b068fc378daa952ba7f163c4a11628f55a4df523b3ef60405160405180910390a45050565b60006133a582611cf2565b90506133b381600084613b2c565b6133be600083612b4b565b6000600960008481526020019081526020016000208054600181600116156101000203166002900490501461340d5760096000838152602001908152602001600020600061340c9190614726565b5b61345e82600260008473ffffffffffffffffffffffffffffffffffffffff1673ffffffffffffffffffffffffffffffffffffffff168152602001908152602001600020613b9a90919063ffffffff16565b50613473826003613cf790919063ffffffff16565b5081600073ffffffffffffffffffffffffffffffffffffffff168273ffffffffffffffffffffffffffffffffffffffff167fddf252ad1be2c89b69c2b068fc378daa952ba7f163c4a11628f55a4df523b3ef60405160405180910390a45050565b6000806000806134e78660000186613d11565b915091508160001c8160001c8090509350935050509250929050565b6000613516846000018460001b84613daa565b60001c90509392505050565b61352a611c6e565b1561359d576040517f08c379a00000000000000000000000000000000000000000000000000000000081526004018080602001828103825260108152602001807f5061757361626c653a207061757365640000000000000000000000000000000081525060200191505060405180910390fd5b6001601060006101000a81548160ff0219169083151502179055507f62e78cea01bee320cd4e420270b5ea74000d11b0c9f74754ebdbfc544b05a2586135e1612b43565b604051808273ffffffffffffffffffffffffffffffffffffffff1673ffffffffffffffffffffffffffffffffffffffff16815260200191505060405180910390a1565b600061363282600001613c03565b9050919050565b60006136488360000183613c14565b60001c905092915050565b600061367b836000018373ffffffffffffffffffffffffffffffffffffffff1660001b613ea0565b905092915050565b61368e848484612d0d565b61369a84848484613ec3565b6136ef576040517f08c379a00000000000000000000000000000000000000000000000000000000081526004018080602001828103825260328152602001806148106032913960400191505060405180910390fd5b50505050565b6136fd611c6e565b15613753576040517f08c379a000000000000000000000000000000000000000000000000000000000815260040180806020018281038252602b815260200180614a52602b913960400191505060405180910390fd5b61376287878787878787614108565b50505050505050565b6000600c600086815260200190815260200160002060008573ffffffffffffffffffffffffffffffffffffffff1673ffffffffffffffffffffffffffffffffffffffff1681526020019081526020016000206000848152602001908152602001600020541480156137dc5750600181145b6137e557600080fd5b61380a83600e600087815260200190815260200160002061365390919063ffffffff16565b6138355761383383600e6000878152602001908152602001600020613c9790919063ffffffff16565b505b6000600c600086815260200190815260200160002060008573ffffffffffffffffffffffffffffffffffffffff1673ffffffffffffffffffffffffffffffffffffffff16815260200190815260200160002060008481526020019081526020016000205414156139035761390182600f600085815260200190815260200160002060008673ffffffffffffffffffffffffffffffffffffffff1673ffffffffffffffffffffffffffffffffffffffff168152602001908152602001600020613bb490919063ffffffff16565b505b80600c600086815260200190815260200160002060008573ffffffffffffffffffffffffffffffffffffffff1673ffffffffffffffffffffffffffffffffffffffff16815260200190815260200160002060008481526020019081526020016000206000828254019250508190555050505050565b606060008214156139c0576040518060400160405280600181526020017f30000000000000000000000000000000000000000000000000000000000000008152509050613aa3565b600082905060005b600082146139ea578080600101915050600a82816139e257fe5b0491506139c8565b6060816040519080825280601f01601f191660200182016040528015613a1f5781602001600182028036833780820191505090505b50905060006001830390508593505b60008414613a9b57600a8481613a4057fe5b0660300160f81b82828060019003935081518110613a5a57fe5b60200101907effffffffffffffffffffffffffffffffffffffffffffffffffffffffffffff1916908160001a905350600a8481613a9357fe5b049350613a2e565b819450505050505b919050565b6060806001604051908082528060200260200182016040528015613adb5781602001602082028036833780820191505090505b5090508281600081518110613aec57fe5b60200260200101818152505080915050919050565b6000613b13836000018360001b614111565b905092915050565b600081600001805490509050919050565b613b34611c6e565b15613b8a576040517f08c379a000000000000000000000000000000000000000000000000000000000815260040180806020018281038252602b8152602001806147b6602b913960400191505060405180910390fd5b613b95838383614134565b505050565b6000613bac836000018360001b614139565b905092915050565b6000613bc6836000018360001b614221565b905092915050565b6000613bfa846000018460001b8473ffffffffffffffffffffffffffffffffffffffff1660001b614291565b90509392505050565b600081600001805490509050919050565b600081836000018054905011613c75576040517f08c379a00000000000000000000000000000000000000000000000000000000081526004018080602001828103825260228152602001806147946022913960400191505060405180910390fd5b826000018281548110613c8457fe5b9060005260206000200154905092915050565b6000613cbf836000018373ffffffffffffffffffffffffffffffffffffffff1660001b614221565b905092915050565b6000613cef836000018373ffffffffffffffffffffffffffffffffffffffff1660001b614139565b905092915050565b6000613d09836000018360001b61436d565b905092915050565b60008082846000018054905011613d73576040517f08c379a0000000000000000000000000000000000000000000000000000000008152600401808060200182810382526022815260200180614a046022913960400191505060405180910390fd5b6000846000018481548110613d8457fe5b906000526020600020906002020190508060000154816001015492509250509250929050565b60008084600101600085815260200190815260200160002054905060008114158390613e71576040517f08c379a00000000000000000000000000000000000000000000000000000000081526004018080602001828103825283818151815260200191508051906020019080838360005b83811015613e36578082015181840152602081019050613e1b565b50505050905090810190601f168015613e635780820380516001836020036101000a031916815260200191505b509250505060405180910390fd5b50846000016001820381548110613e8457fe5b9060005260206000209060020201600101549150509392505050565b600080836001016000848152602001908152602001600020541415905092915050565b6000613ee48473ffffffffffffffffffffffffffffffffffffffff16614486565b613ef15760019050614100565b606061408763150b7a0260e01b613f06612b43565b888787604051602401808573ffffffffffffffffffffffffffffffffffffffff1673ffffffffffffffffffffffffffffffffffffffff1681526020018473ffffffffffffffffffffffffffffffffffffffff1673ffffffffffffffffffffffffffffffffffffffff16815260200183815260200180602001828103825283818151815260200191508051906020019080838360005b83811015613fb6578082015181840152602081019050613f9b565b50505050905090810190601f168015613fe35780820380516001836020036101000a031916815260200191505b5095505050505050604051602081830303815290604052907bffffffffffffffffffffffffffffffffffffffffffffffffffffffff19166020820180517bffffffffffffffffffffffffffffffffffffffffffffffffffffffff8381831617835250505050604051806060016040528060328152602001614810603291398773ffffffffffffffffffffffffffffffffffffffff166144999092919063ffffffff16565b905060008180602001905160208110156140a057600080fd5b8101908080519060200190929190505050905063150b7a0260e01b7bffffffffffffffffffffffffffffffffffffffffffffffffffffffff1916817bffffffffffffffffffffffffffffffffffffffffffffffffffffffff191614925050505b949350505050565b50505050505050565b600080836001016000848152602001908152602001600020541415905092915050565b505050565b60008083600101600084815260200190815260200160002054905060008114614215576000600182039050600060018660000180549050039050600086600001828154811061418457fe5b90600052602060002001549050808760000184815481106141a157fe5b90600052602060002001819055506001830187600101600083815260200190815260200160002081905550866000018054806141d957fe5b6001900381819060005260206000200160009055905586600101600087815260200190815260200160002060009055600194505050505061421b565b60009150505b92915050565b600061422d8383613ea0565b61428657826000018290806001815401808255809150506001900390600052602060002001600090919091909150558260000180549050836001016000848152602001908152602001600020819055506001905061428b565b600090505b92915050565b600080846001016000858152602001908152602001600020549050600081141561433857846000016040518060400160405280868152602001858152509080600181540180825580915050600190039060005260206000209060020201600090919091909150600082015181600001556020820151816001015550508460000180549050856001016000868152602001908152602001600020819055506001915050614366565b8285600001600183038154811061434b57fe5b90600052602060002090600202016001018190555060009150505b9392505050565b6000808360010160008481526020019081526020016000205490506000811461447a57600060018203905060006001866000018054905003905060008660000182815481106143b857fe5b90600052602060002090600202019050808760000184815481106143d857fe5b906000526020600020906002020160008201548160000155600182015481600101559050506001830187600101600083600001548152602001908152602001600020819055508660000180548061442b57fe5b6001900381819060005260206000209060020201600080820160009055600182016000905550509055866001016000878152602001908152602001600020600090556001945050505050614480565b60009150505b92915050565b600080823b905060008111915050919050565b60606144a884846000856144b1565b90509392505050565b60608247101561450c576040517f08c379a00000000000000000000000000000000000000000000000000000000081526004018080602001828103825260268152602001806148f76026913960400191505060405180910390fd5b61451585614486565b614587576040517f08c379a000000000000000000000000000000000000000000000000000000000815260040180806020018281038252601d8152602001807f416464726573733a2063616c6c20746f206e6f6e2d636f6e747261637400000081525060200191505060405180910390fd5b600060608673ffffffffffffffffffffffffffffffffffffffff1685876040518082805190602001908083835b602083106145d757805182526020820191506020810190506020830392506145b4565b6001836020036101000a03801982511681845116808217855250505050505090500191505060006040518083038185875af1925050503d8060008114614639576040519150601f19603f3d011682016040523d82523d6000602084013e61463e565b606091505b509150915061464e82828661465a565b92505050949350505050565b6060831561466a5782905061471f565b60008351111561467d5782518084602001fd5b816040517f08c379a00000000000000000000000000000000000000000000000000000000081526004018080602001828103825283818151815260200191508051906020019080838360005b838110156146e45780820151818401526020810190506146c9565b50505050905090810190601f1680156147115780820380516001836020036101000a031916815260200191505b509250505060405180910390fd5b9392505050565b50805460018160011615610100020316600290046000825580601f1061474c575061476b565b601f01602090049060005260206000209081019061476a919061476e565b5b50565b61479091905b8082111561478c576000816000905550600101614774565b5090565b9056fe456e756d657261626c655365743a20696e646578206f7574206f6620626f756e64734552433732315061757361626c653a20746f6b656e207472616e73666572207768696c6520706175736564416363657373436f6e74726f6c3a2073656e646572206d75737420626520616e2061646d696e20746f206772616e744552433732313a207472616e7366657220746f206e6f6e20455243373231526563656976657220696d706c656d656e7465724552433939383a2064617461206d75737420636f6e7461696e2074686520756e697175652075696e7432353620746f6b656e496420746f207472616e7366657220746865206368696c6420746f6b656e20746f4552433732315072657365744d696e7465725061757365724175746f49643a206d75737420686176652070617573657220726f6c6520746f2070617573654552433732313a207472616e7366657220746f20746865207a65726f2061646472657373416464726573733a20696e73756666696369656e742062616c616e636520666f722063616c6c4552433732313a206f70657261746f7220717565727920666f72206e6f6e6578697374656e7420746f6b656e416363657373436f6e74726f6c3a2073656e646572206d75737420626520616e2061646d696e20746f207265766f6b654552433732313a20617070726f76652063616c6c6572206973206e6f74206f776e6572206e6f7220617070726f76656420666f7220616c6c4552433732313a2062616c616e636520717565727920666f7220746865207a65726f20616464726573734552433732313a206f776e657220717565727920666f72206e6f6e6578697374656e7420746f6b656e456e756d657261626c654d61703a20696e646578206f7574206f6620626f756e64734552433732313a20617070726f76656420717565727920666f72206e6f6e6578697374656e7420746f6b656e4552433939385061757361626c653a206368696c64207472616e73666572207768696c65207061757365644552433732313a207472616e73666572206f6620746f6b656e2074686174206973206e6f74206f776e4552433732314d657461646174613a2055524920717565727920666f72206e6f6e6578697374656e7420746f6b656e4552433732313a20617070726f76616c20746f2063757272656e74206f776e6572455243313135353a2069647320616e642076616c756573206c656e677468206d69736d617463684552433732313a207472616e736665722063616c6c6572206973206e6f74206f776e6572206e6f7220617070726f7665644552433732314275726e61626c653a2063616c6c6572206973206e6f74206f776e6572206e6f7220617070726f7665644552433732313a206d7573742068617665206d696e74657220726f6c6520746f206d696e744552433732315072657365744d696e7465725061757365724175746f49643a206d75737420686176652070617573657220726f6c6520746f20756e7061757365416363657373436f6e74726f6c3a2063616e206f6e6c792072656e6f756e636520726f6c657320666f722073656c66a2646970667358221220bc9d83e0b89a47678be68b3edf576fd8416556eee02b7035d5bee960f6f6816c64736f6c63430006030033",
  "source": "// SPDX-License-Identifier: MIT\n\npragma solidity ^0.6.0;\n\nimport \"@openzeppelin/contracts/access/AccessControl.sol\";\nimport \"@openzeppelin/contracts/GSN/Context.sol\";\nimport \"@openzeppelin/contracts/utils/Pausable.sol\";\n\nimport \"./ERC998ERC1155TopDown.sol\";\n\n/**\n * @dev {ERC998} token, including:\n *\n *  - ability for holders to burn (destroy) their tokens\n *  - a minter role that allows for token minting (creation)\n *  - a pauser role that allows to stop all token transfers\n *\n * This contract uses {AccessControl} to lock permissioned functions using the\n * different roles - head to its documentation for details.\n *\n * The account that deploys the contract will be granted the minter and pauser\n * roles, as well as the default admin role, which will let it grant both minter\n * and pauser roles to other accounts.\n */\ncontract ERC998ERC1155TopDownPresetMinterPauser is\n    Context,\n    AccessControl,\n    ERC998ERC1155TopDown,\n    Pausable\n{\n    bytes32 public constant MINTER_ROLE = keccak256(\"MINTER_ROLE\");\n    bytes32 public constant PAUSER_ROLE = keccak256(\"PAUSER_ROLE\");\n\n    uint256 composableCount;\n    address[] public indexedComposableId;\n    mapping(address => uint256) public ownerToComposableId;\n\n    /**\n     * @dev Grants `DEFAULT_ADMIN_ROLE`, `MINTER_ROLE` and `PAUSER_ROLE` to the\n     * account that deploys the contract.\n     *\n     * Token URIs will be autogenerated based on `baseURI` and their token IDs.\n     * See {ERC721-tokenURI}.\n     * @param csnftPrice creators snft marketplace price\n     */\n    constructor(\n        string memory name,\n        string memory symbol,\n        string memory baseURI,\n        uint256 csnftPrice\n    ) public ERC998ERC1155TopDown(name, symbol, baseURI, csnftPrice) {\n        _setupRole(DEFAULT_ADMIN_ROLE, _msgSender());\n        _setupRole(MINTER_ROLE, _msgSender());\n        _setupRole(PAUSER_ROLE, _msgSender());\n    }\n\n    /**\n     * @dev Creates a new token for `to`. The token URI autogenerated based on\n     * the base URI passed at construction and the token ID.\n     *\n     * See {ERC721-_mint}.\n     *\n     * Requirements:\n     *\n     * - the caller must have the `MINTER_ROLE`.\n     */\n    function mint(address to, uint256 tokenId) public virtual {\n        require(\n            hasRole(MINTER_ROLE, _msgSender()),\n            \"ERC721: must have minter role to mint\"\n        );\n        require(tokenId > composableCount);\n\n        // We cannot just use balanceOf to create the new tokenId because tokens\n        // can be burned (destroyed), so we need a separate counter.\n        _mint(to, tokenId);\n        indexedComposableId[tokenId] = msg.sender;\n        composableCount++;\n    }\n\n    /**\n     * @dev Burns `tokenId`. See {ERC721-_burn}.\n     *\n     * Requirements:\n     *\n     * - The caller must own `tokenId` or be an approved operator.\n     */\n    function burn(uint256 tokenId) public virtual {\n        //solhint-disable-next-line max-line-length\n        require(\n            _isApprovedOrOwner(_msgSender(), tokenId),\n            \"ERC721Burnable: caller is not owner nor approved\"\n        );\n        _burn(tokenId);\n    }\n\n    /**\n     * @dev Pauses all token transfers.\n     *\n     * See {ERC721Pausable} and {Pausable-_pause}.\n     *\n     * Requirements:\n     *\n     * - the caller must have the `PAUSER_ROLE`.\n     */\n    function pause() public virtual {\n        require(\n            hasRole(PAUSER_ROLE, _msgSender()),\n            \"ERC721PresetMinterPauserAutoId: must have pauser role to pause\"\n        );\n        _pause();\n    }\n\n    /**\n     * @dev Unpauses all token transfers.\n     *\n     * See {ERC721Pausable} and {Pausable-_unpause}.\n     *\n     * Requirements:\n     *\n     * - the caller must have the `PAUSER_ROLE`.\n     */\n    function unpause() public virtual {\n        require(\n            hasRole(PAUSER_ROLE, _msgSender()),\n            \"ERC721PresetMinterPauserAutoId: must have pauser role to unpause\"\n        );\n        _unpause();\n    }\n\n    /**\n     * @dev See {ERC721-_beforeTokenTransfer}.\n     *\n     * Requirements:\n     *\n     * - the contract must not be paused.\n     */\n    function _beforeTokenTransfer(\n        address from,\n        address to,\n        uint256 tokenId\n    ) internal virtual override {\n        require(!paused(), \"ERC721Pausable: token transfer while paused\");\n\n        super._beforeTokenTransfer(from, to, tokenId);\n    }\n\n    function _beforeChildTransfer(\n        address operator,\n        uint256 fromTokenId,\n        address to,\n        address childContract,\n        uint256[] memory ids,\n        uint256[] memory amounts,\n        bytes memory data\n    ) internal virtual override {\n        require(!paused(), \"ERC998Pausable: child transfer while paused\");\n\n        super._beforeChildTransfer(\n            operator,\n            fromTokenId,\n            to,\n            childContract,\n            ids,\n            amounts,\n            data\n        );\n    }\n}\n\n// SPDX-License-Identifier: UNLICENSED\npragma solidity ^0.6.0;\n///@dev handle Batch receiving function - !!!!\n\n/// @notice create tier supply and attach to composable\nimport \"@openzeppelin/contracts/presets/ERC1155PresetMinterPauser.sol\";\nimport \"@openzeppelin/contracts/token/ERC1155/IERC1155Receiver.sol\";\nimport \"@openzeppelin/contracts/token/ERC1155/ERC1155Holder.sol\";\n\n/*\n    erc1155.mint(admin, multiTokenTier0, multiTokenMaxSuply, \"0x\");\n    erc1155.safeTransferFrom(admin, erc998.address, multiTokenTier0, 1, web3.utils.encodePacked(composable1));\n*/\ncontract ERC1155TierUpgradePresetMinterPauser is ERC1155PresetMinterPauser {\n    bytes4 internal constant ERC1155_ACCEPTED = 0xf23a6e61; // bytes4(keccak256(\"onERC1155Received(address,address,uint256,uint256,bytes)\"))\n    bytes4 internal constant ERC1155_BATCH_ACCEPTED = 0xbc197c81; // bytes4(keccak256(\"onERC1155BatchReceived(address,address,uint256[],uint256[],bytes)\"))\n    ERC998ERC1155TopDownPresetMinterPauser csnftContract;\n\n    ///@param _baseURI snft URI\n    constructor(\n        string memory _name,\n        string memory _symbol,\n        string memory _baseURI,\n        uint256 _csnftBasePrice,\n        string memory tierUri\n    ) public ERC1155PresetMinterPauser(tierUri) {\n        csnftContract = new ERC998ERC1155TopDownPresetMinterPauser(\n            _name,\n            _symbol,\n            _baseURI,\n            _csnftBasePrice\n        );\n    }\n\n    // function _mintTier(CSNFTContract csnftContract, uint tierId, bytes data ) private {\n    //     uint256 amt = 1;\n    //     _mint(csnftContract.address, tierId,1, data);\n    // }\n\n    function upgradeSNFT(\n        uint256 _composableId,\n        uint256 _tierId,\n        bytes calldata data // web3.utils.encodePacked(composableId)\n    ) external payable {\n        //add tier checks\n\n        require(\n            csnftContract.childBalance(_composableId, address(this), _tierId) ==\n                0\n        );\n\n        require(_tierId > 0 || balanceOf(msg.sender, _tierId - 1) == 1);\n        // 0 address\n        // require(\n        //     csnftContract != address(0),\n        //     \"ERC998: transfer to the zero address\"\n        // );\n        // caller  of composable is owner of composable or is approved to transfer composable ,\n\n        _mint(address(csnftContract), _tierId, 1, data);\n    }\n}\n",
  "sourcePath": "/home/waverune/respct-club/ERC998ERC1155/contracts/ERC998ERC1155TopDownPresetMinterPauser.sol",
  "compiler": {
    "name": "solc",
    "version": "0.6.3+commit.8dda9521.Emscripten.clang"
  },
  "schemaVersion": "3.4.1",
  "updatedAt": "2022-03-12T00:06:42.644Z",
  "devdoc": {
    "methods": {
      "balanceOf(address,uint256)": {
        "details": "See {IERC1155-balanceOf}.     * Requirements:     * - `account` cannot be the zero address."
      },
      "balanceOfBatch(address[],uint256[])": {
        "details": "See {IERC1155-balanceOfBatch}.     * Requirements:     * - `accounts` and `ids` must have the same length."
      },
      "constructor": {
        "params": {
          "_baseURI": "snft URI"
        }
      },
      "getRoleAdmin(bytes32)": {
        "details": "Returns the admin role that controls `role`. See {grantRole} and {revokeRole}.     * To change a role's admin, use {_setRoleAdmin}."
      },
      "getRoleMember(bytes32,uint256)": {
        "details": "Returns one of the accounts that have `role`. `index` must be a value between 0 and {getRoleMemberCount}, non-inclusive.     * Role bearers are not sorted in any particular way, and their ordering may change at any point.     * WARNING: When using {getRoleMember} and {getRoleMemberCount}, make sure you perform all queries on the same block. See the following https://forum.openzeppelin.com/t/iterating-over-elements-on-enumerableset-in-openzeppelin-contracts/2296[forum post] for more information."
      },
      "getRoleMemberCount(bytes32)": {
        "details": "Returns the number of accounts that have `role`. Can be used together with {getRoleMember} to enumerate all bearers of a role."
      },
      "grantRole(bytes32,address)": {
        "details": "Grants `role` to `account`.     * If `account` had not been already granted `role`, emits a {RoleGranted} event.     * Requirements:     * - the caller must have ``role``'s admin role."
      },
      "hasRole(bytes32,address)": {
        "details": "Returns `true` if `account` has been granted `role`."
      },
      "isApprovedForAll(address,address)": {
        "details": "See {IERC1155-isApprovedForAll}."
      },
      "mint(address,uint256,uint256,bytes)": {
        "details": "Creates `amount` new tokens for `to`, of token type `id`.     * See {ERC1155-_mint}.     * Requirements:     * - the caller must have the `MINTER_ROLE`."
      },
      "mintBatch(address,uint256[],uint256[],bytes)": {
        "details": "xref:ROOT:erc1155.adoc#batch-operations[Batched] variant of {mint}."
      },
      "pause()": {
        "details": "Pauses all token transfers.     * See {ERC1155Pausable} and {Pausable-_pause}.     * Requirements:     * - the caller must have the `PAUSER_ROLE`."
      },
      "paused()": {
        "details": "Returns true if the contract is paused, and false otherwise."
      },
      "renounceRole(bytes32,address)": {
        "details": "Revokes `role` from the calling account.     * Roles are often managed via {grantRole} and {revokeRole}: this function's purpose is to provide a mechanism for accounts to lose their privileges if they are compromised (such as when a trusted device is misplaced).     * If the calling account had been granted `role`, emits a {RoleRevoked} event.     * Requirements:     * - the caller must be `account`."
      },
      "revokeRole(bytes32,address)": {
        "details": "Revokes `role` from `account`.     * If `account` had been granted `role`, emits a {RoleRevoked} event.     * Requirements:     * - the caller must have ``role``'s admin role."
      },
      "safeBatchTransferFrom(address,address,uint256[],uint256[],bytes)": {
        "details": "See {IERC1155-safeBatchTransferFrom}."
      },
      "safeTransferFrom(address,address,uint256,uint256,bytes)": {
        "details": "See {IERC1155-safeTransferFrom}."
      },
      "setApprovalForAll(address,bool)": {
        "details": "See {IERC1155-setApprovalForAll}."
      },
      "supportsInterface(bytes4)": {
        "details": "See {IERC165-supportsInterface}.     * Time complexity O(1), guaranteed to always use less than 30 000 gas."
      },
      "unpause()": {
        "details": "Unpauses all token transfers.     * See {ERC1155Pausable} and {Pausable-_unpause}.     * Requirements:     * - the caller must have the `PAUSER_ROLE`."
      },
      "uri(uint256)": {
        "details": "See {IERC1155MetadataURI-uri}.     * This implementation returns the same URI for *all* token types. It relies on the token type ID substitution mechanism https://eips.ethereum.org/EIPS/eip-1155#metadata[defined in the EIP].     * Clients calling this function must replace the `\\{id\\}` substring with the actual token type ID."
      }
    }
  },
  "userdoc": {
    "methods": {}
  }
}