{
  "contractName": "ERC998ERC1155TopDownUpgradeable",
  "abi": [
    {
      "anonymous": false,
      "inputs": [
        {
          "indexed": true,
          "internalType": "address",
          "name": "owner",
          "type": "address"
        },
        {
          "indexed": true,
          "internalType": "address",
          "name": "approved",
          "type": "address"
        },
        {
          "indexed": true,
          "internalType": "uint256",
          "name": "tokenId",
          "type": "uint256"
        }
      ],
      "name": "Approval",
      "type": "event"
    },
    {
      "anonymous": false,
      "inputs": [
        {
          "indexed": true,
          "internalType": "address",
          "name": "owner",
          "type": "address"
        },
        {
          "indexed": true,
          "internalType": "address",
          "name": "operator",
          "type": "address"
        },
        {
          "indexed": false,
          "internalType": "bool",
          "name": "approved",
          "type": "bool"
        }
      ],
      "name": "ApprovalForAll",
      "type": "event"
    },
    {
      "anonymous": false,
      "inputs": [
        {
          "indexed": true,
          "internalType": "address",
          "name": "from",
          "type": "address"
        },
        {
          "indexed": true,
          "internalType": "uint256",
          "name": "toTokenId",
          "type": "uint256"
        },
        {
          "indexed": true,
          "internalType": "address",
          "name": "childContract",
          "type": "address"
        },
        {
          "indexed": false,
          "internalType": "uint256",
          "name": "childTokenId",
          "type": "uint256"
        },
        {
          "indexed": false,
          "internalType": "uint256",
          "name": "amount",
          "type": "uint256"
        }
      ],
      "name": "ReceivedChild",
      "type": "event"
    },
    {
      "anonymous": false,
      "inputs": [
        {
          "indexed": true,
          "internalType": "address",
          "name": "from",
          "type": "address"
        },
        {
          "indexed": true,
          "internalType": "address",
          "name": "to",
          "type": "address"
        },
        {
          "indexed": true,
          "internalType": "uint256",
          "name": "tokenId",
          "type": "uint256"
        }
      ],
      "name": "Transfer",
      "type": "event"
    },
    {
      "anonymous": false,
      "inputs": [
        {
          "indexed": true,
          "internalType": "uint256",
          "name": "fromTokenId",
          "type": "uint256"
        },
        {
          "indexed": true,
          "internalType": "address",
          "name": "to",
          "type": "address"
        },
        {
          "indexed": true,
          "internalType": "address",
          "name": "childContract",
          "type": "address"
        },
        {
          "indexed": false,
          "internalType": "uint256[]",
          "name": "childTokenIds",
          "type": "uint256[]"
        },
        {
          "indexed": false,
          "internalType": "uint256[]",
          "name": "amounts",
          "type": "uint256[]"
        }
      ],
      "name": "TransferBatchChild",
      "type": "event"
    },
    {
      "anonymous": false,
      "inputs": [
        {
          "indexed": true,
          "internalType": "uint256",
          "name": "fromTokenId",
          "type": "uint256"
        },
        {
          "indexed": true,
          "internalType": "address",
          "name": "to",
          "type": "address"
        },
        {
          "indexed": true,
          "internalType": "address",
          "name": "childContract",
          "type": "address"
        },
        {
          "indexed": false,
          "internalType": "uint256",
          "name": "childTokenId",
          "type": "uint256"
        },
        {
          "indexed": false,
          "internalType": "uint256",
          "name": "amount",
          "type": "uint256"
        }
      ],
      "name": "TransferSingleChild",
      "type": "event"
    },
    {
      "inputs": [
        {
          "internalType": "address",
          "name": "to",
          "type": "address"
        },
        {
          "internalType": "uint256",
          "name": "tokenId",
          "type": "uint256"
        }
      ],
      "name": "approve",
      "outputs": [],
      "stateMutability": "nonpayable",
      "type": "function"
    },
    {
      "inputs": [
        {
          "internalType": "address",
          "name": "owner",
          "type": "address"
        }
      ],
      "name": "balanceOf",
      "outputs": [
        {
          "internalType": "uint256",
          "name": "",
          "type": "uint256"
        }
      ],
      "stateMutability": "view",
      "type": "function"
    },
    {
      "inputs": [],
      "name": "baseURI",
      "outputs": [
        {
          "internalType": "string",
          "name": "",
          "type": "string"
        }
      ],
      "stateMutability": "view",
      "type": "function"
    },
    {
      "inputs": [
        {
          "internalType": "uint256",
          "name": "tokenId",
          "type": "uint256"
        }
      ],
      "name": "getApproved",
      "outputs": [
        {
          "internalType": "address",
          "name": "",
          "type": "address"
        }
      ],
      "stateMutability": "view",
      "type": "function"
    },
    {
      "inputs": [
        {
          "internalType": "address",
          "name": "owner",
          "type": "address"
        },
        {
          "internalType": "address",
          "name": "operator",
          "type": "address"
        }
      ],
      "name": "isApprovedForAll",
      "outputs": [
        {
          "internalType": "bool",
          "name": "",
          "type": "bool"
        }
      ],
      "stateMutability": "view",
      "type": "function"
    },
    {
      "inputs": [],
      "name": "name",
      "outputs": [
        {
          "internalType": "string",
          "name": "",
          "type": "string"
        }
      ],
      "stateMutability": "view",
      "type": "function"
    },
    {
      "inputs": [
        {
          "internalType": "uint256",
          "name": "tokenId",
          "type": "uint256"
        }
      ],
      "name": "ownerOf",
      "outputs": [
        {
          "internalType": "address",
          "name": "",
          "type": "address"
        }
      ],
      "stateMutability": "view",
      "type": "function"
    },
    {
      "inputs": [
        {
          "internalType": "address",
          "name": "from",
          "type": "address"
        },
        {
          "internalType": "address",
          "name": "to",
          "type": "address"
        },
        {
          "internalType": "uint256",
          "name": "tokenId",
          "type": "uint256"
        }
      ],
      "name": "safeTransferFrom",
      "outputs": [],
      "stateMutability": "nonpayable",
      "type": "function"
    },
    {
      "inputs": [
        {
          "internalType": "address",
          "name": "from",
          "type": "address"
        },
        {
          "internalType": "address",
          "name": "to",
          "type": "address"
        },
        {
          "internalType": "uint256",
          "name": "tokenId",
          "type": "uint256"
        },
        {
          "internalType": "bytes",
          "name": "_data",
          "type": "bytes"
        }
      ],
      "name": "safeTransferFrom",
      "outputs": [],
      "stateMutability": "nonpayable",
      "type": "function"
    },
    {
      "inputs": [
        {
          "internalType": "address",
          "name": "operator",
          "type": "address"
        },
        {
          "internalType": "bool",
          "name": "approved",
          "type": "bool"
        }
      ],
      "name": "setApprovalForAll",
      "outputs": [],
      "stateMutability": "nonpayable",
      "type": "function"
    },
    {
      "inputs": [
        {
          "internalType": "bytes4",
          "name": "interfaceId",
          "type": "bytes4"
        }
      ],
      "name": "supportsInterface",
      "outputs": [
        {
          "internalType": "bool",
          "name": "",
          "type": "bool"
        }
      ],
      "stateMutability": "view",
      "type": "function"
    },
    {
      "inputs": [],
      "name": "symbol",
      "outputs": [
        {
          "internalType": "string",
          "name": "",
          "type": "string"
        }
      ],
      "stateMutability": "view",
      "type": "function"
    },
    {
      "inputs": [
        {
          "internalType": "uint256",
          "name": "index",
          "type": "uint256"
        }
      ],
      "name": "tokenByIndex",
      "outputs": [
        {
          "internalType": "uint256",
          "name": "",
          "type": "uint256"
        }
      ],
      "stateMutability": "view",
      "type": "function"
    },
    {
      "inputs": [
        {
          "internalType": "address",
          "name": "owner",
          "type": "address"
        },
        {
          "internalType": "uint256",
          "name": "index",
          "type": "uint256"
        }
      ],
      "name": "tokenOfOwnerByIndex",
      "outputs": [
        {
          "internalType": "uint256",
          "name": "",
          "type": "uint256"
        }
      ],
      "stateMutability": "view",
      "type": "function"
    },
    {
      "inputs": [
        {
          "internalType": "uint256",
          "name": "tokenId",
          "type": "uint256"
        }
      ],
      "name": "tokenURI",
      "outputs": [
        {
          "internalType": "string",
          "name": "",
          "type": "string"
        }
      ],
      "stateMutability": "view",
      "type": "function"
    },
    {
      "inputs": [],
      "name": "totalSupply",
      "outputs": [
        {
          "internalType": "uint256",
          "name": "",
          "type": "uint256"
        }
      ],
      "stateMutability": "view",
      "type": "function"
    },
    {
      "inputs": [
        {
          "internalType": "address",
          "name": "from",
          "type": "address"
        },
        {
          "internalType": "address",
          "name": "to",
          "type": "address"
        },
        {
          "internalType": "uint256",
          "name": "tokenId",
          "type": "uint256"
        }
      ],
      "name": "transferFrom",
      "outputs": [],
      "stateMutability": "nonpayable",
      "type": "function"
    },
    {
      "inputs": [
        {
          "internalType": "string",
          "name": "_name",
          "type": "string"
        },
        {
          "internalType": "string",
          "name": "_symbol",
          "type": "string"
        },
        {
          "internalType": "string",
          "name": "_baseURI",
          "type": "string"
        }
      ],
      "name": "initialize",
      "outputs": [],
      "stateMutability": "nonpayable",
      "type": "function"
    },
    {
      "inputs": [
        {
          "internalType": "uint256",
          "name": "composableId",
          "type": "uint256"
        },
        {
          "internalType": "address",
          "name": "childContract",
          "type": "address"
        },
        {
          "internalType": "uint256",
          "name": "tierId",
          "type": "uint256"
        }
      ],
      "name": "childBalance",
      "outputs": [
        {
          "internalType": "uint256",
          "name": "",
          "type": "uint256"
        }
      ],
      "stateMutability": "view",
      "type": "function"
    },
    {
      "inputs": [
        {
          "internalType": "uint256",
          "name": "composableId",
          "type": "uint256"
        }
      ],
      "name": "childContractsFor",
      "outputs": [
        {
          "internalType": "address[]",
          "name": "",
          "type": "address[]"
        }
      ],
      "stateMutability": "view",
      "type": "function"
    },
    {
      "inputs": [
        {
          "internalType": "uint256",
          "name": "composableId",
          "type": "uint256"
        },
        {
          "internalType": "address",
          "name": "childContract",
          "type": "address"
        }
      ],
      "name": "childIdsForOn",
      "outputs": [
        {
          "internalType": "uint256[]",
          "name": "",
          "type": "uint256[]"
        }
      ],
      "stateMutability": "view",
      "type": "function"
    },
    {
      "inputs": [
        {
          "internalType": "address",
          "name": "operator",
          "type": "address"
        },
        {
          "internalType": "address",
          "name": "from",
          "type": "address"
        },
        {
          "internalType": "uint256",
          "name": "id",
          "type": "uint256"
        },
        {
          "internalType": "uint256",
          "name": "amount",
          "type": "uint256"
        },
        {
          "internalType": "bytes",
          "name": "data",
          "type": "bytes"
        }
      ],
      "name": "onERC1155Received",
      "outputs": [
        {
          "internalType": "bytes4",
          "name": "",
          "type": "bytes4"
        }
      ],
      "stateMutability": "nonpayable",
      "type": "function"
    },
    {
      "inputs": [
        {
          "internalType": "address",
          "name": "operator",
          "type": "address"
        },
        {
          "internalType": "address",
          "name": "from",
          "type": "address"
        },
        {
          "internalType": "uint256[]",
          "name": "ids",
          "type": "uint256[]"
        },
        {
          "internalType": "uint256[]",
          "name": "values",
          "type": "uint256[]"
        },
        {
          "internalType": "bytes",
          "name": "data",
          "type": "bytes"
        }
      ],
      "name": "onERC1155BatchReceived",
      "outputs": [
        {
          "internalType": "bytes4",
          "name": "",
          "type": "bytes4"
        }
      ],
      "stateMutability": "nonpayable",
      "type": "function"
    }
  ],
  "bytecode": "0x608060405234801561001057600080fd5b50613f79806100206000396000f3fe608060405234801561001057600080fd5b506004361061014d5760003560e01c80636352211e116100c3578063a6487c531161007c578063a6487c5314610842578063b88d4fde14610a2b578063bc197c8114610b30578063c87b56dd14610da5578063e985e9c514610e4c578063f23a6e6114610ec85761014d565b80636352211e146105a35780636c0360eb1461061157806370a082311461069457806389e7e2f2146106ec57806395d89b411461076f578063a22cb465146107f25761014d565b806323b872dd1161011557806323b872dd146103145780632676608c146103825780632f745c591461042557806342842e0e146104875780634f6ccce7146104f557806360d4d23a146105375761014d565b806301ffc9a71461015257806306fdde03146101b7578063081812fc1461023a578063095ea7b3146102a857806318160ddd146102f6575b600080fd5b61019d6004803603602081101561016857600080fd5b8101908080357bffffffffffffffffffffffffffffffffffffffffffffffffffffffff19169060200190929190505050611029565b604051808215151515815260200191505060405180910390f35b6101bf611091565b6040518080602001828103825283818151815260200191508051906020019080838360005b838110156101ff5780820151818401526020810190506101e4565b50505050905090810190601f16801561022c5780820380516001836020036101000a031916815260200191505b509250505060405180910390f35b6102666004803603602081101561025057600080fd5b8101908080359060200190929190505050611133565b604051808273ffffffffffffffffffffffffffffffffffffffff1673ffffffffffffffffffffffffffffffffffffffff16815260200191505060405180910390f35b6102f4600480360360408110156102be57600080fd5b81019080803573ffffffffffffffffffffffffffffffffffffffff169060200190929190803590602001909291905050506111ce565b005b6102fe611312565b6040518082815260200191505060405180910390f35b6103806004803603606081101561032a57600080fd5b81019080803573ffffffffffffffffffffffffffffffffffffffff169060200190929190803573ffffffffffffffffffffffffffffffffffffffff16906020019092919080359060200190929190505050611323565b005b6103ce6004803603604081101561039857600080fd5b8101908080359060200190929190803573ffffffffffffffffffffffffffffffffffffffff169060200190929190505050611399565b6040518080602001828103825283818151815260200191508051906020019060200280838360005b838110156104115780820151818401526020810190506103f6565b505050509050019250505060405180910390f35b6104716004803603604081101561043b57600080fd5b81019080803573ffffffffffffffffffffffffffffffffffffffff1690602001909291908035906020019092919050505061151c565b6040518082815260200191505060405180910390f35b6104f36004803603606081101561049d57600080fd5b81019080803573ffffffffffffffffffffffffffffffffffffffff169060200190929190803573ffffffffffffffffffffffffffffffffffffffff16906020019092919080359060200190929190505050611577565b005b6105216004803603602081101561050b57600080fd5b8101908080359060200190929190505050611597565b6040518082815260200191505060405180910390f35b61058d6004803603606081101561054d57600080fd5b8101908080359060200190929190803573ffffffffffffffffffffffffffffffffffffffff169060200190929190803590602001909291905050506115ba565b6040518082815260200191505060405180910390f35b6105cf600480360360208110156105b957600080fd5b8101908080359060200190929190505050611627565b604051808273ffffffffffffffffffffffffffffffffffffffff1673ffffffffffffffffffffffffffffffffffffffff16815260200191505060405180910390f35b61061961165e565b6040518080602001828103825283818151815260200191508051906020019080838360005b8381101561065957808201518184015260208101905061063e565b50505050905090810190601f1680156106865780820380516001836020036101000a031916815260200191505b509250505060405180910390f35b6106d6600480360360208110156106aa57600080fd5b81019080803573ffffffffffffffffffffffffffffffffffffffff169060200190929190505050611700565b6040518082815260200191505060405180910390f35b6107186004803603602081101561070257600080fd5b81019080803590602001909291905050506117d5565b6040518080602001828103825283818151815260200191508051906020019060200280838360005b8381101561075b578082015181840152602081019050610740565b505050509050019250505060405180910390f35b6107776118ce565b6040518080602001828103825283818151815260200191508051906020019080838360005b838110156107b757808201518184015260208101905061079c565b50505050905090810190601f1680156107e45780820380516001836020036101000a031916815260200191505b509250505060405180910390f35b6108406004803603604081101561080857600080fd5b81019080803573ffffffffffffffffffffffffffffffffffffffff169060200190929190803515159060200190929190505050611970565b005b610a296004803603606081101561085857600080fd5b810190808035906020019064010000000081111561087557600080fd5b82018360208201111561088757600080fd5b803590602001918460018302840111640100000000831117156108a957600080fd5b91908080601f016020809104026020016040519081016040528093929190818152602001838380828437600081840152601f19601f8201169050808301925050505050505091929192908035906020019064010000000081111561090c57600080fd5b82018360208201111561091e57600080fd5b8035906020019184600183028401116401000000008311171561094057600080fd5b91908080601f016020809104026020016040519081016040528093929190818152602001838380828437600081840152601f19601f820116905080830192505050505050509192919290803590602001906401000000008111156109a357600080fd5b8201836020820111156109b557600080fd5b803590602001918460018302840111640100000000831117156109d757600080fd5b91908080601f016020809104026020016040519081016040528093929190818152602001838380828437600081840152601f19601f820116905080830192505050505050509192919290505050611b28565b005b610b2e60048036036080811015610a4157600080fd5b81019080803573ffffffffffffffffffffffffffffffffffffffff169060200190929190803573ffffffffffffffffffffffffffffffffffffffff1690602001909291908035906020019092919080359060200190640100000000811115610aa857600080fd5b820183602082011115610aba57600080fd5b80359060200191846001830284011164010000000083111715610adc57600080fd5b91908080601f016020809104026020016040519081016040528093929190818152602001838380828437600081840152601f19601f820116905080830192505050505050509192919290505050611c3d565b005b610d51600480360360a0811015610b4657600080fd5b81019080803573ffffffffffffffffffffffffffffffffffffffff169060200190929190803573ffffffffffffffffffffffffffffffffffffffff16906020019092919080359060200190640100000000811115610ba357600080fd5b820183602082011115610bb557600080fd5b80359060200191846020830284011164010000000083111715610bd757600080fd5b919080806020026020016040519081016040528093929190818152602001838360200280828437600081840152601f19601f82011690508083019250505050505050919291929080359060200190640100000000811115610c3757600080fd5b820183602082011115610c4957600080fd5b80359060200191846020830284011164010000000083111715610c6b57600080fd5b919080806020026020016040519081016040528093929190818152602001838360200280828437600081840152601f19601f82011690508083019250505050505050919291929080359060200190640100000000811115610ccb57600080fd5b820183602082011115610cdd57600080fd5b80359060200191846001830284011164010000000083111715610cff57600080fd5b91908080601f016020809104026020016040519081016040528093929190818152602001838380828437600081840152601f19601f820116905080830192505050505050509192919290505050611cb5565b60405180827bffffffffffffffffffffffffffffffffffffffffffffffffffffffff19167bffffffffffffffffffffffffffffffffffffffffffffffffffffffff1916815260200191505060405180910390f35b610dd160048036036020811015610dbb57600080fd5b8101908080359060200190929190505050611e84565b6040518080602001828103825283818151815260200191508051906020019080838360005b83811015610e11578082015181840152602081019050610df6565b50505050905090810190601f168015610e3e5780820380516001836020036101000a031916815260200191505b509250505060405180910390f35b610eae60048036036040811015610e6257600080fd5b81019080803573ffffffffffffffffffffffffffffffffffffffff169060200190929190803573ffffffffffffffffffffffffffffffffffffffff169060200190929190505050612155565b604051808215151515815260200191505060405180910390f35b610fd5600480360360a0811015610ede57600080fd5b81019080803573ffffffffffffffffffffffffffffffffffffffff169060200190929190803573ffffffffffffffffffffffffffffffffffffffff169060200190929190803590602001909291908035906020019092919080359060200190640100000000811115610f4f57600080fd5b820183602082011115610f6157600080fd5b80359060200191846001830284011164010000000083111715610f8357600080fd5b91908080601f016020809104026020016040519081016040528093929190818152602001838380828437600081840152601f19601f8201169050808301925050505050505091929192905050506121e9565b60405180827bffffffffffffffffffffffffffffffffffffffffffffffffffffffff19167bffffffffffffffffffffffffffffffffffffffffffffffffffffffff1916815260200191505060405180910390f35b600060336000837bffffffffffffffffffffffffffffffffffffffffffffffffffffffff19167bffffffffffffffffffffffffffffffffffffffffffffffffffffffff1916815260200190815260200160002060009054906101000a900460ff169050919050565b6060606a8054600181600116156101000203166002900480601f0160208091040260200160405190810160405280929190818152602001828054600181600116156101000203166002900480156111295780601f106110fe57610100808354040283529160200191611129565b820191906000526020600020905b81548152906001019060200180831161110c57829003601f168201915b5050505050905090565b600061113e82612305565b611193576040517f08c379a000000000000000000000000000000000000000000000000000000000815260040180806020018281038252602c815260200180613e47602c913960400191505060405180910390fd5b6068600083815260200190815260200160002060009054906101000a900473ffffffffffffffffffffffffffffffffffffffff169050919050565b60006111d982611627565b90508073ffffffffffffffffffffffffffffffffffffffff168373ffffffffffffffffffffffffffffffffffffffff161415611260576040517f08c379a0000000000000000000000000000000000000000000000000000000008152600401808060200182810382526021815260200180613ecb6021913960400191505060405180910390fd5b8073ffffffffffffffffffffffffffffffffffffffff1661127f612322565b73ffffffffffffffffffffffffffffffffffffffff1614806112ae57506112ad816112a8612322565b612155565b5b611303576040517f08c379a0000000000000000000000000000000000000000000000000000000008152600401808060200182810382526038815260200180613d6c6038913960400191505060405180910390fd5b61130d838361232a565b505050565b600061131e60666123e3565b905090565b61133461132e612322565b826123f8565b611389576040517f08c379a0000000000000000000000000000000000000000000000000000000008152600401808060200182810382526031815260200180613f136031913960400191505060405180910390fd5b6113948383836124ec565b505050565b6060806113f460cc600086815260200190815260200160002060008573ffffffffffffffffffffffffffffffffffffffff1673ffffffffffffffffffffffffffffffffffffffff16815260200190815260200160002061272f565b6040519080825280602002602001820160405280156114225781602001602082028036833780820191505090505b50905060008090505b61148360cc600087815260200190815260200160002060008673ffffffffffffffffffffffffffffffffffffffff1673ffffffffffffffffffffffffffffffffffffffff16815260200190815260200160002061272f565b811015611511576114ec8160cc600088815260200190815260200160002060008773ffffffffffffffffffffffffffffffffffffffff1673ffffffffffffffffffffffffffffffffffffffff16815260200190815260200160002061274490919063ffffffff16565b8282815181106114f857fe5b602002602001018181525050808060010191505061142b565b508091505092915050565b600061156f82606560008673ffffffffffffffffffffffffffffffffffffffff1673ffffffffffffffffffffffffffffffffffffffff16815260200190815260200160002061274490919063ffffffff16565b905092915050565b61159283838360405180602001604052806000815250611c3d565b505050565b6000806115ae83606661275e90919063ffffffff16565b50905080915050919050565b600060c9600085815260200190815260200160002060008473ffffffffffffffffffffffffffffffffffffffff1673ffffffffffffffffffffffffffffffffffffffff16815260200190815260200160002060008381526020019081526020016000205490509392505050565b600061165782604051806060016040528060298152602001613dce60299139606661278d9092919063ffffffff16565b9050919050565b6060606d8054600181600116156101000203166002900480601f0160208091040260200160405190810160405280929190818152602001828054600181600116156101000203166002900480156116f65780601f106116cb576101008083540402835291602001916116f6565b820191906000526020600020905b8154815290600101906020018083116116d957829003601f168201915b5050505050905090565b60008073ffffffffffffffffffffffffffffffffffffffff168273ffffffffffffffffffffffffffffffffffffffff161415611787576040517f08c379a000000000000000000000000000000000000000000000000000000000815260040180806020018281038252602a815260200180613da4602a913960400191505060405180910390fd5b6117ce606560008473ffffffffffffffffffffffffffffffffffffffff1673ffffffffffffffffffffffffffffffffffffffff16815260200190815260200160002061272f565b9050919050565b6060806117f360cb60008581526020019081526020016000206127ac565b6040519080825280602002602001820160405280156118215781602001602082028036833780820191505090505b50905060008090505b61184560cb60008681526020019081526020016000206127ac565b8110156118c4576118718160cb60008781526020019081526020016000206127c190919063ffffffff16565b82828151811061187d57fe5b602002602001019073ffffffffffffffffffffffffffffffffffffffff16908173ffffffffffffffffffffffffffffffffffffffff1681525050808060010191505061182a565b5080915050919050565b6060606b8054600181600116156101000203166002900480601f0160208091040260200160405190810160405280929190818152602001828054600181600116156101000203166002900480156119665780601f1061193b57610100808354040283529160200191611966565b820191906000526020600020905b81548152906001019060200180831161194957829003601f168201915b5050505050905090565b611978612322565b73ffffffffffffffffffffffffffffffffffffffff168273ffffffffffffffffffffffffffffffffffffffff161415611a19576040517f08c379a00000000000000000000000000000000000000000000000000000000081526004018080602001828103825260198152602001807f4552433732313a20617070726f766520746f2063616c6c65720000000000000081525060200191505060405180910390fd5b8060696000611a26612322565b73ffffffffffffffffffffffffffffffffffffffff1673ffffffffffffffffffffffffffffffffffffffff16815260200190815260200160002060008473ffffffffffffffffffffffffffffffffffffffff1673ffffffffffffffffffffffffffffffffffffffff16815260200190815260200160002060006101000a81548160ff0219169083151502179055508173ffffffffffffffffffffffffffffffffffffffff16611ad3612322565b73ffffffffffffffffffffffffffffffffffffffff167f17307eab39ab6107e8899845ad3d59bd9653f200f220920489ca2b5937696c3183604051808215151515815260200191505060405180910390a35050565b600060019054906101000a900460ff1680611b475750611b466127db565b5b80611b5e57506000809054906101000a900460ff16155b611bb3576040517f08c379a000000000000000000000000000000000000000000000000000000000815260040180806020018281038252602e815260200180613df7602e913960400191505060405180910390fd5b60008060019054906101000a900460ff161590508015611c03576001600060016101000a81548160ff02191690831515021790555060016000806101000a81548160ff0219169083151502179055505b611c0d84846127ec565b611c1682612907565b8015611c375760008060016101000a81548160ff0219169083151502179055505b50505050565b611c4e611c48612322565b836123f8565b611ca3576040517f08c379a0000000000000000000000000000000000000000000000000000000008152600401808060200182810382526031815260200180613f136031913960400191505060405180910390fd5b611caf84848484612921565b50505050565b60006020825114611d11576040517f08c379a0000000000000000000000000000000000000000000000000000000008152600401808060200182810382526053815260200180613ca36053913960600191505060405180910390fd5b8251845114611d6b576040517f08c379a0000000000000000000000000000000000000000000000000000000008152600401808060200182810382526027815260200180613eec6027913960400191505060405180910390fd5b611d7b8660003088888888612993565b600080602060003690500390508035915060008090505b8651811015611e6e57611dcd8333898481518110611dac57fe5b6020026020010151898581518110611dc057fe5b602002602001015161299c565b3373ffffffffffffffffffffffffffffffffffffffff16838973ffffffffffffffffffffffffffffffffffffffff167fa18753b0660a8be2cdae03468c860b47c2926433ab16917f323544652803032d8a8581518110611e2957fe5b60200260200101518a8681518110611e3d57fe5b6020026020010151604051808381526020018281526020019250505060405180910390a48080600101915050611d92565b5063bc197c8160e01b9250505095945050505050565b6060611e8f82612305565b611ee4576040517f08c379a000000000000000000000000000000000000000000000000000000000815260040180806020018281038252602f815260200180613e9c602f913960400191505060405180910390fd5b6060606c60008481526020019081526020016000208054600181600116156101000203166002900480601f016020809104026020016040519081016040528092919081815260200182805460018160011615610100020316600290048015611f8d5780601f10611f6257610100808354040283529160200191611f8d565b820191906000526020600020905b815481529060010190602001808311611f7057829003601f168201915b505050505090506060611f9e61165e565b9050600081511415611fb4578192505050612150565b6000825111156120855780826040516020018083805190602001908083835b60208310611ff65780518252602082019150602081019050602083039250611fd3565b6001836020036101000a03801982511681845116808217855250505050505090500182805190602001908083835b602083106120475780518252602082019150602081019050602083039250612024565b6001836020036101000a0380198251168184511680821785525050505050509050019250505060405160208183030381529060405292505050612150565b8061208f85612b2f565b6040516020018083805190602001908083835b602083106120c557805182526020820191506020810190506020830392506120a2565b6001836020036101000a03801982511681845116808217855250505050505090500182805190602001908083835b6020831061211657805182526020820191506020810190506020830392506120f3565b6001836020036101000a03801982511681845116808217855250505050505090500192505050604051602081830303815290604052925050505b919050565b6000606960008473ffffffffffffffffffffffffffffffffffffffff1673ffffffffffffffffffffffffffffffffffffffff16815260200190815260200160002060008373ffffffffffffffffffffffffffffffffffffffff1673ffffffffffffffffffffffffffffffffffffffff16815260200190815260200160002060009054906101000a900460ff16905092915050565b60006020825114612245576040517f08c379a0000000000000000000000000000000000000000000000000000000008152600401808060200182810382526053815260200180613ca36053913960600191505060405180910390fd5b612265866000308861225689612c5f565b61225f89612c5f565b88612993565b60008060206000369050039050803591506122828233888861299c565b3373ffffffffffffffffffffffffffffffffffffffff16828873ffffffffffffffffffffffffffffffffffffffff167fa18753b0660a8be2cdae03468c860b47c2926433ab16917f323544652803032d8989604051808381526020018281526020019250505060405180910390a463f23a6e6160e01b9250505095945050505050565b600061231b826066612cb890919063ffffffff16565b9050919050565b600033905090565b816068600083815260200190815260200160002060006101000a81548173ffffffffffffffffffffffffffffffffffffffff021916908373ffffffffffffffffffffffffffffffffffffffff160217905550808273ffffffffffffffffffffffffffffffffffffffff1661239d83611627565b73ffffffffffffffffffffffffffffffffffffffff167f8c5be1e5ebec7d5bd14f71427d1e84f3dd0314c0f7b2291e5b200ac8c7c3b92560405160405180910390a45050565b60006123f182600001612cd2565b9050919050565b600061240382612305565b612458576040517f08c379a000000000000000000000000000000000000000000000000000000000815260040180806020018281038252602c815260200180613d40602c913960400191505060405180910390fd5b600061246383611627565b90508073ffffffffffffffffffffffffffffffffffffffff168473ffffffffffffffffffffffffffffffffffffffff1614806124d257508373ffffffffffffffffffffffffffffffffffffffff166124ba84611133565b73ffffffffffffffffffffffffffffffffffffffff16145b806124e357506124e28185612155565b5b91505092915050565b8273ffffffffffffffffffffffffffffffffffffffff1661250c82611627565b73ffffffffffffffffffffffffffffffffffffffff1614612578576040517f08c379a0000000000000000000000000000000000000000000000000000000008152600401808060200182810382526029815260200180613e736029913960400191505060405180910390fd5b600073ffffffffffffffffffffffffffffffffffffffff168273ffffffffffffffffffffffffffffffffffffffff1614156125fe576040517f08c379a0000000000000000000000000000000000000000000000000000000008152600401808060200182810382526024815260200180613cf66024913960400191505060405180910390fd5b612609838383612ce3565b61261460008261232a565b61266581606560008673ffffffffffffffffffffffffffffffffffffffff1673ffffffffffffffffffffffffffffffffffffffff168152602001908152602001600020612ce890919063ffffffff16565b506126b781606560008573ffffffffffffffffffffffffffffffffffffffff1673ffffffffffffffffffffffffffffffffffffffff168152602001908152602001600020612d0290919063ffffffff16565b506126ce81836066612d1c9092919063ffffffff16565b50808273ffffffffffffffffffffffffffffffffffffffff168473ffffffffffffffffffffffffffffffffffffffff167fddf252ad1be2c89b69c2b068fc378daa952ba7f163c4a11628f55a4df523b3ef60405160405180910390a4505050565b600061273d82600001612d51565b9050919050565b60006127538360000183612d62565b60001c905092915050565b6000806000806127718660000186612de5565b915091508160001c8160001c8090509350935050509250929050565b60006127a0846000018460001b84612e7e565b60001c90509392505050565b60006127ba82600001612d51565b9050919050565b60006127d08360000183612d62565b60001c905092915050565b60006127e630612f74565b15905090565b600060019054906101000a900460ff168061280b575061280a6127db565b5b8061282257506000809054906101000a900460ff16155b612877576040517f08c379a000000000000000000000000000000000000000000000000000000000815260040180806020018281038252602e815260200180613df7602e913960400191505060405180910390fd5b60008060019054906101000a900460ff1615905080156128c7576001600060016101000a81548160ff02191690831515021790555060016000806101000a81548160ff0219169083151502179055505b6128cf612f87565b6128d7613086565b6128e18383613195565b80156129025760008060016101000a81548160ff0219169083151502179055505b505050565b80606d908051906020019061291d929190613ba9565b5050565b61292c8484846124ec565b612938848484846132f4565b61298d576040517f08c379a0000000000000000000000000000000000000000000000000000000008152600401808060200182810382526032815260200180613c716032913960400191505060405180910390fd5b50505050565b50505050505050565b6129c18360cb600087815260200190815260200160002061353990919063ffffffff16565b6129ec576129ea8360cb600087815260200190815260200160002061356990919063ffffffff16565b505b600060c9600086815260200190815260200160002060008573ffffffffffffffffffffffffffffffffffffffff1673ffffffffffffffffffffffffffffffffffffffff1681526020019081526020016000206000848152602001908152602001600020541415612aba57612ab88260cc600085815260200190815260200160002060008673ffffffffffffffffffffffffffffffffffffffff1673ffffffffffffffffffffffffffffffffffffffff168152602001908152602001600020612d0290919063ffffffff16565b505b8060c9600086815260200190815260200160002060008573ffffffffffffffffffffffffffffffffffffffff1673ffffffffffffffffffffffffffffffffffffffff16815260200190815260200160002060008481526020019081526020016000206000828254019250508190555050505050565b60606000821415612b77576040518060400160405280600181526020017f30000000000000000000000000000000000000000000000000000000000000008152509050612c5a565b600082905060005b60008214612ba1578080600101915050600a8281612b9957fe5b049150612b7f565b6060816040519080825280601f01601f191660200182016040528015612bd65781602001600182028036833780820191505090505b50905060006001830390508593505b60008414612c5257600a8481612bf757fe5b0660300160f81b82828060019003935081518110612c1157fe5b60200101907effffffffffffffffffffffffffffffffffffffffffffffffffffffffffffff1916908160001a905350600a8481612c4a57fe5b049350612be5565b819450505050505b919050565b6060806001604051908082528060200260200182016040528015612c925781602001602082028036833780820191505090505b5090508281600081518110612ca357fe5b60200260200101818152505080915050919050565b6000612cca836000018360001b613599565b905092915050565b600081600001805490509050919050565b505050565b6000612cfa836000018360001b6135bc565b905092915050565b6000612d14836000018360001b6136a4565b905092915050565b6000612d48846000018460001b8473ffffffffffffffffffffffffffffffffffffffff1660001b613714565b90509392505050565b600081600001805490509050919050565b600081836000018054905011612dc3576040517f08c379a0000000000000000000000000000000000000000000000000000000008152600401808060200182810382526022815260200180613c4f6022913960400191505060405180910390fd5b826000018281548110612dd257fe5b9060005260206000200154905092915050565b60008082846000018054905011612e47576040517f08c379a0000000000000000000000000000000000000000000000000000000008152600401808060200182810382526022815260200180613e256022913960400191505060405180910390fd5b6000846000018481548110612e5857fe5b906000526020600020906002020190508060000154816001015492509250509250929050565b60008084600101600085815260200190815260200160002054905060008114158390612f45576040517f08c379a00000000000000000000000000000000000000000000000000000000081526004018080602001828103825283818151815260200191508051906020019080838360005b83811015612f0a578082015181840152602081019050612eef565b50505050905090810190601f168015612f375780820380516001836020036101000a031916815260200191505b509250505060405180910390fd5b50846000016001820381548110612f5857fe5b9060005260206000209060020201600101549150509392505050565b600080823b905060008111915050919050565b600060019054906101000a900460ff1680612fa65750612fa56127db565b5b80612fbd57506000809054906101000a900460ff16155b613012576040517f08c379a000000000000000000000000000000000000000000000000000000000815260040180806020018281038252602e815260200180613df7602e913960400191505060405180910390fd5b60008060019054906101000a900460ff161590508015613062576001600060016101000a81548160ff02191690831515021790555060016000806101000a81548160ff0219169083151502179055505b80156130835760008060016101000a81548160ff0219169083151502179055505b50565b600060019054906101000a900460ff16806130a557506130a46127db565b5b806130bc57506000809054906101000a900460ff16155b613111576040517f08c379a000000000000000000000000000000000000000000000000000000000815260040180806020018281038252602e815260200180613df7602e913960400191505060405180910390fd5b60008060019054906101000a900460ff161590508015613161576001600060016101000a81548160ff02191690831515021790555060016000806101000a81548160ff0219169083151502179055505b6131716301ffc9a760e01b6137f0565b80156131925760008060016101000a81548160ff0219169083151502179055505b50565b600060019054906101000a900460ff16806131b457506131b36127db565b5b806131cb57506000809054906101000a900460ff16155b613220576040517f08c379a000000000000000000000000000000000000000000000000000000000815260040180806020018281038252602e815260200180613df7602e913960400191505060405180910390fd5b60008060019054906101000a900460ff161590508015613270576001600060016101000a81548160ff02191690831515021790555060016000806101000a81548160ff0219169083151502179055505b82606a9080519060200190613286929190613ba9565b5081606b908051906020019061329d929190613ba9565b506132ae6380ac58cd60e01b6137f0565b6132be635b5e139f60e01b6137f0565b6132ce63780e9d6360e01b6137f0565b80156132ef5760008060016101000a81548160ff0219169083151502179055505b505050565b60006133158473ffffffffffffffffffffffffffffffffffffffff16612f74565b6133225760019050613531565b60606134b863150b7a0260e01b613337612322565b888787604051602401808573ffffffffffffffffffffffffffffffffffffffff1673ffffffffffffffffffffffffffffffffffffffff1681526020018473ffffffffffffffffffffffffffffffffffffffff1673ffffffffffffffffffffffffffffffffffffffff16815260200183815260200180602001828103825283818151815260200191508051906020019080838360005b838110156133e75780820151818401526020810190506133cc565b50505050905090810190601f1680156134145780820380516001836020036101000a031916815260200191505b5095505050505050604051602081830303815290604052907bffffffffffffffffffffffffffffffffffffffffffffffffffffffff19166020820180517bffffffffffffffffffffffffffffffffffffffffffffffffffffffff8381831617835250505050604051806060016040528060328152602001613c71603291398773ffffffffffffffffffffffffffffffffffffffff166138f99092919063ffffffff16565b905060008180602001905160208110156134d157600080fd5b8101908080519060200190929190505050905063150b7a0260e01b7bffffffffffffffffffffffffffffffffffffffffffffffffffffffff1916817bffffffffffffffffffffffffffffffffffffffffffffffffffffffff191614925050505b949350505050565b6000613561836000018373ffffffffffffffffffffffffffffffffffffffff1660001b613911565b905092915050565b6000613591836000018373ffffffffffffffffffffffffffffffffffffffff1660001b6136a4565b905092915050565b600080836001016000848152602001908152602001600020541415905092915050565b60008083600101600084815260200190815260200160002054905060008114613698576000600182039050600060018660000180549050039050600086600001828154811061360757fe5b906000526020600020015490508087600001848154811061362457fe5b906000526020600020018190555060018301876001016000838152602001908152602001600020819055508660000180548061365c57fe5b6001900381819060005260206000200160009055905586600101600087815260200190815260200160002060009055600194505050505061369e565b60009150505b92915050565b60006136b08383613911565b61370957826000018290806001815401808255809150506001900390600052602060002001600090919091909150558260000180549050836001016000848152602001908152602001600020819055506001905061370e565b600090505b92915050565b60008084600101600085815260200190815260200160002054905060008114156137bb578460000160405180604001604052808681526020018581525090806001815401808255809150506001900390600052602060002090600202016000909190919091506000820151816000015560208201518160010155505084600001805490508560010160008681526020019081526020016000208190555060019150506137e9565b828560000160018303815481106137ce57fe5b90600052602060002090600202016001018190555060009150505b9392505050565b63ffffffff60e01b817bffffffffffffffffffffffffffffffffffffffffffffffffffffffff1916141561388c576040517f08c379a000000000000000000000000000000000000000000000000000000000815260040180806020018281038252601c8152602001807f4552433136353a20696e76616c696420696e746572666163652069640000000081525060200191505060405180910390fd5b600160336000837bffffffffffffffffffffffffffffffffffffffffffffffffffffffff19167bffffffffffffffffffffffffffffffffffffffffffffffffffffffff1916815260200190815260200160002060006101000a81548160ff02191690831515021790555050565b60606139088484600085613934565b90509392505050565b600080836001016000848152602001908152602001600020541415905092915050565b60608247101561398f576040517f08c379a0000000000000000000000000000000000000000000000000000000008152600401808060200182810382526026815260200180613d1a6026913960400191505060405180910390fd5b61399885612f74565b613a0a576040517f08c379a000000000000000000000000000000000000000000000000000000000815260040180806020018281038252601d8152602001807f416464726573733a2063616c6c20746f206e6f6e2d636f6e747261637400000081525060200191505060405180910390fd5b600060608673ffffffffffffffffffffffffffffffffffffffff1685876040518082805190602001908083835b60208310613a5a5780518252602082019150602081019050602083039250613a37565b6001836020036101000a03801982511681845116808217855250505050505090500191505060006040518083038185875af1925050503d8060008114613abc576040519150601f19603f3d011682016040523d82523d6000602084013e613ac1565b606091505b5091509150613ad1828286613add565b92505050949350505050565b60608315613aed57829050613ba2565b600083511115613b005782518084602001fd5b816040517f08c379a00000000000000000000000000000000000000000000000000000000081526004018080602001828103825283818151815260200191508051906020019080838360005b83811015613b67578082015181840152602081019050613b4c565b50505050905090810190601f168015613b945780820380516001836020036101000a031916815260200191505b509250505060405180910390fd5b9392505050565b828054600181600116156101000203166002900490600052602060002090601f016020900481019282601f10613bea57805160ff1916838001178555613c18565b82800160010185558215613c18579182015b82811115613c17578251825591602001919060010190613bfc565b5b509050613c259190613c29565b5090565b613c4b91905b80821115613c47576000816000905550600101613c2f565b5090565b9056fe456e756d657261626c655365743a20696e646578206f7574206f6620626f756e64734552433732313a207472616e7366657220746f206e6f6e20455243373231526563656976657220696d706c656d656e7465724552433939383a2064617461206d75737420636f6e7461696e2074686520756e697175652075696e7432353620746f6b656e496420746f207472616e7366657220746865206368696c6420746f6b656e20746f4552433732313a207472616e7366657220746f20746865207a65726f2061646472657373416464726573733a20696e73756666696369656e742062616c616e636520666f722063616c6c4552433732313a206f70657261746f7220717565727920666f72206e6f6e6578697374656e7420746f6b656e4552433732313a20617070726f76652063616c6c6572206973206e6f74206f776e6572206e6f7220617070726f76656420666f7220616c6c4552433732313a2062616c616e636520717565727920666f7220746865207a65726f20616464726573734552433732313a206f776e657220717565727920666f72206e6f6e6578697374656e7420746f6b656e496e697469616c697a61626c653a20636f6e747261637420697320616c726561647920696e697469616c697a6564456e756d657261626c654d61703a20696e646578206f7574206f6620626f756e64734552433732313a20617070726f76656420717565727920666f72206e6f6e6578697374656e7420746f6b656e4552433732313a207472616e73666572206f6620746f6b656e2074686174206973206e6f74206f776e4552433732314d657461646174613a2055524920717565727920666f72206e6f6e6578697374656e7420746f6b656e4552433732313a20617070726f76616c20746f2063757272656e74206f776e6572455243313135353a2069647320616e642076616c756573206c656e677468206d69736d617463684552433732313a207472616e736665722063616c6c6572206973206e6f74206f776e6572206e6f7220617070726f766564a2646970667358221220d84a2d115332eb92a115d90c444978c26c6eef3c192543bb504cb557c25915b364736f6c63430006030033",
  "source": "// SPDX-License-Identifier: UNLICENSED\n\npragma solidity ^0.6.0;\n\nimport \"@openzeppelin/contracts-upgradeable/proxy/Initializable.sol\";\nimport \"@openzeppelin/contracts-upgradeable/token/ERC1155/ERC1155Upgradeable.sol\";\nimport \"@openzeppelin/contracts-upgradeable/token/ERC1155/ERC1155ReceiverUpgradeable.sol\";\nimport \"@openzeppelin/contracts-upgradeable/token/ERC721/ERC721Upgradeable.sol\";\nimport \"@openzeppelin/contracts-upgradeable/utils/EnumerableSetUpgradeable.sol\";\nimport \"./IERC998ERC1155TopDownUpgradeable.sol\";\n\ncontract ERC998ERC1155TopDownUpgradeable is\n    Initializable,\n    ERC721Upgradeable,\n    ERC1155ReceiverUpgradeable,\n    IERC998ERC1155TopDownUpgradeable\n{\n    using EnumerableSetUpgradeable for EnumerableSetUpgradeable.AddressSet;\n    using EnumerableSetUpgradeable for EnumerableSetUpgradeable.UintSet;\n\n    mapping(uint256 => mapping(address => mapping(uint256 => uint256)))\n        private _balances;\n\n    mapping(address => mapping(uint256 => EnumerableSetUpgradeable.UintSet))\n        private _holdersOf;\n\n    mapping(uint256 => EnumerableSetUpgradeable.AddressSet)\n        private _childContract;\n\n    mapping(uint256 => mapping(address => EnumerableSetUpgradeable.UintSet))\n        private _childsForChildContract;\n\n    function initialize(\n        string memory _name,\n        string memory _symbol,\n        string memory _baseURI\n    ) public initializer {\n        __ERC721_init(_name, _symbol);\n        _setBaseURI(_baseURI);\n    }\n\n    /**\n     * @notice tier level for a composable\n     *\n     *\n     * @dev Gives child balance for a specific child contract and child id .\n     * @param composableId, composable ID\n     * @param childContract 1155tier upgrade contract\n     * @param tierId tier level\n     * @return uint tier\n     */\n    function childBalance(\n        uint256 composableId,\n        address childContract, // ERC1155TUMP contract address\n        uint256 tierId\n    ) external view override returns (uint256) {\n        return _balances[composableId][childContract][tierId];\n    }\n\n    /**\n     *\n     *\n     * @dev Gives list of child contract where token ID has childs.\n     */\n\n    function childContractsFor(uint256 composableId)\n        external\n        view\n        override\n        returns (address[] memory)\n    {\n        address[] memory childContracts = new address[](\n            _childContract[composableId].length()\n        );\n\n        for (uint256 i = 0; i < _childContract[composableId].length(); i++) {\n            childContracts[i] = _childContract[composableId].at(i);\n        }\n\n        return childContracts;\n    }\n\n    /**\n     * @dev Gives list of owned child ID on a child contract by token ID.\n     */\n    function childIdsForOn(uint256 composableId, address childContract)\n        public\n        view\n        override\n        returns (uint256[] memory)\n    {\n        uint256[] memory tierIds = new uint256[](\n            _childsForChildContract[composableId][childContract].length()\n        );\n\n        for (\n            uint256 i = 0;\n            i < _childsForChildContract[composableId][childContract].length();\n            i++\n        ) {\n            tierIds[i] = _childsForChildContract[composableId][childContract]\n                .at(i);\n        }\n\n        return tierIds;\n    }\n\n    function onERC1155Received(\n        address operator,\n        address from,\n        uint256 id,\n        uint256 amount,\n        bytes memory data\n    ) public virtual override returns (bytes4) {\n        // require(id == (tier.add(1)));\n        // checks\n        require(\n            data.length == 32,\n            \"ERC998: data must contain the unique uint256 tokenId to transfer the child token to\"\n        );\n        _beforeChildTransfer(\n            operator,\n            0,\n            address(this),\n            from,\n            _asSingletonArray(id),\n            _asSingletonArray(amount),\n            data\n        );\n        uint256 _receiverTokenId;\n        uint256 _index = msg.data.length - 32;\n        assembly {\n            _receiverTokenId := calldataload(_index)\n        }\n\n        _receiveChild(_receiverTokenId, msg.sender, id, amount);\n        ReceivedChild(from, _receiverTokenId, msg.sender, id, amount);\n        //  tier++;\n        return this.onERC1155Received.selector;\n    }\n\n    // function _upgradeSNFTtier() {}\n\n    function _receiveChild(\n        uint256 tokenId, // composableId\n        address childContract, // 1155 tier contract\n        uint256 tierId,\n        uint256 amount // must be 1   a tier can only be upgrded once\n    ) internal virtual {\n        // check\n        if (!_childContract[tokenId].contains(childContract)) {\n            _childContract[tokenId].add(childContract);\n        }\n        if (_balances[tokenId][childContract][tierId] == 0) {\n            _childsForChildContract[tierId][childContract].add(tierId);\n        }\n        _balances[tokenId][childContract][tierId] += amount; //this\n    }\n\n    function _removeChild(\n        uint256 tokenId,\n        address childContract,\n        uint256 tierId,\n        uint256 amount\n    ) internal virtual {\n        require(\n            amount != 0 || _balances[tokenId][childContract][tierId] >= amount,\n            \"ERC998: insufficient child balance for transfer\"\n        );\n        _balances[tokenId][childContract][tierId] -= amount;\n        if (_balances[tokenId][childContract][tierId] == 0) {\n            _holdersOf[childContract][tierId].remove(tokenId);\n            _childsForChildContract[tokenId][childContract].remove(tierId);\n            if (_childsForChildContract[tokenId][childContract].length() == 0) {\n                _childContract[tokenId].remove(childContract);\n            }\n        }\n    }\n\n    function _beforeChildTransfer(\n        address operator,\n        uint256 fromTokenId,\n        address to,\n        address childContract,\n        uint256[] memory ids,\n        uint256[] memory amounts,\n        bytes memory data\n    ) internal virtual {}\n\n    function _asSingletonArray(uint256 element)\n        private\n        pure\n        returns (uint256[] memory)\n    {\n        uint256[] memory array = new uint256[](1);\n        array[0] = element;\n\n        return array;\n    }\n\n    /**\n     * @dev Receives a batch of child tokens, the receiver token ID must be\n     * encoded in the field data.\n     */\n    function onERC1155BatchReceived(\n        address operator,\n        address from,\n        uint256[] memory ids,\n        uint256[] memory values,\n        bytes memory data\n    ) public virtual override returns (bytes4) {\n        require(\n            data.length == 32,\n            \"ERC998: data must contain the unique uint256 tokenId to transfer the child token to\"\n        );\n        require(\n            ids.length == values.length,\n            \"ERC1155: ids and values length mismatch\"\n        );\n        _beforeChildTransfer(\n            operator,\n            0,\n            address(this),\n            from,\n            ids,\n            values,\n            data\n        );\n\n        uint256 _receiverTokenId;\n        uint256 _index = msg.data.length - 32;\n        assembly {\n            _receiverTokenId := calldataload(_index)\n        }\n        for (uint256 i = 0; i < ids.length; i++) {\n            _receiveChild(_receiverTokenId, msg.sender, ids[i], values[i]);\n            ReceivedChild(\n                from,\n                _receiverTokenId,\n                msg.sender,\n                ids[i],\n                values[i]\n            );\n        }\n        return this.onERC1155BatchReceived.selector;\n    }\n}\n",
  "sourcePath": "/home/waverune/respct-club/ERC998ERC1155/contracts/ERC998ERC1155TopDownUpgradeable.sol",
  "compiler": {
    "name": "solc",
    "version": "0.6.3+commit.8dda9521.Emscripten.clang"
  },
  "schemaVersion": "3.4.1",
  "updatedAt": "2022-03-22T18:11:32.382Z",
  "devdoc": {
    "methods": {
      "approve(address,uint256)": {
        "details": "See {IERC721-approve}."
      },
      "balanceOf(address)": {
        "details": "See {IERC721-balanceOf}."
      },
      "baseURI()": {
        "details": "Returns the base URI set via {_setBaseURI}. This will be automatically added as a prefix in {tokenURI} to each token's URI, or to the token ID if no specific URI is set for that token ID."
      },
      "childBalance(uint256,address,uint256)": {
        "details": "Gives child balance for a specific child contract and child id .",
        "params": {
          "childContract": "1155tier upgrade contract",
          "composableId": ", composable ID",
          "tierId": "tier level"
        },
        "returns": {
          "_0": "uint tier"
        }
      },
      "childContractsFor(uint256)": {
        "details": "Gives list of child contract where token ID has childs."
      },
      "childIdsForOn(uint256,address)": {
        "details": "Gives list of owned child ID on a child contract by token ID."
      },
      "getApproved(uint256)": {
        "details": "See {IERC721-getApproved}."
      },
      "isApprovedForAll(address,address)": {
        "details": "See {IERC721-isApprovedForAll}."
      },
      "name()": {
        "details": "See {IERC721Metadata-name}."
      },
      "onERC1155BatchReceived(address,address,uint256[],uint256[],bytes)": {
        "details": "Receives a batch of child tokens, the receiver token ID must be encoded in the field data."
      },
      "ownerOf(uint256)": {
        "details": "See {IERC721-ownerOf}."
      },
      "safeTransferFrom(address,address,uint256)": {
        "details": "See {IERC721-safeTransferFrom}."
      },
      "safeTransferFrom(address,address,uint256,bytes)": {
        "details": "See {IERC721-safeTransferFrom}."
      },
      "setApprovalForAll(address,bool)": {
        "details": "See {IERC721-setApprovalForAll}."
      },
      "supportsInterface(bytes4)": {
        "details": "See {IERC165-supportsInterface}.     * Time complexity O(1), guaranteed to always use less than 30 000 gas."
      },
      "symbol()": {
        "details": "See {IERC721Metadata-symbol}."
      },
      "tokenByIndex(uint256)": {
        "details": "See {IERC721Enumerable-tokenByIndex}."
      },
      "tokenOfOwnerByIndex(address,uint256)": {
        "details": "See {IERC721Enumerable-tokenOfOwnerByIndex}."
      },
      "tokenURI(uint256)": {
        "details": "See {IERC721Metadata-tokenURI}."
      },
      "totalSupply()": {
        "details": "See {IERC721Enumerable-totalSupply}."
      },
      "transferFrom(address,address,uint256)": {
        "details": "See {IERC721-transferFrom}."
      }
    }
  },
  "userdoc": {
    "methods": {
      "childBalance(uint256,address,uint256)": {
        "notice": "tier level for a composable     *"
      },
      "childContractsFor(uint256)": {
        "notice": "*"
      }
    }
  }
}