{
  "contractName": "ERC998ERC1155TopDownPresetMinterPauser",
  "abi": [
    {
      "inputs": [
        {
          "internalType": "string",
          "name": "name",
          "type": "string"
        },
        {
          "internalType": "string",
          "name": "symbol",
          "type": "string"
        },
        {
          "internalType": "string",
          "name": "baseURI",
          "type": "string"
        },
        {
          "internalType": "uint256",
          "name": "_fEngagementPoints",
          "type": "uint256"
        }
      ],
      "stateMutability": "nonpayable",
      "type": "constructor"
    },
    {
      "anonymous": false,
      "inputs": [
        {
          "indexed": true,
          "internalType": "address",
          "name": "owner",
          "type": "address"
        },
        {
          "indexed": true,
          "internalType": "address",
          "name": "approved",
          "type": "address"
        },
        {
          "indexed": true,
          "internalType": "uint256",
          "name": "tokenId",
          "type": "uint256"
        }
      ],
      "name": "Approval",
      "type": "event"
    },
    {
      "anonymous": false,
      "inputs": [
        {
          "indexed": true,
          "internalType": "address",
          "name": "owner",
          "type": "address"
        },
        {
          "indexed": true,
          "internalType": "address",
          "name": "operator",
          "type": "address"
        },
        {
          "indexed": false,
          "internalType": "bool",
          "name": "approved",
          "type": "bool"
        }
      ],
      "name": "ApprovalForAll",
      "type": "event"
    },
    {
      "anonymous": false,
      "inputs": [
        {
          "indexed": false,
          "internalType": "address",
          "name": "account",
          "type": "address"
        }
      ],
      "name": "Paused",
      "type": "event"
    },
    {
      "anonymous": false,
      "inputs": [
        {
          "indexed": true,
          "internalType": "address",
          "name": "from",
          "type": "address"
        },
        {
          "indexed": true,
          "internalType": "uint256",
          "name": "toTokenId",
          "type": "uint256"
        },
        {
          "indexed": true,
          "internalType": "address",
          "name": "childContract",
          "type": "address"
        },
        {
          "indexed": false,
          "internalType": "uint256",
          "name": "childTokenId",
          "type": "uint256"
        },
        {
          "indexed": false,
          "internalType": "uint256",
          "name": "amount",
          "type": "uint256"
        }
      ],
      "name": "ReceivedChild",
      "type": "event"
    },
    {
      "anonymous": false,
      "inputs": [
        {
          "indexed": true,
          "internalType": "bytes32",
          "name": "role",
          "type": "bytes32"
        },
        {
          "indexed": true,
          "internalType": "bytes32",
          "name": "previousAdminRole",
          "type": "bytes32"
        },
        {
          "indexed": true,
          "internalType": "bytes32",
          "name": "newAdminRole",
          "type": "bytes32"
        }
      ],
      "name": "RoleAdminChanged",
      "type": "event"
    },
    {
      "anonymous": false,
      "inputs": [
        {
          "indexed": true,
          "internalType": "bytes32",
          "name": "role",
          "type": "bytes32"
        },
        {
          "indexed": true,
          "internalType": "address",
          "name": "account",
          "type": "address"
        },
        {
          "indexed": true,
          "internalType": "address",
          "name": "sender",
          "type": "address"
        }
      ],
      "name": "RoleGranted",
      "type": "event"
    },
    {
      "anonymous": false,
      "inputs": [
        {
          "indexed": true,
          "internalType": "bytes32",
          "name": "role",
          "type": "bytes32"
        },
        {
          "indexed": true,
          "internalType": "address",
          "name": "account",
          "type": "address"
        },
        {
          "indexed": true,
          "internalType": "address",
          "name": "sender",
          "type": "address"
        }
      ],
      "name": "RoleRevoked",
      "type": "event"
    },
    {
      "anonymous": false,
      "inputs": [
        {
          "indexed": true,
          "internalType": "address",
          "name": "from",
          "type": "address"
        },
        {
          "indexed": true,
          "internalType": "address",
          "name": "to",
          "type": "address"
        },
        {
          "indexed": true,
          "internalType": "uint256",
          "name": "tokenId",
          "type": "uint256"
        }
      ],
      "name": "Transfer",
      "type": "event"
    },
    {
      "anonymous": false,
      "inputs": [
        {
          "indexed": true,
          "internalType": "uint256",
          "name": "fromTokenId",
          "type": "uint256"
        },
        {
          "indexed": true,
          "internalType": "address",
          "name": "to",
          "type": "address"
        },
        {
          "indexed": true,
          "internalType": "address",
          "name": "childContract",
          "type": "address"
        },
        {
          "indexed": false,
          "internalType": "uint256[]",
          "name": "childTokenIds",
          "type": "uint256[]"
        },
        {
          "indexed": false,
          "internalType": "uint256[]",
          "name": "amounts",
          "type": "uint256[]"
        }
      ],
      "name": "TransferBatchChild",
      "type": "event"
    },
    {
      "anonymous": false,
      "inputs": [
        {
          "indexed": true,
          "internalType": "uint256",
          "name": "fromTokenId",
          "type": "uint256"
        },
        {
          "indexed": true,
          "internalType": "address",
          "name": "to",
          "type": "address"
        },
        {
          "indexed": true,
          "internalType": "address",
          "name": "childContract",
          "type": "address"
        },
        {
          "indexed": false,
          "internalType": "uint256",
          "name": "childTokenId",
          "type": "uint256"
        },
        {
          "indexed": false,
          "internalType": "uint256",
          "name": "amount",
          "type": "uint256"
        }
      ],
      "name": "TransferSingleChild",
      "type": "event"
    },
    {
      "anonymous": false,
      "inputs": [
        {
          "indexed": false,
          "internalType": "address",
          "name": "account",
          "type": "address"
        }
      ],
      "name": "Unpaused",
      "type": "event"
    },
    {
      "inputs": [],
      "name": "DEFAULT_ADMIN_ROLE",
      "outputs": [
        {
          "internalType": "bytes32",
          "name": "",
          "type": "bytes32"
        }
      ],
      "stateMutability": "view",
      "type": "function",
      "constant": true
    },
    {
      "inputs": [],
      "name": "MINTER_ROLE",
      "outputs": [
        {
          "internalType": "bytes32",
          "name": "",
          "type": "bytes32"
        }
      ],
      "stateMutability": "view",
      "type": "function",
      "constant": true
    },
    {
      "inputs": [],
      "name": "PAUSER_ROLE",
      "outputs": [
        {
          "internalType": "bytes32",
          "name": "",
          "type": "bytes32"
        }
      ],
      "stateMutability": "view",
      "type": "function",
      "constant": true
    },
    {
      "inputs": [
        {
          "internalType": "address",
          "name": "to",
          "type": "address"
        },
        {
          "internalType": "uint256",
          "name": "tokenId",
          "type": "uint256"
        }
      ],
      "name": "approve",
      "outputs": [],
      "stateMutability": "nonpayable",
      "type": "function"
    },
    {
      "inputs": [
        {
          "internalType": "address",
          "name": "owner",
          "type": "address"
        }
      ],
      "name": "balanceOf",
      "outputs": [
        {
          "internalType": "uint256",
          "name": "",
          "type": "uint256"
        }
      ],
      "stateMutability": "view",
      "type": "function",
      "constant": true
    },
    {
      "inputs": [],
      "name": "baseURI",
      "outputs": [
        {
          "internalType": "string",
          "name": "",
          "type": "string"
        }
      ],
      "stateMutability": "view",
      "type": "function",
      "constant": true
    },
    {
      "inputs": [
        {
          "internalType": "uint256",
          "name": "composableId",
          "type": "uint256"
        },
        {
          "internalType": "address",
          "name": "childContract",
          "type": "address"
        },
        {
          "internalType": "uint256",
          "name": "tierId",
          "type": "uint256"
        }
      ],
      "name": "childBalance",
      "outputs": [
        {
          "internalType": "uint256",
          "name": "",
          "type": "uint256"
        }
      ],
      "stateMutability": "view",
      "type": "function",
      "constant": true
    },
    {
      "inputs": [
        {
          "internalType": "uint256",
          "name": "composableId",
          "type": "uint256"
        }
      ],
      "name": "childContractsFor",
      "outputs": [
        {
          "internalType": "address[]",
          "name": "",
          "type": "address[]"
        }
      ],
      "stateMutability": "view",
      "type": "function",
      "constant": true
    },
    {
      "inputs": [
        {
          "internalType": "uint256",
          "name": "composableId",
          "type": "uint256"
        },
        {
          "internalType": "address",
          "name": "childContract",
          "type": "address"
        }
      ],
      "name": "childIdsForOn",
      "outputs": [
        {
          "internalType": "uint256[]",
          "name": "",
          "type": "uint256[]"
        }
      ],
      "stateMutability": "view",
      "type": "function",
      "constant": true
    },
    {
      "inputs": [
        {
          "internalType": "uint256",
          "name": "tokenId",
          "type": "uint256"
        }
      ],
      "name": "getApproved",
      "outputs": [
        {
          "internalType": "address",
          "name": "",
          "type": "address"
        }
      ],
      "stateMutability": "view",
      "type": "function",
      "constant": true
    },
    {
      "inputs": [
        {
          "internalType": "bytes32",
          "name": "role",
          "type": "bytes32"
        }
      ],
      "name": "getRoleAdmin",
      "outputs": [
        {
          "internalType": "bytes32",
          "name": "",
          "type": "bytes32"
        }
      ],
      "stateMutability": "view",
      "type": "function",
      "constant": true
    },
    {
      "inputs": [
        {
          "internalType": "bytes32",
          "name": "role",
          "type": "bytes32"
        },
        {
          "internalType": "uint256",
          "name": "index",
          "type": "uint256"
        }
      ],
      "name": "getRoleMember",
      "outputs": [
        {
          "internalType": "address",
          "name": "",
          "type": "address"
        }
      ],
      "stateMutability": "view",
      "type": "function",
      "constant": true
    },
    {
      "inputs": [
        {
          "internalType": "bytes32",
          "name": "role",
          "type": "bytes32"
        }
      ],
      "name": "getRoleMemberCount",
      "outputs": [
        {
          "internalType": "uint256",
          "name": "",
          "type": "uint256"
        }
      ],
      "stateMutability": "view",
      "type": "function",
      "constant": true
    },
    {
      "inputs": [
        {
          "internalType": "bytes32",
          "name": "role",
          "type": "bytes32"
        },
        {
          "internalType": "address",
          "name": "account",
          "type": "address"
        }
      ],
      "name": "grantRole",
      "outputs": [],
      "stateMutability": "nonpayable",
      "type": "function"
    },
    {
      "inputs": [
        {
          "internalType": "bytes32",
          "name": "role",
          "type": "bytes32"
        },
        {
          "internalType": "address",
          "name": "account",
          "type": "address"
        }
      ],
      "name": "hasRole",
      "outputs": [
        {
          "internalType": "bool",
          "name": "",
          "type": "bool"
        }
      ],
      "stateMutability": "view",
      "type": "function",
      "constant": true
    },
    {
      "inputs": [
        {
          "internalType": "address",
          "name": "owner",
          "type": "address"
        },
        {
          "internalType": "address",
          "name": "operator",
          "type": "address"
        }
      ],
      "name": "isApprovedForAll",
      "outputs": [
        {
          "internalType": "bool",
          "name": "",
          "type": "bool"
        }
      ],
      "stateMutability": "view",
      "type": "function",
      "constant": true
    },
    {
      "inputs": [],
      "name": "name",
      "outputs": [
        {
          "internalType": "string",
          "name": "",
          "type": "string"
        }
      ],
      "stateMutability": "view",
      "type": "function",
      "constant": true
    },
    {
      "inputs": [
        {
          "internalType": "address",
          "name": "operator",
          "type": "address"
        },
        {
          "internalType": "address",
          "name": "from",
          "type": "address"
        },
        {
          "internalType": "uint256[]",
          "name": "ids",
          "type": "uint256[]"
        },
        {
          "internalType": "uint256[]",
          "name": "values",
          "type": "uint256[]"
        },
        {
          "internalType": "bytes",
          "name": "data",
          "type": "bytes"
        }
      ],
      "name": "onERC1155BatchReceived",
      "outputs": [
        {
          "internalType": "bytes4",
          "name": "",
          "type": "bytes4"
        }
      ],
      "stateMutability": "nonpayable",
      "type": "function"
    },
    {
      "inputs": [
        {
          "internalType": "address",
          "name": "operator",
          "type": "address"
        },
        {
          "internalType": "address",
          "name": "from",
          "type": "address"
        },
        {
          "internalType": "uint256",
          "name": "id",
          "type": "uint256"
        },
        {
          "internalType": "uint256",
          "name": "amount",
          "type": "uint256"
        },
        {
          "internalType": "bytes",
          "name": "data",
          "type": "bytes"
        }
      ],
      "name": "onERC1155Received",
      "outputs": [
        {
          "internalType": "bytes4",
          "name": "",
          "type": "bytes4"
        }
      ],
      "stateMutability": "nonpayable",
      "type": "function"
    },
    {
      "inputs": [
        {
          "internalType": "uint256",
          "name": "tokenId",
          "type": "uint256"
        }
      ],
      "name": "ownerOf",
      "outputs": [
        {
          "internalType": "address",
          "name": "",
          "type": "address"
        }
      ],
      "stateMutability": "view",
      "type": "function",
      "constant": true
    },
    {
      "inputs": [
        {
          "internalType": "address",
          "name": "",
          "type": "address"
        }
      ],
      "name": "ownerToComposableId",
      "outputs": [
        {
          "internalType": "uint256",
          "name": "",
          "type": "uint256"
        }
      ],
      "stateMutability": "view",
      "type": "function",
      "constant": true
    },
    {
      "inputs": [],
      "name": "paused",
      "outputs": [
        {
          "internalType": "bool",
          "name": "",
          "type": "bool"
        }
      ],
      "stateMutability": "view",
      "type": "function",
      "constant": true
    },
    {
      "inputs": [
        {
          "internalType": "bytes32",
          "name": "role",
          "type": "bytes32"
        },
        {
          "internalType": "address",
          "name": "account",
          "type": "address"
        }
      ],
      "name": "renounceRole",
      "outputs": [],
      "stateMutability": "nonpayable",
      "type": "function"
    },
    {
      "inputs": [
        {
          "internalType": "bytes32",
          "name": "role",
          "type": "bytes32"
        },
        {
          "internalType": "address",
          "name": "account",
          "type": "address"
        }
      ],
      "name": "revokeRole",
      "outputs": [],
      "stateMutability": "nonpayable",
      "type": "function"
    },
    {
      "inputs": [
        {
          "internalType": "address",
          "name": "from",
          "type": "address"
        },
        {
          "internalType": "address",
          "name": "to",
          "type": "address"
        },
        {
          "internalType": "uint256",
          "name": "tokenId",
          "type": "uint256"
        }
      ],
      "name": "safeTransferFrom",
      "outputs": [],
      "stateMutability": "nonpayable",
      "type": "function"
    },
    {
      "inputs": [
        {
          "internalType": "address",
          "name": "from",
          "type": "address"
        },
        {
          "internalType": "address",
          "name": "to",
          "type": "address"
        },
        {
          "internalType": "uint256",
          "name": "tokenId",
          "type": "uint256"
        },
        {
          "internalType": "bytes",
          "name": "_data",
          "type": "bytes"
        }
      ],
      "name": "safeTransferFrom",
      "outputs": [],
      "stateMutability": "nonpayable",
      "type": "function"
    },
    {
      "inputs": [
        {
          "internalType": "address",
          "name": "operator",
          "type": "address"
        },
        {
          "internalType": "bool",
          "name": "approved",
          "type": "bool"
        }
      ],
      "name": "setApprovalForAll",
      "outputs": [],
      "stateMutability": "nonpayable",
      "type": "function"
    },
    {
      "inputs": [
        {
          "internalType": "bytes4",
          "name": "interfaceId",
          "type": "bytes4"
        }
      ],
      "name": "supportsInterface",
      "outputs": [
        {
          "internalType": "bool",
          "name": "",
          "type": "bool"
        }
      ],
      "stateMutability": "view",
      "type": "function",
      "constant": true
    },
    {
      "inputs": [],
      "name": "symbol",
      "outputs": [
        {
          "internalType": "string",
          "name": "",
          "type": "string"
        }
      ],
      "stateMutability": "view",
      "type": "function",
      "constant": true
    },
    {
      "inputs": [
        {
          "internalType": "uint256",
          "name": "index",
          "type": "uint256"
        }
      ],
      "name": "tokenByIndex",
      "outputs": [
        {
          "internalType": "uint256",
          "name": "",
          "type": "uint256"
        }
      ],
      "stateMutability": "view",
      "type": "function",
      "constant": true
    },
    {
      "inputs": [
        {
          "internalType": "address",
          "name": "owner",
          "type": "address"
        },
        {
          "internalType": "uint256",
          "name": "index",
          "type": "uint256"
        }
      ],
      "name": "tokenOfOwnerByIndex",
      "outputs": [
        {
          "internalType": "uint256",
          "name": "",
          "type": "uint256"
        }
      ],
      "stateMutability": "view",
      "type": "function",
      "constant": true
    },
    {
      "inputs": [
        {
          "internalType": "uint256",
          "name": "tokenId",
          "type": "uint256"
        }
      ],
      "name": "tokenURI",
      "outputs": [
        {
          "internalType": "string",
          "name": "",
          "type": "string"
        }
      ],
      "stateMutability": "view",
      "type": "function",
      "constant": true
    },
    {
      "inputs": [],
      "name": "totalSupply",
      "outputs": [
        {
          "internalType": "uint256",
          "name": "",
          "type": "uint256"
        }
      ],
      "stateMutability": "view",
      "type": "function",
      "constant": true
    },
    {
      "inputs": [
        {
          "internalType": "address",
          "name": "from",
          "type": "address"
        },
        {
          "internalType": "address",
          "name": "to",
          "type": "address"
        },
        {
          "internalType": "uint256",
          "name": "tokenId",
          "type": "uint256"
        }
      ],
      "name": "transferFrom",
      "outputs": [],
      "stateMutability": "nonpayable",
      "type": "function"
    },
    {
      "inputs": [
        {
          "internalType": "uint256",
          "name": "_tierId",
          "type": "uint256"
        },
        {
          "internalType": "uint256",
          "name": "_cost",
          "type": "uint256"
        }
      ],
      "name": "setTierUpgradeCost",
      "outputs": [],
      "stateMutability": "nonpayable",
      "type": "function"
    },
    {
      "inputs": [
        {
          "internalType": "uint256",
          "name": "_tierId",
          "type": "uint256"
        }
      ],
      "name": "getTierUpgradeCost",
      "outputs": [
        {
          "internalType": "uint256",
          "name": "",
          "type": "uint256"
        }
      ],
      "stateMutability": "view",
      "type": "function",
      "constant": true
    },
    {
      "inputs": [
        {
          "internalType": "address",
          "name": "_owner",
          "type": "address"
        }
      ],
      "name": "getComposableId",
      "outputs": [
        {
          "internalType": "uint256",
          "name": "",
          "type": "uint256"
        }
      ],
      "stateMutability": "view",
      "type": "function",
      "constant": true
    },
    {
      "inputs": [
        {
          "internalType": "uint256",
          "name": "cid",
          "type": "uint256"
        }
      ],
      "name": "isUpgradeable",
      "outputs": [
        {
          "internalType": "bool",
          "name": "",
          "type": "bool"
        }
      ],
      "stateMutability": "nonpayable",
      "type": "function"
    },
    {
      "inputs": [
        {
          "internalType": "address",
          "name": "to",
          "type": "address"
        }
      ],
      "name": "mint",
      "outputs": [],
      "stateMutability": "nonpayable",
      "type": "function"
    },
    {
      "inputs": [
        {
          "internalType": "uint256",
          "name": "tokenId",
          "type": "uint256"
        }
      ],
      "name": "burn",
      "outputs": [],
      "stateMutability": "nonpayable",
      "type": "function"
    },
    {
      "inputs": [],
      "name": "pause",
      "outputs": [],
      "stateMutability": "nonpayable",
      "type": "function"
    },
    {
      "inputs": [],
      "name": "unpause",
      "outputs": [],
      "stateMutability": "nonpayable",
      "type": "function"
    }
  ],
  "bytecode": "0x60806040523480156200001157600080fd5b506040516200558338038062005583833981810160405260808110156200003757600080fd5b81019080805160405193929190846401000000008211156200005857600080fd5b838201915060208201858111156200006f57600080fd5b82518660018202830111640100000000821117156200008d57600080fd5b8083526020830192505050908051906020019080838360005b83811015620000c3578082015181840152602081019050620000a6565b50505050905090810190601f168015620000f15780820380516001836020036101000a031916815260200191505b50604052602001805160405193929190846401000000008211156200011557600080fd5b838201915060208201858111156200012c57600080fd5b82518660018202830111640100000000821117156200014a57600080fd5b8083526020830192505050908051906020019080838360005b838110156200018057808201518184015260208101905062000163565b50505050905090810190601f168015620001ae5780820380516001836020036101000a031916815260200191505b5060405260200180516040519392919084640100000000821115620001d257600080fd5b83820191506020820185811115620001e957600080fd5b82518660018202830111640100000000821117156200020757600080fd5b8083526020830192505050908051906020019080838360005b838110156200023d57808201518184015260208101905062000220565b50505050905090810190601f1680156200026b5780820380516001836020036101000a031916815260200191505b506040526020018051906020019092919050505083838382826200029c6301ffc9a760e01b6200046360201b60201c565b8160079080519060200190620002b49291906200071e565b508060089080519060200190620002cd9291906200071e565b50620002e66380ac58cd60e01b6200046360201b60201c565b620002fe635b5e139f60e01b6200046360201b60201c565b6200031663780e9d6360e01b6200046360201b60201c565b50506200033963bc197c8160e01b63f23a6e6160e01b186200046360201b60201c565b6200034a816200056c60201b60201c565b5050506000600f60006101000a81548160ff0219169083151502179055506200038c6000801b620003806200058860201b60201c565b6200059060201b60201c565b620003e260405180807f4d494e5445525f524f4c45000000000000000000000000000000000000000000815250600b0190506040518091039020620003d66200058860201b60201c565b6200059060201b60201c565b6200043860405180807f5041555345525f524f4c45000000000000000000000000000000000000000000815250600b01905060405180910390206200042c6200058860201b60201c565b6200059060201b60201c565b60006012819055508060106000600181526020019081526020016000208190555050505050620007cd565b63ffffffff60e01b817bffffffffffffffffffffffffffffffffffffffffffffffffffffffff1916141562000500576040517f08c379a000000000000000000000000000000000000000000000000000000000815260040180806020018281038252601c8152602001807f4552433136353a20696e76616c696420696e746572666163652069640000000081525060200191505060405180910390fd5b6001806000837bffffffffffffffffffffffffffffffffffffffffffffffffffffffff19167bffffffffffffffffffffffffffffffffffffffffffffffffffffffff1916815260200190815260200160002060006101000a81548160ff02191690831515021790555050565b80600a9080519060200190620005849291906200071e565b5050565b600033905090565b620005a28282620005a660201b60201c565b5050565b620005d4816000808581526020019081526020016000206000016200064960201b62003df61790919060201c565b156200064557620005ea6200058860201b60201c565b73ffffffffffffffffffffffffffffffffffffffff168173ffffffffffffffffffffffffffffffffffffffff16837f2f8788117e7eff1d82e926ec794901d17c78024a50270940304540a733656f0d60405160405180910390a45b5050565b600062000679836000018373ffffffffffffffffffffffffffffffffffffffff1660001b6200068160201b60201c565b905092915050565b6000620006958383620006fb60201b60201c565b620006f0578260000182908060018154018082558091505060019003906000526020600020016000909190919091505582600001805490508360010160008481526020019081526020016000208190555060019050620006f5565b600090505b92915050565b600080836001016000848152602001908152602001600020541415905092915050565b828054600181600116156101000203166002900490600052602060002090601f016020900481019282601f106200076157805160ff191683800117855562000792565b8280016001018555821562000792579182015b828111156200079157825182559160200191906001019062000774565b5b509050620007a19190620007a5565b5090565b620007ca91905b80821115620007c6576000816000905550600101620007ac565b5090565b90565b614da680620007dd6000396000f3fe608060405234801561001057600080fd5b506004361061025e5760003560e01c80636c0360eb11610146578063aca47b7d116100c3578063d539139311610087578063d539139314611170578063d547741f1461118e578063e2275b52146111dc578063e63ab1e914611214578063e985e9c514611232578063f23a6e61146112ae5761025e565b8063aca47b7d14610cc7578063b88d4fde14610d0d578063bc197c8114610e12578063c87b56dd14611087578063ca15c8731461112e5761025e565b80639010d07c1161010a5780639010d07c14610af857806391d1485414610b7057806395d89b4114610bd6578063a217fddf14610c59578063a22cb46514610c775761025e565b80636c0360eb1461094e57806370a08231146109d15780637c926af614610a295780638456cb5914610a6b57806389e7e2f214610a755761025e565b806336568abe116101df5780634f6ccce7116101a35780634f6ccce7146107745780635c975abb146107b657806360d4d23a146107d85780636352211e14610844578063640bfdb5146108b25780636a6278421461090a5761025e565b806336568abe146106285780633f4ba83a1461067657806342842e0e1461068057806342966c68146106ee5780634e18b7621461071c5761025e565b806323b872dd1161022657806323b872dd14610425578063248a9ca3146104935780632676608c146104d55780632f2ff15d146105785780632f745c59146105c65761025e565b806301ffc9a71461026357806306fdde03146102c8578063081812fc1461034b578063095ea7b3146103b957806318160ddd14610407575b600080fd5b6102ae6004803603602081101561027957600080fd5b8101908080357bffffffffffffffffffffffffffffffffffffffffffffffffffffffff1916906020019092919050505061140f565b604051808215151515815260200191505060405180910390f35b6102d0611477565b6040518080602001828103825283818151815260200191508051906020019080838360005b838110156103105780820151818401526020810190506102f5565b50505050905090810190601f16801561033d5780820380516001836020036101000a031916815260200191505b509250505060405180910390f35b6103776004803603602081101561036157600080fd5b8101908080359060200190929190505050611519565b604051808273ffffffffffffffffffffffffffffffffffffffff1673ffffffffffffffffffffffffffffffffffffffff16815260200191505060405180910390f35b610405600480360360408110156103cf57600080fd5b81019080803573ffffffffffffffffffffffffffffffffffffffff169060200190929190803590602001909291905050506115b4565b005b61040f6116f8565b6040518082815260200191505060405180910390f35b6104916004803603606081101561043b57600080fd5b81019080803573ffffffffffffffffffffffffffffffffffffffff169060200190929190803573ffffffffffffffffffffffffffffffffffffffff16906020019092919080359060200190929190505050611709565b005b6104bf600480360360208110156104a957600080fd5b810190808035906020019092919050505061177f565b6040518082815260200191505060405180910390f35b610521600480360360408110156104eb57600080fd5b8101908080359060200190929190803573ffffffffffffffffffffffffffffffffffffffff16906020019092919050505061179e565b6040518080602001828103825283818151815260200191508051906020019060200280838360005b83811015610564578082015181840152602081019050610549565b505050509050019250505060405180910390f35b6105c46004803603604081101561058e57600080fd5b8101908080359060200190929190803573ffffffffffffffffffffffffffffffffffffffff169060200190929190505050611921565b005b610612600480360360408110156105dc57600080fd5b81019080803573ffffffffffffffffffffffffffffffffffffffff169060200190929190803590602001909291905050506119aa565b6040518082815260200191505060405180910390f35b6106746004803603604081101561063e57600080fd5b8101908080359060200190929190803573ffffffffffffffffffffffffffffffffffffffff169060200190929190505050611a05565b005b61067e611a9e565b005b6106ec6004803603606081101561069657600080fd5b81019080803573ffffffffffffffffffffffffffffffffffffffff169060200190929190803573ffffffffffffffffffffffffffffffffffffffff16906020019092919080359060200190929190505050611b43565b005b61071a6004803603602081101561070457600080fd5b8101908080359060200190929190505050611b63565b005b61075e6004803603602081101561073257600080fd5b81019080803573ffffffffffffffffffffffffffffffffffffffff169060200190929190505050611bd5565b6040518082815260200191505060405180910390f35b6107a06004803603602081101561078a57600080fd5b8101908080359060200190929190505050611bed565b6040518082815260200191505060405180910390f35b6107be611c10565b604051808215151515815260200191505060405180910390f35b61082e600480360360608110156107ee57600080fd5b8101908080359060200190929190803573ffffffffffffffffffffffffffffffffffffffff16906020019092919080359060200190929190505050611c27565b6040518082815260200191505060405180910390f35b6108706004803603602081101561085a57600080fd5b8101908080359060200190929190505050611c94565b604051808273ffffffffffffffffffffffffffffffffffffffff1673ffffffffffffffffffffffffffffffffffffffff16815260200191505060405180910390f35b6108f4600480360360208110156108c857600080fd5b81019080803573ffffffffffffffffffffffffffffffffffffffff169060200190929190505050611ccb565b6040518082815260200191505060405180910390f35b61094c6004803603602081101561092057600080fd5b81019080803573ffffffffffffffffffffffffffffffffffffffff169060200190929190505050611d19565b005b610956611e2c565b6040518080602001828103825283818151815260200191508051906020019080838360005b8381101561099657808201518184015260208101905061097b565b50505050905090810190601f1680156109c35780820380516001836020036101000a031916815260200191505b509250505060405180910390f35b610a13600480360360208110156109e757600080fd5b81019080803573ffffffffffffffffffffffffffffffffffffffff169060200190929190505050611ece565b6040518082815260200191505060405180910390f35b610a5560048036036020811015610a3f57600080fd5b8101908080359060200190929190505050611fa3565b6040518082815260200191505060405180910390f35b610a73611fc5565b005b610aa160048036036020811015610a8b57600080fd5b810190808035906020019092919050505061206a565b6040518080602001828103825283818151815260200191508051906020019060200280838360005b83811015610ae4578082015181840152602081019050610ac9565b505050509050019250505060405180910390f35b610b2e60048036036040811015610b0e57600080fd5b810190808035906020019092919080359060200190929190505050612163565b604051808273ffffffffffffffffffffffffffffffffffffffff1673ffffffffffffffffffffffffffffffffffffffff16815260200191505060405180910390f35b610bbc60048036036040811015610b8657600080fd5b8101908080359060200190929190803573ffffffffffffffffffffffffffffffffffffffff169060200190929190505050612194565b604051808215151515815260200191505060405180910390f35b610bde6121c5565b6040518080602001828103825283818151815260200191508051906020019080838360005b83811015610c1e578082015181840152602081019050610c03565b50505050905090810190601f168015610c4b5780820380516001836020036101000a031916815260200191505b509250505060405180910390f35b610c61612267565b6040518082815260200191505060405180910390f35b610cc560048036036040811015610c8d57600080fd5b81019080803573ffffffffffffffffffffffffffffffffffffffff16906020019092919080351515906020019092919050505061226e565b005b610cf360048036036020811015610cdd57600080fd5b8101908080359060200190929190505050612426565b604051808215151515815260200191505060405180910390f35b610e1060048036036080811015610d2357600080fd5b81019080803573ffffffffffffffffffffffffffffffffffffffff169060200190929190803573ffffffffffffffffffffffffffffffffffffffff1690602001909291908035906020019092919080359060200190640100000000811115610d8a57600080fd5b820183602082011115610d9c57600080fd5b80359060200191846001830284011164010000000083111715610dbe57600080fd5b91908080601f016020809104026020016040519081016040528093929190818152602001838380828437600081840152601f19601f820116905080830192505050505050509192919290505050612442565b005b611033600480360360a0811015610e2857600080fd5b81019080803573ffffffffffffffffffffffffffffffffffffffff169060200190929190803573ffffffffffffffffffffffffffffffffffffffff16906020019092919080359060200190640100000000811115610e8557600080fd5b820183602082011115610e9757600080fd5b80359060200191846020830284011164010000000083111715610eb957600080fd5b919080806020026020016040519081016040528093929190818152602001838360200280828437600081840152601f19601f82011690508083019250505050505050919291929080359060200190640100000000811115610f1957600080fd5b820183602082011115610f2b57600080fd5b80359060200191846020830284011164010000000083111715610f4d57600080fd5b919080806020026020016040519081016040528093929190818152602001838360200280828437600081840152601f19601f82011690508083019250505050505050919291929080359060200190640100000000811115610fad57600080fd5b820183602082011115610fbf57600080fd5b80359060200191846001830284011164010000000083111715610fe157600080fd5b91908080601f016020809104026020016040519081016040528093929190818152602001838380828437600081840152601f19601f8201169050808301925050505050505091929192905050506124ba565b60405180827bffffffffffffffffffffffffffffffffffffffffffffffffffffffff19167bffffffffffffffffffffffffffffffffffffffffffffffffffffffff1916815260200191505060405180910390f35b6110b36004803603602081101561109d57600080fd5b8101908080359060200190929190505050612689565b6040518080602001828103825283818151815260200191508051906020019080838360005b838110156110f35780820151818401526020810190506110d8565b50505050905090810190601f1680156111205780820380516001836020036101000a031916815260200191505b509250505060405180910390f35b61115a6004803603602081101561114457600080fd5b810190808035906020019092919050505061295a565b6040518082815260200191505060405180910390f35b611178612980565b6040518082815260200191505060405180910390f35b6111da600480360360408110156111a457600080fd5b8101908080359060200190929190803573ffffffffffffffffffffffffffffffffffffffff1690602001909291905050506129b9565b005b611212600480360360408110156111f257600080fd5b810190808035906020019092919080359060200190929190505050612a42565b005b61121c612b16565b6040518082815260200191505060405180910390f35b6112946004803603604081101561124857600080fd5b81019080803573ffffffffffffffffffffffffffffffffffffffff169060200190929190803573ffffffffffffffffffffffffffffffffffffffff169060200190929190505050612b4f565b604051808215151515815260200191505060405180910390f35b6113bb600480360360a08110156112c457600080fd5b81019080803573ffffffffffffffffffffffffffffffffffffffff169060200190929190803573ffffffffffffffffffffffffffffffffffffffff16906020019092919080359060200190929190803590602001909291908035906020019064010000000081111561133557600080fd5b82018360208201111561134757600080fd5b8035906020019184600183028401116401000000008311171561136957600080fd5b91908080601f016020809104026020016040519081016040528093929190818152602001838380828437600081840152601f19601f820116905080830192505050505050509192919290505050612be3565b60405180827bffffffffffffffffffffffffffffffffffffffffffffffffffffffff19167bffffffffffffffffffffffffffffffffffffffffffffffffffffffff1916815260200191505060405180910390f35b600060016000837bffffffffffffffffffffffffffffffffffffffffffffffffffffffff19167bffffffffffffffffffffffffffffffffffffffffffffffffffffffff1916815260200190815260200160002060009054906101000a900460ff169050919050565b606060078054600181600116156101000203166002900480601f01602080910402602001604051908101604052809291908181526020018280546001816001161561010002031660029004801561150f5780601f106114e45761010080835404028352916020019161150f565b820191906000526020600020905b8154815290600101906020018083116114f257829003601f168201915b5050505050905090565b600061152482612cff565b611579576040517f08c379a000000000000000000000000000000000000000000000000000000000815260040180806020018281038252602c815260200180614b85602c913960400191505060405180910390fd5b6005600083815260200190815260200160002060009054906101000a900473ffffffffffffffffffffffffffffffffffffffff169050919050565b60006115bf82611c94565b90508073ffffffffffffffffffffffffffffffffffffffff168373ffffffffffffffffffffffffffffffffffffffff161415611646576040517f08c379a0000000000000000000000000000000000000000000000000000000008152600401808060200182810382526021815260200180614c346021913960400191505060405180910390fd5b8073ffffffffffffffffffffffffffffffffffffffff16611665612d1c565b73ffffffffffffffffffffffffffffffffffffffff16148061169457506116938161168e612d1c565b612b4f565b5b6116e9576040517f08c379a0000000000000000000000000000000000000000000000000000000008152600401808060200182810382526038815260200180614ad86038913960400191505060405180910390fd5b6116f38383612d24565b505050565b60006117046003612ddd565b905090565b61171a611714612d1c565b82612df2565b61176f576040517f08c379a0000000000000000000000000000000000000000000000000000000008152600401808060200182810382526031815260200180614c7c6031913960400191505060405180910390fd5b61177a838383612ee6565b505050565b6000806000838152602001908152602001600020600201549050919050565b6060806117f9600e600086815260200190815260200160002060008573ffffffffffffffffffffffffffffffffffffffff1673ffffffffffffffffffffffffffffffffffffffff168152602001908152602001600020613129565b6040519080825280602002602001820160405280156118275781602001602082028036833780820191505090505b50905060008090505b611888600e600087815260200190815260200160002060008673ffffffffffffffffffffffffffffffffffffffff1673ffffffffffffffffffffffffffffffffffffffff168152602001908152602001600020613129565b811015611916576118f181600e600088815260200190815260200160002060008773ffffffffffffffffffffffffffffffffffffffff1673ffffffffffffffffffffffffffffffffffffffff16815260200190815260200160002061313e90919063ffffffff16565b8282815181106118fd57fe5b6020026020010181815250508080600101915050611830565b508091505092915050565b61194760008084815260200190815260200160002060020154611942612d1c565b612194565b61199c576040517f08c379a000000000000000000000000000000000000000000000000000000000815260040180806020018281038252602f815260200180614940602f913960400191505060405180910390fd5b6119a68282613158565b5050565b60006119fd82600260008673ffffffffffffffffffffffffffffffffffffffff1673ffffffffffffffffffffffffffffffffffffffff16815260200190815260200160002061313e90919063ffffffff16565b905092915050565b611a0d612d1c565b73ffffffffffffffffffffffffffffffffffffffff168173ffffffffffffffffffffffffffffffffffffffff1614611a90576040517f08c379a000000000000000000000000000000000000000000000000000000000815260040180806020018281038252602f815260200180614d42602f913960400191505060405180910390fd5b611a9a82826131eb565b5050565b611ae460405180807f5041555345525f524f4c45000000000000000000000000000000000000000000815250600b0190506040518091039020611adf612d1c565b612194565b611b39576040517f08c379a0000000000000000000000000000000000000000000000000000000008152600401808060200182810382526040815260200180614d026040913960400191505060405180910390fd5b611b4161327e565b565b611b5e83838360405180602001604052806000815250612442565b505050565b611b74611b6e612d1c565b82612df2565b611bc9576040517f08c379a0000000000000000000000000000000000000000000000000000000008152600401808060200182810382526030815260200180614cad6030913960400191505060405180910390fd5b611bd28161337f565b50565b60116020528060005260406000206000915090505481565b600080611c048360036134b990919063ffffffff16565b50905080915050919050565b6000600f60009054906101000a900460ff16905090565b6000600b600085815260200190815260200160002060008473ffffffffffffffffffffffffffffffffffffffff1673ffffffffffffffffffffffffffffffffffffffff16815260200190815260200160002060008381526020019081526020016000205490509392505050565b6000611cc482604051806060016040528060298152602001614b3a6029913960036134e89092919063ffffffff16565b9050919050565b600080601160008473ffffffffffffffffffffffffffffffffffffffff1673ffffffffffffffffffffffffffffffffffffffff16815260200190815260200160002054905080915050919050565b611d5f60405180807f4d494e5445525f524f4c45000000000000000000000000000000000000000000815250600b0190506040518091039020611d5a612d1c565b612194565b611db4576040517f08c379a0000000000000000000000000000000000000000000000000000000008152600401808060200182810382526025815260200180614cdd6025913960400191505060405180910390fd5b6000611dbf82611ece565b14611dc957600080fd5b60006001601254019050611ddd8282613507565b80601160008473ffffffffffffffffffffffffffffffffffffffff1673ffffffffffffffffffffffffffffffffffffffff16815260200190815260200160002081905550806012819055505050565b6060600a8054600181600116156101000203166002900480601f016020809104026020016040519081016040528092919081815260200182805460018160011615610100020316600290048015611ec45780601f10611e9957610100808354040283529160200191611ec4565b820191906000526020600020905b815481529060010190602001808311611ea757829003601f168201915b5050505050905090565b60008073ffffffffffffffffffffffffffffffffffffffff168273ffffffffffffffffffffffffffffffffffffffff161415611f55576040517f08c379a000000000000000000000000000000000000000000000000000000000815260040180806020018281038252602a815260200180614b10602a913960400191505060405180910390fd5b611f9c600260008473ffffffffffffffffffffffffffffffffffffffff1673ffffffffffffffffffffffffffffffffffffffff168152602001908152602001600020613129565b9050919050565b6000806010600084815260200190815260200160002054905080915050919050565b61200b60405180807f5041555345525f524f4c45000000000000000000000000000000000000000000815250600b0190506040518091039020612006612d1c565b612194565b612060576040517f08c379a000000000000000000000000000000000000000000000000000000000815260040180806020018281038252603e8152602001806149f4603e913960400191505060405180910390fd5b6120686136fb565b565b606080612088600d60008581526020019081526020016000206137fd565b6040519080825280602002602001820160405280156120b65781602001602082028036833780820191505090505b50905060008090505b6120da600d60008681526020019081526020016000206137fd565b8110156121595761210681600d600087815260200190815260200160002061381290919063ffffffff16565b82828151811061211257fe5b602002602001019073ffffffffffffffffffffffffffffffffffffffff16908173ffffffffffffffffffffffffffffffffffffffff168152505080806001019150506120bf565b5080915050919050565b600061218c8260008086815260200190815260200160002060000161381290919063ffffffff16565b905092915050565b60006121bd8260008086815260200190815260200160002060000161382c90919063ffffffff16565b905092915050565b606060088054600181600116156101000203166002900480601f01602080910402602001604051908101604052809291908181526020018280546001816001161561010002031660029004801561225d5780601f106122325761010080835404028352916020019161225d565b820191906000526020600020905b81548152906001019060200180831161224057829003601f168201915b5050505050905090565b6000801b81565b612276612d1c565b73ffffffffffffffffffffffffffffffffffffffff168273ffffffffffffffffffffffffffffffffffffffff161415612317576040517f08c379a00000000000000000000000000000000000000000000000000000000081526004018080602001828103825260198152602001807f4552433732313a20617070726f766520746f2063616c6c65720000000000000081525060200191505060405180910390fd5b8060066000612324612d1c565b73ffffffffffffffffffffffffffffffffffffffff1673ffffffffffffffffffffffffffffffffffffffff16815260200190815260200160002060008473ffffffffffffffffffffffffffffffffffffffff1673ffffffffffffffffffffffffffffffffffffffff16815260200190815260200160002060006101000a81548160ff0219169083151502179055508173ffffffffffffffffffffffffffffffffffffffff166123d1612d1c565b73ffffffffffffffffffffffffffffffffffffffff167f17307eab39ab6107e8899845ad3d59bd9653f200f220920489ca2b5937696c3183604051808215151515815260200191505060405180910390a35050565b6000600161243333611ece565b1461243d57600080fd5b919050565b61245361244d612d1c565b83612df2565b6124a8576040517f08c379a0000000000000000000000000000000000000000000000000000000008152600401808060200182810382526031815260200180614c7c6031913960400191505060405180910390fd5b6124b48484848461385c565b50505050565b60006020825114612516576040517f08c379a00000000000000000000000000000000000000000000000000000000081526004018080602001828103825260538152602001806149a16053913960600191505060405180910390fd5b8251845114612570576040517f08c379a0000000000000000000000000000000000000000000000000000000008152600401808060200182810382526027815260200180614c556027913960400191505060405180910390fd5b61258086600030888888886138ce565b600080602060003690500390508035915060008090505b8651811015612673576125d283338984815181106125b157fe5b60200260200101518985815181106125c557fe5b6020026020010151613944565b3373ffffffffffffffffffffffffffffffffffffffff16838973ffffffffffffffffffffffffffffffffffffffff167fa18753b0660a8be2cdae03468c860b47c2926433ab16917f323544652803032d8a858151811061262e57fe5b60200260200101518a868151811061264257fe5b6020026020010151604051808381526020018281526020019250505060405180910390a48080600101915050612597565b5063bc197c8160e01b9250505095945050505050565b606061269482612cff565b6126e9576040517f08c379a000000000000000000000000000000000000000000000000000000000815260040180806020018281038252602f815260200180614c05602f913960400191505060405180910390fd5b6060600960008481526020019081526020016000208054600181600116156101000203166002900480601f0160208091040260200160405190810160405280929190818152602001828054600181600116156101000203166002900480156127925780601f1061276757610100808354040283529160200191612792565b820191906000526020600020905b81548152906001019060200180831161277557829003601f168201915b5050505050905060606127a3611e2c565b90506000815114156127b9578192505050612955565b60008251111561288a5780826040516020018083805190602001908083835b602083106127fb57805182526020820191506020810190506020830392506127d8565b6001836020036101000a03801982511681845116808217855250505050505090500182805190602001908083835b6020831061284c5780518252602082019150602081019050602083039250612829565b6001836020036101000a0380198251168184511680821785525050505050509050019250505060405160208183030381529060405292505050612955565b8061289485613ad7565b6040516020018083805190602001908083835b602083106128ca57805182526020820191506020810190506020830392506128a7565b6001836020036101000a03801982511681845116808217855250505050505090500182805190602001908083835b6020831061291b57805182526020820191506020810190506020830392506128f8565b6001836020036101000a03801982511681845116808217855250505050505090500192505050604051602081830303815290604052925050505b919050565b60006129796000808481526020019081526020016000206000016137fd565b9050919050565b60405180807f4d494e5445525f524f4c45000000000000000000000000000000000000000000815250600b019050604051809103902081565b6129df600080848152602001908152602001600020600201546129da612d1c565b612194565b612a34576040517f08c379a0000000000000000000000000000000000000000000000000000000008152600401808060200182810382526030815260200180614aa86030913960400191505060405180910390fd5b612a3e82826131eb565b5050565b612a8860405180807f4d494e5445525f524f4c45000000000000000000000000000000000000000000815250600b0190506040518091039020612a83612d1c565b612194565b612afa576040517f08c379a000000000000000000000000000000000000000000000000000000000815260040180806020018281038252601e8152602001807f556e617574686f72697a6564207469657220707269636520736574746572000081525060200191505060405180910390fd5b8060106000848152602001908152602001600020819055505050565b60405180807f5041555345525f524f4c45000000000000000000000000000000000000000000815250600b019050604051809103902081565b6000600660008473ffffffffffffffffffffffffffffffffffffffff1673ffffffffffffffffffffffffffffffffffffffff16815260200190815260200160002060008373ffffffffffffffffffffffffffffffffffffffff1673ffffffffffffffffffffffffffffffffffffffff16815260200190815260200160002060009054906101000a900460ff16905092915050565b60006020825114612c3f576040517f08c379a00000000000000000000000000000000000000000000000000000000081526004018080602001828103825260538152602001806149a16053913960600191505060405180910390fd5b612c5f8660003088612c5089613c07565b612c5989613c07565b886138ce565b6000806020600036905003905080359150612c7c82338888613944565b3373ffffffffffffffffffffffffffffffffffffffff16828873ffffffffffffffffffffffffffffffffffffffff167fa18753b0660a8be2cdae03468c860b47c2926433ab16917f323544652803032d8989604051808381526020018281526020019250505060405180910390a463f23a6e6160e01b9250505095945050505050565b6000612d15826003613c6090919063ffffffff16565b9050919050565b600033905090565b816005600083815260200190815260200160002060006101000a81548173ffffffffffffffffffffffffffffffffffffffff021916908373ffffffffffffffffffffffffffffffffffffffff160217905550808273ffffffffffffffffffffffffffffffffffffffff16612d9783611c94565b73ffffffffffffffffffffffffffffffffffffffff167f8c5be1e5ebec7d5bd14f71427d1e84f3dd0314c0f7b2291e5b200ac8c7c3b92560405160405180910390a45050565b6000612deb82600001613c7a565b9050919050565b6000612dfd82612cff565b612e52576040517f08c379a000000000000000000000000000000000000000000000000000000000815260040180806020018281038252602c815260200180614a7c602c913960400191505060405180910390fd5b6000612e5d83611c94565b90508073ffffffffffffffffffffffffffffffffffffffff168473ffffffffffffffffffffffffffffffffffffffff161480612ecc57508373ffffffffffffffffffffffffffffffffffffffff16612eb484611519565b73ffffffffffffffffffffffffffffffffffffffff16145b80612edd5750612edc8185612b4f565b5b91505092915050565b8273ffffffffffffffffffffffffffffffffffffffff16612f0682611c94565b73ffffffffffffffffffffffffffffffffffffffff1614612f72576040517f08c379a0000000000000000000000000000000000000000000000000000000008152600401808060200182810382526029815260200180614bdc6029913960400191505060405180910390fd5b600073ffffffffffffffffffffffffffffffffffffffff168273ffffffffffffffffffffffffffffffffffffffff161415612ff8576040517f08c379a0000000000000000000000000000000000000000000000000000000008152600401808060200182810382526024815260200180614a326024913960400191505060405180910390fd5b613003838383613c8b565b61300e600082612d24565b61305f81600260008673ffffffffffffffffffffffffffffffffffffffff1673ffffffffffffffffffffffffffffffffffffffff168152602001908152602001600020613cf990919063ffffffff16565b506130b181600260008573ffffffffffffffffffffffffffffffffffffffff1673ffffffffffffffffffffffffffffffffffffffff168152602001908152602001600020613d1390919063ffffffff16565b506130c881836003613d2d9092919063ffffffff16565b50808273ffffffffffffffffffffffffffffffffffffffff168473ffffffffffffffffffffffffffffffffffffffff167fddf252ad1be2c89b69c2b068fc378daa952ba7f163c4a11628f55a4df523b3ef60405160405180910390a4505050565b600061313782600001613d62565b9050919050565b600061314d8360000183613d73565b60001c905092915050565b61317f81600080858152602001908152602001600020600001613df690919063ffffffff16565b156131e75761318c612d1c565b73ffffffffffffffffffffffffffffffffffffffff168173ffffffffffffffffffffffffffffffffffffffff16837f2f8788117e7eff1d82e926ec794901d17c78024a50270940304540a733656f0d60405160405180910390a45b5050565b61321281600080858152602001908152602001600020600001613e2690919063ffffffff16565b1561327a5761321f612d1c565b73ffffffffffffffffffffffffffffffffffffffff168173ffffffffffffffffffffffffffffffffffffffff16837ff6391f5c32d9c69d2a47ea670b442974b53935d1edc7fd64eb21e047a839171b60405160405180910390a45b5050565b613286611c10565b6132f8576040517f08c379a00000000000000000000000000000000000000000000000000000000081526004018080602001828103825260148152602001807f5061757361626c653a206e6f742070617573656400000000000000000000000081525060200191505060405180910390fd5b6000600f60006101000a81548160ff0219169083151502179055507f5db9ee0a495bf2e6ff9c91a7834c1ba4fdd244a5e8aa4e537bd38aeae4b073aa61333c612d1c565b604051808273ffffffffffffffffffffffffffffffffffffffff1673ffffffffffffffffffffffffffffffffffffffff16815260200191505060405180910390a1565b600061338a82611c94565b905061339881600084613c8b565b6133a3600083612d24565b600060096000848152602001908152602001600020805460018160011615610100020316600290049050146133f2576009600083815260200190815260200160002060006133f19190614885565b5b61344382600260008473ffffffffffffffffffffffffffffffffffffffff1673ffffffffffffffffffffffffffffffffffffffff168152602001908152602001600020613cf990919063ffffffff16565b50613458826003613e5690919063ffffffff16565b5081600073ffffffffffffffffffffffffffffffffffffffff168273ffffffffffffffffffffffffffffffffffffffff167fddf252ad1be2c89b69c2b068fc378daa952ba7f163c4a11628f55a4df523b3ef60405160405180910390a45050565b6000806000806134cc8660000186613e70565b915091508160001c8160001c8090509350935050509250929050565b60006134fb846000018460001b84613f09565b60001c90509392505050565b600073ffffffffffffffffffffffffffffffffffffffff168273ffffffffffffffffffffffffffffffffffffffff1614156135aa576040517f08c379a00000000000000000000000000000000000000000000000000000000081526004018080602001828103825260208152602001807f4552433732313a206d696e7420746f20746865207a65726f206164647265737381525060200191505060405180910390fd5b6135b381612cff565b15613626576040517f08c379a000000000000000000000000000000000000000000000000000000000815260040180806020018281038252601c8152602001807f4552433732313a20746f6b656e20616c7265616479206d696e7465640000000081525060200191505060405180910390fd5b61363260008383613c8b565b61368381600260008573ffffffffffffffffffffffffffffffffffffffff1673ffffffffffffffffffffffffffffffffffffffff168152602001908152602001600020613d1390919063ffffffff16565b5061369a81836003613d2d9092919063ffffffff16565b50808273ffffffffffffffffffffffffffffffffffffffff16600073ffffffffffffffffffffffffffffffffffffffff167fddf252ad1be2c89b69c2b068fc378daa952ba7f163c4a11628f55a4df523b3ef60405160405180910390a45050565b613703611c10565b15613776576040517f08c379a00000000000000000000000000000000000000000000000000000000081526004018080602001828103825260108152602001807f5061757361626c653a207061757365640000000000000000000000000000000081525060200191505060405180910390fd5b6001600f60006101000a81548160ff0219169083151502179055507f62e78cea01bee320cd4e420270b5ea74000d11b0c9f74754ebdbfc544b05a2586137ba612d1c565b604051808273ffffffffffffffffffffffffffffffffffffffff1673ffffffffffffffffffffffffffffffffffffffff16815260200191505060405180910390a1565b600061380b82600001613d62565b9050919050565b60006138218360000183613d73565b60001c905092915050565b6000613854836000018373ffffffffffffffffffffffffffffffffffffffff1660001b613fff565b905092915050565b613867848484612ee6565b61387384848484614022565b6138c8576040517f08c379a000000000000000000000000000000000000000000000000000000000815260040180806020018281038252603281526020018061496f6032913960400191505060405180910390fd5b50505050565b6138d6611c10565b1561392c576040517f08c379a000000000000000000000000000000000000000000000000000000000815260040180806020018281038252602b815260200180614bb1602b913960400191505060405180910390fd5b61393b87878787878787614267565b50505050505050565b61396983600d600087815260200190815260200160002061382c90919063ffffffff16565b6139945761399283600d6000878152602001908152602001600020613df690919063ffffffff16565b505b6000600b600086815260200190815260200160002060008573ffffffffffffffffffffffffffffffffffffffff1673ffffffffffffffffffffffffffffffffffffffff1681526020019081526020016000206000848152602001908152602001600020541415613a6257613a6082600e600085815260200190815260200160002060008673ffffffffffffffffffffffffffffffffffffffff1673ffffffffffffffffffffffffffffffffffffffff168152602001908152602001600020613d1390919063ffffffff16565b505b80600b600086815260200190815260200160002060008573ffffffffffffffffffffffffffffffffffffffff1673ffffffffffffffffffffffffffffffffffffffff16815260200190815260200160002060008481526020019081526020016000206000828254019250508190555050505050565b60606000821415613b1f576040518060400160405280600181526020017f30000000000000000000000000000000000000000000000000000000000000008152509050613c02565b600082905060005b60008214613b49578080600101915050600a8281613b4157fe5b049150613b27565b6060816040519080825280601f01601f191660200182016040528015613b7e5781602001600182028036833780820191505090505b50905060006001830390508593505b60008414613bfa57600a8481613b9f57fe5b0660300160f81b82828060019003935081518110613bb957fe5b60200101907effffffffffffffffffffffffffffffffffffffffffffffffffffffffffffff1916908160001a905350600a8481613bf257fe5b049350613b8d565b819450505050505b919050565b6060806001604051908082528060200260200182016040528015613c3a5781602001602082028036833780820191505090505b5090508281600081518110613c4b57fe5b60200260200101818152505080915050919050565b6000613c72836000018360001b614270565b905092915050565b600081600001805490509050919050565b613c93611c10565b15613ce9576040517f08c379a000000000000000000000000000000000000000000000000000000000815260040180806020018281038252602b815260200180614915602b913960400191505060405180910390fd5b613cf4838383614293565b505050565b6000613d0b836000018360001b614298565b905092915050565b6000613d25836000018360001b614380565b905092915050565b6000613d59846000018460001b8473ffffffffffffffffffffffffffffffffffffffff1660001b6143f0565b90509392505050565b600081600001805490509050919050565b600081836000018054905011613dd4576040517f08c379a00000000000000000000000000000000000000000000000000000000081526004018080602001828103825260228152602001806148f36022913960400191505060405180910390fd5b826000018281548110613de357fe5b9060005260206000200154905092915050565b6000613e1e836000018373ffffffffffffffffffffffffffffffffffffffff1660001b614380565b905092915050565b6000613e4e836000018373ffffffffffffffffffffffffffffffffffffffff1660001b614298565b905092915050565b6000613e68836000018360001b6144cc565b905092915050565b60008082846000018054905011613ed2576040517f08c379a0000000000000000000000000000000000000000000000000000000008152600401808060200182810382526022815260200180614b636022913960400191505060405180910390fd5b6000846000018481548110613ee357fe5b906000526020600020906002020190508060000154816001015492509250509250929050565b60008084600101600085815260200190815260200160002054905060008114158390613fd0576040517f08c379a00000000000000000000000000000000000000000000000000000000081526004018080602001828103825283818151815260200191508051906020019080838360005b83811015613f95578082015181840152602081019050613f7a565b50505050905090810190601f168015613fc25780820380516001836020036101000a031916815260200191505b509250505060405180910390fd5b50846000016001820381548110613fe357fe5b9060005260206000209060020201600101549150509392505050565b600080836001016000848152602001908152602001600020541415905092915050565b60006140438473ffffffffffffffffffffffffffffffffffffffff166145e5565b614050576001905061425f565b60606141e663150b7a0260e01b614065612d1c565b888787604051602401808573ffffffffffffffffffffffffffffffffffffffff1673ffffffffffffffffffffffffffffffffffffffff1681526020018473ffffffffffffffffffffffffffffffffffffffff1673ffffffffffffffffffffffffffffffffffffffff16815260200183815260200180602001828103825283818151815260200191508051906020019080838360005b838110156141155780820151818401526020810190506140fa565b50505050905090810190601f1680156141425780820380516001836020036101000a031916815260200191505b5095505050505050604051602081830303815290604052907bffffffffffffffffffffffffffffffffffffffffffffffffffffffff19166020820180517bffffffffffffffffffffffffffffffffffffffffffffffffffffffff838183161783525050505060405180606001604052806032815260200161496f603291398773ffffffffffffffffffffffffffffffffffffffff166145f89092919063ffffffff16565b905060008180602001905160208110156141ff57600080fd5b8101908080519060200190929190505050905063150b7a0260e01b7bffffffffffffffffffffffffffffffffffffffffffffffffffffffff1916817bffffffffffffffffffffffffffffffffffffffffffffffffffffffff191614925050505b949350505050565b50505050505050565b600080836001016000848152602001908152602001600020541415905092915050565b505050565b6000808360010160008481526020019081526020016000205490506000811461437457600060018203905060006001866000018054905003905060008660000182815481106142e357fe5b906000526020600020015490508087600001848154811061430057fe5b906000526020600020018190555060018301876001016000838152602001908152602001600020819055508660000180548061433857fe5b6001900381819060005260206000200160009055905586600101600087815260200190815260200160002060009055600194505050505061437a565b60009150505b92915050565b600061438c8383613fff565b6143e55782600001829080600181540180825580915050600190039060005260206000200160009091909190915055826000018054905083600101600084815260200190815260200160002081905550600190506143ea565b600090505b92915050565b6000808460010160008581526020019081526020016000205490506000811415614497578460000160405180604001604052808681526020018581525090806001815401808255809150506001900390600052602060002090600202016000909190919091506000820151816000015560208201518160010155505084600001805490508560010160008681526020019081526020016000208190555060019150506144c5565b828560000160018303815481106144aa57fe5b90600052602060002090600202016001018190555060009150505b9392505050565b600080836001016000848152602001908152602001600020549050600081146145d9576000600182039050600060018660000180549050039050600086600001828154811061451757fe5b906000526020600020906002020190508087600001848154811061453757fe5b906000526020600020906002020160008201548160000155600182015481600101559050506001830187600101600083600001548152602001908152602001600020819055508660000180548061458a57fe5b60019003818190600052602060002090600202016000808201600090556001820160009055505090558660010160008781526020019081526020016000206000905560019450505050506145df565b60009150505b92915050565b600080823b905060008111915050919050565b60606146078484600085614610565b90509392505050565b60608247101561466b576040517f08c379a0000000000000000000000000000000000000000000000000000000008152600401808060200182810382526026815260200180614a566026913960400191505060405180910390fd5b614674856145e5565b6146e6576040517f08c379a000000000000000000000000000000000000000000000000000000000815260040180806020018281038252601d8152602001807f416464726573733a2063616c6c20746f206e6f6e2d636f6e747261637400000081525060200191505060405180910390fd5b600060608673ffffffffffffffffffffffffffffffffffffffff1685876040518082805190602001908083835b602083106147365780518252602082019150602081019050602083039250614713565b6001836020036101000a03801982511681845116808217855250505050505090500191505060006040518083038185875af1925050503d8060008114614798576040519150601f19603f3d011682016040523d82523d6000602084013e61479d565b606091505b50915091506147ad8282866147b9565b92505050949350505050565b606083156147c95782905061487e565b6000835111156147dc5782518084602001fd5b816040517f08c379a00000000000000000000000000000000000000000000000000000000081526004018080602001828103825283818151815260200191508051906020019080838360005b83811015614843578082015181840152602081019050614828565b50505050905090810190601f1680156148705780820380516001836020036101000a031916815260200191505b509250505060405180910390fd5b9392505050565b50805460018160011615610100020316600290046000825580601f106148ab57506148ca565b601f0160209004906000526020600020908101906148c991906148cd565b5b50565b6148ef91905b808211156148eb5760008160009055506001016148d3565b5090565b9056fe456e756d657261626c655365743a20696e646578206f7574206f6620626f756e64734552433732315061757361626c653a20746f6b656e207472616e73666572207768696c6520706175736564416363657373436f6e74726f6c3a2073656e646572206d75737420626520616e2061646d696e20746f206772616e744552433732313a207472616e7366657220746f206e6f6e20455243373231526563656976657220696d706c656d656e7465724552433939383a2064617461206d75737420636f6e7461696e2074686520756e697175652075696e7432353620746f6b656e496420746f207472616e7366657220746865206368696c6420746f6b656e20746f4552433732315072657365744d696e7465725061757365724175746f49643a206d75737420686176652070617573657220726f6c6520746f2070617573654552433732313a207472616e7366657220746f20746865207a65726f2061646472657373416464726573733a20696e73756666696369656e742062616c616e636520666f722063616c6c4552433732313a206f70657261746f7220717565727920666f72206e6f6e6578697374656e7420746f6b656e416363657373436f6e74726f6c3a2073656e646572206d75737420626520616e2061646d696e20746f207265766f6b654552433732313a20617070726f76652063616c6c6572206973206e6f74206f776e6572206e6f7220617070726f76656420666f7220616c6c4552433732313a2062616c616e636520717565727920666f7220746865207a65726f20616464726573734552433732313a206f776e657220717565727920666f72206e6f6e6578697374656e7420746f6b656e456e756d657261626c654d61703a20696e646578206f7574206f6620626f756e64734552433732313a20617070726f76656420717565727920666f72206e6f6e6578697374656e7420746f6b656e4552433939385061757361626c653a206368696c64207472616e73666572207768696c65207061757365644552433732313a207472616e73666572206f6620746f6b656e2074686174206973206e6f74206f776e4552433732314d657461646174613a2055524920717565727920666f72206e6f6e6578697374656e7420746f6b656e4552433732313a20617070726f76616c20746f2063757272656e74206f776e6572455243313135353a2069647320616e642076616c756573206c656e677468206d69736d617463684552433732313a207472616e736665722063616c6c6572206973206e6f74206f776e6572206e6f7220617070726f7665644552433732314275726e61626c653a2063616c6c6572206973206e6f74206f776e6572206e6f7220617070726f7665644552433732313a206d7573742068617665206d696e74657220726f6c6520746f206d696e744552433732315072657365744d696e7465725061757365724175746f49643a206d75737420686176652070617573657220726f6c6520746f20756e7061757365416363657373436f6e74726f6c3a2063616e206f6e6c792072656e6f756e636520726f6c657320666f722073656c66a26469706673582212209d9df291a17e7b1bd9122ef90d848d9b197f81209e337a97cccb5de1da09fd9664736f6c63430006030033",
  "source": "// SPDX-License-Identifier: MIT\n\npragma solidity ^0.6.0;\n\nimport \"@openzeppelin/contracts/access/AccessControl.sol\";\nimport \"@openzeppelin/contracts/GSN/Context.sol\";\nimport \"@openzeppelin/contracts/utils/Pausable.sol\";\n\nimport \"./ERC998ERC1155TopDown.sol\";\n\n/**\n * @dev {ERC998} token, including:\n *\n *  - ability for holders to burn (destroy) their tokens\n *  - a minter role that allows for token minting (creation)\n *  - a pauser role that allows to stop all token transfers\n *\n * This contract uses {AccessControl} to lock permissioned functions using the\n * different roles - head to its documentation for details.\n *\n * The account that deploys the contract will be granted the minter and pauser\n * roles, as well as the default admin role, which will let it grant both minter\n * and pauser roles to other accounts.\n */\ncontract ERC998ERC1155TopDownPresetMinterPauser is\n    Context,\n    AccessControl,\n    ERC998ERC1155TopDown,\n    Pausable\n{\n    using SafeMath for uint256;\n    bytes32 public constant MINTER_ROLE = keccak256(\"MINTER_ROLE\");\n    bytes32 public constant PAUSER_ROLE = keccak256(\"PAUSER_ROLE\");\n    mapping(uint256 => uint256) tierIdtoUpgradeCost; // 1,2,3 ...  cost to upgrade to tier1, tier2, tier3...\n    mapping(address => uint256) public ownerToComposableId;\n    uint256 composableCount;\n\n    /**\n     * @dev Grants `DEFAULT_ADMIN_ROLE`, `MINTER_ROLE` and `PAUSER_ROLE` to the\n     * account that deploys the contract.\n     *\n     * Token URIs will be autogenerated based on `baseURI` and their token IDs.\n     * See {ERC721-tokenURI}.\n     */\n    constructor(\n        string memory name,\n        string memory symbol,\n        string memory baseURI,\n        uint256 _fEngagementPoints // at 115 tierId 0\n    ) public ERC998ERC1155TopDown(name, symbol, baseURI) {\n        _setupRole(DEFAULT_ADMIN_ROLE, _msgSender());\n        _setupRole(MINTER_ROLE, _msgSender());\n        _setupRole(PAUSER_ROLE, _msgSender());\n        composableCount = 0;\n        tierIdtoUpgradeCost[1] = _fEngagementPoints;\n    }\n\n    /// @notice manually add tier upgrade prices\n    function setTierUpgradeCost(uint256 _tierId, uint256 _cost) public {\n        require(\n            hasRole(MINTER_ROLE, _msgSender()),\n            \"Unauthorized tier price setter\"\n        );\n\n        tierIdtoUpgradeCost[_tierId] = _cost;\n    }\n\n    /// returns uint price of tier upgrade\n    function getTierUpgradeCost(uint256 _tierId) public view returns (uint256) {\n        uint256 cost = tierIdtoUpgradeCost[_tierId];\n        return cost;\n    }\n\n    // function incrementTierId(address _to) private {\n    //     ownerToTierId[_to] = _latestTierId;\n    // }\n\n    function getComposableId(address _owner) public view returns (uint256) {\n        uint256 cid = ownerToComposableId[_owner];\n        return cid;\n    }\n\n    function isUpgradeable(uint256 cid) public returns (bool) {\n        // msg.sender is owner of the composable\n        // has enough engagement points at tierId = 0\n        // has sufficient engagement points at tid-1\n        require(balanceOf(msg.sender) == 1);\n    }\n\n    /**\n     * @dev Creates a new token for `to`. The token URI autogenerated based on\n     * the base URI passed at construction and the token ID.\n     *\n     * See {ERC721-_mint}.\n     *\n     * Requirements:\n     *\n     * - the caller must have the `MINTER_ROLE`.\n     */\n\n    /// admin would be marketplace\n\n    // >one account can only mint once\n\n    /// @param to addres the SNFT is minted to\n    function mint(address to) public virtual {\n        require(\n            hasRole(MINTER_ROLE, _msgSender()),\n            \"ERC721: must have minter role to mint\"\n        );\n\n        require(balanceOf(to) == 0);\n\n        uint256 tokenId = composableCount + 1; //totalSupply()\n        // require()); // implement safemath\n\n        // // We cannot just use balanceOf to create the new tokenId because tokens\n        // // can be burned (destroyed), so we need a separate counter.\n        _mint(to, tokenId);\n        ownerToComposableId[to] = tokenId;\n        // ownerToTierId[to] = 0; // level0\n        composableCount = tokenId;\n    }\n\n    /**\n     * @dev Burns `tokenId`. See {ERC721-_burn}.\n     *\n     * Requirements:\n     *\n     * - The caller must own `tokenId` or be an approved operator.\n     */\n    function burn(uint256 tokenId) public virtual {\n        //solhint-disable-next-line max-line-length\n        require(\n            _isApprovedOrOwner(_msgSender(), tokenId),\n            \"ERC721Burnable: caller is not owner nor approved\"\n        );\n        _burn(tokenId);\n    }\n\n    /**\n     * @dev Pauses all token transfers.\n     *\n     * See {ERC721Pausable} and {Pausable-_pause}.\n     *\n     * Requirements:\n     *\n     * - the caller must have the `PAUSER_ROLE`.\n     */\n    function pause() public virtual {\n        require(\n            hasRole(PAUSER_ROLE, _msgSender()),\n            \"ERC721PresetMinterPauserAutoId: must have pauser role to pause\"\n        );\n        _pause();\n    }\n\n    /**\n     * @dev Unpauses all token transfers.\n     *\n     * See {ERC721Pausable} and {Pausable-_unpause}.\n     *\n     * Requirements:\n     *\n     * - the caller must have the `PAUSER_ROLE`.\n     */\n    function unpause() public virtual {\n        require(\n            hasRole(PAUSER_ROLE, _msgSender()),\n            \"ERC721PresetMinterPauserAutoId: must have pauser role to unpause\"\n        );\n        _unpause();\n    }\n\n    /**\n     * @dev See {ERC721-_beforeTokenTransfer}.\n     *\n     * Requirements:\n     *\n     * - the contract must not be paused.\n     */\n    function _beforeTokenTransfer(\n        address from,\n        address to,\n        uint256 tokenId\n    ) internal virtual override {\n        require(!paused(), \"ERC721Pausable: token transfer while paused\");\n\n        super._beforeTokenTransfer(from, to, tokenId);\n    }\n\n    function _beforeChildTransfer(\n        address operator,\n        uint256 fromTokenId,\n        address to,\n        address childContract,\n        uint256[] memory ids,\n        uint256[] memory amounts,\n        bytes memory data\n    ) internal virtual override {\n        require(!paused(), \"ERC998Pausable: child transfer while paused\");\n\n        super._beforeChildTransfer(\n            operator,\n            fromTokenId,\n            to,\n            childContract,\n            ids,\n            amounts,\n            data\n        );\n    }\n}\n",
  "sourcePath": "/home/waverune/respct-club/ERC998ERC1155/contracts/ERC998ERC1155TopDownPresetMinterPauser.sol",
  "compiler": {
    "name": "solc",
    "version": "0.6.3+commit.8dda9521.Emscripten.clang"
  },
  "schemaVersion": "3.4.1",
  "updatedAt": "2022-03-24T16:21:05.087Z",
  "networkType": "ethereum",
  "devdoc": {
    "details": "{ERC998} token, including: *  - ability for holders to burn (destroy) their tokens - a minter role that allows for token minting (creation) - a pauser role that allows to stop all token transfers * This contract uses {AccessControl} to lock permissioned functions using the different roles - head to its documentation for details. * The account that deploys the contract will be granted the minter and pauser roles, as well as the default admin role, which will let it grant both minter and pauser roles to other accounts.",
    "methods": {
      "approve(address,uint256)": {
        "details": "See {IERC721-approve}."
      },
      "balanceOf(address)": {
        "details": "See {IERC721-balanceOf}."
      },
      "baseURI()": {
        "details": "Returns the base URI set via {_setBaseURI}. This will be automatically added as a prefix in {tokenURI} to each token's URI, or to the token ID if no specific URI is set for that token ID."
      },
      "burn(uint256)": {
        "details": "Burns `tokenId`. See {ERC721-_burn}.     * Requirements:     * - The caller must own `tokenId` or be an approved operator."
      },
      "childBalance(uint256,address,uint256)": {
        "details": "Gives child balance for a specific child contract and child id .",
        "params": {
          "childContract": "1155tier upgrade contract",
          "composableId": ", composable ID",
          "tierId": "tier level"
        },
        "returns": {
          "_0": "uint tier"
        }
      },
      "childContractsFor(uint256)": {
        "details": "Gives list of child contract where token ID has childs."
      },
      "childIdsForOn(uint256,address)": {
        "details": "Gives list of owned child ID on a child contract by token ID."
      },
      "constructor": {
        "details": "Grants `DEFAULT_ADMIN_ROLE`, `MINTER_ROLE` and `PAUSER_ROLE` to the account that deploys the contract.     * Token URIs will be autogenerated based on `baseURI` and their token IDs. See {ERC721-tokenURI}."
      },
      "getApproved(uint256)": {
        "details": "See {IERC721-getApproved}."
      },
      "getRoleAdmin(bytes32)": {
        "details": "Returns the admin role that controls `role`. See {grantRole} and {revokeRole}.     * To change a role's admin, use {_setRoleAdmin}."
      },
      "getRoleMember(bytes32,uint256)": {
        "details": "Returns one of the accounts that have `role`. `index` must be a value between 0 and {getRoleMemberCount}, non-inclusive.     * Role bearers are not sorted in any particular way, and their ordering may change at any point.     * WARNING: When using {getRoleMember} and {getRoleMemberCount}, make sure you perform all queries on the same block. See the following https://forum.openzeppelin.com/t/iterating-over-elements-on-enumerableset-in-openzeppelin-contracts/2296[forum post] for more information."
      },
      "getRoleMemberCount(bytes32)": {
        "details": "Returns the number of accounts that have `role`. Can be used together with {getRoleMember} to enumerate all bearers of a role."
      },
      "grantRole(bytes32,address)": {
        "details": "Grants `role` to `account`.     * If `account` had not been already granted `role`, emits a {RoleGranted} event.     * Requirements:     * - the caller must have ``role``'s admin role."
      },
      "hasRole(bytes32,address)": {
        "details": "Returns `true` if `account` has been granted `role`."
      },
      "isApprovedForAll(address,address)": {
        "details": "See {IERC721-isApprovedForAll}."
      },
      "mint(address)": {
        "params": {
          "to": "addres the SNFT is minted to"
        }
      },
      "name()": {
        "details": "See {IERC721Metadata-name}."
      },
      "onERC1155BatchReceived(address,address,uint256[],uint256[],bytes)": {
        "details": "Receives a batch of child tokens, the receiver token ID must be encoded in the field data."
      },
      "ownerOf(uint256)": {
        "details": "See {IERC721-ownerOf}."
      },
      "pause()": {
        "details": "Pauses all token transfers.     * See {ERC721Pausable} and {Pausable-_pause}.     * Requirements:     * - the caller must have the `PAUSER_ROLE`."
      },
      "paused()": {
        "details": "Returns true if the contract is paused, and false otherwise."
      },
      "renounceRole(bytes32,address)": {
        "details": "Revokes `role` from the calling account.     * Roles are often managed via {grantRole} and {revokeRole}: this function's purpose is to provide a mechanism for accounts to lose their privileges if they are compromised (such as when a trusted device is misplaced).     * If the calling account had been granted `role`, emits a {RoleRevoked} event.     * Requirements:     * - the caller must be `account`."
      },
      "revokeRole(bytes32,address)": {
        "details": "Revokes `role` from `account`.     * If `account` had been granted `role`, emits a {RoleRevoked} event.     * Requirements:     * - the caller must have ``role``'s admin role."
      },
      "safeTransferFrom(address,address,uint256)": {
        "details": "See {IERC721-safeTransferFrom}."
      },
      "safeTransferFrom(address,address,uint256,bytes)": {
        "details": "See {IERC721-safeTransferFrom}."
      },
      "setApprovalForAll(address,bool)": {
        "details": "See {IERC721-setApprovalForAll}."
      },
      "supportsInterface(bytes4)": {
        "details": "See {IERC165-supportsInterface}.     * Time complexity O(1), guaranteed to always use less than 30 000 gas."
      },
      "symbol()": {
        "details": "See {IERC721Metadata-symbol}."
      },
      "tokenByIndex(uint256)": {
        "details": "See {IERC721Enumerable-tokenByIndex}."
      },
      "tokenOfOwnerByIndex(address,uint256)": {
        "details": "See {IERC721Enumerable-tokenOfOwnerByIndex}."
      },
      "tokenURI(uint256)": {
        "details": "See {IERC721Metadata-tokenURI}."
      },
      "totalSupply()": {
        "details": "See {IERC721Enumerable-totalSupply}."
      },
      "transferFrom(address,address,uint256)": {
        "details": "See {IERC721-transferFrom}."
      },
      "unpause()": {
        "details": "Unpauses all token transfers.     * See {ERC721Pausable} and {Pausable-_unpause}.     * Requirements:     * - the caller must have the `PAUSER_ROLE`."
      }
    }
  },
  "userdoc": {
    "methods": {
      "childBalance(uint256,address,uint256)": {
        "notice": "tier level for a composable     *"
      },
      "childContractsFor(uint256)": {
        "notice": "*"
      },
      "getTierUpgradeCost(uint256)": {
        "notice": "returns uint price of tier upgrade"
      },
      "setTierUpgradeCost(uint256,uint256)": {
        "notice": "manually add tier upgrade prices"
      }
    }
  }
}