{
  "contractName": "ERC998ERC1155TopDown",
  "abi": [
    {
      "inputs": [
        {
          "internalType": "string",
          "name": "_name",
          "type": "string"
        },
        {
          "internalType": "string",
          "name": "_symbol",
          "type": "string"
        },
        {
          "internalType": "string",
          "name": "_baseURI",
          "type": "string"
        }
      ],
      "stateMutability": "nonpayable",
      "type": "constructor"
    },
    {
      "anonymous": false,
      "inputs": [
        {
          "indexed": true,
          "internalType": "address",
          "name": "owner",
          "type": "address"
        },
        {
          "indexed": true,
          "internalType": "address",
          "name": "approved",
          "type": "address"
        },
        {
          "indexed": true,
          "internalType": "uint256",
          "name": "tokenId",
          "type": "uint256"
        }
      ],
      "name": "Approval",
      "type": "event"
    },
    {
      "anonymous": false,
      "inputs": [
        {
          "indexed": true,
          "internalType": "address",
          "name": "owner",
          "type": "address"
        },
        {
          "indexed": true,
          "internalType": "address",
          "name": "operator",
          "type": "address"
        },
        {
          "indexed": false,
          "internalType": "bool",
          "name": "approved",
          "type": "bool"
        }
      ],
      "name": "ApprovalForAll",
      "type": "event"
    },
    {
      "anonymous": false,
      "inputs": [
        {
          "indexed": true,
          "internalType": "address",
          "name": "from",
          "type": "address"
        },
        {
          "indexed": true,
          "internalType": "uint256",
          "name": "toTokenId",
          "type": "uint256"
        },
        {
          "indexed": true,
          "internalType": "address",
          "name": "childContract",
          "type": "address"
        },
        {
          "indexed": false,
          "internalType": "uint256",
          "name": "childTokenId",
          "type": "uint256"
        },
        {
          "indexed": false,
          "internalType": "uint256",
          "name": "amount",
          "type": "uint256"
        }
      ],
      "name": "ReceivedChild",
      "type": "event"
    },
    {
      "anonymous": false,
      "inputs": [
        {
          "indexed": true,
          "internalType": "address",
          "name": "from",
          "type": "address"
        },
        {
          "indexed": true,
          "internalType": "address",
          "name": "to",
          "type": "address"
        },
        {
          "indexed": true,
          "internalType": "uint256",
          "name": "tokenId",
          "type": "uint256"
        }
      ],
      "name": "Transfer",
      "type": "event"
    },
    {
      "anonymous": false,
      "inputs": [
        {
          "indexed": true,
          "internalType": "uint256",
          "name": "fromTokenId",
          "type": "uint256"
        },
        {
          "indexed": true,
          "internalType": "address",
          "name": "to",
          "type": "address"
        },
        {
          "indexed": true,
          "internalType": "address",
          "name": "childContract",
          "type": "address"
        },
        {
          "indexed": false,
          "internalType": "uint256[]",
          "name": "childTokenIds",
          "type": "uint256[]"
        },
        {
          "indexed": false,
          "internalType": "uint256[]",
          "name": "amounts",
          "type": "uint256[]"
        }
      ],
      "name": "TransferBatchChild",
      "type": "event"
    },
    {
      "anonymous": false,
      "inputs": [
        {
          "indexed": true,
          "internalType": "uint256",
          "name": "fromTokenId",
          "type": "uint256"
        },
        {
          "indexed": true,
          "internalType": "address",
          "name": "to",
          "type": "address"
        },
        {
          "indexed": true,
          "internalType": "address",
          "name": "childContract",
          "type": "address"
        },
        {
          "indexed": false,
          "internalType": "uint256",
          "name": "childTokenId",
          "type": "uint256"
        },
        {
          "indexed": false,
          "internalType": "uint256",
          "name": "amount",
          "type": "uint256"
        }
      ],
      "name": "TransferSingleChild",
      "type": "event"
    },
    {
      "inputs": [
        {
          "internalType": "address",
          "name": "to",
          "type": "address"
        },
        {
          "internalType": "uint256",
          "name": "tokenId",
          "type": "uint256"
        }
      ],
      "name": "approve",
      "outputs": [],
      "stateMutability": "nonpayable",
      "type": "function"
    },
    {
      "inputs": [
        {
          "internalType": "address",
          "name": "owner",
          "type": "address"
        }
      ],
      "name": "balanceOf",
      "outputs": [
        {
          "internalType": "uint256",
          "name": "",
          "type": "uint256"
        }
      ],
      "stateMutability": "view",
      "type": "function"
    },
    {
      "inputs": [],
      "name": "baseURI",
      "outputs": [
        {
          "internalType": "string",
          "name": "",
          "type": "string"
        }
      ],
      "stateMutability": "view",
      "type": "function"
    },
    {
      "inputs": [
        {
          "internalType": "uint256",
          "name": "tokenId",
          "type": "uint256"
        }
      ],
      "name": "getApproved",
      "outputs": [
        {
          "internalType": "address",
          "name": "",
          "type": "address"
        }
      ],
      "stateMutability": "view",
      "type": "function"
    },
    {
      "inputs": [
        {
          "internalType": "address",
          "name": "owner",
          "type": "address"
        },
        {
          "internalType": "address",
          "name": "operator",
          "type": "address"
        }
      ],
      "name": "isApprovedForAll",
      "outputs": [
        {
          "internalType": "bool",
          "name": "",
          "type": "bool"
        }
      ],
      "stateMutability": "view",
      "type": "function"
    },
    {
      "inputs": [],
      "name": "name",
      "outputs": [
        {
          "internalType": "string",
          "name": "",
          "type": "string"
        }
      ],
      "stateMutability": "view",
      "type": "function"
    },
    {
      "inputs": [
        {
          "internalType": "uint256",
          "name": "tokenId",
          "type": "uint256"
        }
      ],
      "name": "ownerOf",
      "outputs": [
        {
          "internalType": "address",
          "name": "",
          "type": "address"
        }
      ],
      "stateMutability": "view",
      "type": "function"
    },
    {
      "inputs": [
        {
          "internalType": "address",
          "name": "from",
          "type": "address"
        },
        {
          "internalType": "address",
          "name": "to",
          "type": "address"
        },
        {
          "internalType": "uint256",
          "name": "tokenId",
          "type": "uint256"
        }
      ],
      "name": "safeTransferFrom",
      "outputs": [],
      "stateMutability": "nonpayable",
      "type": "function"
    },
    {
      "inputs": [
        {
          "internalType": "address",
          "name": "from",
          "type": "address"
        },
        {
          "internalType": "address",
          "name": "to",
          "type": "address"
        },
        {
          "internalType": "uint256",
          "name": "tokenId",
          "type": "uint256"
        },
        {
          "internalType": "bytes",
          "name": "_data",
          "type": "bytes"
        }
      ],
      "name": "safeTransferFrom",
      "outputs": [],
      "stateMutability": "nonpayable",
      "type": "function"
    },
    {
      "inputs": [
        {
          "internalType": "address",
          "name": "operator",
          "type": "address"
        },
        {
          "internalType": "bool",
          "name": "approved",
          "type": "bool"
        }
      ],
      "name": "setApprovalForAll",
      "outputs": [],
      "stateMutability": "nonpayable",
      "type": "function"
    },
    {
      "inputs": [
        {
          "internalType": "bytes4",
          "name": "interfaceId",
          "type": "bytes4"
        }
      ],
      "name": "supportsInterface",
      "outputs": [
        {
          "internalType": "bool",
          "name": "",
          "type": "bool"
        }
      ],
      "stateMutability": "view",
      "type": "function"
    },
    {
      "inputs": [],
      "name": "symbol",
      "outputs": [
        {
          "internalType": "string",
          "name": "",
          "type": "string"
        }
      ],
      "stateMutability": "view",
      "type": "function"
    },
    {
      "inputs": [
        {
          "internalType": "uint256",
          "name": "index",
          "type": "uint256"
        }
      ],
      "name": "tokenByIndex",
      "outputs": [
        {
          "internalType": "uint256",
          "name": "",
          "type": "uint256"
        }
      ],
      "stateMutability": "view",
      "type": "function"
    },
    {
      "inputs": [
        {
          "internalType": "address",
          "name": "owner",
          "type": "address"
        },
        {
          "internalType": "uint256",
          "name": "index",
          "type": "uint256"
        }
      ],
      "name": "tokenOfOwnerByIndex",
      "outputs": [
        {
          "internalType": "uint256",
          "name": "",
          "type": "uint256"
        }
      ],
      "stateMutability": "view",
      "type": "function"
    },
    {
      "inputs": [
        {
          "internalType": "uint256",
          "name": "tokenId",
          "type": "uint256"
        }
      ],
      "name": "tokenURI",
      "outputs": [
        {
          "internalType": "string",
          "name": "",
          "type": "string"
        }
      ],
      "stateMutability": "view",
      "type": "function"
    },
    {
      "inputs": [],
      "name": "totalSupply",
      "outputs": [
        {
          "internalType": "uint256",
          "name": "",
          "type": "uint256"
        }
      ],
      "stateMutability": "view",
      "type": "function"
    },
    {
      "inputs": [
        {
          "internalType": "address",
          "name": "from",
          "type": "address"
        },
        {
          "internalType": "address",
          "name": "to",
          "type": "address"
        },
        {
          "internalType": "uint256",
          "name": "tokenId",
          "type": "uint256"
        }
      ],
      "name": "transferFrom",
      "outputs": [],
      "stateMutability": "nonpayable",
      "type": "function"
    },
    {
      "inputs": [
        {
          "internalType": "uint256",
          "name": "composableId",
          "type": "uint256"
        },
        {
          "internalType": "address",
          "name": "childContract",
          "type": "address"
        },
        {
          "internalType": "uint256",
          "name": "tierId",
          "type": "uint256"
        }
      ],
      "name": "childBalance",
      "outputs": [
        {
          "internalType": "uint256",
          "name": "",
          "type": "uint256"
        }
      ],
      "stateMutability": "view",
      "type": "function"
    },
    {
      "inputs": [
        {
          "internalType": "uint256",
          "name": "composableId",
          "type": "uint256"
        }
      ],
      "name": "childContractsFor",
      "outputs": [
        {
          "internalType": "address[]",
          "name": "",
          "type": "address[]"
        }
      ],
      "stateMutability": "view",
      "type": "function"
    },
    {
      "inputs": [
        {
          "internalType": "uint256",
          "name": "composableId",
          "type": "uint256"
        },
        {
          "internalType": "address",
          "name": "childContract",
          "type": "address"
        }
      ],
      "name": "childIdsForOn",
      "outputs": [
        {
          "internalType": "uint256[]",
          "name": "",
          "type": "uint256[]"
        }
      ],
      "stateMutability": "view",
      "type": "function"
    },
    {
      "inputs": [
        {
          "internalType": "address",
          "name": "operator",
          "type": "address"
        },
        {
          "internalType": "address",
          "name": "from",
          "type": "address"
        },
        {
          "internalType": "uint256",
          "name": "id",
          "type": "uint256"
        },
        {
          "internalType": "uint256",
          "name": "amount",
          "type": "uint256"
        },
        {
          "internalType": "bytes",
          "name": "data",
          "type": "bytes"
        }
      ],
      "name": "onERC1155Received",
      "outputs": [
        {
          "internalType": "bytes4",
          "name": "",
          "type": "bytes4"
        }
      ],
      "stateMutability": "nonpayable",
      "type": "function"
    },
    {
      "inputs": [
        {
          "internalType": "address",
          "name": "operator",
          "type": "address"
        },
        {
          "internalType": "address",
          "name": "from",
          "type": "address"
        },
        {
          "internalType": "uint256[]",
          "name": "ids",
          "type": "uint256[]"
        },
        {
          "internalType": "uint256[]",
          "name": "values",
          "type": "uint256[]"
        },
        {
          "internalType": "bytes",
          "name": "data",
          "type": "bytes"
        }
      ],
      "name": "onERC1155BatchReceived",
      "outputs": [
        {
          "internalType": "bytes4",
          "name": "",
          "type": "bytes4"
        }
      ],
      "stateMutability": "nonpayable",
      "type": "function"
    }
  ],
  "bytecode": "0x60806040523480156200001157600080fd5b5060405162003b0738038062003b07833981810160405260608110156200003757600080fd5b81019080805160405193929190846401000000008211156200005857600080fd5b838201915060208201858111156200006f57600080fd5b82518660018202830111640100000000821117156200008d57600080fd5b8083526020830192505050908051906020019080838360005b83811015620000c3578082015181840152602081019050620000a6565b50505050905090810190601f168015620000f15780820380516001836020036101000a031916815260200191505b50604052602001805160405193929190846401000000008211156200011557600080fd5b838201915060208201858111156200012c57600080fd5b82518660018202830111640100000000821117156200014a57600080fd5b8083526020830192505050908051906020019080838360005b838110156200018057808201518184015260208101905062000163565b50505050905090810190601f168015620001ae5780820380516001836020036101000a031916815260200191505b5060405260200180516040519392919084640100000000821115620001d257600080fd5b83820191506020820185811115620001e957600080fd5b82518660018202830111640100000000821117156200020757600080fd5b8083526020830192505050908051906020019080838360005b838110156200023d57808201518184015260208101905062000220565b50505050905090810190601f1680156200026b5780820380516001836020036101000a031916815260200191505b5060405250505082826200028c6301ffc9a760e01b6200034360201b60201c565b8160069080519060200190620002a492919062000468565b508060079080519060200190620002bd92919062000468565b50620002d66380ac58cd60e01b6200034360201b60201c565b620002ee635b5e139f60e01b6200034360201b60201c565b6200030663780e9d6360e01b6200034360201b60201c565b50506200032963bc197c8160e01b63f23a6e6160e01b186200034360201b60201c565b6200033a816200044c60201b60201c565b50505062000517565b63ffffffff60e01b817bffffffffffffffffffffffffffffffffffffffffffffffffffffffff19161415620003e0576040517f08c379a000000000000000000000000000000000000000000000000000000000815260040180806020018281038252601c8152602001807f4552433136353a20696e76616c696420696e746572666163652069640000000081525060200191505060405180910390fd5b6001600080837bffffffffffffffffffffffffffffffffffffffffffffffffffffffff19167bffffffffffffffffffffffffffffffffffffffffffffffffffffffff1916815260200190815260200160002060006101000a81548160ff02191690831515021790555050565b80600990805190602001906200046492919062000468565b5050565b828054600181600116156101000203166002900490600052602060002090601f016020900481019282601f10620004ab57805160ff1916838001178555620004dc565b82800160010185558215620004dc579182015b82811115620004db578251825591602001919060010190620004be565b5b509050620004eb9190620004ef565b5090565b6200051491905b8082111562000510576000816000905550600101620004f6565b5090565b90565b6135e080620005276000396000f3fe608060405234801561001057600080fd5b50600436106101425760003560e01c80636352211e116100b8578063a22cb4651161007c578063a22cb465146107e7578063b88d4fde14610837578063bc197c811461093c578063c87b56dd14610bb1578063e985e9c514610c58578063f23a6e6114610cd457610142565b80636352211e146105985780636c0360eb1461060657806370a082311461068957806389e7e2f2146106e157806395d89b411461076457610142565b806323b872dd1161010a57806323b872dd146103095780632676608c146103775780632f745c591461041a57806342842e0e1461047c5780634f6ccce7146104ea57806360d4d23a1461052c57610142565b806301ffc9a71461014757806306fdde03146101ac578063081812fc1461022f578063095ea7b31461029d57806318160ddd146102eb575b600080fd5b6101926004803603602081101561015d57600080fd5b8101908080357bffffffffffffffffffffffffffffffffffffffffffffffffffffffff19169060200190929190505050610e35565b604051808215151515815260200191505060405180910390f35b6101b4610e9c565b6040518080602001828103825283818151815260200191508051906020019080838360005b838110156101f45780820151818401526020810190506101d9565b50505050905090810190601f1680156102215780820380516001836020036101000a031916815260200191505b509250505060405180910390f35b61025b6004803603602081101561024557600080fd5b8101908080359060200190929190505050610f3e565b604051808273ffffffffffffffffffffffffffffffffffffffff1673ffffffffffffffffffffffffffffffffffffffff16815260200191505060405180910390f35b6102e9600480360360408110156102b357600080fd5b81019080803573ffffffffffffffffffffffffffffffffffffffff16906020019092919080359060200190929190505050610fd9565b005b6102f361111d565b6040518082815260200191505060405180910390f35b6103756004803603606081101561031f57600080fd5b81019080803573ffffffffffffffffffffffffffffffffffffffff169060200190929190803573ffffffffffffffffffffffffffffffffffffffff1690602001909291908035906020019092919050505061112e565b005b6103c36004803603604081101561038d57600080fd5b8101908080359060200190929190803573ffffffffffffffffffffffffffffffffffffffff1690602001909291905050506111a4565b6040518080602001828103825283818151815260200191508051906020019060200280838360005b838110156104065780820151818401526020810190506103eb565b505050509050019250505060405180910390f35b6104666004803603604081101561043057600080fd5b81019080803573ffffffffffffffffffffffffffffffffffffffff16906020019092919080359060200190929190505050611327565b6040518082815260200191505060405180910390f35b6104e86004803603606081101561049257600080fd5b81019080803573ffffffffffffffffffffffffffffffffffffffff169060200190929190803573ffffffffffffffffffffffffffffffffffffffff16906020019092919080359060200190929190505050611382565b005b6105166004803603602081101561050057600080fd5b81019080803590602001909291905050506113a2565b6040518082815260200191505060405180910390f35b6105826004803603606081101561054257600080fd5b8101908080359060200190929190803573ffffffffffffffffffffffffffffffffffffffff169060200190929190803590602001909291905050506113c5565b6040518082815260200191505060405180910390f35b6105c4600480360360208110156105ae57600080fd5b8101908080359060200190929190505050611432565b604051808273ffffffffffffffffffffffffffffffffffffffff1673ffffffffffffffffffffffffffffffffffffffff16815260200191505060405180910390f35b61060e611469565b6040518080602001828103825283818151815260200191508051906020019080838360005b8381101561064e578082015181840152602081019050610633565b50505050905090810190601f16801561067b5780820380516001836020036101000a031916815260200191505b509250505060405180910390f35b6106cb6004803603602081101561069f57600080fd5b81019080803573ffffffffffffffffffffffffffffffffffffffff16906020019092919050505061150b565b6040518082815260200191505060405180910390f35b61070d600480360360208110156106f757600080fd5b81019080803590602001909291905050506115e0565b6040518080602001828103825283818151815260200191508051906020019060200280838360005b83811015610750578082015181840152602081019050610735565b505050509050019250505060405180910390f35b61076c6116d9565b6040518080602001828103825283818151815260200191508051906020019080838360005b838110156107ac578082015181840152602081019050610791565b50505050905090810190601f1680156107d95780820380516001836020036101000a031916815260200191505b509250505060405180910390f35b610835600480360360408110156107fd57600080fd5b81019080803573ffffffffffffffffffffffffffffffffffffffff16906020019092919080351515906020019092919050505061177b565b005b61093a6004803603608081101561084d57600080fd5b81019080803573ffffffffffffffffffffffffffffffffffffffff169060200190929190803573ffffffffffffffffffffffffffffffffffffffff16906020019092919080359060200190929190803590602001906401000000008111156108b457600080fd5b8201836020820111156108c657600080fd5b803590602001918460018302840111640100000000831117156108e857600080fd5b91908080601f016020809104026020016040519081016040528093929190818152602001838380828437600081840152601f19601f820116905080830192505050505050509192919290505050611933565b005b610b5d600480360360a081101561095257600080fd5b81019080803573ffffffffffffffffffffffffffffffffffffffff169060200190929190803573ffffffffffffffffffffffffffffffffffffffff169060200190929190803590602001906401000000008111156109af57600080fd5b8201836020820111156109c157600080fd5b803590602001918460208302840111640100000000831117156109e357600080fd5b919080806020026020016040519081016040528093929190818152602001838360200280828437600081840152601f19601f82011690508083019250505050505050919291929080359060200190640100000000811115610a4357600080fd5b820183602082011115610a5557600080fd5b80359060200191846020830284011164010000000083111715610a7757600080fd5b919080806020026020016040519081016040528093929190818152602001838360200280828437600081840152601f19601f82011690508083019250505050505050919291929080359060200190640100000000811115610ad757600080fd5b820183602082011115610ae957600080fd5b80359060200191846001830284011164010000000083111715610b0b57600080fd5b91908080601f016020809104026020016040519081016040528093929190818152602001838380828437600081840152601f19601f8201169050808301925050505050505091929192905050506119ab565b60405180827bffffffffffffffffffffffffffffffffffffffffffffffffffffffff19167bffffffffffffffffffffffffffffffffffffffffffffffffffffffff1916815260200191505060405180910390f35b610bdd60048036036020811015610bc757600080fd5b8101908080359060200190929190505050611b7a565b6040518080602001828103825283818151815260200191508051906020019080838360005b83811015610c1d578082015181840152602081019050610c02565b50505050905090810190601f168015610c4a5780820380516001836020036101000a031916815260200191505b509250505060405180910390f35b610cba60048036036040811015610c6e57600080fd5b81019080803573ffffffffffffffffffffffffffffffffffffffff169060200190929190803573ffffffffffffffffffffffffffffffffffffffff169060200190929190505050611e4b565b604051808215151515815260200191505060405180910390f35b610de1600480360360a0811015610cea57600080fd5b81019080803573ffffffffffffffffffffffffffffffffffffffff169060200190929190803573ffffffffffffffffffffffffffffffffffffffff169060200190929190803590602001909291908035906020019092919080359060200190640100000000811115610d5b57600080fd5b820183602082011115610d6d57600080fd5b80359060200191846001830284011164010000000083111715610d8f57600080fd5b91908080601f016020809104026020016040519081016040528093929190818152602001838380828437600081840152601f19601f820116905080830192505050505050509192919290505050611edf565b60405180827bffffffffffffffffffffffffffffffffffffffffffffffffffffffff19167bffffffffffffffffffffffffffffffffffffffffffffffffffffffff1916815260200191505060405180910390f35b6000806000837bffffffffffffffffffffffffffffffffffffffffffffffffffffffff19167bffffffffffffffffffffffffffffffffffffffffffffffffffffffff1916815260200190815260200160002060009054906101000a900460ff169050919050565b606060068054600181600116156101000203166002900480601f016020809104026020016040519081016040528092919081815260200182805460018160011615610100020316600290048015610f345780601f10610f0957610100808354040283529160200191610f34565b820191906000526020600020905b815481529060010190602001808311610f1757829003601f168201915b5050505050905090565b6000610f4982611ffb565b610f9e576040517f08c379a000000000000000000000000000000000000000000000000000000000815260040180806020018281038252602c8152602001806134ae602c913960400191505060405180910390fd5b6004600083815260200190815260200160002060009054906101000a900473ffffffffffffffffffffffffffffffffffffffff169050919050565b6000610fe482611432565b90508073ffffffffffffffffffffffffffffffffffffffff168373ffffffffffffffffffffffffffffffffffffffff16141561106b576040517f08c379a00000000000000000000000000000000000000000000000000000000081526004018080602001828103825260218152602001806135326021913960400191505060405180910390fd5b8073ffffffffffffffffffffffffffffffffffffffff1661108a612018565b73ffffffffffffffffffffffffffffffffffffffff1614806110b957506110b8816110b3612018565b611e4b565b5b61110e576040517f08c379a00000000000000000000000000000000000000000000000000000000081526004018080602001828103825260388152602001806134016038913960400191505060405180910390fd5b6111188383612020565b505050565b600061112960026120d9565b905090565b61113f611139612018565b826120ee565b611194576040517f08c379a000000000000000000000000000000000000000000000000000000000815260040180806020018281038252603181526020018061357a6031913960400191505060405180910390fd5b61119f8383836121e2565b505050565b6060806111ff600d600086815260200190815260200160002060008573ffffffffffffffffffffffffffffffffffffffff1673ffffffffffffffffffffffffffffffffffffffff168152602001908152602001600020612425565b60405190808252806020026020018201604052801561122d5781602001602082028036833780820191505090505b50905060008090505b61128e600d600087815260200190815260200160002060008673ffffffffffffffffffffffffffffffffffffffff1673ffffffffffffffffffffffffffffffffffffffff168152602001908152602001600020612425565b81101561131c576112f781600d600088815260200190815260200160002060008773ffffffffffffffffffffffffffffffffffffffff1673ffffffffffffffffffffffffffffffffffffffff16815260200190815260200160002061243a90919063ffffffff16565b82828151811061130357fe5b6020026020010181815250508080600101915050611236565b508091505092915050565b600061137a82600160008673ffffffffffffffffffffffffffffffffffffffff1673ffffffffffffffffffffffffffffffffffffffff16815260200190815260200160002061243a90919063ffffffff16565b905092915050565b61139d83838360405180602001604052806000815250611933565b505050565b6000806113b983600261245490919063ffffffff16565b50905080915050919050565b6000600a600085815260200190815260200160002060008473ffffffffffffffffffffffffffffffffffffffff1673ffffffffffffffffffffffffffffffffffffffff16815260200190815260200160002060008381526020019081526020016000205490509392505050565b6000611462826040518060600160405280602981526020016134636029913960026124839092919063ffffffff16565b9050919050565b606060098054600181600116156101000203166002900480601f0160208091040260200160405190810160405280929190818152602001828054600181600116156101000203166002900480156115015780601f106114d657610100808354040283529160200191611501565b820191906000526020600020905b8154815290600101906020018083116114e457829003601f168201915b5050505050905090565b60008073ffffffffffffffffffffffffffffffffffffffff168273ffffffffffffffffffffffffffffffffffffffff161415611592576040517f08c379a000000000000000000000000000000000000000000000000000000000815260040180806020018281038252602a815260200180613439602a913960400191505060405180910390fd5b6115d9600160008473ffffffffffffffffffffffffffffffffffffffff1673ffffffffffffffffffffffffffffffffffffffff168152602001908152602001600020612425565b9050919050565b6060806115fe600c60008581526020019081526020016000206124a2565b60405190808252806020026020018201604052801561162c5781602001602082028036833780820191505090505b50905060008090505b611650600c60008681526020019081526020016000206124a2565b8110156116cf5761167c81600c60008781526020019081526020016000206124b790919063ffffffff16565b82828151811061168857fe5b602002602001019073ffffffffffffffffffffffffffffffffffffffff16908173ffffffffffffffffffffffffffffffffffffffff16815250508080600101915050611635565b5080915050919050565b606060078054600181600116156101000203166002900480601f0160208091040260200160405190810160405280929190818152602001828054600181600116156101000203166002900480156117715780601f1061174657610100808354040283529160200191611771565b820191906000526020600020905b81548152906001019060200180831161175457829003601f168201915b5050505050905090565b611783612018565b73ffffffffffffffffffffffffffffffffffffffff168273ffffffffffffffffffffffffffffffffffffffff161415611824576040517f08c379a00000000000000000000000000000000000000000000000000000000081526004018080602001828103825260198152602001807f4552433732313a20617070726f766520746f2063616c6c65720000000000000081525060200191505060405180910390fd5b8060056000611831612018565b73ffffffffffffffffffffffffffffffffffffffff1673ffffffffffffffffffffffffffffffffffffffff16815260200190815260200160002060008473ffffffffffffffffffffffffffffffffffffffff1673ffffffffffffffffffffffffffffffffffffffff16815260200190815260200160002060006101000a81548160ff0219169083151502179055508173ffffffffffffffffffffffffffffffffffffffff166118de612018565b73ffffffffffffffffffffffffffffffffffffffff167f17307eab39ab6107e8899845ad3d59bd9653f200f220920489ca2b5937696c3183604051808215151515815260200191505060405180910390a35050565b61194461193e612018565b836120ee565b611999576040517f08c379a000000000000000000000000000000000000000000000000000000000815260040180806020018281038252603181526020018061357a6031913960400191505060405180910390fd5b6119a5848484846124d1565b50505050565b60006020825114611a07576040517f08c379a00000000000000000000000000000000000000000000000000000000081526004018080602001828103825260538152602001806133386053913960600191505060405180910390fd5b8251845114611a61576040517f08c379a00000000000000000000000000000000000000000000000000000000081526004018080602001828103825260278152602001806135536027913960400191505060405180910390fd5b611a718660003088888888612543565b600080602060003690500390508035915060008090505b8651811015611b6457611ac38333898481518110611aa257fe5b6020026020010151898581518110611ab657fe5b602002602001015161254c565b3373ffffffffffffffffffffffffffffffffffffffff16838973ffffffffffffffffffffffffffffffffffffffff167fa18753b0660a8be2cdae03468c860b47c2926433ab16917f323544652803032d8a8581518110611b1f57fe5b60200260200101518a8681518110611b3357fe5b6020026020010151604051808381526020018281526020019250505060405180910390a48080600101915050611a88565b5063bc197c8160e01b9250505095945050505050565b6060611b8582611ffb565b611bda576040517f08c379a000000000000000000000000000000000000000000000000000000000815260040180806020018281038252602f815260200180613503602f913960400191505060405180910390fd5b6060600860008481526020019081526020016000208054600181600116156101000203166002900480601f016020809104026020016040519081016040528092919081815260200182805460018160011615610100020316600290048015611c835780601f10611c5857610100808354040283529160200191611c83565b820191906000526020600020905b815481529060010190602001808311611c6657829003601f168201915b505050505090506060611c94611469565b9050600081511415611caa578192505050611e46565b600082511115611d7b5780826040516020018083805190602001908083835b60208310611cec5780518252602082019150602081019050602083039250611cc9565b6001836020036101000a03801982511681845116808217855250505050505090500182805190602001908083835b60208310611d3d5780518252602082019150602081019050602083039250611d1a565b6001836020036101000a0380198251168184511680821785525050505050509050019250505060405160208183030381529060405292505050611e46565b80611d85856126df565b6040516020018083805190602001908083835b60208310611dbb5780518252602082019150602081019050602083039250611d98565b6001836020036101000a03801982511681845116808217855250505050505090500182805190602001908083835b60208310611e0c5780518252602082019150602081019050602083039250611de9565b6001836020036101000a03801982511681845116808217855250505050505090500192505050604051602081830303815290604052925050505b919050565b6000600560008473ffffffffffffffffffffffffffffffffffffffff1673ffffffffffffffffffffffffffffffffffffffff16815260200190815260200160002060008373ffffffffffffffffffffffffffffffffffffffff1673ffffffffffffffffffffffffffffffffffffffff16815260200190815260200160002060009054906101000a900460ff16905092915050565b60006020825114611f3b576040517f08c379a00000000000000000000000000000000000000000000000000000000081526004018080602001828103825260538152602001806133386053913960600191505060405180910390fd5b611f5b8660003088611f4c8961280f565b611f558961280f565b88612543565b6000806020600036905003905080359150611f788233888861254c565b3373ffffffffffffffffffffffffffffffffffffffff16828873ffffffffffffffffffffffffffffffffffffffff167fa18753b0660a8be2cdae03468c860b47c2926433ab16917f323544652803032d8989604051808381526020018281526020019250505060405180910390a463f23a6e6160e01b9250505095945050505050565b600061201182600261286890919063ffffffff16565b9050919050565b600033905090565b816004600083815260200190815260200160002060006101000a81548173ffffffffffffffffffffffffffffffffffffffff021916908373ffffffffffffffffffffffffffffffffffffffff160217905550808273ffffffffffffffffffffffffffffffffffffffff1661209383611432565b73ffffffffffffffffffffffffffffffffffffffff167f8c5be1e5ebec7d5bd14f71427d1e84f3dd0314c0f7b2291e5b200ac8c7c3b92560405160405180910390a45050565b60006120e782600001612882565b9050919050565b60006120f982611ffb565b61214e576040517f08c379a000000000000000000000000000000000000000000000000000000000815260040180806020018281038252602c8152602001806133d5602c913960400191505060405180910390fd5b600061215983611432565b90508073ffffffffffffffffffffffffffffffffffffffff168473ffffffffffffffffffffffffffffffffffffffff1614806121c857508373ffffffffffffffffffffffffffffffffffffffff166121b084610f3e565b73ffffffffffffffffffffffffffffffffffffffff16145b806121d957506121d88185611e4b565b5b91505092915050565b8273ffffffffffffffffffffffffffffffffffffffff1661220282611432565b73ffffffffffffffffffffffffffffffffffffffff161461226e576040517f08c379a00000000000000000000000000000000000000000000000000000000081526004018080602001828103825260298152602001806134da6029913960400191505060405180910390fd5b600073ffffffffffffffffffffffffffffffffffffffff168273ffffffffffffffffffffffffffffffffffffffff1614156122f4576040517f08c379a000000000000000000000000000000000000000000000000000000000815260040180806020018281038252602481526020018061338b6024913960400191505060405180910390fd5b6122ff838383612893565b61230a600082612020565b61235b81600160008673ffffffffffffffffffffffffffffffffffffffff1673ffffffffffffffffffffffffffffffffffffffff16815260200190815260200160002061289890919063ffffffff16565b506123ad81600160008573ffffffffffffffffffffffffffffffffffffffff1673ffffffffffffffffffffffffffffffffffffffff1681526020019081526020016000206128b290919063ffffffff16565b506123c4818360026128cc9092919063ffffffff16565b50808273ffffffffffffffffffffffffffffffffffffffff168473ffffffffffffffffffffffffffffffffffffffff167fddf252ad1be2c89b69c2b068fc378daa952ba7f163c4a11628f55a4df523b3ef60405160405180910390a4505050565b600061243382600001612901565b9050919050565b60006124498360000183612912565b60001c905092915050565b6000806000806124678660000186612995565b915091508160001c8160001c8090509350935050509250929050565b6000612496846000018460001b84612a2e565b60001c90509392505050565b60006124b082600001612901565b9050919050565b60006124c68360000183612912565b60001c905092915050565b6124dc8484846121e2565b6124e884848484612b24565b61253d576040517f08c379a00000000000000000000000000000000000000000000000000000000081526004018080602001828103825260328152602001806133066032913960400191505060405180910390fd5b50505050565b50505050505050565b61257183600c6000878152602001908152602001600020612d6990919063ffffffff16565b61259c5761259a83600c6000878152602001908152602001600020612d9990919063ffffffff16565b505b6000600a600086815260200190815260200160002060008573ffffffffffffffffffffffffffffffffffffffff1673ffffffffffffffffffffffffffffffffffffffff168152602001908152602001600020600084815260200190815260200160002054141561266a5761266882600d600085815260200190815260200160002060008673ffffffffffffffffffffffffffffffffffffffff1673ffffffffffffffffffffffffffffffffffffffff1681526020019081526020016000206128b290919063ffffffff16565b505b80600a600086815260200190815260200160002060008573ffffffffffffffffffffffffffffffffffffffff1673ffffffffffffffffffffffffffffffffffffffff16815260200190815260200160002060008481526020019081526020016000206000828254019250508190555050505050565b60606000821415612727576040518060400160405280600181526020017f3000000000000000000000000000000000000000000000000000000000000000815250905061280a565b600082905060005b60008214612751578080600101915050600a828161274957fe5b04915061272f565b6060816040519080825280601f01601f1916602001820160405280156127865781602001600182028036833780820191505090505b50905060006001830390508593505b6000841461280257600a84816127a757fe5b0660300160f81b828280600190039350815181106127c157fe5b60200101907effffffffffffffffffffffffffffffffffffffffffffffffffffffffffffff1916908160001a905350600a84816127fa57fe5b049350612795565b819450505050505b919050565b60608060016040519080825280602002602001820160405280156128425781602001602082028036833780820191505090505b509050828160008151811061285357fe5b60200260200101818152505080915050919050565b600061287a836000018360001b612dc9565b905092915050565b600081600001805490509050919050565b505050565b60006128aa836000018360001b612dec565b905092915050565b60006128c4836000018360001b612ed4565b905092915050565b60006128f8846000018460001b8473ffffffffffffffffffffffffffffffffffffffff1660001b612f44565b90509392505050565b600081600001805490509050919050565b600081836000018054905011612973576040517f08c379a00000000000000000000000000000000000000000000000000000000081526004018080602001828103825260228152602001806132e46022913960400191505060405180910390fd5b82600001828154811061298257fe5b9060005260206000200154905092915050565b600080828460000180549050116129f7576040517f08c379a000000000000000000000000000000000000000000000000000000000815260040180806020018281038252602281526020018061348c6022913960400191505060405180910390fd5b6000846000018481548110612a0857fe5b906000526020600020906002020190508060000154816001015492509250509250929050565b60008084600101600085815260200190815260200160002054905060008114158390612af5576040517f08c379a00000000000000000000000000000000000000000000000000000000081526004018080602001828103825283818151815260200191508051906020019080838360005b83811015612aba578082015181840152602081019050612a9f565b50505050905090810190601f168015612ae75780820380516001836020036101000a031916815260200191505b509250505060405180910390fd5b50846000016001820381548110612b0857fe5b9060005260206000209060020201600101549150509392505050565b6000612b458473ffffffffffffffffffffffffffffffffffffffff16613020565b612b525760019050612d61565b6060612ce863150b7a0260e01b612b67612018565b888787604051602401808573ffffffffffffffffffffffffffffffffffffffff1673ffffffffffffffffffffffffffffffffffffffff1681526020018473ffffffffffffffffffffffffffffffffffffffff1673ffffffffffffffffffffffffffffffffffffffff16815260200183815260200180602001828103825283818151815260200191508051906020019080838360005b83811015612c17578082015181840152602081019050612bfc565b50505050905090810190601f168015612c445780820380516001836020036101000a031916815260200191505b5095505050505050604051602081830303815290604052907bffffffffffffffffffffffffffffffffffffffffffffffffffffffff19166020820180517bffffffffffffffffffffffffffffffffffffffffffffffffffffffff8381831617835250505050604051806060016040528060328152602001613306603291398773ffffffffffffffffffffffffffffffffffffffff166130339092919063ffffffff16565b90506000818060200190516020811015612d0157600080fd5b8101908080519060200190929190505050905063150b7a0260e01b7bffffffffffffffffffffffffffffffffffffffffffffffffffffffff1916817bffffffffffffffffffffffffffffffffffffffffffffffffffffffff191614925050505b949350505050565b6000612d91836000018373ffffffffffffffffffffffffffffffffffffffff1660001b61304b565b905092915050565b6000612dc1836000018373ffffffffffffffffffffffffffffffffffffffff1660001b612ed4565b905092915050565b600080836001016000848152602001908152602001600020541415905092915050565b60008083600101600084815260200190815260200160002054905060008114612ec85760006001820390506000600186600001805490500390506000866000018281548110612e3757fe5b9060005260206000200154905080876000018481548110612e5457fe5b9060005260206000200181905550600183018760010160008381526020019081526020016000208190555086600001805480612e8c57fe5b60019003818190600052602060002001600090559055866001016000878152602001908152602001600020600090556001945050505050612ece565b60009150505b92915050565b6000612ee0838361304b565b612f39578260000182908060018154018082558091505060019003906000526020600020016000909190919091505582600001805490508360010160008481526020019081526020016000208190555060019050612f3e565b600090505b92915050565b6000808460010160008581526020019081526020016000205490506000811415612feb57846000016040518060400160405280868152602001858152509080600181540180825580915050600190039060005260206000209060020201600090919091909150600082015181600001556020820151816001015550508460000180549050856001016000868152602001908152602001600020819055506001915050613019565b82856000016001830381548110612ffe57fe5b90600052602060002090600202016001018190555060009150505b9392505050565b600080823b905060008111915050919050565b6060613042848460008561306e565b90509392505050565b600080836001016000848152602001908152602001600020541415905092915050565b6060824710156130c9576040517f08c379a00000000000000000000000000000000000000000000000000000000081526004018080602001828103825260268152602001806133af6026913960400191505060405180910390fd5b6130d285613020565b613144576040517f08c379a000000000000000000000000000000000000000000000000000000000815260040180806020018281038252601d8152602001807f416464726573733a2063616c6c20746f206e6f6e2d636f6e747261637400000081525060200191505060405180910390fd5b600060608673ffffffffffffffffffffffffffffffffffffffff1685876040518082805190602001908083835b602083106131945780518252602082019150602081019050602083039250613171565b6001836020036101000a03801982511681845116808217855250505050505090500191505060006040518083038185875af1925050503d80600081146131f6576040519150601f19603f3d011682016040523d82523d6000602084013e6131fb565b606091505b509150915061320b828286613217565b92505050949350505050565b60608315613227578290506132dc565b60008351111561323a5782518084602001fd5b816040517f08c379a00000000000000000000000000000000000000000000000000000000081526004018080602001828103825283818151815260200191508051906020019080838360005b838110156132a1578082015181840152602081019050613286565b50505050905090810190601f1680156132ce5780820380516001836020036101000a031916815260200191505b509250505060405180910390fd5b939250505056fe456e756d657261626c655365743a20696e646578206f7574206f6620626f756e64734552433732313a207472616e7366657220746f206e6f6e20455243373231526563656976657220696d706c656d656e7465724552433939383a2064617461206d75737420636f6e7461696e2074686520756e697175652075696e7432353620746f6b656e496420746f207472616e7366657220746865206368696c6420746f6b656e20746f4552433732313a207472616e7366657220746f20746865207a65726f2061646472657373416464726573733a20696e73756666696369656e742062616c616e636520666f722063616c6c4552433732313a206f70657261746f7220717565727920666f72206e6f6e6578697374656e7420746f6b656e4552433732313a20617070726f76652063616c6c6572206973206e6f74206f776e6572206e6f7220617070726f76656420666f7220616c6c4552433732313a2062616c616e636520717565727920666f7220746865207a65726f20616464726573734552433732313a206f776e657220717565727920666f72206e6f6e6578697374656e7420746f6b656e456e756d657261626c654d61703a20696e646578206f7574206f6620626f756e64734552433732313a20617070726f76656420717565727920666f72206e6f6e6578697374656e7420746f6b656e4552433732313a207472616e73666572206f6620746f6b656e2074686174206973206e6f74206f776e4552433732314d657461646174613a2055524920717565727920666f72206e6f6e6578697374656e7420746f6b656e4552433732313a20617070726f76616c20746f2063757272656e74206f776e6572455243313135353a2069647320616e642076616c756573206c656e677468206d69736d617463684552433732313a207472616e736665722063616c6c6572206973206e6f74206f776e6572206e6f7220617070726f766564a2646970667358221220f0f8ca088bcd8857beb922614badd4ff98da82ebca411a34137f38aec8a6bb0f64736f6c63430006030033",
  "source": "// SPDX-License-Identifier: UNLICENSED\n\npragma solidity ^0.6.0;\n\nimport \"@openzeppelin/contracts/token/ERC1155/ERC1155.sol\";\nimport \"@openzeppelin/contracts/token/ERC1155/ERC1155Receiver.sol\";\nimport \"@openzeppelin/contracts/token/ERC721/ERC721.sol\";\nimport \"@openzeppelin/contracts/utils/EnumerableSet.sol\";\n\nimport \"./IERC998ERC1155TopDown.sol\";\n\ncontract ERC998ERC1155TopDown is\n    ERC721,\n    ERC1155Receiver,\n    IERC998ERC1155TopDown\n{\n    // RESERVING TIER  index 0 is buying price set by creator\n    //                 index 1\n\n    using EnumerableSet for EnumerableSet.AddressSet;\n    using EnumerableSet for EnumerableSet.UintSet;\n\n    mapping(uint256 => mapping(address => mapping(uint256 => uint256)))\n        private _balances;\n\n    mapping(address => mapping(uint256 => EnumerableSet.UintSet))\n        private _holdersOf;\n\n    mapping(uint256 => EnumerableSet.AddressSet) private _childContract;\n\n    mapping(uint256 => mapping(address => EnumerableSet.UintSet))\n        private _childsForChildContract;\n\n    // map each composable to maxTier\n    /// (erc998.address , id )\n    constructor(\n        string memory _name,\n        string memory _symbol,\n        string memory _baseURI\n    ) public ERC721(_name, _symbol) {\n        _setBaseURI(_baseURI);\n    }\n\n    /**\n     * @notice tier level for a composable\n     *\n     *\n     * @dev Gives child balance for a specific child contract and child id .\n     * @param composableId, composable ID\n     * @param childContract 1155tier upgrade contract\n     * @param tierId tier level\n     * @return uint tier\n     */\n    function childBalance(\n        uint256 composableId,\n        address childContract, // ERC1155TUMP contract address\n        uint256 tierId\n    ) external view override returns (uint256) {\n        return _balances[composableId][childContract][tierId];\n    }\n\n    /**\n     *\n     *\n     * @dev Gives list of child contract where token ID has childs.\n     */\n\n    function childContractsFor(uint256 composableId)\n        external\n        view\n        override\n        returns (address[] memory)\n    {\n        address[] memory childContracts = new address[](\n            _childContract[composableId].length()\n        );\n\n        for (uint256 i = 0; i < _childContract[composableId].length(); i++) {\n            childContracts[i] = _childContract[composableId].at(i);\n        }\n\n        return childContracts;\n    }\n\n    /**\n     * @dev Gives list of owned child ID on a child contract by token ID.\n     */\n    function childIdsForOn(uint256 composableId, address childContract)\n        external\n        view\n        override\n        returns (uint256[] memory)\n    {\n        uint256[] memory tierIds = new uint256[](\n            _childsForChildContract[composableId][childContract].length()\n        );\n\n        for (\n            uint256 i = 0;\n            i < _childsForChildContract[composableId][childContract].length();\n            i++\n        ) {\n            tierIds[i] = _childsForChildContract[composableId][childContract]\n                .at(i);\n        }\n\n        return tierIds;\n    }\n\n    function onERC1155Received(\n        address operator,\n        address from,\n        uint256 id,\n        uint256 amount,\n        bytes memory data\n    ) public virtual override returns (bytes4) {\n        // require(id == (tier.add(1)));\n        // checks\n        require(\n            data.length == 32,\n            \"ERC998: data must contain the unique uint256 tokenId to transfer the child token to\"\n        );\n        _beforeChildTransfer(\n            operator,\n            0,\n            address(this),\n            from,\n            _asSingletonArray(id),\n            _asSingletonArray(amount),\n            data\n        );\n        uint256 _receiverTokenId;\n        uint256 _index = msg.data.length - 32;\n        assembly {\n            _receiverTokenId := calldataload(_index)\n        }\n\n        _receiveChild(_receiverTokenId, msg.sender, id, amount);\n        ReceivedChild(from, _receiverTokenId, msg.sender, id, amount);\n        //  tier++;\n        return this.onERC1155Received.selector;\n    }\n\n    // function _upgradeSNFTtier() {}\n\n    function _receiveChild(\n        uint256 tokenId, // composableId\n        address childContract, // 1155 tier contract\n        uint256 tierId,\n        uint256 amount // must be 1   a tier can only be upgrded once\n    ) internal virtual {\n        // check\n        if (!_childContract[tokenId].contains(childContract)) {\n            _childContract[tokenId].add(childContract);\n        }\n        if (_balances[tokenId][childContract][tierId] == 0) {\n            _childsForChildContract[tierId][childContract].add(tierId);\n        }\n        _balances[tokenId][childContract][tierId] += amount; //this\n    }\n\n    function _removeChild(\n        uint256 tokenId,\n        address childContract,\n        uint256 tierId,\n        uint256 amount\n    ) internal virtual {\n        require(\n            amount != 0 || _balances[tokenId][childContract][tierId] >= amount,\n            \"ERC998: insufficient child balance for transfer\"\n        );\n        _balances[tokenId][childContract][tierId] -= amount;\n        if (_balances[tokenId][childContract][tierId] == 0) {\n            _holdersOf[childContract][tierId].remove(tokenId);\n            _childsForChildContract[tokenId][childContract].remove(tierId);\n            if (_childsForChildContract[tokenId][childContract].length() == 0) {\n                _childContract[tokenId].remove(childContract);\n            }\n        }\n    }\n\n    function _beforeChildTransfer(\n        address operator,\n        uint256 fromTokenId,\n        address to,\n        address childContract,\n        uint256[] memory ids,\n        uint256[] memory amounts,\n        bytes memory data\n    ) internal virtual {}\n\n    function _asSingletonArray(uint256 element)\n        private\n        pure\n        returns (uint256[] memory)\n    {\n        uint256[] memory array = new uint256[](1);\n        array[0] = element;\n\n        return array;\n    }\n\n    /**\n     * @dev Receives a batch of child tokens, the receiver token ID must be\n     * encoded in the field data.\n     */\n    function onERC1155BatchReceived(\n        address operator,\n        address from,\n        uint256[] memory ids,\n        uint256[] memory values,\n        bytes memory data\n    ) public virtual override returns (bytes4) {\n        require(\n            data.length == 32,\n            \"ERC998: data must contain the unique uint256 tokenId to transfer the child token to\"\n        );\n        require(\n            ids.length == values.length,\n            \"ERC1155: ids and values length mismatch\"\n        );\n        _beforeChildTransfer(\n            operator,\n            0,\n            address(this),\n            from,\n            ids,\n            values,\n            data\n        );\n\n        uint256 _receiverTokenId;\n        uint256 _index = msg.data.length - 32;\n        assembly {\n            _receiverTokenId := calldataload(_index)\n        }\n        for (uint256 i = 0; i < ids.length; i++) {\n            _receiveChild(_receiverTokenId, msg.sender, ids[i], values[i]);\n            ReceivedChild(\n                from,\n                _receiverTokenId,\n                msg.sender,\n                ids[i],\n                values[i]\n            );\n        }\n        return this.onERC1155BatchReceived.selector;\n    }\n}\n",
  "sourcePath": "/home/waverune/respct-club/ERC998ERC1155/contracts/ERC998ERC1155TopDown.sol",
  "compiler": {
    "name": "solc",
    "version": "0.6.3+commit.8dda9521.Emscripten.clang"
  },
  "schemaVersion": "3.4.1",
  "updatedAt": "2022-03-20T23:55:09.306Z",
  "devdoc": {
    "methods": {
      "approve(address,uint256)": {
        "details": "See {IERC721-approve}."
      },
      "balanceOf(address)": {
        "details": "See {IERC721-balanceOf}."
      },
      "baseURI()": {
        "details": "Returns the base URI set via {_setBaseURI}. This will be automatically added as a prefix in {tokenURI} to each token's URI, or to the token ID if no specific URI is set for that token ID."
      },
      "childBalance(uint256,address,uint256)": {
        "details": "Gives child balance for a specific child contract and child id .",
        "params": {
          "childContract": "1155tier upgrade contract",
          "composableId": ", composable ID",
          "tierId": "tier level"
        },
        "returns": {
          "_0": "uint tier"
        }
      },
      "childContractsFor(uint256)": {
        "details": "Gives list of child contract where token ID has childs."
      },
      "childIdsForOn(uint256,address)": {
        "details": "Gives list of owned child ID on a child contract by token ID."
      },
      "getApproved(uint256)": {
        "details": "See {IERC721-getApproved}."
      },
      "isApprovedForAll(address,address)": {
        "details": "See {IERC721-isApprovedForAll}."
      },
      "name()": {
        "details": "See {IERC721Metadata-name}."
      },
      "onERC1155BatchReceived(address,address,uint256[],uint256[],bytes)": {
        "details": "Receives a batch of child tokens, the receiver token ID must be encoded in the field data."
      },
      "ownerOf(uint256)": {
        "details": "See {IERC721-ownerOf}."
      },
      "safeTransferFrom(address,address,uint256)": {
        "details": "See {IERC721-safeTransferFrom}."
      },
      "safeTransferFrom(address,address,uint256,bytes)": {
        "details": "See {IERC721-safeTransferFrom}."
      },
      "setApprovalForAll(address,bool)": {
        "details": "See {IERC721-setApprovalForAll}."
      },
      "supportsInterface(bytes4)": {
        "details": "See {IERC165-supportsInterface}.     * Time complexity O(1), guaranteed to always use less than 30 000 gas."
      },
      "symbol()": {
        "details": "See {IERC721Metadata-symbol}."
      },
      "tokenByIndex(uint256)": {
        "details": "See {IERC721Enumerable-tokenByIndex}."
      },
      "tokenOfOwnerByIndex(address,uint256)": {
        "details": "See {IERC721Enumerable-tokenOfOwnerByIndex}."
      },
      "tokenURI(uint256)": {
        "details": "See {IERC721Metadata-tokenURI}."
      },
      "totalSupply()": {
        "details": "See {IERC721Enumerable-totalSupply}."
      },
      "transferFrom(address,address,uint256)": {
        "details": "See {IERC721-transferFrom}."
      }
    }
  },
  "userdoc": {
    "methods": {
      "childBalance(uint256,address,uint256)": {
        "notice": "tier level for a composable     *"
      },
      "childContractsFor(uint256)": {
        "notice": "*"
      },
      "constructor": "(erc998.address , id )"
    }
  }
}