{
  "contractName": "ERC998ERC1155TopDownPresetMinterPauserUpgradeable",
  "abi": [
    {
      "anonymous": false,
      "inputs": [
        {
          "indexed": true,
          "internalType": "address",
          "name": "owner",
          "type": "address"
        },
        {
          "indexed": true,
          "internalType": "address",
          "name": "approved",
          "type": "address"
        },
        {
          "indexed": true,
          "internalType": "uint256",
          "name": "tokenId",
          "type": "uint256"
        }
      ],
      "name": "Approval",
      "type": "event"
    },
    {
      "anonymous": false,
      "inputs": [
        {
          "indexed": true,
          "internalType": "address",
          "name": "owner",
          "type": "address"
        },
        {
          "indexed": true,
          "internalType": "address",
          "name": "operator",
          "type": "address"
        },
        {
          "indexed": false,
          "internalType": "bool",
          "name": "approved",
          "type": "bool"
        }
      ],
      "name": "ApprovalForAll",
      "type": "event"
    },
    {
      "anonymous": false,
      "inputs": [
        {
          "indexed": false,
          "internalType": "address",
          "name": "account",
          "type": "address"
        }
      ],
      "name": "Paused",
      "type": "event"
    },
    {
      "anonymous": false,
      "inputs": [
        {
          "indexed": true,
          "internalType": "address",
          "name": "from",
          "type": "address"
        },
        {
          "indexed": true,
          "internalType": "uint256",
          "name": "toTokenId",
          "type": "uint256"
        },
        {
          "indexed": true,
          "internalType": "address",
          "name": "childContract",
          "type": "address"
        },
        {
          "indexed": false,
          "internalType": "uint256",
          "name": "childTokenId",
          "type": "uint256"
        },
        {
          "indexed": false,
          "internalType": "uint256",
          "name": "amount",
          "type": "uint256"
        }
      ],
      "name": "ReceivedChild",
      "type": "event"
    },
    {
      "anonymous": false,
      "inputs": [
        {
          "indexed": true,
          "internalType": "bytes32",
          "name": "role",
          "type": "bytes32"
        },
        {
          "indexed": true,
          "internalType": "bytes32",
          "name": "previousAdminRole",
          "type": "bytes32"
        },
        {
          "indexed": true,
          "internalType": "bytes32",
          "name": "newAdminRole",
          "type": "bytes32"
        }
      ],
      "name": "RoleAdminChanged",
      "type": "event"
    },
    {
      "anonymous": false,
      "inputs": [
        {
          "indexed": true,
          "internalType": "bytes32",
          "name": "role",
          "type": "bytes32"
        },
        {
          "indexed": true,
          "internalType": "address",
          "name": "account",
          "type": "address"
        },
        {
          "indexed": true,
          "internalType": "address",
          "name": "sender",
          "type": "address"
        }
      ],
      "name": "RoleGranted",
      "type": "event"
    },
    {
      "anonymous": false,
      "inputs": [
        {
          "indexed": true,
          "internalType": "bytes32",
          "name": "role",
          "type": "bytes32"
        },
        {
          "indexed": true,
          "internalType": "address",
          "name": "account",
          "type": "address"
        },
        {
          "indexed": true,
          "internalType": "address",
          "name": "sender",
          "type": "address"
        }
      ],
      "name": "RoleRevoked",
      "type": "event"
    },
    {
      "anonymous": false,
      "inputs": [
        {
          "indexed": true,
          "internalType": "address",
          "name": "from",
          "type": "address"
        },
        {
          "indexed": true,
          "internalType": "address",
          "name": "to",
          "type": "address"
        },
        {
          "indexed": true,
          "internalType": "uint256",
          "name": "tokenId",
          "type": "uint256"
        }
      ],
      "name": "Transfer",
      "type": "event"
    },
    {
      "anonymous": false,
      "inputs": [
        {
          "indexed": true,
          "internalType": "uint256",
          "name": "fromTokenId",
          "type": "uint256"
        },
        {
          "indexed": true,
          "internalType": "address",
          "name": "to",
          "type": "address"
        },
        {
          "indexed": true,
          "internalType": "address",
          "name": "childContract",
          "type": "address"
        },
        {
          "indexed": false,
          "internalType": "uint256[]",
          "name": "childTokenIds",
          "type": "uint256[]"
        },
        {
          "indexed": false,
          "internalType": "uint256[]",
          "name": "amounts",
          "type": "uint256[]"
        }
      ],
      "name": "TransferBatchChild",
      "type": "event"
    },
    {
      "anonymous": false,
      "inputs": [
        {
          "indexed": true,
          "internalType": "uint256",
          "name": "fromTokenId",
          "type": "uint256"
        },
        {
          "indexed": true,
          "internalType": "address",
          "name": "to",
          "type": "address"
        },
        {
          "indexed": true,
          "internalType": "address",
          "name": "childContract",
          "type": "address"
        },
        {
          "indexed": false,
          "internalType": "uint256",
          "name": "childTokenId",
          "type": "uint256"
        },
        {
          "indexed": false,
          "internalType": "uint256",
          "name": "amount",
          "type": "uint256"
        }
      ],
      "name": "TransferSingleChild",
      "type": "event"
    },
    {
      "anonymous": false,
      "inputs": [
        {
          "indexed": false,
          "internalType": "address",
          "name": "account",
          "type": "address"
        }
      ],
      "name": "Unpaused",
      "type": "event"
    },
    {
      "inputs": [],
      "name": "DEFAULT_ADMIN_ROLE",
      "outputs": [
        {
          "internalType": "bytes32",
          "name": "",
          "type": "bytes32"
        }
      ],
      "stateMutability": "view",
      "type": "function"
    },
    {
      "inputs": [],
      "name": "MINTER_ROLE",
      "outputs": [
        {
          "internalType": "bytes32",
          "name": "",
          "type": "bytes32"
        }
      ],
      "stateMutability": "view",
      "type": "function"
    },
    {
      "inputs": [],
      "name": "PAUSER_ROLE",
      "outputs": [
        {
          "internalType": "bytes32",
          "name": "",
          "type": "bytes32"
        }
      ],
      "stateMutability": "view",
      "type": "function"
    },
    {
      "inputs": [
        {
          "internalType": "address",
          "name": "to",
          "type": "address"
        },
        {
          "internalType": "uint256",
          "name": "tokenId",
          "type": "uint256"
        }
      ],
      "name": "approve",
      "outputs": [],
      "stateMutability": "nonpayable",
      "type": "function"
    },
    {
      "inputs": [
        {
          "internalType": "address",
          "name": "owner",
          "type": "address"
        }
      ],
      "name": "balanceOf",
      "outputs": [
        {
          "internalType": "uint256",
          "name": "",
          "type": "uint256"
        }
      ],
      "stateMutability": "view",
      "type": "function"
    },
    {
      "inputs": [],
      "name": "baseURI",
      "outputs": [
        {
          "internalType": "string",
          "name": "",
          "type": "string"
        }
      ],
      "stateMutability": "view",
      "type": "function"
    },
    {
      "inputs": [
        {
          "internalType": "uint256",
          "name": "composableId",
          "type": "uint256"
        },
        {
          "internalType": "address",
          "name": "childContract",
          "type": "address"
        },
        {
          "internalType": "uint256",
          "name": "tierId",
          "type": "uint256"
        }
      ],
      "name": "childBalance",
      "outputs": [
        {
          "internalType": "uint256",
          "name": "",
          "type": "uint256"
        }
      ],
      "stateMutability": "view",
      "type": "function"
    },
    {
      "inputs": [
        {
          "internalType": "uint256",
          "name": "composableId",
          "type": "uint256"
        }
      ],
      "name": "childContractsFor",
      "outputs": [
        {
          "internalType": "address[]",
          "name": "",
          "type": "address[]"
        }
      ],
      "stateMutability": "view",
      "type": "function"
    },
    {
      "inputs": [
        {
          "internalType": "uint256",
          "name": "composableId",
          "type": "uint256"
        },
        {
          "internalType": "address",
          "name": "childContract",
          "type": "address"
        }
      ],
      "name": "childIdsForOn",
      "outputs": [
        {
          "internalType": "uint256[]",
          "name": "",
          "type": "uint256[]"
        }
      ],
      "stateMutability": "view",
      "type": "function"
    },
    {
      "inputs": [
        {
          "internalType": "uint256",
          "name": "tokenId",
          "type": "uint256"
        }
      ],
      "name": "getApproved",
      "outputs": [
        {
          "internalType": "address",
          "name": "",
          "type": "address"
        }
      ],
      "stateMutability": "view",
      "type": "function"
    },
    {
      "inputs": [
        {
          "internalType": "bytes32",
          "name": "role",
          "type": "bytes32"
        }
      ],
      "name": "getRoleAdmin",
      "outputs": [
        {
          "internalType": "bytes32",
          "name": "",
          "type": "bytes32"
        }
      ],
      "stateMutability": "view",
      "type": "function"
    },
    {
      "inputs": [
        {
          "internalType": "bytes32",
          "name": "role",
          "type": "bytes32"
        },
        {
          "internalType": "uint256",
          "name": "index",
          "type": "uint256"
        }
      ],
      "name": "getRoleMember",
      "outputs": [
        {
          "internalType": "address",
          "name": "",
          "type": "address"
        }
      ],
      "stateMutability": "view",
      "type": "function"
    },
    {
      "inputs": [
        {
          "internalType": "bytes32",
          "name": "role",
          "type": "bytes32"
        }
      ],
      "name": "getRoleMemberCount",
      "outputs": [
        {
          "internalType": "uint256",
          "name": "",
          "type": "uint256"
        }
      ],
      "stateMutability": "view",
      "type": "function"
    },
    {
      "inputs": [
        {
          "internalType": "bytes32",
          "name": "role",
          "type": "bytes32"
        },
        {
          "internalType": "address",
          "name": "account",
          "type": "address"
        }
      ],
      "name": "grantRole",
      "outputs": [],
      "stateMutability": "nonpayable",
      "type": "function"
    },
    {
      "inputs": [
        {
          "internalType": "bytes32",
          "name": "role",
          "type": "bytes32"
        },
        {
          "internalType": "address",
          "name": "account",
          "type": "address"
        }
      ],
      "name": "hasRole",
      "outputs": [
        {
          "internalType": "bool",
          "name": "",
          "type": "bool"
        }
      ],
      "stateMutability": "view",
      "type": "function"
    },
    {
      "inputs": [
        {
          "internalType": "address",
          "name": "owner",
          "type": "address"
        },
        {
          "internalType": "address",
          "name": "operator",
          "type": "address"
        }
      ],
      "name": "isApprovedForAll",
      "outputs": [
        {
          "internalType": "bool",
          "name": "",
          "type": "bool"
        }
      ],
      "stateMutability": "view",
      "type": "function"
    },
    {
      "inputs": [],
      "name": "name",
      "outputs": [
        {
          "internalType": "string",
          "name": "",
          "type": "string"
        }
      ],
      "stateMutability": "view",
      "type": "function"
    },
    {
      "inputs": [
        {
          "internalType": "address",
          "name": "operator",
          "type": "address"
        },
        {
          "internalType": "address",
          "name": "from",
          "type": "address"
        },
        {
          "internalType": "uint256[]",
          "name": "ids",
          "type": "uint256[]"
        },
        {
          "internalType": "uint256[]",
          "name": "values",
          "type": "uint256[]"
        },
        {
          "internalType": "bytes",
          "name": "data",
          "type": "bytes"
        }
      ],
      "name": "onERC1155BatchReceived",
      "outputs": [
        {
          "internalType": "bytes4",
          "name": "",
          "type": "bytes4"
        }
      ],
      "stateMutability": "nonpayable",
      "type": "function"
    },
    {
      "inputs": [
        {
          "internalType": "address",
          "name": "operator",
          "type": "address"
        },
        {
          "internalType": "address",
          "name": "from",
          "type": "address"
        },
        {
          "internalType": "uint256",
          "name": "id",
          "type": "uint256"
        },
        {
          "internalType": "uint256",
          "name": "amount",
          "type": "uint256"
        },
        {
          "internalType": "bytes",
          "name": "data",
          "type": "bytes"
        }
      ],
      "name": "onERC1155Received",
      "outputs": [
        {
          "internalType": "bytes4",
          "name": "",
          "type": "bytes4"
        }
      ],
      "stateMutability": "nonpayable",
      "type": "function"
    },
    {
      "inputs": [
        {
          "internalType": "uint256",
          "name": "tokenId",
          "type": "uint256"
        }
      ],
      "name": "ownerOf",
      "outputs": [
        {
          "internalType": "address",
          "name": "",
          "type": "address"
        }
      ],
      "stateMutability": "view",
      "type": "function"
    },
    {
      "inputs": [
        {
          "internalType": "address",
          "name": "",
          "type": "address"
        }
      ],
      "name": "ownerToComposableId",
      "outputs": [
        {
          "internalType": "uint256",
          "name": "",
          "type": "uint256"
        }
      ],
      "stateMutability": "view",
      "type": "function"
    },
    {
      "inputs": [],
      "name": "paused",
      "outputs": [
        {
          "internalType": "bool",
          "name": "",
          "type": "bool"
        }
      ],
      "stateMutability": "view",
      "type": "function"
    },
    {
      "inputs": [
        {
          "internalType": "bytes32",
          "name": "role",
          "type": "bytes32"
        },
        {
          "internalType": "address",
          "name": "account",
          "type": "address"
        }
      ],
      "name": "renounceRole",
      "outputs": [],
      "stateMutability": "nonpayable",
      "type": "function"
    },
    {
      "inputs": [
        {
          "internalType": "bytes32",
          "name": "role",
          "type": "bytes32"
        },
        {
          "internalType": "address",
          "name": "account",
          "type": "address"
        }
      ],
      "name": "revokeRole",
      "outputs": [],
      "stateMutability": "nonpayable",
      "type": "function"
    },
    {
      "inputs": [
        {
          "internalType": "address",
          "name": "from",
          "type": "address"
        },
        {
          "internalType": "address",
          "name": "to",
          "type": "address"
        },
        {
          "internalType": "uint256",
          "name": "tokenId",
          "type": "uint256"
        }
      ],
      "name": "safeTransferFrom",
      "outputs": [],
      "stateMutability": "nonpayable",
      "type": "function"
    },
    {
      "inputs": [
        {
          "internalType": "address",
          "name": "from",
          "type": "address"
        },
        {
          "internalType": "address",
          "name": "to",
          "type": "address"
        },
        {
          "internalType": "uint256",
          "name": "tokenId",
          "type": "uint256"
        },
        {
          "internalType": "bytes",
          "name": "_data",
          "type": "bytes"
        }
      ],
      "name": "safeTransferFrom",
      "outputs": [],
      "stateMutability": "nonpayable",
      "type": "function"
    },
    {
      "inputs": [
        {
          "internalType": "address",
          "name": "operator",
          "type": "address"
        },
        {
          "internalType": "bool",
          "name": "approved",
          "type": "bool"
        }
      ],
      "name": "setApprovalForAll",
      "outputs": [],
      "stateMutability": "nonpayable",
      "type": "function"
    },
    {
      "inputs": [
        {
          "internalType": "bytes4",
          "name": "interfaceId",
          "type": "bytes4"
        }
      ],
      "name": "supportsInterface",
      "outputs": [
        {
          "internalType": "bool",
          "name": "",
          "type": "bool"
        }
      ],
      "stateMutability": "view",
      "type": "function"
    },
    {
      "inputs": [],
      "name": "symbol",
      "outputs": [
        {
          "internalType": "string",
          "name": "",
          "type": "string"
        }
      ],
      "stateMutability": "view",
      "type": "function"
    },
    {
      "inputs": [
        {
          "internalType": "uint256",
          "name": "index",
          "type": "uint256"
        }
      ],
      "name": "tokenByIndex",
      "outputs": [
        {
          "internalType": "uint256",
          "name": "",
          "type": "uint256"
        }
      ],
      "stateMutability": "view",
      "type": "function"
    },
    {
      "inputs": [
        {
          "internalType": "address",
          "name": "owner",
          "type": "address"
        },
        {
          "internalType": "uint256",
          "name": "index",
          "type": "uint256"
        }
      ],
      "name": "tokenOfOwnerByIndex",
      "outputs": [
        {
          "internalType": "uint256",
          "name": "",
          "type": "uint256"
        }
      ],
      "stateMutability": "view",
      "type": "function"
    },
    {
      "inputs": [
        {
          "internalType": "uint256",
          "name": "tokenId",
          "type": "uint256"
        }
      ],
      "name": "tokenURI",
      "outputs": [
        {
          "internalType": "string",
          "name": "",
          "type": "string"
        }
      ],
      "stateMutability": "view",
      "type": "function"
    },
    {
      "inputs": [],
      "name": "totalSupply",
      "outputs": [
        {
          "internalType": "uint256",
          "name": "",
          "type": "uint256"
        }
      ],
      "stateMutability": "view",
      "type": "function"
    },
    {
      "inputs": [
        {
          "internalType": "address",
          "name": "from",
          "type": "address"
        },
        {
          "internalType": "address",
          "name": "to",
          "type": "address"
        },
        {
          "internalType": "uint256",
          "name": "tokenId",
          "type": "uint256"
        }
      ],
      "name": "transferFrom",
      "outputs": [],
      "stateMutability": "nonpayable",
      "type": "function"
    },
    {
      "inputs": [
        {
          "internalType": "string",
          "name": "name",
          "type": "string"
        },
        {
          "internalType": "string",
          "name": "symbol",
          "type": "string"
        },
        {
          "internalType": "string",
          "name": "baseURI",
          "type": "string"
        },
        {
          "internalType": "uint256",
          "name": "_engagementPoint",
          "type": "uint256"
        }
      ],
      "name": "initialize",
      "outputs": [],
      "stateMutability": "nonpayable",
      "type": "function"
    },
    {
      "inputs": [
        {
          "internalType": "string",
          "name": "_name",
          "type": "string"
        },
        {
          "internalType": "string",
          "name": "_symbol",
          "type": "string"
        },
        {
          "internalType": "string",
          "name": "_baseURI",
          "type": "string"
        }
      ],
      "name": "initialize",
      "outputs": [],
      "stateMutability": "nonpayable",
      "type": "function"
    },
    {
      "inputs": [
        {
          "internalType": "uint256",
          "name": "_tierId",
          "type": "uint256"
        },
        {
          "internalType": "uint256",
          "name": "_cost",
          "type": "uint256"
        }
      ],
      "name": "setTierUpgradeCost",
      "outputs": [],
      "stateMutability": "nonpayable",
      "type": "function"
    },
    {
      "inputs": [
        {
          "internalType": "uint256",
          "name": "_tierId",
          "type": "uint256"
        }
      ],
      "name": "getTierUpgradeCost",
      "outputs": [
        {
          "internalType": "uint256",
          "name": "",
          "type": "uint256"
        }
      ],
      "stateMutability": "view",
      "type": "function"
    },
    {
      "inputs": [
        {
          "internalType": "address",
          "name": "_owner",
          "type": "address"
        }
      ],
      "name": "getComposableId",
      "outputs": [
        {
          "internalType": "uint256",
          "name": "",
          "type": "uint256"
        }
      ],
      "stateMutability": "view",
      "type": "function"
    },
    {
      "inputs": [
        {
          "internalType": "address",
          "name": "to",
          "type": "address"
        }
      ],
      "name": "mint",
      "outputs": [],
      "stateMutability": "nonpayable",
      "type": "function"
    },
    {
      "inputs": [
        {
          "internalType": "uint256",
          "name": "tokenId",
          "type": "uint256"
        }
      ],
      "name": "burn",
      "outputs": [],
      "stateMutability": "nonpayable",
      "type": "function"
    },
    {
      "inputs": [],
      "name": "pause",
      "outputs": [],
      "stateMutability": "nonpayable",
      "type": "function"
    },
    {
      "inputs": [],
      "name": "unpause",
      "outputs": [],
      "stateMutability": "nonpayable",
      "type": "function"
    }
  ],
  "bytecode": "0x608060405234801561001057600080fd5b50615a8d80620000216000396000f3fe608060405234801561001057600080fd5b50600436106102695760003560e01c80636a62784211610151578063a6487c53116100c3578063d539139311610087578063d539139314611511578063d547741f1461152f578063e2275b521461157d578063e63ab1e9146115b5578063e985e9c5146115d3578063f23a6e611461164f57610269565b8063a6487c5314610ec5578063b88d4fde146110ae578063bc197c81146111b3578063c87b56dd14611428578063ca15c873146114cf57610269565b806389e7e2f21161011557806389e7e2f214610c735780639010d07c14610cf657806391d1485414610d6e57806395d89b4114610dd4578063a217fddf14610e57578063a22cb46514610e7557610269565b80636a62784214610b085780636c0360eb14610b4c57806370a0823114610bcf5780637c926af614610c275780638456cb5914610c6957610269565b80632f745c59116101ea5780634e18b762116101ae5780634e18b7621461091a5780634f6ccce7146109725780635c975abb146109b457806360d4d23a146109d65780636352211e14610a42578063640bfdb514610ab057610269565b80632f745c59146107c457806336568abe146108265780633f4ba83a1461087457806342842e0e1461087e57806342966c68146108ec57610269565b80631c5d2b49116102315780631c5d2b491461043057806323b872dd14610623578063248a9ca3146106915780632676608c146106d35780632f2ff15d1461077657610269565b806301ffc9a71461026e57806306fdde03146102d3578063081812fc14610356578063095ea7b3146103c457806318160ddd14610412575b600080fd5b6102b96004803603602081101561028457600080fd5b8101908080357bffffffffffffffffffffffffffffffffffffffffffffffffffffffff191690602001909291905050506117b0565b604051808215151515815260200191505060405180910390f35b6102db611818565b6040518080602001828103825283818151815260200191508051906020019080838360005b8381101561031b578082015181840152602081019050610300565b50505050905090810190601f1680156103485780820380516001836020036101000a031916815260200191505b509250505060405180910390f35b6103826004803603602081101561036c57600080fd5b81019080803590602001909291905050506118ba565b604051808273ffffffffffffffffffffffffffffffffffffffff1673ffffffffffffffffffffffffffffffffffffffff16815260200191505060405180910390f35b610410600480360360408110156103da57600080fd5b81019080803573ffffffffffffffffffffffffffffffffffffffff16906020019092919080359060200190929190505050611955565b005b61041a611a99565b6040518082815260200191505060405180910390f35b6106216004803603608081101561044657600080fd5b810190808035906020019064010000000081111561046357600080fd5b82018360208201111561047557600080fd5b8035906020019184600183028401116401000000008311171561049757600080fd5b91908080601f016020809104026020016040519081016040528093929190818152602001838380828437600081840152601f19601f820116905080830192505050505050509192919290803590602001906401000000008111156104fa57600080fd5b82018360208201111561050c57600080fd5b8035906020019184600183028401116401000000008311171561052e57600080fd5b91908080601f016020809104026020016040519081016040528093929190818152602001838380828437600081840152601f19601f8201169050808301925050505050505091929192908035906020019064010000000081111561059157600080fd5b8201836020820111156105a357600080fd5b803590602001918460018302840111640100000000831117156105c557600080fd5b91908080601f016020809104026020016040519081016040528093929190818152602001838380828437600081840152601f19601f82011690508083019250505050505050919291929080359060200190929190505050611aaa565b005b61068f6004803603606081101561063957600080fd5b81019080803573ffffffffffffffffffffffffffffffffffffffff169060200190929190803573ffffffffffffffffffffffffffffffffffffffff16906020019092919080359060200190929190505050611c70565b005b6106bd600480360360208110156106a757600080fd5b8101908080359060200190929190505050611ce6565b6040518082815260200191505060405180910390f35b61071f600480360360408110156106e957600080fd5b8101908080359060200190929190803573ffffffffffffffffffffffffffffffffffffffff169060200190929190505050611d06565b6040518080602001828103825283818151815260200191508051906020019060200280838360005b83811015610762578082015181840152602081019050610747565b505050509050019250505060405180910390f35b6107c26004803603604081101561078c57600080fd5b8101908080359060200190929190803573ffffffffffffffffffffffffffffffffffffffff169060200190929190505050611e89565b005b610810600480360360408110156107da57600080fd5b81019080803573ffffffffffffffffffffffffffffffffffffffff16906020019092919080359060200190929190505050611f13565b6040518082815260200191505060405180910390f35b6108726004803603604081101561083c57600080fd5b8101908080359060200190929190803573ffffffffffffffffffffffffffffffffffffffff169060200190929190505050611f6e565b005b61087c612007565b005b6108ea6004803603606081101561089457600080fd5b81019080803573ffffffffffffffffffffffffffffffffffffffff169060200190929190803573ffffffffffffffffffffffffffffffffffffffff169060200190929190803590602001909291905050506120ac565b005b6109186004803603602081101561090257600080fd5b81019080803590602001909291905050506120cc565b005b61095c6004803603602081101561093057600080fd5b81019080803573ffffffffffffffffffffffffffffffffffffffff16906020019092919050505061213e565b6040518082815260200191505060405180910390f35b61099e6004803603602081101561098857600080fd5b8101908080359060200190929190505050612157565b6040518082815260200191505060405180910390f35b6109bc61217a565b604051808215151515815260200191505060405180910390f35b610a2c600480360360608110156109ec57600080fd5b8101908080359060200190929190803573ffffffffffffffffffffffffffffffffffffffff16906020019092919080359060200190929190505050612191565b6040518082815260200191505060405180910390f35b610a6e60048036036020811015610a5857600080fd5b81019080803590602001909291905050506121fe565b604051808273ffffffffffffffffffffffffffffffffffffffff1673ffffffffffffffffffffffffffffffffffffffff16815260200191505060405180910390f35b610af260048036036020811015610ac657600080fd5b81019080803573ffffffffffffffffffffffffffffffffffffffff169060200190929190505050612235565b6040518082815260200191505060405180910390f35b610b4a60048036036020811015610b1e57600080fd5b81019080803573ffffffffffffffffffffffffffffffffffffffff169060200190929190505050612284565b005b610b5461239a565b6040518080602001828103825283818151815260200191508051906020019080838360005b83811015610b94578082015181840152602081019050610b79565b50505050905090810190601f168015610bc15780820380516001836020036101000a031916815260200191505b509250505060405180910390f35b610c1160048036036020811015610be557600080fd5b81019080803573ffffffffffffffffffffffffffffffffffffffff16906020019092919050505061243c565b6040518082815260200191505060405180910390f35b610c5360048036036020811015610c3d57600080fd5b8101908080359060200190929190505050612511565b6040518082815260200191505060405180910390f35b610c71612534565b005b610c9f60048036036020811015610c8957600080fd5b81019080803590602001909291905050506125d9565b6040518080602001828103825283818151815260200191508051906020019060200280838360005b83811015610ce2578082015181840152602081019050610cc7565b505050509050019250505060405180910390f35b610d2c60048036036040811015610d0c57600080fd5b8101908080359060200190929190803590602001909291905050506126d2565b604051808273ffffffffffffffffffffffffffffffffffffffff1673ffffffffffffffffffffffffffffffffffffffff16815260200191505060405180910390f35b610dba60048036036040811015610d8457600080fd5b8101908080359060200190929190803573ffffffffffffffffffffffffffffffffffffffff169060200190929190505050612704565b604051808215151515815260200191505060405180910390f35b610ddc612736565b6040518080602001828103825283818151815260200191508051906020019080838360005b83811015610e1c578082015181840152602081019050610e01565b50505050905090810190601f168015610e495780820380516001836020036101000a031916815260200191505b509250505060405180910390f35b610e5f6127d8565b6040518082815260200191505060405180910390f35b610ec360048036036040811015610e8b57600080fd5b81019080803573ffffffffffffffffffffffffffffffffffffffff1690602001909291908035151590602001909291905050506127df565b005b6110ac60048036036060811015610edb57600080fd5b8101908080359060200190640100000000811115610ef857600080fd5b820183602082011115610f0a57600080fd5b80359060200191846001830284011164010000000083111715610f2c57600080fd5b91908080601f016020809104026020016040519081016040528093929190818152602001838380828437600081840152601f19601f82011690508083019250505050505050919291929080359060200190640100000000811115610f8f57600080fd5b820183602082011115610fa157600080fd5b80359060200191846001830284011164010000000083111715610fc357600080fd5b91908080601f016020809104026020016040519081016040528093929190818152602001838380828437600081840152601f19601f8201169050808301925050505050505091929192908035906020019064010000000081111561102657600080fd5b82018360208201111561103857600080fd5b8035906020019184600183028401116401000000008311171561105a57600080fd5b91908080601f016020809104026020016040519081016040528093929190818152602001838380828437600081840152601f19601f820116905080830192505050505050509192919290505050612997565b005b6111b1600480360360808110156110c457600080fd5b81019080803573ffffffffffffffffffffffffffffffffffffffff169060200190929190803573ffffffffffffffffffffffffffffffffffffffff169060200190929190803590602001909291908035906020019064010000000081111561112b57600080fd5b82018360208201111561113d57600080fd5b8035906020019184600183028401116401000000008311171561115f57600080fd5b91908080601f016020809104026020016040519081016040528093929190818152602001838380828437600081840152601f19601f820116905080830192505050505050509192919290505050612aac565b005b6113d4600480360360a08110156111c957600080fd5b81019080803573ffffffffffffffffffffffffffffffffffffffff169060200190929190803573ffffffffffffffffffffffffffffffffffffffff1690602001909291908035906020019064010000000081111561122657600080fd5b82018360208201111561123857600080fd5b8035906020019184602083028401116401000000008311171561125a57600080fd5b919080806020026020016040519081016040528093929190818152602001838360200280828437600081840152601f19601f820116905080830192505050505050509192919290803590602001906401000000008111156112ba57600080fd5b8201836020820111156112cc57600080fd5b803590602001918460208302840111640100000000831117156112ee57600080fd5b919080806020026020016040519081016040528093929190818152602001838360200280828437600081840152601f19601f8201169050808301925050505050505091929192908035906020019064010000000081111561134e57600080fd5b82018360208201111561136057600080fd5b8035906020019184600183028401116401000000008311171561138257600080fd5b91908080601f016020809104026020016040519081016040528093929190818152602001838380828437600081840152601f19601f820116905080830192505050505050509192919290505050612b24565b60405180827bffffffffffffffffffffffffffffffffffffffffffffffffffffffff19167bffffffffffffffffffffffffffffffffffffffffffffffffffffffff1916815260200191505060405180910390f35b6114546004803603602081101561143e57600080fd5b8101908080359060200190929190505050612cf3565b6040518080602001828103825283818151815260200191508051906020019080838360005b83811015611494578082015181840152602081019050611479565b50505050905090810190601f1680156114c15780820380516001836020036101000a031916815260200191505b509250505060405180910390f35b6114fb600480360360208110156114e557600080fd5b8101908080359060200190929190505050612fc4565b6040518082815260200191505060405180910390f35b611519612feb565b6040518082815260200191505060405180910390f35b61157b6004803603604081101561154557600080fd5b8101908080359060200190929190803573ffffffffffffffffffffffffffffffffffffffff169060200190929190505050613024565b005b6115b36004803603604081101561159357600080fd5b8101908080359060200190929190803590602001909291905050506130ae565b005b6115bd613183565b6040518082815260200191505060405180910390f35b611635600480360360408110156115e957600080fd5b81019080803573ffffffffffffffffffffffffffffffffffffffff169060200190929190803573ffffffffffffffffffffffffffffffffffffffff1690602001909291905050506131bc565b604051808215151515815260200191505060405180910390f35b61175c600480360360a081101561166557600080fd5b81019080803573ffffffffffffffffffffffffffffffffffffffff169060200190929190803573ffffffffffffffffffffffffffffffffffffffff1690602001909291908035906020019092919080359060200190929190803590602001906401000000008111156116d657600080fd5b8201836020820111156116e857600080fd5b8035906020019184600183028401116401000000008311171561170a57600080fd5b91908080601f016020809104026020016040519081016040528093929190818152602001838380828437600081840152601f19601f820116905080830192505050505050509192919290505050613250565b60405180827bffffffffffffffffffffffffffffffffffffffffffffffffffffffff19167bffffffffffffffffffffffffffffffffffffffffffffffffffffffff1916815260200191505060405180910390f35b600060656000837bffffffffffffffffffffffffffffffffffffffffffffffffffffffff19167bffffffffffffffffffffffffffffffffffffffffffffffffffffffff1916815260200190815260200160002060009054906101000a900460ff169050919050565b6060609c8054600181600116156101000203166002900480601f0160208091040260200160405190810160405280929190818152602001828054600181600116156101000203166002900480156118b05780601f10611885576101008083540402835291602001916118b0565b820191906000526020600020905b81548152906001019060200180831161189357829003601f168201915b5050505050905090565b60006118c58261336c565b61191a576040517f08c379a000000000000000000000000000000000000000000000000000000000815260040180806020018281038252602c81526020018061586c602c913960400191505060405180910390fd5b609a600083815260200190815260200160002060009054906101000a900473ffffffffffffffffffffffffffffffffffffffff169050919050565b6000611960826121fe565b90508073ffffffffffffffffffffffffffffffffffffffff168373ffffffffffffffffffffffffffffffffffffffff1614156119e7576040517f08c379a000000000000000000000000000000000000000000000000000000000815260040180806020018281038252602181526020018061591b6021913960400191505060405180910390fd5b8073ffffffffffffffffffffffffffffffffffffffff16611a06613389565b73ffffffffffffffffffffffffffffffffffffffff161480611a355750611a3481611a2f613389565b6131bc565b5b611a8a576040517f08c379a00000000000000000000000000000000000000000000000000000000081526004018080602001828103825260388152602001806157916038913960400191505060405180910390fd5b611a948383613391565b505050565b6000611aa5609861344a565b905090565b600060019054906101000a900460ff1680611ac95750611ac861345f565b5b80611ae057506000809054906101000a900460ff16155b611b35576040517f08c379a000000000000000000000000000000000000000000000000000000000815260040180806020018281038252602e81526020018061581c602e913960400191505060405180910390fd5b60008060019054906101000a900460ff161590508015611b85576001600060016101000a81548160ff02191690831515021790555060016000806101000a81548160ff0219169083151502179055505b611b996000801b611b94613389565b613470565b611bdf60405180807f4d494e5445525f524f4c45000000000000000000000000000000000000000000815250600b0190506040518091039020611bda613389565b613470565b611c2560405180807f5041555345525f524f4c45000000000000000000000000000000000000000000815250600b0190506040518091039020611c20613389565b613470565b60006101338190555081610131600060018152602001908152602001600020819055508015611c695760008060016101000a81548160ff0219169083151502179055505b5050505050565b611c81611c7b613389565b8261347e565b611cd6576040517f08c379a00000000000000000000000000000000000000000000000000000000081526004018080602001828103825260318152602001806159636031913960400191505060405180910390fd5b611ce1838383613572565b505050565b600060336000838152602001908152602001600020600201549050919050565b606080611d6160fe600086815260200190815260200160002060008573ffffffffffffffffffffffffffffffffffffffff1673ffffffffffffffffffffffffffffffffffffffff1681526020019081526020016000206137b5565b604051908082528060200260200182016040528015611d8f5781602001602082028036833780820191505090505b50905060008090505b611df060fe600087815260200190815260200160002060008673ffffffffffffffffffffffffffffffffffffffff1673ffffffffffffffffffffffffffffffffffffffff1681526020019081526020016000206137b5565b811015611e7e57611e598160fe600088815260200190815260200160002060008773ffffffffffffffffffffffffffffffffffffffff1673ffffffffffffffffffffffffffffffffffffffff1681526020019081526020016000206137ca90919063ffffffff16565b828281518110611e6557fe5b6020026020010181815250508080600101915050611d98565b508091505092915050565b611eb06033600084815260200190815260200160002060020154611eab613389565b612704565b611f05576040517f08c379a000000000000000000000000000000000000000000000000000000000815260040180806020018281038252602f8152602001806155f9602f913960400191505060405180910390fd5b611f0f82826137e4565b5050565b6000611f6682609760008673ffffffffffffffffffffffffffffffffffffffff1673ffffffffffffffffffffffffffffffffffffffff1681526020019081526020016000206137ca90919063ffffffff16565b905092915050565b611f76613389565b73ffffffffffffffffffffffffffffffffffffffff168173ffffffffffffffffffffffffffffffffffffffff1614611ff9576040517f08c379a000000000000000000000000000000000000000000000000000000000815260040180806020018281038252602f815260200180615a29602f913960400191505060405180910390fd5b6120038282613878565b5050565b61204d60405180807f5041555345525f524f4c45000000000000000000000000000000000000000000815250600b0190506040518091039020612048613389565b612704565b6120a2576040517f08c379a00000000000000000000000000000000000000000000000000000000081526004018080602001828103825260408152602001806159e96040913960400191505060405180910390fd5b6120aa61390c565b565b6120c783838360405180602001604052806000815250612aac565b505050565b6120dd6120d7613389565b8261347e565b612132576040517f08c379a00000000000000000000000000000000000000000000000000000000081526004018080602001828103825260308152602001806159946030913960400191505060405180910390fd5b61213b81613a0d565b50565b6101326020528060005260406000206000915090505481565b60008061216e836098613b4790919063ffffffff16565b50905080915050919050565b600060ff60009054906101000a900460ff16905090565b600060fb600085815260200190815260200160002060008473ffffffffffffffffffffffffffffffffffffffff1673ffffffffffffffffffffffffffffffffffffffff16815260200190815260200160002060008381526020019081526020016000205490509392505050565b600061222e826040518060600160405280602981526020016157f3602991396098613b769092919063ffffffff16565b9050919050565b60008061013260008473ffffffffffffffffffffffffffffffffffffffff1673ffffffffffffffffffffffffffffffffffffffff16815260200190815260200160002054905080915050919050565b6122ca60405180807f4d494e5445525f524f4c45000000000000000000000000000000000000000000815250600b01905060405180910390206122c5613389565b612704565b61231f576040517f08c379a00000000000000000000000000000000000000000000000000000000081526004018080602001828103825260258152602001806159c46025913960400191505060405180910390fd5b600061232a8261243c565b1461233457600080fd5b60006001610133540190506123498282613b95565b8061013260008473ffffffffffffffffffffffffffffffffffffffff1673ffffffffffffffffffffffffffffffffffffffff1681526020019081526020016000208190555080610133819055505050565b6060609f8054600181600116156101000203166002900480601f0160208091040260200160405190810160405280929190818152602001828054600181600116156101000203166002900480156124325780601f1061240757610100808354040283529160200191612432565b820191906000526020600020905b81548152906001019060200180831161241557829003601f168201915b5050505050905090565b60008073ffffffffffffffffffffffffffffffffffffffff168273ffffffffffffffffffffffffffffffffffffffff1614156124c3576040517f08c379a000000000000000000000000000000000000000000000000000000000815260040180806020018281038252602a8152602001806157c9602a913960400191505060405180910390fd5b61250a609760008473ffffffffffffffffffffffffffffffffffffffff1673ffffffffffffffffffffffffffffffffffffffff1681526020019081526020016000206137b5565b9050919050565b600080610131600084815260200190815260200160002054905080915050919050565b61257a60405180807f5041555345525f524f4c45000000000000000000000000000000000000000000815250600b0190506040518091039020612575613389565b612704565b6125cf576040517f08c379a000000000000000000000000000000000000000000000000000000000815260040180806020018281038252603e8152602001806156ad603e913960400191505060405180910390fd5b6125d7613d89565b565b6060806125f760fd6000858152602001908152602001600020613e8b565b6040519080825280602002602001820160405280156126255781602001602082028036833780820191505090505b50905060008090505b61264960fd6000868152602001908152602001600020613e8b565b8110156126c8576126758160fd6000878152602001908152602001600020613ea090919063ffffffff16565b82828151811061268157fe5b602002602001019073ffffffffffffffffffffffffffffffffffffffff16908173ffffffffffffffffffffffffffffffffffffffff1681525050808060010191505061262e565b5080915050919050565b60006126fc8260336000868152602001908152602001600020600001613ea090919063ffffffff16565b905092915050565b600061272e8260336000868152602001908152602001600020600001613eba90919063ffffffff16565b905092915050565b6060609d8054600181600116156101000203166002900480601f0160208091040260200160405190810160405280929190818152602001828054600181600116156101000203166002900480156127ce5780601f106127a3576101008083540402835291602001916127ce565b820191906000526020600020905b8154815290600101906020018083116127b157829003601f168201915b5050505050905090565b6000801b81565b6127e7613389565b73ffffffffffffffffffffffffffffffffffffffff168273ffffffffffffffffffffffffffffffffffffffff161415612888576040517f08c379a00000000000000000000000000000000000000000000000000000000081526004018080602001828103825260198152602001807f4552433732313a20617070726f766520746f2063616c6c65720000000000000081525060200191505060405180910390fd5b80609b6000612895613389565b73ffffffffffffffffffffffffffffffffffffffff1673ffffffffffffffffffffffffffffffffffffffff16815260200190815260200160002060008473ffffffffffffffffffffffffffffffffffffffff1673ffffffffffffffffffffffffffffffffffffffff16815260200190815260200160002060006101000a81548160ff0219169083151502179055508173ffffffffffffffffffffffffffffffffffffffff16612942613389565b73ffffffffffffffffffffffffffffffffffffffff167f17307eab39ab6107e8899845ad3d59bd9653f200f220920489ca2b5937696c3183604051808215151515815260200191505060405180910390a35050565b600060019054906101000a900460ff16806129b657506129b561345f565b5b806129cd57506000809054906101000a900460ff16155b612a22576040517f08c379a000000000000000000000000000000000000000000000000000000000815260040180806020018281038252602e81526020018061581c602e913960400191505060405180910390fd5b60008060019054906101000a900460ff161590508015612a72576001600060016101000a81548160ff02191690831515021790555060016000806101000a81548160ff0219169083151502179055505b612a7c8484613eea565b612a8582614005565b8015612aa65760008060016101000a81548160ff0219169083151502179055505b50505050565b612abd612ab7613389565b8361347e565b612b12576040517f08c379a00000000000000000000000000000000000000000000000000000000081526004018080602001828103825260318152602001806159636031913960400191505060405180910390fd5b612b1e8484848461401f565b50505050565b60006020825114612b80576040517f08c379a000000000000000000000000000000000000000000000000000000000815260040180806020018281038252605381526020018061565a6053913960600191505060405180910390fd5b8251845114612bda576040517f08c379a000000000000000000000000000000000000000000000000000000000815260040180806020018281038252602781526020018061593c6027913960400191505060405180910390fd5b612bea8660003088888888614091565b600080602060003690500390508035915060008090505b8651811015612cdd57612c3c8333898481518110612c1b57fe5b6020026020010151898581518110612c2f57fe5b6020026020010151614107565b3373ffffffffffffffffffffffffffffffffffffffff16838973ffffffffffffffffffffffffffffffffffffffff167fa18753b0660a8be2cdae03468c860b47c2926433ab16917f323544652803032d8a8581518110612c9857fe5b60200260200101518a8681518110612cac57fe5b6020026020010151604051808381526020018281526020019250505060405180910390a48080600101915050612c01565b5063bc197c8160e01b9250505095945050505050565b6060612cfe8261336c565b612d53576040517f08c379a000000000000000000000000000000000000000000000000000000000815260040180806020018281038252602f8152602001806158ec602f913960400191505060405180910390fd5b6060609e60008481526020019081526020016000208054600181600116156101000203166002900480601f016020809104026020016040519081016040528092919081815260200182805460018160011615610100020316600290048015612dfc5780601f10612dd157610100808354040283529160200191612dfc565b820191906000526020600020905b815481529060010190602001808311612ddf57829003601f168201915b505050505090506060612e0d61239a565b9050600081511415612e23578192505050612fbf565b600082511115612ef45780826040516020018083805190602001908083835b60208310612e655780518252602082019150602081019050602083039250612e42565b6001836020036101000a03801982511681845116808217855250505050505090500182805190602001908083835b60208310612eb65780518252602082019150602081019050602083039250612e93565b6001836020036101000a0380198251168184511680821785525050505050509050019250505060405160208183030381529060405292505050612fbf565b80612efe8561429a565b6040516020018083805190602001908083835b60208310612f345780518252602082019150602081019050602083039250612f11565b6001836020036101000a03801982511681845116808217855250505050505090500182805190602001908083835b60208310612f855780518252602082019150602081019050602083039250612f62565b6001836020036101000a03801982511681845116808217855250505050505090500192505050604051602081830303815290604052925050505b919050565b6000612fe460336000848152602001908152602001600020600001613e8b565b9050919050565b60405180807f4d494e5445525f524f4c45000000000000000000000000000000000000000000815250600b019050604051809103902081565b61304b6033600084815260200190815260200160002060020154613046613389565b612704565b6130a0576040517f08c379a00000000000000000000000000000000000000000000000000000000081526004018080602001828103825260308152602001806157616030913960400191505060405180910390fd5b6130aa8282613878565b5050565b6130f460405180807f4d494e5445525f524f4c45000000000000000000000000000000000000000000815250600b01905060405180910390206130ef613389565b612704565b613166576040517f08c379a000000000000000000000000000000000000000000000000000000000815260040180806020018281038252601e8152602001807f556e617574686f72697a6564207469657220707269636520736574746572000081525060200191505060405180910390fd5b806101316000848152602001908152602001600020819055505050565b60405180807f5041555345525f524f4c45000000000000000000000000000000000000000000815250600b019050604051809103902081565b6000609b60008473ffffffffffffffffffffffffffffffffffffffff1673ffffffffffffffffffffffffffffffffffffffff16815260200190815260200160002060008373ffffffffffffffffffffffffffffffffffffffff1673ffffffffffffffffffffffffffffffffffffffff16815260200190815260200160002060009054906101000a900460ff16905092915050565b600060208251146132ac576040517f08c379a000000000000000000000000000000000000000000000000000000000815260040180806020018281038252605381526020018061565a6053913960600191505060405180910390fd5b6132cc86600030886132bd896143ca565b6132c6896143ca565b88614091565b60008060206000369050039050803591506132e982338888614107565b3373ffffffffffffffffffffffffffffffffffffffff16828873ffffffffffffffffffffffffffffffffffffffff167fa18753b0660a8be2cdae03468c860b47c2926433ab16917f323544652803032d8989604051808381526020018281526020019250505060405180910390a463f23a6e6160e01b9250505095945050505050565b600061338282609861442390919063ffffffff16565b9050919050565b600033905090565b81609a600083815260200190815260200160002060006101000a81548173ffffffffffffffffffffffffffffffffffffffff021916908373ffffffffffffffffffffffffffffffffffffffff160217905550808273ffffffffffffffffffffffffffffffffffffffff16613404836121fe565b73ffffffffffffffffffffffffffffffffffffffff167f8c5be1e5ebec7d5bd14f71427d1e84f3dd0314c0f7b2291e5b200ac8c7c3b92560405160405180910390a45050565b60006134588260000161443d565b9050919050565b600061346a3061444e565b15905090565b61347a82826137e4565b5050565b60006134898261336c565b6134de576040517f08c379a000000000000000000000000000000000000000000000000000000000815260040180806020018281038252602c815260200180615735602c913960400191505060405180910390fd5b60006134e9836121fe565b90508073ffffffffffffffffffffffffffffffffffffffff168473ffffffffffffffffffffffffffffffffffffffff16148061355857508373ffffffffffffffffffffffffffffffffffffffff16613540846118ba565b73ffffffffffffffffffffffffffffffffffffffff16145b80613569575061356881856131bc565b5b91505092915050565b8273ffffffffffffffffffffffffffffffffffffffff16613592826121fe565b73ffffffffffffffffffffffffffffffffffffffff16146135fe576040517f08c379a00000000000000000000000000000000000000000000000000000000081526004018080602001828103825260298152602001806158c36029913960400191505060405180910390fd5b600073ffffffffffffffffffffffffffffffffffffffff168273ffffffffffffffffffffffffffffffffffffffff161415613684576040517f08c379a00000000000000000000000000000000000000000000000000000000081526004018080602001828103825260248152602001806156eb6024913960400191505060405180910390fd5b61368f838383614461565b61369a600082613391565b6136eb81609760008673ffffffffffffffffffffffffffffffffffffffff1673ffffffffffffffffffffffffffffffffffffffff1681526020019081526020016000206144cf90919063ffffffff16565b5061373d81609760008573ffffffffffffffffffffffffffffffffffffffff1673ffffffffffffffffffffffffffffffffffffffff1681526020019081526020016000206144e990919063ffffffff16565b50613754818360986145039092919063ffffffff16565b50808273ffffffffffffffffffffffffffffffffffffffff168473ffffffffffffffffffffffffffffffffffffffff167fddf252ad1be2c89b69c2b068fc378daa952ba7f163c4a11628f55a4df523b3ef60405160405180910390a4505050565b60006137c382600001614538565b9050919050565b60006137d98360000183614549565b60001c905092915050565b61380c81603360008581526020019081526020016000206000016145cc90919063ffffffff16565b1561387457613819613389565b73ffffffffffffffffffffffffffffffffffffffff168173ffffffffffffffffffffffffffffffffffffffff16837f2f8788117e7eff1d82e926ec794901d17c78024a50270940304540a733656f0d60405160405180910390a45b5050565b6138a081603360008581526020019081526020016000206000016145fc90919063ffffffff16565b15613908576138ad613389565b73ffffffffffffffffffffffffffffffffffffffff168173ffffffffffffffffffffffffffffffffffffffff16837ff6391f5c32d9c69d2a47ea670b442974b53935d1edc7fd64eb21e047a839171b60405160405180910390a45b5050565b61391461217a565b613986576040517f08c379a00000000000000000000000000000000000000000000000000000000081526004018080602001828103825260148152602001807f5061757361626c653a206e6f742070617573656400000000000000000000000081525060200191505060405180910390fd5b600060ff60006101000a81548160ff0219169083151502179055507f5db9ee0a495bf2e6ff9c91a7834c1ba4fdd244a5e8aa4e537bd38aeae4b073aa6139ca613389565b604051808273ffffffffffffffffffffffffffffffffffffffff1673ffffffffffffffffffffffffffffffffffffffff16815260200191505060405180910390a1565b6000613a18826121fe565b9050613a2681600084614461565b613a31600083613391565b6000609e600084815260200190815260200160002080546001816001161561010002031660029004905014613a8057609e60008381526020019081526020016000206000613a7f91906154be565b5b613ad182609760008473ffffffffffffffffffffffffffffffffffffffff1673ffffffffffffffffffffffffffffffffffffffff1681526020019081526020016000206144cf90919063ffffffff16565b50613ae682609861462c90919063ffffffff16565b5081600073ffffffffffffffffffffffffffffffffffffffff168273ffffffffffffffffffffffffffffffffffffffff167fddf252ad1be2c89b69c2b068fc378daa952ba7f163c4a11628f55a4df523b3ef60405160405180910390a45050565b600080600080613b5a8660000186614646565b915091508160001c8160001c8090509350935050509250929050565b6000613b89846000018460001b846146df565b60001c90509392505050565b600073ffffffffffffffffffffffffffffffffffffffff168273ffffffffffffffffffffffffffffffffffffffff161415613c38576040517f08c379a00000000000000000000000000000000000000000000000000000000081526004018080602001828103825260208152602001807f4552433732313a206d696e7420746f20746865207a65726f206164647265737381525060200191505060405180910390fd5b613c418161336c565b15613cb4576040517f08c379a000000000000000000000000000000000000000000000000000000000815260040180806020018281038252601c8152602001807f4552433732313a20746f6b656e20616c7265616479206d696e7465640000000081525060200191505060405180910390fd5b613cc060008383614461565b613d1181609760008573ffffffffffffffffffffffffffffffffffffffff1673ffffffffffffffffffffffffffffffffffffffff1681526020019081526020016000206144e990919063ffffffff16565b50613d28818360986145039092919063ffffffff16565b50808273ffffffffffffffffffffffffffffffffffffffff16600073ffffffffffffffffffffffffffffffffffffffff167fddf252ad1be2c89b69c2b068fc378daa952ba7f163c4a11628f55a4df523b3ef60405160405180910390a45050565b613d9161217a565b15613e04576040517f08c379a00000000000000000000000000000000000000000000000000000000081526004018080602001828103825260108152602001807f5061757361626c653a207061757365640000000000000000000000000000000081525060200191505060405180910390fd5b600160ff60006101000a81548160ff0219169083151502179055507f62e78cea01bee320cd4e420270b5ea74000d11b0c9f74754ebdbfc544b05a258613e48613389565b604051808273ffffffffffffffffffffffffffffffffffffffff1673ffffffffffffffffffffffffffffffffffffffff16815260200191505060405180910390a1565b6000613e9982600001614538565b9050919050565b6000613eaf8360000183614549565b60001c905092915050565b6000613ee2836000018373ffffffffffffffffffffffffffffffffffffffff1660001b6147d5565b905092915050565b600060019054906101000a900460ff1680613f095750613f0861345f565b5b80613f2057506000809054906101000a900460ff16155b613f75576040517f08c379a000000000000000000000000000000000000000000000000000000000815260040180806020018281038252602e81526020018061581c602e913960400191505060405180910390fd5b60008060019054906101000a900460ff161590508015613fc5576001600060016101000a81548160ff02191690831515021790555060016000806101000a81548160ff0219169083151502179055505b613fcd6147f8565b613fd56148f7565b613fdf8383614a06565b80156140005760008060016101000a81548160ff0219169083151502179055505b505050565b80609f908051906020019061401b929190615506565b5050565b61402a848484613572565b61403684848484614b65565b61408b576040517f08c379a00000000000000000000000000000000000000000000000000000000081526004018080602001828103825260328152602001806156286032913960400191505060405180910390fd5b50505050565b61409961217a565b156140ef576040517f08c379a000000000000000000000000000000000000000000000000000000000815260040180806020018281038252602b815260200180615898602b913960400191505060405180910390fd5b6140fe87878787878787614daa565b50505050505050565b61412c8360fd6000878152602001908152602001600020613eba90919063ffffffff16565b614157576141558360fd60008781526020019081526020016000206145cc90919063ffffffff16565b505b600060fb600086815260200190815260200160002060008573ffffffffffffffffffffffffffffffffffffffff1673ffffffffffffffffffffffffffffffffffffffff1681526020019081526020016000206000848152602001908152602001600020541415614225576142238260fe600085815260200190815260200160002060008673ffffffffffffffffffffffffffffffffffffffff1673ffffffffffffffffffffffffffffffffffffffff1681526020019081526020016000206144e990919063ffffffff16565b505b8060fb600086815260200190815260200160002060008573ffffffffffffffffffffffffffffffffffffffff1673ffffffffffffffffffffffffffffffffffffffff16815260200190815260200160002060008481526020019081526020016000206000828254019250508190555050505050565b606060008214156142e2576040518060400160405280600181526020017f300000000000000000000000000000000000000000000000000000000000000081525090506143c5565b600082905060005b6000821461430c578080600101915050600a828161430457fe5b0491506142ea565b6060816040519080825280601f01601f1916602001820160405280156143415781602001600182028036833780820191505090505b50905060006001830390508593505b600084146143bd57600a848161436257fe5b0660300160f81b8282806001900393508151811061437c57fe5b60200101907effffffffffffffffffffffffffffffffffffffffffffffffffffffffffffff1916908160001a905350600a84816143b557fe5b049350614350565b819450505050505b919050565b60608060016040519080825280602002602001820160405280156143fd5781602001602082028036833780820191505090505b509050828160008151811061440e57fe5b60200260200101818152505080915050919050565b6000614435836000018360001b614db3565b905092915050565b600081600001805490509050919050565b600080823b905060008111915050919050565b61446961217a565b156144bf576040517f08c379a000000000000000000000000000000000000000000000000000000000815260040180806020018281038252602b8152602001806155ce602b913960400191505060405180910390fd5b6144ca838383614dd6565b505050565b60006144e1836000018360001b614ddb565b905092915050565b60006144fb836000018360001b614ec3565b905092915050565b600061452f846000018460001b8473ffffffffffffffffffffffffffffffffffffffff1660001b614f33565b90509392505050565b600081600001805490509050919050565b6000818360000180549050116145aa576040517f08c379a00000000000000000000000000000000000000000000000000000000081526004018080602001828103825260228152602001806155ac6022913960400191505060405180910390fd5b8260000182815481106145b957fe5b9060005260206000200154905092915050565b60006145f4836000018373ffffffffffffffffffffffffffffffffffffffff1660001b614ec3565b905092915050565b6000614624836000018373ffffffffffffffffffffffffffffffffffffffff1660001b614ddb565b905092915050565b600061463e836000018360001b61500f565b905092915050565b600080828460000180549050116146a8576040517f08c379a000000000000000000000000000000000000000000000000000000000815260040180806020018281038252602281526020018061584a6022913960400191505060405180910390fd5b60008460000184815481106146b957fe5b906000526020600020906002020190508060000154816001015492509250509250929050565b600080846001016000858152602001908152602001600020549050600081141583906147a6576040517f08c379a00000000000000000000000000000000000000000000000000000000081526004018080602001828103825283818151815260200191508051906020019080838360005b8381101561476b578082015181840152602081019050614750565b50505050905090810190601f1680156147985780820380516001836020036101000a031916815260200191505b509250505060405180910390fd5b508460000160018203815481106147b957fe5b9060005260206000209060020201600101549150509392505050565b600080836001016000848152602001908152602001600020541415905092915050565b600060019054906101000a900460ff1680614817575061481661345f565b5b8061482e57506000809054906101000a900460ff16155b614883576040517f08c379a000000000000000000000000000000000000000000000000000000000815260040180806020018281038252602e81526020018061581c602e913960400191505060405180910390fd5b60008060019054906101000a900460ff1615905080156148d3576001600060016101000a81548160ff02191690831515021790555060016000806101000a81548160ff0219169083151502179055505b80156148f45760008060016101000a81548160ff0219169083151502179055505b50565b600060019054906101000a900460ff1680614916575061491561345f565b5b8061492d57506000809054906101000a900460ff16155b614982576040517f08c379a000000000000000000000000000000000000000000000000000000000815260040180806020018281038252602e81526020018061581c602e913960400191505060405180910390fd5b60008060019054906101000a900460ff1615905080156149d2576001600060016101000a81548160ff02191690831515021790555060016000806101000a81548160ff0219169083151502179055505b6149e26301ffc9a760e01b615128565b8015614a035760008060016101000a81548160ff0219169083151502179055505b50565b600060019054906101000a900460ff1680614a255750614a2461345f565b5b80614a3c57506000809054906101000a900460ff16155b614a91576040517f08c379a000000000000000000000000000000000000000000000000000000000815260040180806020018281038252602e81526020018061581c602e913960400191505060405180910390fd5b60008060019054906101000a900460ff161590508015614ae1576001600060016101000a81548160ff02191690831515021790555060016000806101000a81548160ff0219169083151502179055505b82609c9080519060200190614af7929190615506565b5081609d9080519060200190614b0e929190615506565b50614b1f6380ac58cd60e01b615128565b614b2f635b5e139f60e01b615128565b614b3f63780e9d6360e01b615128565b8015614b605760008060016101000a81548160ff0219169083151502179055505b505050565b6000614b868473ffffffffffffffffffffffffffffffffffffffff1661444e565b614b935760019050614da2565b6060614d2963150b7a0260e01b614ba8613389565b888787604051602401808573ffffffffffffffffffffffffffffffffffffffff1673ffffffffffffffffffffffffffffffffffffffff1681526020018473ffffffffffffffffffffffffffffffffffffffff1673ffffffffffffffffffffffffffffffffffffffff16815260200183815260200180602001828103825283818151815260200191508051906020019080838360005b83811015614c58578082015181840152602081019050614c3d565b50505050905090810190601f168015614c855780820380516001836020036101000a031916815260200191505b5095505050505050604051602081830303815290604052907bffffffffffffffffffffffffffffffffffffffffffffffffffffffff19166020820180517bffffffffffffffffffffffffffffffffffffffffffffffffffffffff8381831617835250505050604051806060016040528060328152602001615628603291398773ffffffffffffffffffffffffffffffffffffffff166152319092919063ffffffff16565b90506000818060200190516020811015614d4257600080fd5b8101908080519060200190929190505050905063150b7a0260e01b7bffffffffffffffffffffffffffffffffffffffffffffffffffffffff1916817bffffffffffffffffffffffffffffffffffffffffffffffffffffffff191614925050505b949350505050565b50505050505050565b600080836001016000848152602001908152602001600020541415905092915050565b505050565b60008083600101600084815260200190815260200160002054905060008114614eb75760006001820390506000600186600001805490500390506000866000018281548110614e2657fe5b9060005260206000200154905080876000018481548110614e4357fe5b9060005260206000200181905550600183018760010160008381526020019081526020016000208190555086600001805480614e7b57fe5b60019003818190600052602060002001600090559055866001016000878152602001908152602001600020600090556001945050505050614ebd565b60009150505b92915050565b6000614ecf83836147d5565b614f28578260000182908060018154018082558091505060019003906000526020600020016000909190919091505582600001805490508360010160008481526020019081526020016000208190555060019050614f2d565b600090505b92915050565b6000808460010160008581526020019081526020016000205490506000811415614fda57846000016040518060400160405280868152602001858152509080600181540180825580915050600190039060005260206000209060020201600090919091909150600082015181600001556020820151816001015550508460000180549050856001016000868152602001908152602001600020819055506001915050615008565b82856000016001830381548110614fed57fe5b90600052602060002090600202016001018190555060009150505b9392505050565b6000808360010160008481526020019081526020016000205490506000811461511c576000600182039050600060018660000180549050039050600086600001828154811061505a57fe5b906000526020600020906002020190508087600001848154811061507a57fe5b90600052602060002090600202016000820154816000015560018201548160010155905050600183018760010160008360000154815260200190815260200160002081905550866000018054806150cd57fe5b6001900381819060005260206000209060020201600080820160009055600182016000905550509055866001016000878152602001908152602001600020600090556001945050505050615122565b60009150505b92915050565b63ffffffff60e01b817bffffffffffffffffffffffffffffffffffffffffffffffffffffffff191614156151c4576040517f08c379a000000000000000000000000000000000000000000000000000000000815260040180806020018281038252601c8152602001807f4552433136353a20696e76616c696420696e746572666163652069640000000081525060200191505060405180910390fd5b600160656000837bffffffffffffffffffffffffffffffffffffffffffffffffffffffff19167bffffffffffffffffffffffffffffffffffffffffffffffffffffffff1916815260200190815260200160002060006101000a81548160ff02191690831515021790555050565b60606152408484600085615249565b90509392505050565b6060824710156152a4576040517f08c379a000000000000000000000000000000000000000000000000000000000815260040180806020018281038252602681526020018061570f6026913960400191505060405180910390fd5b6152ad8561444e565b61531f576040517f08c379a000000000000000000000000000000000000000000000000000000000815260040180806020018281038252601d8152602001807f416464726573733a2063616c6c20746f206e6f6e2d636f6e747261637400000081525060200191505060405180910390fd5b600060608673ffffffffffffffffffffffffffffffffffffffff1685876040518082805190602001908083835b6020831061536f578051825260208201915060208101905060208303925061534c565b6001836020036101000a03801982511681845116808217855250505050505090500191505060006040518083038185875af1925050503d80600081146153d1576040519150601f19603f3d011682016040523d82523d6000602084013e6153d6565b606091505b50915091506153e68282866153f2565b92505050949350505050565b60608315615402578290506154b7565b6000835111156154155782518084602001fd5b816040517f08c379a00000000000000000000000000000000000000000000000000000000081526004018080602001828103825283818151815260200191508051906020019080838360005b8381101561547c578082015181840152602081019050615461565b50505050905090810190601f1680156154a95780820380516001836020036101000a031916815260200191505b509250505060405180910390fd5b9392505050565b50805460018160011615610100020316600290046000825580601f106154e45750615503565b601f0160209004906000526020600020908101906155029190615586565b5b50565b828054600181600116156101000203166002900490600052602060002090601f016020900481019282601f1061554757805160ff1916838001178555615575565b82800160010185558215615575579182015b82811115615574578251825591602001919060010190615559565b5b5090506155829190615586565b5090565b6155a891905b808211156155a457600081600090555060010161558c565b5090565b9056fe456e756d657261626c655365743a20696e646578206f7574206f6620626f756e64734552433732315061757361626c653a20746f6b656e207472616e73666572207768696c6520706175736564416363657373436f6e74726f6c3a2073656e646572206d75737420626520616e2061646d696e20746f206772616e744552433732313a207472616e7366657220746f206e6f6e20455243373231526563656976657220696d706c656d656e7465724552433939383a2064617461206d75737420636f6e7461696e2074686520756e697175652075696e7432353620746f6b656e496420746f207472616e7366657220746865206368696c6420746f6b656e20746f4552433732315072657365744d696e7465725061757365724175746f49643a206d75737420686176652070617573657220726f6c6520746f2070617573654552433732313a207472616e7366657220746f20746865207a65726f2061646472657373416464726573733a20696e73756666696369656e742062616c616e636520666f722063616c6c4552433732313a206f70657261746f7220717565727920666f72206e6f6e6578697374656e7420746f6b656e416363657373436f6e74726f6c3a2073656e646572206d75737420626520616e2061646d696e20746f207265766f6b654552433732313a20617070726f76652063616c6c6572206973206e6f74206f776e6572206e6f7220617070726f76656420666f7220616c6c4552433732313a2062616c616e636520717565727920666f7220746865207a65726f20616464726573734552433732313a206f776e657220717565727920666f72206e6f6e6578697374656e7420746f6b656e496e697469616c697a61626c653a20636f6e747261637420697320616c726561647920696e697469616c697a6564456e756d657261626c654d61703a20696e646578206f7574206f6620626f756e64734552433732313a20617070726f76656420717565727920666f72206e6f6e6578697374656e7420746f6b656e4552433939385061757361626c653a206368696c64207472616e73666572207768696c65207061757365644552433732313a207472616e73666572206f6620746f6b656e2074686174206973206e6f74206f776e4552433732314d657461646174613a2055524920717565727920666f72206e6f6e6578697374656e7420746f6b656e4552433732313a20617070726f76616c20746f2063757272656e74206f776e6572455243313135353a2069647320616e642076616c756573206c656e677468206d69736d617463684552433732313a207472616e736665722063616c6c6572206973206e6f74206f776e6572206e6f7220617070726f7665644552433732314275726e61626c653a2063616c6c6572206973206e6f74206f776e6572206e6f7220617070726f7665644552433732313a206d7573742068617665206d696e74657220726f6c6520746f206d696e744552433732315072657365744d696e7465725061757365724175746f49643a206d75737420686176652070617573657220726f6c6520746f20756e7061757365416363657373436f6e74726f6c3a2063616e206f6e6c792072656e6f756e636520726f6c657320666f722073656c66a264697066735822122001889b98e1f1604d96e43cab70e5371823b9b82a25ae49919f1dea2ebcca0cf564736f6c63430006030033",
  "source": "// SPDX-License-Identifier: MIT\n\npragma solidity ^0.6.0;\n\nimport \"@openzeppelin/contracts-upgradeable/proxy/Initializable.sol\";\nimport \"@openzeppelin/contracts-upgradeable/access/AccessControlUpgradeable.sol\";\nimport \"@openzeppelin/contracts-upgradeable/GSN/ContextUpgradeable.sol\";\nimport \"@openzeppelin/contracts-upgradeable/utils/PausableUpgradeable.sol\";\n\nimport \"./ERC998ERC1155TopDownUpgradeable.sol\";\n\n/**\n * @dev {ERC998} token, including:\n *\n *  - ability for holders to burn (destroy) their tokens\n *  - a minter role that allows for token minting (creation)\n *  - a pauser role that allows to stop all token transfers\n *\n * This contract uses {AccessControl} to lock permissioned functions using the\n * different roles - head to its documentation for details.\n *\n * The account that deploys the contract will be granted the minter and pauser\n * roles, as well as the default admin role, which will let it grant both minter\n * and pauser roles to other accounts.\n */\ncontract ERC998ERC1155TopDownPresetMinterPauserUpgradeable is\n    Initializable,\n    ContextUpgradeable,\n    AccessControlUpgradeable,\n    ERC998ERC1155TopDownUpgradeable,\n    PausableUpgradeable\n{\n    using SafeMathUpgradeable for uint256;\n    bytes32 public constant MINTER_ROLE = keccak256(\"MINTER_ROLE\");\n    bytes32 public constant PAUSER_ROLE = keccak256(\"PAUSER_ROLE\");\n    mapping(uint256 => uint256) tierIdtoUpgradeCost; // 1,2,3 ...  cost to upgrade to tier1, tier2, tier3...\n    mapping(address => uint256) public ownerToComposableId;\n    uint256 composableCount;\n\n    /**\n     * @dev Grants `DEFAULT_ADMIN_ROLE`, `MINTER_ROLE` and `PAUSER_ROLE` to the\n     * account that deploys the contract.\n     *\n     * Token URIs will be autogenerated based on `baseURI` and their token IDs.\n     * See {ERC721-tokenURI}.\n     */\n    function initialize(\n        string memory name,\n        string memory symbol,\n        string memory baseURI,\n        uint256 _engagementPoint // at 115 tierId 0\n    ) public initializer {\n        // ERC998ERC1155TopDown(name, symbol, baseURI)\n\n        _setupRole(DEFAULT_ADMIN_ROLE, _msgSender());\n        _setupRole(MINTER_ROLE, _msgSender());\n        _setupRole(PAUSER_ROLE, _msgSender());\n        composableCount = 0;\n        tierIdtoUpgradeCost[1] = _engagementPoint;\n    }\n\n    /// @notice manually add tier upgrade prices\n    function setTierUpgradeCost(uint256 _tierId, uint256 _cost) public {\n        require(\n            hasRole(MINTER_ROLE, _msgSender()),\n            \"Unauthorized tier price setter\"\n        );\n\n        tierIdtoUpgradeCost[_tierId] = _cost;\n    }\n\n    /// returns uint price of tier upgrade\n    function getTierUpgradeCost(uint256 _tierId) public view returns (uint256) {\n        uint256 cost = tierIdtoUpgradeCost[_tierId];\n        return cost;\n    }\n\n    // function incrementTierId(address _to) private {\n    //     ownerToTierId[_to] = _latestTierId;\n    // }\n\n    function getComposableId(address _owner) public view returns (uint256) {\n        uint256 cid = ownerToComposableId[_owner];\n        return cid;\n    }\n\n    /**\n     * @dev Creates a new token for `to`. The token URI autogenerated based on\n     * the base URI passed at construction and the token ID.\n     *\n     * See {ERC721-_mint}.\n     *\n     * Requirements:\n     *\n     * - the caller must have the `MINTER_ROLE`.\n     */\n\n    /// admin would be marketplace\n\n    // >one account can only mint once\n\n    /// @param to addres the SNFT is minted to\n    function mint(address to) public virtual {\n        require(\n            hasRole(MINTER_ROLE, _msgSender()),\n            \"ERC721: must have minter role to mint\"\n        );\n\n        require(balanceOf(to) == 0);\n\n        uint256 tokenId = composableCount + 1; //totalSupply()\n        // require()); // implement safemath\n\n        // // We cannot just use balanceOf to create the new tokenId because tokens\n        // // can be burned (destroyed), so we need a separate counter.\n        _mint(to, tokenId);\n        ownerToComposableId[to] = tokenId;\n        // ownerToTierId[to] = 0; // level0\n        composableCount = tokenId;\n    }\n\n    /**\n     * @dev Burns `tokenId`. See {ERC721-_burn}.\n     *\n     * Requirements:\n     *\n     * - The caller must own `tokenId` or be an approved operator.\n     */\n    function burn(uint256 tokenId) public virtual {\n        //solhint-disable-next-line max-line-length\n        require(\n            _isApprovedOrOwner(_msgSender(), tokenId),\n            \"ERC721Burnable: caller is not owner nor approved\"\n        );\n        _burn(tokenId);\n    }\n\n    /**\n     * @dev Pauses all token transfers.\n     *\n     * See {ERC721Pausable} and {Pausable-_pause}.\n     *\n     * Requirements:\n     *\n     * - the caller must have the `PAUSER_ROLE`.\n     */\n    function pause() public virtual {\n        require(\n            hasRole(PAUSER_ROLE, _msgSender()),\n            \"ERC721PresetMinterPauserAutoId: must have pauser role to pause\"\n        );\n        _pause();\n    }\n\n    /**\n     * @dev Unpauses all token transfers.\n     *\n     * See {ERC721Pausable} and {Pausable-_unpause}.\n     *\n     * Requirements:\n     *\n     * - the caller must have the `PAUSER_ROLE`.\n     */\n    function unpause() public virtual {\n        require(\n            hasRole(PAUSER_ROLE, _msgSender()),\n            \"ERC721PresetMinterPauserAutoId: must have pauser role to unpause\"\n        );\n        _unpause();\n    }\n\n    /**\n     * @dev See {ERC721-_beforeTokenTransfer}.\n     *\n     * Requirements:\n     *\n     * - the contract must not be paused.\n     */\n    function _beforeTokenTransfer(\n        address from,\n        address to,\n        uint256 tokenId\n    ) internal virtual override {\n        require(!paused(), \"ERC721Pausable: token transfer while paused\");\n\n        super._beforeTokenTransfer(from, to, tokenId);\n    }\n\n    function _beforeChildTransfer(\n        address operator,\n        uint256 fromTokenId,\n        address to,\n        address childContract,\n        uint256[] memory ids,\n        uint256[] memory amounts,\n        bytes memory data\n    ) internal virtual override {\n        require(!paused(), \"ERC998Pausable: child transfer while paused\");\n\n        super._beforeChildTransfer(\n            operator,\n            fromTokenId,\n            to,\n            childContract,\n            ids,\n            amounts,\n            data\n        );\n    }\n}\n",
  "sourcePath": "/home/waverune/respct-club/ERC998ERC1155/contracts/ERC998ERC1155TopDownPresetMinterPauserUpgradeable.sol",
  "compiler": {
    "name": "solc",
    "version": "0.6.3+commit.8dda9521.Emscripten.clang"
  },
  "schemaVersion": "3.4.1",
  "updatedAt": "2022-03-22T18:11:32.378Z",
  "devdoc": {
    "details": "{ERC998} token, including: *  - ability for holders to burn (destroy) their tokens - a minter role that allows for token minting (creation) - a pauser role that allows to stop all token transfers * This contract uses {AccessControl} to lock permissioned functions using the different roles - head to its documentation for details. * The account that deploys the contract will be granted the minter and pauser roles, as well as the default admin role, which will let it grant both minter and pauser roles to other accounts.",
    "methods": {
      "approve(address,uint256)": {
        "details": "See {IERC721-approve}."
      },
      "balanceOf(address)": {
        "details": "See {IERC721-balanceOf}."
      },
      "baseURI()": {
        "details": "Returns the base URI set via {_setBaseURI}. This will be automatically added as a prefix in {tokenURI} to each token's URI, or to the token ID if no specific URI is set for that token ID."
      },
      "burn(uint256)": {
        "details": "Burns `tokenId`. See {ERC721-_burn}.     * Requirements:     * - The caller must own `tokenId` or be an approved operator."
      },
      "childBalance(uint256,address,uint256)": {
        "details": "Gives child balance for a specific child contract and child id .",
        "params": {
          "childContract": "1155tier upgrade contract",
          "composableId": ", composable ID",
          "tierId": "tier level"
        },
        "returns": {
          "_0": "uint tier"
        }
      },
      "childContractsFor(uint256)": {
        "details": "Gives list of child contract where token ID has childs."
      },
      "childIdsForOn(uint256,address)": {
        "details": "Gives list of owned child ID on a child contract by token ID."
      },
      "getApproved(uint256)": {
        "details": "See {IERC721-getApproved}."
      },
      "getRoleAdmin(bytes32)": {
        "details": "Returns the admin role that controls `role`. See {grantRole} and {revokeRole}.     * To change a role's admin, use {_setRoleAdmin}."
      },
      "getRoleMember(bytes32,uint256)": {
        "details": "Returns one of the accounts that have `role`. `index` must be a value between 0 and {getRoleMemberCount}, non-inclusive.     * Role bearers are not sorted in any particular way, and their ordering may change at any point.     * WARNING: When using {getRoleMember} and {getRoleMemberCount}, make sure you perform all queries on the same block. See the following https://forum.openzeppelin.com/t/iterating-over-elements-on-enumerableset-in-openzeppelin-contracts/2296[forum post] for more information."
      },
      "getRoleMemberCount(bytes32)": {
        "details": "Returns the number of accounts that have `role`. Can be used together with {getRoleMember} to enumerate all bearers of a role."
      },
      "grantRole(bytes32,address)": {
        "details": "Grants `role` to `account`.     * If `account` had not been already granted `role`, emits a {RoleGranted} event.     * Requirements:     * - the caller must have ``role``'s admin role."
      },
      "hasRole(bytes32,address)": {
        "details": "Returns `true` if `account` has been granted `role`."
      },
      "initialize(string,string,string,uint256)": {
        "details": "Grants `DEFAULT_ADMIN_ROLE`, `MINTER_ROLE` and `PAUSER_ROLE` to the account that deploys the contract.     * Token URIs will be autogenerated based on `baseURI` and their token IDs. See {ERC721-tokenURI}."
      },
      "isApprovedForAll(address,address)": {
        "details": "See {IERC721-isApprovedForAll}."
      },
      "mint(address)": {
        "params": {
          "to": "addres the SNFT is minted to"
        }
      },
      "name()": {
        "details": "See {IERC721Metadata-name}."
      },
      "onERC1155BatchReceived(address,address,uint256[],uint256[],bytes)": {
        "details": "Receives a batch of child tokens, the receiver token ID must be encoded in the field data."
      },
      "ownerOf(uint256)": {
        "details": "See {IERC721-ownerOf}."
      },
      "pause()": {
        "details": "Pauses all token transfers.     * See {ERC721Pausable} and {Pausable-_pause}.     * Requirements:     * - the caller must have the `PAUSER_ROLE`."
      },
      "paused()": {
        "details": "Returns true if the contract is paused, and false otherwise."
      },
      "renounceRole(bytes32,address)": {
        "details": "Revokes `role` from the calling account.     * Roles are often managed via {grantRole} and {revokeRole}: this function's purpose is to provide a mechanism for accounts to lose their privileges if they are compromised (such as when a trusted device is misplaced).     * If the calling account had been granted `role`, emits a {RoleRevoked} event.     * Requirements:     * - the caller must be `account`."
      },
      "revokeRole(bytes32,address)": {
        "details": "Revokes `role` from `account`.     * If `account` had been granted `role`, emits a {RoleRevoked} event.     * Requirements:     * - the caller must have ``role``'s admin role."
      },
      "safeTransferFrom(address,address,uint256)": {
        "details": "See {IERC721-safeTransferFrom}."
      },
      "safeTransferFrom(address,address,uint256,bytes)": {
        "details": "See {IERC721-safeTransferFrom}."
      },
      "setApprovalForAll(address,bool)": {
        "details": "See {IERC721-setApprovalForAll}."
      },
      "supportsInterface(bytes4)": {
        "details": "See {IERC165-supportsInterface}.     * Time complexity O(1), guaranteed to always use less than 30 000 gas."
      },
      "symbol()": {
        "details": "See {IERC721Metadata-symbol}."
      },
      "tokenByIndex(uint256)": {
        "details": "See {IERC721Enumerable-tokenByIndex}."
      },
      "tokenOfOwnerByIndex(address,uint256)": {
        "details": "See {IERC721Enumerable-tokenOfOwnerByIndex}."
      },
      "tokenURI(uint256)": {
        "details": "See {IERC721Metadata-tokenURI}."
      },
      "totalSupply()": {
        "details": "See {IERC721Enumerable-totalSupply}."
      },
      "transferFrom(address,address,uint256)": {
        "details": "See {IERC721-transferFrom}."
      },
      "unpause()": {
        "details": "Unpauses all token transfers.     * See {ERC721Pausable} and {Pausable-_unpause}.     * Requirements:     * - the caller must have the `PAUSER_ROLE`."
      }
    }
  },
  "userdoc": {
    "methods": {
      "childBalance(uint256,address,uint256)": {
        "notice": "tier level for a composable     *"
      },
      "childContractsFor(uint256)": {
        "notice": "*"
      },
      "getTierUpgradeCost(uint256)": {
        "notice": "returns uint price of tier upgrade"
      },
      "setTierUpgradeCost(uint256,uint256)": {
        "notice": "manually add tier upgrade prices"
      }
    }
  }
}